:020000040000FA
:0400000007EF00F016
:100008004082FBED0CF0BEEF0CF00450800B0D6E3F
:10001800045004240F6E03AE14EF00F016EF00F046
:1000280017EF00F00F800F50D8B41DEF00F01FEF4E
:1000380000F034EF00F00F28D8A425EF00F027EFE8
:1000480000F02FEF00F0000E016E000E026E000EA1
:10005800036E000E046E038E000E046E3CEF00F07B
:10006800000E016E000E026E000E036E000E046E8E
:100078000850800B0E6E0D500E18D8B446EF00F0E5
:1000880048EF00F049EF00F00D8C085008240E6E80
:1000980007AE51EF00F053EF00F054EF00F00E8080
:1000A8000E50D8B45AEF00F05CEF00F071EF00F09A
:1000B8000E28D8A462EF00F064EF00F06CEF00F0B7
:1000C800000E056E000E066E000E076E000E086E1E
:1000D800078E000E086E79EF00F0000E056E000E18
:1000E800066E000E076E000E086E0F500E5CD8B03C
:1000F80080EF00F082EF00F0A9EF00F00DAC87EF81
:1001080000F089EF00F08BEF00F0800E0D1A0FC0A1
:1001180010F00EC00FF010C00EF001C010F005C0B6
:1001280001F010C005F002C010F006C002F010C0C7
:1001380006F003C010F007C003F010C007F004C0B9
:1001480010F008C004F010C008F0000E106E0F5038
:100158000EC009F00A6A095E000E0A5A0ABEBEEF0E
:1001680000F00A5009E11A0E095CD8A0BEEF00F0B1
:10017800C0EF00F0F7EF00F0015002100310041078
:10018800D8A4C9EF00F0CCEF00F0010ECDEF00F0DD
:10019800000E106E000E016E000E026E000E036E51
:1001A800000E046E0EC00FF000EF01F010A0DFEF9C
:1001B80000F0E1EF00F0E7EF00F0D890103001090F
:1001C800106EE9EF00F0D890103201A0EEEF00F0C9
:1001D800F0EF00F0F1EF00F0108E04340432033237
:1001E800023201320F2A0E500F5CD8A0FEEF00F049
:1001F80000EF01F0DAEF00F00DBC05EF01F007EFBA
:1002080001F047EF01F00F50D8A40DEF01F00FEF08
:1002180001F019EF01F0000E016E000E026E000EE3
:10022800036E000E046E68EF02F0055001260650BA
:100238000222075003220850042204A026EF01F0EE
:1002480028EF01F0D4EF01F010A02DEF01F02FEF0F
:1002580001F035EF01F0D89010300109106E37EF3A
:1002680001F0D890103201A03CEF01F03EEF01F010
:100278003FEF01F0108E04340432033202320132AF
:100288000F2AD4EF01F00550015C065002580750C0
:1002980003580450800A096E0850800A0958D8B0DB
:1002A80058EF01F05AEF01F085EF01F00150055CBD
:1002B800096E025006580A6E035007580B6E045018
:1002C80008580C6EFF0E0924016EFF0E0A20026EFC
:1002D800FF0E0B20036EFF0E0C20046E800E0D1A0D
:1002E800106C1050D8A47BEF01F07DEF01F08DEF7A
:1002F80001F0010E0126000E0222032204228DEFD6
:1003080001F00550015E0650025A0750035A085082
:10031800045A0150021003100410D8A496EF01F0FB
:1003280098EF01F0CDEF01F01050D8A49EEF01F046
:10033800A0EF01F0CDEF01F0000E016E000E026E8D
:10034800000E036E000E046E68EF02F0D8900136BE
:1003580002360336043610AEB4EF01F0B6EF01F002
:10036800B7EF01F0018010A0BCEF01F0BEEF01F083
:10037800C2EF01F0D8801036C4EF01F0D8901036E3
:100388000F50D8B4CAEF01F0CCEF01F0CDEF01F077
:100398000F0603AED2EF01F0D4EF01F0AAEF01F09F
:1003A800000E0E6E10AEDBEF01F0DDEF01F0F5EFA1
:1003B80001F010C009F07F0E0916D8B4E6EF01F07D
:1003C800E8EF01F0ECEF01F0010E0E6EF5EF01F031
:1003D80001A0F1EF01F0F3EF01F0F5EF01F0E8EF24
:1003E80001F00E50D8B4FBEF01F0FDEF01F028EF5B
:1003F80002F0010E0126000E02220322042204A0AC
:1004080008EF02F00AEF02F028EF02F001C009F04D
:1004180002C00AF003C00BF004C00CF00C340C321C
:100428000B320A32093209C001F00AC002F00BC0CF
:1004380003F00CC004F00F28D8B425EF02F027EF22
:1004480002F028EF02F00F2A0F28D8B42EEF02F09E
:1004580030EF02F038EF02F00F50D8A436EF02F078
:1004680038EF02F04AEF02F0000E016E000E026E45
:10047800000E036E000E046E0F50D8A446EF02F073
:1004880048EF02F04AEF02F0000E0D6E0FA04FEF9A
:1004980002F051EF02F054EF02F0038E55EF02F034
:1004A800039ED8900F30046E0DAE5DEF02F05FEF43
:1004B80002F060EF02F0048E01C001F002C002F009
:1004C80003C003F004C004F012001250800B1B6E2E
:1004D80012501224216E11AE74EF02F076EF02F082
:1004E80077EF02F021802150D8B47DEF02F07FEF42
:1004F80002F092EF02F02128D8A485EF02F087EFEE
:1005080002F08FEF02F0000E0F6E000E106E000E5C
:10051800116E000E126E118E9AEF02F0000E0F6E21
:10052800000E106E000E116E000E126E1650800B2B
:100538001B1A16501624206E15AEA5EF02F0A7EF71
:1005480002F0A8EF02F020802050D8B4AEEF02F0FD
:10055800B0EF02F0C3EF02F02028D8A4B6EF02F003
:10056800B8EF02F0C0EF02F0000E136E000E146E2A
:10057800000E156E000E166E158ECBEF02F0000EF3
:10058800136E000E146E000E156E000E166E2050BF
:10059800D8B4D1EF02F0D3EF02F0DBEF02F0215034
:1005A800D8A4D9EF02F0DBEF02F0E5EF02F0000E7D
:1005B8000F6E000E106E000E116E000E126E7DEFA3
:1005C80004F015500F02F3CF26F0F4CF27F0265091
:1005D8001C6E1D6A1E6A1F6A2750226E236A246ACF
:1005E800256A14501002F3CF26F0F4CF27F02650D6
:1005F8001C26000E1D221E221F2227502226000E16
:1006080023222422252213501102F3CF26F0F4CFFF
:1006180027F026501C26000E1D221E221F222750BE
:100628002226000E2322242225221EC01FF01DC0D0
:100638001EF01CC01DF01C6A13501002F3CF26F0E8
:10064800F4CF27F026501C2627501D22000E1E220C
:10065800000E1F2214500F02F3CF26F0F4CF27F01C
:1006680026501C2627501D22000E1E22000E1F2277
:100678001EC01FF01DC01EF01CC01DF01C6A1350C8
:100688000F02F3CF26F0F4CF27F026501C26275070
:100698001D22000E1E22000E1F2215501002F3CF3D
:1006A80026F0F4CF27F02650222627502322000ECA
:1006B8002422000E252214501102F3CF26F0F4CF85
:1006C80027F02650222627502322000E2422000E2F
:1006D800252215501102F3CF26F0F4CF27F026502B
:1006E800176E2750186E196A1A6A19C01AF018C0BE
:1006F80019F017C018F0176A17502226185023222D
:10070800195024221A5025221CC017F01DC018F0B9
:100718001EC019F01FC01AF0190E98EF03F0D890F8
:100728001A32193218321732E82E93EF03F01750A5
:10073800222618502322195024221A5025221EC07E
:100748001FF01DC01EF01CC01DF01C6A205021C0E7
:1007580017F0186A1726000E1822820E1724266E24
:10076800FF0E1820276ECEEF03F0D89022362336DE
:10077800243625361FAEC3EF03F0C5EF03F0C6EFEE
:1007880003F02280D8901C361D361E361F362606EA
:10079800D8A0270624AED3EF03F0D5EF03F0B9EFC6
:1007A80003F0000E206E1FAEDCEF03F0DEEF03F067
:1007B80002EF04F0FF0E1C14176EFF0E1D14186EC6
:1007C800FF0E1E14196E7F0E1F141A6E1750181084
:1007D80019101A10D8B4F3EF03F0F5EF03F0F9EF9E
:1007E80003F0010E206E02EF04F022A0FEEF03F0EA
:1007F80000EF04F002EF04F0F5EF03F02050D8B456
:1008080008EF04F00AEF04F02EEF04F0010E2226A0
:10081800000E23222422252225A015EF04F017EF2D
:1008280004F02EEF04F022C017F023C018F024C003
:1008380019F025C01AF01A341A3219321832173240
:1008480017C022F018C023F019C024F01AC025F0F0
:10085800264A272A27BE39EF04F0275008E1262820
:10086800D8A039EF04F03BEF04F045EF04F0000E98
:10087800226E000E236E800E246E7F0E256E73EF9F
:1008880004F027BE52EF04F0275006E12604D8B042
:1008980050EF04F052EF04F05EEF04F0000E226E09
:1008A800000E236E000E246E000E256E000E1B6EC9
:1008B80073EF04F026C021F0FF0E2216FF0E231658
:1008C8007F0E2416000E251621A06DEF04F06FEFA1
:1008D80004F070EF04F0248ED8902130256E1B5060
:1008E800251222C00FF023C010F024C011F025C03B
:1008F80012F0120028C001F029C002F0000E02BE5A
:10090800FF0E036E046E010EC7EC05F001C00FF078
:1009180002C010F003C011F004C012F0A10E136E53
:10092800DE0E146EA70E156E3C0E166E69EC02F004
:100938000FC032F010C033F011C034F012C035F0DF
:1009480032C001F033C002F034C003F035C004F007
:1009580081EC09F001C030F002C031F032C011F072
:1009680033C012F034C013F035C014F030C001F0B9
:1009780031C002F0000E02BEFF0E036E046E010EBF
:10098800C7EC05F001C015F002C016F003C017F05F
:1009980004C018F09BEC0CF011C032F012C033F018
:1009A80013C034F014C035F032C00FF033C010F06B
:1009B80034C011F035C012F0000E136E000E146E24
:1009C800200E156E410E166E69EC02F00FC032F063
:1009D80010C033F011C034F012C035F032C001F04D
:1009E80033C002F034C003F035C004F081EC09F0E4
:1009F80001C02EF002C02FF032C011F033C012F047
:100A080034C013F035C014F02EC001F02FC002F02E
:100A1800000E02BEFF0E036E046E010EC7EC05F059
:100A280001C015F002C016F003C017F004C018F09A
:100A38009BEC0CF011C032F012C033F013C034F04C
:100A480014C035F032C00FF033C010F034C011F0CC
:100A580035C012F0000E136E000E146E200E156EC7
:100A6800410E166E69EC02F00FC032F010C033F080
:100A780011C034F012C035F032C001F033C002F0BA
:100A880034C003F035C004F081EC09F001C02CF04B
:100A980002C02DF032C011F033C012F034C013F090
:100AA80035C014F02CC001F02DC002F0000E02BEBB
:100AB800FF0E036E046E010EC7EC05F001C015F0C1
:100AC80002C016F003C017F004C018F09BEC0CF03D
:100AD80011C032F012C033F013C034F014C035F036
:100AE80032C00FF033C010F034C011F035C012F02E
:100AF800000E136E000E146E200E156E410E166E4B
:100B080069EC02F00FC032F010C033F011C034F0BD
:100B180012C035F032C001F033C002F034C003F027
:100B280035C004F081EC09F001C02AF002C02BF0B6
:100B38002AC001F02BC002F0A1EC06F001C03EF083
:100B480002C03FF02CC001F02DC002F0A1EC06F06D
:100B580001C03CF002C03DF02EC001F02FC002F0F1
:100B6800A1EC06F001C03AF002C03BF030C001F041
:100B780031C002F0A1EC06F0800E0124386E000EA0
:100B88000220396E1200096E0950D8B4CEEF05F074
:100B9800D0EF05F0F2EF05F004BED7EF05F0D5EF82
:100BA80005F0F2EF05F001C005F002C006F003C041
:100BB80007F004C008F0051E061E071E081E052AB9
:100BC800000E06220722082205C00BF006C00CF012
:100BD80007C00DF008C00EF0FAEF05F001C00BF0E9
:100BE80002C00CF003C00DF004C00EF0015002105A
:100BF80003100410D8A403EF06F005EF06F00FEF7A
:100C080006F0000E016E000E026E000E036E000E5E
:100C1800046EA0EF06F0960E0A6E19EF06F00A2A87
:100C2800D8900E320D320C320B32000E0B14056EBA
:100C3800000E0C14066E000E0D14076EFE0E0E1438
:100C4800086E0550061007100810D8A42EEF06F0FD
:100C580030EF06F013EF06F03EEF06F00A2A010E19
:100C68000B26000E0C220D220E22D8900E320D32C9
:100C78000C320B32000E0B14056E000E0C14066EAF
:100C8800000E0D14076EFF0E0E14086E05500610A8
:100C980007100810D8A453EF06F055EF06F032EF0E
:100CA80006F05DEF06F00A06D8900B360C360D36C6
:100CB8000E360DBE62EF06F064EF06F06CEF06F03C
:100CC800020E0A606AEF06F06CEF06F057EF06F0C6
:100CD8000AB071EF06F073EF06F074EF06F00D9EA0
:100CE800D8900A320AC005F0066A076A086A05C081
:100CF80008F0076A066A056A05500B1206500C12BE
:100D080007500D1208500E120950D8B48EEF06F095
:100D180090EF06F098EF06F004BE97EF06F095EF17
:100D280006F098EF06F00E8E0BC001F00CC002F032
:100D38000DC003F00EC004F0120001500210D8A438
:100D4800A8EF06F0AAEF06F0B0EF06F0000E026E6C
:100D58003F0E016E42EF07F001040210D8A4B7EF6E
:100D680006F0B9EF06F0BFEF06F0000E026E060EB1
:100D7800016E42EF07F0020E01180210D8A4C7EF67
:100D880006F0C9EF06F0CFEF06F0000E026E5B0E1C
:100D9800016E42EF07F0030E01180210D8A4D7EF36
:100DA80006F0D9EF06F0DFEF06F0000E026E4F0EE8
:100DB800016E42EF07F0040E01180210D8A4E7EF05
:100DC80006F0E9EF06F0EFEF06F0000E026E660E91
:100DD800016E42EF07F0050E01180210D8A4F7EFD4
:100DE80006F0F9EF06F0FFEF06F0000E026E6D0E4A
:100DF800016E42EF07F0060E01180210D8A407EFA3
:100E080007F009EF07F00FEF07F0000E026E7D0EF6
:100E1800016E42EF07F0070E01180210D8A417EF71
:100E280007F019EF07F01FEF07F0000E026E070E2C
:100E3800016E42EF07F0080E01180210D8A427EF40
:100E480007F029EF07F02FEF07F0000E026E7F0E74
:100E5800016E42EF07F0090E01180210D8A437EF0F
:100E680007F039EF07F03FEF07F0000E026E6F0E44
:100E7800016E42EF07F0000E026E01681200B8C062
:100E8800E1F0B9C0E2F0BAC0E3F020EEB3F010EE42
:100E9800DCF0040EDBCFE3FFE806FCE2BBC0E4F0C5
:100EA800BCC0E5F020EE98F010EECEF0070EDBCFD8
:100EB800E3FFE806FCE220EEA7F010EED6F0050E00
:100EC800DBCFE3FFE806FCE2000E0001BF6F340E43
:100ED800A9EC0BF0E10E0001C86F000EC96F010EFE
:100EE800CA6F010ECB6F15EC0CF0020E0001BF6F3C
:100EF8002D0EA9EC0BF0DC0E0001C86F000EC96FB7
:100F0800010ECA6F010ECB6F15EC0CF0030E000139
:100F1800BF6F360EA9EC0BF0E40E0001C86F000E8F
:100F2800C96F010ECA6F010ECB6F15EC0CF0040EE1
:100F38000001BF6F230EA9EC0BF0CE0E0001C86FA5
:100F4800000EC96F010ECA6F010ECB6F15EC0CF0C5
:100F5800050E0001BF6F360EA9EC0BF0E40E000180
:100F6800C86F000EC96F010ECA6F010ECB6F15EC6A
:100F78000CF0060E0001BF6F290EA9EC0BF0D60E7F
:100F88000001C86F000EC96F010ECA6F010ECB6F4A
:100F980015EC0CF0150E0001CD6F4B0ECC6FBE0E8C
:100FA800E82EFED7CC2FFCD7CD2FFAD700F0000EB5
:100FB80061EC0BF000D012000001C46F000E0001BC
:100FC800C76F0A0EC419D8A4ECEF07F0EEEF07F0CC
:100FD800F3EF07F0000EFB6FFA2B6CEF08F03F0EF3
:100FE800FB65F9EF07F0FBEF07F002EF08F0010EE1
:100FF800C76FFB51C00FC56F04EF08F0FBC0C5F009
:10100800C451080DF3CFC2F0F4CFC3F0000EC66F81
:101018003F0EC56512EF08F014EF08F027EF08F04F
:10102800400EC55F010EC76F8A94C5514009BD6F58
:10103800010EDEEC0CF00001FA51B809BD6F010E8B
:10104800DEEC0CF08A840001BF51D8B42EEF08F012
:1010580030EF08F048EF08F03B0EC06F730EC16F19
:10106800C651C027000EC123C251C027C351C12396
:10107800C0C0F6FFC1C0F7FF0800F5CFBDF0C751EB
:10108800DEEC0CF05FEF08F03B0EC06F730EC16F23
:10109800C651C027000EC123C251C027C351C12366
:1010A800C0C0F6FFC1C0F7FF0800F550FF0ABD6FCA
:1010B800C751DEEC0CF00001C52BC62B070EC66528
:1010C80068EF08F06AEF08F00CEF08F0080EFB274D
:1010D80012000001C36F000E0001C56F0A0EC3198C
:1010E800D8A479EF08F07BEF08F080EF08F0000E45
:1010F800FB6FFA2BF9EF08F03F0EFB6586EF08F05F
:1011080088EF08F08FEF08F0010EC56FFB51C00F94
:10111800C26F91EF08F0FBC0C2F0200EC35F000E53
:10112800C46F3F0EC2659BEF08F09DEF08F0B0EF6B
:1011380008F0400EC25F010EC56F8A94C251400983
:10114800BD6F010EDEEC0CF00001FA51B809BD6F5D
:10115800010EDEEC0CF08A840001BF51D8B4B7EF61
:1011680008F0B9EF08F0D3EF08F0C351030D3B0EB8
:10117800C06F7F0EC16FF350C027F450C123C45114
:10118800C027000EC123C0C0F6FFC1C0F7FF08008A
:10119800F5CFBDF0C551DEEC0CF0ECEF08F0C35113
:1011A800030D3B0EC06F7F0EC16FF350C027F45084
:1011B800C123C451C027000EC123C0C0F6FFC1C05F
:1011C800F7FF0800F550FF0ABD6FC551DEEC0CF0C3
:1011D8000001C22BC42B020EC465F5EF08F0F7EF2F
:1011E80008F095EF08F0050EFB271200000E00012D
:1011F800C66FC4BF04EF09F002EF09F00EEF09F063
:10120800C41FC31FC21FC16D000EC223C323C42342
:10121800010EC66FC0BF15EF09F013EF09F01FEFFD
:1012280009F0C01FBF1FBE1FBD6D000EBE23BF2328
:10123800C023010EC61B000EC76F000EC86F000E3C
:10124800C96F000ECA6FC151C211C311C411D8B4FD
:1012580030EF09F032EF09F068EF09F0010EC56FC1
:101268003CEF09F0D890C137C237C337C437C52B14
:10127800C4AF41EF09F043EF09F036EF09F0D89019
:10128800C737C837C937CA37C151BD5DC251BE5902
:10129800C351BF59C451C059D8A055EF09F057EFF1
:1012A80009F060EF09F0C151BD5FC251BE5BC35187
:1012B800BF5BC451C05BC781D890C433C333C2334A
:1012C800C133C52F43EF09F0C651D8B46EEF09F00A
:1012D80070EF09F078EF09F0CA1FC91FC81FC76D62
:1012E800000EC823C923CA23C7C0BDF0C8C0BEF0BA
:1012F800C9C0BFF0CAC0C0F01200033404340A6E7B
:101308000A50D8A48AEF09F08CEF09F096EF09F09B
:10131800000E016E000E026E000E036E000E046ECB
:1013280003EF0AF001C005F002C006F003C007F0A1
:1013380004C008F0200EA6EF09F0D8900832073252
:1013480006320532E82EA1EF09F00550096E038E2A
:10135800FF0E0116FF0E0216FF0E0316000E0416EE
:10136800960E0A5E0ABEBDEF09F0BBEF09F0D3EF97
:1013780009F00A50800A970FD8B0C5EF09F0C7EFF7
:1013880009F0C9EF09F08CEF09F0D8900432033264
:10139800023201320A3EC9EF09F0EBEF09F01F0EE5
:1013A8000A64D9EF09F0DBEF09F0E3EF09F08CEFFD
:1013B80009F0D89001360236033604360A060A5078
:1013C800D8A4E9EF09F0EBEF09F0DDEF09F00950D7
:1013D800D8B4F1EF09F0F3EF09F0FBEF09F0041EC0
:1013E800031E021E016C000E02220322042201C009
:1013F80001F002C002F003C003F004C004F01200C0
:1014080020EEA0F010EED8F0060EDBCFE3FFE806E2
:10141800FCE220EEADF010EEDFF0050EDBCFE3FFCF
:10142800E806FCE220EE8EF010EECEF0090EDBCFDF
:10143800E3FFE806FCE2000E61EC0BF0020E00018F
:10144800BF6F120EA9EC0BF0D80E0001C86F000E8A
:10145800C96F010ECA6F010ECB6F15EC0CF0020EAE
:101468000001BF6F4E0EA9EC0BF0DF0E0001C86F34
:10147800000EC96F010ECA6F010ECB6F15EC0CF090
:10148800050E0001BF6F1A0EA9EC0BF0CE0E00017D
:10149800C86F000EC96F010ECA6F010ECB6F15EC35
:1014A8000CF0290E0001CD6F960ECC6F7F0EE82E42
:1014B800FED7CC2FFCD7CD2FFAD7000E61EC0BF05E
:1014C80000D012000001CEBF76EF0AF0CE51CD1148
:1014D8000BE1EB0ECB5D010ECC59D8A076EF0AF0EC
:1014E80078EF0AF0AFEF0AF0CEBF8AEF0AF0CE51DC
:1014F8000BE1480ECB5DE80ECC59010ECD59D8B0A2
:1015080088EF0AF08AEF0AF0AFEF0AF0720ED36E96
:10151800FD0E946E0C0EBA6ECB514808BD6FE80EE6
:10152800CC55BE6F010ECD55BF6F000ECE55C06FA6
:10153800CBC0C1F0CCC0C2F0CDC0C3F0CEC0C4F0A7
:10154800FAEC08F00001BD51CB6E000ECC6E070E10
:10155800CA6EBBEF0AF0720ED36EFD0E946E0C0EBF
:10156800BA6EF90ECB6E000ECC6E070ECA6E120064
:101578000001C26F000E836E8A9A00D08A8A8A9808
:101588008A908A928A9400D0C00E0001BD6F000E26
:10159800DEEC0CF0C00E0001BD6F010EDEEC0CF0AD
:1015A800400E0001BD6F000EDEEC0CF0400E000195
:1015B800BD6F010EDEEC0CF0B80E0001BD6F000E21
:1015C800DEEC0CF0B80E0001BD6F010EDEEC0CF085
:1015D8000001C205D8A4F3EF0AF0F5EF0AF002EF14
:1015E8000BF03F0EBD6F000EDEEC0CF03F0E00015D
:1015F800BD6F010EDEEC0CF00DEF0BF03E0EBD6F73
:10160800000EDEEC0CF03E0E0001BD6F010EDEECAC
:101618000CF0000E61EC0BF0120020EE60F010EE02
:10162800CCF00F0EDBCFE3FFE806FCE220EE7FF004
:1016380010EEDCF00E0EDBCFE3FFE806FCE220EE56
:1016480070F010EEEBF00E0EDBCFE3FFE806FCE2E5
:10165800000E0001BF6F020EA9EC0BF0CC0E0001CA
:10166800C86F000EC96F010ECA6F010ECB6F15EC63
:101678000CF0020E0001BF6F020EA9EC0BF0DC0E9D
:101688000001C86F000EC96F010ECA6F010ECB6F43
:1016980015EC0CF0030E0001BF6F020EA9EC0BF065
:1016A800EB0E0001C86F000EC96F010ECA6F010E64
:1016B800CB6F15EC0CF000D012000001BF6F000ECC
:1016C8000001C16F8A94400EBD6F000EDEEC0CF075
:1016D800400E0001BD6F010EDEEC0CF00001C1519F
:1016E800B809BD6F000EDEEC0CF00001C151B8095D
:1016F800BD6F010EDEEC0CF08A84000E0001C06F95
:10170800BF51010DF3500008BD6F000EDEEC0CF068
:101718000001BF51010DF3500008BD6F010EDEEC52
:101728000CF00001C02B3F0EC0659DEF0BF09FEF42
:101738000BF084EF0BF0C12B070EC165A6EF0BF081
:10174800A8EF0BF066EF0BF012000001C16F000E5E
:101758000001C06F800EC161B4EF0BF0B6EF0BF063
:10176800DFEF0BF0070EBF65BCEF0BF0BEEF0BF021
:10177800C0EF0BF0DFEF0BF0C1C0FBF0BFC0FAF019
:101788003F0EC165CAEF0BF0CCEF0BF0D0EF0BF0BA
:10179800400EC15F010EC06F8A94C1514009BD6FF0
:1017A800C051DEEC0CF00001BF51B809BD6FC0514B
:1017B800DEEC0CF08A8412003EC083FF8080080EA5
:1017C8000001BD6FC90EE82EFED7BD2FFCD700D093
:1017D80080903CC083FF8082080E0001BD6FC90E57
:1017E800E82EFED7BD2FFCD700D080923AC083FFE9
:1017F8008084080E0001BD6FC90EE82EFED7BD2FEC
:10180800FCD700D0809438C083FF8086080E000182
:10181800BD6FC90EE82EFED7BD2FFCD700D080962D
:10182800120037EF0CF00001CA51D8B41EEF0CF0CB
:1018380020EF0CF02BEF0CF0CBC0BFF0C8C0D9FFE5
:10184800C9C0DAFFDF50E0EC07F034EF0CF0CBC092
:10185800BFF0C8C0D9FFC9C0DAFFDF506DEC08F08F
:101868000001C84BC92BC8C0D9FFC9C0DAFFDF5077
:10187800D8A441EF0CF043EF0CF017EF0CF0120076
:1018880043686F6973697220756E206D6F646500B7
:10189800322E52656374616E67756C616972653169
:1018A8002E4F7363696C6C6F73636F70650045616D
:1018B800737953434F5045005175656E74696E00D6
:1018C80050726F6A6574004A756C6573004D4355B4
:0D18D800203A004572696300627900260025
:1018E600000E936E000E816E010EBCEC0AF004EC45
:1018F6000AF043EC07F0E80E0001CB6F030ECC6F45
:10190600000ECD6F000ECE6F66EC0AF0000E0001E1
:10191600BE6F320EBD6F23EC0DF013EC0DF011EC23
:101926000BF0C282E0EC0BF092EF0CF007EF00F048
:10193600000E151A000E161A000E171A800E181A27
:1019460011C001F012C002F013C003F014C004F07D
:1019560015C005F016C006F017C007F018C008F04D
:1019660009EC00F001C011F002C012F003C013F040
:1019760004C014F01200880EF66E180EF76E000EF4
:10198600F86E00EE60F010EE5DF00900F5CFEEFFA8
:10199600E550E150FAE10001FB6BFA6B00EE38F01E
:1019A600080EEE6AE806FDE140904092000EF86EE1
:1019B600000173EF0CF00001BE6F0001BE51D8B4F8
:1019C600E7EF0CF0E9EF0CF0EDEF0CF08A808A926D
:1019D600EFEF0CF08A928A82000E956E8A96BDC051
:1019E6008CFF8A8800D08A9800D08A908A9212004A
:1019F6000600F3CF36F0F4CF37F09EAC05EF0DF0CE
:101A060007EF0DF00DEF0DF09E9CC4CF28F0296A6C
:101A16007EEC04F037C0F4FF36C0F3FF40921100AD
:101A2600000E956E000E836E0A0EC16E110EC26E0A
:101A3600F00E926E000E806EF28E9D8CF28C12006D
:0A1A46000F0EBB6EBA8ABA981200A8
:10733A000000000000000000000000000000000043
:10734A000000000000000000000000000000000033
:10735A000000000000000000000000000000000023
:10736A000000000000000000000000000000000013
:10737A000000000000000000000000000000000003
:10738A0000000000000000000000000000000000F3
:10739A0000000000000000000000000000000000E3
:1073AA0000000000000000000000000000000000D3
:1073BA0000000000000000000000000000000000C3
:1073CA0000000000000000000000000000000000B3
:1073DA0000000000000000000000000000000000A3
:1073EA000000000000000000000000000000000093
:1073FA000000000000000000000000000000000083
:10740A000000000000000000000000000000000072
:10741A000000000000000000000000000000000062
:10742A000000000000000000000000000000000052
:10743A0000000000000000000000065F5F06000078
:10744A00000007070007070000147F7F147F7F14DE
:10745A0000242E6B6B3A120000466630180C6662E6
:10746A0000307A4F5D377A480004070300000000B5
:10747A0000001C3E63410000000041633E1C000006
:10748A0000082A3E1C1C3E2A0808083E3E0808003E
:10749A00000080E0600000000008080808080800F2
:1074AA000000006060000000006030180C06030154
:1074BA00003E7F71594D7F3E0040427F7F40400031
:1074CA0000627359496F660000226349497F36009A
:1074DA0000181C16537F7F5000276745457D3900E9
:1074EA00003C7E4B4979300000030371790F070095
:1074FA0000367F49497F360000064F49693F1E0022
:10750A000000006666000000000080E666000000D9
:10751A0000081C366341000000242424242424008B
:10752A0000004163361C080000020351590F06008F
:10753A00003E7F415D5D1F1E007C7E13137E7C0032
:10754A0000417F7F49497F36001C3E6341416322E7
:10755A0000417F7F41633E1C00417F7F495D41635B
:10756A0000417F7F491D0103001C3E634151737234
:10757A00007F7F08087F7F000000417F7F41000075
:10758A0000307040417F3F0100417F7F081C7763D4
:10759A0000417F7F41406070007F7F0E1C0E7F7F1D
:1075AA00007F7F060C187F7F001C3E6341633E1CF0
:1075BA0000417F7F49090F06001E3F21717F5E004F
:1075CA0000417F7F09197F6600266F4D597332008B
:1075DA000003417F7F410300007F7F40407F7F009F
:1075EA00001F3F60603F1F00007F7F3018307F7FA1
:1075FA000043673C183C674300074F78784F070001
:10760A0000476371594D677300007F7F4141000055
:10761A00000103060C183060000041417F7F000022
:10762A0000080C0603060C08008080808080808099
:10763A00800000030704000000207454543C784082
:10764A0000417F3F4848783000387C44446C280029
:10765A0000307848493F7F4000387C54545C180019
:10766A0000487E7F490302000098BCA4A4F87C0469
:10767A0000417F7F08047C780000447D7D40000043
:10768A000060E08080FD7D0000417F7F10386C44FF
:10769A000000417F7F400000007C7C18381C7C7809
:1076AA00007C7C04047C780000387C44447C3800EC
:1076BA000084FCF8A4243C1800183C24A4F8FC8498
:1076CA0000447C784C041C1800485C545474240010
:1076DA000000043E7F442400003C7C40403C7C4047
:1076EA00001C3C60603C1C00003C7C7038707C3C98
:1076FA0000446C3810386C44009CBCA0A0FC7C0090
:10770A00004C64745C4C64000008083E77414100F8
:10771A000000000077770000004141773E0808002A
:10772A0000020301030203010070784C464C787092
:10773A00000E9F91B1FB4A00003A7A40407A7A40A3
:10774A0000387C54555D19000002237555557D7B20
:10775A0042217554547D794000217555547C7840F6
:10776A0000207457577C784000183CA4A4E44000D9
:10777A0000023B7D55555D1B02397D54545D19004D
:10778A0000397D55545C18000001457C7C4101009C
:10779A00000203457D7D43020001457D7C400000D7
:1077AA0000797D1612167D790070782B2B7870007F
:1077BA0000447C7C5555450000207454547C7C540C
:1077CA00547C7E0B097F7F4900327B49497B32001A
:1077DA0000327A48487A320000327A4A48783000D1
:1077EA00003A7B41417B7A40003A7A4240787840BD
:1077FA00009ABAA0A0FA7A000001193C66663C1900
:10780A00013D7D40407D3D0000183C24E7E72424EB
:10781A0000687E7F49436620002B2FFCFC2F2B003B
:10782A0000FFFF09092FF6F8A040C088FE7F090370
:10783A0002207454557D79400000447D7D4100004A
:10784A00003078484A7A320000387840427A7A40E2
:10785A00007A7A0A0A7A7000007D7D19317D7D00EE
:10786A000000262F292F2F280000262F292F260037
:10787A000030784D456020000038380808080800B4
:10788A000008080808383800004F6F3018CCEEBBE3
:10789A00914F6F30186C76FBF90000007B7B00007B
:1078AA0000081C3622081C362222361C0822361CE6
:1078BA0008AA005500AA005500AA55AA55AA55AA11
:1078CA0055DDFFAA77DDAAFF77000000FFFF000061
:1078DA0000101010FFFF000000141414FFFF000036
:1078EA00001010FFFF00FFFF001010F0F010F0F082
:1078FA0000141414FCFC0000001414F7F700FFFF36
:10790A00000000FFFF00FFFF001414F4F404FCFC65
:10791A000014141717101F1F0010101F1F101F1F0D
:10792A00001414141F1F000000101010F0F00000C3
:10793A00000000001F1F1010101010101F1F101041
:10794A0010101010F0F0101010000000FFFF1010BF
:10795A00101010101010101010101010FFFF10103F
:10796A0010000000FFFF1414140000FFFF00FFFFC7
:10797A001000001F1F101717140000FCFC04F4F479
:10798A001414141717101717141414F4F404F4F435
:10799A00140000FFFF00F7F714141414141414143D
:1079AA00141414F7F700F7F714141414171714140F
:1079BA001410101F1F101F1F10141414F4F41414A1
:1079CA00141010F0F010F0F01000001F1F101F1F0D
:1079DA00100000001F1F141414000000FCFC1414F3
:1079EA00140000F0F010F0F0101010FFFF10FFFF6D
:1079FA0010141414FFFF1414141010101F1F000089
:107A0A0000000000F0F0101010FFFFFFFFFFFFFF63
:107A1A00FFF0F0F0F0F0F0F0F0FFFFFFFF000000E1
:107A2A000000000000FFFFFFFF0F0F0F0F0F0F0FE7
:107A3A000F387C446C386C4400FCFE2A2A3E140041
:107A4A00007E7E020206060000027E7E027E7E0222
:107A5A000063775D4963630000387C447C3C04041E
:107A6A000080FE7E20203E1E000406027E7C060266
:107A7A000099BDE7E7BD9900001C3E6B496B3E1CAF
:107A8A00004C7E7301737E4C0030784A4F7D39007A
:107A9A0000183C243C3C243C1898FC643C3E273D9E
:107AAA0018000000000000000000000000000000B4
:107ABA0000000000000000000000000000000000BC
:107ACA0000000000000000000000000000000000AC
:107ADA00000000000000000000000000000000009C
:107AEA00000000000000000000000000000000008C
:107AFA00000000000000000000000000000000007C
:107B0A00000000000000000000000000000000006B
:107B1A00000000000000000000000000000000005B
:107B2A00000000000000000000000000000000004B
:107B3A00000000000000000000808080800000003B
:107B4A0000000000000000000000000000800000AB
:107B5A00800000800000000000000000000000001B
:107B6A00000000000000000000000000000000000B
:107B7A0000000000000000000000000000000000FB
:107B8A0000000000000000000000000000000000EB
:107B9A0000000000000000000000000000000000DB
:107BAA0000000000000000000000000000000000CB
:107BBA00000000000000003E4180808080413E00BD
:107BCA0000D894A46C00007884844C0088FC8081DE
:107BDA00FF8081FF800078848484780000D894A490
:107BEA006C00007884844C000078848484780008CF
:107BFA00FC488484780000789494580000000000BF
:107C0A00D894A46C00041C6480740C0400D894A456
:107C1A006C0004FF844000789494580088FC88041F
:107C2A00FC8804F88000000000000000000000004A
:107C3A00000000000000000000000000000000003A
:107C4A00000000000000000000000000000000002A
:107C5A00000000000000000000000000000000001A
:107C6A000000000000000000000000000000000406
:107C7A0007040000000000000000000000000000EF
:107C8A0000000000000404060100000000000000DB
:107C9A0000000000000000000000000000000000DA
:107CAA0000000000000000000000000000000000CA
:107CBA0000000000000000000000000000000000BA
:107CCA0000000000000000000000000000000000AA
:107CDA00000000000000000000000000000000009A
:107CEA000080F0F8181C0E0E1C1878F0C0800000F6
:107CFA0000000000000000000000000000000080FA
:107D0A00F0F8181C0C0E0E1C18F8F0800000000089
:107D1A000000000000000000000000000000000059
:107D2A000000000000000000000000000000000049
:107D3A000000000000000000000000000000000039
:107D4A000000000000000000000000000000000029
:107D5A000000000000000000000000000000000019
:107D6A00F8FF0F0000000000000000000FFFF800FD
:107D7A000000000000000000000000000000F8FF02
:107D8A000F0000000000000000000FFFF8000000D4
:107D9A0000000000000000000000000000000000D9
:107DAA0000000000000000000000000000000000C9
:107DBA0000000000000000000000000000000000B9
:107DCA000000000000000000000800080008001C75
:107DDA00FCF8800800080008000800080008E0FF16
:107DEA003F090008000800080008000800093FFFD2
:107DFA00E00800080008000800080008E0FF3F0942
:107E0A000008000800080008000800090F0F000811
:107E1A000008000800000000000000000000000048
:107E2A000000000000000000000000000000000048
:107E3A000000000000000000000000000000000038
:107E4A000000000000000000000000000000000028
:107E5A0000073FFCE000000000000080C0FC7F0734
:107E6A000000000000000000000000000000000701
:107E7A003FFCE000000000000000C0FC7F0700009B
:107E8A0000000000000000000000000000000000E8
:107E9A0000000000000000000000000000000000D8
:107EAA0000000000000000000000000000000000C8
:107EBA0000000000000000000000000000000000B8
:107ECA0000000000000000000000000000000000A8
:107EDA0000000001070F1C18181C0F070100000002
:107EEA000000000000000000000000000000000088
:107EFA000001070F1C18181C0C0F070100000000D6
:107F0A000000000000000000000000000000000067
:107F1A000000000000000000000000000000000057
:107F2A000000000000000000000000000000000047
:107F3A0000000000005C000C000C7C287C7C447C67
:107F4A00241048285408000C003844004438002003
:107F5A001008103810804000101010004000201047
:107F6A0008384438007C006454484454281C107C67
:107F7A004C542438542004740C28542808543800CB
:107F8A0050008050001028442828284428100454FF
:107F9A0008384C5C7814787C54283844447C44383B
:107FAA007C54447C14043844347C107C007C0020CB
:107FBA00403C7C106C7C40407C087C7C047C7C448B
:107FCA007C7C14083844787C1468485424047C0463
:107FDA007C407C3C403C7C207C6C106C1C601C64AB
:107FEA00544C7C4400081020447C0008040880801B
:057FFA008004080000F6
:020000040020DA
:08000000FFFFFFFFFFFFFFFF00
:020000040030CA
:0E000000000C191EFF8181FF0FC00FE00F40A2
:00000001FF
