:020000040000FA
:0400000007EF00F016
:100008005E8232ED0DF0EBEF17F00450800B0D6EB1
:10001800045004240F6E03AE14EF00F016EF00F046
:1000280017EF00F00F800F50D8B41DEF00F01FEF4E
:1000380000F034EF00F00F28D8A425EF00F027EFE8
:1000480000F02FEF00F0000E016E000E026E000EA1
:10005800036E000E046E038E000E046E3CEF00F07B
:10006800000E016E000E026E000E036E000E046E8E
:100078000850800B0E6E0D500E18D8B446EF00F0E5
:1000880048EF00F049EF00F00D8C085008240E6E80
:1000980007AE51EF00F053EF00F054EF00F00E8080
:1000A8000E50D8B45AEF00F05CEF00F071EF00F09A
:1000B8000E28D8A462EF00F064EF00F06CEF00F0B7
:1000C800000E056E000E066E000E076E000E086E1E
:1000D800078E000E086E79EF00F0000E056E000E18
:1000E800066E000E076E000E086E0F500E5CD8B03C
:1000F80080EF00F082EF00F0A9EF00F00DAC87EF81
:1001080000F089EF00F08BEF00F0800E0D1A0FC0A1
:1001180010F00EC00FF010C00EF001C010F005C0B6
:1001280001F010C005F002C010F006C002F010C0C7
:1001380006F003C010F007C003F010C007F004C0B9
:1001480010F008C004F010C008F0000E106E0F5038
:100158000EC009F00A6A095E000E0A5A0ABEBEEF0E
:1001680000F00A5009E11A0E095CD8A0BEEF00F0B1
:10017800C0EF00F0F7EF00F0015002100310041078
:10018800D8A4C9EF00F0CCEF00F0010ECDEF00F0DD
:10019800000E106E000E016E000E026E000E036E51
:1001A800000E046E0EC00FF000EF01F010A0DFEF9C
:1001B80000F0E1EF00F0E7EF00F0D890103001090F
:1001C800106EE9EF00F0D890103201A0EEEF00F0C9
:1001D800F0EF00F0F1EF00F0108E04340432033237
:1001E800023201320F2A0E500F5CD8A0FEEF00F049
:1001F80000EF01F0DAEF00F00DBC05EF01F007EFBA
:1002080001F047EF01F00F50D8A40DEF01F00FEF08
:1002180001F019EF01F0000E016E000E026E000EE3
:10022800036E000E046E68EF02F0055001260650BA
:100238000222075003220850042204A026EF01F0EE
:1002480028EF01F0D4EF01F010A02DEF01F02FEF0F
:1002580001F035EF01F0D89010300109106E37EF3A
:1002680001F0D890103201A03CEF01F03EEF01F010
:100278003FEF01F0108E04340432033202320132AF
:100288000F2AD4EF01F00550015C065002580750C0
:1002980003580450800A096E0850800A0958D8B0DB
:1002A80058EF01F05AEF01F085EF01F00150055CBD
:1002B800096E025006580A6E035007580B6E045018
:1002C80008580C6EFF0E0924016EFF0E0A20026EFC
:1002D800FF0E0B20036EFF0E0C20046E800E0D1A0D
:1002E800106C1050D8A47BEF01F07DEF01F08DEF7A
:1002F80001F0010E0126000E0222032204228DEFD6
:1003080001F00550015E0650025A0750035A085082
:10031800045A0150021003100410D8A496EF01F0FB
:1003280098EF01F0CDEF01F01050D8A49EEF01F046
:10033800A0EF01F0CDEF01F0000E016E000E026E8D
:10034800000E036E000E046E68EF02F0D8900136BE
:1003580002360336043610AEB4EF01F0B6EF01F002
:10036800B7EF01F0018010A0BCEF01F0BEEF01F083
:10037800C2EF01F0D8801036C4EF01F0D8901036E3
:100388000F50D8B4CAEF01F0CCEF01F0CDEF01F077
:100398000F0603AED2EF01F0D4EF01F0AAEF01F09F
:1003A800000E0E6E10AEDBEF01F0DDEF01F0F5EFA1
:1003B80001F010C009F07F0E0916D8B4E6EF01F07D
:1003C800E8EF01F0ECEF01F0010E0E6EF5EF01F031
:1003D80001A0F1EF01F0F3EF01F0F5EF01F0E8EF24
:1003E80001F00E50D8B4FBEF01F0FDEF01F028EF5B
:1003F80002F0010E0126000E02220322042204A0AC
:1004080008EF02F00AEF02F028EF02F001C009F04D
:1004180002C00AF003C00BF004C00CF00C340C321C
:100428000B320A32093209C001F00AC002F00BC0CF
:1004380003F00CC004F00F28D8B425EF02F027EF22
:1004480002F028EF02F00F2A0F28D8B42EEF02F09E
:1004580030EF02F038EF02F00F50D8A436EF02F078
:1004680038EF02F04AEF02F0000E016E000E026E45
:10047800000E036E000E046E0F50D8A446EF02F073
:1004880048EF02F04AEF02F0000E0D6E0FA04FEF9A
:1004980002F051EF02F054EF02F0038E55EF02F034
:1004A800039ED8900F30046E0DAE5DEF02F05FEF43
:1004B80002F060EF02F0048E01C001F002C002F009
:1004C80003C003F004C004F0120000018651800B41
:1004D8008F6F86518625956F85AF75EF02F077EFA0
:1004E80002F078EF02F095819551D8B47EEF02F0D2
:1004F80080EF02F093EF02F09529D8A486EF02F07E
:1005080088EF02F090EF02F0000E836F000E846F08
:10051800000E856F000E866F858F9BEF02F0000E30
:10052800836F000E846F000E856F000E866F8A51F0
:10053800800B8F1B8A518A25906F89AFA6EF02F036
:10054800A8EF02F0A9EF02F090819051D8B4AFEF74
:1005580002F0B1EF02F0C4EF02F09029D8A4B7EF8F
:1005680002F0B9EF02F0C1EF02F0000E876F000E43
:10057800886F000E896F000E8A6F898FCCEF02F0AA
:10058800000E876F000E886F000E896F000E8A6F4D
:100598009051D8B4D2EF02F0D4EF02F0DCEF02F0C1
:1005A8009551D8A4DAEF02F0DCEF02F0E6EF02F0A2
:1005B800000E836F000E846F000E856F000E866F2D
:1005C8007EEF04F089518303F3CF9AF0F4CF9BF0C8
:1005D8009A51916F926B936B946B9B51966F976B3B
:1005E800986B996B88518403F3CF9AF0F4CF9BF002
:1005F8009A519127000E9223932394239B51962777
:10060800000E97239823992387518503F3CF9AF0F7
:10061800F4CF9BF09A519127000E922393239423B1
:100628009B519627000E97239823992393C094F003
:1006380092C093F091C092F0916B87518403F3CFED
:100648009AF0F4CF9BF09A5191279B519223000E78
:100658009323000E942388518303F3CF9AF0F4CFA9
:100668009BF09A5191279B519223000E9323000EE1
:10067800942393C094F092C093F091C092F0916B40
:1006880087518303F3CF9AF0F4CF9BF09A519127C7
:100698009B519223000E9323000E942389518403C7
:1006A800F3CF9AF0F4CF9BF09A5196279B5197235A
:1006B800000E9823000E992388518503F3CF9AF0F2
:1006C800F4CF9BF09A5196279B519723000E9823BD
:1006D800000E992389518503F3CF9AF0F4CF9BF04C
:1006E8009A518B6F9B518C6F8D6B8E6B8DC08EF07A
:1006F8008CC08DF08BC08CF08B6B8B5196278C51F6
:1007080097238D5198238E51992391C08BF092C0D5
:100718008CF093C08DF094C08EF0190E99EF03F011
:10072800D8908E338D338C338B33E82E94EF03F0CF
:100738008B5196278C5197238D5198238E5199234D
:1007480093C094F092C093F091C092F0916B905145
:1007580095C08BF08C6B8B27000E8C23820E8B251B
:100768009A6FFF0E8C219B6FCFEF03F0D8909637CE
:1007780097379837993794AFC4EF03F0C6EF03F073
:10078800C7EF03F09681D890913792379337943713
:100798009A07D8A09B0798AFD4EF03F0D6EF03F0E1
:1007A800BAEF03F0000E906F94AFDDEF03F0DFEFC8
:1007B80003F003EF04F0FF0E91158B6FFF0E9215F7
:1007C8008C6FFF0E93158D6F7F0E94158E6F8B5166
:1007D8008C118D118E11D8B4F4EF03F0F6EF03F0FD
:1007E800FAEF03F0010E906F03EF04F096A1FFEF0C
:1007F80003F001EF04F003EF04F0F6EF03F090517B
:10080800D8B409EF04F00BEF04F02FEF04F0010E59
:100818009627000E97239823992399A116EF04F0A1
:1008280018EF04F02FEF04F096C08BF097C08CF00F
:1008380098C08DF099C08EF08E358E338D338C3301
:100848008B338BC096F08CC097F08DC098F08EC01B
:1008580099F09A4B9B2B9BBF3AEF04F09B5108E110
:100868009A29D8A03AEF04F03CEF04F046EF04F0E0
:10087800000E966F000E976F800E986F7F0E996F1F
:1008880074EF04F09BBF53EF04F09B5106E19A0507
:10089800D8B051EF04F053EF04F05FEF04F0000E0E
:1008A800966F000E976F000E986F000E996F000EEE
:1008B8008F6F74EF04F09AC095F0FF0E9617FF0E35
:1008C80097177F0E9817000E991795A16EEF04F0F1
:1008D80070EF04F071EF04F0988FD8909531996F0C
:1008E8008F51991396C083F097C084F098C085F013
:1008F80099C086F012001250800B1B6E1250122401
:10090800216E11AE8AEF04F08CEF04F08DEF04F045
:1009180021802150D8B493EF04F095EF04F0A8EFAC
:1009280004F02128D8A49BEF04F09DEF04F0A5EF74
:1009380004F0000E0F6E000E106E000E116E000E09
:10094800126E118EB0EF04F0000E0F6E000E106ED6
:10095800000E116E000E126E1650800B1B1A1650E8
:100968001624206E15AEBBEF04F0BDEF04F0BEEF09
:1009780004F020802050D8B4C4EF04F0C6EF04F08F
:10098800D9EF04F02028D8A4CCEF04F0CEEF04F07F
:10099800D6EF04F0000E136E000E146E000E156EE6
:1009A800000E166E158EE1EF04F0000E136E000EA9
:1009B800146E000E156E000E166E2050D8B4E7EFB8
:1009C80004F0E9EF04F0F1EF04F02150D8A4EFEFC0
:1009D80004F0F1EF04F0FBEF04F0000E0F6E000ED0
:1009E800106E000E116E000E126E93EF06F0155089
:1009F8000F02F3CF26F0F4CF27F026501C6E1D6AA5
:100A08001E6A1F6A2750226E236A246A256A1450B8
:100A18001002F3CF26F0F4CF27F026501C26000E44
:100A28001D221E221F2227502226000E23222422A6
:100A3800252213501102F3CF26F0F4CF27F02650C9
:100A48001C26000E1D221E221F2227502226000EC1
:100A58002322242225221EC01FF01DC01EF01CC008
:100A68001DF01C6A13501002F3CF26F0F4CF27F0C4
:100A780026501C2627501D22000E1E22000E1F2263
:100A880014500F02F3CF26F0F4CF27F026501C267F
:100A980027501D22000E1E22000E1F221EC01FF00E
:100AA8001DC01EF01CC01DF01C6A13500F02F3CFAE
:100AB80026F0F4CF27F026501C2627501D22000EC2
:100AC8001E22000E1F2215501002F3CF26F0F4CF7D
:100AD80027F02650222627502322000E2422000E1B
:100AE800252214501102F3CF26F0F4CF27F0265018
:100AF800222627502322000E2422000E25221550DC
:100B08001102F3CF26F0F4CF27F02650176E2750A6
:100B1800186E196A1A6A19C01AF018C019F017C0A5
:100B280018F0176A17502226185023221950242229
:100B38001A5025221CC017F01DC018F01EC019F04D
:100B48001FC01AF0190EAEEF05F0D8901A321932FC
:100B580018321732E82EA9EF05F017502226185040
:100B68002322195024221A5025221EC01FF01DC00E
:100B78001EF01CC01DF01C6A205021C017F0186A16
:100B88001726000E1822820E1724266EFF0E182034
:100B9800276EE4EF05F0D890223623362436253622
:100BA8001FAED9EF05F0DBEF05F0DCEF05F0228092
:100BB800D8901C361D361E361F362606D8A02706A6
:100BC80024AEE9EF05F0EBEF05F0CFEF05F0000EEE
:100BD800206E1FAEF2EF05F0F4EF05F018EF06F007
:100BE800FF0E1C14176EFF0E1D14186EFF0E1E1438
:100BF800196E7F0E1F141A6E1750181019101A103C
:100C0800D8B409EF06F00BEF06F00FEF06F0010E6F
:100C1800206E18EF06F022A014EF06F016EF06F08B
:100C280018EF06F00BEF06F02050D8B41EEF06F0D0
:100C380020EF06F044EF06F0010E2226000E2322D4
:100C48002422252225A02BEF06F02DEF06F044EFF5
:100C580006F022C017F023C018F024C019F025C0F0
:100C68001AF01A341A3219321832173217C022F011
:100C780018C023F019C024F01AC025F0264A272AE4
:100C880027BE4FEF06F0275008E12628D8A04FEFDF
:100C980006F051EF06F05BEF06F0000E226E000E34
:100CA800236E800E246E7F0E256E89EF06F027BE18
:100CB80068EF06F0275006E12604D8B066EF06F084
:100CC80068EF06F074EF06F0000E226E000E236E39
:100CD800000E246E000E256E000E1B6E89EF06F0C6
:100CE80026C021F0FF0E2216FF0E23167F0E2416B3
:100CF800000E251621A083EF06F085EF06F086EF9B
:100D080006F0248ED8902130256E1B50251222C063
:100D18000FF023C010F024C011F025C012F012000B
:100D280000016D51800B7A6F6D516D25816F6CAF2D
:100D3800A0EF06F0A2EF06F0A3EF06F08181815143
:100D4800D8B4A9EF06F0ABEF06F0C0EF06F08129A2
:100D5800D8A4B1EF06F0B3EF06F0BBEF06F0000E33
:100D68006A6F000E6B6F000E6C6F000E6D6F6C8FEC
:100D7800000E6D6FC8EF06F0000E6A6F000E6B6F05
:100D8800000E6C6F000E6D6F7151800B7A1B7151E4
:100D98007125826F70AFD3EF06F0D5EF06F0D6EF6E
:100DA80006F082818251D8B4DCEF06F0DEEF06F05F
:100DB800F3EF06F08229D8A4E4EF06F0E6EF06F098
:100DC800EEEF06F0000E6E6F000E6F6F000E706F84
:100DD800000E716F708F000E716FFBEF06F0000E42
:100DE8006E6F000E6F6F000E706F000E716F6E5198
:100DF8006F1170117111D8A404EF07F006EF07F016
:100E08001EEF07F0000E6A6F000E6B6F000E6C6F1E
:100E1800000E6D6F800E6C137F0E6D137A516D137B
:100E28006AC06AF06BC06BF06CC06CF06DC06DF09E
:100E380061EF08F08151D8A424EF07F026EF07F0FE
:100E480030EF07F0000E6A6F000E6B6F000E6C6FCC
:100E5800000E6D6F61EF08F0825181C072F0736B04
:100E6800725F000E735B7F0E72257B6F000E73211D
:100E78007C6F6AC076F06BC077F06CC078F06DC09C
:100E880079F0000E6A6F000E6B6F000E6C6F000E2B
:100E98006D6F000E7D6F000E7E6F000E7F6F000E6F
:100EA800806F000E826F91EF07F08251D8B45FEF28
:100EB80007F061EF07F078EF07F0D89076377737CB
:100EC80078377937D8906A376B376C376D3780AF9A
:100ED80070EF07F072EF07F073EF07F06A81D890B0
:100EE8007D377E377F3780376E51765D6F51775902
:100EF8007051785971517959D8A085EF07F087EF6B
:100F080007F090EF07F0808D6E51765F6F51775B39
:100F18007051785B7151795B822B190E826597EF5E
:100F280007F099EF07F059EF07F07651771178112C
:100F38007911D8B4A2EF07F0A4EF07F0BCEF07F0DF
:100F48007D81BCEF07F0D8906A376B376C376D3707
:100F580080AFB1EF07F0B3EF07F0B4EF07F06A81A5
:100F6800D8907D377E377F3780377B07D8A07C07BE
:100F78006CAFC1EF07F0C3EF07F0A7EF07F0000E63
:100F8800826F80AFCAEF07F0CCEF07F0F0EF07F001
:100F9800FF0E7D15726FFF0E7E15736FFF0E7F15A6
:100FA800746F7F0E8015756F7251731174117511FE
:100FB800D8B4E1EF07F0E3EF07F0E7EF07F0010E31
:100FC800826FF0EF07F06AA1ECEF07F0EEEF07F0A1
:100FD800F0EF07F0E3EF07F08251D8B4F6EF07F02F
:100FE800F8EF07F01CEF08F0010E6A27000E6B23DC
:100FF8006C236D236DA103EF08F005EF08F01CEFDB
:1010080008F06AC072F06BC073F06CC074F06DC009
:1010180075F07535753374337333723372C06AF093
:1010280073C06BF074C06CF075C06DF07B4B7C2B9B
:101038007CBF27EF08F07C5108E17B29D8A027EF77
:1010480008F029EF08F034EF08F0000E7C6F7B6998
:10105800000E6A6F000E6B6F000E6C6F000E6D6FE6
:101068007CBF41EF08F07C5106E17B05D8B03FEF2B
:1010780008F041EF08F04FEF08F0000E7C6F000E0B
:101088007B6F000E6A6F000E6B6F000E6C6F000EA8
:101098006D6F000E7A6F7BC081F081A156EF08F06A
:1010A80058EF08F05BEF08F06C8F5CEF08F06C9F6E
:1010B800D89081316D6F12EF07F0120028C001F04F
:1010C80029C002F0000E02BEFF0E036E046E010E70
:1010D80058EC0CF001C00FF002C010F003C011F082
:1010E80004C012F0A10E136EDE0E146EA70E156E5C
:1010F8003C0E166E7FEC04F00FC032F010C033F0D7
:1011080011C034F012C035F032C001F033C002F023
:1011180034C003F035C004F082EC13F001C030F0A5
:1011280002C031F032C011F033C012F034C013F0F5
:1011380035C014F030C001F031C002F0000E02BE1C
:10114800FF0E036E046E010E58EC0CF001C015F092
:1011580002C016F003C017F004C018F09DEC18F098
:1011680011C032F012C033F013C034F014C035F09F
:1011780032C00FF033C010F034C011F035C012F097
:10118800000E136E000E146E200E156E410E166EB4
:101198007FEC04F00FC032F010C033F011C034F00F
:1011A80012C035F032C001F033C002F034C003F091
:1011B80035C004F082EC13F001C02EF002C02FF00D
:1011C80032C011F033C012F034C013F035C014F03F
:1011D8002EC001F02FC002F0000E02BEFF0E036EFB
:1011E800046E010E58EC0CF001C015F002C016F0A8
:1011F80003C017F004C018F09DEC18F011C032F0CD
:1012080012C033F013C034F014C035F032C00FF000
:1012180033C010F034C011F035C012F0000E136E58
:10122800000E146E200E156E410E166E7FEC04F043
:101238000FC032F010C033F011C034F012C035F0D6
:1012480032C001F033C002F034C003F035C004F0FE
:1012580082EC13F001C02CF002C02DF032C011F066
:1012680033C012F034C013F035C014F02CC001F0B4
:101278002DC002F0000E02BEFF0E036E046E010EBA
:1012880058EC0CF001C015F002C016F003C017F0BE
:1012980004C018F09DEC18F011C032F012C033F001
:1012A80013C034F014C035F032C00FF033C010F062
:1012B80034C011F035C012F0000E136E000E146E1B
:1012C800200E156E410E166E7FEC04F00FC032F042
:1012D80010C033F011C034F012C035F032C001F044
:1012E80033C002F034C003F035C004F082EC13F0D0
:1012F80001C02AF002C02BF02AC001F02BC002F076
:10130800DDEC0DF001C0E8F002C0E9F02CC001F0FE
:101318002DC002F0DDEC0DF001C0E6F002C0E7F0F0
:101328002EC001F02FC002F0DDEC0DF001C0E4F09A
:1013380002C0E5F030C001F031C002F0DDEC0DF084
:10134800800E01240001E26F000E0220E36F1200FC
:101358000001EC05ED11D8A4B4EF09F0B6EF09F0DF
:10136800BDEF09F0000EED6F000EEC6F000EACEC57
:1013780016F0000E5D6E000E5C6E000E0001F16F3F
:10138800010EF06F000E0101356F000E366F000E72
:10139800376F0001E251300F0101356F2E0E366FA5
:1013A800000E376F000E396F000E386F0001E451E0
:1013B800300F0101386F000E396F000E3B6F000EC1
:1013C8003A6F0001E651300F01013A6F000E3B6F92
:1013D800000E3D6F000E3C6F0001E851300F010117
:1013E8003C6F000E3D6F030E0001746F020E80EC1F
:1013F80017F0350E00017D6F010E7E6F010E7F6FB5
:10140800010E806F1CEC18F0040E0001746F020EC0
:1014180080EC17F0380E00017D6F010E7E6F010E13
:101428007F6F010E806F1CEC18F0050E0001746FC1
:10143800020E80EC17F03A0E00017D6F010E7E6FF0
:10144800010E7F6F010E806F1CEC18F0060E000174
:10145800746F020E80EC17F03C0E00017D6F010ED8
:101468007E6F010E7F6F010E806F1CEC18F001017A
:101478003FBF4AEF0AF03F5107E1640E3E5DD8B026
:1014880048EF0AF04AEF0AF070EF0AF0000E000188
:101498007C6F1B0E7B6F000E7E6F000E7D6F000E43
:1014A800806F1B0E7F6F000E826F400E816F000EE3
:1014B800846F000E836F1CEC0FF090C074F0010E67
:1014C8000001756F01013E511B0F05EC14F001017D
:1014D8003E4B3F2B9DEF0AF03FBF7CEF0AF03F5198
:1014E80009E1640E3E5DD8A07CEF0AF07EEF0AF0B9
:1014F8009DEF0AF0000E00017C6F1B0E7B6F000E43
:101508007E6F000E7D6F000E806F1B0E7F6F000ECA
:10151800826F400E816F000E846F000E836F1CEC8B
:101528000FF090C074F0010E0001756F1C0E05ECF1
:1015380014F012000001EC05ED11D8A4A6EF0AF092
:10154800A8EF0AF0AFEF0AF0000EED6F000EEC6F97
:10155800000EF4EC16F0000E5D6E010E5C6E21EECE
:1015680010F010EE27F00F0EDBCFE3FFE806FCE2E9
:1015780021EE20F010EE47F00E0EDBCFE3FFE80679
:10158800FCE221EE00F010EE37F00F0EDBCFE3FFA8
:10159800E806FCE2D3C056F0D4C057F0D1C058F0EA
:1015A800D2C059F0000E0B6E020EB7EC17F0270EE2
:1015B800146E000E156E010E166E010E176E4BECB2
:1015C80018F0020E0B6E020EB7EC17F0470E146EF1
:1015D800000E156E010E166E010E176E4BEC18F00C
:1015E800030E0B6E020EB7EC17F0370E146E000EDA
:1015F800156E010E166E010E176E4BEC18F0030EE9
:101608000B6E020EB7EC17F0050E0B6E2A0EB7EC38
:1016180017F0560E146E000E156E010E166E010EA2
:10162800176E4BEC18F0050E0B6E520EB7EC17F058
:10163800580E146E000E156E010E166E010E176E02
:101648004BEC18F05C045D10D8A42DEF0BF02FEFD5
:101658000BF050EF0BF05A505B10D8A436EF0BF09C
:1016680038EF0BF050EF0BF0000E136E2A0E126ECF
:10167800000E156E340E146E000E176E320E166EB6
:10168800000E196E340E186E000E1B6E010E1A6EC7
:10169800B2EC0FF07BEF0BF05C045D10D8A457EFB1
:1016A8000BF059EF0BF07AEF0BF05A045B10D8A44B
:1016B80060EF0BF062EF0BF07AEF0BF0000E136E99
:1016C800520E126E000E156E340E146E000E176E4A
:1016D8005A0E166E000E196E340E186E000E1B6E22
:1016E800010E1A6EB2EC0FF07BEF0BF000F0120057
:1016F8000001726F00017251D8B485EF0BF087EFCB
:101708000BF0A9EF0BF06DBF8EEF0BF08CEF0BF029
:10171800A9EF0BF06AC06EF06BC06FF06CC070F090
:101728006DC071F06E1F6F1F701F711F6E2B000E42
:101738006F23702371236EC074F06FC075F070C092
:1017480076F071C077F0B1EF0BF06AC074F06BC03F
:1017580075F06CC076F06DC077F06A516B116C1142
:101768006D11D8A4BAEF0BF0BCEF0BF0C6EF0BF07D
:10177800000E6A6F000E6B6F000E6C6F000E6D6FBF
:1017880057EF0CF0960E736FD0EF0BF0732BD890C9
:101798007733763375337433000E74156E6F000E1D
:1017A80075156F6F000E7615706FFE0E7715716FD9
:1017B8006E516F1170117111D8A4E5EF0BF0E7EFBE
:1017C8000BF0CAEF0BF0F5EF0BF0732B010E74273B
:1017D800000E752376237723D890773376337533C5
:1017E8007433000E74156E6F000E75156F6F000E52
:1017F8007615706FFF0E7715716F6E516F1170113E
:101808007111D8A40AEF0CF00CEF0CF0E9EF0BF013
:1018180014EF0CF07307D89074377537763777372D
:1018280076BF19EF0CF01BEF0CF023EF0CF0020E53
:10183800736121EF0CF023EF0CF00EEF0CF073B195
:1018480028EF0CF02AEF0CF02BEF0CF0769FD890D5
:10185800733373C06EF06F6B706B716B6EC071F029
:10186800706B6F6B6E6B6E5174136F517513705193
:101878007613715177137251D8B445EF0CF047EFD6
:101888000CF04FEF0CF06DBF4EEF0CF04CEF0CF07E
:101898004FEF0CF0778F74C06AF075C06BF076C0AC
:1018A8006CF077C06DF01200096E0950D8B45FEF84
:1018B8000CF061EF0CF083EF0CF004BE68EF0CF055
:1018C80066EF0CF083EF0CF001C005F002C006F0E3
:1018D80003C007F004C008F0051E061E071E081EF8
:1018E800052A000E06220722082205C00BF006C0B2
:1018F8000CF007C00DF008C00EF08BEF0CF001C023
:101908000BF002C00CF003C00DF004C00EF0015043
:10191800021003100410D8A494EF0CF096EF0CF00A
:10192800A0EF0CF0000E016E000E026E000E036EAA
:10193800000E046E31EF0DF0960E0A6EAAEF0CF051
:101948000A2AD8900E320D320C320B32000E0B14CC
:10195800056E000E0C14066E000E0D14076EFE0EBA
:101968000E14086E0550061007100810D8A4BFEF13
:101978000CF0C1EF0CF0A4EF0CF0CFEF0CF00A2A3A
:10198800010E0B26000E0C220D220E22D8900E32CC
:101998000D320C320B32000E0B14056E000E0C14B7
:1019A800066E000E0D14076EFF0E0E14086E05501D
:1019B800061007100810D8A4E4EF0CF0E6EF0CF0BE
:1019C800C3EF0CF0EEEF0CF00A06D8900B360C368D
:1019D8000D360E360DBEF3EF0CF0F5EF0CF0FDEF03
:1019E8000CF0020E0A60FBEF0CF0FDEF0CF0E8EFD4
:1019F8000CF00AB002EF0DF004EF0DF005EF0DF05A
:101A08000D9ED8900A320AC005F0066A076A086A6D
:101A180005C008F0076A066A056A05500B120650E9
:101A28000C1207500D1208500E120950D8B41FEFAF
:101A38000DF021EF0DF029EF0DF004BE28EF0DF0A9
:101A480026EF0DF029EF0DF00E8E0BC001F00CC043
:101A580002F00DC003F00EC004F012000600E1CF42
:101A680060F0E2CF61F0D9CF62F0DACF63F0F3CF64
:101A780064F0F4CF65F0F6CF66F0F7CF67F0F8CFF3
:101A880068F0F5CF69F09EAC4CEF0DF04EEF0DF01D
:101A980059EF0DF09E9CC4CFEAF00001EB6BEAC051
:101AA80028F0EBC029F062EC08F0F2A05EEF0DF030
:101AB80060EF0DF0C7EF0DF0F29081AC66EF0DF01E
:101AC80068EF0DF0C6EF0DF00001DA51DB11D8A474
:101AD80070EF0DF072EF0DF0C2EF0DF05C045D10C9
:101AE800D8A479EF0DF07BEF0DF097EF0DF05A5079
:101AF8005B10D8A482EF0DF084EF0DF097EF0DF096
:101B0800000EED6F010EEC6F000E5B6E010E5A6E4B
:101B1800000E0B6E000EB7EC17F0000EF4EC16F08A
:101B280000D09EEC0AF05C045D10D8A49EEF0DF086
:101B3800A0EF0DF0BDEF0DF05A045B10D8A4A7EF8D
:101B48000DF0A9EF0DF0BDEF0DF0000E0001ED6FE7
:101B5800010EEC6F000E5B6E000E5A6E000E0B6EDF
:101B6800000EB7EC17F0000EF4EC16F000D09EEC67
:101B78000AF00001DA4BDB2BC6EF0DF0000EDB6F2D
:101B8800000EDA6F815069C0F5FF68C0F8FF67C0C2
:101B9800F7FF66C0F6FF65C0F4FF64C0F3FF63C0DB
:101BA800DAFF62C0D9FF61C0E2FF60C0E1FF5E9268
:101BB800110001500210D8A4E4EF0DF0E6EF0DF08B
:101BC800ECEF0DF0000E026E3F0E016E7EEF0EF090
:101BD80001040210D8A4F3EF0DF0F5EF0DF0FBEFC0
:101BE8000DF0000E026E060E016E7EEF0EF0020E74
:101BF80001180210D8A403EF0EF005EF0EF00BEF5A
:101C08000EF0000E026E5B0E016E7EEF0EF0030EFC
:101C180001180210D8A413EF0EF015EF0EF01BEF09
:101C28000EF0000E026E4F0E016E7EEF0EF0040EE7
:101C380001180210D8A423EF0EF025EF0EF02BEFB9
:101C48000EF0000E026E660E016E7EEF0EF0050EAF
:101C580001180210D8A433EF0EF035EF0EF03BEF69
:101C68000EF0000E026E6D0E016E7EEF0EF0060E87
:101C780001180210D8A443EF0EF045EF0EF04BEF19
:101C88000EF0000E026E7D0E016E7EEF0EF0070E56
:101C980001180210D8A453EF0EF055EF0EF05BEFC9
:101CA8000EF0000E026E070E016E7EEF0EF0080EAB
:101CB80001180210D8A463EF0EF065EF0EF06BEF79
:101CC8000EF0000E026E7F0E016E7EEF0EF0090E12
:101CD80001180210D8A473EF0EF075EF0EF07BEF29
:101CE8000EF0000E026E6F0E016E7EEF0EF0000E0B
:101CF800026E01681200C8C096F0C9C097F0CAC049
:101D080098F020EEC3F010EE91F0040EDBCFE3FF65
:101D1800E806FCE2D5C099F0D6C09AF020EEA8F00B
:101D280010EE83F0070EDBCFE3FFE806FCE220EEBF
:101D3800B7F010EE8BF0050EDBCFE3FFE806FCE210
:101D4800000E0001746F340E80EC17F0960E00013F
:101D58007D6F000E7E6F010E7F6F010E806F1CEC91
:101D680018F0020E0001746F2D0E80EC17F0910E22
:101D780000017D6F000E7E6F010E7F6F010E806F78
:101D88001CEC18F0030E0001746F360E80EC17F08F
:101D9800990E00017D6F000E7E6F010E7F6F010EA0
:101DA800806F1CEC18F0040E0001746F230E80EC99
:101DB80017F0830E00017D6F000E7E6F010E7F6F9E
:101DC800010E806F1CEC18F0050E0001746F360EC2
:101DD80080EC17F0990E00017D6F000E7E6F010EEA
:101DE8007F6F010E806F1CEC18F0060E0001746FF7
:101DF800290E80EC17F08B0E00017D6F000E7E6FB0
:101E0800010E7F6F010E806F1CEC18F0150E00019B
:101E1800826F4B0E816FBE0EE82EFED7812FFCD746
:101E2800822FFAD700F0000EACEC16F000D01200AA
:101E380000017F517B1907E180517C19D8A427EF55
:101E48000FF029EF0FF067EF0FF0FF0E7B25886F7B
:101E5800FF0E7C21896F52EF0FF07DC08AF07EC0A3
:101E68008BF041EF0FF08AC074F083C075F0885191
:101E780005EC14F000018A4B8B2B81518A5D8B5144
:101E8800800A856F8251800A8559D8A04EEF0FF0DD
:101E980050EF0FF037EF0FF0884B892B010E7B25A1
:101EA800856F000E7C21866F8851855D8651800A7A
:101EB800876F8951800A8759D8B065EF0FF067EFAF
:101EC8000FF031EF0FF081517D1907E182517E1932
:101ED800D8A471EF0FF073EF0FF0B1EF0FF0FF0E12
:101EE8007D258C6FFF0E7E218D6F9CEF0FF07BC0E0
:101EF8008EF07CC08FF08BEF0FF08CC074F083C035
:101F080075F08E5105EC14F000018E4B8F2B7F512C
:101F18008E5D8F51800A856F8051800A8559D8A0BF
:101F280098EF0FF09AEF0FF081EF0FF08C4B8D2B9D
:101F3800010E7D25856F000E7E21866F8C51855D93
:101F48008651800A876F8D51800A8759D8B0AFEFC4
:101F58000FF0B1EF0FF07BEF0FF0120016501218D0
:101F680007E117501318D8A4BCEF0FF0BEEF0FF01D
:101F7800FBEF0FF0FF0E12241F6EFF0E1320206ED2
:101F8800E6EF0FF014C021F015C022F0D5EF0FF0E6
:101F980021C00BF01AC00CF01F5078EC14F0214A45
:101FA800222A1850215C2250800A1C6E1950800A7F
:101FB8001C58D8A0E2EF0FF0E4EF0FF0CCEF0FF0D1
:101FC8001F4A202A010E12241C6E000E13201D6EBB
:101FD8001F501C5C1D50800A1E6E2050800A1E581F
:101FE800D8B0F9EF0FF0FBEF0FF0C6EF0FF0185075
:101FF800141807E119501518D8A405EF10F007EFC9
:1020080010F044EF10F0FF0E1424236EFF0E15207D
:10201800246E2FEF10F012C025F013C026F01EEF2B
:1020280010F023C00BF01AC00CF0255078EC14F017
:10203800254A262A1650255C2650800A1C6E175001
:10204800800A1C58D8A02BEF10F02DEF10F015EFD8
:1020580010F0234A242A010E14241C6E000E1520A9
:102068001D6E23501C5C1D50800A1E6E2450800A71
:102078001E58D8B042EF10F044EF10F00FEF10F0F8
:1020880012000001776F000E00017C6F0A0E7719AD
:10209800D8A451EF10F053EF10F058EF10F0000EE5
:1020A800F56FF42BD1EF10F03F0EF5655EEF10F0F1
:1020B80060EF10F067EF10F0010E7C6FF551C00F64
:1020C8007A6F69EF10F0F5C07AF07751080DF3CF09
:1020D80078F0F4CF79F0000E7B6F3F0E7A6577EFDA
:1020E80010F079EF10F08CEF10F0400E7A5F010ECF
:1020F8007C6F8A947A514009726F010EF8EC18F0DF
:102108000001F451B809726F010EF8EC18F08A84D6
:1021180000017451D8B493EF10F095EF10F0ADEFC3
:1021280010F03B0E756F730E766F7B517527000E9E
:102138007623785175277951762375C0F6FF76C0D6
:10214800F7FF0800F5CF72F07C51F8EC18F0C4EFF7
:1021580010F03B0E756F730E766F7B517527000E6E
:102168007623785175277951762375C0F6FF76C0A6
:10217800F7FF0800F550FF0A726F7C51F8EC18F071
:1021880000017A2B7B2B070E7B65CDEF10F0CFEF8C
:1021980010F071EF10F0080EF52712000001786FAB
:1021A800000E00017A6F0A0E7819D8A4DEEF10F03D
:1021B800E0EF10F0E5EF10F0000EF56FF42B5EEF96
:1021C80011F03F0EF565EBEF10F0EDEF10F0F4EFC6
:1021D80010F0010E7A6FF551C00F776FF6EF10F01F
:1021E800F5C077F0200E785F000E796F3F0E7765A7
:1021F80000EF11F002EF11F015EF11F0400E775FCC
:10220800010E7A6F8A9477514009726F010EF8ECCB
:1022180018F00001F451B809726F010EF8EC18F0CB
:102228008A8400017451D8B41CEF11F01EEF11F02C
:1022380038EF11F07851030D3B0E756F7F0E766FF6
:10224800F3507527F450762379517527000E7623BD
:1022580075C0F6FF76C0F7FF0800F5CF72F07A5127
:10226800F8EC18F051EF11F07851030D3B0E756F33
:102278007F0E766FF3507527F450762379517527C2
:10228800000E762375C0F6FF76C0F7FF0800F550FC
:10229800FF0A726F7A51F8EC18F00001772B792B4E
:1022A800020E79655AEF11F05CEF11F0FAEF10F0B9
:1022B800050EF52712000E6E000E136E0A0E0E188C
:1022C800D8A469EF11F06BEF11F071EF11F0000E67
:1022D8000001F56FF42BEAEF11F03F0E0001F565F0
:1022E80078EF11F07AEF11F081EF11F0010E136E13
:1022F800F551C00F116E83EF11F0F5C011F00E50BB
:10230800080DF3CF0FF0F4CF10F0000E126E3F0E51
:10231800116491EF11F093EF11F0A6EF11F0400E58
:10232800115E010E136E8A9411504009096E010E58
:1023380013EC19F00001F451B809096E010E13EC01
:1023480019F08A840B50D8B4ACEF11F0AEEF11F04D
:10235800C6EF11F03B0E0C6E730E0D6E12500C266C
:10236800000E0D220F500C2610500D220CC0F6FF47
:102378000DC0F7FF0800F5CF09F0135013EC19F062
:10238800DDEF11F03B0E0C6E730E0D6E12500C2625
:10239800000E0D220F500C2610500D220CC0F6FF17
:1023A8000DC0F7FF0800F550FF0A096E135013EC33
:1023B80019F0112A122A070E1264E5EF11F0E7EF5F
:1023C80011F08BEF11F0080E0001F52712000F6EC7
:1023D800000E116E0A0E0F18D8A4F5EF11F0F7EFE2
:1023E80011F0FDEF11F0000E0001F56FF42B76EF00
:1023F80012F03F0E0001F56504EF12F006EF12F03F
:102408000DEF12F0010E116EF551C00F0E6E0FEFA9
:1024180012F0F5C00EF0200E0F5E000E106E3F0E8B
:102428000E6419EF12F01BEF12F02EEF12F0400EAF
:102438000E5E010E116E8A940E504009096E010E4F
:1024480013EC19F00001F451B809096E010E13ECF0
:1024580019F08A840B50D8B434EF12F036EF12F02A
:1024680050EF12F00F50030D3B0E0C6E7F0E0D6EE9
:10247800F3500C26F4500D2210500C26000E0D229D
:102488000CC0F6FF0DC0F7FF0800F5CF09F011509A
:1024980013EC19F069EF12F00F50030D3B0E0C6EA0
:1024A8007F0E0D6EF3500C26F4500D2210500C26A2
:1024B800000E0D220CC0F6FF0DC0F7FF0800F55006
:1024C800FF0A096E115013EC19F00E2A102A020E99
:1024D800106471EF12F073EF12F013EF12F0050EA3
:1024E8000001F5271200000E0001736F71BF81EF24
:1024F80012F07FEF12F08BEF12F0711F701F6F1F39
:102508006E6D000E6F2370237123010E736F6DBF04
:1025180092EF12F090EF12F09CEF12F06D1F6C1F0B
:102528006B1F6A6D000E6B236C236D23010E731BEA
:10253800000E746F000E756F000E766F000E776FC9
:102548006E516F1170117111D8B4ADEF12F0AFEF79
:1025580012F0E5EF12F0010E726FB9EF12F0D89099
:102568006E376F3770377137722B71AFBEEF12F05D
:10257800C0EF12F0B3EF12F0D89074377537763792
:1025880077376E516A5D6F516B5970516C59715143
:102598006D59D8A0D2EF12F0D4EF12F0DDEF12F09F
:1025A8006E516A5F6F516B5B70516C5B71516D5B03
:1025B8007481D890713370336F336E33722FC0EFDC
:1025C80012F07351D8B4EBEF12F0EDEF12F0F5EF13
:1025D80012F0771F761F751F746D000E7523762312
:1025E800772374C06AF075C06BF076C06CF077C062
:1025F8006DF0120000016C356D35736F7351D8A4FE
:1026080008EF13F00AEF13F014EF13F0000E6A6FDF
:10261800000E6B6F000E6C6F000E6D6F81EF13F084
:102628006AC06EF06BC06FF06CC070F06DC071F076
:10263800200E24EF13F0D890713370336F336E335C
:10264800E82E1FEF13F06E51726F6C8FFF0E6A1732
:10265800FF0E6B17FF0E6C17000E6D17960E735F4B
:1026680073BF3BEF13F039EF13F051EF13F07351D1
:10267800800A970FD8B043EF13F045EF13F047EFF8
:1026880013F00AEF13F0D8906D336C336B336A3361
:10269800733F47EF13F069EF13F01F0E736557EFA1
:1026A80013F059EF13F061EF13F00AEF13F0D8901D
:1026B8006A376B376C376D3773077351D8A467EF78
:1026C80013F069EF13F05BEF13F07251D8B46FEFAA
:1026D80013F071EF13F079EF13F06D1F6C1F6B1F80
:1026E8006A6D000E6B236C236D236AC06AF06BC0A1
:1026F8006BF06CC06CF06DC06DF0120003340434E4
:102708000A6E0A50D8A48BEF13F08DEF13F097EFF1
:1027180013F0000E016E000E026E000E036E000E26
:10272800046E04EF14F001C005F002C006F003C007
:1027380007F004C008F0200EA7EF13F0D890083275
:10274800073206320532E82EA2EF13F00550096E63
:10275800038EFF0E0116FF0E0216FF0E0316000E63
:102768000416960E0A5E0ABEBEEF13F0BCEF13F015
:10277800D4EF13F00A50800A970FD8B0C6EF13F0C1
:10278800C8EF13F0CAEF13F08DEF13F0D8900432AE
:102798000332023201320A3ECAEF13F0ECEF13F0B3
:1027A8001F0E0A64DAEF13F0DCEF13F0E4EF13F016
:1027B8008DEF13F0D89001360236033604360A0638
:1027C8000A50D8A4EAEF13F0ECEF13F0DEEF13F0A1
:1027D8000950D8B4F2EF13F0F4EF13F0FCEF13F054
:1027E800041E031E021E016C000E02220322042294
:1027F80001C001F002C002F003C003F004C004F0FD
:1028080012000001786F000E00017A6F3F0E7865A4
:1028180010EF14F012EF14F016EF14F0400E785F7A
:10282800010E7A6F8A94789F788D78C072F07A5109
:10283800F8EC18F074C06AF000016B6B000E6D6F55
:10284800080E6C6FE1EC14F000016A51BF0BB80977
:10285800726F7A51F8EC18F08A8400017A51DDEC35
:1028680018F000017A51DDEC18F00001796F8A94B4
:1028780078C072F07A51F8EC18F000017551D8B4AC
:1028880048EF14F04AEF14F05EEF14F074C076F0DD
:10289800070E7617010E776F762B55EF14F0D89048
:1028A8007737762F53EF14F0000177517911796F4C
:1028B80071EF14F074C076F0070E7617010E776F7B
:1028C800762B69EF14F0D8907737762F67EF14F0EE
:1028D80000017751FF0A7915796F8A8479C072F0FF
:1028E8007A51F8EC18F012000F6E000E116E3F0EC0
:1028F8000F6481EF14F083EF14F087EF14F0400EAB
:102908000F5E010E116E8A940F9E0F8C0FC009F096
:10291800115013EC19F00BC001F0026A000E046E9E
:10292800080E036EA6EC15F00150BF0BB809096E2E
:10293800115013EC19F08A8411502CEC19F0115035
:102948002CEC19F0106E8A940FC009F0115013EC9A
:1029580019F00C50D8B4B3EF14F0B5EF14F0C8EF79
:1029680014F00BC00DF0070E0D16010E0E6E0D2A99
:10297800C0EF14F0D8900E360D2EBEEF14F00E50A6
:102988001010106EDAEF14F00BC00DF0070E0D16D4
:10299800010E0E6E0D2AD3EF14F0D8900E360D2EC0
:1029A800D1EF14F00E50FF0A1014106E8A8410C074
:1029B80009F0115013EC19F01200000E00016F6FAE
:1029C8006DBFEBEF14F0E9EF14F0F1EF14F06C6D5C
:1029D8006D1FD8B06D2B010E6F6F6BBFF8EF14F041
:1029E800F6EF14F0FEEF14F06A6D6B1FD8B06B2B86
:1029F800010E6F1B000E716F000E706F6C516D1120
:102A0800D8B409EF15F00BEF15F033EF15F0010E00
:102A18006E6F13EF15F0D8906C376D376E2B6DAF66
:102A280018EF15F01AEF15F00FEF15F0D890703772
:102A380071376C516A5D6D516B59D8A026EF15F04E
:102A480028EF15F02DEF15F06C516A5F6D516B5B37
:102A58007081D8906D336C336E2F1AEF15F06F516B
:102A6800D8B439EF15F03BEF15F03FEF15F0706D66
:102A7800711FD8B0712B70C06AF071C06BF0120072
:102A880020EEB0F010EE8DF0060EDBCFE3FFE80687
:102A9800FCE220EEBDF010EE94F0050EDBCFE3FF74
:102AA800E806FCE220EE9EF010EE83F0090EDBCF84
:102AB800E3FFE806FCE2000EACEC16F0020E0001A3
:102AC800746F120E80EC17F08D0E00017D6F000EF2
:102AD8007E6F010E7F6F010E806F1CEC18F0020EE6
:102AE8000001746F4E0E80EC17F0940E00017D6F9C
:102AF800000E7E6F010E7F6F010E806F1CEC18F0C8
:102B0800050E0001746F1A0E80EC17F0830E000199
:102B18007D6F000E7E6F010E7F6F010E806F1CECC3
:102B280018F0290E0001826F960E816F7F0EE82E35
:102B3800FED7812FFCD7822FFAD7000EACEC16F007
:102B480000D01200000E066E04BEAFEF15F0ADEF18
:102B580015F0B5EF15F0036C041ED8B0042A010E69
:102B6800066E02BEBCEF15F0BAEF15F0C2EF15F015
:102B7800016C021ED8B0022A010E061A000E086E59
:102B8800000E076E03500410D8B4CDEF15F0CFEF48
:102B980015F0F7EF15F0010E056ED7EF15F0D89088
:102BA80003360436052A04AEDCEF15F0DEEF15F027
:102BB800D3EF15F0D890073608360350015C04505F
:102BC8000258D8A0EAEF15F0ECEF15F0F1EF15F088
:102BD8000350015E0450025A0780D8900432033231
:102BE800052EDEEF15F00650D8B4FDEF15F0FFEF17
:102BF80015F003EF16F0076C081ED8B0082A07C0B6
:102C080001F008C002F012000001776F000E836E19
:102C18008A9A8A8A8A988A908A928A94C00E00012F
:102C2800726F000EF8EC18F0C00E0001726F010E02
:102C3800F8EC18F0400E0001726F000EF8EC18F076
:102C4800400E0001726F010EF8EC18F0B80E00018A
:102C5800726F000EF8EC18F0B80E0001726F010EDA
:102C6800F8EC18F000017705D8A43DEF16F03FEF17
:102C780016F04CEF16F03F0E726F000EF8EC18F0DD
:102C88003F0E0001726F010EF8EC18F057EF16F0C6
:102C98003E0E726F000EF8EC18F03E0E0001726FD7
:102CA800010EF8EC18F0000EACEC16F01200CB5048
:102CB80000019C6F9D6B010E9C27000E9D239CC0FC
:102CC8006AF09DC06BF0000E6BBFFF0E6C6F6D6FEE
:102CD800010E7CEC0BF06AC083F06BC084F06CC012
:102CE80085F06DC086F0000E00016E6F000E6F6FEC
:102CF800C80E706F420E716F2FC16AF030C16BF051
:102D080031C16CF032C16DF094EC06F06AC087F006
:102D18006BC088F06CC089F06DC08AF069EC02F075
:102D280083C033F184C034F185C035F186C036F1F3
:102D380033C16AF034C16BF035C16CF036C16DF047
:102D4800FEEC12F000016A51BB6EBA9ABA981200F2
:102D58000001746F000E0001766F8A94400E726F46
:102D6800000EF8EC18F0400E0001726F010EF8EC3E
:102D780018F000017651B809726F000EF8EC18F0DF
:102D880000017651B809726F010EF8EC18F08A84C8
:102D9800000E0001756F7451010DF3500008726F39
:102DA800000EF8EC18F000017451010DF350000802
:102DB800726F010EF8EC18F00001752B3F0E756567
:102DC800E8EF16F0EAEF16F0CFEF16F0762B070EC5
:102DD8007665F1EF16F0F3EF16F0B1EF16F012008A
:102DE8000B6E000E0D6E070E0D64FDEF16F0FFEF73
:102DF80016F001EF17F03BEF17F08A94400E096EBA
:102E0800000E13EC19F0400E096E010E13EC19F0C8
:102E18000D50B809096E000E13EC19F00D50B809E1
:102E2800096E010E13EC19F08A84000E0C6E3F0E29
:102E38000C6421EF17F023EF17F025EF17F038EFA8
:102E480017F00B50010DF3500008096E000E13EC3B
:102E580019F00B50010DF3500008096E010E13EC28
:102E680019F00C2A1BEF17F00D2AF7EF16F01200D5
:102E78005DEC19F0010E08EC16F044EC15F07FEC4F
:102E88000EF0D00E0001786F070E796F000E7A6F82
:102E9800000E7B6F78EC18F0000E01012F6F000E0A
:102EA800306F480E316F420E326F5BEC16F0000E39
:102EB8005B6E000E5A6EC282EAC06AF0EBC06BF01D
:102EC800000E00016D6F6C69E1EC14F0060ED890ED
:102ED80000016A376B37E82E6BEF17F06AC040F1D4
:102EE8006BC041F140C190F041C191F0ACEC09F0E8
:102EF8005FEF17F007EF00F00001766F000E00019A
:102F0800756F800E76618BEF17F08DEF17F0B6EFC7
:102F180017F0070E746593EF17F095EF17F097EF1A
:102F280017F0B6EF17F076C0F5F074C0F4F03F0E66
:102F38007665A1EF17F0A3EF17F0A7EF17F0400E93
:102F4800765F010E756F8A9476514009726F7551DC
:102F5800F8EC18F000017451B809726F7551F8EC6B
:102F680018F08A8412000C6E000E0D6E800E0C6034
:102F7800C0EF17F0C2EF17F0EAEF17F0070E0B6477
:102F8800C8EF17F0CAEF17F0CCEF17F0EAEF17F019
:102F98000CC0F5F00BC0F4F03F0E0C64D6EF17F040
:102FA800D8EF17F0DCEF17F0400E0C5E010E0D6E37
:102FB8008A940C504009096E0D5013EC19F00B500F
:102FC800B809096E0D5013EC19F08A8412008A0EA4
:102FD800F66E320EF76E000EF86E01EE00F010EE8F
:102FE8002FF00900F5CFEEFFE550E150FAE1800E31
:102FF800F66E310EF76E000EF86E00EE9EF010EED3
:1030080039F00900F5CFEEFFE550E150FAE100EEA6
:10301800D7F01F0EEE6AE806FDE15D6A5C6A5B6A3E
:103028005A6A5E905E92000EF86E00013CEF17F04F
:103038003EEF18F000017F51D8B425EF18F027EFC4
:1030480018F032EF18F080C074F07DC0D9FF7EC050
:10305800DAFFDF5045EC10F03BEF18F080C074F059
:103068007DC0D9FF7EC0DAFFDF50D2EC10F000013E
:103078007D4B7E2B7DC0D9FF7EC0DAFFDF50D8A400
:1030880048EF18F04AEF18F01EEF18F012006BEF37
:1030980018F01650D8B453EF18F055EF18F060EF49
:1030A80018F017C00BF014C0D9FF15C0DAFFDF50B5
:1030B8005FEC11F069EF18F017C00BF014C0D9FFDE
:1030C80015C0DAFFDF50EBEC11F0144A152A14C0D2
:1030D800D9FF15C0DAFFDF50D8A475EF18F077EFE5
:1030E80018F04DEF18F01200720ED36EFD0E946EAC
:1030F8000C0EBA6E000ECC6E070ECA6E0001785127
:1031080048086A6FE80E79556B6F010E7A556C6F37
:10311800000E7B556D6F78C06EF079C06FF07AC085
:1031280070F07BC071F077EC12F000016A51CB6E41
:103138001200000E151A000E161A000E171A800E2D
:10314800181A11C001F012C002F013C003F014C025
:1031580004F015C005F016C006F017C007F018C037
:1031680008F009EC00F001C011F002C012F003C031
:1031780013F004C014F012004561737953434F50A3
:1031880045005175656E74696E0050726F6A65749A
:10319800004A756C6573004D4355203A00457269C5
:1031A80063006279004500320031003200310026A8
:0131B8000016
:1031BA0000016A6F00016A51D8B4E6EF18F0E8EF2F
:1031CA0018F0ECEF18F08A808A92EEEF18F08A92E3
:1031DA008A8295688A868A8883CF6BF08A988A90D1
:1031EA008A926B5112000001736F00017351D8B4B7
:1031FA0001EF19F003EF19F007EF19F08A808A92AC
:10320A0009EF19F08A928A82000E956E8A9672C028
:10321A008CFF8A888A988A908A9212000A6E0A50CB
:10322A00D8B41AEF19F01CEF19F020EF19F08A80C0
:10323A008A9222EF19F08A928A82000E956E8A96F5
:10324A0009C08CFF8A888A988A908A921200016E35
:10325A000150D8B433EF19F035EF19F039EF19F0FE
:10326A008A808A923BEF19F08A928A8295688A86C6
:10327A008A8883CF02F08A988A908A920250120032
:10328A00322E52656374616E67756C61697265008E
:10329A0043686F6973697220756E206D6F6465008B
:0F32AA00312E4F7363696C6C6F73636F706500C7
:1032BA00000E956E000E836E0A0EC16E110EC26E5E
:1032CA00F00E926E000E806EC00E936E000E816E2E
:0A32DA00F28E9D8CF28CF286120039
:10733A000000000000000000000000000000000043
:10734A000000000000000000000000000000000033
:10735A000000000000000000000000000000000023
:10736A000000000000000000000000000000000013
:10737A000000000000000000000000000000000003
:10738A0000000000000000000000000000000000F3
:10739A0000000000000000000000000000000000E3
:1073AA0000000000000000000000000000000000D3
:1073BA0000000000000000000000000000000000C3
:1073CA0000000000000000000000000000000000B3
:1073DA0000000000000000000000000000000000A3
:1073EA000000000000000000000000000000000093
:1073FA000000000000000000000000000000000083
:10740A000000000000000000000000000000000072
:10741A000000000000000000000000000000000062
:10742A000000000000000000000000000000000052
:10743A0000000000000000000000065F5F06000078
:10744A00000007070007070000147F7F147F7F14DE
:10745A0000242E6B6B3A120000466630180C6662E6
:10746A0000307A4F5D377A480004070300000000B5
:10747A0000001C3E63410000000041633E1C000006
:10748A0000082A3E1C1C3E2A0808083E3E0808003E
:10749A00000080E0600000000008080808080800F2
:1074AA000000006060000000006030180C06030154
:1074BA00003E7F71594D7F3E0040427F7F40400031
:1074CA0000627359496F660000226349497F36009A
:1074DA0000181C16537F7F5000276745457D3900E9
:1074EA00003C7E4B4979300000030371790F070095
:1074FA0000367F49497F360000064F49693F1E0022
:10750A000000006666000000000080E666000000D9
:10751A0000081C366341000000242424242424008B
:10752A0000004163361C080000020351590F06008F
:10753A00003E7F415D5D1F1E007C7E13137E7C0032
:10754A0000417F7F49497F36001C3E6341416322E7
:10755A0000417F7F41633E1C00417F7F495D41635B
:10756A0000417F7F491D0103001C3E634151737234
:10757A00007F7F08087F7F000000417F7F41000075
:10758A0000307040417F3F0100417F7F081C7763D4
:10759A0000417F7F41406070007F7F0E1C0E7F7F1D
:1075AA00007F7F060C187F7F001C3E6341633E1CF0
:1075BA0000417F7F49090F06001E3F21717F5E004F
:1075CA0000417F7F09197F6600266F4D597332008B
:1075DA000003417F7F410300007F7F40407F7F009F
:1075EA00001F3F60603F1F00007F7F3018307F7FA1
:1075FA000043673C183C674300074F78784F070001
:10760A0000476371594D677300007F7F4141000055
:10761A00000103060C183060000041417F7F000022
:10762A0000080C0603060C08008080808080808099
:10763A00800000030704000000207454543C784082
:10764A0000417F3F4848783000387C44446C280029
:10765A0000307848493F7F4000387C54545C180019
:10766A0000487E7F490302000098BCA4A4F87C0469
:10767A0000417F7F08047C780000447D7D40000043
:10768A000060E08080FD7D0000417F7F10386C44FF
:10769A000000417F7F400000007C7C18381C7C7809
:1076AA00007C7C04047C780000387C44447C3800EC
:1076BA000084FCF8A4243C1800183C24A4F8FC8498
:1076CA0000447C784C041C1800485C545474240010
:1076DA000000043E7F442400003C7C40403C7C4047
:1076EA00001C3C60603C1C00003C7C7038707C3C98
:1076FA0000446C3810386C44009CBCA0A0FC7C0090
:10770A00004C64745C4C64000008083E77414100F8
:10771A000000000077770000004141773E0808002A
:10772A0000020301030203010070784C464C787092
:10773A00000E9F91B1FB4A00003A7A40407A7A40A3
:10774A0000387C54555D19000002237555557D7B20
:10775A0042217554547D794000217555547C7840F6
:10776A0000207457577C784000183CA4A4E44000D9
:10777A0000023B7D55555D1B02397D54545D19004D
:10778A0000397D55545C18000001457C7C4101009C
:10779A00000203457D7D43020001457D7C400000D7
:1077AA0000797D1612167D790070782B2B7870007F
:1077BA0000447C7C5555450000207454547C7C540C
:1077CA00547C7E0B097F7F4900327B49497B32001A
:1077DA0000327A48487A320000327A4A48783000D1
:1077EA00003A7B41417B7A40003A7A4240787840BD
:1077FA00009ABAA0A0FA7A000001193C66663C1900
:10780A00013D7D40407D3D0000183C24E7E72424EB
:10781A0000687E7F49436620002B2FFCFC2F2B003B
:10782A0000FFFF09092FF6F8A040C088FE7F090370
:10783A0002207454557D79400000447D7D4100004A
:10784A00003078484A7A320000387840427A7A40E2
:10785A00007A7A0A0A7A7000007D7D19317D7D00EE
:10786A000000262F292F2F280000262F292F260037
:10787A000030784D456020000038380808080800B4
:10788A000008080808383800004F6F3018CCEEBBE3
:10789A00914F6F30186C76FBF90000007B7B00007B
:1078AA0000081C3622081C362222361C0822361CE6
:1078BA0008AA005500AA005500AA55AA55AA55AA11
:1078CA0055DDFFAA77DDAAFF77000000FFFF000061
:1078DA0000101010FFFF000000141414FFFF000036
:1078EA00001010FFFF00FFFF001010F0F010F0F082
:1078FA0000141414FCFC0000001414F7F700FFFF36
:10790A00000000FFFF00FFFF001414F4F404FCFC65
:10791A000014141717101F1F0010101F1F101F1F0D
:10792A00001414141F1F000000101010F0F00000C3
:10793A00000000001F1F1010101010101F1F101041
:10794A0010101010F0F0101010000000FFFF1010BF
:10795A00101010101010101010101010FFFF10103F
:10796A0010000000FFFF1414140000FFFF00FFFFC7
:10797A001000001F1F101717140000FCFC04F4F479
:10798A001414141717101717141414F4F404F4F435
:10799A00140000FFFF00F7F714141414141414143D
:1079AA00141414F7F700F7F714141414171714140F
:1079BA001410101F1F101F1F10141414F4F41414A1
:1079CA00141010F0F010F0F01000001F1F101F1F0D
:1079DA00100000001F1F141414000000FCFC1414F3
:1079EA00140000F0F010F0F0101010FFFF10FFFF6D
:1079FA0010141414FFFF1414141010101F1F000089
:107A0A0000000000F0F0101010FFFFFFFFFFFFFF63
:107A1A00FFF0F0F0F0F0F0F0F0FFFFFFFF000000E1
:107A2A000000000000FFFFFFFF0F0F0F0F0F0F0FE7
:107A3A000F387C446C386C4400FCFE2A2A3E140041
:107A4A00007E7E020206060000027E7E027E7E0222
:107A5A000063775D4963630000387C447C3C04041E
:107A6A000080FE7E20203E1E000406027E7C060266
:107A7A000099BDE7E7BD9900001C3E6B496B3E1CAF
:107A8A00004C7E7301737E4C0030784A4F7D39007A
:107A9A0000183C243C3C243C1898FC643C3E273D9E
:107AAA0018000000000000000000000000000000B4
:107ABA0000000000000000000000000000000000BC
:107ACA0000000000000000000000000000000000AC
:107ADA00000000000000000000000000000000009C
:107AEA00000000000000000000000000000000008C
:107AFA00000000000000000000000000000000007C
:107B0A00000000000000000000000000000000006B
:107B1A00000000000000000000000000000000005B
:107B2A00000000000000000000000000000000004B
:107B3A00000000000000000000808080800000003B
:107B4A0000000000000000000000000000800000AB
:107B5A00800000800000000000000000000000001B
:107B6A00000000000000000000000000000000000B
:107B7A0000000000000000000000000000000000FB
:107B8A0000000000000000000000000000000000EB
:107B9A0000000000000000000000000000000000DB
:107BAA0000000000000000000000000000000000CB
:107BBA00000000000000003E4180808080413E00BD
:107BCA0000D894A46C00007884844C0088FC8081DE
:107BDA00FF8081FF800078848484780000D894A490
:107BEA006C00007884844C000078848484780008CF
:107BFA00FC488484780000789494580000000000BF
:107C0A00D894A46C00041C6480740C0400D894A456
:107C1A006C0004FF844000789494580088FC88041F
:107C2A00FC8804F88000000000000000000000004A
:107C3A00000000000000000000000000000000003A
:107C4A00000000000000000000000000000000002A
:107C5A00000000000000000000000000000000001A
:107C6A000000000000000000000000000000000406
:107C7A0007040000000000000000000000000000EF
:107C8A0000000000000404060100000000000000DB
:107C9A0000000000000000000000000000000000DA
:107CAA0000000000000000000000000000000000CA
:107CBA0000000000000000000000000000000000BA
:107CCA0000000000000000000000000000000000AA
:107CDA00000000000000000000000000000000009A
:107CEA000080F0F8181C0E0E1C1878F0C0800000F6
:107CFA0000000000000000000000000000000080FA
:107D0A00F0F8181C0C0E0E1C18F8F0800000000089
:107D1A000000000000000000000000000000000059
:107D2A000000000000000000000000000000000049
:107D3A000000000000000000000000000000000039
:107D4A000000000000000000000000000000000029
:107D5A000000000000000000000000000000000019
:107D6A00F8FF0F0000000000000000000FFFF800FD
:107D7A000000000000000000000000000000F8FF02
:107D8A000F0000000000000000000FFFF8000000D4
:107D9A0000000000000000000000000000000000D9
:107DAA0000000000000000000000000000000000C9
:107DBA0000000000000000000000000000000000B9
:107DCA000000000000000000000800080008001C75
:107DDA00FCF8800800080008000800080008E0FF16
:107DEA003F090008000800080008000800093FFFD2
:107DFA00E00800080008000800080008E0FF3F0942
:107E0A000008000800080008000800090F0F000811
:107E1A000008000800000000000000000000000048
:107E2A000000000000000000000000000000000048
:107E3A000000000000000000000000000000000038
:107E4A000000000000000000000000000000000028
:107E5A0000073FFCE000000000000080C0FC7F0734
:107E6A000000000000000000000000000000000701
:107E7A003FFCE000000000000000C0FC7F0700009B
:107E8A0000000000000000000000000000000000E8
:107E9A0000000000000000000000000000000000D8
:107EAA0000000000000000000000000000000000C8
:107EBA0000000000000000000000000000000000B8
:107ECA0000000000000000000000000000000000A8
:107EDA0000000001070F1C18181C0F070100000002
:107EEA000000000000000000000000000000000088
:107EFA000001070F1C18181C0C0F070100000000D6
:107F0A000000000000000000000000000000000067
:107F1A000000000000000000000000000000000057
:107F2A000000000000000000000000000000000047
:107F3A0000000000005C000C000C7C287C7C447C67
:107F4A00241048285408000C003844004438002003
:107F5A001008103810804000101010004000201047
:107F6A0008384438007C006454484454281C107C67
:107F7A004C542438542004740C28542808543800CB
:107F8A0050008050001028442828284428100454FF
:107F9A0008384C5C7814787C54283844447C44383B
:107FAA007C54447C14043844347C107C007C0020CB
:107FBA00403C7C106C7C40407C087C7C047C7C448B
:107FCA007C7C14083844787C1468485424047C0463
:107FDA007C407C3C403C7C207C6C106C1C601C64AB
:107FEA00544C7C4400081020447C0008040880801B
:057FFA008004080000F6
:020000040020DA
:08000000FFFFFFFFFFFFFFFF00
:020000040030CA
:0E000000000C191EFF8181FF0FC00FE00F40A2
:00000001FF
