:020000040000FA
:0400000035EF00F0E8
:060008005C822EED11F0F8
:100018005C80D8CF2FF0E8CF30F0E0CF31F0F3CFCD
:1000280032F0F4CF33F09EAC1CEF00F01EEF00F07E
:1000380029EF00F09E9CC4CFD5F00001D66BD5C047
:1000480029F0D6C02AF074EC0CF033C0F4FF32C0AB
:10005800F3FF31C0E0FF30C0E8FF2FC0D8FF5C904D
:1000680010009DEF18F00550800B0E6E055005240A
:10007800106E04AE42EF00F044EF00F045EF00F0E0
:1000880010801050D8B44BEF00F04DEF00F062EF45
:1000980000F01028D8A453EF00F055EF00F05DEF02
:1000A80000F0000E026E000E036E000E046E000ECD
:1000B800056E048E000E056E6AEF00F0000E026EEB
:1000C800000E036E000E046E000E056E0950800BC4
:1000D8000F6E0E500F18D8B474EF00F076EF00F0E2
:1000E80077EF00F00E8C095009240F6E08AE7FEFF1
:1000F80000F081EF00F082EF00F00F800F50D8B4CD
:1001080088EF00F08AEF00F09FEF00F00F28D8A4E6
:1001180090EF00F092EF00F09AEF00F0000E066EFC
:10012800000E076E000E086E000E096E088E000E97
:10013800096EA7EF00F0000E066E000E076E000EA7
:10014800086E000E096E10500F5CD8B0AEEF00F0CC
:10015800B0EF00F0D7EF00F00EACB5EF00F0B7EF5E
:1001680000F0B9EF00F0800E0E1A10C011F00FC0A9
:1001780010F011C00FF002C011F006C002F011C05B
:1001880006F003C011F007C003F011C007F004C067
:1001980011F008C004F011C008F005C011F009C042
:1001A80005F011C009F0000E116E10500FC00AF0D2
:1001B8000B6A0A5E000E0B5A0BBEECEF00F00B50F8
:1001C80009E11A0E0A5CD8A0ECEF00F0EEEF00F09F
:1001D80025EF01F00250031004100510D8A4F7EF22
:1001E80000F0FAEF00F0010EFBEF00F0000E116EC8
:1001F800000E026E000E036E000E046E000E056EF9
:100208000FC010F02EEF01F011A00DEF01F00FEF6D
:1002180001F015EF01F0D89011300109116E17EFB8
:1002280001F0D890113202A01CEF01F01EEF01F08E
:100238001FEF01F0118E0534053204320332023209
:10024800102A0F50105CD8A02CEF01F02EEF01F00F
:1002580008EF01F00EBC33EF01F035EF01F075EF58
:1002680001F01050D8A43BEF01F03DEF01F047EF4B
:1002780001F0000E026E000E036E000E046E000EFA
:10028800056E96EF02F0065002260750032208502A
:1002980004220950052205A054EF01F056EF01F0A1
:1002A80002EF02F011A05BEF01F05DEF01F063EFE8
:1002B80001F0D89011300109116E65EF01F0D89066
:1002C800113202A06AEF01F06CEF01F06DEF01F05E
:1002D800118E05340532043203320232102A02EF3D
:1002E80002F00650025C07500358085004580550A5
:1002F800800A0A6E0950800A0A58D8B086EF01F0C1
:1003080088EF01F0B3EF01F00250065C0A6E03506B
:1003180007580B6E045008580C6E055009580D6E9E
:10032800FF0E0A24026EFF0E0B20036EFF0E0C2038
:10033800046EFF0E0D20056E800E0E1A116C115002
:10034800D8A4A9EF01F0ABEF01F0BBEF01F0010E6B
:100358000226000E032204220522BBEF01F00650FC
:10036800025E0750035A0850045A0950055A0250B1
:10037800031004100510D8A4C4EF01F0C6EF01F073
:10038800FBEF01F01150D8A4CCEF01F0CEEF01F053
:10039800FBEF01F0000E026E000E036E000E046EFD
:1003A800000E056E96EF02F0D8900236033604363A
:1003B800053611AEE2EF01F0E4EF01F0E5EF01F0F0
:1003C800028011A0EAEF01F0ECEF01F0F0EF01F08C
:1003D800D8801136F2EF01F0D89011361050D8B409
:1003E800F8EF01F0FAEF01F0FBEF01F0100604AEB0
:1003F80000EF02F002EF02F0D8EF01F0000E0F6EEE
:1004080011AE09EF02F00BEF02F023EF02F011C07A
:100418000AF07F0E0A16D8B414EF02F016EF02F0B5
:100428001AEF02F0010E0F6E23EF02F002A01FEF89
:1004380002F021EF02F023EF02F016EF02F00F5066
:10044800D8B429EF02F02BEF02F056EF02F0010EBC
:100458000226000E03220422052205A036EF02F030
:1004680038EF02F056EF02F002C00AF003C00BF0BA
:1004780004C00CF005C00DF00D340D320C320B32F7
:100488000A320AC002F00BC003F00CC004F00DC021
:1004980005F01028D8B453EF02F055EF02F056EFEC
:1004A80002F0102A1028D8B45CEF02F05EEF02F0D8
:1004B80066EF02F01050D8A464EF02F066EF02F085
:1004C80078EF02F0000E026E000E036E000E046E4E
:1004D800000E056E1050D8A474EF02F076EF02F00B
:1004E80078EF02F0000E0E6E10A07DEF02F07FEFA5
:1004F80002F082EF02F0048E83EF02F0049ED8909F
:100508001030056E0EAE8BEF02F08DEF02F08EEF1D
:1005180002F0058E02C002F003C003F004C004F02C
:1005280005C005F0120000017C51800B856F7C51DD
:100538007C258B6F7BAFA3EF02F0A5EF02F0A6EF4F
:1005480002F08B818B51D8B4ACEF02F0AEEF02F021
:10055800C1EF02F08B29D8A4B4EF02F0B6EF02F095
:10056800BEEF02F0000E796F000E7A6F000E7B6FFF
:10057800000E7C6F7B8FC9EF02F0000E796F000EC2
:100588007A6F000E7B6F000E7C6F8051800B851B8D
:10059800805180258A6F7FAFD4EF02F0D6EF02F04A
:1005A800D7EF02F08A818A51D8B4DDEF02F0DFEF8D
:1005B80002F0F2EF02F08A29D8A4E5EF02F0E7EFA3
:1005C80002F0EFEF02F0000E7D6F000E7E6F000E5E
:1005D8007F6F000E806F7F8FFAEF02F0000E7D6F45
:1005E800000E7E6F000E7F6F000E806F8A51D8B4A8
:1005F80000EF03F002EF03F00AEF03F08B51D8A4E9
:1006080008EF03F00AEF03F014EF03F0000E796F20
:10061800000E7A6F000E7B6F000E7C6FACEF04F05B
:100628007F517903F3CF90F0F4CF91F09051866F1A
:10063800876B886B896B91518C6F8D6B8E6B8F6B11
:100648007E517A03F3CF90F0F4CF91F09051862742
:10065800000E87238823892391518C27000E8D2330
:100668008E238F237D517B03F3CF90F0F4CF91F04D
:1006780090518627000E87238823892391518C2740
:10068800000E8D238E238F2388C089F087C088F0C1
:1006980086C087F0866B7D517A03F3CF90F0F4CF54
:1006A80091F09051862791518723000E8823000EE0
:1006B80089237E517903F3CF90F0F4CF91F09051D4
:1006C800862791518723000E8823000E892388C02E
:1006D80089F087C088F086C087F0866B7D517903E2
:1006E800F3CF90F0F4CF91F0905186279151872362
:1006F800000E8823000E89237F517A03F3CF90F0F0
:10070800F4CF91F090518C2791518D23000E8E23B8
:10071800000E8F237E517B03F3CF90F0F4CF91F03E
:1007280090518C2791518D23000E8E23000E8F231C
:100738007F517B03F3CF90F0F4CF91F09051816F0C
:100748009151826F836B846B83C084F082C083F085
:1007580081C082F0816B81518C2782518D23835116
:100768008E2384518F2386C081F087C082F088C091
:1007780083F089C084F0190EC7EF03F0D890843352
:10078800833382338133E82EC2EF03F081518C2703
:1007980082518D2383518E2384518F2388C089F001
:1007A80087C088F086C087F0866B8A518BC081F03D
:1007B800826B8127000E8223820E8125906FFF0EA7
:1007C8008221916FFDEF03F0D8908C378D378E37EB
:1007D8008F3789AFF2EF03F0F4EF03F0F5EF03F092
:1007E8008C81D89086378737883789379007D8A083
:1007F80091078EAF02EF04F004EF04F0E8EF03F086
:10080800000E8A6F89AF0BEF04F00DEF04F031EFA3
:1008180004F0FF0E8615816FFF0E8715826FFF0E9D
:100828008815836F7F0E8915846F8151821183111A
:100838008411D8B422EF04F024EF04F028EF04F078
:10084800010E8A6F31EF04F08CA12DEF04F02FEF29
:1008580004F031EF04F024EF04F08A51D8B437EFF4
:1008680004F039EF04F05DEF04F0010E8C27000E60
:100878008D238E238F238FA144EF04F046EF04F0DD
:100888005DEF04F08CC081F08DC082F08EC083F0E3
:100898008FC084F08435843383338233813381C0BD
:1008A8008CF082C08DF083C08EF084C08FF0904BA6
:1008B800912B91BF68EF04F0915108E19029D8A0DD
:1008C80068EF04F06AEF04F074EF04F0000E8C6F28
:1008D800000E8D6F800E8E6F7F0E8F6FA2EF04F06B
:1008E80091BF81EF04F0915106E19005D8B07FEFF8
:1008F80004F081EF04F08DEF04F0000E8C6F000E11
:100908008D6F000E8E6F000E8F6F000E856FA2EF39
:1009180004F090C08BF0FF0E8C17FF0E8D177F0E22
:100928008E17000E8F178BA19CEF04F09EEF04F03A
:100938009FEF04F08E8FD8908B318F6F85518F1376
:100948008CC079F08DC07AF08EC07BF08FC07CF0BF
:1009580012001350800B1C6E13501324226E12AE1B
:10096800B8EF04F0BAEF04F0BBEF04F02280225095
:10097800D8B4C1EF04F0C3EF04F0D6EF04F0222896
:10098800D8A4C9EF04F0CBEF04F0D3EF04F0000EC5
:10099800106E000E116E000E126E000E136E128E87
:1009A800DEEF04F0000E106E000E116E000E126ED7
:1009B800000E136E1750800B1C1A17501724216E47
:1009C80016AEE9EF04F0EBEF04F0ECEF04F0218051
:1009D8002150D8B4F2EF04F0F4EF04F007EF05F07B
:1009E8002128D8A4FAEF04F0FCEF04F004EF05F096
:1009F800000E146E000E156E000E166E000E176EA9
:100A0800168E0FEF05F0000E146E000E156E000E18
:100A1800166E000E176E2150D8B415EF05F017EFBB
:100A280005F01FEF05F02250D8A41DEF05F01FEFC9
:100A380005F029EF05F0000E106E000E116E000E85
:100A4800126E000E136EC1EF06F016501002F3CFAF
:100A580027F0F4CF28F027501D6E1E6A1F6A206AFF
:100A68002850236E246A256A266A15501102F3CF8E
:100A780027F0F4CF28F027501D26000E1E221F2233
:100A8800202228502326000E242225222622145014
:100A98001202F3CF27F0F4CF28F027501D26000EBE
:100AA8001E221F22202228502326000E242225221F
:100AB80026221FC020F01EC01FF01DC01EF01D6A98
:100AC80014501102F3CF27F0F4CF28F027501D2639
:100AD80028501E22000E1F22000E20221550100240
:100AE800F3CF27F0F4CF28F027501D2628501E22D8
:100AF800000E1F22000E20221FC020F01EC01FF073
:100B08001DC01EF01D6A14501002F3CF27F0F4CF59
:100B180028F027501D2628501E22000E1F22000EE6
:100B2800202216501102F3CF27F0F4CF28F02750D7
:100B3800232628502422000E2522000E2622155096
:100B48001202F3CF27F0F4CF28F02750232628509D
:100B58002422000E2522000E262216501202F3CF60
:100B680027F0F4CF28F02750186E2850196E1A6A0B
:100B78001B6A1AC01BF019C01AF018C019F0186ABD
:100B880018502326195024221A5025221B50262299
:100B98001DC018F01EC019F01FC01AF020C01BF0AD
:100BA800190EDCEF05F0D8901B321A3219321832C0
:100BB800E82ED7EF05F018502326195024221A5092
:100BC80025221B5026221FC020F01EC01FF01DC06A
:100BD8001EF01D6A215022C018F0196A1826000E4E
:100BE8001922820E1824276EFF0E1920286E12EF84
:100BF80006F0D890233624362536263620AE07EF61
:100C080006F009EF06F00AEF06F02380D8901D36AB
:100C18001E361F3620362706D8A0280625AE17EF21
:100C280006F019EF06F0FDEF05F0000E216E20AE7C
:100C380020EF06F022EF06F046EF06F0FF0E1D1437
:100C4800186EFF0E1E14196EFF0E1F141A6E7F0EFB
:100C580020141B6E185019101A101B10D8B437EF37
:100C680006F039EF06F03DEF06F0010E216E46EF73
:100C780006F023A042EF06F044EF06F046EF06F038
:100C880039EF06F02150D8B44CEF06F04EEF06F0DD
:100C980072EF06F0010E2326000E242225222622BA
:100CA80026A059EF06F05BEF06F072EF06F023C0BE
:100CB80018F024C019F025C01AF026C01BF01B3408
:100CC8001B321A321932183218C023F019C024F016
:100CD8001AC025F01BC026F0274A282A28BE7DEF17
:100CE80006F0285008E12728D8A07DEF06F07FEF0E
:100CF80006F089EF06F0000E236E000E246E800EBB
:100D0800256E7F0E266EB7EF06F028BE96EF06F02A
:100D1800285006E12704D8B094EF06F096EF06F0C5
:100D2800A2EF06F0000E236E000E246E000E256E54
:100D3800000E266E000E1C6EB7EF06F027C022F0DC
:100D4800FF0E2316FF0E24167F0E2516000E2616FC
:100D580022A0B1EF06F0B3EF06F0B4EF06F0258E4F
:100D6800D8902230266E1C50261223C010F024C0C2
:100D780011F025C012F026C013F01200000E000179
:100D8800E66F000EE56F000EDE6F010EDD6FF2C03C
:100D9800A4F0F3C0A5F0F0C0A6F0F1C0A7F0EEC033
:100DA800A8F0EFC0A9F0ECC0AAF0EDC0ABF0000EBF
:100DB800BA6F000EB96FB9C06AF00F0EE0EC18F008
:100DC800AA0E0001736F000E746F010E756F010E8D
:100DD800766F4CEC19F00001B94BBA2BBABFFEEF95
:100DE80006F0BA5109E1080EB95DD8A0FEEF06F089
:100DF80000EF07F0DFEF06F0000E726F000E716F64
:100E0800000E746F110E736F000E766F110E756FF2
:100E1800000E786F110E776F000E7A6F010E796FE2
:100E280065EC17F00001DF51E011D8A41EEF07F0C0
:100E380020EF07F032EF07F0010E6A6F020EE0ECC8
:100E480018F0A40E0001736F000E746F010E756F19
:100E5800010E766F4CEC19F05DEF07F0DF05E0113D
:100E6800D8A439EF07F03BEF07F04DEF07F0010E7C
:100E78006A6F020EE0EC18F0A60E0001736F000E08
:100E8800746F010E756F010E766F4CEC19F05DEF03
:100E980007F0010E6A6F020EE0EC18F0A80E0001D0
:100EA800736F000E746F010E756F010E766F4CEC48
:100EB80019F04350300F0001AC6F4550300FAD6F43
:100EC8004750300FAE6F4950300FAF6F000EB06F04
:100ED800000EB16F000EB26FACC0B0F02E0EB16F45
:100EE800000EB26F000EB46F000EB36FADC0B3F05A
:100EF800000EB46F000EB66F000EB56FAEC0B5F041
:100F0800000EB66F000EB86F000EB76FAFC0B7F027
:100F1800000EB86F030E6A6F020EE0EC18F0B00E08
:100F28000001736F000E746F010E756F010E766FFE
:100F38004CEC19F0040E00016A6F020EE0EC18F098
:100F4800B30E0001736F000E746F010E756F010E02
:100F5800766F4CEC19F0050E00016A6F020EE0EC9A
:100F680018F0B50E0001736F000E746F010E756FE7
:100F7800010E766F4CEC19F0060E00016A6F020E36
:100F8800E0EC18F0B70E0001736F000E746F010EDD
:100F9800756F010E766F4CEC19F00001DABFE0EFC7
:100FA80007F0DA5107E1630ED95DD8B0DEEF07F03C
:100FB800E0EF07F083EF08F01B0ED925716F000EE4
:100FC800DA21726F000E746F000E736F1B0ED92535
:100FD800756F000EDA21766F000E786F400E776F0E
:100FE800000E7A6F000E796F65EC17F00001A2050C
:100FF8006A6F010E6B6FD9511B0FC9EC15F0A2C0B7
:101008006AF0010E00016B6FD9511B0FC9EC15F086
:101018000001A2296A6F010E6B6FD9511B0FC9EC31
:1010280015F01B0E0001D325806F000ED421816FAF
:10103800D1C082F0D2C083F01B0ED925846F000E78
:10104800DA21856FA2C086F0A3C087F0000E896FF1
:10105800010E886FCBEC08F01B0E0001D325806FC2
:10106800000ED421816FCFC082F0D0C083F01B0E58
:10107800D925846F000EDA21856FFF0EA225866FB1
:10108800FF0EA321876F000E896F010E886FCBECCE
:1010980008F01B0E0001D325806F000ED421816F4C
:1010A800CDC082F0CEC083F01B0ED925846F000E10
:1010B800DA21856F010EA225866F000EA321876FA6
:1010C800000E896F010E886FCBEC08F0D9C0D3F001
:1010D800DAC0D4F0A2C0D1F0A3C0D2F0FF0E000154
:1010E800A225CF6FFF0EA321D06F010EA225CD6FD1
:1010F800000EA321CE6FD94BDA2BCAEF08F0DABF66
:101108008FEF08F0DA5109E1630ED95DD8A08FEFAF
:1011180008F091EF08F0CAEF08F0000EDA6F000E41
:10112800D96F000E726F1B0E716F000E746F000E78
:10113800736F000E766F1B0E756F000E786F400E82
:10114800776F000E7A6F000E796F65EC17F000016B
:10115800A2056A6F010E6B6F1B0EC9EC15F0A2C0D9
:101168006AF0010E00016B6F1B0EC9EC15F000014F
:10117800A2296A6F010E6B6F1B0EC9EC15F0000EE9
:101188000001D46F000ED36F6EEF08F0120000015B
:101198008051845D966F81518559976F8251865D24
:1011A800986F83518759996F96C060F097C061F026
:1011B800000E61BFFF0E626F636F010EB8EC0EF098
:1011C80060C06EF061C06FF062C070F063C071F013
:1011D80022EC1AF06EC076F06FC077F070C078F02D
:1011E80071C079F0C2EC14F076C09AF077C09BF029
:1011F80098C060F099C061F00001000E61BFFF0E59
:10120800626F636F010EB8EC0EF060C06EF061C0E3
:101218006FF062C070F063C071F022EC1AF06EC01B
:1012280076F06FC077F070C078F071C079F0C2ECDA
:1012380014F076C09CF077C09DF09CC08AF09DC0E9
:101248008BF0D89000018A378B379A518A5D926F5C
:101258009B518B59936F9AC08AF09BC08BF0D890A2
:101268008A378B379C518A5D946F9D518B59956F46
:101278009C519A5D9B51800A8A6F9D51800A8A59B8
:10128800D8A049EF09F04BEF09F0F6EF09F097BF46
:1012980050EF09F052EF09F060EF09F080C09EF0BE
:1012A80081C09FF082C0A0F083C0A1F084C08EF0FE
:1012B80085C08FF06CEF09F084C09EF085C09FF068
:1012C80086C0A0F087C0A1F080C08EF081C08FF0EA
:1012D800A0C06AF088C06BF09E51C9EC15F0000EF2
:1012E80000018D6F000E8C6FE5EF09F0010E9E2551
:1012F8009E6F000E9F219F6F93BF87EF09F085EFC8
:1013080009F096EF09F09CC08AF09DC08BF0D89048
:101318008A378B3792518A25926F93518B21936F1D
:10132800DBEF09F097BF9DEF09F09BEF09F0A4EF01
:1013380009F099BFA2EF09F0A4EF09F0BEEF09F098
:1013480097BFAFEF09F0975108E19605D8A0AFEF26
:1013580009F0B1EF09F0C6EF09F099BFBCEF09F049
:10136800995108E19805D8A0BCEF09F0BEEF09F043
:10137800C6EF09F0010EA025A06F000EA121A16FF4
:10138800CCEF09F0FF0EA025A06FFF0EA121A16FE1
:101398009A519C5D8A6F9B519D598B6FD8908A3763
:1013A8008B3792518A25926F93518B21936FA0C0EE
:1013B8006AF088C06BF09E51C9EC15F000018C4BA7
:1013C8008D2B8E519E5D9F51800A8A6F8F51800AA6
:1013D8008A59D8A0F2EF09F0F4EF09F07AEF09F092
:1013E800A5EF0AF099BFFBEF09F0FDEF09F00BEF4D
:1013F8000AF080C09EF081C09FF082C0A0F083C038
:10140800A1F086C090F087C091F017EF0AF084C071
:101418009EF085C09FF086C0A0F087C0A1F082C072
:1014280090F083C091F0A0C06AF088C06BF09E5124
:10143800C9EC15F0000E00018D6F000E8C6F96EF51
:101448000AF0010EA025A06F000EA121A16F95BF83
:1014580038EF0AF0955106E19405D8B036EF0AF056
:1014680038EF0AF047EF0AF09AC08AF09BC08BF079
:10147800D8908A378B3794518A25946F95518B2150
:10148800956F8CEF0AF097BF4EEF0AF04CEF0AF019
:1014980055EF0AF099BF53EF0AF055EF0AF06FEFD6
:1014A8000AF097BF60EF0AF0975108E19605D8A0B7
:1014B80060EF0AF062EF0AF077EF0AF099BF6DEF7C
:1014C8000AF0995108E19805D8A06DEF0AF06FEF7E
:1014D8000AF077EF0AF0010E9E259E6F000E9F21FD
:1014E8009F6F7DEF0AF0FF0E9E259E6FFF0E9F21D6
:1014F8009F6F9C519A5D8A6F9D519B598B6FD890B5
:101508008A378B3794518A25946F95518B21956F23
:10151800A0C06AF088C06BF09E51C9EC15F00001BC
:101528008C4B8D2B9051A05DA151800A8A6F9151EF
:10153800800A8A59D8A0A3EF0AF0A5EF0AF025EF90
:101548000AF0120000016351800B706F635163252C
:10155800776F62AFB2EF0AF0B4EF0AF0B5EF0AF0B6
:1015680077817751D8B4BBEF0AF0BDEF0AF0D2EF1C
:101578000AF07729D8A4C3EF0AF0C5EF0AF0CDEF37
:101588000AF0000E606F000E616F000E626F000EB1
:10159800636F628F000E636FDAEF0AF0000E606F00
:1015A800000E616F000E626F000E636F6751800B53
:1015B800701B67516725786F66AFE5EF0AF0E7EFB4
:1015C8000AF0E8EF0AF078817851D8B4EEEF0AF023
:1015D800F0EF0AF005EF0BF07829D8A4F6EF0AF03F
:1015E800F8EF0AF000EF0BF0000E646F000E656F65
:1015F800000E666F000E676F668F000E676F0DEF47
:101608000BF0000E646F000E656F000E666F000E23
:10161800676F6451651166116711D8A416EF0BF056
:1016280018EF0BF030EF0BF0000E606F000E616FDB
:10163800000E626F000E636F800E62137F0E6313DD
:101648007051631360C060F061C061F062C062F005
:1016580063C063F073EF0CF07751D8A436EF0BF04A
:1016680038EF0BF042EF0BF0000E606F000E616F69
:10167800000E626F000E636F73EF0CF0785177C045
:1016880068F0696B685F000E695B7F0E6825716F93
:10169800000E6921726F60C06CF061C06DF062C0AD
:1016A8006EF063C06FF0000E606F000E616F000E89
:1016B800626F000E636F000E736F000E746F000E82
:1016C800756F000E766F000E786FA3EF0BF07851F0
:1016D800D8B471EF0BF073EF0BF08AEF0BF0D890E2
:1016E8006C376D376E376F37D89060376137623730
:1016F800633776AF82EF0BF084EF0BF085EF0BF0DA
:101708006081D890733774377537763764516C5D5C
:1017180065516D5966516E5967516F59D8A097EF49
:101728000BF099EF0BF0A2EF0BF0768D64516C5F24
:1017380065516D5B66516E5B67516F5B782B190E57
:101748007865A9EF0BF0ABEF0BF06BEF0BF06C517A
:101758006D116E116F11D8B4B4EF0BF0B6EF0BF03A
:10176800CEEF0BF07381CEEF0BF0D8906037613776
:101778006237633776AFC3EF0BF0C5EF0BF0C6EFF8
:101788000BF06081D89073377437753776377107E7
:10179800D8A0720762AFD3EF0BF0D5EF0BF0B9EF1B
:1017A8000BF0000E786F76AFDCEF0BF0DEEF0BF08E
:1017B80002EF0CF0FF0E7315686FFF0E7415696F5A
:1017C800FF0E75156A6F7F0E76156B6F685169117C
:1017D8006A116B11D8B4F3EF0BF0F5EF0BF0F9EFDA
:1017E8000BF0010E786F02EF0CF060A1FEEF0BF02A
:1017F80000EF0CF002EF0CF0F5EF0BF07851D8B4D5
:1018080008EF0CF00AEF0CF02EEF0CF0010E602739
:10181800000E61236223632363A115EF0CF017EF19
:101828000CF02EEF0CF060C068F061C069F062C087
:101838006AF063C06BF06B356B336A3369336833B6
:1018480068C060F069C061F06AC062F06BC063F0A4
:10185800714B722B72BF39EF0CF0725108E171298C
:10186800D8A039EF0CF03BEF0CF046EF0CF0000E6F
:10187800726F7169000E606F000E616F000E626F0B
:10188800000E636F72BF53EF0CF0725106E17105E1
:10189800D8B051EF0CF053EF0CF061EF0CF0000EE4
:1018A800726F000E716F000E606F000E616F000E98
:1018B800626F000E636F000E706F71C077F077A1D2
:1018C80068EF0CF06AEF0CF06DEF0CF0628F6EEFC2
:1018D8000CF0629FD8907731636F24EF0BF0120001
:1018E80029C002F02AC003F0000E03BEFF0E046EEA
:1018F800056E010E94EC0FF002C010F003C011F059
:1019080004C012F005C013F0A10E146EDE0E156EA1
:10191800A70E166E3C0E176EADEC04F010C02BF03F
:1019280011C02CF012C02DF013C02EF02BC002F005
:101938002CC003F02DC004F02EC005F046EC15F0C5
:1019480002C043F003C044F02BC012F02CC013F0C7
:101958002DC014F02EC015F043C002F044C003F0AF
:10196800000E03BEFF0E046E056E010E94EC0FF020
:1019780002C016F003C017F004C018F005C019F033
:10198800C4EC19F012C02BF013C02CF014C02DF0C9
:1019980015C02EF02BC010F02CC011F02DC012F085
:1019A8002EC013F0000E146E000E156E200E166E6B
:1019B800410E176EADEC04F010C02BF011C02CF0E6
:1019C80012C02DF013C02EF02BC002F02CC003F073
:1019D8002DC004F02EC005F046EC15F002C045F00D
:1019E80003C046F02BC012F02CC013F02DC014F029
:1019F8002EC015F045C002F046C003F0000E03BE2D
:101A0800FF0E046E056E010E94EC0FF002C016F086
:101A180003C017F004C018F005C019F0C4EC19F0A1
:101A280012C02BF013C02CF014C02DF015C02EF0EE
:101A38002BC010F02CC011F02DC012F02EC013F0E6
:101A4800000E146E000E156E200E166E410E176EE7
:101A5800ADEC04F010C02BF011C02CF012C02DF02A
:101A680013C02EF02BC002F02CC003F02DC004F0E0
:101A78002EC005F046EC15F002C047F003C048F050
:101A88002BC012F02CC013F02DC014F02EC015F08E
:101A980047C002F048C003F0000E03BEFF0E046EFC
:101AA800056E010E94EC0FF002C016F003C017F09B
:101AB80004C018F005C019F0C4EC19F012C02BF0DE
:101AC80013C02CF014C02DF015C02EF02BC010F050
:101AD8002CC011F02DC012F02EC013F0000E146EA1
:101AE800000E156E200E166E410E176EADEC04F04A
:101AF80010C02BF011C02CF012C02DF013C02EF026
:101B08002BC002F02CC003F02DC004F02EC005F04D
:101B180046EC15F002C049F003C04AF049C002F093
:101B28004AC003F0E2EC11F002C041F003C042F0F9
:101B380047C002F048C003F0E2EC11F002C03FF0E9
:101B480003C040F045C002F046C003F0E2EC11F0DB
:101B580002C03DF003C03EF043C002F044C003F0B1
:101B6800E2EC11F0800E02243B6E000E03203C6E66
:101B780012000001E105E211D8A4C5EF0DF0C7EF8E
:101B88000DF049EF0EF021EE10F010EE80F00F0E80
:101B9800DBCFE3FFE806FCE221EE20F010EEA0F038
:101BA8000E0EDBCFE3FFE806FCE221EE00F010EEBC
:101BB80090F00F0EDBCFE3FFE806FCE2F6C0AFF0D3
:101BC800F7C0B0F0F4C0B1F0F5C0B2F0000E6A6F23
:101BD800020EE0EC18F0800E0001736F000E746FB7
:101BE800010E756F010E766F4CEC19F0020E0001B4
:101BF8006A6F020EE0EC18F0A00E0001736F000E81
:101C0800746F010E756F010E766F4CEC19F0030EB0
:101C180000016A6F020EE0EC18F0900E0001736F7D
:101C2800000E746F010E756F010E766F4CEC19F093
:101C3800030E00016A6F020EE0EC18F0050E0001B9
:101C48006A6F2A0EE0EC18F0AF0E0001736F000EF9
:101C5800746F010E756F010E766F4CEC19F0050E5E
:101C680000016A6F520EE0EC18F0B10E0001736FBC
:101C7800000E746F010E756F010E766F4CEC19F043
:101C8800000E0001E26F000EE16FE351E411D8A4E9
:101C980050EF0EF052EF0EF081EF0EF0000E726F63
:101CA800520E716F000E746F340E736F000E766FE4
:101CB8005A0E756F000E786F340E776F000E7A6FBC
:101CC800000E796F65EC17F0000E0001726F2A0E96
:101CD800716F000E746F340E736F000E766F320ED4
:101CE800756F000E786F340E776F000E7A6F010EE5
:101CF800796F65EC17F0B7EF0EF0E305E411D8A49F
:101D080088EF0EF08AEF0EF0B7EF0EF0000E726F4C
:101D1800520E716F000E746F340E736F000E766F73
:101D28005A0E756F000E786F340E776F000E7A6F4B
:101D3800010E796F65EC17F0000E0001726F2A0E24
:101D4800716F000E746F340E736F000E766F320E63
:101D5800756F000E786F340E776F000E7A6F000E75
:101D6800796F65EC17F012000001686F0001685187
:101D7800D8B4C1EF0EF0C3EF0EF0E5EF0EF063BF7D
:101D8800CAEF0EF0C8EF0EF0E5EF0EF060C064F099
:101D980061C065F062C066F063C067F0641F651FCC
:101DA800661F671F642B000E65236623672364C0C4
:101DB8006AF065C06BF066C06CF067C06DF0EDEF5F
:101DC8000EF060C06AF061C06BF062C06CF063C076
:101DD8006DF06051611162116311D8A4F6EF0EF035
:101DE800F8EF0EF002EF0FF0000E606F000E616F5B
:101DF800000E626F000E636F93EF0FF0960E696F1F
:101E08000CEF0FF0692BD8906D336C336B336A335A
:101E1800000E6A15646F000E6B15656F000E6C1569
:101E2800666FFE0E6D15676F645165116611671157
:101E3800D8A421EF0FF023EF0FF006EF0FF031EFEA
:101E48000FF0692B010E6A27000E6B236C236D239C
:101E5800D8906D336C336B336A33000E6A15646F38
:101E6800000E6B15656F000E6C15666FFF0E6D1515
:101E7800676F6451651166116711D8A446EF0FF0BA
:101E880048EF0FF025EF0FF050EF0FF06907D890EB
:101E98006A376B376C376D376CBF55EF0FF057EFFC
:101EA8000FF05FEF0FF0020E69615DEF0FF05FEF6B
:101EB8000FF04AEF0FF069B164EF0FF066EF0FF023
:101EC80067EF0FF06C9FD890693369C064F0656B59
:101ED800666B676B64C067F0666B656B646B6451B7
:101EE8006A1365516B1366516C1367516D13685112
:101EF800D8B481EF0FF083EF0FF08BEF0FF063BFD3
:101F08008AEF0FF088EF0FF08BEF0FF06D8F6AC03C
:101F180060F06BC061F06CC062F06DC063F01200DD
:101F28000A6E0A50D8B49BEF0FF09DEF0FF0BFEF89
:101F38000FF005BEA4EF0FF0A2EF0FF0BFEF0FF008
:101F480002C006F003C007F004C008F005C009F09D
:101F5800061E071E081E091E062A000E0722082252
:101F6800092206C00CF007C00DF008C00EF009C029
:101F78000FF0C7EF0FF002C00CF003C00DF004C063
:101F88000EF005C00FF00250031004100510D8A47D
:101F9800D0EF0FF0D2EF0FF0DCEF0FF0000E026E73
:101FA800000E036E000E046E000E056E6DEF10F04D
:101FB800960E0B6EE6EF0FF00B2AD8900F320E320A
:101FC8000D320C32000E0C14066E000E0D14076E46
:101FD800000E0E14086EFE0E0F14096E0650071040
:101FE80008100910D8A4FBEF0FF0FDEF0FF0E0EF99
:101FF8000FF00BEF10F00B2A010E0C26000E0D222D
:102008000E220F22D8900F320E320D320C32000EF3
:102018000C14066E000E0D14076E000E0E14086EDA
:10202800FF0E0F14096E0650071008100910D8A4E7
:1020380020EF10F022EF10F0FFEF0FF02AEF10F072
:102048000B06D8900C360D360E360F360EBE2FEF17
:1020580010F031EF10F039EF10F0020E0B6037EF8F
:1020680010F039EF10F024EF10F00BB03EEF10F045
:1020780040EF10F041EF10F00E9ED8900B320BC0DD
:1020880006F0076A086A096A06C009F0086A076A5A
:10209800066A06500C1207500D1208500E1209500D
:1020A8000F120A50D8B45BEF10F05DEF10F065EF37
:1020B80010F005BE64EF10F062EF10F065EF10F05D
:1020C8000F8E0CC002F00DC003F00EC004F00FC05C
:1020D80005F01200100E0001FA6F270EFB6F000EBC
:1020E800FC6F000EFD6F000EFF6F4B0EFE6F3DEC98
:1020F8001AF0010E3CEC16F056EC18F0150E000123
:10210800BC6F4B0EBB6FBE0EE82EFED7BB2FFCD7A5
:10211800BC2FFAD700F09FEC16F084EC12F0100EEA
:1021280000016E6F270E6F6F000E706F000E716FDB
:102138007BEC19F04B0E0001606F000E616F000E12
:10214800626F000E636F010EB8EC0EF060C0BDF058
:1021580061C0BEF062C0BFF063C0C0F0BDC092F005
:10216800BEC093F0BFC094F0C0C095F0BDEC17F0AE
:10217800000E0001DC6F010EDB6F000EE06F000E39
:10218800DF6F000EE26F010EE16F808A000EDE6FD6
:10219800000EDD6F000EE66F010EE56F000EE46FB6
:1021A800000EE36FC2820001D705D811D8A4DFEF73
:1021B80010F0E1EF10F0E8EF10F0000ED86F000E0D
:1021C800D76F000E0EEC18F00001E505E611D8A453
:1021D800F0EF10F0F2EF10F0FAEF10F0000EDE6FF3
:1021E800000EDD6FBDEC0DF028EF11F0DD05DE11FE
:1021F800D8A401EF11F003EF11F028EF11F0000E51
:10220800E66F000EE56FC20EBB6FFF0EBC6FD5C048
:1022180060F0D6C061F0000E636F040E626F02ECCE
:1022280017F00001BB516027BC516123601F611F7B
:10223800604B612B60C0C1F061C0C2F0C1C0A2F0A8
:10224800C2C0A3F0C2EC06F017EC19F0D6EF10F0FC
:1022580035EF00F00600F2A034EF11F036EF11F080
:10226800E0EF11F0410E016EEE0EE82EFED7012EC2
:10227800FCD700D0F29081AC44EF11F046EF11F09A
:102288008CEF11F039503A10D8A44DEF11F04FEF00
:1022980011F086EF11F00001E505E611D8A457EF1B
:1022A80011F059EF11F06CEF11F0E351E411D8A4DB
:1022B80060EF11F062EF11F06CEF11F0394A3A2A31
:1022C800000EE46F010EE36FE0EF11F0E0EF11F0A4
:1022D800E505E611D8A473EF11F075EF11F06AEF78
:1022E80011F0E305E411D8A47CEF11F07EEF11F0B2
:1022F8006AEF11F0394A3A2A000EE46F000EE36FD4
:10230800E0EF11F0000E3A6E000E396EE0EF11F0BA
:1023180081AE91EF11F093EF11F0E0EF11F037502B
:102328003810D8A49AEF11F09CEF11F0DCEF11F0FF
:102338000001E505E611D8A4A4EF11F0A6EF11F00D
:10234800C3EF11F0E351E411D8A4ADEF11F0AFEFF2
:1023580011F06AEF11F0374A382A000EE66F000EC6
:10236800E56F000EDE6F010EDD6F000EDC6F010EF3
:10237800DB6F000ED86F010ED76FE0EF11F0DD05AF
:10238800DE11D8A4CAEF11F0CCEF11F06AEF11F00A
:10239800374A382A000EE66F010EE56F000EDE6F31
:1023A800000EDD6F000EE26F010EE16FBDEF11F060
:1023B800000E386E000E376E5C921100025003104A
:1023C800D8A4E9EF11F0EBEF11F0F1EF11F0000EE6
:1023D800036E3F0E026E83EF12F002040310D8A4BE
:1023E800F8EF11F0FAEF11F000EF12F0000E036EA3
:1023F800060E026E83EF12F0020E02180310D8A424
:1024080008EF12F00AEF12F010EF12F0000E036E50
:102418005B0E026E83EF12F0030E02180310D8A4AD
:1024280018EF12F01AEF12F020EF12F0000E036E00
:102438004F0E026E83EF12F0040E02180310D8A498
:1024480028EF12F02AEF12F030EF12F0000E036EB0
:10245800660E026E83EF12F0050E02180310D8A460
:1024680038EF12F03AEF12F040EF12F0000E036E60
:102478006D0E026E83EF12F0060E02180310D8A438
:1024880048EF12F04AEF12F050EF12F0000E036E10
:102498007D0E026E83EF12F0070E02180310D8A407
:1024A80058EF12F05AEF12F060EF12F0000E036EC0
:1024B800070E026E83EF12F0080E02180310D8A45C
:1024C80068EF12F06AEF12F070EF12F0000E036E70
:1024D8007F0E026E83EF12F0090E02180310D8A4C3
:1024E80078EF12F07AEF12F080EF12F0000E036E20
:1024F8006F0E026E83EF12F0000E036E0268120078
:10250800E9C08CF0EAC08DF0EBC08EF020EE57F0F9
:1025180010EE87F0040EDBCFE3FFE806FCE2F8C01C
:102528008FF0F9C090F021EE39F010EE79F0070E37
:10253800DBCFE3FFE806FCE220EE4BF010EE81F083
:10254800050EDBCFE3FFE806FCE2000E00016A6F30
:10255800340EE0EC18F08C0E0001736F000E746FEF
:10256800010E756F010E766F4CEC19F0020E00012A
:102578006A6F2D0EE0EC18F0870E0001736F000EE5
:10258800746F010E756F010E766F4CEC19F0030E27
:1025980000016A6F360EE0EC18F08F0E0001736FC1
:1025A800000E746F010E756F010E766F4CEC19F00A
:1025B800040E00016A6F230EE0EC18F0790E00019A
:1025C800736F000E746F010E756F010E766F4CEC11
:1025D80019F0050E00016A6F360EE0EC18F08F0E48
:1025E8000001736F000E746F010E756F010E766F28
:1025F8004CEC19F0060E00016A6F290EE0EC18F099
:10260800810E0001736F000E746F010E756F010E5D
:10261800766F4CEC19F0150E0001786F4B0E776F42
:10262800BE0EE82EFED7772FFCD7782FFAD700F00A
:10263800000E0EEC18F000D0120000016F6F000EB3
:102648000001726F0A0E6F19D8A42DEF13F02FEF47
:1026580013F034EF13F0000EE86FE72BADEF13F033
:102668003F0EE8653AEF13F03CEF13F043EF13F039
:10267800010E726FE851C00F706F45EF13F0E8C09C
:1026880070F06F51080DF3CF6DF0F4CF6EF0000EBF
:10269800716F3F0E706553EF13F055EF13F068EF4D
:1026A80013F0400E705F010E726F8A9470514009EA
:1026B800686F010E05EC1AF00001E751B809686F60
:1026C800010E05EC1AF08A8400016A51D8B46FEF44
:1026D80013F071EF13F089EF13F03B0E6B6F730E6D
:1026E8006C6F71516B27000E6C236D516B276E5107
:1026F8006C236BC0F6FF6CC0F7FF0800F5CF68F0DD
:10270800725105EC1AF0A0EF13F03B0E6B6F730ECD
:102718006C6F71516B27000E6C236D516B276E51D6
:102728006C236BC0F6FF6CC0F7FF0800F550FF0A7A
:10273800686F725105EC1AF00001702B712B070EAF
:102748007165A9EF13F0ABEF13F04DEF13F0080E1E
:10275800E827120000016E6F000E0001706F0A0E6C
:102768006E19D8A4BAEF13F0BCEF13F0C1EF13F051
:10277800000EE86FE72B3AEF14F03F0EE865C7EF5D
:1027880013F0C9EF13F0D0EF13F0010E706FE8519A
:10279800C00F6D6FD2EF13F0E8C06DF0200E6E5FC2
:1027A800000E6F6F3F0E6D65DCEF13F0DEEF13F078
:1027B800F1EF13F0400E6D5F010E706F8A946D514A
:1027C8004009686F010E05EC1AF00001E751B809DD
:1027D800686F010E05EC1AF08A8400016A51D8B4BA
:1027E800F8EF13F0FAEF13F014EF14F06E51030D35
:1027F8003B0E6B6F7F0E6C6FF3506B27F4506C239E
:102808006F516B27000E6C236BC0F6FF6CC0F7FF8F
:102818000800F5CF68F0705105EC1AF02DEF14F0B0
:102828006E51030D3B0E6B6F7F0E6C6FF3506B2771
:10283800F4506C236F516B27000E6C236BC0F6FFAE
:102848006CC0F7FF0800F550FF0A686F705105EC7F
:102858001AF000016D2B6F2B020E6F6536EF14F026
:1028680038EF14F0D6EF13F0050EE8271200000E2B
:102878000001696F67BF45EF14F043EF14F04FEFA5
:1028880014F0671F661F651F646D000E65236623BD
:102898006723010E696F63BF56EF14F054EF14F00D
:1028A80060EF14F0631F621F611F606D000E6123EB
:1028B80062236323010E691B000E6A6F000E6B6FA3
:1028C800000E6C6F000E6D6F645165116611671113
:1028D800D8B471EF14F073EF14F0A9EF14F0010EEF
:1028E800686F7DEF14F0D8906437653766376737BF
:1028F800682B67AF82EF14F084EF14F077EF14F0D1
:10290800D8906A376B376C376D376451605D6551A5
:1029180061596651625967516359D8A096EF14F00E
:1029280098EF14F0A1EF14F06451605F6551615B9A
:102938006651625B6751635B6A81D890673366331F
:1029480065336433682F84EF14F06951D8B4AFEF5E
:1029580014F0B1EF14F0B9EF14F06D1F6C1F6B1F7A
:102968006A6D000E6B236C236D236AC060F06BC028
:1029780061F06CC062F06DC063F012000001783540
:1029880079357F6F7F51D8A4CCEF14F0CEEF14F0D7
:10299800D8EF14F0000E766F000E776F000E786F88
:1029A800000E796F45EF15F076C07AF077C07BF0AE
:1029B80078C07CF079C07DF0200EE8EF14F0D89054
:1029C8007D337C337B337A33E82EE3EF14F07A518E
:1029D8007E6F788FFF0E7617FF0E7717FF0E78172A
:1029E800000E7917960E7F5F7FBFFFEF14F0FDEFA3
:1029F80014F015EF15F07F51800A970FD8B007EF44
:102A080015F009EF15F00BEF15F0CEEF14F0D89094
:102A180079337833773376337F3F0BEF15F02DEF2B
:102A280015F01F0E7F651BEF15F01DEF15F025EF54
:102A380015F0CEEF14F0D8907637773778377937A6
:102A48007F077F51D8A42BEF15F02DEF15F01FEF5E
:102A580015F07E51D8B433EF15F035EF15F03DEF92
:102A680015F0791F781F771F766D000E772378236E
:102A7800792376C076F077C077F078C078F079C09F
:102A880079F01200043405340B6E0B50D8A44FEFC4
:102A980015F051EF15F05BEF15F0000E026E000E09
:102AA800036E000E046E000E056EC8EF15F002C02E
:102AB80006F003C007F004C008F005C009F0200EB6
:102AC8006BEF15F0D8900932083207320632E82E3B
:102AD80066EF15F006500A6E048EFF0E0216FF0E02
:102AE8000316FF0E0416000E0516960E0B5E0BBE9F
:102AF80082EF15F080EF15F098EF15F00B50800A73
:102B0800970FD8B08AEF15F08CEF15F08EEF15F00F
:102B180051EF15F0D89005320432033202320B3EE1
:102B28008EEF15F0B0EF15F01F0E0B649EEF15F049
:102B3800A0EF15F0A8EF15F051EF15F0D890023678
:102B48000336043605360B060B50D8A4AEEF15F045
:102B5800B0EF15F0A2EF15F00A50D8B4B6EF15F0A3
:102B6800B8EF15F0C0EF15F0051E041E031E026C29
:102B7800000E03220422052202C002F003C003F063
:102B880004C004F005C005F0120000016E6F000ECD
:102B98000001706F3F0E6E65D4EF15F0D6EF15F09B
:102BA800DAEF15F0400E6E5F010E706F8A946E9F1B
:102BB8006E8D6EC068F0705105EC1AF06AC060F056
:102BC8000001616B000E636F080E626F02EC17F074
:102BD80000016051BF0BB809686F705105EC1AF01D
:102BE8008A8400017051E7EC19F000017051E7EC9C
:102BF80019F000016F6F8A946EC068F0705105EC8F
:102C08001AF000016B51D8B40CEF16F00EEF16F065
:102C180022EF16F06AC06CF0070E6C17010E6D6F8C
:102C28006C2B19EF16F0D8906D376C2F17EF16F044
:102C380000016D516F116F6F35EF16F06AC06CF0BF
:102C4800070E6C17010E6D6F6C2B2DEF16F0D890D8
:102C58006D376C2F2BEF16F000016D51FF0A6F15C1
:102C68006F6F8A846FC068F0705105EC1AF012001B
:102C780000016E6F000E836E8A9A270E00016D6F39
:102C8800F50EE82EFED76D2FFCD78A8A8A988A908F
:102C98008A928A94270E00016D6FF50EE82EFED7F2
:102CA8006D2FFCD7C00E0001686F000E05EC1AF0FE
:102CB800C00E0001686F010E05EC1AF0400E00010D
:102CC800686F000E05EC1AF0400E0001686F010EE7
:102CD80005EC1AF0B80E0001686F000E05EC1AF04A
:102CE800B80E0001686F010E05EC1AF000016E05C0
:102CF800D8A481EF16F083EF16F090EF16F03F0E90
:102D0800686F000E05EC1AF03F0E0001686F010EA7
:102D180005EC1AF09BEF16F03E0E686F000E05ECFE
:102D28001AF03E0E0001686F010E05EC1AF0000E55
:102D38000EEC18F0120021EE41F010EE83F0060EB2
:102D4800DBCFE3FFE806FCE220EE51F010EE8AF05C
:102D5800050EDBCFE3FFE806FCE221EE2FF010EED4
:102D680079F0090EDBCFE3FFE806FCE2000E0EEC7B
:102D780018F0020E00016A6F120EE0EC18F0830ED4
:102D88000001736F000E746F010E756F010E766F80
:102D98004CEC19F0020E00016A6F4E0EE0EC18F0D0
:102DA8008A0E0001736F000E746F010E756F010EAD
:102DB800766F4CEC19F0050E00016A6F1A0EE0EC04
:102DC80018F0790E0001736F000E746F010E756FA5
:102DD800010E766F4CEC19F0150E0001786F4B0E52
:102DE800776FBE0EE82EFED7772FFCD7782FFAD74D
:102DF80000F0000E0EEC18F000D01200000E0001DA
:102E0800656F63BF0CEF17F00AEF17F012EF17F0BA
:102E1800626D631FD8B0632B010E656F61BF19EF38
:102E280017F017EF17F01FEF17F0606D611FD8B09C
:102E3800612B010E651B000E676F000E666F6251F5
:102E48006311D8B42AEF17F02CEF17F054EF17F0EE
:102E5800010E646F34EF17F0D89062376337642B34
:102E680063AF39EF17F03BEF17F030EF17F0D8905A
:102E7800663767376251605D63516159D8A047EF83
:102E880017F049EF17F04EEF17F06251605F63518A
:102E9800615B6681D89063336233642F3BEF17F030
:102EA8006551D8B45AEF17F05CEF17F060EF17F0E0
:102EB800666D671FD8B0672B66C060F067C061F0A9
:102EC800120000017551711907E176517219D8A4E1
:102ED80070EF17F072EF17F091EF17F073C07CF0F6
:102EE80074C07DF082EF17F07CC06AF079C06BF097
:102EF8007151C9EC15F000017C4B7D2B77517C5D3D
:102F08007D51800A7B6F7851800A7B59D8A08FEF5A
:102F180017F091EF17F078EF17F07751731907E171
:102F280078517419D8A49BEF17F09DEF17F0BCEFF8
:102F380017F071C07EF072C07FF0ADEF17F073C06C
:102F48006AF079C06BF07E51C9EC15F000017E4B38
:102F58007F2B75517E5D7F51800A7B6F7651800A89
:102F68007B59D8A0BAEF17F0BCEF17F0A3EF17F012
:102F78001200CB500001966F976B010E9627000E3A
:102F8800972396C060F097C061F0000E61BFFF0EF6
:102F9800626F636F010EB8EC0EF060C079F061C02B
:102FA8007AF062C07BF063C07CF0000E0001646FB1
:102FB800000E656FC80E666F420E676F92C060F0B4
:102FC80093C061F094C062F095C063F0A6EC0AF07B
:102FD80060C07DF061C07EF062C07FF063C080F0A9
:102FE80097EC02F079C098F07AC099F07BC09AF01B
:102FF8007CC09BF098C076F099C077F09AC078F0C2
:103008009BC079F0C2EC14F000017651BB6EBA9AFD
:10301800BA98120000016A6F000E00016C6F8A9462
:10302800400E686F000E05EC1AF0400E0001686F44
:10303800010E05EC1AF000016C51B809686F000E1A
:1030480005EC1AF000016C51B809686F010E05EC27
:103058001AF08A84000E00016B6F6A51010DF3505B
:103068000008686F000E05EC1AF000016A51010DA6
:10307800F3500008686F010E05EC1AF000016B2B85
:103088003F0E6B654AEF18F04CEF18F031EF18F06F
:103098006C2B070E6C6553EF18F055EF18F013EF13
:1030A80018F01200000E00016B6F000E6A6F000E20
:1030B8006D6F000E6E6F8A94400E686F6E5105EC4E
:1030C8001AF000016D51B809686F6E5105EC1AF0DD
:1030D8008A84000E00016C6F3B0E6A25F66E7B0E2B
:1030E8006B21F76E0800F5CF68F06E5105EC1AF009
:1030F80000016A4B6B2B6C2B3F0E6C6586EF18F04A
:1031080088EF18F070EF18F06E2B010E6E658FEFD8
:1031180018F091EF18F05FEF18F06D2B070E6D6542
:1031280098EF18F09AEF18F05DEF18F08A908A92ED
:103138001200400EF66E330EF76E000EF86E01EEBA
:1031480000F010EE48F00900F5CFEEFFE550E15031
:10315800FAE1BB0EF66E340EF76E000EF86E00EE56
:10316800E9F010EE11F00900F5CFEEFFE550E1505F
:10317800FAE1AA0EF66E340EF76E000EF86E00EE47
:103188004BF010EE11F00900F5CFEEFFE550E150DD
:10319800FAE100EEC3F0260EEE6AE806FDE100EE65
:1031A80034F0170EEE6AE806FDE15C905C92000EC2
:1031B800F86E00016EEF10F000016C6F000E000158
:1031C8006B6F800E6C61EBEF18F0EDEF18F016EFF7
:1031D80019F0070E6A65F3EF18F0F5EF18F0F7EF3E
:1031E80018F016EF19F06CC0E8F06AC0E7F03F0E6F
:1031F8006C6501EF19F003EF19F007EF19F0400EB5
:103208006C5F010E6B6F8A946C514009686F6B514B
:1032180005EC1AF000016A51B809686F6B5105ECAA
:103228001AF08A8412003BC083FF8086080E0001D2
:10323800606FC90EE82EFED7602FFCD700D08096AD
:1032480041C083FF8080080E0001606FC90EE82E20
:10325800FED7602FFCD700D080903FC083FF8082CC
:10326800080E0001606FC90EE82EFED7602FFCD74C
:1032780000D080923DC083FF8084080E0001606FFB
:10328800C90EE82EFED7602FFCD700D0809412001C
:103298006EEF19F000017551D8B455EF19F057EFDA
:1032A80019F062EF19F076C06AF073C0D9FF74C0E4
:1032B800DAFFDF5021EC13F06BEF19F076C06AF0FB
:1032C80073C0D9FF74C0DAFFDF50AEEC13F0000111
:1032D800734B742B73C0D9FF74C0DAFFDF50D8A4C6
:1032E80078EF19F07AEF19F04EEF19F01200720E1C
:1032F800D36EFD0E946E0C0EBA6E000ECC6E070ED9
:10330800CA6E00016E514808606FE80E6F55616F14
:10331800010E7055626F000E7155636F6EC064F0D8
:103328006FC065F070C066F071C067F03BEC14F0D8
:1033380000016051CB6E1200322E52656374616ECB
:1033480067756C616972650043686F69736972209B
:10335800756E206D6F646500312E4F7363696C6CF8
:103368006F73636F7065004561737953434F5045C0
:10337800005175656E74696E0050726F6A657400ED
:10338800000E161A000E171A000E181A800E191AB7
:1033980012C002F013C003F014C004F015C005F009
:1033A80016C006F017C007F018C008F019C009F0D9
:1033B80037EC00F002C012F003C013F004C014F0A0
:1033C80005C015F012000001606F00016051D8B40B
:1033D800F0EF19F0F2EF19F0F6EF19F08A808A92FF
:1033E800F8EF19F08A928A8295688A868A8800D0CE
:1033F80083CF61F08A9800D08A908A920001615147
:1034080012000001696F00016951D8B40EEF1AF07B
:1034180010EF1AF014EF1AF08A808A9216EF1AF059
:103428008A928A82000E956E8A9668C08CFF8A8876
:1034380000D08A9800D08A908A921200C3C072F095
:10344800C4C073F0C5C074F0C6C075F06EC072F029
:103458006FC073F070C074F071C075F00001759F93
:1034680072C06EF073C06FF074C070F075C071F008
:103478001200000E956E000E836E0A0EC16E110EBC
:10348800C26EF00E926E000E806EC00E936E000E2D
:10349800816EF28ED08E9D8C9F9CF28CF286F1808C
:1034A80012004A756C6573004D4355203A00457209
:1034B8006963006279007C00450032003100320007
:0434C80031002600A9
:10733A000000000000000000000000000000000043
:10734A000000000000000000000000000000000033
:10735A000000000000000000000000000000000023
:10736A000000000000000000000000000000000013
:10737A000000000000000000000000000000000003
:10738A0000000000000000000000000000000000F3
:10739A0000000000000000000000000000000000E3
:1073AA0000000000000000000000000000000000D3
:1073BA0000000000000000000000000000000000C3
:1073CA0000000000000000000000000000000000B3
:1073DA0000000000000000000000000000000000A3
:1073EA000000000000000000000000000000000093
:1073FA000000000000000000000000000000000083
:10740A000000000000000000000000000000000072
:10741A000000000000000000000000000000000062
:10742A000000000000000000000000000000000052
:10743A0000000000000000000000065F5F06000078
:10744A00000007070007070000147F7F147F7F14DE
:10745A0000242E6B6B3A120000466630180C6662E6
:10746A0000307A4F5D377A480004070300000000B5
:10747A0000001C3E63410000000041633E1C000006
:10748A0000082A3E1C1C3E2A0808083E3E0808003E
:10749A00000080E0600000000008080808080800F2
:1074AA000000006060000000006030180C06030154
:1074BA00003E7F71594D7F3E0040427F7F40400031
:1074CA0000627359496F660000226349497F36009A
:1074DA0000181C16537F7F5000276745457D3900E9
:1074EA00003C7E4B4979300000030371790F070095
:1074FA0000367F49497F360000064F49693F1E0022
:10750A000000006666000000000080E666000000D9
:10751A0000081C366341000000242424242424008B
:10752A0000004163361C080000020351590F06008F
:10753A00003E7F415D5D1F1E007C7E13137E7C0032
:10754A0000417F7F49497F36001C3E6341416322E7
:10755A0000417F7F41633E1C00417F7F495D41635B
:10756A0000417F7F491D0103001C3E634151737234
:10757A00007F7F08087F7F000000417F7F41000075
:10758A0000307040417F3F0100417F7F081C7763D4
:10759A0000417F7F41406070007F7F0E1C0E7F7F1D
:1075AA00007F7F060C187F7F001C3E6341633E1CF0
:1075BA0000417F7F49090F06001E3F21717F5E004F
:1075CA0000417F7F09197F6600266F4D597332008B
:1075DA000003417F7F410300007F7F40407F7F009F
:1075EA00001F3F60603F1F00007F7F3018307F7FA1
:1075FA000043673C183C674300074F78784F070001
:10760A0000476371594D677300007F7F4141000055
:10761A00000103060C183060000041417F7F000022
:10762A0000080C0603060C08008080808080808099
:10763A00800000030704000000207454543C784082
:10764A0000417F3F4848783000387C44446C280029
:10765A0000307848493F7F4000387C54545C180019
:10766A0000487E7F490302000098BCA4A4F87C0469
:10767A0000417F7F08047C780000447D7D40000043
:10768A000060E08080FD7D0000417F7F10386C44FF
:10769A000000417F7F400000007C7C18381C7C7809
:1076AA00007C7C04047C780000387C44447C3800EC
:1076BA000084FCF8A4243C1800183C24A4F8FC8498
:1076CA0000447C784C041C1800485C545474240010
:1076DA000000043E7F442400003C7C40403C7C4047
:1076EA00001C3C60603C1C00003C7C7038707C3C98
:1076FA0000446C3810386C44009CBCA0A0FC7C0090
:10770A00004C64745C4C64000008083E77414100F8
:10771A000000000077770000004141773E0808002A
:10772A0000020301030203010070784C464C787092
:10773A00000E9F91B1FB4A00003A7A40407A7A40A3
:10774A0000387C54555D19000002237555557D7B20
:10775A0042217554547D794000217555547C7840F6
:10776A0000207457577C784000183CA4A4E44000D9
:10777A0000023B7D55555D1B02397D54545D19004D
:10778A0000397D55545C18000001457C7C4101009C
:10779A00000203457D7D43020001457D7C400000D7
:1077AA0000797D1612167D790070782B2B7870007F
:1077BA0000447C7C5555450000207454547C7C540C
:1077CA00547C7E0B097F7F4900327B49497B32001A
:1077DA0000327A48487A320000327A4A48783000D1
:1077EA00003A7B41417B7A40003A7A4240787840BD
:1077FA00009ABAA0A0FA7A000001193C66663C1900
:10780A00013D7D40407D3D0000183C24E7E72424EB
:10781A0000687E7F49436620002B2FFCFC2F2B003B
:10782A0000FFFF09092FF6F8A040C088FE7F090370
:10783A0002207454557D79400000447D7D4100004A
:10784A00003078484A7A320000387840427A7A40E2
:10785A00007A7A0A0A7A7000007D7D19317D7D00EE
:10786A000000262F292F2F280000262F292F260037
:10787A000030784D456020000038380808080800B4
:10788A000008080808383800004F6F3018CCEEBBE3
:10789A00914F6F30186C76FBF90000007B7B00007B
:1078AA0000081C3622081C362222361C0822361CE6
:1078BA0008AA005500AA005500AA55AA55AA55AA11
:1078CA0055DDFFAA77DDAAFF77000000FFFF000061
:1078DA0000101010FFFF000000141414FFFF000036
:1078EA00001010FFFF00FFFF001010F0F010F0F082
:1078FA0000141414FCFC0000001414F7F700FFFF36
:10790A00000000FFFF00FFFF001414F4F404FCFC65
:10791A000014141717101F1F0010101F1F101F1F0D
:10792A00001414141F1F000000101010F0F00000C3
:10793A00000000001F1F1010101010101F1F101041
:10794A0010101010F0F0101010000000FFFF1010BF
:10795A00101010101010101010101010FFFF10103F
:10796A0010000000FFFF1414140000FFFF00FFFFC7
:10797A001000001F1F101717140000FCFC04F4F479
:10798A001414141717101717141414F4F404F4F435
:10799A00140000FFFF00F7F714141414141414143D
:1079AA00141414F7F700F7F714141414171714140F
:1079BA001410101F1F101F1F10141414F4F41414A1
:1079CA00141010F0F010F0F01000001F1F101F1F0D
:1079DA00100000001F1F141414000000FCFC1414F3
:1079EA00140000F0F010F0F0101010FFFF10FFFF6D
:1079FA0010141414FFFF1414141010101F1F000089
:107A0A0000000000F0F0101010FFFFFFFFFFFFFF63
:107A1A00FFF0F0F0F0F0F0F0F0FFFFFFFF000000E1
:107A2A000000000000FFFFFFFF0F0F0F0F0F0F0FE7
:107A3A000F387C446C386C4400FCFE2A2A3E140041
:107A4A00007E7E020206060000027E7E027E7E0222
:107A5A000063775D4963630000387C447C3C04041E
:107A6A000080FE7E20203E1E000406027E7C060266
:107A7A000099BDE7E7BD9900001C3E6B496B3E1CAF
:107A8A00004C7E7301737E4C0030784A4F7D39007A
:107A9A0000183C243C3C243C1898FC643C3E273D9E
:107AAA0018000000000000000000000000000000B4
:107ABA0000000000000000000000000000000000BC
:107ACA0000000000000000000000000000000000AC
:107ADA00000000000000000000000000000000009C
:107AEA00000000000000000000000000000000008C
:107AFA00000000000000000000000000000000007C
:107B0A00000000000000000000000000000000006B
:107B1A00000000000000000000000000000000005B
:107B2A00000000000000000000000000000000004B
:107B3A00000000000000000000808080800000003B
:107B4A0000000000000000000000000000800000AB
:107B5A00800000800000000000000000000000001B
:107B6A00000000000000000000000000000000000B
:107B7A0000000000000000000000000000000000FB
:107B8A0000000000000000000000000000000000EB
:107B9A0000000000000000000000000000000000DB
:107BAA0000000000000000000000000000000000CB
:107BBA00000000000000003E4180808080413E00BD
:107BCA0000D894A46C00007884844C0088FC8081DE
:107BDA00FF8081FF800078848484780000D894A490
:107BEA006C00007884844C000078848484780008CF
:107BFA00FC488484780000789494580000000000BF
:107C0A00D894A46C00041C6480740C0400D894A456
:107C1A006C0004FF844000789494580088FC88041F
:107C2A00FC8804F88000000000000000000000004A
:107C3A00000000000000000000000000000000003A
:107C4A00000000000000000000000000000000002A
:107C5A00000000000000000000000000000000001A
:107C6A000000000000000000000000000000000406
:107C7A0007040000000000000000000000000000EF
:107C8A0000000000000404060100000000000000DB
:107C9A0000000000000000000000000000000000DA
:107CAA0000000000000000000000000000000000CA
:107CBA0000000000000000000000000000000000BA
:107CCA0000000000000000000000000000000000AA
:107CDA00000000000000000000000000000000009A
:107CEA000080F0F8181C0E0E1C1878F0C0800000F6
:107CFA0000000000000000000000000000000080FA
:107D0A00F0F8181C0C0E0E1C18F8F0800000000089
:107D1A000000000000000000000000000000000059
:107D2A000000000000000000000000000000000049
:107D3A000000000000000000000000000000000039
:107D4A000000000000000000000000000000000029
:107D5A000000000000000000000000000000000019
:107D6A00F8FF0F0000000000000000000FFFF800FD
:107D7A000000000000000000000000000000F8FF02
:107D8A000F0000000000000000000FFFF8000000D4
:107D9A0000000000000000000000000000000000D9
:107DAA0000000000000000000000000000000000C9
:107DBA0000000000000000000000000000000000B9
:107DCA000000000000000000000800080008001C75
:107DDA00FCF8800800080008000800080008E0FF16
:107DEA003F090008000800080008000800093FFFD2
:107DFA00E00800080008000800080008E0FF3F0942
:107E0A000008000800080008000800090F0F000811
:107E1A000008000800000000000000000000000048
:107E2A000000000000000000000000000000000048
:107E3A000000000000000000000000000000000038
:107E4A000000000000000000000000000000000028
:107E5A0000073FFCE000000000000080C0FC7F0734
:107E6A000000000000000000000000000000000701
:107E7A003FFCE000000000000000C0FC7F0700009B
:107E8A0000000000000000000000000000000000E8
:107E9A0000000000000000000000000000000000D8
:107EAA0000000000000000000000000000000000C8
:107EBA0000000000000000000000000000000000B8
:107ECA0000000000000000000000000000000000A8
:107EDA0000000001070F1C18181C0F070100000002
:107EEA000000000000000000000000000000000088
:107EFA000001070F1C18181C0C0F070100000000D6
:107F0A000000000000000000000000000000000067
:107F1A000000000000000000000000000000000057
:107F2A000000000000000000000000000000000047
:107F3A0000000000005C000C000C7C287C7C447C67
:107F4A00241048285408000C003844004438002003
:107F5A001008103810804000101010004000201047
:107F6A0008384438007C006454484454281C107C67
:107F7A004C542438542004740C28542808543800CB
:107F8A0050008050001028442828284428100454FF
:107F9A0008384C5C7814787C54283844447C44383B
:107FAA007C54447C14043844347C107C007C0020CB
:107FBA00403C7C106C7C40407C087C7C047C7C448B
:107FCA007C7C14083844787C1468485424047C0463
:107FDA007C407C3C403C7C207C6C106C1C601C64AB
:107FEA00544C7C4400081020447C0008040880801B
:057FFA008004080000F6
:020000040020DA
:08000000FFFFFFFFFFFFFFFF00
:020000040030CA
:0E000000000C191EFF8181FF0FC00FE00F40A2
:00000001FF
