:020000040000FA
:0400000035EF00F0E8
:060008005E8210ED17F00E
:100018005E80D8CF2FF0E8CF30F0E0CF31F0F3CFCB
:1000280032F0F4CF33F09EAC1CEF00F01EEF00F07E
:1000380029EF00F09E9CC4CFB1F10101B26BB1C1B0
:1000480029F0B2C12AF0D3EC18F033C0F4FF32C063
:10005800F3FF31C0E0FF30C0E8FF2FC0D8FF5E904B
:10006800100074EF26F021EE5DF010EEB9F0050EE9
:10007800DBCFE3FFE806FCE274C1BFF075C1C0F056
:1000880076C1C1F077C1C2F021EE48F010EEABF0B6
:10009800060EDBCFE3FFE806FCE221EE41F010EEAE
:1000A800B2F0060EDBCFE3FFE806FCE278C1C3F04E
:1000B80079C1C4F07AC1C5F07EC1C6F07FC1C7F06E
:1000C800060E00016A6F070E5AEC25F042504310E5
:1000D800D8A471EF00F073EF00F0B9EF00F0AB0EA9
:1000E8000001736F000E746F010E756F010E766F4D
:1000F800FCEC25F0C4500101B96FBA6BBB6BBC6B4B
:10010800B9C17AF0BAC17BF0BBC17CF0BCC17DF04B
:10011800000E00017E6F000E7F6F000E806F000ED4
:10012800816FF40E826F000E836F000E846F000ED5
:10013800856FEA0E866F010E876F000E886F000EBE
:10014800896F240E8A6FF40E8B6F000E8C6F000E71
:100158008D6FDBEC24F07AC0B9F17BC0BAF17CC0BA
:10016800BBF17DC0BCF1F8EF00F0B20E0001736F77
:10017800000E746F010E756F010E766FFCEC25F0A2
:10018800C4CFBFF10101C06BBFC17AF0C0C17BF021
:100198000001000E7BBFFF0E7C6F7D6F000E7E6F2F
:1001A800000E7F6F000E806F000E816FF40E826F5D
:1001B800000E836F000E846F000E856F000E866F31
:1001C800000E876F000E886F000E896F640E8A6FAD
:1001D800000E8B6F000E8C6F000E8D6FDBEC24F021
:1001E8007AC0BFF17BC0C0F1000E0001726F380EFB
:1001F800716F000E746F2F0E736F000E766F380ECE
:10020800756F000E786F370E776F000E7A6F010EDC
:10021800796F5CEC23F0000E0001726F390E716F7C
:10022800000E746F2F0E736F000E766F390E756F98
:10023800000E786F370E776F000E7A6F010E796FA8
:100248005CEC23F0060E00016A6F3E0E5AEC25F0B6
:10025800BF0E0001736F000E746F010E756F010EF3
:10026800766FFCEC25F0060E00016A6F720E5AECF0
:1002780025F0C60E0001736F000E746F010E756FC6
:10028800010E766FFCEC25F0070E00016A6F0B0E6D
:100298005AEC25F0B90E0001736F000E746F010E51
:1002A800756F010E766FFCEC25F0070E00016A6F82
:1002B800660E5AEC25F0C30E0001736F000E746FC2
:1002C800010E756F010E766FFCEC25F0000E000133
:1002D800726F000E716F000E746F2E0E736F000E2A
:1002E800766F800E756F000E786F2E0E776F000E8A
:1002F8007A6F010E796F5CEC23F0B9C16AF0BAC16C
:100308006BF0BBC16CF0BCC16DF0010E23EC1CF0AE
:100318006AC091F06BC092F06CC093F06DC094F01D
:10032800170E0001956FB70E966FD10E976F380EA6
:10033800986F17EC11F091C0FAF092C0FBF093C0DF
:10034800FCF094C0FDF0FAC060F0FBC061F0FCC0A6
:1003580062F0FDC063F0B9EC20F060C0C8F061C085
:10036800C9F0FAC078F0FBC079F0FCC07AF0FDC0A3
:100378007BF0FAC060F0FBC061F0FCC062F0FDC029
:1003880063F0B9EC20F0000160C06AF061C06BF066
:10039800000E6BBFFF0E6C6F6D6F010E23EC1CF02F
:1003A8006AC07CF06BC07DF06CC07EF06DC07FF0E1
:1003B80050EC26F078C0FAF079C0FBF07AC0FCF077
:1003C8007BC0FDF0FAC091F0FBC092F0FCC093F046
:1003D800FDC094F0000E0001956F000E966F200E80
:1003E800976F410E986F17EC11F091C0FAF092C018
:1003F800FBF093C0FCF094C0FDF0FAC060F0FBC0C5
:1004080061F0FCC062F0FDC063F0B9EC20F060C0A0
:10041800CAF061C0CBF0FAC078F0FBC079F0FCC03C
:100428007AF0FDC07BF0FAC060F0FBC061F0FCC060
:1004380062F0FDC063F0B9EC20F0000160C06AF022
:1004480061C06BF0000E6BBFFF0E6C6F6D6F010E1D
:1004580023EC1CF06AC07CF06BC07DF06CC07EF0B1
:100468006DC07FF050EC26F078C0FAF079C0FBF050
:100478007AC0FCF07BC0FDF0FAC091F0FBC092F0AE
:10048800FCC093F0FDC094F0000E0001956F000EC3
:10049800966F200E976F410E986F17EC11F091C070
:1004A800FAF092C0FBF093C0FCF094C0FDF0FAC0E3
:1004B80060F0FBC061F0FCC062F0FDC063F0B9EC15
:1004C80020F060C0CCF061C0CDF0FAC078F0FBC07D
:1004D80079F0FCC07AF0FDC07BF0FAC060F0FBC098
:1004E80061F0FCC062F0FDC063F0B9EC20F00001DF
:1004F80060C06AF061C06BF0000E6BBFFF0E6C6FDE
:100508006D6F010E23EC1CF06AC07CF06BC07DF0AF
:100518006CC07EF06DC07FF050EC26F078C0FAF029
:1005280079C0FBF07AC0FCF07BC0FDF0FAC091F016
:10053800FBC092F0FCC093F0FDC094F0000E0001E7
:10054800956F000E966F200E976F410E986F17ECFF
:1005580011F091C0FAF092C0FBF093C0FCF094C087
:10056800FDF0FAC060F0FBC061F0FCC062F0FDC0B5
:1005780063F0B9EC20F060C0CEF061C0CFF0FAC0F3
:1005880078F0FBC079F0FCC07AF0FDC07BF0FAC0CF
:1005980060F0FBC061F0FCC062F0FDC063F0B9EC34
:1005A80020F0000160C06AF061C06BF0000E6BBF04
:1005B800FF0E6C6F6D6F010E23EC1CF06AC07CF0AF
:1005C8006BC07DF06CC07EF06DC07FF050EC26F003
:1005D80078C0FAF079C0FBF07AC0FCF07BC0FDF07F
:1005E800FAC091F0FBC092F0FCC093F0FDC094F00B
:1005F800000E0001956F000E966F200E976F410E4A
:10060800986F17EC11F091C0FAF092C0FBF093C00C
:10061800FCF094C0FDF0FAC060F0FBC061F0FCC0D3
:1006280062F0FDC063F0B9EC20F060C0D0F061C0AA
:10063800D1F0BFC16AF0C0C16BF00001000E6BBF02
:10064800FF0E6C6F6D6F010E23EC1CF06AC091F009
:100658006BC092F06CC093F06DC094F00A0E00016C
:10066800956FD70E966F230E976F3C0E986F17EC09
:1006780011F091C0F6F092C0F7F093C0F8F094C072
:10068800F9F0F6C060F0F7C061F0F8C062F0F9C0A8
:1006980063F0B9EC20F060C0D2F061C0D3F0F6C0CE
:1006A80078F0F7C079F0F8C07AF0F9C07BF0F6C0BE
:1006B80060F0F7C061F0F8C062F0F9C063F0B9EC1F
:1006C80020F0000160C06AF061C06BF0000E6BBFE3
:1006D800FF0E6C6F6D6F010E23EC1CF06AC07CF08E
:1006E8006BC07DF06CC07EF06DC07FF050EC26F0E2
:1006F80078C0F6F079C0F7F07AC0F8F07BC0F9F06E
:10070800F6C091F0F7C092F0F8C093F0F9C094F0F9
:10071800000E0001956F000E966F200E976F410E28
:10072800986F17EC11F091C0F6F092C0F7F093C0F3
:10073800F8F094C0F9F0F6C060F0F7C061F0F8C0C6
:1007480062F0F9C063F0B9EC20F060C0D4F061C089
:10075800D5F0F6C078F0F7C079F0F8C07AF0F9C0B3
:100768007BF0F6C060F0F7C061F0F8C062F0F9C045
:1007780063F0B9EC20F0000160C06AF061C06BF072
:10078800000E6BBFFF0E6C6F6D6F010E23EC1CF03B
:100798006AC07CF06BC07DF06CC07EF06DC07FF0ED
:1007A80050EC26F078C0F6F079C0F7F07AC0F8F08F
:1007B8007BC0F9F0F6C091F0F7C092F0F8C093F062
:1007C800F9C094F0000E0001956F000E966F200E90
:1007D800976F410E986F17EC11F091C0F6F092C028
:1007E800F7F093C0F8F094C0F9F0F6C060F0F7C0E5
:1007F80061F0F8C062F0F9C063F0B9EC20F060C0B5
:10080800D6F061C0D7F00001C851300FDC6FCA5173
:10081800300FDD6FCC51300FDE6FCE51300FDF6FF0
:10082800D051300FE06FD251300FE16FD451300FFB
:10083800E26FD651300FE36F000EE56F000EE46FE4
:10084800DCC0E4F0000EE56F000EE76F000EE66F07
:10085800DDC0E6F0000EE76F000EE96F000EE86FEE
:10086800DEC0E8F0000EE96F000EEB6F000EEA6FD5
:10087800DFC0EAF0000EEB6F000EED6F000EEC6FBC
:10088800E0C0ECF0000EED6F000EEF6F000EEE6FA3
:10089800E1C0EEF0000EEF6F000EF16F000EF06F8A
:1008A800E2C0F0F0000EF16F000EF36F000EF26F71
:1008B800E3C0F2F0000EF36F060E6A6F560E5AECA4
:1008C80025F0EE0E0001736F000E746F010E756F48
:1008D800010E766FFCEC25F0060E00016A6F5F0EC4
:1008E8005AEC25F0F00E0001736F000E746F010EC4
:1008F800756F010E766FFCEC25F0060E00016A6F2D
:10090800680E5AEC25F0F20E0001736F000E746F3A
:10091800010E756F010E766FFCEC25F0070E0001D5
:100928006A6F330E5AEC25F0E40E0001736F000E67
:10093800746F010E756F010E766FFCEC25F0070ED3
:1009480000016A6F3C0E5AEC25F0E60E0001736F49
:10095800000E746F010E756F010E766FFCEC25F0BA
:10096800070E00016A6F4A0E5AEC25F0E80E0001E6
:10097800736F000E746F010E756F010E766FFCECCD
:1009880025F0070E00016A6F530E5AEC25F0EA0EA7
:100998000001736F000E746F010E756F010E766F94
:1009A800FCEC25F0070E00016A6F5C0E5AEC25F08E
:1009B800EC0E0001736F000E746F010E756F010E5F
:1009C800766FFCEC25F0B9C17AF0BAC17BF0BBC1F7
:1009D8007CF0BCC17DF0EA0E00017E6F010E7F6FD6
:1009E800000E806F000E816F240E826FF40E836FED
:1009F800000E846F000E856F010E866F000E876FE4
:100A0800000E886F000E896F320E8A6F000E8B6F92
:100A1800000E8C6F000E8D6FDBEC24F07AC0F4F0C2
:100A28007BC0F5F0F4C06AF0F5C06BF00001000E71
:100A38006BBFFF0E6C6F6D6F010E23EC1CF06AC06C
:100A48007CF06BC07DF06CC07EF06DC07FF0000E56
:100A58000001786F000E796FC80E7A6F420E7B6FB7
:100A680042EC15F078C060F079C061F07AC062F0AD
:100A78007BC063F0B9EC20F060C0D8F061C0D9F059
:100A8800F4C06AF0F5C06BF00001000E6BBFFF0EFA
:100A98006C6F6D6F010E23EC1CF06AC07CF06BC0AC
:100AA8007DF06CC07EF06DC07FF0BFC16AF0C0C140
:100AB8006BF00001000E6BBFFF0E6C6F6D6F010EC7
:100AC80023EC1CF06AC078F06BC079F06CC07AF047
:100AD8006DC07BF042EC15F078C060F079C061F031
:100AE8007AC062F07BC063F0B9EC20F060C0DAF045
:100AF80061C0DBF05CC071F05DC072F0000E0001F7
:100B0800746F000E736F5CC075F05DC076F0000EF8
:100B1800786F2D0E776F000E7A6F000E796F5CEC90
:100B280023F00001DA51445C4550800AAA6FDB517A
:100B3800800AAA59D8B0A3EF05F0A5EF05F0D8EFC1
:100B480005F00A0E6A6F010E6B6F5C50C0EC21F065
:100B58007E0E5A185B10D8B4B4EF05F0B6EF05F066
:100B6800CDEF05F05AC080F05BC081F0BDC182F0C6
:100B7800BEC183F05CC084F05DC085F0000E00014A
:100B8800876F0A0E866F000E896F010E886F7BECE7
:100B980009F05CC05AF05DC05BF0000E0101BE6F49
:100BA8000A0EBD6F09EF06F0230E6A6F010E6B6F18
:100BB8005C50C0EC21F07E0E5A185B10D8B4E7EFF9
:100BC80005F0E9EF05F000EF06F05AC080F05BC0D1
:100BD80081F0BDC182F0BEC183F05CC084F05DC00D
:100BE80085F0000E0001876F230E866F000E896F57
:100BF800010E886F7BEC09F05CC05AF05DC05BF0B9
:100C0800000E0101BE6F230EBD6F0001D851445C78
:100C18004550800AAA6FD951800AAA59D8B017EF4F
:100C280006F019EF06F01DEF06F0444A452A21EFB9
:100C380006F0000E456E000E446E5DBE2DEF06F008
:100C48005D5009E17E0E5C5CD8A02DEF06F02FEF19
:100C580006F035EF06F0000E5D6E000E5C6E37EFA5
:100C680006F05C4A5D2A1200000E0101C66F000EF4
:100C7800C56F000EB86F010EB76F000EC26F010E80
:100C8800C16FC105C211D8B44CEF06F04EEF06F0A3
:100C980057EF06F052045310D8A455EF06F057EF5B
:100CA80006F0F0EF06F0000EC26F000EC16F86C1AD
:100CB800ACF087C1ADF084C1AEF085C1AFF082C1A0
:100CC800B0F083C1B1F080C1B2F081C1B3F0000EC1
:100CD8000001C26F000EC16FC1C06AF00F0E5AEC5E
:100CE80025F0B20E0001736F000E746F010E756F60
:100CF800010E766FFCEC25F00001C14BC22BC2BF80
:100D08008FEF06F0C25109E1080EC15DD8A08FEF40
:100D180006F091EF06F070EF06F0000E726F000E0D
:100D2800716F000E746F110E736F000E766F110ED7
:100D3800756F000E786F110E776F000E7A6F010EC7
:100D4800796F5CEC23F052505310D8A4AEEF06F044
:100D5800B0EF06F0C3EF06F0010E00016A6F020E55
:100D68005AEC25F0AC0E0001736F000E746F010E83
:100D7800756F010E766FFCEC25F0F0EF06F052046B
:100D88005310D8A4CAEF06F0CCEF06F0DFEF06F058
:100D9800010E00016A6F020E5AEC25F0AE0E00013A
:100DA800736F000E746F010E756F010E766FFCEC99
:100DB80025F0F0EF06F0010E00016A6F020E5AEC02
:100DC80025F0B00E0001736F000E746F010E756F81
:100DD800010E766FFCEC25F04650300F0001B46F21
:100DE8004850300FB56F4A50300FB66F4C50300F27
:100DF800B76F000EB86F000EB96F000EBA6FB4C0AF
:100E0800B8F02E0EB96F000EBA6F000EBC6F000E50
:100E1800BB6FB5C0BBF0000EBC6F000EBE6F000EFE
:100E2800BD6FB6C0BDF0000EBE6F000EC06F000EE5
:100E3800BF6FB7C0BFF0000EC06F030E6A6F020E1F
:100E48005AEC25F0B80E0001736F000E746F010E96
:100E5800756F010E766FFCEC25F0040E00016A6FC9
:100E6800020E5AEC25F0BB0E0001736F000E746F72
:100E7800010E756F010E766FFCEC25F0050E000172
:100E88006A6F020E5AEC25F0BD0E0001736F000E5A
:100E9800746F010E756F010E766FFCEC25F0060E6F
:100EA80000016A6F020E5AEC25F0BF0E0001736F45
:100EB800000E746F010E756F010E766FFCEC25F055
:100EC80052505310D8A46BEF07F06DEF07F02DEFD9
:100ED80008F051BE7BEF07F0515007E1630E505CFC
:100EE800D8B079EF07F07BEF07F0C6EF07F01D0EDB
:100EF80050240001716F000E5120726F000E746F44
:100F0800000E736F1D0E5024756F000E5120766F02
:100F1800000E786F400E776F000E7A6F000E796FB3
:100F28005CEC23F0A2C06AF0010E00016B6F505018
:100F38001C0FC0EC21F01C0E40240001806F000E35
:100F48004120816F3EC082F03FC083F01C0E5024C8
:100F5800846F000E5120856FA2C086F0A3C087F071
:100F6800000E896F010E886F7BEC09F050C040F0CD
:100F780051C041F0A2C03EF0A3C03FF0504A512AF0
:100F88007AEF09F051BED2EF07F0515009E1630E34
:100F9800505CD8A0D2EF07F0D4EF07F07AEF09F051
:100FA800000E516E000E506E000E0001726F1B0E87
:100FB800716F000E746F000E736F000E766F1B0E4C
:100FC800756F000E786F400E776F000E7A6F000E07
:100FD800796F5CEC23F0000E0001726F1C0E716FCC
:100FE800000E746F000E736F000E766F1C0E756F17
:100FF800000E786F400E776F000E7A6F000E796FD3
:101008005CEC23F0000E0001726F1D0E716F000E74
:10101800746F000E736F000E766F1D0E756F000EE5
:10102800786F400E776F000E7A6F000E796F5CEC68
:1010380023F0A2C06AF0010E00016B6F1C0EC0EC19
:1010480021F0000E416E000E406EBEEF07F07AEF01
:1010580009F052045310D8A434EF08F036EF08F022
:101068007AEF09F04E504F10D8A43DEF08F03FEF4B
:1010780008F09CEF08F021EE4FF010EEA5F0060EF8
:10108800DBCFE3FFE806FCE20001A3BF55EF08F061
:10109800A35109E11F0EA25DD8A055EF08F057EF44
:1010A80008F069EF08F0010E6A6F320E5AEC25F06D
:1010B800A50E0001736F000E746F010E756F010E9F
:1010C800766FFCEC25F07EEF08F0A3BF77EF08F011
:1010D800A35107E11F0EA25DD8B075EF08F077EFB6
:1010E80008F07EEF08F0070E6A6F320E5AEC25F012
:1010F8005CEF08F0000E0001726F1C0E716FA2C049
:1011080073F0A3C074F0000E766F7F0E756FA2C0E7
:1011180077F0A3C078F0000E7A6F010E796F5CEC5F
:1011280023F0000E0101B46F010EB36F7AEF09F0DE
:101138004E044F10D8A4A3EF08F0A5EF08F07AEFFB
:1011480009F0000E0001726F1C0E716F56C073F02B
:1011580057C074F0000E766F7F0E756F56C077F02B
:1011680057C078F0000E7A6F010E796F5CEC23F0AF
:101178000001A251565C5750800AA46FA351800AFF
:10118800A459D8A0CAEF08F0CCEF08F07AEF09F01C
:1011980051BEDAEF08F0515007E1630E505CD8B049
:1011A800D8EF08F0DAEF08F01AEF09F01D0E502416
:1011B800716F000E5120726F000E746F000E736F06
:1011C8001D0E5024756F000E5120766F000E786F3B
:1011D800400E776F000E7A6F000E796F5CEC23F08B
:1011E800A2C06AF0010E00016B6F50501C0FC0ECDA
:1011F80021F01C0E40240001806F000E4120816FF9
:101208003EC082F03FC083F01C0E5024846F000E55
:101218005120856FA2C086F0A3C087F0000E896FA9
:10122800010E886F7BEC09F0BAEF07F051BE26EF8C
:1012380009F0515009E1630E505CD8A026EF09F07F
:1012480028EF09F02BEF08F0000E516E000E506EDB
:10125800000E726F1B0E716F000E746F000E736FAD
:10126800000E766F1B0E756F000E786F400E776F4D
:10127800000E7A6F000E796F5CEC23F0000E00010F
:10128800726F1C0E716F000E746F000E736F000E7C
:10129800766F1C0E756F000E786F400E776F000E1C
:1012A8007A6F000E796F5CEC23F0000E0001726F0C
:1012B8001D0E716F000E746F000E736F000E766F47
:1012C8001D0E756F000E786F400E776F000E7A6FE7
:1012D800000E796F5CEC23F0A2C06AF0010E0001E9
:1012E8006B6F1C0EC0EC21F025EF08F01200000116
:1012F8008051845D966F81518559976F8251865DC3
:10130800986F83518759996F96C06AF097C06BF0B0
:10131800000E6BBFFF0E6C6F6D6F010E23EC1CF09F
:101328006AC078F06BC079F06CC07AF06DC07BF061
:1013380011EC27F078C060F079C061F07AC062F0F3
:101348007BC063F0B9EC20F060C09AF061C09BF0FC
:1013580098C06AF099C06BF00001000E6BBFFF0ED9
:101368006C6F6D6F010E23EC1CF06AC078F06BC0D7
:1013780079F06CC07AF06DC07BF011EC27F078C082
:1013880060F079C061F07AC062F07BC063F0B9ECBC
:1013980020F060C09CF061C09DF09CC08AF09DC0A8
:1013A8008BF0D89000018A378B379A518A5D926FFB
:1013B8009B518B59936F9AC08AF09BC08BF0D89041
:1013C8008A378B379C518A5D946F9D518B59956FE5
:1013D8009C519A5D9B51800A8A6F9D51800A8A5957
:1013E800D8A0F9EF09F0FBEF09F026EF0BF097BF53
:1013F80000EF0AF002EF0AF010EF0AF080C09EF04A
:1014080081C09FF082C0A0F083C0A1F084C08EF09C
:1014180085C08FF01CEF0AF084C09EF085C09FF055
:1014280086C0A0F087C0A1F080C08EF081C08FF088
:10143800A0C06AF088C06BF09E51C0EC21F0A0C03B
:101448006AF088C06BF000019E05C0EC21F0A0C0D6
:101458006AF088C06BF000019E29C0EC21F0000101
:10146800A0056A6F88C06BF09E51C0EC21F00001A6
:10147800A0296A6F88C06BF09E51C0EC21F0000172
:10148800A0056A6F88C06BF09E05C0EC21F00001D2
:10149800A0296A6F88C06BF09E05C0EC21F000019E
:1014A800A0056A6F88C06BF09E29C0EC21F000018E
:1014B800A0296A6F88C06BF09E29C0EC21F0000E4D
:1014C80000018D6F000E8C6F15EF0BF0010E9E253D
:1014D8009E6F000E9F219F6F93BF77EF0AF075EF05
:1014E8000AF086EF0AF09CC08AF09DC08BF0D89075
:1014F8008A378B3792518A25926F93518B21936F3C
:10150800CBEF0AF097BF8DEF0AF08BEF0AF094EF5C
:101518000AF099BF92EF0AF094EF0AF0AEEF0AF0E2
:1015280097BF9FEF0AF0975108E19605D8A09FEF63
:101538000AF0A1EF0AF0B6EF0AF099BFACEF0AF093
:10154800995108E19805D8A0ACEF0AF0AEEF0AF07F
:10155800B6EF0AF0010EA025A06F000EA121A16F21
:10156800BCEF0AF0FF0EA025A06FFF0EA121A16F0E
:101578009A519C5D8A6F9B519D598B6FD8908A3781
:101588008B3792518A25926F93518B21936FA0C00C
:101598006AF088C06BF09E51C0EC21F0A0C06AF0E0
:1015A80088C06BF000019E05C0EC21F0A0C06AF075
:1015B80088C06BF000019E29C0EC21F00001A00555
:1015C8006A6F88C06BF09E51C0EC21F00001A02921
:1015D8006A6F88C06BF09E51C0EC21F00001A00535
:1015E8006A6F88C06BF09E05C0EC21F00001A0294D
:1015F8006A6F88C06BF09E05C0EC21F00001A00561
:101608006A6F88C06BF09E29C0EC21F00001A02908
:101618006A6F88C06BF09E29C0EC21F000018C4BEA
:101628008D2B8E519E5D9F51800A8A6F8F51800A43
:101638008A59D8A022EF0BF024EF0BF06AEF0AF0DA
:1016480055EF0CF099BF2BEF0BF02DEF0BF03BEFA4
:101658000BF080C09EF081C09FF082C0A0F083C0D4
:10166800A1F086C090F087C091F047EF0BF084C0DE
:101678009EF085C09FF086C0A0F087C0A1F082C010
:1016880090F083C091F0A0C06AF088C06BF09E51C2
:10169800C0EC21F0A0C06AF088C06BF000019E0584
:1016A800C0EC21F0A0C06AF088C06BF000019E2950
:1016B800C0EC21F00001A0056A6F88C06BF09E5154
:1016C800C0EC21F00001A0296A6F88C06BF09E5120
:1016D800C0EC21F00001A0056A6F88C06BF09E0580
:1016E800C0EC21F00001A0296A6F88C06BF09E054C
:1016F800C0EC21F00001A0056A6F88C06BF09E293C
:10170800C0EC21F00001A0296A6F88C06BF09E2907
:10171800C0EC21F0000E00018D6F000E8C6F46EFBB
:101728000CF0010EA025A06F000EA121A16F95BF9E
:10173800A8EF0BF0955106E19405D8B0A6EF0BF091
:10174800A8EF0BF0B7EF0BF09AC08AF09BC08BF0B4
:10175800D8908A378B3794518A25946F95518B216D
:10176800956FFCEF0BF097BFBEEF0BF0BCEF0BF0E3
:10177800C5EF0BF099BFC3EF0BF0C5EF0BF0DFEF30
:101788000BF097BFD0EF0BF0975108E19605D8A062
:10179800D0EF0BF0D2EF0BF0E7EF0BF099BFDDEFD6
:1017A8000BF0995108E19805D8A0DDEF0BF0DFEFB9
:1017B8000BF0E7EF0BF0010E9E259E6F000E9F21A8
:1017C8009F6FEDEF0BF0FF0E9E259E6FFF0E9F2182
:1017D8009F6F9C519A5D8A6F9D519B598B6FD890D2
:1017E8008A378B3794518A25946F95518B21956F41
:1017F800A0C06AF088C06BF09E51C0EC21F0A0C078
:101808006AF088C06BF000019E05C0EC21F0A0C012
:101818006AF088C06BF000019E29C0EC21F000013D
:10182800A0056A6F88C06BF09E51C0EC21F00001E2
:10183800A0296A6F88C06BF09E51C0EC21F00001AE
:10184800A0056A6F88C06BF09E05C0EC21F000010E
:10185800A0296A6F88C06BF09E05C0EC21F00001DA
:10186800A0056A6F88C06BF09E29C0EC21F00001CA
:10187800A0296A6F88C06BF09E29C0EC21F0000196
:101888008C4B8D2B9051A05DA151800A8A6F91518C
:10189800800A8A59D8A053EF0CF055EF0CF095EF59
:1018A8000BF0120000016351800B6C6F63516325CC
:1018B8006E6F62AF62EF0CF064EF0CF065EF0CF046
:1018C8006E816E51D8B46BEF0CF06DEF0CF082EFB7
:1018D8000CF06E29D8A473EF0CF075EF0CF07DEFC7
:1018E8000CF0000E606F000E616F000E626F000E4C
:1018F800636F628F000E636F8AEF0CF0000E606FEB
:10190800000E616F000E626F000E636F6751800BEF
:101918006D6F6C516D19D8B494EF0CF096EF0CF014
:1019280097EF0CF06C8D675167256D6F66AF9FEF71
:101938000CF0A1EF0CF0A2EF0CF06D816D51D8B452
:10194800A8EF0CF0AAEF0CF0BFEF0CF06D29D8A4AB
:10195800B0EF0CF0B2EF0CF0BAEF0CF0000E646FC1
:10196800000E656F000E666F000E676F668F000EC3
:10197800676FC7EF0CF0000E646F000E656F000E06
:10198800666F000E676F6E516D5DD8B0CEEF0CF0CC
:10199800D0EF0CF0F7EF0CF06CADD5EF0CF0D7EF03
:1019A8000CF0D9EF0CF0800E6C1B6EC06FF06DC0A0
:1019B8006EF06FC06DF060C06FF064C060F06FC013
:1019C80064F061C06FF065C061F06FC065F062C01F
:1019D8006FF066C062F06FC066F063C06FF067C0FA
:1019E80063F06FC067F0000E6F6F6E516DC068F0E6
:1019F800696B685F000E695B69BF0CEF0DF0695198
:101A080009E11A0E685DD8A00CEF0DF00EEF0DF08D
:101A180045EF0DF06051611162116311D8A417EF01
:101A28000DF01AEF0DF0010E1BEF0DF0000E6F6FA9
:101A3800000E606F000E616F000E626F000E636F24
:101A48006DC06EF04EEF0DF06FA12DEF0DF02FEF82
:101A58000DF035EF0DF0D8906F3101096F6F37EF4A
:101A68000DF0D8906F3360A13CEF0DF03EEF0DF014
:101A78003FEF0DF06F8F633563336233613360334B
:101A88006E2B6D516E5DD8A04CEF0DF04EEF0DF042
:101A980028EF0DF06CBD53EF0DF055EF0DF095EFFD
:101AA8000DF06E51D8A45BEF0DF05DEF0DF067EF10
:101AB8000DF0000E606F000E616F000E626F000E79
:101AC800636FB6EF0EF0645160276551612366516C
:101AD80062236751632363A174EF0DF076EF0DF075
:101AE80022EF0EF06FA17BEF0DF07DEF0DF083EF8D
:101AF8000DF0D8906F3101096F6F85EF0DF0D89018
:101B08006F3360A18AEF0DF08CEF0DF08DEF0DF0C3
:101B18006F8F633563336233613360336E2B22EF2B
:101B28000EF06451605D65516159665162596351A7
:101B3800800A686F6751800A6859D8B0A6EF0DF01F
:101B4800A8EF0DF0D3EF0DF06051645D686F61513F
:101B58006559696F625166596A6F635167596B6F4E
:101B6800FF0E6825606FFF0E6921616FFF0E6A2105
:101B7800626FFF0E6B21636F800E6C1B6F6D6F5170
:101B8800D8A4C9EF0DF0CBEF0DF0DBEF0DF0010E8F
:101B98006027000E612362236323DBEF0DF064519D
:101BA800605F6551615B6651625B6751635B605161
:101BB800611162116311D8A4E4EF0DF0E6EF0DF0A6
:101BC8001BEF0EF06F51D8A4ECEF0DF0EEEF0DF017
:101BD8001BEF0EF0000E606F000E616F000E626F5B
:101BE800000E636FB6EF0EF0D8906037613762373A
:101BF80063376FAF02EF0EF004EF0EF005EF0EF053
:101C080060816FA10AEF0EF00CEF0EF010EF0EF0EE
:101C1800D8806F3712EF0EF0D8906F376E51D8B466
:101C280018EF0EF01AEF0EF01BEF0EF06E0762AF12
:101C380020EF0EF022EF0EF0F8EF0DF0000E6D6FB2
:101C48006FAF29EF0EF02BEF0EF043EF0EF06FC0E1
:101C580068F07F0E6817D8B434EF0EF036EF0EF048
:101C68003AEF0EF0010E6D6F43EF0EF060A13FEFFB
:101C78000EF041EF0EF043EF0EF036EF0EF06D511F
:101C8800D8B449EF0EF04BEF0EF076EF0EF0010EE0
:101C98006027000E61236223632363A156EF0EF0D1
:101CA80058EF0EF076EF0EF060C068F061C069F092
:101CB80062C06AF063C06BF06B356B336A336933AB
:101CC800683368C060F069C061F06AC062F06BC0D8
:101CD80063F06E29D8B473EF0EF075EF0EF076EF5F
:101CE8000EF06E2B6E29D8B47CEF0EF07EEF0EF05E
:101CF80086EF0EF06E51D8A484EF0EF086EF0EF04A
:101D080098EF0EF0000E606F000E616F000E626FAC
:101D1800000E636F6E51D8A494EF0EF096EF0EF09C
:101D280098EF0EF0000E6C6F6EA19DEF0EF09FEF16
:101D38000EF0A2EF0EF0628FA3EF0EF0629FD89024
:101D48006E31636F6CAFABEF0EF0ADEF0EF0AEEF30
:101D58000EF0638F60C060F061C061F062C062F035
:101D680063C063F012000550800B0E6E0550052409
:101D7800106E04AEC2EF0EF0C4EF0EF0C5EF0EF019
:101D880010801050D8B4CBEF0EF0CDEF0EF0E2EF8C
:101D98000EF01028D8A4D3EF0EF0D5EF0EF0DDEF3B
:101DA8000EF0000E026E000E036E000E046E000EA2
:101DB800056E048E000E056EEAEF0EF0000E026E40
:101DC800000E036E000E046E000E056E0950800BA7
:101DD8000F6E0E500F18D8B4F4EF0EF0F6EF0EF0A9
:101DE800F7EF0EF00E8C095009240F6E08AEFFEFC6
:101DF8000EF001EF0FF002EF0FF00F800F50D8B484
:101E080008EF0FF00AEF0FF01FEF0FF00F28D8A41C
:101E180010EF0FF012EF0FF01AEF0FF0000E066E32
:101E2800000E076E000E086E000E096E088E000E7A
:101E3800096E27EF0FF0000E066E000E076E000EFB
:101E4800086E000E096E10500F5CD8B02EEF0FF020
:101E580030EF0FF057EF0FF00EAC35EF0FF037EF14
:101E68000FF039EF0FF0800E0E1A10C011F00FC0EE
:101E780010F011C00FF002C011F006C002F011C03E
:101E880006F003C011F007C003F011C007F004C04A
:101E980011F008C004F011C008F005C011F009C025
:101EA80005F011C009F0000E116E10500FC00AF0B5
:101EB8000B6A0A5E000E0B5A0BBE6CEF0FF00B504C
:101EC80009E11A0E0A5CD8A06CEF0FF06EEF0FF064
:101ED800A5EF0FF00250031004100510D8A477EFF7
:101EE8000FF07AEF0FF0010E7BEF0FF0000E116E7E
:101EF800000E026E000E036E000E046E000E056EDC
:101F08000FC010F0AEEF0FF011A08DEF0FF08FEFB4
:101F18000FF095EF0FF0D89011300109116E97EF7F
:101F28000FF0D890113202A09CEF0FF09EEF0FF047
:101F38009FEF0FF0118E053405320432033202325E
:101F4800102A0F50105CD8A0ACEF0FF0AEEF0FF0D6
:101F580088EF0FF00EBCB3EF0FF0B5EF0FF0F5EF11
:101F68000FF01050D8A4BBEF0FF0BDEF0FF0C7EF84
:101F78000FF0000E026E000E036E000E046E000ECF
:101F8800056E16EF11F0065002260750032208507E
:101F980004220950052205A0D4EF0FF0D6EF0FF068
:101FA80082EF10F011A0DBEF0FF0DDEF0FF0E3EFA1
:101FB8000FF0D89011300109116EE5EF0FF0D890AD
:101FC800113202A0EAEF0FF0ECEF0FF0EDEF0FF097
:101FD800118E05340532043203320232102A82EFA0
:101FE80010F00650025C075003580850045805507A
:101FF800800A0A6E0950800A0A58D8B006EF10F015
:1020080008EF10F033EF10F00250065C0A6E035030
:1020180007580B6E045008580C6E055009580D6E81
:10202800FF0E0A24026EFF0E0B20036EFF0E0C201B
:10203800046EFF0E0D20056E800E0E1A116C1150E5
:10204800D8A429EF10F02BEF10F03BEF10F0010EA1
:102058000226000E0322042205223BEF10F0065050
:10206800025E0750035A0850045A0950055A025094
:10207800031004100510D8A444EF10F046EF10F038
:102088007BEF10F01150D8A44CEF10F04EEF10F089
:102098007BEF10F0000E026E000E036E000E046E51
:1020A800000E056E16EF11F0D8900236033604368E
:1020B800053611AE62EF10F064EF10F065EF10F026
:1020C800028011A06AEF10F06CEF10F070EF10F0C2
:1020D800D880113672EF10F0D89011361050D8B45D
:1020E80078EF10F07AEF10F07BEF10F0100604AEE6
:1020F80080EF10F082EF10F058EF10F0000E0F6E26
:1021080011AE89EF10F08BEF10F0A3EF10F011C0B3
:102118000AF07F0E0A16D8B494EF10F096EF10F07C
:102128009AEF10F0010E0F6EA3EF10F002A09FEFD0
:1021380010F0A1EF10F0A3EF10F096EF10F00F5091
:10214800D8B4A9EF10F0ABEF10F0D6EF10F0010EF5
:102158000226000E03220422052205A0B6EF10F085
:10216800B8EF10F0D6EF10F002C00AF003C00BF081
:1021780004C00CF005C00DF00D340D320C320B32DA
:102188000A320AC002F00BC003F00CC004F00DC004
:1021980005F01028D8B4D3EF10F0D5EF10F0D6EF33
:1021A80010F0102A1028D8B4DCEF10F0DEEF10F091
:1021B800E6EF10F01050D8A4E4EF10F0E6EF10F0BE
:1021C800F8EF10F0000E026E000E036E000E046EA3
:1021D800000E056E1050D8A4F4EF10F0F6EF10F0D2
:1021E800F8EF10F0000E0E6E10A0FDEF10F0FFEFEC
:1021F80010F002EF11F0048E03EF11F0049ED89056
:102208001030056E0EAE0BEF11F00DEF11F00EEF62
:1022180011F0058E02C002F003C003F004C004F000
:1022280005C005F0120000019451800B9D6F945178
:102238009425A36F93AF23EF11F025EF11F026EF4C
:1022480011F0A381A351D8B42CEF11F02EEF11F0A7
:1022580041EF11F0A329D8A434EF11F036EF11F0B3
:102268003EEF11F0000E916F000E926F000E936F0B
:10227800000E946F938F49EF11F0000E916F000ECE
:10228800926F000E936F000E946F9851800B9D1BF8
:1022980098519825A26F97AF54EF11F056EF11F0AF
:1022A80057EF11F0A281A251D8B45DEF11F05FEFA2
:1022B80011F072EF11F0A229D8A465EF11F067EFC1
:1022C80011F06FEF11F0000E956F000E966F000E73
:1022D800976F000E986F978F7AEF11F0000E956F39
:1022E800000E966F000E976F000E986FA251D8B42B
:1022F80080EF11F082EF11F08AEF11F0A351D8A40A
:1023080088EF11F08AEF11F094EF11F0000E916F41
:10231800000E926F000E936F000E946F2CEF13F067
:1023280097519103F3CFA8F0F4CFA9F0A8519E6F6D
:102338009F6BA06BA16BA951A46FA56BA66BA76B34
:1023480096519203F3CFA8F0F4CFA9F0A8519E2795
:10235800000E9F23A023A123A951A427000EA52383
:10236800A623A72395519303F3CFA8F0F4CFA9F0A0
:10237800A8519E27000E9F23A023A123A951A4277B
:10238800000EA523A623A723A0C0A1F09FC0A0F0FC
:102398009EC09FF09E6B95519203F3CFA8F0F4CFA7
:1023A800A9F0A8519E27A9519F23000EA023000E33
:1023B800A12396519103F3CFA8F0F4CFA9F0A85127
:1023C8009E27A9519F23000EA023000EA123A0C081
:1023D800A1F09FC0A0F09EC09FF09E6B9551910305
:1023E800F3CFA8F0F4CFA9F0A8519E27A9519F23B5
:1023F800000EA023000EA12397519203F3CFA8F05B
:10240800F4CFA9F0A851A427A951A523000EA6230B
:10241800000EA72396519303F3CFA8F0F4CFA9F0A9
:10242800A851A427A951A523000EA623000EA7236F
:1024380097519303F3CFA8F0F4CFA9F0A851996F5F
:10244800A9519A6F9B6B9C6B9BC09CF09AC09BF0A8
:1024580099C09AF0996B9951A4279A51A5239B5139
:10246800A6239C51A7239EC099F09FC09AF0A0C0B4
:102478009BF0A1C09CF0190E47EF12F0D8909C3346
:102488009B339A339933E82E42EF12F09951A427DF
:102498009A51A5239B51A6239C51A723A0C0A1F024
:1024A8009FC0A0F09EC09FF09E6BA251A3C099F060
:1024B8009A6B9927000E9A23820E9925A86FFF0E12
:1024C8009A21A96F7DEF12F0D890A437A537A637C7
:1024D800A737A1AF72EF12F074EF12F075EF12F098
:1024E800A481D8909E379F37A037A137A807D8A0D6
:1024F800A907A6AF82EF12F084EF12F068EF12F08E
:10250800000EA26FA1AF8BEF12F08DEF12F0B1EFBA
:1025180012F0FF0E9E15996FFF0E9F159A6FFF0E12
:10252800A0159B6F7F0EA1159C6F99519A119B1155
:102538009C11D8B4A2EF12F0A4EF12F0A8EF12F099
:10254800010EA26FB1EF12F0A4A1ADEF12F0AFEF40
:1025580012F0B1EF12F0A4EF12F0A251D8B4B7EF15
:1025680012F0B9EF12F0DDEF12F0010EA427000E01
:10257800A523A623A723A7A1C4EF12F0C6EF12F044
:10258800DDEF12F0A4C099F0A5C09AF0A6C09BF0A8
:10259800A7C09CF09C359C339B339A33993399C0E0
:1025A800A4F09AC0A5F09BC0A6F09CC0A7F0A84BC9
:1025B800A92BA9BFE8EF12F0A95108E1A829D8A0D2
:1025C800E8EF12F0EAEF12F0F4EF12F0000EA46F49
:1025D800000EA56F800EA66F7F0EA76F22EF13F077
:1025E800A9BF01EF13F0A95106E1A805D8B0FFEF84
:1025F80012F001EF13F00DEF13F0000EA46F000EB0
:10260800A56F000EA66F000EA76F000E9D6F22EF3C
:1026180013F0A8C0A3F0FF0EA417FF0EA5177F0E96
:10262800A617000EA717A3A11CEF13F01EEF13F0B7
:102638001FEF13F0A68FD890A331A76F9D51A71352
:10264800A4C091F0A5C092F0A6C093F0A7C094F0E2
:1026580012001350800B1C6E13501324226E12AEFE
:1026680038EF13F03AEF13F03BEF13F022802250CB
:10267800D8B441EF13F043EF13F056EF13F02228CC
:10268800D8A449EF13F04BEF13F053EF13F0000EFB
:10269800106E000E116E000E126E000E136E128E6A
:1026A8005EEF13F0000E106E000E116E000E126E2B
:1026B800000E136E1750800B1C1A17501724216E2A
:1026C80016AE69EF13F06BEF13F06CEF13F0218087
:1026D8002150D8B472EF13F074EF13F087EF13F0B2
:1026E8002128D8A47AEF13F07CEF13F084EF13F0CD
:1026F800000E146E000E156E000E166E000E176E8C
:10270800168E8FEF13F0000E146E000E156E000E6D
:10271800166E000E176E2150D8B495EF13F097EF90
:1027280013F09FEF13F02250D8A49DEF13F09FEF02
:1027380013F0A9EF13F0000E106E000E116E000ECC
:10274800126E000E136E41EF15F016501002F3CF03
:1027580027F0F4CF28F027501D6E1E6A1F6A206AE2
:102768002850236E246A256A266A15501102F3CF71
:1027780027F0F4CF28F027501D26000E1E221F2216
:10278800202228502326000E2422252226221450F7
:102798001202F3CF27F0F4CF28F027501D26000EA1
:1027A8001E221F22202228502326000E2422252202
:1027B80026221FC020F01EC01FF01DC01EF01D6A7B
:1027C80014501102F3CF27F0F4CF28F027501D261C
:1027D80028501E22000E1F22000E20221550100223
:1027E800F3CF27F0F4CF28F027501D2628501E22BB
:1027F800000E1F22000E20221FC020F01EC01FF056
:102808001DC01EF01D6A14501002F3CF27F0F4CF3C
:1028180028F027501D2628501E22000E1F22000EC9
:10282800202216501102F3CF27F0F4CF28F02750BA
:10283800232628502422000E2522000E2622155079
:102848001202F3CF27F0F4CF28F027502326285080
:102858002422000E2522000E262216501202F3CF43
:1028680027F0F4CF28F02750186E2850196E1A6AEE
:102878001B6A1AC01BF019C01AF018C019F0186AA0
:1028880018502326195024221A5025221B5026227C
:102898001DC018F01EC019F01FC01AF020C01BF090
:1028A800190E5CEF14F0D8901B321A321932183214
:1028B800E82E57EF14F018502326195024221A50E6
:1028C80025221B5026221FC020F01EC01FF01DC04D
:1028D8001EF01D6A215022C018F0196A1826000E31
:1028E8001922820E1824276EFF0E1920286E92EFE7
:1028F80014F0D890233624362536263620AE87EFB6
:1029080014F089EF14F08AEF14F02380D8901D3664
:102918001E361F3620362706D8A0280625AE97EF84
:1029280014F099EF14F07DEF14F0000E216E20AE34
:10293800A0EF14F0A2EF14F0C6EF14F0FF0E1D1470
:10294800186EFF0E1E14196EFF0E1F141A6E7F0EDE
:1029580020141B6E185019101A101B10D8B4B7EF9A
:1029680014F0B9EF14F0BDEF14F0010E216EC6EFAC
:1029780014F023A0C2EF14F0C4EF14F0C6EF14F063
:10298800B9EF14F02150D8B4CCEF14F0CEEF14F016
:10299800F2EF14F0010E2326000E2422252226220F
:1029A80026A0D9EF14F0DBEF14F0F2EF14F023C0F7
:1029B80018F024C019F025C01AF026C01BF01B34EB
:1029C8001B321A321932183218C023F019C024F0F9
:1029D8001AC025F01BC026F0274A282A28BEFDEF7A
:1029E80014F0285008E12728D8A0FDEF14F0FFEFD5
:1029F80014F009EF15F0000E236E000E246E800E01
:102A0800256E7F0E266E37EF15F028BE16EF15F0EF
:102A1800285006E12704D8B014EF15F016EF15F08A
:102A280022EF15F0000E236E000E246E000E256EA8
:102A3800000E266E000E1C6E37EF15F027C022F030
:102A4800FF0E2316FF0E24167F0E2516000E2616DF
:102A580022A031EF15F033EF15F034EF15F0258E85
:102A6800D8902230266E1C50261223C010F024C0A5
:102A780011F025C012F026C013F0120000017B519E
:102A8800800B886F7B517B258F6F7AAF4EEF15F0E7
:102A980050EF15F051EF15F08F818F51D8B457EFE3
:102AA80015F059EF15F06EEF15F08F29D8A45FEFE8
:102AB80015F061EF15F069EF15F0000E786F000E54
:102AC800796F000E7A6F000E7B6F7A8F000E7B6F26
:102AD80076EF15F0000E786F000E796F000E7A6FA2
:102AE800000E7B6F7F51800B881B7F517F25906F75
:102AF8007EAF81EF15F083EF15F084EF15F090812C
:102B08009051D8B48AEF15F08CEF15F0A1EF15F0BD
:102B18009029D8A492EF15F094EF15F09CEF15F0DA
:102B2800000E7C6F000E7D6F000E7E6F000E7F6FB3
:102B38007E8F000E7F6FA9EF15F0000E7C6F000EE0
:102B48007D6F000E7E6F000E7F6F7C517D117E11B0
:102B58007F11D8A4B2EF15F0B4EF15F0CCEF15F053
:102B6800000E786F000E796F000E7A6F000E7B6F83
:102B7800800E7A137F0E7B1388517B1378C078F010
:102B880079C079F07AC07AF07BC07BF00FEF17F04C
:102B98008F51D8A4D2EF15F0D4EF15F0DEEF15F071
:102BA800000E786F000E796F000E7A6F000E7B6F43
:102BB8000FEF17F090518FC080F0816B805F000E8F
:102BC800815B7F0E8025896F000E81218A6F78C016
:102BD80084F079C085F07AC086F07BC087F0000E5B
:102BE800786F000E796F000E7A6F000E7B6F000E03
:102BF8008B6F000E8C6F000E8D6F000E8E6F000EA7
:102C0800906F3FEF16F09051D8B40DEF16F00FEF1C
:102C180016F026EF16F0D890843785378637873731
:102C2800D890783779377A377B378EAF1EEF16F022
:102C380020EF16F021EF16F07881D8908B378C377B
:102C48008D378E377C51845D7D5185597E518659EB
:102C58007F518759D8A033EF16F035EF16F03EEFC5
:102C680016F08E8D7C51845F7D51855B7E51865B2D
:102C78007F51875B902B190E906545EF16F047EF53
:102C880016F007EF16F08451851186118711D8B414
:102C980050EF16F052EF16F06AEF16F08B816AEFDC
:102CA80016F0D890783779377A377B378EAF5FEF61
:102CB80016F061EF16F062EF16F07881D8908B3736
:102CC8008C378D378E378907D8A08A077AAF6FEF90
:102CD80016F071EF16F055EF16F0000E906F8EAFEC
:102CE80078EF16F07AEF16F09EEF16F0FF0E8B15C0
:102CF800806FFF0E8C15816FFF0E8D15826F7F0E12
:102D08008E15836F8051811182118311D8B48FEF92
:102D180016F091EF16F095EF16F0010E906F9EEFFA
:102D280016F078A19AEF16F09CEF16F09EEF16F0C9
:102D380091EF16F09051D8B4A4EF16F0A6EF16F064
:102D4800CAEF16F0010E7827000E79237A237B2329
:102D58007BA1B1EF16F0B3EF16F0CAEF16F078C00A
:102D680080F079C081F07AC082F07BC083F083352F
:102D7800833382338133803380C078F081C079F027
:102D880082C07AF083C07BF0894B8A2B8ABFD5EF4B
:102D980016F08A5108E18929D8A0D5EF16F0D7EFA7
:102DA80016F0E2EF16F0000E8A6F8969000E786F50
:102DB800000E796F000E7A6F000E7B6F8ABFEFEFFF
:102DC80016F08A5106E18905D8B0EDEF16F0EFEF5D
:102DD80016F0FDEF16F0000E8A6F000E896F000ED8
:102DE800786F000E796F000E7A6F000E7B6F000E01
:102DF800886F89C08FF08FA104EF17F006EF17F0E6
:102E080009EF17F07A8F0AEF17F07A9FD8908F3171
:102E18007B6FC0EF15F012000600F2A016EF17F056
:102E280018EF17F0D1EF18F0410E016EEE0EE82EF4
:102E3800FED7012EFCD700D0F29081AC26EF17F018
:102E480028EF17F027EF18F034503510D8A42FEFDB
:102E580017F031EF17F021EF18F00101C505C61181
:102E6800D8A439EF17F03BEF17F04EEF17F0545096
:102E78005510D8A442EF17F044EF17F04EEF17F0B3
:102E8800344A352A000E556E010E546ED1EF18F0F3
:102E9800D1EF18F0C505C611D8A455EF17F057EFB4
:102EA80017F068EF17F054045510D8A45EEF17F028
:102EB80060EF17F068EF17F0344A352A000E556EA8
:102EC800000E546ED1EF18F0B705B811D8A46FEF03
:102ED80017F071EF17F093EF17F052505310D8A472
:102EE80078EF17F07AEF17F093EF17F04E504F1076
:102EF800D8A481EF17F083EF17F093EF17F0344A57
:102F0800352A000EB46F010EB36F000E536E010E1A
:102F1800526E000E4F6E000E4E6ED1EF18F0B705D0
:102F2800B811D8A49AEF17F09CEF17F0BEEF17F07E
:102F380052045310D8A4A3EF17F0A5EF17F0BEEF73
:102F480017F04E044F10D8A4ACEF17F0AEEF17F0FF
:102F5800BEEF17F0344A352A000EB46F010EB36F76
:102F6800000E4F6E000E4E6E000E536E000E526E27
:102F7800D1EF18F0B705B811D8A4C5EF17F0C7EF0F
:102F880017F0EDEF17F052045310D8A4CEEF17F056
:102F9800D0EF17F0EDEF17F04E504F10D8A4D7EF41
:102FA80017F0D9EF17F0EDEF17F0344A352AAFC113
:102FB80056F0B0C157F0000EB46F010EB36F000E9B
:102FC800C26F010EC16F000E4F6E010E4E6ED1EF33
:102FD80018F0B505B611D8A4F4EF17F0F6EF17F00E
:102FE80007EF18F042044310D8A4FDEF17F0FFEFE5
:102FF80017F007EF18F0344A352A000E436E000E1A
:10300800426ED1EF18F0B505B611D8A40EEF18F03E
:1030180010EF18F04CEF17F042504310D8A417EFF8
:1030280018F019EF18F04CEF17F0344A352A000E53
:10303800436E010E426ED1EF18F0000E356E000E91
:10304800346ED1EF18F081AE2CEF18F02EEF18F097
:10305800D1EF18F0010195519611D8A436EF18F068
:1030680038EF18F0CDEF18F0C505C611D8A43FEF1A
:1030780018F041EF18F083EF18F054505510D8A409
:1030880048EF18F04AEF18F06AEF18F0954B962BB6
:10309800000EB66F000EB56F000EC66F000EC56F3E
:1030A800000EB86F010EB76F000EC26F010EC16F30
:1030B800000E536E000E526E000EC26F010EC16FED
:1030C800000EB46F010EB36FD1EF18F05404551011
:1030D800D8A471EF18F073EF18F04CEF17F0954B78
:1030E800962B000EC66F000EC56F000EB86F000E4F
:1030F800B76F000EB66F010EB56F60EF18F0B70529
:10310800B811D8A48AEF18F08CEF18F0ACEF18F0CB
:10311800954B962B000EC66F010EC56F000EB86F4B
:10312800000EB76F000EC26F010EC16F000EB66FB2
:10313800000EB56F000E4F6E000E4E6E000EC46F7F
:10314800010EC36F000EB46F010EB36FB8EF17F026
:10315800B505B611D8A4B3EF18F0B5EF18F04CEFD9
:1031680017F0954B962B000EC66F010EC56F000E1B
:10317800B86F000EB76F000EB66F000EB56F000E79
:10318800C26F010EC16F000EC46F010EC36F64EFF2
:1031980018F0000E966F000E956F5E92110029C010
:1031A80002F02AC003F0000E03BEFF0E046E056E87
:1031B800010EFFEC1CF002C010F003C011F004C0B7
:1031C80012F005C013F0A10E146EDE0E156EA70ED8
:1031D800166E3C0E176E2DEC13F010C02BF011C0BC
:1031E8002CF012C02DF013C02EF02BC002F02CC012
:1031F80003F02DC004F02EC005F03DEC21F002C014
:1032080046F003C047F02BC012F02CC013F02DC0BD
:1032180014F02EC015F046C002F047C003F0000EAF
:1032280003BEFF0E046E056E010EFFEC1CF002C01B
:1032380016F003C017F004C018F005C019F097EC99
:1032480026F012C02BF013C02CF014C02DF015C0BE
:103258002EF02BC010F02CC011F02DC012F02EC093
:1032680013F0000E146E000E156E200E166E410E31
:10327800176E2DEC13F010C02BF011C02CF012C0FB
:103288002DF013C02EF02BC002F02CC003F02DC07F
:1032980004F02EC005F03DEC21F002C048F003C058
:1032A80049F02BC012F02CC013F02DC014F02EC022
:1032B80015F048C002F049C003F0000E03BEFF0E2F
:1032C800046E056E010EFFEC1CF002C016F003C080
:1032D80017F004C018F005C019F097EC26F012C0DA
:1032E8002BF013C02CF014C02DF015C02EF02BC0FD
:1032F80010F02CC011F02DC012F02EC013F0000EEB
:10330800146E000E156E200E166E410E176E2DEC03
:1033180013F010C02BF011C02CF012C02DF013C008
:103328002EF02BC002F02CC003F02DC004F02EC0EC
:1033380005F03DEC21F002C04AF003C04BF02BC071
:1033480012F02CC013F02DC014F02EC015F04AC096
:1033580002F04BC003F0000E03BEFF0E046E056EB4
:10336800010EFFEC1CF002C016F003C017F004C0F9
:1033780018F005C019F097EC26F012C02BF013C016
:103388002CF014C02DF015C02EF02BC010F02CC05E
:1033980011F02DC012F02EC013F0000E146E000EA6
:1033A800156E200E166E410E176E2DEC13F010C020
:1033B8002BF011C02CF012C02DF013C02EF02BC032
:1033C80002F02CC003F02DC004F02EC005F03DEC37
:1033D80021F002C04CF003C04DF04CC002F04DC0CB
:1033E80003F0D9EC1DF002C03CF003C03DF04AC028
:1033F80002F04BC003F0D9EC1DF002C03AF003C054
:103408003BF048C002F049C003F0D9EC1DF002C0FF
:1034180038F003C039F046C002F047C003F0D9ECD9
:103428001DF0800E0224366E000E0320376E120047
:10343800F5EC26F01BEC25F0010E33EC22F094ECB1
:1034480024F0150E0001FF6F4B0EFE6FBE0EE82E26
:10345800FED7FE2FFCD7FF2FFAD700F096EC22F00C
:103468007BEC1EF00101BCBF48EF1AF0BC51BB1148
:1034780009E1EA0EB95D010EBA59D8B046EF1AF063
:1034880048EF1AF050EF1AF0EA0EB96F010EBA6F52
:10349800000EBB6F000EBC6FBCBF5FEF1AF0BC51D3
:1034A800BB110BE1250EB95DF40EBA59D8A05FEF38
:1034B8001AF061EF1AF069EF1AF0240EB96FF40EE2
:1034C800BA6F000EBB6F000EBC6FC0BF70EF1AF072
:1034D8006EEF1AF074EF1AF0000EC06F000EBF6F97
:1034E800C0BF80EF1AF0C05109E1650EBF5DD8A0DA
:1034F80080EF1AF082EF1AF086EF1AF0000EC06F14
:10350800640EBF6FB9C17AF0BAC17BF0BBC17CF061
:10351800BCC17DF02BEC26F0BFC16AF0C0C16BF0D6
:103528000001000E6BBFFF0E6C6F6D6F010E23EC78
:103538001CF06AC0C7F16BC0C8F16CC0C9F16DC09E
:10354800CAF1C7C1AAF0C8C1ABF0C9C1ACF0CAC1C1
:10355800ADF0B4EC23F0C2820101B305B411D8A4D4
:10356800B8EF1AF0BAEF1AF0C1EF1AF0000EB46F04
:10357800000EB36F000E05EC24F00101C505C6115D
:10358800D8A4C9EF1AF0CBEF1AF0D7EF1AF0000E53
:10359800B86F000EB76F000EB66F000EB56F25EC52
:1035A8001BF01FEF1BF0B705B811D8A4DEEF1AF017
:1035B800E0EF1AF00CEF1BF0000EC66F000EC56F9F
:1035C800000EB66F000EB56FC20E0001FE6FFF0E43
:1035D800FF6FB1C160F0B2C161F0000E636F040EFD
:1035E800626FF9EC22F00001FE516027FF51612360
:1035F800601F611F604B612B60C0AFF161C0B0F10B
:10360800AFC1A2F0B0C1A3F038EC06F01FEF1BF079
:10361800B505B611D8A413EF1BF015EF1BF01FEF7B
:103628001BF0000EC66F000EC56F000EB86F000EBF
:10363800B76F37EC00F0C7EC25F0AFEF1AF035EFB5
:1036480000F00101C305C411D8A42DEF1BF02FEF22
:103658001BF0B2EF1BF021EE10F010EE80F00F0E11
:10366800DBCFE3FFE806FCE221EE20F010EEA0F04D
:103678000E0EDBCFE3FFE806FCE221EE00F010EED1
:1036880090F00F0EDBCFE3FFE806FCE28AC1AFF053
:103698008BC1B0F088C1B1F089C1B2F0000E000151
:1036A8006A6F020E5AEC25F0800E0001736F000E4F
:1036B800746F010E756F010E766FFCEC25F0020E2B
:1036C80000016A6F020E5AEC25F0A00E0001736F1C
:1036D800000E746F010E756F010E766FFCEC25F00D
:1036E800030E00016A6F020E5AEC25F0900E0001DD
:1036F800736F000E746F010E756F010E766FFCEC20
:1037080025F0030E00016A6F020E5AEC25F0050E33
:1037180000016A6F2A0E5AEC25F0AF0E0001736F94
:10372800000E746F010E756F010E766FFCEC25F0BC
:10373800050E00016A6F520E5AEC25F0B10E000119
:10374800736F000E746F010E756F010E766FFCECCF
:1037580025F0000E0101C46F000EC36F54505510C0
:10376800D8A4B9EF1BF0BBEF1BF0EBEF1BF0000E7A
:103778000001726F520E716F000E746F340E736F0A
:10378800000E766F5A0E756F000E786F340E776FD5
:10379800000E7A6F000E796F5CEC23F0000E0001CA
:1037A800726F2A0E716F000E746F340E736F000EF5
:1037B800766F320E756F000E786F340E776F000ECD
:1037C8007A6F010E796F5CEC23F022EF1CF0540441
:1037D8005510D8A4F2EF1BF0F4EF1BF022EF1CF009
:1037E800000E0001726F520E716F000E746F340E6E
:1037F800736F000E766F5A0E756F000E786F340E69
:10380800776F000E7A6F010E796F5CEC23F0000E73
:103818000001726F2A0E716F000E746F340E736F91
:10382800000E766F320E756F000E786F340E776F5C
:10383800000E7A6F000E796F5CEC23F01200000125
:10384800726F00017251D8B42CEF1CF02EEF1CF0EF
:1038580050EF1CF06DBF35EF1CF033EF1CF050EF4C
:103868001CF06AC06EF06BC06FF06CC070F06DC079
:1038780071F06E1F6F1F701F711F6E2B000E6F236C
:10388800702371236EC074F06FC075F070C076F04D
:1038980071C077F058EF1CF06AC074F06BC075F017
:1038A8006CC076F06DC077F06A516B116C116D11B8
:1038B800D8A461EF1CF063EF1CF06DEF1CF0000E54
:1038C8006A6F000E6B6F000E6C6F000E6D6FFEEF6F
:1038D8001CF0960E736F77EF1CF0732BD89077332C
:1038E800763375337433000E74156E6F000E7515CC
:1038F8006F6F000E7615706FFE0E7715716F6E5133
:103908006F1170117111D8A48CEF1CF08EEF1CF0A0
:1039180071EF1CF09CEF1CF0732B010E7427000E46
:10392800752376237723D8907733763375337433BA
:10393800000E74156E6F000E75156F6F000E7615FC
:10394800706FFF0E7715716F6E516F1170117111D5
:10395800D8A4B1EF1CF0B3EF1CF090EF1CF0BBEF54
:103968001CF07307D890743775377637773776BF7A
:10397800C0EF1CF0C2EF1CF0CAEF1CF0020E73611E
:10398800C8EF1CF0CAEF1CF0B5EF1CF073B1CFEF15
:103998001CF0D1EF1CF0D2EF1CF0769FD890733357
:1039A80073C06EF06F6B706B716B6EC071F0706B83
:1039B8006F6B6E6B6E5174136F5175137051761374
:1039C800715177137251D8B4ECEF1CF0EEEF1CF084
:1039D800F6EF1CF06DBFF5EF1CF0F3EF1CF0F6EFFF
:1039E8001CF0778F74C06AF075C06BF076C06CF00D
:1039F80077C06DF012000A6E0A50D8B406EF1DF0B9
:103A080008EF1DF02AEF1DF005BE0FEF1DF00DEFBA
:103A18001DF02AEF1DF002C006F003C007F004C035
:103A280008F005C009F0061E071E081E091E062A12
:103A3800000E07220822092206C00CF007C00DF06C
:103A480008C00EF009C00FF032EF1DF002C00CF0F4
:103A580003C00DF004C00EF005C00FF002500310B3
:103A680004100510D8A43BEF1DF03DEF1DF047EF03
:103A78001DF0000E026E000E036E000E046E000EA6
:103A8800056ED8EF1DF0960E0B6E51EF1DF00B2A48
:103A9800D8900F320E320D320C32000E0C14066E16
:103AA800000E0D14076E000E0E14086EFE0E0F1495
:103AB800096E0650071008100910D8A466EF1DF00B
:103AC80068EF1DF04BEF1DF076EF1DF00B2A010E8D
:103AD8000C26000E0D220E220F22D8900F320E3225
:103AE8000D320C32000E0C14066E000E0D14076E0B
:103AF800000E0E14086EFF0E0F14096E0650071004
:103B080008100910D8A48BEF1DF08DEF1DF06AEF97
:103B18001DF095EF1DF00B06D8900C360D360E36BD
:103B28000F360EBE9AEF1DF09CEF1DF0A4EF1DF0AE
:103B3800020E0B60A2EF1DF0A4EF1DF08FEF1DF039
:103B48000BB0A9EF1DF0ABEF1DF0ACEF1DF00E9E12
:103B5800D8900B320BC006F0076A086A096A06C0DB
:103B680009F0086A076A066A06500C1207500D1217
:103B780008500E1209500F120A50D8B4C6EF1DF0A3
:103B8800C8EF1DF0D0EF1DF005BECFEF1DF0CDEF53
:103B98001DF0D0EF1DF00F8E0CC002F00DC003F029
:103BA8000EC004F00FC005F0120002500310D8A494
:103BB800E0EF1DF0E2EF1DF0E8EF1DF0000E036EE0
:103BC8003F0E026E7AEF1EF002040310D8A4EFEF46
:103BD8001DF0F1EF1DF0F7EF1DF0000E036E060E5D
:103BE800026E7AEF1EF0020E02180310D8A4FFEF3F
:103BF8001DF001EF1EF007EF1EF0000E036E5B0EC6
:103C0800026E7AEF1EF0030E02180310D8A40FEF0D
:103C18001EF011EF1EF017EF1EF0000E036E4F0E90
:103C2800026E7AEF1EF0040E02180310D8A41FEFDC
:103C38001EF021EF1EF027EF1EF0000E036E660E39
:103C4800026E7AEF1EF0050E02180310D8A42FEFAB
:103C58001EF031EF1EF037EF1EF0000E036E6D0EF2
:103C6800026E7AEF1EF0060E02180310D8A43FEF7A
:103C78001EF041EF1EF047EF1EF0000E036E7D0EA2
:103C8800026E7AEF1EF0070E02180310D8A44FEF49
:103C98001EF051EF1EF057EF1EF0000E036E070ED8
:103CA800026E7AEF1EF0080E02180310D8A45FEF18
:103CB8001EF061EF1EF067EF1EF0000E036E7F0E20
:103CC800026E7AEF1EF0090E02180310D8A46FEFE7
:103CD8001EF071EF1EF077EF1EF0000E036E6F0EF0
:103CE800026E7AEF1EF0000E036E026812007BC1AE
:103CF8008CF07CC18DF07DC18EF021EE6FF010EE5E
:103D080087F0040EDBCFE3FFE806FCE28CC18FF0FE
:103D18008DC190F021EE39F010EE79F0070EDBCF6F
:103D2800E3FFE806FCE221EE63F010EE81F0050EF9
:103D3800DBCFE3FFE806FCE2000E00016A6F340EF9
:103D48005AEC25F08C0E0001736F000E746F010E93
:103D5800756F010E766FFCEC25F0020E00016A6F9C
:103D68002D0E5AEC25F0870E0001736F000E746F4C
:103D7800010E756F010E766FFCEC25F0030E000145
:103D88006A6F360E5AEC25F08F0E0001736F000E25
:103D9800746F010E756F010E766FFCEC25F0040E42
:103DA80000016A6F230E5AEC25F0790E0001736F3B
:103DB800000E746F010E756F010E766FFCEC25F026
:103DC800050E00016A6F360E5AEC25F08F0E0001C1
:103DD800736F000E746F010E756F010E766FFCEC39
:103DE80025F0060E00016A6F290E5AEC25F0810EA7
:103DF8000001736F000E746F010E756F010E766F00
:103E0800FCEC25F0150E0001786F4B0E776FBE0E97
:103E1800E82EFED7772FFCD7782FFAD700F0000EC0
:103E280005EC24F000D0120000016F6F000E0001B5
:103E3800726F0A0E6F19D8A424EF1FF026EF1FF037
:103E48002BEF1FF0000E596E582AA4EF1FF03F0EFB
:103E5800596431EF1FF033EF1FF03AEF1FF0010EF6
:103E6800726F5950C00F706F3CEF1FF059C070F05F
:103E78006F51080DF3CF6DF0F4CF6EF0000E716F37
:103E88003F0E70654AEF1FF04CEF1FF05FEF1FF019
:103E9800400E705F010E726F8A9470514009686F0E
:103EA800010ED8EC26F05850B8090001686F010ED1
:103EB800D8EC26F08A8400016A51D8B466EF1FF066
:103EC80068EF1FF080EF1FF03B0E6B6F730E6C6F87
:103ED80071516B27000E6C236D516B276E516C234B
:103EE8006BC0F6FF6CC0F7FF0800F5CF68F07251A1
:103EF800D8EC26F097EF1FF03B0E6B6F730E6C6FCC
:103F080071516B27000E6C236D516B276E516C231A
:103F18006BC0F6FF6CC0F7FF0800F550FF0A686F2A
:103F28007251D8EC26F00001702B712B070E7165C9
:103F3800A0EF1FF0A2EF1FF044EF1FF0080E592664
:103F4800120000016E6F000E0001706F0A0E6E19EC
:103F5800D8A4B1EF1FF0B3EF1FF0B8EF1FF0000EB9
:103F6800596E582A31EF20F03F0E5964BEEF1FF00A
:103F7800C0EF1FF0C7EF1FF0010E706F5950C00F50
:103F88006D6FC9EF1FF059C06DF0200E6E5F000E07
:103F98006F6F3F0E6D65D3EF1FF0D5EF1FF0E8EFA1
:103FA8001FF0400E6D5F010E706F8A946D514009CD
:103FB800686F010ED8EC26F05850B8090001686FF8
:103FC800010ED8EC26F08A8400016A51D8B4EFEFCC
:103FD8001FF0F1EF1FF00BEF20F06E51030D3B0EB9
:103FE8006B6F7F0E6C6FF3506B27F4506C236F511F
:103FF8006B27000E6C236BC0F6FF6CC0F7FF080040
:10400800F5CF68F07051D8EC26F024EF20F06E510F
:10401800030D3B0E6B6F7F0E6C6FF3506B27F450E4
:104028006C236F516B27000E6C236BC0F6FF6CC0BE
:10403800F7FF0800F550FF0A686F7051D8EC26F0BA
:1040480000016D2B6F2B020E6F652DEF20F02FEF07
:1040580020F0CDEF1FF0050E59261200000E0001CA
:10406800756F73BF3CEF20F03AEF20F046EF20F079
:10407800731F721F711F706D000E712372237323DB
:10408800010E756F6FBF4DEF20F04BEF20F057EF2B
:1040980020F06F1F6E1F6D1F6C6D000E6D236E2359
:1040A8006F23010E751B000E766F000E776F000EE2
:1040B800786F000E796F7051711172117311D8B445
:1040C80068EF20F06AEF20F0A0EF20F0010E746F87
:1040D80074EF20F0D8907037713772377337742BBC
:1040E80073AF79EF20F07BEF20F06EEF20F0D890DF
:1040F800763777377837793770516C5D71516D59EC
:1041080072516E5973516F59D8A08DEF20F08FEF0F
:1041180020F098EF20F070516C5F71516D5B725117
:104128006E5B73516F5B7681D890733372337133E2
:104138007033742F7BEF20F07551D8B4A6EF20F0C0
:10414800A8EF20F0B0EF20F0791F781F771F766D69
:10415800000E77237823792376C06CF077C06DF052
:1041680078C06EF079C06FF01200000162356335D7
:10417800696F6951D8A4C3EF20F0C5EF20F0CFEFE5
:1041880020F0000E606F000E616F000E626F000E6F
:10419800636F3CEF21F060C064F061C065F062C0FD
:1041A80066F063C067F0200EDFEF20F0D890673329
:1041B800663365336433E82EDAEF20F06451686FB4
:1041C800628FFF0E6017FF0E6117FF0E6217000E59
:1041D8006317960E695F69BFF6EF20F0F4EF20F0E1
:1041E8000CEF21F06951800A970FD8B0FEEF20F04C
:1041F80000EF21F002EF21F0C5EF20F0D8906333F3
:10420800623361336033693F02EF21F024EF21F01C
:104218001F0E696512EF21F014EF21F01CEF21F059
:10422800C5EF20F0D8906037613762376337690788
:104238006951D8A422EF21F024EF21F016EF21F0E4
:104248006851D8B42AEF21F02CEF21F034EF21F097
:10425800631F621F611F606D000E61236223632369
:1042680060C060F061C061F062C062F063C063F07A
:104278001200043405340B6E0B50D8A446EF21F01D
:1042880048EF21F052EF21F0000E026E000E036E8F
:10429800000E046E000E056EBFEF21F002C006F09E
:1042A80003C007F004C008F005C009F0200E62EF53
:1042B80021F0D8900932083207320632E82E5DEF35
:1042C80021F006500A6E048EFF0E0216FF0E03162A
:1042D800FF0E0416000E0516960E0B5E0BBE79EF48
:1042E80021F077EF21F08FEF21F00B50800A970F24
:1042F800D8B081EF21F083EF21F085EF21F048EF6E
:1043080021F0D89005320432033202320B3E85EF99
:1043180021F0A7EF21F01F0E0B6495EF21F097EF26
:1043280021F09FEF21F048EF21F0D89002360336B4
:10433800043605360B060B50D8A4A5EF21F0A7EFDD
:1043480021F099EF21F00A50D8B4ADEF21F0AFEF8A
:1043580021F0B7EF21F0051E041E031E026C000EAB
:1043680003220422052202C002F003C003F004C0A5
:1043780004F005C005F0120000016E6F000E000188
:10438800706F3F0E6E65CBEF21F0CDEF21F0D1EFCE
:1043980021F0400E6E5F010E706F8A946E9F6E8DD5
:1043A8006EC068F07051D8EC26F06AC060F0000169
:1043B800616B000E636F080E626FF9EC22F000016A
:1043C8006051BF0BB809686F7051D8EC26F08A8429
:1043D80000017051BAEC26F000017051BAEC26F0D9
:1043E80000016F6F8A946EC068F07051D8EC26F0A7
:1043F80000016B51D8B403EF22F005EF22F019EF5A
:1044080022F06AC06CF0070E6C17010E6D6F6C2BF2
:1044180010EF22F0D8906D376C2F0EEF22F00001CC
:104428006D516F116F6F2CEF22F06AC06CF0070EA0
:104438006C17010E6D6F6C2B24EF22F0D8906D373E
:104448006C2F22EF22F000016D51FF0A6F156F6F7C
:104458008A846FC068F07051D8EC26F01200000111
:104468006E6F000E836E8A9A270E00016D6FF50E2F
:10447800E82EFED76D2FFCD78A8A8A988A908A926E
:104488008A94270E00016D6FF50EE82EFED76D2F6A
:10449800FCD7C00E0001686F000ED8EC26F0C00EE5
:1044A8000001686F010ED8EC26F0400E0001686F1D
:1044B800000ED8EC26F0400E0001686F010ED8EC13
:1044C80026F0B80E0001686F000ED8EC26F0B80E82
:1044D8000001686F010ED8EC26F000016E05D8A423
:1044E80078EF22F07AEF22F087EF22F03F0E686F24
:1044F800000ED8EC26F03F0E0001686F010ED8ECD4
:1045080026F092EF22F03E0E686F000ED8EC26F0EF
:104518003E0E0001686F010ED8EC26F0000E05EC87
:1045280024F0120021EE56F010EE83F0060EDBCFD9
:10453800E3FFE806FCE221EE69F010EE8AF0050ED2
:10454800DBCFE3FFE806FCE221EE2FF010EE79F076
:10455800090EDBCFE3FFE806FCE2000E05EC24F0D1
:10456800020E00016A6F120E5AEC25F0830E00014C
:10457800736F000E746F010E756F010E766FFCEC91
:1045880025F0020E00016A6F4E0E5AEC25F08A0ED5
:104598000001736F000E746F010E756F010E766F58
:1045A800FCEC25F0050E00016A6F1A0E5AEC25F096
:1045B800790E0001736F000E746F010E756F010E96
:1045C800766FFCEC25F0150E0001786F4B0E776FB7
:1045D800BE0EE82EFED7772FFCD7782FFAD700F03B
:1045E800000E05EC24F000D01200000E0001656FEB
:1045F80063BF03EF23F001EF23F009EF23F0626DAF
:10460800631FD8B0632B010E656F61BF10EF23F0F5
:104618000EEF23F016EF23F0606D611FD8B0612B09
:10462800010E651B000E676F000E666F6251631105
:10463800D8B421EF23F023EF23F04BEF23F0010E42
:10464800646F2BEF23F0D89062376337642B63AF26
:1046580030EF23F032EF23F027EF23F0D8906637BE
:1046680067376251605D63516159D8A03EEF23F00E
:1046780040EF23F045EF23F06251605F6351615BC7
:104688006681D89063336233642F32EF23F065512B
:10469800D8B451EF23F053EF23F057EF23F0666DB2
:1046A800671FD8B0672B66C060F067C061F0120062
:1046B80000017551711907E176517219D8A467EF95
:1046C80023F069EF23F088EF23F073C07CF074C007
:1046D8007DF079EF23F07CC06AF079C06BF07151FE
:1046E800C0EC21F000017C4B7D2B77517C5D7D5126
:1046F800800A7B6F7851800A7B59D8A086EF23F017
:1047080088EF23F06FEF23F07751731907E17851A1
:104718007419D8A492EF23F094EF23F0B3EF23F0A9
:1047280071C07EF072C07FF0A4EF23F073C06AF00E
:1047380079C06BF07E51C0EC21F000017E4B7F2BDD
:1047480075517E5D7F51800A7B6F7651800A7B5957
:10475800D8A0B1EF23F0B3EF23F09AEF23F01200C3
:10476800CB500001AE6FAF6B010EAE27000EAF232A
:10477800AEC06AF0AFC06BF0000E6BBFFF0E6C6F7F
:104788006D6F010E23EC1CF06AC091F06BC092F0C3
:104798006CC093F06DC094F0000E00017C6F000EA9
:1047A8007D6FC80E7E6F420E7F6FAAC078F0ABC0D7
:1047B80079F0ACC07AF0ADC07BF042EC15F078C06F
:1047C80095F079C096F07AC097F07BC098F017EC16
:1047D80011F091C0B0F092C0B1F093C0B2F094C0A3
:1047E800B3F0B0C060F0B1C061F0B2C062F0B3C065
:1047F80063F0B9EC20F000016051BB6EBA9ABA9828
:10480800120000016A6F000E00016C6F8A94400E5E
:10481800686F000ED8EC26F0400E0001686F010E9C
:10482800D8EC26F000016C51B809686F000ED8EC7E
:1048380026F000016C51B809686F010ED8EC26F01B
:104848008A84000E00016B6F6A51010DF350000855
:10485800686F000ED8EC26F000016A51010DF35084
:104868000008686F010ED8EC26F000016B2B3F0E94
:104878006B6541EF24F043EF24F028EF24F06C2B14
:10488800070E6C654AEF24F04CEF24F00AEF24F091
:104898001200322E52656374616E67756C616972BD
:1048A800650043686F6973697220756E206D6F6467
:1048B8006500312E4F7363696C6C6F73636F70653D
:1048C800004561737953434F5045005175656E74C7
:1048D800696E004D6F64653A32004D6F64653A3118
:1048E800005242363D4F4B0050726F6A6574004665
:1048F8007265713A004A756C6573004D4355203AEC
:1049080000457269630044433A00487A00627900BE
:1049180025007C00450032003100320031002600BD
:10492800000E00016B6F000E6A6F000E6D6F000EB7
:104938006E6F8A94400E686F6E51D8EC26F00001B5
:104948006D51B809686F6E51D8EC26F08A84000E54
:1049580000016C6F3B0E6A25F66E7B0E6B21F76EBD
:104968000800F5CF68F06E51D8EC26F000016A4BCC
:104978006B2B6C2B3F0E6C65C4EF24F0C6EF24F054
:10498800AEEF24F06E2B010E6E65CDEF24F0CFEF65
:1049980024F09DEF24F06D2B070E6D65D6EF24F003
:1049A800D8EF24F09BEF24F08A908A92120000013D
:1049B8007E517A5D606F7F517B59616F80517C5960
:1049C800626F81517D59636F86518A5D646F87512B
:1049D8008B59656F88518C59666F89518D59676FEE
:1049E80091EC25F060C06CF061C06DF062C06EF0B3
:1049F80063C06FF000017E51825D706F7F518359F3
:104A0800716F80518459726F81518559736F32EC7F
:104A180020F0000186516C257A6F87516D217B6FDC
:104A280088516E217C6F89516F217D6F1200EA0ECB
:104A38000101B96F010EBA6F000EBB6F000EBC6F9B
:104A4800000EC06F320EBF6F000EC26F010EC16F35
:104A5800000E536E000E526E000EC46F010EC36F2F
:104A6800808A000EB86F000EB76F000EB66F000E8A
:104A7800B56F000EC66F010EC56F000E436E000EB7
:104A8800426E000E556E000E546E000E4F6E000EF4
:104A98004E6E000E5D6E030E5C6E000E5B6E020EB7
:104AA8005A6E000EBE6F0A0EBD6F120000016C6FC9
:104AB800000E00016B6F800E6C6165EF25F067EFEB
:104AC80025F090EF25F0070E6A656DEF25F06FEF82
:104AD80025F071EF25F090EF25F06CC059F06AC011
:104AE80058F03F0E6C657BEF25F07DEF25F081EFE8
:104AF80025F0400E6C5F010E6B6F8A946C51400973
:104B0800686F6B51D8EC26F000016A51B809686FDC
:104B18006B51D8EC26F08A841200000E0001686FF1
:104B2800000E696F000E6A6F000E6B6F60A19FEF39
:104B380025F0A1EF25F0A9EF25F06451682765510C
:104B4800692366516A2367516B23D89064376537A8
:104B580066376737D89063336233613360336051A7
:104B6800611162116311D8A4BCEF25F0BEEF25F0E6
:104B78009AEF25F068C060F069C061F06AC062F021
:104B88006BC063F0120036C083FF8086080E0001F8
:104B9800606FC90EE82EFED7602FFCD700D0809634
:104BA8003CC083FF8080080E0001606FC90EE82EAC
:104BB800FED7602FFCD700D080903AC083FF808258
:104BC800080E0001606FC90EE82EFED7602FFCD7D3
:104BD80000D0809238C083FF8084080E0001606F87
:104BE800C90EE82EFED7602FFCD700D080941200A3
:104BF8001EEF26F000017551D8B405EF26F007EF37
:104C080026F012EF26F076C06AF073C0D9FF74C0A0
:104C1800DAFFDF5018EC1FF01BEF26F076C06AF0C1
:104C280073C0D9FF74C0DAFFDF50A5EC1FF0000194
:104C3800734B742B73C0D9FF74C0DAFFDF50D8A44C
:104C480028EF26F02AEF26F0FEEF25F01200720E6C
:104C5800D36EFD0E946E0C0EBA6E000ECC6E070E5F
:104C6800CA6E00017A5148086C6FE80E7B556D6F6B
:104C7800010E7C556E6F000E7D556F6F7AC070F017
:104C88007BC071F07CC072F07DC073F032EC20F014
:104C980000016C51CB6E1200000E00017C1B000E4F
:104CA8007D1B000E7E1B800E7F1B78C060F079C0D4
:104CB80061F07AC062F07BC063F07CC064F07DC0B4
:104CC80065F07EC066F07FC067F056EC0CF060C0FF
:104CD80078F061C079F062C07AF063C07BF01200AE
:104CE8009A0EF66E480EF76E000EF86E01EE00F0A2
:104CF80010EE8EF00900F5CFEEFFE550E150FAE135
:104D080001EE8EF02B0EEE6AE806FDE100EE34F0BF
:104D1800260EEE6AE806FDE15E905E92000EF86EE1
:104D280000011CEF1AF0000E161A000E171A000EDA
:104D3800181A800E191A12C002F013C003F014C01A
:104D480004F015C005F016C006F017C007F018C02B
:104D580008F019C009F0B7EC0EF002C012F003C059
:104D680013F004C014F005C015F012000001606FC4
:104D780000016051D8B4C3EF26F0C5EF26F0C9EFA3
:104D880026F08A808A92CBEF26F08A928A829568EA
:104D98008A868A8800D083CF61F08A9800D08A906A
:104DA8008A920001615112000001696F0001695186
:104DB800D8B4E1EF26F0E3EF26F0E7EF26F08A809B
:104DC8008A92E9EF26F08A928A82000E956E8A9678
:104DD80068C08CFF8A8800D08A9800D08A908A920E
:104DE8001200000E956E000E836E0A0EC16E110E33
:104DF800C26EF00E926E000E806EC00E936E000EA4
:104E0800816E040E966E000E846EF28ED08E9D8C8E
:104E18009F9CF28CF286F18012008EC17CF08FC1CB
:104E28007DF090C17EF091C17FF078C07CF079C0B0
:104E38007DF07AC07EF07BC07FF000017F9F7CC050
:104E480078F07DC079F07EC07AF07FC07BF01200E8
:10733A000000000000000000000000000000000043
:10734A000000000000000000000000000000000033
:10735A000000000000000000000000000000000023
:10736A000000000000000000000000000000000013
:10737A000000000000000000000000000000000003
:10738A0000000000000000000000000000000000F3
:10739A0000000000000000000000000000000000E3
:1073AA0000000000000000000000000000000000D3
:1073BA0000000000000000000000000000000000C3
:1073CA0000000000000000000000000000000000B3
:1073DA0000000000000000000000000000000000A3
:1073EA000000000000000000000000000000000093
:1073FA000000000000000000000000000000000083
:10740A000000000000000000000000000000000072
:10741A000000000000000000000000000000000062
:10742A000000000000000000000000000000000052
:10743A0000000000000000000000065F5F06000078
:10744A00000007070007070000147F7F147F7F14DE
:10745A0000242E6B6B3A120000466630180C6662E6
:10746A0000307A4F5D377A480004070300000000B5
:10747A0000001C3E63410000000041633E1C000006
:10748A0000082A3E1C1C3E2A0808083E3E0808003E
:10749A00000080E0600000000008080808080800F2
:1074AA000000006060000000006030180C06030154
:1074BA00003E7F71594D7F3E0040427F7F40400031
:1074CA0000627359496F660000226349497F36009A
:1074DA0000181C16537F7F5000276745457D3900E9
:1074EA00003C7E4B4979300000030371790F070095
:1074FA0000367F49497F360000064F49693F1E0022
:10750A000000006666000000000080E666000000D9
:10751A0000081C366341000000242424242424008B
:10752A0000004163361C080000020351590F06008F
:10753A00003E7F415D5D1F1E007C7E13137E7C0032
:10754A0000417F7F49497F36001C3E6341416322E7
:10755A0000417F7F41633E1C00417F7F495D41635B
:10756A0000417F7F491D0103001C3E634151737234
:10757A00007F7F08087F7F000000417F7F41000075
:10758A0000307040417F3F0100417F7F081C7763D4
:10759A0000417F7F41406070007F7F0E1C0E7F7F1D
:1075AA00007F7F060C187F7F001C3E6341633E1CF0
:1075BA0000417F7F49090F06001E3F21717F5E004F
:1075CA0000417F7F09197F6600266F4D597332008B
:1075DA000003417F7F410300007F7F40407F7F009F
:1075EA00001F3F60603F1F00007F7F3018307F7FA1
:1075FA000043673C183C674300074F78784F070001
:10760A0000476371594D677300007F7F4141000055
:10761A00000103060C183060000041417F7F000022
:10762A0000080C0603060C08008080808080808099
:10763A00800000030704000000207454543C784082
:10764A0000417F3F4848783000387C44446C280029
:10765A0000307848493F7F4000387C54545C180019
:10766A0000487E7F490302000098BCA4A4F87C0469
:10767A0000417F7F08047C780000447D7D40000043
:10768A000060E08080FD7D0000417F7F10386C44FF
:10769A000000417F7F400000007C7C18381C7C7809
:1076AA00007C7C04047C780000387C44447C3800EC
:1076BA000084FCF8A4243C1800183C24A4F8FC8498
:1076CA0000447C784C041C1800485C545474240010
:1076DA000000043E7F442400003C7C40403C7C4047
:1076EA00001C3C60603C1C00003C7C7038707C3C98
:1076FA0000446C3810386C44009CBCA0A0FC7C0090
:10770A00004C64745C4C64000008083E77414100F8
:10771A000000000077770000004141773E0808002A
:10772A0000020301030203010070784C464C787092
:10773A00000E9F91B1FB4A00003A7A40407A7A40A3
:10774A0000387C54555D19000002237555557D7B20
:10775A0042217554547D794000217555547C7840F6
:10776A0000207457577C784000183CA4A4E44000D9
:10777A0000023B7D55555D1B02397D54545D19004D
:10778A0000397D55545C18000001457C7C4101009C
:10779A00000203457D7D43020001457D7C400000D7
:1077AA0000797D1612167D790070782B2B7870007F
:1077BA0000447C7C5555450000207454547C7C540C
:1077CA00547C7E0B097F7F4900327B49497B32001A
:1077DA0000327A48487A320000327A4A48783000D1
:1077EA00003A7B41417B7A40003A7A4240787840BD
:1077FA00009ABAA0A0FA7A000001193C66663C1900
:10780A00013D7D40407D3D0000183C24E7E72424EB
:10781A0000687E7F49436620002B2FFCFC2F2B003B
:10782A0000FFFF09092FF6F8A040C088FE7F090370
:10783A0002207454557D79400000447D7D4100004A
:10784A00003078484A7A320000387840427A7A40E2
:10785A00007A7A0A0A7A7000007D7D19317D7D00EE
:10786A000000262F292F2F280000262F292F260037
:10787A000030784D456020000038380808080800B4
:10788A000008080808383800004F6F3018CCEEBBE3
:10789A00914F6F30186C76FBF90000007B7B00007B
:1078AA0000081C3622081C362222361C0822361CE6
:1078BA0008AA005500AA005500AA55AA55AA55AA11
:1078CA0055DDFFAA77DDAAFF77000000FFFF000061
:1078DA0000101010FFFF000000141414FFFF000036
:1078EA00001010FFFF00FFFF001010F0F010F0F082
:1078FA0000141414FCFC0000001414F7F700FFFF36
:10790A00000000FFFF00FFFF001414F4F404FCFC65
:10791A000014141717101F1F0010101F1F101F1F0D
:10792A00001414141F1F000000101010F0F00000C3
:10793A00000000001F1F1010101010101F1F101041
:10794A0010101010F0F0101010000000FFFF1010BF
:10795A00101010101010101010101010FFFF10103F
:10796A0010000000FFFF1414140000FFFF00FFFFC7
:10797A001000001F1F101717140000FCFC04F4F479
:10798A001414141717101717141414F4F404F4F435
:10799A00140000FFFF00F7F714141414141414143D
:1079AA00141414F7F700F7F714141414171714140F
:1079BA001410101F1F101F1F10141414F4F41414A1
:1079CA00141010F0F010F0F01000001F1F101F1F0D
:1079DA00100000001F1F141414000000FCFC1414F3
:1079EA00140000F0F010F0F0101010FFFF10FFFF6D
:1079FA0010141414FFFF1414141010101F1F000089
:107A0A0000000000F0F0101010FFFFFFFFFFFFFF63
:107A1A00FFF0F0F0F0F0F0F0F0FFFFFFFF000000E1
:107A2A000000000000FFFFFFFF0F0F0F0F0F0F0FE7
:107A3A000F387C446C386C4400FCFE2A2A3E140041
:107A4A00007E7E020206060000027E7E027E7E0222
:107A5A000063775D4963630000387C447C3C04041E
:107A6A000080FE7E20203E1E000406027E7C060266
:107A7A000099BDE7E7BD9900001C3E6B496B3E1CAF
:107A8A00004C7E7301737E4C0030784A4F7D39007A
:107A9A0000183C243C3C243C1898FC643C3E273D9E
:107AAA0018000000000000000000000000000000B4
:107ABA0000000000000000000000000000000000BC
:107ACA0000000000000000000000000000000000AC
:107ADA00000000000000000000000000000000009C
:107AEA00000000000000000000000000000000008C
:107AFA00000000000000000000000000000000007C
:107B0A00000000000000000000000000000000006B
:107B1A00000000000000000000000000000000005B
:107B2A00000000000000000000000000000000004B
:107B3A00000000000000000000808080800000003B
:107B4A0000000000000000000000000000800000AB
:107B5A00800000800000000000000000000000001B
:107B6A00000000000000000000000000000000000B
:107B7A0000000000000000000000000000000000FB
:107B8A0000000000000000000000000000000000EB
:107B9A0000000000000000000000000000000000DB
:107BAA0000000000000000000000000000000000CB
:107BBA00000000000000003E4180808080413E00BD
:107BCA0000D894A46C00007884844C0088FC8081DE
:107BDA00FF8081FF800078848484780000D894A490
:107BEA006C00007884844C000078848484780008CF
:107BFA00FC488484780000789494580000000000BF
:107C0A00D894A46C00041C6480740C0400D894A456
:107C1A006C0004FF844000789494580088FC88041F
:107C2A00FC8804F88000000000000000000000004A
:107C3A00000000000000000000000000000000003A
:107C4A00000000000000000000000000000000002A
:107C5A00000000000000000000000000000000001A
:107C6A000000000000000000000000000000000406
:107C7A0007040000000000000000000000000000EF
:107C8A0000000000000404060100000000000000DB
:107C9A0000000000000000000000000000000000DA
:107CAA0000000000000000000000000000000000CA
:107CBA0000000000000000000000000000000000BA
:107CCA0000000000000000000000000000000000AA
:107CDA00000000000000000000000000000000009A
:107CEA000080F0F8181C0E0E1C1878F0C0800000F6
:107CFA0000000000000000000000000000000080FA
:107D0A00F0F8181C0C0E0E1C18F8F0800000000089
:107D1A000000000000000000000000000000000059
:107D2A000000000000000000000000000000000049
:107D3A000000000000000000000000000000000039
:107D4A000000000000000000000000000000000029
:107D5A000000000000000000000000000000000019
:107D6A00F8FF0F0000000000000000000FFFF800FD
:107D7A000000000000000000000000000000F8FF02
:107D8A000F0000000000000000000FFFF8000000D4
:107D9A0000000000000000000000000000000000D9
:107DAA0000000000000000000000000000000000C9
:107DBA0000000000000000000000000000000000B9
:107DCA000000000000000000000800080008001C75
:107DDA00FCF8800800080008000800080008E0FF16
:107DEA003F090008000800080008000800093FFFD2
:107DFA00E00800080008000800080008E0FF3F0942
:107E0A000008000800080008000800090F0F000811
:107E1A000008000800000000000000000000000048
:107E2A000000000000000000000000000000000048
:107E3A000000000000000000000000000000000038
:107E4A000000000000000000000000000000000028
:107E5A0000073FFCE000000000000080C0FC7F0734
:107E6A000000000000000000000000000000000701
:107E7A003FFCE000000000000000C0FC7F0700009B
:107E8A0000000000000000000000000000000000E8
:107E9A0000000000000000000000000000000000D8
:107EAA0000000000000000000000000000000000C8
:107EBA0000000000000000000000000000000000B8
:107ECA0000000000000000000000000000000000A8
:107EDA0000000001070F1C18181C0F070100000002
:107EEA000000000000000000000000000000000088
:107EFA000001070F1C18181C0C0F070100000000D6
:107F0A000000000000000000000000000000000067
:107F1A000000000000000000000000000000000057
:107F2A000000000000000000000000000000000047
:107F3A0000000000005C000C000C7C287C7C447C67
:107F4A00241048285408000C003844004438002003
:107F5A001008103810804000101010004000201047
:107F6A0008384438007C006454484454281C107C67
:107F7A004C542438542004740C28542808543800CB
:107F8A0050008050001028442828284428100454FF
:107F9A0008384C5C7814787C54283844447C44383B
:107FAA007C54447C14043844347C107C007C0020CB
:107FBA00403C7C106C7C40407C087C7C047C7C448B
