:020000040000FA
:0400000007EF00F016
:100008005E82DCED08F05AEF12F00450800B0D6EA2
:10001800045004240F6E03AE14EF00F016EF00F046
:1000280017EF00F00F800F50D8B41DEF00F01FEF4E
:1000380000F034EF00F00F28D8A425EF00F027EFE8
:1000480000F02FEF00F0000E016E000E026E000EA1
:10005800036E000E046E038E000E046E3CEF00F07B
:10006800000E016E000E026E000E036E000E046E8E
:100078000850800B0E6E0D500E18D8B446EF00F0E5
:1000880048EF00F049EF00F00D8C085008240E6E80
:1000980007AE51EF00F053EF00F054EF00F00E8080
:1000A8000E50D8B45AEF00F05CEF00F071EF00F09A
:1000B8000E28D8A462EF00F064EF00F06CEF00F0B7
:1000C800000E056E000E066E000E076E000E086E1E
:1000D800078E000E086E79EF00F0000E056E000E18
:1000E800066E000E076E000E086E0F500E5CD8B03C
:1000F80080EF00F082EF00F0A9EF00F00DAC87EF81
:1001080000F089EF00F08BEF00F0800E0D1A0FC0A1
:1001180010F00EC00FF010C00EF001C010F005C0B6
:1001280001F010C005F002C010F006C002F010C0C7
:1001380006F003C010F007C003F010C007F004C0B9
:1001480010F008C004F010C008F0000E106E0F5038
:100158000EC009F00A6A095E000E0A5A0ABEBEEF0E
:1001680000F00A5009E11A0E095CD8A0BEEF00F0B1
:10017800C0EF00F0F7EF00F0015002100310041078
:10018800D8A4C9EF00F0CCEF00F0010ECDEF00F0DD
:10019800000E106E000E016E000E026E000E036E51
:1001A800000E046E0EC00FF000EF01F010A0DFEF9C
:1001B80000F0E1EF00F0E7EF00F0D890103001090F
:1001C800106EE9EF00F0D890103201A0EEEF00F0C9
:1001D800F0EF00F0F1EF00F0108E04340432033237
:1001E800023201320F2A0E500F5CD8A0FEEF00F049
:1001F80000EF01F0DAEF00F00DBC05EF01F007EFBA
:1002080001F047EF01F00F50D8A40DEF01F00FEF08
:1002180001F019EF01F0000E016E000E026E000EE3
:10022800036E000E046E68EF02F0055001260650BA
:100238000222075003220850042204A026EF01F0EE
:1002480028EF01F0D4EF01F010A02DEF01F02FEF0F
:1002580001F035EF01F0D89010300109106E37EF3A
:1002680001F0D890103201A03CEF01F03EEF01F010
:100278003FEF01F0108E04340432033202320132AF
:100288000F2AD4EF01F00550015C065002580750C0
:1002980003580450800A096E0850800A0958D8B0DB
:1002A80058EF01F05AEF01F085EF01F00150055CBD
:1002B800096E025006580A6E035007580B6E045018
:1002C80008580C6EFF0E0924016EFF0E0A20026EFC
:1002D800FF0E0B20036EFF0E0C20046E800E0D1A0D
:1002E800106C1050D8A47BEF01F07DEF01F08DEF7A
:1002F80001F0010E0126000E0222032204228DEFD6
:1003080001F00550015E0650025A0750035A085082
:10031800045A0150021003100410D8A496EF01F0FB
:1003280098EF01F0CDEF01F01050D8A49EEF01F046
:10033800A0EF01F0CDEF01F0000E016E000E026E8D
:10034800000E036E000E046E68EF02F0D8900136BE
:1003580002360336043610AEB4EF01F0B6EF01F002
:10036800B7EF01F0018010A0BCEF01F0BEEF01F083
:10037800C2EF01F0D8801036C4EF01F0D8901036E3
:100388000F50D8B4CAEF01F0CCEF01F0CDEF01F077
:100398000F0603AED2EF01F0D4EF01F0AAEF01F09F
:1003A800000E0E6E10AEDBEF01F0DDEF01F0F5EFA1
:1003B80001F010C009F07F0E0916D8B4E6EF01F07D
:1003C800E8EF01F0ECEF01F0010E0E6EF5EF01F031
:1003D80001A0F1EF01F0F3EF01F0F5EF01F0E8EF24
:1003E80001F00E50D8B4FBEF01F0FDEF01F028EF5B
:1003F80002F0010E0126000E02220322042204A0AC
:1004080008EF02F00AEF02F028EF02F001C009F04D
:1004180002C00AF003C00BF004C00CF00C340C321C
:100428000B320A32093209C001F00AC002F00BC0CF
:1004380003F00CC004F00F28D8B425EF02F027EF22
:1004480002F028EF02F00F2A0F28D8B42EEF02F09E
:1004580030EF02F038EF02F00F50D8A436EF02F078
:1004680038EF02F04AEF02F0000E016E000E026E45
:10047800000E036E000E046E0F50D8A446EF02F073
:1004880048EF02F04AEF02F0000E0D6E0FA04FEF9A
:1004980002F051EF02F054EF02F0038E55EF02F034
:1004A800039ED8900F30046E0DAE5DEF02F05FEF43
:1004B80002F060EF02F0048E01C001F002C002F009
:1004C80003C003F004C004F012001250800B1B6E2E
:1004D80012501224216E11AE74EF02F076EF02F082
:1004E80077EF02F021802150D8B47DEF02F07FEF42
:1004F80002F092EF02F02128D8A485EF02F087EFEE
:1005080002F08FEF02F0000E0F6E000E106E000E5C
:10051800116E000E126E118E9AEF02F0000E0F6E21
:10052800000E106E000E116E000E126E1650800B2B
:100538001B1A16501624206E15AEA5EF02F0A7EF71
:1005480002F0A8EF02F020802050D8B4AEEF02F0FD
:10055800B0EF02F0C3EF02F02028D8A4B6EF02F003
:10056800B8EF02F0C0EF02F0000E136E000E146E2A
:10057800000E156E000E166E158ECBEF02F0000EF3
:10058800136E000E146E000E156E000E166E2050BF
:10059800D8B4D1EF02F0D3EF02F0DBEF02F0215034
:1005A800D8A4D9EF02F0DBEF02F0E5EF02F0000E7D
:1005B8000F6E000E106E000E116E000E126E7DEFA3
:1005C80004F015500F02F3CF26F0F4CF27F0265091
:1005D8001C6E1D6A1E6A1F6A2750226E236A246ACF
:1005E800256A14501002F3CF26F0F4CF27F02650D6
:1005F8001C26000E1D221E221F2227502226000E16
:1006080023222422252213501102F3CF26F0F4CFFF
:1006180027F026501C26000E1D221E221F222750BE
:100628002226000E2322242225221EC01FF01DC0D0
:100638001EF01CC01DF01C6A13501002F3CF26F0E8
:10064800F4CF27F026501C2627501D22000E1E220C
:10065800000E1F2214500F02F3CF26F0F4CF27F01C
:1006680026501C2627501D22000E1E22000E1F2277
:100678001EC01FF01DC01EF01CC01DF01C6A1350C8
:100688000F02F3CF26F0F4CF27F026501C26275070
:100698001D22000E1E22000E1F2215501002F3CF3D
:1006A80026F0F4CF27F02650222627502322000ECA
:1006B8002422000E252214501102F3CF26F0F4CF85
:1006C80027F02650222627502322000E2422000E2F
:1006D800252215501102F3CF26F0F4CF27F026502B
:1006E800176E2750186E196A1A6A19C01AF018C0BE
:1006F80019F017C018F0176A17502226185023222D
:10070800195024221A5025221CC017F01DC018F0B9
:100718001EC019F01FC01AF0190E98EF03F0D890F8
:100728001A32193218321732E82E93EF03F01750A5
:10073800222618502322195024221A5025221EC07E
:100748001FF01DC01EF01CC01DF01C6A205021C0E7
:1007580017F0186A1726000E1822820E1724266E24
:10076800FF0E1820276ECEEF03F0D89022362336DE
:10077800243625361FAEC3EF03F0C5EF03F0C6EFEE
:1007880003F02280D8901C361D361E361F362606EA
:10079800D8A0270624AED3EF03F0D5EF03F0B9EFC6
:1007A80003F0000E206E1FAEDCEF03F0DEEF03F067
:1007B80002EF04F0FF0E1C14176EFF0E1D14186EC6
:1007C800FF0E1E14196E7F0E1F141A6E1750181084
:1007D80019101A10D8B4F3EF03F0F5EF03F0F9EF9E
:1007E80003F0010E206E02EF04F022A0FEEF03F0EA
:1007F80000EF04F002EF04F0F5EF03F02050D8B456
:1008080008EF04F00AEF04F02EEF04F0010E2226A0
:10081800000E23222422252225A015EF04F017EF2D
:1008280004F02EEF04F022C017F023C018F024C003
:1008380019F025C01AF01A341A3219321832173240
:1008480017C022F018C023F019C024F01AC025F0F0
:10085800264A272A27BE39EF04F0275008E1262820
:10086800D8A039EF04F03BEF04F045EF04F0000E98
:10087800226E000E236E800E246E7F0E256E73EF9F
:1008880004F027BE52EF04F0275006E12604D8B042
:1008980050EF04F052EF04F05EEF04F0000E226E09
:1008A800000E236E000E246E000E256E000E1B6EC9
:1008B80073EF04F026C021F0FF0E2216FF0E231658
:1008C8007F0E2416000E251621A06DEF04F06FEFA1
:1008D80004F070EF04F0248ED8902130256E1B5060
:1008E800251222C00FF023C010F024C011F025C03B
:1008F80012F0120028C001F029C002F0000E02BE5A
:10090800FF0E036E046E010EC8EC05F001C00FF077
:1009180002C010F003C011F004C012F0A10E136E53
:10092800DE0E146EA70E156E3C0E166E69EC02F004
:100938000FC032F010C033F011C034F012C035F0DF
:1009480032C001F033C002F034C003F035C004F007
:10095800F9EC0DF001C030F002C031F032C011F0F6
:1009680033C012F034C013F035C014F030C001F0B9
:1009780031C002F0000E02BEFF0E036E046E010EBF
:10098800C8EC05F001C015F002C016F003C017F05E
:1009980004C018F012EC13F011C032F012C033F09A
:1009A80013C034F014C035F032C00FF033C010F06B
:1009B80034C011F035C012F0000E136E000E146E24
:1009C800200E156E410E166E69EC02F00FC032F063
:1009D80010C033F011C034F012C035F032C001F04D
:1009E80033C002F034C003F035C004F0F9EC0DF068
:1009F80001C02EF002C02FF032C011F033C012F047
:100A080034C013F035C014F02EC001F02FC002F02E
:100A1800000E02BEFF0E036E046E010EC8EC05F058
:100A280001C015F002C016F003C017F004C018F09A
:100A380012EC13F011C032F012C033F013C034F0CE
:100A480014C035F032C00FF033C010F034C011F0CC
:100A580035C012F0000E136E000E146E200E156EC7
:100A6800410E166E69EC02F00FC032F010C033F080
:100A780011C034F012C035F032C001F033C002F0BA
:100A880034C003F035C004F0F9EC0DF001C02CF0CF
:100A980002C02DF032C011F033C012F034C013F090
:100AA80035C014F02CC001F02DC002F0000E02BEBB
:100AB800FF0E036E046E010EC8EC05F001C015F0C0
:100AC80002C016F003C017F004C018F012EC13F0BF
:100AD80011C032F012C033F013C034F014C035F036
:100AE80032C00FF033C010F034C011F035C012F02E
:100AF800000E136E000E146E200E156E410E166E4B
:100B080069EC02F00FC032F010C033F011C034F0BD
:100B180012C035F032C001F033C002F034C003F027
:100B280035C004F0F9EC0DF001C02AF002C02BF03A
:100B38002AC001F02BC002F03AEC08F001C05CF0CA
:100B480002C05DF02CC001F02DC002F03AEC08F0B4
:100B580001C05AF002C05BF02EC001F02FC002F0B5
:100B68003AEC08F001C058F002C059F030C001F06A
:100B780031C002F03AEC08F0800E01240001D06F79
:100B8800000E0220D16F1200096E0950D8B4CFEFC1
:100B980005F0D1EF05F0F3EF05F004BED8EF05F04E
:100BA800D6EF05F0F3EF05F001C005F002C006F03E
:100BB80003C007F004C008F0051E061E071E081E25
:100BC800052A000E06220722082205C00BF006C0DF
:100BD8000CF007C00DF008C00EF0FBEF05F001C0E7
:100BE8000BF002C00CF003C00DF004C00EF0015071
:100BF800021003100410D8A404EF06F006EF06F064
:100C080010EF06F0000E016E000E026E000E036E6D
:100C1800000E046EA1EF06F0960E0A6E1AEF06F0AB
:100C28000A2AD8900E320D320C320B32000E0B14F9
:100C3800056E000E0C14066E000E0D14076EFE0EE7
:100C48000E14086E0550061007100810D8A42FEFD0
:100C580006F031EF06F014EF06F03FEF06F00A2A2F
:100C6800010E0B26000E0C220D220E22D8900E32F9
:100C78000D320C320B32000E0B14056E000E0C14E4
:100C8800066E000E0D14076EFF0E0E14086E05504A
:100C9800061007100810D8A454EF06F056EF06F017
:100CA80033EF06F05EEF06F00A06D8900B360C36E6
:100CB8000D360E360DBE63EF06F065EF06F06DEFEC
:100CC80006F0020E0A606BEF06F06DEF06F058EFC3
:100CD80006F00AB072EF06F074EF06F075EF06F052
:100CE8000D9ED8900A320AC005F0066A076A086A9B
:100CF80005C008F0076A066A056A05500B12065017
:100D08000C1207500D1208500E120950D8B48FEF6C
:100D180006F091EF06F099EF06F004BE98EF06F0A2
:100D280096EF06F099EF06F00E8E0BC001F00CC09E
:100D380002F00DC003F00EC004F01200000E000116
:100D4800D56F010ED46F21EE43F011EE00F00F0EB7
:100D5800DBCFE3FFE806FCE221EE53F011EE20F0D2
:100D68000E0EDBCFE3FFE806FCE221EE33F011EED6
:100D780010F00F0EDBCFE3FFE806FCE2CAC02FF14C
:100D8800CBC030F1C8C031F1C9C032F1000E746F68
:100D9800020EBAEC11F0000E00017D6F010E7E6F9D
:100DA800010E7F6F010E806F8DEC12F0020E0001B4
:100DB800746F020EBAEC11F0200E00017D6F010E67
:100DC8007E6F010E7F6F010E806F8DEC12F0030EA7
:100DD8000001746F020EBAEC11F0100E00017D6F65
:100DE800010E7E6F010E7F6F010E806F8DEC12F089
:100DF800030E0001746F020EBAEC11F0050E00012B
:100E0800746F2A0EBAEC11F02F0E00017D6F010EDF
:100E18007E6F010E7F6F010E806F8DEC12F0050E54
:100E28000001746F520EBAEC11F0310E00017D6FA3
:100E3800010E7E6F010E7F6F010E806F8DEC12F038
:100E48000001D405D511D8A42CEF07F02EEF07F038
:100E58004BEF07F0D251D311D8A435EF07F037EF95
:100E680007F04BEF07F0000E7C6F2A0E7B6F000E29
:100E78007E6F340E7D6F000E806F320E7F6F000E16
:100E8800826F340E816F17EC0AF072EF07F0D40509
:100E9800D511D8A452EF07F054EF07F071EF07F01F
:100EA800D205D311D8A45BEF07F05DEF07F071EF1F
:100EB80007F0000E7C6F520E7B6F000E7E6F340EB3
:100EC8007D6F000E806F5A0E7F6F000E826F340E9A
:100ED800816F17EC0AF072EF07F000F01200000EB5
:100EE8000001D56F010ED46F21EE43F010EE25F00E
:100EF8000F0EDBCFE3FFE806FCE221EE53F010EE25
:100F080045F00E0EDBCFE3FFE806FCE221EE33F0FE
:100F180010EE35F00F0EDBCFE3FFE806FCE2CAC0A7
:100F280054F0CBC055F0C8C056F0C9C057F0000EF9
:100F38000B6E020E26EC12F0250E146E000E156EC6
:100F4800010E166E010E176EBCEC12F0020E0B6E3F
:100F5800020E26EC12F0450E146E000E156E010EF0
:100F6800166E010E176EBCEC12F0030E0B6E020E1D
:100F780026EC12F0350E146E000E156E010E166E6C
:100F8800010E176EBCEC12F0030E0B6E020E26EC6F
:100F980012F0050E0B6E2A0E26EC12F0540E146E8B
:100FA800000E156E010E166E010E176EBCEC12F0D7
:100FB800050E0B6E520E26EC12F0560E146E000E35
:100FC800156E010E166E010E176EBCEC12F00001C4
:100FD800D405D511D8A4F3EF07F0F5EF07F012EF19
:100FE80008F0D251D311D8A4FCEF07F0FEEF07F0B8
:100FF80012EF08F0000E136E2A0E126E000E156E18
:10100800340E146E000E176E320E166E000E196E28
:10101800340E186EADEC0AF039EF08F0D405D5118E
:10102800D8A419EF08F01BEF08F038EF08F0D20544
:10103800D311D8A422EF08F024EF08F038EF08F015
:10104800000E136E520E126E000E156E340E146ED4
:10105800000E176E5A0E166E000E196E340E186EAC
:10106800ADEC0AF039EF08F000F012000150021060
:10107800D8A441EF08F043EF08F049EF08F0000E5C
:10108800026E3F0E016EDBEF08F001040210D8A4D7
:1010980050EF08F052EF08F058EF08F0000E026E1B
:1010A800060E016EDBEF08F0020E01180210D8A43C
:1010B80060EF08F062EF08F068EF08F0000E026ECB
:1010C8005B0E016EDBEF08F0030E01180210D8A4C6
:1010D80070EF08F072EF08F078EF08F0000E026E7B
:1010E8004F0E016EDBEF08F0040E01180210D8A4B1
:1010F80080EF08F082EF08F088EF08F0000E026E2B
:10110800660E016EDBEF08F0050E01180210D8A478
:1011180090EF08F092EF08F098EF08F0000E026EDA
:101128006D0E016EDBEF08F0060E01180210D8A450
:10113800A0EF08F0A2EF08F0A8EF08F0000E026E8A
:101148007D0E016EDBEF08F0070E01180210D8A41F
:10115800B0EF08F0B2EF08F0B8EF08F0000E026E3A
:10116800070E016EDBEF08F0080E01180210D8A474
:10117800C0EF08F0C2EF08F0C8EF08F0000E026EEA
:101188007F0E016EDBEF08F0090E01180210D8A4DB
:10119800D0EF08F0D2EF08F0D8EF08F0000E026E9A
:1011A8006F0E016EDBEF08F0000E026E0168120090
:1011B8000600E1CF60F0E2CF61F0D9CF62F0DACF7C
:1011C80063F0F3CF64F0F4CF65F0F6CF66F0F7CFB5
:1011D80067F0F8CF68F0F5CF69F09EACF6EF08F04D
:1011E800F8EF08F0FEEF08F09E9CC4CF28F0296ABB
:1011F8007EEC04F0F2A003EF09F005EF09F064EFCC
:1012080009F0F29081AC0BEF09F00DEF09F063EFF4
:1012180009F00001CE51CF11D8A415EF09F017EF4E
:1012280009F05FEF09F0D405D511D8A41EEF09F035
:1012380020EF09F038EF09F0D251D311D8A427EFE5
:1012480009F029EF09F038EF09F0000ED36F010E0D
:10125800D26F000E0B6E000E26EC12F0000E72EC30
:1012680011F000D073EC07F00001D405D511D8A413
:1012780040EF09F042EF09F05AEF09F0D205D31117
:10128800D8A449EF09F04BEF09F05AEF09F0000E26
:10129800D36F000ED26F000E0B6E000E26EC12F00C
:1012A800000E72EC11F000D073EC07F00001CE4B89
:1012B800CF2B63EF09F0000ECF6F000ECE6F815079
:1012C80069C0F5FF68C0F8FF67C0F7FF66C0F6FFA2
:1012D80065C0F4FF64C0F3FF63C0DAFF62C0D9FFE2
:1012E80061C0E2FF60C0E1FF5E921100C5C096F0E8
:1012F800C6C097F0C7C098F020EEC0F010EE91F08D
:10130800040EDBCFE3FFE806FCE2CCC099F0CDC0C9
:101318009AF020EEA5F010EE83F0070EDBCFE3FF86
:10132800E806FCE220EEB4F010EE8BF0050EDBCF01
:10133800E3FFE806FCE2000E0001746F340EBAEC1D
:1013480011F0960E00017D6F000E7E6F010E7F6F0B
:10135800010E806F8DEC12F0020E0001746F2D0EDD
:10136800BAEC11F0910E00017D6F000E7E6F010E38
:101378007F6F010E806F8DEC12F0030E0001746F09
:10138800360EBAEC11F0990E00017D6F000E7E6FDB
:10139800010E7F6F010E806F8DEC12F0040E0001BC
:1013A800746F230EBAEC11F0830E00017D6F000EEE
:1013B8007E6F010E7F6F010E806F8DEC12F0050EAF
:1013C8000001746F360EBAEC11F0990E00017D6FB2
:1013D800000E7E6F010E7F6F010E806F8DEC12F094
:1013E800060E0001746F290EBAEC11F08B0E000185
:1013F8007D6F000E7E6F010E7F6F010E806F8DEC8A
:1014080012F0150E0001826F4B0E816FBE0EE82E92
:10141800FED7812FFCD7822FFAD700F0000E2AECD6
:1014280011F000D0120000017F517B1907E18051B3
:101438007C19D8A422EF0AF024EF0AF062EF0AF030
:10144800FF0E7B25866FFF0E7C21876F4DEF0AF01C
:101458007DC088F07EC089F03CEF0AF088C074F047
:10146800010E756F86517CEC0EF00001884B892BBC
:101478008151885D8951800A836F8251800A83591E
:10148800D8A049EF0AF04BEF0AF032EF0AF0864B8A
:10149800872B010E7B25836F000E7C21846F86517C
:1014A800835D8451800A856F8751800A8559D8B039
:1014B80060EF0AF062EF0AF02CEF0AF081517D1913
:1014C80007E182517E19D8A46CEF0AF06EEF0AF09A
:1014D800ACEF0AF0FF0E7D258A6FFF0E7E218B6F21
:1014E80097EF0AF07BC08CF07CC08DF086EF0AF095
:1014F8008AC074F0010E756F8C517CEC0EF00001FF
:101508008C4B8D2B7F518C5D8D51800A836F805160
:10151800800A8359D8A093EF0AF095EF0AF07CEF80
:101528000AF08A4B8B2B010E7D25836F000E7E21DE
:10153800846F8A51835D8451800A856F8B51800A3C
:101548008559D8B0AAEF0AF0ACEF0AF076EF0AF0A6
:1015580012001650121807E117501318D8A4B7EF45
:101568000AF0B9EF0AF0F6EF0AF0FF0E12241D6E2A
:10157800FF0E13201E6EE1EF0AF014C01FF015C015
:1015880020F0D0EF0AF01FC00BF0010E0C6E1D50BA
:10159800EFEC0EF01F4A202A18501F5C2050800ADA
:1015A8001A6E1950800A1A58D8A0DDEF0AF0DFEF3A
:1015B8000AF0C7EF0AF01D4A1E2A010E12241A6EFD
:1015C800000E13201B6E1D501A5C1B50800A1C6EE7
:1015D8001E50800A1C58D8B0F4EF0AF0F6EF0AF053
:1015E800C1EF0AF01850141807E119501518D8A4BB
:1015F80000EF0BF002EF0BF03FEF0BF0FF0E14249F
:10160800216EFF0E1520226E2AEF0BF012C023F078
:1016180013C024F019EF0BF021C00BF0010E0C6E73
:101628002350EFEC0EF0234A242A1650235C245052
:10163800800A1A6E1750800A1A58D8A026EF0BF0A5
:1016480028EF0BF010EF0BF0214A222A010E142488
:101658001A6E000E15201B6E21501A5C1B50800A52
:101668001C6E2250800A1C58D8B03DEF0BF03FEF9B
:101678000BF00AEF0BF012000001776F000E00016B
:101688007C6F0A0E7719D8A44CEF0BF04EEF0BF0D5
:1016980053EF0BF0000ED76FD62BCCEF0BF03F0EAD
:1016A800D76559EF0BF05BEF0BF062EF0BF0010E13
:1016B8007C6FD751C00F7A6F64EF0BF0D7C07AF008
:1016C8007751080DF3CF78F0F4CF79F0000E7B6FE7
:1016D8003F0E7A6572EF0BF074EF0BF087EF0BF0AB
:1016E800400E7A5F010E7C6F8A947A514009726FBE
:1016F800010E53EC13F00001D651B809726F010EB8
:1017080053EC13F08A8400017451D8B48EEF0BF0B7
:1017180090EF0BF0A8EF0BF03B0E756F730E766F22
:101728007B517527000E76237851752779517623DA
:1017380075C0F6FF76C0F7FF0800F5CF72F07C5150
:1017480053EC13F0BFEF0BF03B0E756F730E766F13
:101758007B517527000E76237851752779517623AA
:1017680075C0F6FF76C0F7FF0800F550FF0A726FE4
:101778007C5153EC13F000017A2B7B2B070E7B6511
:10178800C8EF0BF0CAEF0BF06CEF0BF0080ED72781
:1017980012000001786F000E00017A6F0A0E7819A6
:1017A800D8A4D9EF0BF0DBEF0BF0E0EF0BF0000E55
:1017B800D76FD62B59EF0CF03F0ED765E6EF0BF03D
:1017C800E8EF0BF0EFEF0BF0010E7A6FD751C00F77
:1017D800776FF1EF0BF0D7C077F0200E785F000E2F
:1017E800796F3F0E7765FBEF0BF0FDEF0BF010EF15
:1017F8000CF0400E775F010E7A6F8A94775140099A
:10180800726F010E53EC13F00001D651B809726FD4
:10181800010E53EC13F08A8400017451D8B417EF09
:101828000CF019EF0CF033EF0CF07851030D3B0E70
:10183800756F7F0E766FF3507527F45076237951C4
:101848007527000E762375C0F6FF76C0F7FF0800EF
:10185800F5CF72F07A5153EC13F04CEF0CF078514D
:10186800030D3B0E756F7F0E766FF3507527F4509E
:10187800762379517527000E762375C0F6FF76C05A
:10188800F7FF0800F550FF0A726F7A5153EC13F016
:101898000001772B792B020E796555EF0CF057EF85
:1018A8000CF0F5EF0BF0050ED72712000E6E000EA8
:1018B800136E0A0E0E18D8A464EF0CF066EF0CF045
:1018C8006CEF0CF0000E0001D76FD62BE5EF0CF093
:1018D8003F0E0001D76573EF0CF075EF0CF07CEF4D
:1018E8000CF0010E136ED751C00F116E7EEF0CF085
:1018F800D7C011F00E50080DF3CF0FF0F4CF10F051
:10190800000E126E3F0E11648CEF0CF08EEF0CF08F
:10191800A1EF0CF0400E115E010E136E8A94115067
:101928004009096E010E70EC13F00001D651B80998
:10193800096E010E70EC13F08A840B50D8B4A7EF2F
:101948000CF0A9EF0CF0C1EF0CF03B0E0C6E730E0F
:101958000D6E12500C26000E0D220F500C26105042
:101968000D220CC0F6FF0DC0F7FF0800F5CF09F0F7
:10197800135070EC13F0D8EF0CF03B0E0C6E730E96
:101988000D6E12500C26000E0D220F500C26105012
:101998000D220CC0F6FF0DC0F7FF0800F550FF0A36
:1019A800096E135070EC13F0112A122A070E1264F4
:1019B800E0EF0CF0E2EF0CF086EF0CF0080E0001FF
:1019C800D72712000F6E000E116E0A0E0F18D8A43A
:1019D800F0EF0CF0F2EF0CF0F8EF0CF0000E000155
:1019E800D76FD62B71EF0DF03F0E0001D765FFEFD3
:1019F8000CF001EF0DF008EF0DF0010E116ED7514C
:101A0800C00F0E6E0AEF0DF0D7C00EF0200E0F5E5D
:101A1800000E106E3F0E0E6414EF0DF016EF0DF071
:101A280029EF0DF0400E0E5E010E116E8A940E50D5
:101A38004009096E010E70EC13F00001D651B80987
:101A4800096E010E70EC13F08A840B50D8B42FEF96
:101A58000DF031EF0DF04BEF0DF00F50030D3B0E75
:101A68000C6E7F0E0D6EF3500C26F4500D221050A4
:101A78000C26000E0D220CC0F6FF0DC0F7FF080063
:101A8800F5CF09F0115070EC13F064EF0DF00F5022
:101A9800030D3B0E0C6E7F0E0D6EF3500C26F450AA
:101AA8000D2210500C26000E0D220CC0F6FF0DC0A2
:101AB800F7FF0800F550FF0A096E115070EC13F09B
:101AC8000E2A102A020E10646CEF0DF06EEF0DF066
:101AD8000EEF0DF0050E0001D7271200000E0001D1
:101AE800736F71BF7CEF0DF07AEF0DF086EF0DF09C
:101AF800711F701F6F1F6E6D000E6F23702371238F
:101B0800010E736F6DBF8DEF0DF08BEF0DF097EF3A
:101B18000DF06D1F6C1F6B1F6A6D000E6B236C231D
:101B28006D23010E731B000E746F000E756F000E8F
:101B3800766F000E776F6E516F1170117111D8B4F6
:101B4800A8EF0DF0AAEF0DF0E0EF0DF0010E726FA7
:101B5800B4EF0DF0D8906E376F3770377137722B3E
:101B680071AFB9EF0DF0BBEF0DF0AEEF0DF0D890FF
:101B780074377537763777376E516A5D6F516B59A1
:101B880070516C5971516D59D8A0CDEF0DF0CFEF50
:101B98000DF0D8EF0DF06E516A5F6F516B5B7051AD
:101BA8006C5B71516D5B7481D890713370336F3396
:101BB8006E33722FBBEF0DF07351D8B4E6EF0DF012
:101BC800E8EF0DF0F0EF0DF0771F761F751F746DBD
:101BD800000E75237623772374C06AF075C06BF006
:101BE80076C06CF077C06DF01200033404340A6ECE
:101BF8000A50D8A402EF0EF004EF0EF00EEF0EF02C
:101C0800000E016E000E026E000E036E000E046ED2
:101C18007BEF0EF001C005F002C006F003C007F02C
:101C280004C008F0200E1EEF0EF0D89008320732DC
:101C380006320532E82E19EF0EF00550096E038EB4
:101C4800FF0E0116FF0E0216FF0E0316000E0416F5
:101C5800960E0A5E0ABE35EF0EF033EF0EF04BEF2C
:101C68000EF00A50800A970FD8B03DEF0EF03FEF04
:101C78000EF041EF0EF004EF0EF0D890043203326C
:101C8800023201320A3E41EF0EF063EF0EF01F0EF2
:101C98000A6451EF0EF053EF0EF05BEF0EF004EF15
:101CA8000EF0D89001360236033604360A060A507A
:101CB800D8A461EF0EF063EF0EF055EF0EF0095067
:101CC800D8B469EF0EF06BEF0EF073EF0EF0041E50
:101CD800031E021E016C000E02220322042201C010
:101CE80001F002C002F003C003F004C004F01200C7
:101CF8000001786F000E00017A6F3F0E786587EF5C
:101D08000EF089EF0EF08DEF0EF0400E785F010EA9
:101D18007A6F8A94789F788D78C072F07A5153ECF4
:101D280013F074C06AF000016B6B000E6D6F080E43
:101D38006C6F58EC0FF000016A51BF0BB809726F55
:101D48007A5153EC13F08A8400017A5135EC13F080
:101D580000017A5135EC13F00001796F8A9478C04C
:101D680072F07A5153EC13F000017551D8B4BFEFFB
:101D78000EF0C1EF0EF0D5EF0EF074C076F0070E3E
:101D88007617010E776F762BCCEF0EF0D890773759
:101D9800762FCAEF0EF0000177517911796FE8EFCD
:101DA8000EF074C076F0070E7617010E776F762B5B
:101DB800E0EF0EF0D8907737762FDEEF0EF00001C7
:101DC8007751FF0A7915796F8A8479C072F07A5150
:101DD80053EC13F012000F6E000E116E3F0E0F64DD
:101DE800F8EF0EF0FAEF0EF0FEEF0EF0400E0F5E79
:101DF800010E116E8A940F9E0F8C0FC009F01150BE
:101E080070EC13F00BC001F0026A000E046E080EAD
:101E1800036E1DEC10F00150BF0BB809096E11508C
:101E280070EC13F08A8411508BEC13F011508BEC8A
:101E380013F0106E8A940FC009F0115070EC13F073
:101E48000C50D8B42AEF0FF02CEF0FF03FEF0FF043
:101E58000BC00DF0070E0D16010E0E6E0D2A37EF92
:101E68000FF0D8900E360D2E35EF0FF00E501010E3
:101E7800106E51EF0FF00BC00DF0070E0D16010E8E
:101E88000E6E0D2A4AEF0FF0D8900E360D2E48EF41
:101E98000FF00E50FF0A1014106E8A8410C009F05B
:101EA800115070EC13F01200000E00016F6F6DBF3F
:101EB80062EF0FF060EF0FF068EF0FF06C6D6D1FC1
:101EC800D8B06D2B010E6F6F6BBF6FEF0FF06DEF1A
:101ED8000FF075EF0FF06A6D6B1FD8B06B2B010E0A
:101EE8006F1B000E716F000E706F6C516D11D8B4BE
:101EF80080EF0FF082EF0FF0AAEF0FF0010E6E6F78
:101F08008AEF0FF0D8906C376D376E2B6DAF8FEF6F
:101F18000FF091EF0FF086EF0FF0D8907037713710
:101F28006C516A5D6D516B59D8A09DEF0FF09FEF12
:101F38000FF0A4EF0FF06C516A5F6D516B5B70810D
:101F4800D8906D336C336E2F91EF0FF06F51D8B47A
:101F5800B0EF0FF0B2EF0FF0B6EF0FF0706D711F2A
:101F6800D8B0712B70C06AF071C06BF0120020EE0F
:101F7800ADF010EE8DF0060EDBCFE3FFE806FCE2D5
:101F880020EEBAF010EE94F0050EDBCFE3FFE80682
:101F9800FCE220EE9BF010EE83F0090EDBCFE3FFAE
:101FA800E806FCE2000E2AEC11F0020E0001746F44
:101FB800120EBAEC11F08D0E00017D6F000E7E6FCF
:101FC800010E7F6F010E806F8DEC12F0020E000182
:101FD800746F4E0EBAEC11F0940E00017D6F000E76
:101FE8007E6F010E7F6F010E806F8DEC12F0050E73
:101FF8000001746F1A0EBAEC11F0830E00017D6FA8
:10200800000E7E6F010E7F6F010E806F8DEC12F057
:10201800290E0001826F960E816F7F0EE82EFED783
:10202800812FFCD7822FFAD7000E2AEC11F000D0AE
:102038001200000E066E04BE26EF10F024EF10F01A
:102048002CEF10F0036C041ED8B0042A010E066EA3
:1020580002BE33EF10F031EF10F039EF10F0016CE1
:10206800021ED8B0022A010E061A000E086E000ED3
:10207800076E03500410D8B444EF10F046EF10F088
:102088006EEF10F0010E056E4EEF10F0D89003368B
:102098000436052A04AE53EF10F055EF10F04AEF5E
:1020A80010F0D890073608360350015C04500258E7
:1020B800D8A061EF10F063EF10F068EF10F0035054
:1020C800015E0450025A0780D89004320332052E6C
:1020D80055EF10F00650D8B474EF10F076EF10F00A
:1020E8007AEF10F0076C081ED8B0082A07C001F074
:1020F80008C002F0120000017BBF8FEF10F07B5187
:102108007A110BE1EB0E785D010E7959D8A08FEFAB
:1021180010F091EF10F0C8EF10F07BBFA3EF10F0B4
:102128007B510BE1480E785DE80E7959010E7A591A
:10213800D8B0A1EF10F0A3EF10F0C8EF10F0720EB6
:10214800D36EFD0E946E0C0EBA6E785148086A6F05
:10215800E80E79556B6F010E7A556C6F000E7B5542
:102168006D6F78C06EF079C06FF07AC070F07BC088
:1021780071F072EC0DF000016A51CB6E000ECC6E5E
:10218800070ECA6ED4EF10F0720ED36EFD0E946E69
:102198000C0EBA6EF90ECB6E000ECC6E070ECA6E20
:1021A80012000001776F000E836E8A9A00D08A8A27
:1021B8008A988A908A928A9400D0C00E0001726F21
:1021C800000E53EC13F0C00E0001726F010E53ECB9
:1021D80013F0400E0001726F000E53EC13F0400E26
:1021E8000001726F010E53EC13F0B80E0001726F0C
:1021F800000E53EC13F0B80E0001726F010E53EC91
:1022080013F000017705D8A40CEF11F00EEF11F0D0
:102218001BEF11F03F0E726F000E53EC13F03F0EE0
:102228000001726F010E53EC13F026EF11F03E0E11
:10223800726F000E53EC13F03E0E0001726F010E28
:1022480053EC13F0000E2AEC11F012000001746F29
:10225800000E0001766F8A94400E726F000E53ECE8
:1022680013F0400E0001726F010E53EC13F00001E1
:102278007651B809726F000E53EC13F000017651D5
:10228800B809726F010E53EC13F08A84000E000136
:10229800756F7451010DF3500008726F000E53EC06
:1022A80013F000017451010DF3500008726F010E14
:1022B80053EC13F00001752B3F0E756566EF11F0B6
:1022C80068EF11F04DEF11F0762B070E76656FEF82
:1022D80011F071EF11F02FEF11F012000B6E000EDC
:1022E8000D6E070E0D647BEF11F07DEF11F07FEF9F
:1022F80011F0B9EF11F08A94400E096E000E70ECDF
:1023080013F0400E096E010E70EC13F00D50B80971
:10231800096E000E70EC13F00D50B809096E010E2D
:1023280070EC13F08A84000E0C6E3F0E0C649FEF65
:1023380011F0A1EF11F0A3EF11F0B6EF11F00B506F
:10234800010DF3500008096E000E70EC13F00B50ED
:10235800010DF3500008096E010E70EC13F00C2A01
:1023680099EF11F00D2A75EF11F012000001766F48
:10237800000E0001756F800E7661C5EF11F0C7EF92
:1023880011F0F0EF11F0070E7465CDEF11F0CFEFFB
:1023980011F0D1EF11F0F0EF11F076C0D7F074C062
:1023A800D6F03F0E7665DBEF11F0DDEF11F0E1EFCF
:1023B80011F0400E765F010E756F8A9476514009D0
:1023C800726F755153EC13F000017451B809726FB4
:1023D800755153EC13F08A8412005CC083FF80802F
:1023E800080E00016A6FC90EE82EFED76A2FFCD7C7
:1023F80000D080905AC083FF8082080E00016A6F67
:10240800C90EE82EFED76A2FFCD700D0809258C09C
:1024180083FF8084080E00016A6FC90EE82EFED77C
:102428006A2FFCD700D08094D0C083FF8086080E26
:1024380000016A6FC90EE82EFED76A2FFCD700D0BC
:10244800809612000C6E000E0D6E800E0C602FEF41
:1024580012F031EF12F059EF12F0070E0B6437EF5C
:1024680012F039EF12F03BEF12F059EF12F00CC0F6
:10247800D7F00BC0D6F03F0E0C6445EF12F047EFD3
:1024880012F04BEF12F0400E0C5E010E0D6E8A94A6
:102498000C504009096E0D5070EC13F00B50B80940
:1024A800096E0D5070EC13F08A8412007F0EF66EE0
:1024B800270EF76E000EF86E01EE33F010EE2FF0D7
:1024C8000900F5CFEEFFE550E150FAE14C0EF66E4B
:1024D800270EF76E000EF86E00EE9BF010EE33F04C
:1024E8000900F5CFEEFFE550E150FAE100EECEF03D
:1024F8000A0EEE6AE806FDE15D6A5C6A5B6A5A6A82
:10250800596A586A5E905E92000EF86E0001E9EF13
:1025180012F0AFEF12F000017F51D8B496EF12F02D
:1025280098EF12F0A3EF12F080C074F07DC0D9FFCD
:102538007EC0DAFFDF5040EC0BF0ACEF12F080C049
:1025480074F07DC0D9FF7EC0DAFFDF50CDEC0BF010
:1025580000017D4B7E2B7DC0D9FF7EC0DAFFDF50A6
:10256800D8A4B9EF12F0BBEF12F08FEF12F01200FF
:10257800DCEF12F01650D8B4C4EF12F0C6EF12F028
:10258800D1EF12F017C00BF014C0D9FF15C0DAFF55
:10259800DF505AEC0CF0DAEF12F017C00BF014C051
:1025A800D9FF15C0DAFFDF50E6EC0CF0144A152A03
:1025B80014C0D9FF15C0DAFFDF50D8A4E6EF12F037
:1025C800E8EF12F0BEEF12F01200D7EC13F0010E94
:1025D800D5EC10F0BBEC0FF07AEC09F0E80E000136
:1025E800786F030E796F000E7A6F000E7B6F7FECA9
:1025F80010F0000E00016B6F320E6A6FECEC13F0F6
:10260800000E0001D36F000ED26FA2EC06F0C2825A
:10261800F1EC11F009EF13F007EF00F0000E151AB6
:10262800000E161A000E171A800E181A11C001F0A3
:1026380012C002F013C003F014C004F015C005F076
:1026480016C006F017C007F018C008F009EC00F033
:1026580001C011F002C012F003C013F004C014F05E
:10266800120000016A6F00016A51D8B43EEF13F0FE
:1026780040EF13F044EF13F08A808A9246EF13F08C
:102688008A928A8295688A868A8800D083CF6BF07E
:102698008A9800D08A908A9200016B51120000013A
:1026A800736F00017351D8B45CEF13F05EEF13F051
:1026B80062EF13F08A808A9264EF13F08A928A821A
:1026C800000E956E8A9672C08CFF8A8800D08A9810
:1026D80000D08A908A9212000A6E0A50D8B477EF16
:1026E80013F079EF13F07DEF13F08A808A927FEF71
:1026F80013F08A928A82000E956E8A9609C08CFF22
:102708008A8800D08A9800D08A908A921200016E36
:102718000150D8B492EF13F094EF13F098EF13F040
:102728008A808A929AEF13F08A928A8295688A86BA
:102738008A8800D083CF02F08A9800D08A908A9243
:10274800025012004561737953434F50450051754B
:10275800656E74696E0050726F6A6574004A756CB4
:102768006573004D4355203A0045726963006279EC
:1027780000320031002600322E52656374616E67A4
:10278800756C616972650043686F69736972207559
:102798006E206D6F646500312E4F7363696C6C6FCA
:1027A80073636F706500000E956E000E836E0A0EDF
:1027B800C16E110EC26EF00E926E000E806EC00ECB
:1027C800936E000E816EF28E9D8CF28CF286120052
:0A27D8000F0EBB6EBA8ABA98120009
:10733A000000000000000000000000000000000043
:10734A000000000000000000000000000000000033
:10735A000000000000000000000000000000000023
:10736A000000000000000000000000000000000013
:10737A000000000000000000000000000000000003
:10738A0000000000000000000000000000000000F3
:10739A0000000000000000000000000000000000E3
:1073AA0000000000000000000000000000000000D3
:1073BA0000000000000000000000000000000000C3
:1073CA0000000000000000000000000000000000B3
:1073DA0000000000000000000000000000000000A3
:1073EA000000000000000000000000000000000093
:1073FA000000000000000000000000000000000083
:10740A000000000000000000000000000000000072
:10741A000000000000000000000000000000000062
:10742A000000000000000000000000000000000052
:10743A0000000000000000000000065F5F06000078
:10744A00000007070007070000147F7F147F7F14DE
:10745A0000242E6B6B3A120000466630180C6662E6
:10746A0000307A4F5D377A480004070300000000B5
:10747A0000001C3E63410000000041633E1C000006
:10748A0000082A3E1C1C3E2A0808083E3E0808003E
:10749A00000080E0600000000008080808080800F2
:1074AA000000006060000000006030180C06030154
:1074BA00003E7F71594D7F3E0040427F7F40400031
:1074CA0000627359496F660000226349497F36009A
:1074DA0000181C16537F7F5000276745457D3900E9
:1074EA00003C7E4B4979300000030371790F070095
:1074FA0000367F49497F360000064F49693F1E0022
:10750A000000006666000000000080E666000000D9
:10751A0000081C366341000000242424242424008B
:10752A0000004163361C080000020351590F06008F
:10753A00003E7F415D5D1F1E007C7E13137E7C0032
:10754A0000417F7F49497F36001C3E6341416322E7
:10755A0000417F7F41633E1C00417F7F495D41635B
:10756A0000417F7F491D0103001C3E634151737234
:10757A00007F7F08087F7F000000417F7F41000075
:10758A0000307040417F3F0100417F7F081C7763D4
:10759A0000417F7F41406070007F7F0E1C0E7F7F1D
:1075AA00007F7F060C187F7F001C3E6341633E1CF0
:1075BA0000417F7F49090F06001E3F21717F5E004F
:1075CA0000417F7F09197F6600266F4D597332008B
:1075DA000003417F7F410300007F7F40407F7F009F
:1075EA00001F3F60603F1F00007F7F3018307F7FA1
:1075FA000043673C183C674300074F78784F070001
:10760A0000476371594D677300007F7F4141000055
:10761A00000103060C183060000041417F7F000022
:10762A0000080C0603060C08008080808080808099
:10763A00800000030704000000207454543C784082
:10764A0000417F3F4848783000387C44446C280029
:10765A0000307848493F7F4000387C54545C180019
:10766A0000487E7F490302000098BCA4A4F87C0469
:10767A0000417F7F08047C780000447D7D40000043
:10768A000060E08080FD7D0000417F7F10386C44FF
:10769A000000417F7F400000007C7C18381C7C7809
:1076AA00007C7C04047C780000387C44447C3800EC
:1076BA000084FCF8A4243C1800183C24A4F8FC8498
:1076CA0000447C784C041C1800485C545474240010
:1076DA000000043E7F442400003C7C40403C7C4047
:1076EA00001C3C60603C1C00003C7C7038707C3C98
:1076FA0000446C3810386C44009CBCA0A0FC7C0090
:10770A00004C64745C4C64000008083E77414100F8
:10771A000000000077770000004141773E0808002A
:10772A0000020301030203010070784C464C787092
:10773A00000E9F91B1FB4A00003A7A40407A7A40A3
:10774A0000387C54555D19000002237555557D7B20
:10775A0042217554547D794000217555547C7840F6
:10776A0000207457577C784000183CA4A4E44000D9
:10777A0000023B7D55555D1B02397D54545D19004D
:10778A0000397D55545C18000001457C7C4101009C
:10779A00000203457D7D43020001457D7C400000D7
:1077AA0000797D1612167D790070782B2B7870007F
:1077BA0000447C7C5555450000207454547C7C540C
:1077CA00547C7E0B097F7F4900327B49497B32001A
:1077DA0000327A48487A320000327A4A48783000D1
:1077EA00003A7B41417B7A40003A7A4240787840BD
:1077FA00009ABAA0A0FA7A000001193C66663C1900
:10780A00013D7D40407D3D0000183C24E7E72424EB
:10781A0000687E7F49436620002B2FFCFC2F2B003B
:10782A0000FFFF09092FF6F8A040C088FE7F090370
:10783A0002207454557D79400000447D7D4100004A
:10784A00003078484A7A320000387840427A7A40E2
:10785A00007A7A0A0A7A7000007D7D19317D7D00EE
:10786A000000262F292F2F280000262F292F260037
:10787A000030784D456020000038380808080800B4
:10788A000008080808383800004F6F3018CCEEBBE3
:10789A00914F6F30186C76FBF90000007B7B00007B
:1078AA0000081C3622081C362222361C0822361CE6
:1078BA0008AA005500AA005500AA55AA55AA55AA11
:1078CA0055DDFFAA77DDAAFF77000000FFFF000061
:1078DA0000101010FFFF000000141414FFFF000036
:1078EA00001010FFFF00FFFF001010F0F010F0F082
:1078FA0000141414FCFC0000001414F7F700FFFF36
:10790A00000000FFFF00FFFF001414F4F404FCFC65
:10791A000014141717101F1F0010101F1F101F1F0D
:10792A00001414141F1F000000101010F0F00000C3
:10793A00000000001F1F1010101010101F1F101041
:10794A0010101010F0F0101010000000FFFF1010BF
:10795A00101010101010101010101010FFFF10103F
:10796A0010000000FFFF1414140000FFFF00FFFFC7
:10797A001000001F1F101717140000FCFC04F4F479
:10798A001414141717101717141414F4F404F4F435
:10799A00140000FFFF00F7F714141414141414143D
:1079AA00141414F7F700F7F714141414171714140F
:1079BA001410101F1F101F1F10141414F4F41414A1
:1079CA00141010F0F010F0F01000001F1F101F1F0D
:1079DA00100000001F1F141414000000FCFC1414F3
:1079EA00140000F0F010F0F0101010FFFF10FFFF6D
:1079FA0010141414FFFF1414141010101F1F000089
:107A0A0000000000F0F0101010FFFFFFFFFFFFFF63
:107A1A00FFF0F0F0F0F0F0F0F0FFFFFFFF000000E1
:107A2A000000000000FFFFFFFF0F0F0F0F0F0F0FE7
:107A3A000F387C446C386C4400FCFE2A2A3E140041
:107A4A00007E7E020206060000027E7E027E7E0222
:107A5A000063775D4963630000387C447C3C04041E
:107A6A000080FE7E20203E1E000406027E7C060266
:107A7A000099BDE7E7BD9900001C3E6B496B3E1CAF
:107A8A00004C7E7301737E4C0030784A4F7D39007A
:107A9A0000183C243C3C243C1898FC643C3E273D9E
:107AAA0018000000000000000000000000000000B4
:107ABA0000000000000000000000000000000000BC
:107ACA0000000000000000000000000000000000AC
:107ADA00000000000000000000000000000000009C
:107AEA00000000000000000000000000000000008C
:107AFA00000000000000000000000000000000007C
:107B0A00000000000000000000000000000000006B
:107B1A00000000000000000000000000000000005B
:107B2A00000000000000000000000000000000004B
:107B3A00000000000000000000808080800000003B
:107B4A0000000000000000000000000000800000AB
:107B5A00800000800000000000000000000000001B
:107B6A00000000000000000000000000000000000B
:107B7A0000000000000000000000000000000000FB
:107B8A0000000000000000000000000000000000EB
:107B9A0000000000000000000000000000000000DB
:107BAA0000000000000000000000000000000000CB
:107BBA00000000000000003E4180808080413E00BD
:107BCA0000D894A46C00007884844C0088FC8081DE
:107BDA00FF8081FF800078848484780000D894A490
:107BEA006C00007884844C000078848484780008CF
:107BFA00FC488484780000789494580000000000BF
:107C0A00D894A46C00041C6480740C0400D894A456
:107C1A006C0004FF844000789494580088FC88041F
:107C2A00FC8804F88000000000000000000000004A
:107C3A00000000000000000000000000000000003A
:107C4A00000000000000000000000000000000002A
:107C5A00000000000000000000000000000000001A
:107C6A000000000000000000000000000000000406
:107C7A0007040000000000000000000000000000EF
:107C8A0000000000000404060100000000000000DB
:107C9A0000000000000000000000000000000000DA
:107CAA0000000000000000000000000000000000CA
:107CBA0000000000000000000000000000000000BA
:107CCA0000000000000000000000000000000000AA
:107CDA00000000000000000000000000000000009A
:107CEA000080F0F8181C0E0E1C1878F0C0800000F6
:107CFA0000000000000000000000000000000080FA
:107D0A00F0F8181C0C0E0E1C18F8F0800000000089
:107D1A000000000000000000000000000000000059
:107D2A000000000000000000000000000000000049
:107D3A000000000000000000000000000000000039
:107D4A000000000000000000000000000000000029
:107D5A000000000000000000000000000000000019
:107D6A00F8FF0F0000000000000000000FFFF800FD
:107D7A000000000000000000000000000000F8FF02
:107D8A000F0000000000000000000FFFF8000000D4
:107D9A0000000000000000000000000000000000D9
:107DAA0000000000000000000000000000000000C9
:107DBA0000000000000000000000000000000000B9
:107DCA000000000000000000000800080008001C75
:107DDA00FCF8800800080008000800080008E0FF16
:107DEA003F090008000800080008000800093FFFD2
:107DFA00E00800080008000800080008E0FF3F0942
:107E0A000008000800080008000800090F0F000811
:107E1A000008000800000000000000000000000048
:107E2A000000000000000000000000000000000048
:107E3A000000000000000000000000000000000038
:107E4A000000000000000000000000000000000028
:107E5A0000073FFCE000000000000080C0FC7F0734
:107E6A000000000000000000000000000000000701
:107E7A003FFCE000000000000000C0FC7F0700009B
:107E8A0000000000000000000000000000000000E8
:107E9A0000000000000000000000000000000000D8
:107EAA0000000000000000000000000000000000C8
:107EBA0000000000000000000000000000000000B8
:107ECA0000000000000000000000000000000000A8
:107EDA0000000001070F1C18181C0F070100000002
:107EEA000000000000000000000000000000000088
:107EFA000001070F1C18181C0C0F070100000000D6
:107F0A000000000000000000000000000000000067
:107F1A000000000000000000000000000000000057
:107F2A000000000000000000000000000000000047
:107F3A0000000000005C000C000C7C287C7C447C67
:107F4A00241048285408000C003844004438002003
:107F5A001008103810804000101010004000201047
:107F6A0008384438007C006454484454281C107C67
:107F7A004C542438542004740C28542808543800CB
:107F8A0050008050001028442828284428100454FF
:107F9A0008384C5C7814787C54283844447C44383B
:107FAA007C54447C14043844347C107C007C0020CB
:107FBA00403C7C106C7C40407C087C7C047C7C448B
:107FCA007C7C14083844787C1468485424047C0463
:107FDA007C407C3C403C7C207C6C106C1C601C64AB
:107FEA00544C7C4400081020447C0008040880801B
:057FFA008004080000F6
:020000040020DA
:08000000FFFFFFFFFFFFFFFF00
:020000040030CA
:0E000000000C191EFF8181FF0FC00FE00F40A2
:00000001FF
