:020000040000FA
:0400000007EF00F016
:10000800508266ED0EF040EF0DF00450800B0D6E3F
:10001800045004240F6E03AE14EF00F016EF00F046
:1000280017EF00F00F800F50D8B41DEF00F01FEF4E
:1000380000F034EF00F00F28D8A425EF00F027EFE8
:1000480000F02FEF00F0000E016E000E026E000EA1
:10005800036E000E046E038E000E046E3CEF00F07B
:10006800000E016E000E026E000E036E000E046E8E
:100078000850800B0E6E0D500E18D8B446EF00F0E5
:1000880048EF00F049EF00F00D8C085008240E6E80
:1000980007AE51EF00F053EF00F054EF00F00E8080
:1000A8000E50D8B45AEF00F05CEF00F071EF00F09A
:1000B8000E28D8A462EF00F064EF00F06CEF00F0B7
:1000C800000E056E000E066E000E076E000E086E1E
:1000D800078E000E086E79EF00F0000E056E000E18
:1000E800066E000E076E000E086E0F500E5CD8B03C
:1000F80080EF00F082EF00F0A9EF00F00DAC87EF81
:1001080000F089EF00F08BEF00F0800E0D1A0FC0A1
:1001180010F00EC00FF010C00EF001C010F005C0B6
:1001280001F010C005F002C010F006C002F010C0C7
:1001380006F003C010F007C003F010C007F004C0B9
:1001480010F008C004F010C008F0000E106E0F5038
:100158000EC009F00A6A095E000E0A5A0ABEBEEF0E
:1001680000F00A5009E11A0E095CD8A0BEEF00F0B1
:10017800C0EF00F0F7EF00F0015002100310041078
:10018800D8A4C9EF00F0CCEF00F0010ECDEF00F0DD
:10019800000E106E000E016E000E026E000E036E51
:1001A800000E046E0EC00FF000EF01F010A0DFEF9C
:1001B80000F0E1EF00F0E7EF00F0D890103001090F
:1001C800106EE9EF00F0D890103201A0EEEF00F0C9
:1001D800F0EF00F0F1EF00F0108E04340432033237
:1001E800023201320F2A0E500F5CD8A0FEEF00F049
:1001F80000EF01F0DAEF00F00DBC05EF01F007EFBA
:1002080001F047EF01F00F50D8A40DEF01F00FEF08
:1002180001F019EF01F0000E016E000E026E000EE3
:10022800036E000E046E68EF02F0055001260650BA
:100238000222075003220850042204A026EF01F0EE
:1002480028EF01F0D4EF01F010A02DEF01F02FEF0F
:1002580001F035EF01F0D89010300109106E37EF3A
:1002680001F0D890103201A03CEF01F03EEF01F010
:100278003FEF01F0108E04340432033202320132AF
:100288000F2AD4EF01F00550015C065002580750C0
:1002980003580450800A096E0850800A0958D8B0DB
:1002A80058EF01F05AEF01F085EF01F00150055CBD
:1002B800096E025006580A6E035007580B6E045018
:1002C80008580C6EFF0E0924016EFF0E0A20026EFC
:1002D800FF0E0B20036EFF0E0C20046E800E0D1A0D
:1002E800106C1050D8A47BEF01F07DEF01F08DEF7A
:1002F80001F0010E0126000E0222032204228DEFD6
:1003080001F00550015E0650025A0750035A085082
:10031800045A0150021003100410D8A496EF01F0FB
:1003280098EF01F0CDEF01F01050D8A49EEF01F046
:10033800A0EF01F0CDEF01F0000E016E000E026E8D
:10034800000E036E000E046E68EF02F0D8900136BE
:1003580002360336043610AEB4EF01F0B6EF01F002
:10036800B7EF01F0018010A0BCEF01F0BEEF01F083
:10037800C2EF01F0D8801036C4EF01F0D8901036E3
:100388000F50D8B4CAEF01F0CCEF01F0CDEF01F077
:100398000F0603AED2EF01F0D4EF01F0AAEF01F09F
:1003A800000E0E6E10AEDBEF01F0DDEF01F0F5EFA1
:1003B80001F010C009F07F0E0916D8B4E6EF01F07D
:1003C800E8EF01F0ECEF01F0010E0E6EF5EF01F031
:1003D80001A0F1EF01F0F3EF01F0F5EF01F0E8EF24
:1003E80001F00E50D8B4FBEF01F0FDEF01F028EF5B
:1003F80002F0010E0126000E02220322042204A0AC
:1004080008EF02F00AEF02F028EF02F001C009F04D
:1004180002C00AF003C00BF004C00CF00C340C321C
:100428000B320A32093209C001F00AC002F00BC0CF
:1004380003F00CC004F00F28D8B425EF02F027EF22
:1004480002F028EF02F00F2A0F28D8B42EEF02F09E
:1004580030EF02F038EF02F00F50D8A436EF02F078
:1004680038EF02F04AEF02F0000E016E000E026E45
:10047800000E036E000E046E0F50D8A446EF02F073
:1004880048EF02F04AEF02F0000E0D6E0FA04FEF9A
:1004980002F051EF02F054EF02F0038E55EF02F034
:1004A800039ED8900F30046E0DAE5DEF02F05FEF43
:1004B80002F060EF02F0048E01C001F002C002F009
:1004C80003C003F004C004F012001250800B1B6E2E
:1004D80012501224216E11AE74EF02F076EF02F082
:1004E80077EF02F021802150D8B47DEF02F07FEF42
:1004F80002F092EF02F02128D8A485EF02F087EFEE
:1005080002F08FEF02F0000E0F6E000E106E000E5C
:10051800116E000E126E118E9AEF02F0000E0F6E21
:10052800000E106E000E116E000E126E1650800B2B
:100538001B1A16501624206E15AEA5EF02F0A7EF71
:1005480002F0A8EF02F020802050D8B4AEEF02F0FD
:10055800B0EF02F0C3EF02F02028D8A4B6EF02F003
:10056800B8EF02F0C0EF02F0000E136E000E146E2A
:10057800000E156E000E166E158ECBEF02F0000EF3
:10058800136E000E146E000E156E000E166E2050BF
:10059800D8B4D1EF02F0D3EF02F0DBEF02F0215034
:1005A800D8A4D9EF02F0DBEF02F0E5EF02F0000E7D
:1005B8000F6E000E106E000E116E000E126E7DEFA3
:1005C80004F015500F02F3CF26F0F4CF27F0265091
:1005D8001C6E1D6A1E6A1F6A2750226E236A246ACF
:1005E800256A14501002F3CF26F0F4CF27F02650D6
:1005F8001C26000E1D221E221F2227502226000E16
:1006080023222422252213501102F3CF26F0F4CFFF
:1006180027F026501C26000E1D221E221F222750BE
:100628002226000E2322242225221EC01FF01DC0D0
:100638001EF01CC01DF01C6A13501002F3CF26F0E8
:10064800F4CF27F026501C2627501D22000E1E220C
:10065800000E1F2214500F02F3CF26F0F4CF27F01C
:1006680026501C2627501D22000E1E22000E1F2277
:100678001EC01FF01DC01EF01CC01DF01C6A1350C8
:100688000F02F3CF26F0F4CF27F026501C26275070
:100698001D22000E1E22000E1F2215501002F3CF3D
:1006A80026F0F4CF27F02650222627502322000ECA
:1006B8002422000E252214501102F3CF26F0F4CF85
:1006C80027F02650222627502322000E2422000E2F
:1006D800252215501102F3CF26F0F4CF27F026502B
:1006E800176E2750186E196A1A6A19C01AF018C0BE
:1006F80019F017C018F0176A17502226185023222D
:10070800195024221A5025221CC017F01DC018F0B9
:100718001EC019F01FC01AF0190E98EF03F0D890F8
:100728001A32193218321732E82E93EF03F01750A5
:10073800222618502322195024221A5025221EC07E
:100748001FF01DC01EF01CC01DF01C6A205021C0E7
:1007580017F0186A1726000E1822820E1724266E24
:10076800FF0E1820276ECEEF03F0D89022362336DE
:10077800243625361FAEC3EF03F0C5EF03F0C6EFEE
:1007880003F02280D8901C361D361E361F362606EA
:10079800D8A0270624AED3EF03F0D5EF03F0B9EFC6
:1007A80003F0000E206E1FAEDCEF03F0DEEF03F067
:1007B80002EF04F0FF0E1C14176EFF0E1D14186EC6
:1007C800FF0E1E14196E7F0E1F141A6E1750181084
:1007D80019101A10D8B4F3EF03F0F5EF03F0F9EF9E
:1007E80003F0010E206E02EF04F022A0FEEF03F0EA
:1007F80000EF04F002EF04F0F5EF03F02050D8B456
:1008080008EF04F00AEF04F02EEF04F0010E2226A0
:10081800000E23222422252225A015EF04F017EF2D
:1008280004F02EEF04F022C017F023C018F024C003
:1008380019F025C01AF01A341A3219321832173240
:1008480017C022F018C023F019C024F01AC025F0F0
:10085800264A272A27BE39EF04F0275008E1262820
:10086800D8A039EF04F03BEF04F045EF04F0000E98
:10087800226E000E236E800E246E7F0E256E73EF9F
:1008880004F027BE52EF04F0275006E12604D8B042
:1008980050EF04F052EF04F05EEF04F0000E226E09
:1008A800000E236E000E246E000E256E000E1B6EC9
:1008B80073EF04F026C021F0FF0E2216FF0E231658
:1008C8007F0E2416000E251621A06DEF04F06FEFA1
:1008D80004F070EF04F0248ED8902130256E1B5060
:1008E800251222C00FF023C010F024C011F025C03B
:1008F80012F0120028C001F029C002F0000E02BE5A
:10090800FF0E036E046E010EC7EC05F001C00FF078
:1009180002C010F003C011F004C012F0A10E136E53
:10092800DE0E146EA70E156E3C0E166E69EC02F004
:100938000FC032F010C033F011C034F012C035F0DF
:1009480032C001F033C002F034C003F035C004F007
:1009580017EC0AF001C030F002C031F032C011F0DB
:1009680033C012F034C013F035C014F030C001F0B9
:1009780031C002F0000E02BEFF0E036E046E010EBF
:10098800C7EC05F001C015F002C016F003C017F05F
:1009980004C018F043EC0EF011C032F012C033F06E
:1009A80013C034F014C035F032C00FF033C010F06B
:1009B80034C011F035C012F0000E136E000E146E24
:1009C800200E156E410E166E69EC02F00FC032F063
:1009D80010C033F011C034F012C035F032C001F04D
:1009E80033C002F034C003F035C004F017EC0AF04D
:1009F80001C02EF002C02FF032C011F033C012F047
:100A080034C013F035C014F02EC001F02FC002F02E
:100A1800000E02BEFF0E036E046E010EC7EC05F059
:100A280001C015F002C016F003C017F004C018F09A
:100A380043EC0EF011C032F012C033F013C034F0A2
:100A480014C035F032C00FF033C010F034C011F0CC
:100A580035C012F0000E136E000E146E200E156EC7
:100A6800410E166E69EC02F00FC032F010C033F080
:100A780011C034F012C035F032C001F033C002F0BA
:100A880034C003F035C004F017EC0AF001C02CF0B4
:100A980002C02DF032C011F033C012F034C013F090
:100AA80035C014F02CC001F02DC002F0000E02BEBB
:100AB800FF0E036E046E010EC7EC05F001C015F0C1
:100AC80002C016F003C017F004C018F043EC0EF093
:100AD80011C032F012C033F013C034F014C035F036
:100AE80032C00FF033C010F034C011F035C012F02E
:100AF800000E136E000E146E200E156E410E166E4B
:100B080069EC02F00FC032F010C033F011C034F0BD
:100B180012C035F032C001F033C002F034C003F027
:100B280035C004F017EC0AF001C02AF002C02BF01F
:100B38002AC001F02BC002F0A1EC06F001C04EF073
:100B480002C04FF02CC001F02DC002F0A1EC06F05D
:100B580001C04CF002C04DF02EC001F02FC002F0D1
:100B6800A1EC06F001C04AF002C04BF030C001F021
:100B780031C002F0A1EC06F0800E0124486E000E90
:100B88000220496E1200096E0950D8B4CEEF05F064
:100B9800D0EF05F0F2EF05F004BED7EF05F0D5EF82
:100BA80005F0F2EF05F001C005F002C006F003C041
:100BB80007F004C008F0051E061E071E081E052AB9
:100BC800000E06220722082205C00BF006C00CF012
:100BD80007C00DF008C00EF0FAEF05F001C00BF0E9
:100BE80002C00CF003C00DF004C00EF0015002105A
:100BF80003100410D8A403EF06F005EF06F00FEF7A
:100C080006F0000E016E000E026E000E036E000E5E
:100C1800046EA0EF06F0960E0A6E19EF06F00A2A87
:100C2800D8900E320D320C320B32000E0B14056EBA
:100C3800000E0C14066E000E0D14076EFE0E0E1438
:100C4800086E0550061007100810D8A42EEF06F0FD
:100C580030EF06F013EF06F03EEF06F00A2A010E19
:100C68000B26000E0C220D220E22D8900E320D32C9
:100C78000C320B32000E0B14056E000E0C14066EAF
:100C8800000E0D14076EFF0E0E14086E05500610A8
:100C980007100810D8A453EF06F055EF06F032EF0E
:100CA80006F05DEF06F00A06D8900B360C360D36C6
:100CB8000E360DBE62EF06F064EF06F06CEF06F03C
:100CC800020E0A606AEF06F06CEF06F057EF06F0C6
:100CD8000AB071EF06F073EF06F074EF06F00D9EA0
:100CE800D8900A320AC005F0066A076A086A05C081
:100CF80008F0076A066A056A05500B1206500C12BE
:100D080007500D1208500E120950D8B48EEF06F095
:100D180090EF06F098EF06F004BE97EF06F095EF17
:100D280006F098EF06F00E8E0BC001F00CC002F032
:100D38000DC003F00EC004F0120001500210D8A438
:100D4800A8EF06F0AAEF06F0B0EF06F0000E026E6C
:100D58003F0E016E42EF07F001040210D8A4B7EF6E
:100D680006F0B9EF06F0BFEF06F0000E026E060EB1
:100D7800016E42EF07F0020E01180210D8A4C7EF67
:100D880006F0C9EF06F0CFEF06F0000E026E5B0E1C
:100D9800016E42EF07F0030E01180210D8A4D7EF36
:100DA80006F0D9EF06F0DFEF06F0000E026E4F0EE8
:100DB800016E42EF07F0040E01180210D8A4E7EF05
:100DC80006F0E9EF06F0EFEF06F0000E026E660E91
:100DD800016E42EF07F0050E01180210D8A4F7EFD4
:100DE80006F0F9EF06F0FFEF06F0000E026E6D0E4A
:100DF800016E42EF07F0060E01180210D8A407EFA3
:100E080007F009EF07F00FEF07F0000E026E7D0EF6
:100E1800016E42EF07F0070E01180210D8A417EF71
:100E280007F019EF07F01FEF07F0000E026E070E2C
:100E3800016E42EF07F0080E01180210D8A427EF40
:100E480007F029EF07F02FEF07F0000E026E7F0E74
:100E5800016E42EF07F0090E01180210D8A437EF0F
:100E680007F039EF07F03FEF07F0000E026E6F0E44
:100E7800016E42EF07F0000E026E01681200F0C02A
:100E88008CF0F1C08DF0F2C08EF020EEEBF010EE99
:100E980087F0040EDBCFE3FFE806FCE2F7C08FF033
:100EA800F8C090F020EED0F010EE79F0070EDBCF0E
:100EB800E3FFE806FCE220EEDFF010EE81F0050E1D
:100EC800DBCFE3FFE806FCE2000E00016A6F340E98
:100ED80080EC0DF08C0E0001736F000E746F010E24
:100EE800756F010E766FECEC0DF0020E00016A6F63
:100EF8002D0E80EC0DF0870E0001736F000E746FDD
:100F0800010E756F010E766FECEC0DF0030E00010B
:100F18006A6F360E80EC0DF08F0E0001736F000EB5
:100F2800746F010E756F010E766FECEC0DF0040E08
:100F380000016A6F230E80EC0DF0790E0001736FCB
:100F4800000E746F010E756F010E766FECEC0DF0EC
:100F5800050E00016A6F360E80EC0DF08F0E000151
:100F6800736F000E746F010E756F010E766FECECE7
:100F78000DF0060E00016A6F290E80EC0DF0810E4F
:100F88000001736F000E746F010E756F010E766F9E
:100F9800ECEC0DF0150E0001786F4B0E776FBE0E5E
:100FA800E82EFED7772FFCD7782FFAD700F0000E5F
:100FB800F8EC0CF000D0120000017551711907E12E
:100FC80076517219D8A4EBEF07F0EDEF07F02BEF8D
:100FD80008F0FF0E71257C6FFF0E72217D6F16EFF2
:100FE80008F073C07EF074C07FF005EF08F07EC093
:100FF8006AF0010E6B6F7C5115EC0BF000017E4B13
:101008007F2B77517E5D7F51800A796F7851800AF6
:101018007959D8A012EF08F014EF08F0FBEF07F0A9
:101028007C4B7D2B010E7125796F000E72217A6F32
:101038007C51795D7A51800A7B6F7D51800A7B599A
:10104800D8B029EF08F02BEF08F0F5EF07F077514B
:10105800731907E178517419D8A435EF08F037EF00
:1010680008F075EF08F0FF0E7325806FFF0E7421EE
:10107800816F60EF08F071C082F072C083F04FEFAB
:1010880008F080C06AF0010E6B6F825115EC0BF00E
:101098000001824B832B7551825D8351800A796FE1
:1010A8007651800A7959D8A05CEF08F05EEF08F015
:1010B80045EF08F0804B812B010E7325796F000EE8
:1010C80074217A6F8051795D7A51800A7B6F8151E2
:1010D800800A7B59D8B073EF08F075EF08F03FEF3E
:1010E80008F0120000016F6F000E0001726F0A0E07
:1010F8006F19D8A482EF08F084EF08F089EF08F0A0
:10110800000EFA6FF92B02EF09F03F0EFA658FEF28
:1011180008F091EF08F098EF08F0010E726FFA519D
:10112800C00F706F9AEF08F0FAC070F06F51080D99
:10113800F3CF6DF0F4CF6EF0000E716F3F0E706557
:10114800A8EF08F0AAEF08F0BDEF08F0400E705FB6
:10115800010E726F8A9470514009686F010EC7ECD6
:101168000EF00001F951B809686F010EC7EC0EF0D6
:101178008A8400016A51D8B4C4EF08F0C6EF08F0B9
:10118800DEEF08F03B0E6B6F730E6C6F71516B27BF
:10119800000E6C236D516B276E516C236BC0F6FFEC
:1011A8006CC0F7FF0800F5CF68F07251C7EC0EF07D
:1011B800F5EF08F03B0E6B6F730E6C6F71516B2778
:1011C800000E6C236D516B276E516C236BC0F6FFBC
:1011D8006CC0F7FF0800F550FF0A686F7251C7EC42
:1011E8000EF00001702B712B070E7165FEEF08F0F1
:1011F80000EF09F0A2EF08F0080EFA27120000012C
:101208006E6F000E0001706F0A0E6E19D8A40FEFF2
:1012180009F011EF09F016EF09F0000EFA6FF92B3B
:101228008FEF09F03F0EFA651CEF09F01EEF09F089
:1012380025EF09F0010E706FFA51C00F6D6F27EF9F
:1012480009F0FAC06DF0200E6E5F000E6F6F3F0E52
:101258006D6531EF09F033EF09F046EF09F0400E04
:101268006D5F010E706F8A946D514009686F010EB1
:10127800C7EC0EF00001F951B809686F010EC7EC10
:101288000EF08A8400016A51D8B44DEF09F04FEF8F
:1012980009F069EF09F06E51030D3B0E6B6F7F0E7D
:1012A8006C6FF3506B27F4506C236F516B27000E53
:1012B8006C236BC0F6FF6CC0F7FF0800F5CF68F031
:1012C8007051C7EC0EF082EF09F06E51030D3B0E22
:1012D8006B6F7F0E6C6FF3506B27F4506C236F515C
:1012E8006B27000E6C236BC0F6FF6CC0F7FF08007D
:1012F800F550FF0A686F7051C7EC0EF000016D2BB6
:101308006F2B020E6F658BEF09F08DEF09F02BEF55
:1013180009F0050EFA271200000E0001696F67BF79
:101328009AEF09F098EF09F0A4EF09F0671F661F1C
:10133800651F646D000E652366236723010E696FC0
:1013480063BFABEF09F0A9EF09F0B5EF09F0631F30
:10135800621F611F606D000E612362236323010E0B
:10136800691B000E6A6F000E6B6F000E6C6F000E2B
:101378006D6F6451651166116711D8B4C6EF09F035
:10138800C8EF09F0FEEF09F0010E686FD2EF09F01F
:10139800D8906437653766376737682B67AFD7EFFC
:1013A80009F0D9EF09F0CCEF09F0D8906A376B371C
:1013B8006C376D376451605D65516159665162598A
:1013C80067516359D8A0EBEF09F0EDEF09F0F6EF9C
:1013D80009F06451605F6551615B6651625B6751FA
:1013E800635B6A81D8906733663365336433682FEB
:1013F800D9EF09F06951D8B404EF0AF006EF0AF002
:101408000EEF0AF06D1F6C1F6B1F6A6D000E6B23C9
:101418006C236D236AC060F06BC061F06CC062F031
:101428006DC063F01200033404340A6E0A50D8A465
:1014380020EF0AF022EF0AF02CEF0AF0000E016EFE
:10144800000E026E000E036E000E046E99EF0AF095
:1014580001C005F002C006F003C007F004C008F0A0
:10146800200E3CEF0AF0D8900832073206320532D7
:10147800E82E37EF0AF00550096E038EFF0E0116AD
:10148800FF0E0216FF0E0316000E0416960E0A5ED5
:101498000ABE53EF0AF051EF0AF069EF0AF00A505A
:1014A800800A970FD8B05BEF0AF05DEF0AF05FEFA4
:1014B8000AF022EF0AF0D8900432033202320132E5
:1014C8000A3E5FEF0AF081EF0AF01F0E0A646FEF21
:1014D8000AF071EF0AF079EF0AF022EF0AF0D890DB
:1014E80001360236033604360A060A50D8A47FEFBE
:1014F8000AF081EF0AF073EF0AF00950D8B487EFC9
:101508000AF089EF0AF091EF0AF0041E031E021E8A
:10151800016C000E02220322042201C001F002C065
:1015280002F003C003F004C004F0120020EE38F00B
:1015380010EE84F00F0EDBCFE3FFE806FCE220EEAE
:10154800B7F010EE94F00E0EDBCFE3FFE806FCE2F6
:1015580021EE00F010EEA3F00F0EDBCFE3FFE8065C
:10156800FCE2F5C0B3F0F6C0B4F0F3C0B5F0F4C0D7
:10157800B6F0000E00016A6F020E80EC0DF0840ECA
:101588000001736F000E746F010E756F010E766F98
:10159800ECEC0DF0020E00016A6F020E80EC0DF00B
:1015A800940E0001736F000E746F010E756F010EBB
:1015B800766FECEC0DF0030E00016A6F020E80EC02
:1015C8000DF0A30E0001736F000E746F010E756F9E
:1015D800010E766FECEC0DF0030E00016A6F020E3F
:1015E80080EC0DF0A30E0001736F000E746F010EF6
:1015F800756F010E766FECEC0DF0000E0001726F46
:101608002A0E716F000E746F340E736F000E766FB2
:10161800320E756F000E786F340E776FE0EC07F0BE
:10162800120000016E6F000E0001706F3F0E6E65B4
:1016380020EF0BF022EF0BF026EF0BF0400E6E5F61
:10164800010E706F8A946E9F6E8D6EC068F0705137
:10165800C7EC0EF06AC060F00001616B000E636FAA
:10166800080E626F88EC0BF000016051BF0BB809DF
:10167800686F7051C7EC0EF08A8400017051A9ECB4
:101688000EF000017051A9EC0EF000016F6F8A9402
:101698006EC068F07051C7EC0EF000016B51D8B401
:1016A80058EF0BF05AEF0BF06EEF0BF06AC06CF0CE
:1016B800070E6C17010E6D6F6C2B65EF0BF0D89051
:1016C8006D376C2F63EF0BF000016D516F116F6F69
:1016D80081EF0BF06AC06CF0070E6C17010E6D6F8E
:1016E8006C2B79EF0BF0D8906D376C2F77EF0BF0F0
:1016F80000016D51FF0A6F156F6F8A846FC068F023
:101708007051C7EC0EF01200000E0001656F63BF48
:1017180092EF0BF090EF0BF098EF0BF0626D631FF8
:10172800D8B0632B010E656F61BF9FEF0BF09DEF83
:101738000BF0A5EF0BF0606D611FD8B0612B010EA7
:10174800651B000E676F000E666F62516311D8B497
:10175800B0EF0BF0B2EF0BF0DAEF0BF0010E646FA5
:10176800BAEF0BF0D89062376337642B63AFBFEFE3
:101778000BF0C1EF0BF0B6EF0BF0D8906637673778
:101788006251605D63516159D8A0CDEF0BF0CFEF86
:101798000BF0D4EF0BF06251605F6351615B6681BF
:1017A800D89063336233642FC1EF0BF06551D8B41E
:1017B800E0EF0BF0E2EF0BF0E6EF0BF0666D671F62
:1017C800D8B0672B66C060F067C061F0120020EEE9
:1017D800D8F010EE83F0060EDBCFE3FFE806FCE25C
:1017E80020EEE5F010EE8AF0050EDBCFE3FFE80609
:1017F800FCE220EEC6F010EE79F0090EDBCFE3FF35
:10180800E806FCE2000EF8EC0CF0020E00016A6F2C
:10181800120E80EC0DF0830E0001736F000E746FD2
:10182800010E756F010E766FECEC0DF0020E0001E3
:101838006A6F4E0E80EC0DF08A0E0001736F000E79
:10184800746F010E756F010E766FECEC0DF0050EDE
:1018580000016A6F1A0E80EC0DF0790E0001736FAB
:10186800000E746F010E756F010E766FECEC0DF0C3
:10187800290E0001786F960E776F7F0EE82EFED73F
:10188800772FFCD7782FFAD7000EF8EC0CF000D0A1
:101898001200000171BF5DEF0CF0715170110BE186
:1018A800EB0E6E5D010E6F59D8A05DEF0CF05FEF87
:1018B8000CF096EF0CF071BF71EF0CF071510BE169
:1018C800480E6E5DE80E6F59010E7059D8B06FEF73
:1018D8000CF071EF0CF096EF0CF0720ED36EFD0E5B
:1018E800946E0C0EBA6E6E514808606FE80E6F5514
:1018F800616F010E7055626F000E7155636F6EC097
:1019080064F06FC065F070C066F071C067F090EC6D
:1019180009F000016051CB6E000ECC6E070ECA6E46
:10192800A2EF0CF0720ED36EFD0E946E0C0EBA6E12
:10193800F90ECB6E000ECC6E070ECA6E12000001B7
:101948006D6F000E836E8A9A00D08A8A8A988A9070
:101958008A928A9400D0C00E0001686F000EC7EC0E
:101968000EF0C00E0001686F010EC7EC0EF0400EBD
:101978000001686F000EC7EC0EF0400E0001686FA2
:10198800010EC7EC0EF0B80E0001686F000EC7EC30
:101998000EF0B80E0001686F010EC7EC0EF00001E2
:1019A8006D05D8A4DAEF0CF0DCEF0CF0E9EF0CF0E1
:1019B8003F0E686F000EC7EC0EF03F0E0001686F17
:1019C800010EC7EC0EF0F4EF0CF03E0E686F000E3F
:1019D800C7EC0EF03E0E0001686F010EC7EC0EF06A
:1019E800000EF8EC0CF0120000016A6F000E000106
:1019F8006C6F8A94400E686F000EC7EC0EF0400EB4
:101A08000001686F010EC7EC0EF000016C51B809B7
:101A1800686F000EC7EC0EF000016C51B809686FD2
:101A2800010EC7EC0EF08A84000E00016B6F6A513C
:101A3800010DF3500008686F000EC7EC0EF00001AE
:101A48006A51010DF3500008686F010EC7EC0EF0E3
:101A580000016B2B3F0E6B6534EF0DF036EF0DF088
:101A68001BEF0DF06C2B070E6C653DEF0DF03FEF93
:101A78000DF0FDEF0CF01200FA0EF66E1D0EF76E6B
:101A8800000EF86E01EE00F010EE10F00900F5CF30
:101A9800EEFFE550E150FAE1100EF66E1D0EF76EFE
:101AA800000EF86E00EEB7F010EE42F00900F5CF28
:101AB800EEFFE550E150FAE1EA0EF66E1D0EF76E04
:101AC800000EF86E00EE38F010EE10F00900F5CFB9
:101AD800EEFFE550E150FAE10001FA6BF96B00EE18
:101AE80048F0080EEE6AE806FDE150905092000EAC
:101AF800F86E00011BEF0EF000016C6F000E000184
:101B08006B6F800E6C618BEF0DF08DEF0DF0B6EF03
:101B18000DF0070E6A6593EF0DF095EF0DF097EF56
:101B28000DF0B6EF0DF06CC0FAF06AC0F9F03F0E98
:101B38006C65A1EF0DF0A3EF0DF0A7EF0DF0400ECF
:101B48006C5F010E6B6F8A946C514009686F6B5122
:101B5800C7EC0EF000016A51B809686F6B51C7EC09
:101B68000EF08A8412004EC083FF8080080E0001A8
:101B7800606FC90EE82EFED7602FFCD700D080908A
:101B88004CC083FF8082080E0001606FC90EE82EEA
:101B9800FED7602FFCD700D080924AC083FF808494
:101BA800080E0001606FC90EE82EFED7602FFCD723
:101BB80000D0809448C083FF8086080E0001606FC3
:101BC800C90EE82EFED7602FFCD700D080961200F1
:101BD8000EEF0EF000017551D8B4F5EF0DF0F7EFE8
:101BE8000DF002EF0EF076C06AF073C0D9FF74C032
:101BF800DAFFDF5076EC08F00BEF0EF076C06AF0F3
:101C080073C0D9FF74C0DAFFDF5003EC09F000019C
:101C1800734B742B73C0D9FF74C0DAFFDF50D8A49C
:101C280018EF0EF01AEF0EF0EEEF0DF01200000EA6
:101C3800936E000E816E010EA3EC0CF0EBEC0BF032
:101C480043EC07F0E80E00016E6F030E6F6F000E95
:101C5800706F000E716F4DEC0CF0000E0001616F9B
:101C6800320E606F05EC0FF0E4EC0EF09AEC0AF01F
:101C7800C282B7EC0DF03AEF0EF007EF00F0000E5D
:101C8800151A000E161A000E171A800E181A11C00F
:101C980001F012C002F013C003F014C004F015C024
:101CA80005F016C006F017C007F018C008F009ECD8
:101CB80000F001C011F002C012F003C013F004C01C
:101CC80014F012000600F3CF36F0F4CF37F09EACD4
:101CD80070EF0EF072EF0EF078EF0EF09E9CC4CF0E
:101CE80028F0296A7EEC04F0F2A07DEF0EF07FEF79
:101CF8000EF082EF0EF0F2908150815037C0F4FF61
:101D080036C0F3FF50921100312E4F7363696C6C2B
:101D18006F73636F7065004561737953434F504526
:101D2800005175656E74696E0050726F6A65740053
:101D38004A756C6573004D4355203A0045726963D6
:101D4800006279003200310026000001606F000156
:101D58006051D8B4B2EF0EF0B4EF0EF0B8EF0EF059
:101D68008A808A92BAEF0EF08A928A8295688A8669
:101D78008A8800D083CF61F08A9800D08A908A92AE
:101D88000001615112000001696F00016951D8B466
:101D9800D0EF0EF0D2EF0EF0D6EF0EF08A808A92D6
:101DA800D8EF0EF08A928A82000E956E8A9668C0E5
:101DB8008CFF8A8800D08A9800D08A908A92120074
:101DC800000E956E000E836E0A0EC16E110EC26E65
:101DD800F00E926E000E806EF28E9D8CF28CF28662
:101DE800120043686F6973697220756E206D6F64A5
:101DF8006500322E52656374616E67756C61697235
:0C1E080065000F0EBB6EBA8ABA9812007B
:10733A000000000000000000000000000000000043
:10734A000000000000000000000000000000000033
:10735A000000000000000000000000000000000023
:10736A000000000000000000000000000000000013
:10737A000000000000000000000000000000000003
:10738A0000000000000000000000000000000000F3
:10739A0000000000000000000000000000000000E3
:1073AA0000000000000000000000000000000000D3
:1073BA0000000000000000000000000000000000C3
:1073CA0000000000000000000000000000000000B3
:1073DA0000000000000000000000000000000000A3
:1073EA000000000000000000000000000000000093
:1073FA000000000000000000000000000000000083
:10740A000000000000000000000000000000000072
:10741A000000000000000000000000000000000062
:10742A000000000000000000000000000000000052
:10743A0000000000000000000000065F5F06000078
:10744A00000007070007070000147F7F147F7F14DE
:10745A0000242E6B6B3A120000466630180C6662E6
:10746A0000307A4F5D377A480004070300000000B5
:10747A0000001C3E63410000000041633E1C000006
:10748A0000082A3E1C1C3E2A0808083E3E0808003E
:10749A00000080E0600000000008080808080800F2
:1074AA000000006060000000006030180C06030154
:1074BA00003E7F71594D7F3E0040427F7F40400031
:1074CA0000627359496F660000226349497F36009A
:1074DA0000181C16537F7F5000276745457D3900E9
:1074EA00003C7E4B4979300000030371790F070095
:1074FA0000367F49497F360000064F49693F1E0022
:10750A000000006666000000000080E666000000D9
:10751A0000081C366341000000242424242424008B
:10752A0000004163361C080000020351590F06008F
:10753A00003E7F415D5D1F1E007C7E13137E7C0032
:10754A0000417F7F49497F36001C3E6341416322E7
:10755A0000417F7F41633E1C00417F7F495D41635B
:10756A0000417F7F491D0103001C3E634151737234
:10757A00007F7F08087F7F000000417F7F41000075
:10758A0000307040417F3F0100417F7F081C7763D4
:10759A0000417F7F41406070007F7F0E1C0E7F7F1D
:1075AA00007F7F060C187F7F001C3E6341633E1CF0
:1075BA0000417F7F49090F06001E3F21717F5E004F
:1075CA0000417F7F09197F6600266F4D597332008B
:1075DA000003417F7F410300007F7F40407F7F009F
:1075EA00001F3F60603F1F00007F7F3018307F7FA1
:1075FA000043673C183C674300074F78784F070001
:10760A0000476371594D677300007F7F4141000055
:10761A00000103060C183060000041417F7F000022
:10762A0000080C0603060C08008080808080808099
:10763A00800000030704000000207454543C784082
:10764A0000417F3F4848783000387C44446C280029
:10765A0000307848493F7F4000387C54545C180019
:10766A0000487E7F490302000098BCA4A4F87C0469
:10767A0000417F7F08047C780000447D7D40000043
:10768A000060E08080FD7D0000417F7F10386C44FF
:10769A000000417F7F400000007C7C18381C7C7809
:1076AA00007C7C04047C780000387C44447C3800EC
:1076BA000084FCF8A4243C1800183C24A4F8FC8498
:1076CA0000447C784C041C1800485C545474240010
:1076DA000000043E7F442400003C7C40403C7C4047
:1076EA00001C3C60603C1C00003C7C7038707C3C98
:1076FA0000446C3810386C44009CBCA0A0FC7C0090
:10770A00004C64745C4C64000008083E77414100F8
:10771A000000000077770000004141773E0808002A
:10772A0000020301030203010070784C464C787092
:10773A00000E9F91B1FB4A00003A7A40407A7A40A3
:10774A0000387C54555D19000002237555557D7B20
:10775A0042217554547D794000217555547C7840F6
:10776A0000207457577C784000183CA4A4E44000D9
:10777A0000023B7D55555D1B02397D54545D19004D
:10778A0000397D55545C18000001457C7C4101009C
:10779A00000203457D7D43020001457D7C400000D7
:1077AA0000797D1612167D790070782B2B7870007F
:1077BA0000447C7C5555450000207454547C7C540C
:1077CA00547C7E0B097F7F4900327B49497B32001A
:1077DA0000327A48487A320000327A4A48783000D1
:1077EA00003A7B41417B7A40003A7A4240787840BD
:1077FA00009ABAA0A0FA7A000001193C66663C1900
:10780A00013D7D40407D3D0000183C24E7E72424EB
:10781A0000687E7F49436620002B2FFCFC2F2B003B
:10782A0000FFFF09092FF6F8A040C088FE7F090370
:10783A0002207454557D79400000447D7D4100004A
:10784A00003078484A7A320000387840427A7A40E2
:10785A00007A7A0A0A7A7000007D7D19317D7D00EE
:10786A000000262F292F2F280000262F292F260037
:10787A000030784D456020000038380808080800B4
:10788A000008080808383800004F6F3018CCEEBBE3
:10789A00914F6F30186C76FBF90000007B7B00007B
:1078AA0000081C3622081C362222361C0822361CE6
:1078BA0008AA005500AA005500AA55AA55AA55AA11
:1078CA0055DDFFAA77DDAAFF77000000FFFF000061
:1078DA0000101010FFFF000000141414FFFF000036
:1078EA00001010FFFF00FFFF001010F0F010F0F082
:1078FA0000141414FCFC0000001414F7F700FFFF36
:10790A00000000FFFF00FFFF001414F4F404FCFC65
:10791A000014141717101F1F0010101F1F101F1F0D
:10792A00001414141F1F000000101010F0F00000C3
:10793A00000000001F1F1010101010101F1F101041
:10794A0010101010F0F0101010000000FFFF1010BF
:10795A00101010101010101010101010FFFF10103F
:10796A0010000000FFFF1414140000FFFF00FFFFC7
:10797A001000001F1F101717140000FCFC04F4F479
:10798A001414141717101717141414F4F404F4F435
:10799A00140000FFFF00F7F714141414141414143D
:1079AA00141414F7F700F7F714141414171714140F
:1079BA001410101F1F101F1F10141414F4F41414A1
:1079CA00141010F0F010F0F01000001F1F101F1F0D
:1079DA00100000001F1F141414000000FCFC1414F3
:1079EA00140000F0F010F0F0101010FFFF10FFFF6D
:1079FA0010141414FFFF1414141010101F1F000089
:107A0A0000000000F0F0101010FFFFFFFFFFFFFF63
:107A1A00FFF0F0F0F0F0F0F0F0FFFFFFFF000000E1
:107A2A000000000000FFFFFFFF0F0F0F0F0F0F0FE7
:107A3A000F387C446C386C4400FCFE2A2A3E140041
:107A4A00007E7E020206060000027E7E027E7E0222
:107A5A000063775D4963630000387C447C3C04041E
:107A6A000080FE7E20203E1E000406027E7C060266
:107A7A000099BDE7E7BD9900001C3E6B496B3E1CAF
:107A8A00004C7E7301737E4C0030784A4F7D39007A
:107A9A0000183C243C3C243C1898FC643C3E273D9E
:107AAA0018000000000000000000000000000000B4
:107ABA0000000000000000000000000000000000BC
:107ACA0000000000000000000000000000000000AC
:107ADA00000000000000000000000000000000009C
:107AEA00000000000000000000000000000000008C
:107AFA00000000000000000000000000000000007C
:107B0A00000000000000000000000000000000006B
:107B1A00000000000000000000000000000000005B
:107B2A00000000000000000000000000000000004B
:107B3A00000000000000000000808080800000003B
:107B4A0000000000000000000000000000800000AB
:107B5A00800000800000000000000000000000001B
:107B6A00000000000000000000000000000000000B
:107B7A0000000000000000000000000000000000FB
:107B8A0000000000000000000000000000000000EB
:107B9A0000000000000000000000000000000000DB
:107BAA0000000000000000000000000000000000CB
:107BBA00000000000000003E4180808080413E00BD
:107BCA0000D894A46C00007884844C0088FC8081DE
:107BDA00FF8081FF800078848484780000D894A490
:107BEA006C00007884844C000078848484780008CF
:107BFA00FC488484780000789494580000000000BF
:107C0A00D894A46C00041C6480740C0400D894A456
:107C1A006C0004FF844000789494580088FC88041F
:107C2A00FC8804F88000000000000000000000004A
:107C3A00000000000000000000000000000000003A
:107C4A00000000000000000000000000000000002A
:107C5A00000000000000000000000000000000001A
:107C6A000000000000000000000000000000000406
:107C7A0007040000000000000000000000000000EF
:107C8A0000000000000404060100000000000000DB
:107C9A0000000000000000000000000000000000DA
:107CAA0000000000000000000000000000000000CA
:107CBA0000000000000000000000000000000000BA
:107CCA0000000000000000000000000000000000AA
:107CDA00000000000000000000000000000000009A
:107CEA000080F0F8181C0E0E1C1878F0C0800000F6
:107CFA0000000000000000000000000000000080FA
:107D0A00F0F8181C0C0E0E1C18F8F0800000000089
:107D1A000000000000000000000000000000000059
:107D2A000000000000000000000000000000000049
:107D3A000000000000000000000000000000000039
:107D4A000000000000000000000000000000000029
:107D5A000000000000000000000000000000000019
:107D6A00F8FF0F0000000000000000000FFFF800FD
:107D7A000000000000000000000000000000F8FF02
:107D8A000F0000000000000000000FFFF8000000D4
:107D9A0000000000000000000000000000000000D9
:107DAA0000000000000000000000000000000000C9
:107DBA0000000000000000000000000000000000B9
:107DCA000000000000000000000800080008001C75
:107DDA00FCF8800800080008000800080008E0FF16
:107DEA003F090008000800080008000800093FFFD2
:107DFA00E00800080008000800080008E0FF3F0942
:107E0A000008000800080008000800090F0F000811
:107E1A000008000800000000000000000000000048
:107E2A000000000000000000000000000000000048
:107E3A000000000000000000000000000000000038
:107E4A000000000000000000000000000000000028
:107E5A0000073FFCE000000000000080C0FC7F0734
:107E6A000000000000000000000000000000000701
:107E7A003FFCE000000000000000C0FC7F0700009B
:107E8A0000000000000000000000000000000000E8
:107E9A0000000000000000000000000000000000D8
:107EAA0000000000000000000000000000000000C8
:107EBA0000000000000000000000000000000000B8
:107ECA0000000000000000000000000000000000A8
:107EDA0000000001070F1C18181C0F070100000002
:107EEA000000000000000000000000000000000088
:107EFA000001070F1C18181C0C0F070100000000D6
:107F0A000000000000000000000000000000000067
:107F1A000000000000000000000000000000000057
:107F2A000000000000000000000000000000000047
:107F3A0000000000005C000C000C7C287C7C447C67
:107F4A00241048285408000C003844004438002003
:107F5A001008103810804000101010004000201047
:107F6A0008384438007C006454484454281C107C67
:107F7A004C542438542004740C28542808543800CB
:107F8A0050008050001028442828284428100454FF
:107F9A0008384C5C7814787C54283844447C44383B
:107FAA007C54447C14043844347C107C007C0020CB
:107FBA00403C7C106C7C40407C087C7C047C7C448B
:107FCA007C7C14083844787C1468485424047C0463
:107FDA007C407C3C403C7C207C6C106C1C601C64AB
:107FEA00544C7C4400081020447C0008040880801B
:057FFA008004080000F6
:020000040020DA
:08000000FFFFFFFFFFFFFFFF00
:020000040030CA
:0E000000000C191EFF8181FF0FC00FE00F40A2
:00000001FF
