:020000040000FA
:0400000035EF00F0E8
:060008005A827EED15F0A6
:100018005A80D8CF60F0E8CF61F0E0CF62F0F3CF3C
:1000280063F0F4CF64F09EAC1CEF00F01EEF00F01C
:1000380029EF00F09E9CC4CFD0F00001D16BD0C056
:1000480029F0D1C02AF01EEC19F064C0F4FF63C097
:10005800F3FF62C0E0FF61C0E8FF60C0D8FF5A90BC
:10006800100015EF24F021EE5DF011EE86F0050E7C
:10007800DBCFE3FFE806FCE26FC18CF170C18DF1C4
:1000880071C18EF172C18FF121EE48F011EE78F056
:10009800060EDBCFE3FFE806FCE221EE41F011EEAD
:1000A8007FF0060EDBCFE3FFE806FCE273C190F1B8
:1000B80074C191F175C192F176C193F177C194F150
:1000C800060E00016F6F070EABEC25F00101DF5142
:1000D800E011D8A472EF00F074EF00F0B9EF00F06F
:1000E800780E0001786F010E796F010E7A6F010E9C
:1000F8007B6F4DEC26F0C4500001F26FF36BF46B8C
:10010800F56BF2C07FF0F3C080F0F4C081F0F5C069
:1001180082F0000E836F000E846F000E856F000E54
:10012800866FF40E876F000E886F000E896F000EC1
:100138008A6FEA0E8B6F010E8C6F000E8D6F000EAA
:100148008E6F240E8F6FF40E906F000E916F000E5D
:10015800926F2FEC25F07FC0F2F080C0F3F081C0E1
:10016800F4F082C0F5F0F7EF00F07F0E0001786F31
:10017800010E796F010E7A6F010E7B6F4DEC26F040
:10018800C4CFF6F00001F76BF6C07FF0F7C080F03F
:10019800000E80BFFF0E816F826F000E836F000E0E
:1001A800846F000E856F000E866FF40E876F000E49
:1001B800886F000E896F000E8A6F000E8B6F000E1D
:1001C8008C6F000E8D6F000E8E6F640E8F6F000E99
:1001D800906F000E916F000E926F2FEC25F07FC08C
:1001E800F6F080C0F7F00001F5BF09EF01F0F55116
:1001F800F41109E1EA0EF25D010EF359D8B007EFE8
:1002080001F009EF01F011EF01F0EA0EF26F010EB3
:10021800F36F000EF46F000EF56FF5BF20EF01F0DD
:10022800F551F4110BE1250EF25DF40EF359D8A047
:1002380020EF01F022EF01F02AEF01F0240EF26F17
:10024800F40EF36F000EF46F000EF56FF7BF31EF89
:1002580001F02FEF01F035EF01F0000EF76F000EFF
:10026800F66FF7BF41EF01F0F75109E1650EF65D52
:10027800D8A041EF01F043EF01F047EF01F0000E85
:10028800F76F640EF66F000E776F380E766F000EFC
:10029800796F2F0E786F000E7B6F380E7A6F000E15
:1002A8007D6F370E7C6F000E7F6F010E7E6FBDEC89
:1002B80023F0000E0001776F390E766F000E796F0C
:1002C8002F0E786F000E7B6F390E7A6F000E7D6FE0
:1002D800370E7C6F000E7F6F010E7E6FBDEC23F032
:1002E800060E00016F6F3E0EABEC25F08C0E000180
:1002F800786F010E796F010E7A6F010E7B6F4DECEE
:1003080026F0060E00016F6F720EABEC25F0930E0F
:100318000001786F010E796F010E7A6F010E7B6F05
:100328004DEC26F0070E00016F6F0B0EABEC25F0BD
:10033800860E0001786F010E796F010E7A6F010E3B
:100348007B6F4DEC26F0070E00016F6F660EABEC6D
:1003580025F0900E0001786F010E796F010E7A6F0B
:10036800010E7B6F4DEC26F0000E0001776F000E3A
:10037800766F000E796F2E0E786F000E7B6F800EF1
:100388007A6F000E7D6F2E0E7C6F000E7F6F010E50
:100398007E6FBDEC23F0F2C06FF0F3C070F0F4C0D4
:1003A80071F0F5C072F0010E62EC1BF06FC096F0B0
:1003B80070C097F071C098F072C099F0170E0001E4
:1003C8009A6FB70E9B6FD10E9C6F380E9D6F53ECD2
:1003D80011F096C0CBF197C0CCF198C0CDF199C07F
:1003E800CEF1CBC165F0CCC166F0CDC167F0CEC10E
:1003F80068F0B0EC20F065C099F166C09AF1CBC105
:100408007DF0CCC17EF0CDC17FF0CEC180F0CBC1F4
:1004180065F0CCC166F0CDC167F0CEC168F0B0EC34
:1004280020F0000165C06FF066C070F0000E70BF6C
:10043800FF0E716F726F010E62EC1BF06FC081F0DE
:1004480070C082F071C083F072C084F07CEC26F03A
:100458007DC0CBF17EC0CCF17FC0CDF180C0CEF1A4
:10046800CBC196F0CCC197F0CDC198F0CEC199F030
:10047800000E00019A6F000E9B6F200E9C6F410EBC
:100488009D6F53EC11F096C0CBF197C0CCF198C09A
:10049800CDF199C0CEF1CBC165F0CCC166F0CDC12C
:1004A80067F0CEC168F0B0EC20F065C09BF166C083
:1004B8009CF1CBC17DF0CCC17EF0CDC17FF0CEC127
:1004C80080F0CBC165F0CCC166F0CDC167F0CEC17C
:1004D80068F0B0EC20F0000165C06FF066C070F005
:1004E800000E70BFFF0E716F726F010E62EC1BF091
:1004F8006FC081F070C082F071C083F072C084F068
:100508007CEC26F07DC0CBF17EC0CCF17FC0CDF174
:1005180080C0CEF1CBC196F0CCC197F0CDC198F098
:10052800CEC199F0000E00019A6F000E9B6F200E4D
:100538009C6F410E9D6F53EC11F096C0CBF197C0A4
:10054800CCF198C0CDF199C0CEF1CBC165F0CCC14A
:1005580066F0CDC167F0CEC168F0B0EC20F065C0A0
:100568009DF166C09EF1CBC17DF0CCC17EF0CDC1BE
:100578007FF0CEC180F0CBC165F0CCC166F0CDC1B3
:1005880067F0CEC168F0B0EC20F0000165C06FF0F4
:1005980066C070F0000E70BFFF0E716F726F010EB3
:1005A80062EC1BF06FC081F070C082F071C083F004
:1005B80072C084F07CEC26F07DC0CBF17EC0CCF11B
:1005C8007FC0CDF180C0CEF1CBC196F0CCC197F001
:1005D800CDC198F0CEC199F0000E00019A6F000EBF
:1005E8009B6F200E9C6F410E9D6F53EC11F096C0CF
:1005F800CBF197C0CCF198C0CDF199C0CEF1CBC169
:1006080065F0CCC166F0CDC167F0CEC168F0B0EC42
:1006180020F065C09FF166C0A0F1CBC17DF0CCC1D0
:100628007EF0CDC17FF0CEC180F0CBC165F0CCC1EA
:1006380066F0CDC167F0CEC168F0B0EC20F00001E3
:1006480065C06FF066C070F0000E70BFFF0E716F6E
:10065800726F010E62EC1BF06FC081F070C082F007
:1006680071C083F072C084F07CEC26F07DC0CBF1C1
:100678007EC0CCF17FC0CDF180C0CEF1CBC196F069
:10068800CCC197F0CDC198F0CEC199F0000E000111
:100698009A6F000E9B6F200E9C6F410E9D6F53EC5E
:1006A80011F096C0CBF197C0CCF198C0CDF199C0AC
:1006B800CEF1CBC165F0CCC166F0CDC167F0CEC13B
:1006C80068F0B0EC20F065C0A1F166C0A2F1F6C0F8
:1006D8006FF0F7C070F00001000E70BFFF0E716F71
:1006E800726F010E62EC1BF06FC096F070C097F04D
:1006F80071C098F072C099F00A0E00019A6FD70E77
:100708009B6F230E9C6F3C0E9D6F53EC11F096C0AF
:10071800C7F197C0C8F198C0C9F199C0CAF1C7C15B
:1007280065F0C8C166F0C9C167F0CAC168F0B0EC2D
:1007380020F065C0A3F166C0A4F1C7C17DF0C8C1AF
:100748007EF0C9C17FF0CAC180F0C7C165F0C8C1D9
:1007580066F0C9C167F0CAC168F0B0EC20F00001CA
:1007680065C06FF066C070F0000E70BFFF0E716F4D
:10077800726F010E62EC1BF06FC081F070C082F0E6
:1007880071C083F072C084F07CEC26F07DC0C7F1A4
:100798007EC0C8F17FC0C9F180C0CAF1C7C196F058
:1007A800C8C197F0C9C198F0CAC199F0000E0001FC
:1007B8009A6F000E9B6F200E9C6F410E9D6F53EC3D
:1007C80011F096C0C7F197C0C8F198C0C9F199C097
:1007D800CAF1C7C165F0C8C166F0C9C167F0CAC12E
:1007E80068F0B0EC20F065C0A5F166C0A6F1C7C1FD
:1007F8007DF0C8C17EF0C9C17FF0CAC180F0C7C111
:1008080065F0C8C166F0C9C167F0CAC168F0B0EC4C
:1008180020F0000165C06FF066C070F0000E70BF78
:10082800FF0E716F726F010E62EC1BF06FC081F0EA
:1008380070C082F071C083F072C084F07CEC26F046
:100848007DC0C7F17EC0C8F17FC0C9F180C0CAF1C0
:10085800C7C196F0C8C197F0C9C198F0CAC199F04C
:10086800000E00019A6F000E9B6F200E9C6F410EC8
:100878009D6F53EC11F096C0C7F197C0C8F198C0AE
:10088800C9F199C0CAF1C7C165F0C8C166F0C9C14C
:1008980067F0CAC168F0B0EC20F065C0A7F166C087
:1008A800A8F101019951300FAB6F9B51300FAC6F1C
:1008B8009D51300FAD6F9F51300FAE6FA151300F6A
:1008C800AF6FA351300FB06FA551300FB16FA75163
:1008D800300FB26F000EB46F000EB36FABC1B3F13F
:1008E800000EB46F000EB66F000EB56FACC1B5F157
:1008F800000EB66F000EB86F000EB76FADC1B7F13E
:10090800000EB86F000EBA6F000EB96FAEC1B9F124
:10091800000EBA6F000EBC6F000EBB6FAFC1BBF10B
:10092800000EBC6F000EBE6F000EBD6FB0C1BDF1F2
:10093800000EBE6F000EC06F000EBF6FB1C1BFF1D9
:10094800000EC06F000EC26F000EC16FB2C1C1F1C0
:10095800000EC26F060E00016F6F560EABEC25F04D
:10096800BD0E0001786F010E796F010E7A6F010ECE
:100978007B6F4DEC26F0060E00016F6F5F0EABEC3F
:1009880025F0BF0E0001786F010E796F010E7A6FA6
:10099800010E7B6F4DEC26F0060E00016F6F680E9E
:1009A800ABEC25F0C10E0001786F010E796F010ED6
:1009B8007A6F010E7B6F4DEC26F0070E00016F6F0A
:1009C800330EABEC25F0B30E0001786F010E796F92
:1009D800010E7A6F010E7B6F4DEC26F0070E0001B9
:1009E8006F6F3C0EABEC25F0B50E0001786F010E71
:1009F800796F010E7A6F010E7B6F4DEC26F0070EB2
:100A080000016F6F4A0EABEC25F0B70E0001786F4E
:100A1800010E796F010E7A6F010E7B6F4DEC26F097
:100A2800070E00016F6F530EABEC25F0B90E0001F5
:100A3800786F010E796F010E7A6F010E7B6F4DECA6
:100A480026F0070E00016F6F5C0EABEC25F0BB0EB5
:100A58000001786F010E796F010E7A6F010E7B6FBE
:100A68004DEC26F0F2C07FF0F3C080F0F4C081F0C6
:100A7800F5C082F0EA0E0001836F010E846F000E4C
:100A8800856F000E866F240E876FF40E886F000E38
:100A9800896F000E8A6F010E8B6F000E8C6F000E2F
:100AA8008D6F000E8E6F320E8F6F000E906F000EDE
:100AB800916F000E926F2FEC25F07FC0C3F180C0BC
:100AC800C4F1C3C16FF0C4C170F00001000E70BF63
:100AD800FF0E716F726F010E62EC1BF06FC081F038
:100AE80070C082F071C083F072C084F0000E000103
:100AF8007D6F000E7E6FC80E7F6F420E806F50ECC8
:100B080017F07DC065F07EC066F07FC067F080C0DA
:100B180068F0B0EC20F065C0A9F166C0AAF1C3C1C5
:100B28006FF0C4C170F00001000E70BFFF0E716F4E
:100B3800726F010E62EC1BF06FC081F070C082F022
:100B480071C083F072C084F0F6C06FF0F7C070F027
:100B58000001000E70BFFF0E716F726F010E62EC24
:100B68001BF06FC07DF070C07EF071C07FF072C066
:100B780080F050EC17F07DC065F07EC066F07FC055
:100B880067F080C068F0B0EC20F065C0C5F166C0C1
:100B9800C6F1E7C176F0E8C177F0000E0001796F81
:100BA800000E786FE7C17AF0E8C17BF0000E7D6F28
:100BB8002D0E7C6F000E7F6F000E7E6FBDEC23F054
:100BC800F6C06FF0F7C070F00001000E70BFFF0EA6
:100BD800716F726F010E62EC1BF06FC095F170C0FF
:100BE80096F171C097F172C098F195C1AFF096C1B6
:100BF800B0F097C1B1F098C1B2F0F2C0B3F0F3C051
:100C0800B4F0F4C0B5F0F5C0B6F02AEC22F001015A
:100C1800E151C55DC651800A0001BD6F0101E25175
:100C2800800A0001BD59D8A01CEF06F01EEF06F09F
:100C38005EEF06F00101C551C611D8B426EF06F0E3
:100C480028EF06F05EEF06F00A0E00016F6F010E46
:100C5800706F0101E751B7EC21F07E0E0101E51933
:100C6800E611D8B43AEF06F03CEF06F053EF06F081
:100C7800E5C185F0E6C186F0E3C187F0E4C188F0FC
:100C8800E7C189F0E8C18AF0000E00018C6F0A0EF6
:100C98008B6F000E8E6F010E8D6FB7EC09F0E7C1F8
:100CA800E5F1E8C1E6F1000E0101E46F0A0EE36F19
:100CB80092EF06F0230E00016F6F010E706F0101B5
:100CC800E751B7EC21F07E0E0101E519E611D8B421
:100CD80070EF06F072EF06F089EF06F0E5C185F0D7
:100CE800E6C186F0E3C187F0E4C188F0E7C189F086
:100CF800E8C18AF0000E00018C6F230E8B6F000E86
:100D08008E6F010E8D6FB7EC09F0E7C1E5F1E8C110
:100D1800E6F1000E0101E46F230EE36FA951E15DD6
:100D2800E251800A0001BD6F0101AA51800A000149
:100D3800BD59D8B0A2EF06F0A4EF06F0A9EF06F06F
:100D48000101E14BE22BAEEF06F0000E0101E26F6C
:100D5800000EE16FE8BFBAEF06F0E85109E17E0E38
:100D6800E75DD8A0BAEF06F0BCEF06F0C2EF06F0D8
:100D7800000EE86F000EE76FC4EF06F0E74BE82BB4
:100D88001200000E0001F96F000EF86F000EDB6F05
:100D9800010EDA6F000E576E010E566E560457108C
:100DA800D8B4D9EF06F0DBEF06F0E4EF06F0DC0587
:100DB800DD11D8A4E2EF06F0E4EF06F07CEF07F0CF
:100DC800000E576E000E566EEAC07FF1EBC080F140
:100DD800E8C081F1E9C082F1E6C083F1E7C084F19F
:100DE800E4C085F1E5C086F1000E0101956F000EA3
:100DF800946F94C16FF00F0EABEC25F0850E0001D7
:100E0800786F010E796F010E7A6F010E7B6F4DECD2
:100E180026F00101944B952B95BF1CEF07F09551D7
:100E280009E1080E945DD8A01CEF07F01EEF07F04B
:100E3800FDEF06F0000E0001776F000E766F000ED2
:100E4800796F110E786F000E7B6F110E7A6F000E9E
:100E58007D6F110E7C6F000E7F6F010E7E6FBDECF3
:100E680023F00001DC51DD11D8A43DEF07F03FEF7E
:100E780007F051EF07F0010E6F6F020EABEC25F093
:100E88007F0E0001786F010E796F010E7A6F010EE7
:100E98007B6F4DEC26F07CEF07F0DC05DD11D8A464
:100EA80058EF07F05AEF07F06CEF07F0010E6F6F7D
:100EB800020EABEC25F0810E0001786F010E796F00
:100EC800010E7A6F010E7B6F4DEC26F07CEF07F078
:100ED800010E6F6F020EABEC25F0830E0001786FE8
:100EE800010E796F010E7A6F010E7B6F4DEC26F0C3
:100EF8004650300F0101876F4850300F886F4A50B5
:100F0800300F896F4C50300F8A6F000E8B6F000EB8
:100F18008C6F000E8D6F87C18BF12E0E8C6F000EBB
:100F28008D6F000E8F6F000E8E6F88C18EF1000ED0
:100F38008F6F000E916F000E906F89C190F1000EB7
:100F4800916F000E936F000E926F8AC192F1000E9E
:100F5800936F030E00016F6F020EABEC25F08B0E42
:100F68000001786F010E796F010E7A6F010E7B6FA9
:100F78004DEC26F0040E00016F6F020EABEC25F06D
:100F88008E0E0001786F010E796F010E7A6F010ED7
:100F98007B6F4DEC26F0050E00016F6F020EABEC77
:100FA80025F0900E0001786F010E796F010E7A6FAF
:100FB800010E7B6F4DEC26F0060E00016F6F020EDE
:100FC800ABEC25F0920E0001786F010E796F010EDF
:100FD8007A6F010E7B6F4DEC26F00001DC51DD11BC
:100FE800D8A4F9EF07F0FBEF07F0BBEF08F0D7BF85
:100FF80009EF08F0D75107E1630ED65DD8B007EFC7
:1010080008F009EF08F054EF08F01D0ED625766FAA
:10101800000ED721776F000E796F000E786F1D0EC6
:10102800D6257A6F000ED7217B6F000E7D6F400E9C
:101038007C6F000E7F6F000E7E6FBDEC23F0A7C0A3
:101048006FF0010E0001706FD6511C0FB7EC21F044
:101058001C0E0001CC25856F000ECD21866FCAC0FD
:1010680087F0CBC088F01C0ED625896F000ED721DB
:101078008A6FA7C08BF0A8C08CF0000E8E6F010E8F
:101088008D6FB7EC09F0D6C0CCF0D7C0CDF0A7C0B3
:10109800CAF0A8C0CBF00001D64BD72BB6EF09F0A9
:1010A800D7BF60EF08F0D75109E1630ED65DD8A02D
:1010B80060EF08F062EF08F0B6EF09F0000ED76FA6
:1010C800000ED66F000E776F1B0E766F000E796FCD
:1010D800000E786F000E7B6F1B0E7A6F000E7D6F0F
:1010E800400E7C6F000E7F6F000E7E6FBDEC23F00C
:1010F800000E0001776F1C0E766F000E796F000EE0
:10110800786F000E7B6F1C0E7A6F000E7D6F400E9D
:101118007C6F000E7F6F000E7E6FBDEC23F01D0EFE
:101128000001D625766F000ED721776F000E796FF4
:10113800000E786F1D0ED6257A6F000ED7217B6FB3
:10114800000E7D6F400E7C6F000E7F6F000E7E6F6D
:10115800BDEC23F0A7C06FF0010E0001706FD651EF
:101168001C0FB7EC21F047EF08F0B6EF09F0DC05EB
:10117800DD11D8A4C2EF08F0C4EF08F0B6EF09F00B
:10118800D451D511D8A4CBEF08F0CDEF08F039EF42
:1011980009F021EE4FF011EE78F0060EDBCFE3FFF9
:1011A800E806FCE2A8BFE2EF08F0A85109E11F0E2B
:1011B800A75DD8A0E2EF08F0E4EF08F0F6EF08F03A
:1011C800010E6F6F320EABEC25F0780E0001786FD0
:1011D800010E796F010E7A6F010E7B6F4DEC26F0D0
:1011E8000BEF09F0A8BF04EF09F0A85107E11F0EA3
:1011F800A75DD8B002EF09F004EF09F00BEF09F092
:10120800070E6F6F320EABEC25F0E9EF08F0000E19
:101218000001776F1C0E766FA7C078F0A8C079F030
:10122800000E7B6F7F0E7A6FA7C07CF0A8C07DF0A0
:10123800000E7F6F010E7E6FBDEC23F00001A751F9
:10124800C81909E1A851C919D8B42DEF09F02FEF31
:1012580009F0B6EF09F0A7C0C8F0A8C0C9F0000EA1
:10126800D36F010ED26FB6EF09F0D405D511D8A40B
:1012780040EF09F042EF09F0B6EF09F0000E776F82
:101288001C0E766FE0C078F0E1C079F0000E7B6F3D
:101298007F0E7A6FE0C07CF0E1C07DF0000E7F6FBA
:1012A800010E7E6FBDEC23F00001A751E05DE15116
:1012B800800AA96FA851800AA959D8A066EF09F039
:1012C80068EF09F0B6EF09F0D7BF76EF09F0D7510C
:1012D80007E1630ED65DD8B074EF09F076EF09F038
:1012E800B9EF08F01D0ED625766F000ED721776F5F
:1012F800000E796F000E786F1D0ED6257A6F000EDE
:10130800D7217B6F000E7D6F400E7C6F000E7F6FC4
:10131800000E7E6FBDEC23F0A7C06FF0010E000138
:10132800706FD6511C0FB7EC21F01C0E0001CC25B4
:10133800856F000ECD21866FCAC087F0CBC088F0BC
:101348001C0ED625896F000ED7218A6FA7C08BF097
:10135800A8C08CF0000E8E6F010E8D6FB7EC09F0EF
:1013680047EF08F0120000018551895D9B6F865197
:101378008A599C6F87518B5D9D6F88518C599E6FE0
:101388009BC06FF09CC070F0000E70BFFF0E716FB5
:10139800726F010E62EC1BF06FC07DF070C07EF0C2
:1013A80071C07FF072C080F01AEC27F07DC065F044
:1013B8007EC066F07FC067F080C068F0B0EC20F0B7
:1013C80065C09FF066C0A0F09DC06FF09EC070F031
:1013D8000001000E70BFFF0E716F726F010E62EC9C
:1013E8001BF06FC07DF070C07EF071C07FF072C0DE
:1013F80080F01AEC27F07DC065F07EC066F07FC0F3
:1014080067F080C068F0B0EC20F065C0A1F066C05D
:10141800A2F0A1C08FF0A2C090F0D89000018F3741
:1014280090379F518F5D976FA0519059986F9FC0CB
:101438008FF0A0C090F0D8908F379037A1518F5D72
:10144800996FA25190599A6FA1519F5DA051800A3E
:101458008F6FA251800A8F59D8A035EF0AF037EF65
:101468000AF062EF0BF09CBF3CEF0AF03EEF0AF087
:101478004CEF0AF085C0A3F086C0A4F087C0A5F0A1
:1014880088C0A6F089C093F08AC094F058EF0AF09B
:1014980089C0A3F08AC0A4F08BC0A5F08CC0A6F0C8
:1014A80085C093F086C094F0A5C06FF08DC070F031
:1014B800A351B7EC21F0A5C06FF08DC070F000010A
:1014C800A305B7EC21F0A5C06FF08DC070F0000146
:1014D800A329B7EC21F00001A5056F6F8DC070F04E
:1014E800A351B7EC21F00001A5296F6F8DC070F0F2
:1014F800A351B7EC21F00001A5056F6F8DC070F006
:10150800A305B7EC21F00001A5296F6F8DC070F01D
:10151800A305B7EC21F00001A5056F6F8DC070F031
:10152800A329B7EC21F00001A5296F6F8DC070F0D9
:10153800A329B7EC21F0000E0001926F000E916F05
:1015480051EF0BF0010EA325A36F000EA421A46F89
:1015580098BFB3EF0AF0B1EF0AF0C2EF0AF0A1C0EA
:101568008FF0A2C090F0D8908F37903797518F2581
:10157800976F98519021986F07EF0BF09CBFC9EFB8
:101588000AF0C7EF0AF0D0EF0AF09EBFCEEF0AF0DC
:10159800D0EF0AF0EAEF0AF09CBFDBEF0AF09C51AB
:1015A80008E19B05D8A0DBEF0AF0DDEF0AF0F2EFC7
:1015B8000AF09EBFE8EF0AF09E5108E19D05D8A009
:1015C800E8EF0AF0EAEF0AF0F2EF0AF0010EA525BB
:1015D800A56F000EA621A66FF8EF0AF0FF0EA5254D
:1015E800A56FFF0EA621A66F9F51A15D8F6FA05119
:1015F800A259906FD8908F37903797518F25976F52
:1016080098519021986FA5C06FF08DC070F0A351CC
:10161800B7EC21F0A5C06FF08DC070F00001A305F4
:10162800B7EC21F0A5C06FF08DC070F00001A329C0
:10163800B7EC21F00001A5056F6F8DC070F0A351C4
:10164800B7EC21F00001A5296F6F8DC070F0A35190
:10165800B7EC21F00001A5056F6F8DC070F0A305F0
:10166800B7EC21F00001A5296F6F8DC070F0A305BC
:10167800B7EC21F00001A5056F6F8DC070F0A329AC
:10168800B7EC21F00001A5296F6F8DC070F0A32978
:10169800B7EC21F00001914B922B9351A35DA4511B
:1016A800800A8F6F9451800A8F59D8A05EEF0BF093
:1016B80060EF0BF0A6EF0AF091EF0CF09EBF67EF1A
:1016C8000BF069EF0BF077EF0BF085C0A3F086C045
:1016D800A4F087C0A5F088C0A6F08BC095F08CC098
:1016E80096F083EF0BF089C0A3F08AC0A4F08BC0FA
:1016F800A5F08CC0A6F087C095F088C096F0A5C06C
:101708006FF08DC070F0A351B7EC21F0A5C06FF059
:101718008DC070F00001A305B7EC21F0A5C06FF0F3
:101728008DC070F00001A329B7EC21F00001A505D8
:101738006F6F8DC070F0A351B7EC21F00001A5299F
:101748006F6F8DC070F0A351B7EC21F00001A505B3
:101758006F6F8DC070F0A305B7EC21F00001A529CB
:101768006F6F8DC070F0A305B7EC21F00001A505DF
:101778006F6F8DC070F0A329B7EC21F00001A52987
:101788006F6F8DC070F0A329B7EC21F0000E000137
:10179800926F000E916F82EF0CF0010EA525A56FD8
:1017A800000EA621A66F9ABFE4EF0BF09A5106E14E
:1017B8009905D8B0E2EF0BF0E4EF0BF0F3EF0BF084
:1017C8009FC08FF0A0C090F0D8908F379037995174
:1017D8008F25996F9A5190219A6F38EF0CF09CBF22
:1017E800FAEF0BF0F8EF0BF001EF0CF09EBFFFEFF4
:1017F8000BF001EF0CF01BEF0CF09CBF0CEF0CF0A2
:101808009C5108E19B05D8A00CEF0CF00EEF0CF0F2
:1018180023EF0CF09EBF19EF0CF09E5108E19D05D7
:10182800D8A019EF0CF01BEF0CF023EF0CF0010E11
:10183800A325A36F000EA421A46F29EF0CF0FF0EBF
:10184800A325A36FFF0EA421A46FA1519F5D8F6FE5
:10185800A251A059906FD8908F37903799518F2502
:10186800996F9A5190219A6FA5C06FF08DC070F052
:10187800A351B7EC21F0A5C06FF08DC070F0000146
:10188800A305B7EC21F0A5C06FF08DC070F0000182
:10189800A329B7EC21F00001A5056F6F8DC070F08A
:1018A800A351B7EC21F00001A5296F6F8DC070F02E
:1018B800A351B7EC21F00001A5056F6F8DC070F042
:1018C800A305B7EC21F00001A5296F6F8DC070F05A
:1018D800A305B7EC21F00001A5056F6F8DC070F06E
:1018E800A329B7EC21F00001A5296F6F8DC070F016
:1018F800A329B7EC21F00001914B922B9551A55DDE
:10190800A651800A8F6F9651800A8F59D8A08FEF01
:101918000CF091EF0CF0D1EF0BF0120000016851C0
:10192800800B716F68516825736F67AF9EEF0CF07D
:10193800A0EF0CF0A1EF0CF073817351D8B4A7EFAE
:101948000CF0A9EF0CF0BEEF0CF07329D8A4AFEFA0
:101958000CF0B1EF0CF0B9EF0CF0000E656F000E53
:10196800666F000E676F000E686F678F000E686FF6
:10197800C6EF0CF0000E656F000E666F000E676F05
:10198800000E686F6C51800B726F71517219D8B468
:10199800D0EF0CF0D2EF0CF0D3EF0CF0718D6C514E
:1019A8006C25726F6BAFDBEF0CF0DDEF0CF0DEEF48
:1019B8000CF072817251D8B4E4EF0CF0E6EF0CF041
:1019C800FBEF0CF07229D8A4ECEF0CF0EEEF0CF062
:1019D800F6EF0CF0000E696F000E6A6F000E6B6F69
:1019E800000E6C6F6B8F000E6C6F03EF0DF0000E26
:1019F800696F000E6A6F000E6B6F000E6C6F73518B
:101A0800725DD8B00AEF0DF00CEF0DF033EF0DF06A
:101A180071AD11EF0DF013EF0DF015EF0DF0800E15
:101A2800711B73C074F072C073F074C072F065C03B
:101A380074F069C065F074C069F066C074F06AC07B
:101A480066F074C06AF067C074F06BC067F074C069
:101A58006BF068C074F06CC068F074C06CF0000E75
:101A6800746F735172C06DF06E6B6D5F000E6E5BBC
:101A78006EBF48EF0DF06E5109E11A0E6D5DD8A0EA
:101A880048EF0DF04AEF0DF081EF0DF0655166114A
:101A980067116811D8A453EF0DF056EF0DF0010E41
:101AA80057EF0DF0000E746F000E656F000E666F35
:101AB800000E676F000E686F72C073F08AEF0DF04A
:101AC80074A169EF0DF06BEF0DF071EF0DF0D89088
:101AD80074310109746F73EF0DF0D890743365A1F8
:101AE80078EF0DF07AEF0DF07BEF0DF0748F68351D
:101AF8006833673366336533732B7251735DD8A0CF
:101B080088EF0DF08AEF0DF064EF0DF071BD8FEFE7
:101B18000DF091EF0DF0D1EF0DF07351D8A497EFC0
:101B28000DF099EF0DF0A3EF0DF0000E656F000EAC
:101B3800666F000E676F000E686FF2EF0EF0695166
:101B480065276A5166236B5167236C51682368A126
:101B5800B0EF0DF0B2EF0DF05EEF0EF074A1B7EF3D
:101B68000DF0B9EF0DF0BFEF0DF0D8907431010909
:101B7800746FC1EF0DF0D890743365A1C6EF0DF006
:101B8800C8EF0DF0C9EF0DF0748F6835683367330F
:101B980066336533732B5EEF0EF06951655D6A51EC
:101BA80066596B5167596851800A6D6F6C51800A8C
:101BB8006D59D8B0E2EF0DF0E4EF0DF00FEF0EF035
:101BC8006551695D6D6F66516A596E6F67516B59E2
:101BD8006F6F68516C59706FFF0E6D25656FFF0E42
:101BE8006E21666FFF0E6F21676FFF0E7021686FA1
:101BF800800E711B746D7451D8A405EF0EF007EFB9
:101C08000EF017EF0EF0010E6527000E662367230E
:101C1800682317EF0EF06951655F6A51665B6B5177
:101C2800675B6C51685B6551661167116811D8A4D0
:101C380020EF0EF022EF0EF057EF0EF07451D8A4FB
:101C480028EF0EF02AEF0EF057EF0EF0000E656F3A
:101C5800000E666F000E676F000E686FF2EF0EF0F1
:101C6800D890653766376737683774AF3EEF0EF040
:101C780040EF0EF041EF0EF0658174A146EF0EF0D3
:101C880048EF0EF04CEF0EF0D88074374EEF0EF0A0
:101C9800D89074377351D8B454EF0EF056EF0EF055
:101CA80057EF0EF0730767AF5CEF0EF05EEF0EF0C4
:101CB80034EF0EF0000E726F74AF65EF0EF067EF41
:101CC8000EF07FEF0EF074C06DF07F0E6D17D8B474
:101CD80070EF0EF072EF0EF076EF0EF0010E726FED
:101CE8007FEF0EF065A17BEF0EF07DEF0EF07FEF3A
:101CF8000EF072EF0EF07251D8B485EF0EF087EF48
:101D08000EF0B2EF0EF0010E6527000E6623672372
:101D1800682368A192EF0EF094EF0EF0B2EF0EF088
:101D280065C06DF066C06EF067C06FF068C070F097
:101D3800703570336F336E336D336DC065F06EC0C0
:101D480066F06FC067F070C068F07329D8B4AFEF61
:101D58000EF0B1EF0EF0B2EF0EF0732B7329D8B47A
:101D6800B8EF0EF0BAEF0EF0C2EF0EF07351D8A430
:101D7800C0EF0EF0C2EF0EF0D4EF0EF0000E656F5C
:101D8800000E666F000E676F000E686F7351D8A45F
:101D9800D0EF0EF0D2EF0EF0D4EF0EF0000E716F10
:101DA80073A1D9EF0EF0DBEF0EF0DEEF0EF0678FC8
:101DB800DFEF0EF0679FD8907331686F71AFE7EF70
:101DC8000EF0E9EF0EF0EAEF0EF0688F65C065F0EF
:101DD80066C066F067C067F068C068F0120005501A
:101DE800800B0E6E05500524106E04AEFEEF0EF04B
:101DF80000EF0FF001EF0FF010801050D8B407EF8C
:101E08000FF009EF0FF01EEF0FF01028D8A40FEF16
:101E18000FF011EF0FF019EF0FF0000E026E000E29
:101E2800036E000E046E000E056E048E000E056E25
:101E380026EF0FF0000E026E000E036E000E046E09
:101E4800000E056E0950800B0F6E0E500F18D8B497
:101E580030EF0FF032EF0FF033EF0FF00E8C095028
:101E680009240F6E08AE3BEF0FF03DEF0FF03EEF89
:101E78000FF00F800F50D8B444EF0FF046EF0FF07B
:101E88005BEF0FF00F28D8A44CEF0FF04EEF0FF0D8
:101E980056EF0FF0000E066E000E076E000E086E6D
:101EA800000E096E088E000E096E63EF0FF0000E2B
:101EB800066E000E076E000E086E000E096E1050BA
:101EC8000F5CD8B06AEF0FF06CEF0FF093EF0FF0E4
:101ED8000EAC71EF0FF073EF0FF075EF0FF0800E8F
:101EE8000E1A10C011F00FC010F011C00FF002C090
:101EF80011F006C002F011C006F003C011F007C0CF
:101F080003F011C007F004C011F008C004F011C0BC
:101F180008F005C011F009C005F011C009F0000E65
:101F2800116E10500FC00AF00B6A0A5E000E0B5AB1
:101F38000BBEA8EF0FF00B5009E11A0E0A5CD8A0EF
:101F4800A8EF0FF0AAEF0FF0E1EF0FF00250031027
:101F580004100510D8A4B3EF0FF0B6EF0FF0010E80
:101F6800B7EF0FF0000E116E000E026E000E036E3A
:101F7800000E046E000E056E0FC010F0EAEF0FF0B1
:101F880011A0C9EF0FF0CBEF0FF0D1EF0FF0D89001
:101F980011300109116ED3EF0FF0D890113202A061
:101FA800D8EF0FF0DAEF0FF0DBEF0FF0118E0534FA
:101FB8000532043203320232102A0F50105CD8A0C6
:101FC800E8EF0FF0EAEF0FF0C4EF0FF00EBCEFEF01
:101FD8000FF0F1EF0FF031EF10F01050D8A4F7EF39
:101FE8000FF0F9EF0FF003EF10F0000E026E000E85
:101FF800036E000E046E000E056E52EF11F00650CF
:10200800022607500322085004220950052205A081
:1020180010EF10F012EF10F0BEEF10F011A017EF54
:1020280010F019EF10F01FEF10F0D89011300109DF
:10203800116E21EF10F0D890113202A026EF10F0A7
:1020480028EF10F029EF10F0118E05340532043214
:1020580003320232102ABEEF10F00650025C07501D
:102068000358085004580550800A0A6E0950800A1F
:102078000A58D8B042EF10F044EF10F06FEF10F0AC
:102088000250065C0A6E035007580B6E045008583D
:102098000C6E055009580D6EFF0E0A24026EFF0ED5
:1020A8000B20036EFF0E0C20046EFF0E0D20056E34
:1020B800800E0E1A116C1150D8A465EF10F067EF5E
:1020C80010F077EF10F0010E0226000E0322042212
:1020D800052277EF10F00650025E0750035A0850A9
:1020E800045A0950055A0250031004100510D8A4C8
:1020F80080EF10F082EF10F0B7EF10F01150D8A475
:1021080088EF10F08AEF10F0B7EF10F0000E026EB3
:10211800000E036E000E046E000E056E52EF11F0F5
:10212800D890023603360436053611AE9EEF10F00D
:10213800A0EF10F0A1EF10F0028011A0A6EF10F0B0
:10214800A8EF10F0ACEF10F0D8801136AEEF10F019
:10215800D89011361050D8B4B4EF10F0B6EF10F094
:10216800B7EF10F0100604AEBCEF10F0BEEF10F0A1
:1021780094EF10F0000E0F6E11AEC5EF10F0C7EF20
:1021880010F0DFEF10F011C00AF07F0E0A16D8B475
:10219800D0EF10F0D2EF10F0D6EF10F0010E0F6E66
:1021A800DFEF10F002A0DBEF10F0DDEF10F0DFEF53
:1021B80010F0D2EF10F00F50D8B4E5EF10F0E7EFC1
:1021C80010F012EF11F0010E0226000E0322042275
:1021D800052205A0F2EF10F0F4EF10F012EF11F065
:1021E80002C00AF003C00BF004C00CF005C00DF0EB
:1021F8000D340D320C320B320A320AC002F00BC019
:1022080003F00CC004F00DC005F01028D8B40FEF8F
:1022180011F011EF11F012EF11F0102A1028D8B4B4
:1022280018EF11F01AEF11F022EF11F01050D8A4A6
:1022380020EF11F022EF11F034EF11F0000E026ED2
:10224800000E036E000E046E000E056E1050D8A42A
:1022580030EF11F032EF11F034EF11F0000E0E6E86
:1022680010A039EF11F03BEF11F03EEF11F0048EA2
:102278003FEF11F0049ED8901030056E0EAE47EF78
:1022880011F049EF11F04AEF11F0058E02C002F08B
:1022980003C003F004C004F005C005F012000001FB
:1022A8009951800BA26F99519925A86F98AF5FEF4C
:1022B80011F061EF11F062EF11F0A881A851D8B4C4
:1022C80068EF11F06AEF11F07DEF11F0A829D8A49A
:1022D80070EF11F072EF11F07AEF11F0000E966FB7
:1022E800000E976F000E986F000E996F988F85EF0C
:1022F80011F0000E966F000E976F000E986F000E8B
:10230800996F9D51800BA21B9D519D25A76F9CAF76
:1023180090EF11F092EF11F093EF11F0A781A75110
:10232800D8B499EF11F09BEF11F0AEEF11F0A72997
:10233800D8A4A1EF11F0A3EF11F0ABEF11F0000E4C
:102348009A6F000E9B6F000E9C6F000E9D6F9C8F06
:10235800B6EF11F0000E9A6F000E9B6F000E9C6F87
:10236800000E9D6FA751D8B4BCEF11F0BEEF11F06D
:10237800C6EF11F0A851D8A4C4EF11F0C6EF11F0C0
:10238800D0EF11F0000E966F000E976F000E986F49
:10239800000E996F68EF13F09C519603F3CFADF0E0
:1023A800F4CFAEF0AD51A36FA46BA56BA66BAE5185
:1023B800A96FAA6BAB6BAC6B9B519703F3CFADF0D6
:1023C800F4CFAEF0AD51A327000EA423A523A62376
:1023D800AE51A927000EAA23AB23AC239A51980328
:1023E800F3CFADF0F4CFAEF0AD51A327000EA42388
:1023F800A523A623AE51A927000EAA23AB23AC23FD
:10240800A5C0A6F0A4C0A5F0A3C0A4F0A36B9A51E0
:102418009703F3CFADF0F4CFAEF0AD51A327AE5193
:10242800A423000EA523000EA6239B519603F3CFE9
:10243800ADF0F4CFAEF0AD51A327AE51A423000EFA
:10244800A523000EA623A5C0A6F0A4C0A5F0A3C08E
:10245800A4F0A36B9A519603F3CFADF0F4CFAEF08E
:10246800AD51A327AE51A423000EA523000EA62329
:102478009C519703F3CFADF0F4CFAEF0AD51A9273F
:10248800AE51AA23000EAB23000EAC239B51980338
:10249800F3CFADF0F4CFAEF0AD51A927AE51AA23DA
:1024A800000EAB23000EAC239C519803F3CFADF084
:1024B800F4CFAEF0AD519E6FAE519F6FA06BA16B84
:1024C800A0C0A1F09FC0A0F09EC09FF09E6B9E513F
:1024D800A9279F51AA23A051AB23A151AC23A3C084
:1024E8009EF0A4C09FF0A5C0A0F0A6C0A1F0190E50
:1024F80083EF12F0D890A133A0339F339E33E82E98
:102508007EEF12F09E51A9279F51AA23A051AB2319
:10251800A151AC23A5C0A6F0A4C0A5F0A3C0A4F007
:10252800A36BA751A8C09EF09F6B9E27000E9F2308
:10253800820E9E25AD6FFF0E9F21AE6FB9EF12F090
:10254800D890A937AA37AB37AC37A6AFAEEF12F0A1
:10255800B0EF12F0B1EF12F0A981D890A337A437E9
:10256800A537A637AD07D8A0AE07ABAFBEEF12F0C0
:10257800C0EF12F0A4EF12F0000EA76FA6AFC7EFDE
:1025880012F0C9EF12F0EDEF12F0FF0EA3159E6FD7
:10259800FF0EA4159F6FFF0EA515A06F7F0EA61541
:1025A800A16F9E519F11A011A111D8B4DEEF12F0B6
:1025B800E0EF12F0E4EF12F0010EA76FEDEF12F06A
:1025C800A9A1E9EF12F0EBEF12F0EDEF12F0E0EF56
:1025D80012F0A751D8B4F3EF12F0F5EF12F019EF9B
:1025E80013F0010EA927000EAA23AB23AC23ACA13C
:1025F80000EF13F002EF13F019EF13F0A9C09EF0EB
:10260800AAC09FF0ABC0A0F0ACC0A1F0A135A13327
:10261800A0339F339E339EC0A9F09FC0AAF0A0C0EC
:10262800ABF0A1C0ACF0AD4BAE2BAEBF24EF13F0B6
:10263800AE5108E1AD29D8A024EF13F026EF13F02E
:1026480030EF13F0000EA96F000EAA6F800EAB6F6B
:102658007F0EAC6F5EEF13F0AEBF3DEF13F0AE51DF
:1026680006E1AD05D8B03BEF13F03DEF13F049EFAD
:1026780013F0000EA96F000EAA6F000EAB6F000ECC
:10268800AC6F000EA26F5EEF13F0ADC0A8F0FF0EA6
:10269800A917FF0EAA177F0EAB17000EAC17A8A13B
:1026A80058EF13F05AEF13F05BEF13F0AB8FD8909D
:1026B800A831AC6FA251AC13A9C096F0AAC097F08C
:1026C800ABC098F0ACC099F012001350800B1C6E90
:1026D80013501324226E12AE74EF13F076EF13F03A
:1026E80077EF13F022802250D8B47DEF13F07FEFFC
:1026F80013F092EF13F02228D8A485EF13F087EF98
:1027080013F08FEF13F0000E106E000E116E000E16
:10271800126E000E136E128E9AEF13F0000E106EEA
:10272800000E116E000E126E000E136E1750800B05
:102738001C1A17501724216E16AEA5EF13F0A7EF39
:1027480013F0A8EF13F021802150D8B4AEEF13F0A6
:10275800B0EF13F0C3EF13F02128D8A4B6EF13F0AD
:10276800B8EF13F0C0EF13F0000E146E000E156EE4
:10277800000E166E000E176E168ECBEF13F0000EBD
:10278800146E000E156E000E166E000E176E215098
:10279800D8B4D1EF13F0D3EF13F0DBEF13F02250DE
:1027A800D8A4D9EF13F0DBEF13F0E5EF13F0000E28
:1027B800106E000E116E000E126E000E136E7DEF7D
:1027C80015F016501002F3CF27F0F4CF28F0275059
:1027D8001D6E1E6A1F6A206A2850236E246A256AA5
:1027E800266A15501102F3CF27F0F4CF28F02750AE
:1027F8001D26000E1E221F22202228502326000EEE
:1028080024222522262214501202F3CF27F0F4CFD7
:1028180028F027501D26000E1E221F222022285095
:102828002326000E2422252226221FC020F01EC0A7
:102838001FF01DC01EF01D6A14501102F3CF27F0BF
:10284800F4CF28F027501D2628501E22000E1F22E4
:10285800000E202215501002F3CF27F0F4CF28F0F5
:1028680027501D2628501E22000E1F22000E20224F
:102878001FC020F01EC01FF01DC01EF01D6A14509E
:102888001002F3CF27F0F4CF28F027501D26285048
:102898001E22000E1F22000E202216501102F3CF16
:1028A80027F0F4CF28F02750232628502422000EA2
:1028B8002522000E262215501202F3CF27F0F4CF5E
:1028C80028F02750232628502422000E2522000E07
:1028D800262216501202F3CF27F0F4CF28F0275003
:1028E800186E2850196E1A6A1B6A1AC01BF019C094
:1028F8001AF018C019F0186A185023261950242203
:102908001A5025221B5026221DC018F01EC019F08F
:102918001FC01AF020C01BF0190E98EF14F0D890C1
:102928001B321A3219321832E82E93EF14F018506D
:102938002326195024221A5025221B5026221FC054
:1029480020F01EC01FF01DC01EF01D6A215022C0BD
:1029580018F0196A1826000E1922820E1824276EFC
:10296800FF0E1920286ECEEF14F0D89023362436A7
:102978002536263620AEC3EF14F0C5EF14F0C6EFA7
:1029880014F02380D8901D361E361F3620362706B1
:10299800D8A0280625AED3EF14F0D5EF14F0B9EF80
:1029A80014F0000E216E20AEDCEF14F0DEEF14F010
:1029B80002EF15F0FF0E1D14186EFF0E1E14196E8F
:1029C800FF0E1F141A6E7F0E20141B6E185019105C
:1029D8001A101B10D8B4F3EF14F0F5EF14F0F9EF58
:1029E80014F0010E216E02EF15F023A0FEEF14F093
:1029F80000EF15F002EF15F0F5EF14F02150D8B400
:102A080008EF15F00AEF15F02EEF15F0010E23264A
:102A1800000E24222522262226A015EF15F017EFF6
:102A280015F02EEF15F023C018F024C019F025C0BA
:102A38001AF026C01BF01B341B321A321932183216
:102A480018C023F019C024F01AC025F01BC026F0C6
:102A5800274A282A28BE39EF15F0285008E12728E8
:102A6800D8A039EF15F03BEF15F045EF15F0000E43
:102A7800236E000E246E800E256E7F0E266E73EF79
:102A880015F028BE52EF15F0285006E12704D8B0FB
:102A980050EF15F052EF15F05EEF15F0000E236EB3
:102AA800000E246E000E256E000E266E000E1C6EA3
:102AB80073EF15F027C022F0FF0E2316FF0E241621
:102AC8007F0E2516000E261622A06DEF15F06FEF6B
:102AD80015F070EF15F0258ED8902230266E1C5018
:102AE800261223C010F024C011F025C012F026C011
:102AF80013F012000600F2A084EF15F086EF15F02F
:102B08004EEF17F0410E016EEE0EE82EFED7012EA5
:102B1800FCD700D0F29081AC94EF15F096EF15F049
:102B2800A0EF16F038503910D8A49DEF15F09FEF9C
:102B380015F09AEF16F00001F805F911D8A4A7EFDF
:102B480015F0A9EF15F0BCEF15F0DE51DF11D8A490
:102B5800B0EF15F0B2EF15F0BCEF15F0384A392A8E
:102B6800000EDF6F010EDE6F4EEF17F04EEF17F01D
:102B7800F805F911D8A4C3EF15F0C5EF15F0D6EF95
:102B880015F0DE05DF11D8A4CCEF15F0CEEF15F067
:102B9800D6EF15F0384A392A000EDF6F000EDE6FC7
:102BA8004EEF17F0DA05DB11D8A4DDEF15F0DFEFF3
:102BB80015F009EF16F0DC51DD11D8A4E6EF15F099
:102BC800E8EF15F009EF16F0D451D511D8A4EFEFBE
:102BD80015F0F1EF15F009EF16F0000ED76F000EA3
:102BE800D66FD6C0CCF0D7C0CDF0384A392A000EFF
:102BF800D36F010ED26F000EDD6F010EDC6F000E79
:102C0800D56F000ED46F4EEF17F0DA05DB11D8A49C
:102C180010EF16F012EF16F034EF16F0DC05DD11A8
:102C2800D8A419EF16F01BEF16F034EF16F0D40500
:102C3800D511D8A422EF16F024EF16F034EF16F0D1
:102C4800384A392A000ED36F010ED26F000ED56FA5
:102C5800000ED46F000EDD6F000EDC6F4EEF17F024
:102C6800DA05DB11D8A43BEF16F03DEF16F063EF61
:102C780016F0DC05DD11D8A444EF16F046EF16F087
:102C880063EF16F0D451D511D8A44DEF16F04FEFDD
:102C980016F063EF16F0384A392ACEC0E0F0CFC0FC
:102CA800E1F0000ED36F010ED26F000E576E010EC9
:102CB800566E000ED56F010ED46F4EEF17F0D80583
:102CC800D911D8A46AEF16F06CEF16F07EEF16F063
:102CD8000101DF05E011D8A474EF16F076EF16F0C5
:102CE8007EEF16F0384A392A000EE06F000EDF6FCB
:102CF8004EEF17F00001D805D911D8A486EF16F0C9
:102D080088EF16F0BAEF15F00101DF51E011D8A4F1
:102D180090EF16F092EF16F0BAEF15F0384A392A0C
:102D2800000EE06F010EDF6F4EEF17F0000E396EE8
:102D3800000E386E4EEF17F081AEA5EF16F0A7EF34
:102D480016F04EEF17F036503710D8A4AEEF16F045
:102D5800B0EF16F04AEF17F00001F805F911D8A402
:102D6800B8EF16F0BAEF16F000EF17F0DE51DF11EA
:102D7800D8A4C1EF16F0C3EF16F0E7EF16F0364A05
:102D8800372A000ED96F000ED86F000EF96F000EAB
:102D9800F86F000EDB6F010EDA6FD6C0CCF0D7C02B
:102DA800CDF0000E576E010E566E000EDD6F000E50
:102DB800DC6F000E576E010E566E000ED36F010EBB
:102DC800D26F4EEF17F0DE05DF11D8A4EEEF16F044
:102DD800F0EF16F0BAEF15F0364A372A000EF96F01
:102DE800000EF86F000EDB6F000EDA6F000ED96F61
:102DF800010ED86FDDEF16F0DA05DB11D8A407EF66
:102E080017F009EF17F029EF17F0364A372A000EA6
:102E1800F96F010EF86F000EDB6F000EDA6F000E0F
:102E2800576E010E566E000ED96F000ED86F000E49
:102E3800D56F000ED46F000E596E010E586E000E3D
:102E4800D36F010ED26F2EEF16F0D805D911D8A482
:102E580030EF17F032EF17F0BAEF15F0364A372A8D
:102E6800000EF96F010EF86F000EDB6F000EDA6FBF
:102E7800000ED96F000ED86F000E576E010E566EF9
:102E8800000E596E010E586EE1EF16F0000E376E07
:102E9800000E366E5A92110000018051800B8D6F22
:102EA80080518025946F7FAF5CEF17F05EEF17F0CD
:102EB8005FEF17F094819451D8B465EF17F067EF7E
:102EC80017F07CEF17F09429D8A46DEF17F06FEF87
:102ED80017F077EF17F0000E7D6F000E7E6F000E73
:102EE8007F6F000E806F7F8F000E806F84EF17F06A
:102EF800000E7D6F000E7E6F000E7F6F000E806FDC
:102F08008451800B8D1B84518425956F83AF8FEF7F
:102F180017F091EF17F092EF17F095819551D8B40B
:102F280098EF17F09AEF17F0AFEF17F09529D8A49C
:102F3800A0EF17F0A2EF17F0AAEF17F0000E816FBD
:102F4800000E826F000E836F000E846F838F000E59
:102F5800846FB7EF17F0000E816F000E826F000EBE
:102F6800836F000E846F8151821183118411D8A45C
:102F7800C0EF17F0C2EF17F0DAEF17F0000E7D6F11
:102F8800000E7E6F000E7F6F000E806F800E7F1325
:102F98007F0E80138D5180137DC07DF07EC07EF042
:102FA8007FC07FF080C080F01DEF19F09451D8A445
:102FB800E0EF17F0E2EF17F0ECEF17F0000E7D6F7F
:102FC800000E7E6F000E7F6F000E806F1DEF19F0F0
:102FD800955194C085F0866B855F000E865B7F0EE9
:102FE80085258E6F000E86218F6F7DC089F07EC08B
:102FF8008AF07FC08BF080C08CF0000E7D6F000ED1
:103008007E6F000E7F6F000E806F000E906F000EB7
:10301800916F000E926F000E936F000E956F4DEF3B
:1030280018F09551D8B41BEF18F01DEF18F034EFD5
:1030380018F0D89089378A378B378C37D8907D37F6
:103048007E377F37803793AF2CEF18F02EEF18F0CC
:103058002FEF18F07D81D8909037913792379337BA
:103068008151895D82518A5983518B5984518C5978
:10307800D8A041EF18F043EF18F04CEF18F0938DFB
:103088008151895F82518A5B83518B5B84518C5B50
:10309800952B190E956553EF18F055EF18F015EFAD
:1030A80018F089518A118B118C11D8B45EEF18F081
:1030B80060EF18F078EF18F0908178EF18F0D8905A
:1030C8007D377E377F37803793AF6DEF18F06FEF1E
:1030D80018F070EF18F07D81D890903791379237BB
:1030E80093378E07D8A08F077FAF7DEF18F07FEF5B
:1030F80018F063EF18F0000E956F93AF86EF18F095
:1031080088EF18F0ACEF18F0FF0E9015856FFF0EE2
:103118009115866FFF0E9215876F7F0E9315886F36
:103128008551861187118811D8B49DEF18F09FEF4B
:1031380018F0A3EF18F0010E956FACEF18F07DA111
:10314800A8EF18F0AAEF18F0ACEF18F09FEF18F0FE
:103158009551D8B4B2EF18F0B4EF18F0D8EF18F0D2
:10316800010E7D27000E7E237F23802380A1BFEFE1
:1031780018F0C1EF18F0D8EF18F07DC085F07EC0C8
:1031880086F07FC087F080C088F088358833873321
:103198008633853385C07DF086C07EF087C07FF09A
:1031A80088C080F08E4B8F2B8FBFE3EF18F08F51C4
:1031B80008E18E29D8A0E3EF18F0E5EF18F0F0EF5A
:1031C80018F0000E8F6F8E69000E7D6F000E7E6FF7
:1031D800000E7F6F000E806F8FBFFDEF18F08F51CC
:1031E80006E18E05D8B0FBEF18F0FDEF18F00BEFF5
:1031F80019F0000E8F6F000E8E6F000E7D6F000E9F
:103208007E6F000E7F6F000E806F000E8D6F8EC078
:1032180094F094A112EF19F014EF19F017EF19F0C8
:103228007F8F18EF19F07F9FD8909431806FCEEF81
:1032380017F0120029C002F02AC003F0000E03BEE6
:10324800FF0E046E056E010E3EEC1CF002C010F07D
:1032580003C011F004C012F005C013F0A10E146EE3
:10326800DE0E156EA70E166E3C0E176E69EC13F087
:1032780010C02BF011C02CF012C02DF013C02EF08E
:103288002BC002F02CC003F02DC004F02EC005F0B6
:1032980034EC21F002C046F003C047F02BC012F016
:1032A8002CC013F02DC014F02EC015F046C002F04B
:1032B80047C003F0000E03BEFF0E046E056E010E3C
:1032C8003EEC1CF002C016F003C017F004C018F062
:1032D80005C019F0A0EC26F012C02BF013C02CF09A
:1032E80014C02DF015C02EF02BC010F02CC011F01A
:1032F8002DC012F02EC013F0000E146E000E156EC5
:10330800200E166E410E176E69EC13F010C02BF0EC
:1033180011C02CF012C02DF013C02EF02BC002F0FB
:103328002CC003F02DC004F02EC005F034EC21F0C1
:1033380002C048F003C049F02BC012F02CC013F0B3
:103348002DC014F02EC015F048C002F049C003F09B
:10335800000E03BEFF0E046E056E010E3EEC1CF05F
:1033680002C016F003C017F004C018F005C019F029
:10337800A0EC26F012C02BF013C02CF014C02DF0D6
:1033880015C02EF02BC010F02CC011F02DC012F07B
:103398002EC013F0000E146E000E156E200E166E61
:1033A800410E176E69EC13F010C02BF011C02CF011
:1033B80012C02DF013C02EF02BC002F02CC003F069
:1033C8002DC004F02EC005F034EC21F002C04AF004
:1033D80003C04BF02BC012F02CC013F02DC014F01A
:1033E8002EC015F04AC002F04BC003F0000E03BE19
:1033F800FF0E046E056E010E3EEC1CF002C016F0C6
:1034080003C017F004C018F005C019F0A0EC26F0AE
:1034180012C02BF013C02CF014C02DF015C02EF0E4
:103428002BC010F02CC011F02DC012F02EC013F0DC
:10343800000E146E000E156E200E166E410E176EDD
:1034480069EC13F010C02BF011C02CF012C02DF055
:1034580013C02EF02BC002F02CC003F02DC004F0D6
:103468002EC005F034EC21F002C04CF003C04DF042
:103478004CC002F04DC003F0D0EC1DF002C042F089
:1034880003C043F04AC002F04BC003F0D0EC1DF07B
:1034980002C040F003C041F048C002F049C003F048
:1034A800D0EC1DF002C03EF003C03FF046C002F071
:1034B80047C003F0D0EC1DF0800E02243C6E000ED5
:1034C80003203D6E120058045910D8A46EEF1AF06C
:1034D80070EF1AF0F2EF1AF021EE10F010EE85F00E
:1034E8000F0EDBCFE3FFE806FCE221EE20F010EE42
:1034F800A5F00E0EDBCFE3FFE806FCE221EE00F0BC
:1035080010EE95F00F0EDBCFE3FFE806FCE2EEC00D
:10351800B4F0EFC0B5F0ECC0B6F0EDC0B7F0000EF7
:1035280000016F6F020EABEC25F0850E0001786F7D
:10353800000E796F010E7A6F010E7B6F4DEC26F04D
:10354800020E00016F6F020EABEC25F0A50E000114
:10355800786F000E796F010E7A6F010E7B6F4DEC5C
:1035680026F0030E00016F6F020EABEC25F0950EEE
:103578000001786F000E796F010E7A6F010E7B6F74
:103588004DEC26F0030E00016F6F020EABEC25F038
:10359800050E00016F6F2A0EABEC25F0B40E00018A
:1035A800786F000E796F010E7A6F010E7B6F4DEC0C
:1035B80026F0050E00016F6F520EABEC25F0B60E2B
:1035C8000001786F000E796F010E7A6F010E7B6F24
:1035D8004DEC26F0000E596E000E586E0001DE51BB
:1035E800DF11D8A4FAEF1AF0FCEF1AF02BEF1BF05A
:1035F800000E776F520E766F000E796F340E786F6B
:10360800000E7B6F5A0E7A6F000E7D6F340E7C6F42
:10361800000E7F6F000E7E6FBDEC23F0000E0001E0
:10362800776F2A0E766F000E796F340E786F000E62
:103638007B6F320E7A6F000E7D6F340E7C6F000E3A
:103648007F6F010E7E6FBDEC23F061EF1BF0DE058E
:10365800DF11D8A432EF1BF034EF1BF061EF1BF041
:10366800000E776F520E766F000E796F340E786FFA
:10367800000E7B6F5A0E7A6F000E7D6F340E7C6FD2
:10368800000E7F6F010E7E6FBDEC23F0000E00016F
:10369800776F2A0E766F000E796F340E786F000EF2
:1036A8007B6F320E7A6F000E7D6F340E7C6F000ECA
:1036B8007F6F000E7E6FBDEC23F012000001776F64
:1036C80000017751D8B46BEF1BF06DEF1BF08FEF53
:1036D8001BF072BF74EF1BF072EF1BF08FEF1BF043
:1036E8006FC073F070C074F071C075F072C076F07E
:1036F800731F741F751F761F732B000E7423752399
:10370800762373C079F074C07AF075C07BF076C008
:103718007CF097EF1BF06FC079F070C07AF071C041
:103728007BF072C07CF06F51701171117211D8A4C6
:10373800A0EF1BF0A2EF1BF0ACEF1BF0000E6F6FB9
:10374800000E706F000E716F000E726F3DEF1CF06F
:10375800960E786FB6EF1BF0782BD8907C337B33BE
:103768007A337933000E7915736F000E7A15746FFA
:10377800000E7B15756FFE0E7C15766F73517411F4
:1037880075117611D8A4CBEF1BF0CDEF1BF0B0EF7D
:103798001BF0DBEF1BF0782B010E7927000E7A2344
:1037A8007B237C23D8907C337B337A337933000EA8
:1037B8007915736F000E7A15746F000E7B15756F8F
:1037C800FF0E7C15766F7351741175117611D8A49C
:1037D800F0EF1BF0F2EF1BF0CFEF1BF0FAEF1BF04E
:1037E8007807D89079377A377B377C377BBFFFEFFC
:1037F8001BF001EF1CF009EF1CF0020E786107EFD7
:103808001CF009EF1CF0F4EF1BF078B10EEF1CF080
:1038180010EF1CF011EF1CF07B9FD890783378C024
:1038280073F0746B756B766B73C076F0756B746B35
:10383800736B7351791374517A1375517B137651E5
:103848007C137751D8B42BEF1CF02DEF1CF035EF1B
:103858001CF072BF34EF1CF032EF1CF035EF1CF097
:103868007C8F79C06FF07AC070F07BC071F07CC03B
:1038780072F012000A6E0A50D8B445EF1CF047EFF8
:103888001CF069EF1CF005BE4EEF1CF04CEF1CF06D
:1038980069EF1CF002C006F003C007F004C008F08E
:1038A80005C009F0061E071E081E091E062A000E7E
:1038B80007220822092206C00CF007C00DF008C034
:1038C8000EF009C00FF071EF1CF002C00CF003C03D
:1038D8000DF004C00EF005C00FF0025003100410E4
:1038E8000510D8A47AEF1CF07CEF1CF086EF1CF0D2
:1038F800000E026E000E036E000E046E000E056EC2
:1039080017EF1DF0960E0B6E90EF1CF00B2AD89057
:103918000F320E320D320C32000E0C14066E000EF1
:103928000D14076E000E0E14086EFE0E0F14096EAD
:103938000650071008100910D8A4A5EF1CF0A7EF2F
:103948001CF08AEF1CF0B5EF1CF00B2A010E0C26B8
:10395800000E0D220E220F22D8900F320E320D3299
:103968000C32000E0C14066E000E0D14076E000EBD
:103978000E14086EFF0E0F14096E0650071008107B
:103988000910D8A4CAEF1CF0CCEF1CF0A9EF1CF06A
:10399800D4EF1CF00B06D8900C360D360E360F36C9
:1039A8000EBED9EF1CF0DBEF1CF0E3EF1CF0020EAB
:1039B8000B60E1EF1CF0E3EF1CF0CEEF1CF00BB056
:1039C800E8EF1CF0EAEF1CF0EBEF1CF00E9ED8902D
:1039D8000B320BC006F0076A086A096A06C009F0CC
:1039E800086A076A066A06500C1207500D1208503A
:1039F8000E1209500F120A50D8B405EF1DF007EF48
:103A08001DF00FEF1DF005BE0EEF1DF00CEF1DF0C1
:103A18000FEF1DF00F8E0CC002F00DC003F00EC0AA
:103A280004F00FC005F01200FEEC26F0EDEC24F0D7
:103A3800010E94EC22F0A6EC24F0150E0001BF6FE5
:103A48004B0EBE6FBE0EE82EFED7BE2FFCD7BF2F83
:103A5800FAD700F0F7EC22F072EC1EF035EC27F004
:103A6800F6C06FF0F7C070F00001000E70BFFF0ED7
:103A7800716F726F010E62EC1BF06FC0C0F070C006
:103A8800C1F071C0C2F072C0C3F0C0C0AFF0C1C015
:103A9800B0F0C2C0B1F0C3C0B2F0F2C0B3F0F3C02E
:103AA800B4F0F4C0B5F0F5C0B6F02AEC22F0C2824A
:103AB8000001D205D311D8A464EF1DF066EF1DF004
:103AC8006DEF1DF0000ED36F000ED26F000E5EEC8E
:103AD80024F00001F805F911D8A475EF1DF077EF6F
:103AE8001DF083EF1DF0000EDB6F000EDA6F000E85
:103AF800D96F000ED86F67EC1AF0CAEF1DF0DA051F
:103B0800DB11D8A48AEF1DF08CEF1DF0B7EF1DF084
:103B1800000EF96F000EF86F000ED96F000ED86F07
:103B2800C20EBE6FFF0EBF6FD0C065F0D1C066F089
:103B3800000E686F040E676F5AEC23F00001BE5147
:103B48006527BF516623651F661F654B662B65C0D9
:103B5800CEF066C0CFF0CEC0A7F0CFC0A8F0C5ECBD
:103B680006F0CAEF1DF0D805D911D8A4BEEF1DF094
:103B7800C0EF1DF0CAEF1DF0000EF96F000EF86FD0
:103B8800000EDB6F000EDA6F37EC00F018EC26F051
:103B98005BEF1DF035EF00F002500310D8A4D7EF0B
:103BA8001DF0D9EF1DF0DFEF1DF0000E036E3F0E84
:103BB800026E71EF1EF002040310D8A4E6EF1DF0A8
:103BC800E8EF1DF0EEEF1DF0000E036E060E026E1C
:103BD80071EF1EF0020E02180310D8A4F6EF1DF0C4
:103BE800F8EF1DF0FEEF1DF0000E036E5B0E026E87
:103BF80071EF1EF0030E02180310D8A406EF1EF092
:103C080008EF1EF00EEF1EF0000E036E4F0E026E50
:103C180071EF1EF0040E02180310D8A416EF1EF060
:103C280018EF1EF01EEF1EF0000E036E660E026EF9
:103C380071EF1EF0050E02180310D8A426EF1EF02F
:103C480028EF1EF02EEF1EF0000E036E6D0E026EB2
:103C580071EF1EF0060E02180310D8A436EF1EF0FE
:103C680038EF1EF03EEF1EF0000E036E7D0E026E62
:103C780071EF1EF0070E02180310D8A446EF1EF0CD
:103C880048EF1EF04EEF1EF0000E036E070E026E98
:103C980071EF1EF0080E02180310D8A456EF1EF09C
:103CA80058EF1EF05EEF1EF0000E036E7F0E026EE0
:103CB80071EF1EF0090E02180310D8A466EF1EF06B
:103CC80068EF1EF06EEF1EF0000E036E6F0E026EB0
:103CD80071EF1EF0000E036E0268120053C091F0DF
:103CE80054C092F055C093F020EE4EF010EE8CF0D8
:103CF800040EDBCFE3FFE806FCE2F0C094F0F1C06D
:103D080095F021EE39F010EE7EF0070EDBCFE3FFE1
:103D1800E806FCE221EE63F010EE86F0050EDBCF3C
:103D2800E3FFE806FCE2000E00016F6F340EABEC17
:103D380025F0910E0001786F000E796F010E7A6FF1
:103D4800010E7B6F4DEC26F0020E00016F6F2D0EF9
:103D5800ABEC25F08C0E0001786F000E796F010E28
:103D68007A6F010E7B6F4DEC26F0030E00016F6F2A
:103D7800360EABEC25F0940E0001786F000E796FCB
:103D8800010E7A6F010E7B6F4DEC26F0040E0001D8
:103D98006F6F230EABEC25F07E0E0001786F000EDE
:103DA800796F010E7A6F010E7B6F4DEC26F0050ED0
:103DB80000016F6F360EABEC25F0940E0001786FA2
:103DC800000E796F010E7A6F010E7B6F4DEC26F0B5
:103DD800060E00016F6F290EABEC25F0860E000170
:103DE800786F000E796F010E7A6F010E7B6F4DECC4
:103DF80026F0150E00017D6F4B0E7C6FBE0EE82E6F
:103E0800FED77C2FFCD77D2FFAD700F0000E5EEC92
:103E180024F000D012000001726F000E0001776FCD
:103E28000A0E7219D8A41BEF1FF01DEF1FF022EF26
:103E38001FF0000EE36FE22B9BEF1FF03F0EE365D0
:103E480028EF1FF02AEF1FF031EF1FF0010E776FF8
:103E5800E351C00F756F33EF1FF0E3C075F0725177
:103E6800080DF3CF73F0F4CF74F0000E766F3F0EA9
:103E7800756541EF1FF043EF1FF056EF1FF0400E3E
:103E8800755F010E776F8A94755140096D6F010E49
:103E9800E1EC26F00001E251B8096D6F010EE1EC8A
:103EA80026F08A8400016F51D8B45DEF1FF05FEFF0
:103EB8001FF077EF1FF03B0E706F730E716F765126
:103EC8007027000E7123735170277451712370C0CD
:103ED800F6FF71C0F7FF0800F5CF6DF07751E1EC00
:103EE80026F08EEF1FF03B0E706F730E716F7651D8
:103EF8007027000E7123735170277451712370C09D
:103F0800F6FF71C0F7FF0800F550FF0A6D6F775193
:103F1800E1EC26F00001752B762B070E766597EFFE
:103F28001FF099EF1FF03BEF1FF0080EE327120078
:103F38000001736F000E0001756F0A0E7319D8A483
:103F4800A8EF1FF0AAEF1FF0AFEF1FF0000EE36F0E
:103F5800E22B28EF20F03F0EE365B5EF1FF0B7EF37
:103F68001FF0BEEF1FF0010E756FE351C00F726FA7
:103F7800C0EF1FF0E3C072F0200E735F000E746F85
:103F88003F0E7265CAEF1FF0CCEF1FF0DFEF1FF096
:103F9800400E725F010E756F8A94725140096D6F01
:103FA800010EE1EC26F00001E251B8096D6F010E37
:103FB800E1EC26F08A8400016F51D8B4E6EF1FF0D7
:103FC800E8EF1FF002EF20F07351030D3B0E706F06
:103FD8007F0E716FF3507027F4507123745170275E
:103FE800000E712370C0F6FF71C0F7FF0800F5CF0F
:103FF8006DF07551E1EC26F01BEF20F07351030DC5
:104008003B0E706F7F0E716FF3507027F450712361
:1040180074517027000E712370C0F6FF71C0F7FF4E
:104028000800F550FF0A6D6F7551E1EC26F00001AC
:10403800722B742B020E746524EF20F026EF20F00B
:10404800C4EF1FF0050EE3271200000E00017A6F7F
:1040580078BF33EF20F031EF20F03DEF20F0781FEC
:10406800771F761F756D000E762377237823010E50
:104078007A6F74BF44EF20F042EF20F04EEF20F04B
:10408800741F731F721F716D000E722373237423C4
:10409800010E7A1B000E7B6F000E7C6F000E7D6F89
:1040A800000E7E6F7551761177117811D8B45FEFD5
:1040B80020F061EF20F097EF20F0010E796F6BEFA1
:1040C80020F0D8907537763777377837792B78AFEF
:1040D80070EF20F072EF20F065EF20F0D8907B377A
:1040E8007C377D377E377551715D765172597751BE
:1040F800735978517459D8A084EF20F086EF20F0D6
:104108008FEF20F07551715F7651725B7751735B59
:104118007851745B7B81D8907833773376337533F5
:10412800792F72EF20F07A51D8B49DEF20F09FEFED
:1041380020F0A7EF20F07E1F7D1F7C1F7B6D000EF7
:104148007C237D237E237BC071F07CC072F07DC010
:1041580073F07EC074F012000001673568356E6F29
:104168006E51D8A4BAEF20F0BCEF20F0C6EF20F0D3
:10417800000E656F000E666F000E676F000E686FA9
:1041880033EF21F065C069F066C06AF067C06BF074
:1041980068C06CF0200ED6EF20F0D8906C336B33EB
:1041A8006A336933E82ED1EF20F069516D6F678F5C
:1041B800FF0E6517FF0E6617FF0E6717000E6817CC
:1041C800960E6E5F6EBFEDEF20F0EBEF20F003EF81
:1041D80021F06E51800A970FD8B0F5EF20F0F7EF75
:1041E80020F0F9EF20F0BCEF20F0D8906833673367
:1041F800663365336E3FF9EF20F01BEF21F01F0E99
:104208006E6509EF21F00BEF21F013EF21F0BCEF01
:1042180020F0D89065376637673768376E076E5174
:10422800D8A419EF21F01BEF21F00DEF21F06D510B
:10423800D8B421EF21F023EF21F02BEF21F0681FF4
:10424800671F661F656D000E66236723682365C0B8
:1042580065F066C066F067C067F068C068F0120075
:10426800043405340B6E0B50D8A43DEF21F03FEF1A
:1042780021F049EF21F0000E026E000E036E000ED1
:10428800046E000E056EB6EF21F002C006F003C002
:1042980007F004C008F005C009F0200E59EF21F01E
:1042A800D8900932083207320632E82E54EF21F04E
:1042B80006500A6E048EFF0E0216FF0E0316FF0E3E
:1042C8000416000E0516960E0B5E0BBE70EF21F05D
:1042D8006EEF21F086EF21F00B50800A970FD8B0CF
:1042E80078EF21F07AEF21F07CEF21F03FEF21F019
:1042F800D89005320432033202320B3E7CEF21F0B3
:104308009EEF21F01F0E0B648CEF21F08EEF21F051
:1043180096EF21F03FEF21F0D890023603360436AD
:1043280005360B060B50D8A49CEF21F09EEF21F028
:1043380090EF21F00A50D8B4A4EF21F0A6EF21F0B5
:10434800AEEF21F0051E041E031E026C000E0322B0
:104358000422052202C002F003C003F004C004F0E6
:1043680005C005F012000001736F000E0001756FA3
:104378003F0E7365C2EF21F0C4EF21F0C8EF21F0C2
:10438800400E735F010E756F8A94739F738D73C0AF
:104398006DF07551E1EC26F06FC065F00001666BB9
:1043A800000E686F080E676F5AEC23F00001655124
:1043B800BF0BB8096D6F7551E1EC26F08A840001D6
:1043C8007551C3EC26F000017551C3EC26F00001CD
:1043D800746F8A9473C06DF07551E1EC26F000019A
:1043E8007051D8B4FAEF21F0FCEF21F010EF22F071
:1043F8006FC071F0070E7117010E726F712B07EF06
:1044080022F0D8907237712F05EF22F00001725117
:104418007411746F23EF22F06FC071F0070E7117DB
:10442800010E726F712B1BEF22F0D8907237712F2B
:1044380019EF22F000017251FF0A7415746F8A8413
:1044480074C06DF07551E1EC26F012000001B35113
:104458004808716FE80EB455726F010EB555736F49
:10446800000EB655746FB3C075F0B4C076F0B5C021
:1044780077F0B6C078F029EC20F000017151CB6ECE
:10448800CB50B76FB86B010EB727000EB823B7C073
:104498006FF0B8C070F0000E70BFFF0E716F726FD2
:1044A800010E62EC1BF06FC096F070C097F071C0FF
:1044B80098F072C099F0000E0001816F000E826FB3
:1044C800C80E836F420E846FAFC07DF0B0C07EF01F
:1044D800B1C07FF0B2C080F050EC17F07DC09AF008
:1044E8007EC09BF07FC09CF080C09DF053EC11F023
:1044F80096C0B9F097C0BAF098C0BBF099C0BCF0AC
:10450800B9C065F0BAC066F0BBC067F0BCC068F05F
:10451800B0EC20F000016551BB6EBA9ABA9812004F
:104528000001736F000E836E8A9A270E0001726F66
:10453800F50EE82EFED7722FFCD78A8A8A988A90C1
:104548008A928A94270E0001726FF50EE82EFED724
:10455800722FFCD7C00E00016D6F000EE1EC26F043
:10456800C00E00016D6F010EE1EC26F0400E000157
:104578006D6F000EE1EC26F0400E00016D6F010E2C
:10458800E1EC26F0B80E00016D6F000EE1EC26F0AC
:10459800B80E00016D6F010EE1EC26F00001730505
:1045A800D8A4D9EF22F0DBEF22F0E8EF22F03F0E9B
:1045B8006D6F000EE1EC26F03F0E00016D6F010EED
:1045C800E1EC26F0F3EF22F03E0E6D6F000EE1EC09
:1045D80026F03E0E00016D6F010EE1EC26F0000E94
:1045E8005EEC24F0120021EE56F010EE88F0060E74
:1045F800DBCFE3FFE806FCE221EE69F010EE8FF076
:10460800050EDBCFE3FFE806FCE221EE2FF010EE0B
:104618007EF0090EDBCFE3FFE806FCE2000E5EEC5D
:1046280024F0020E00016F6F120EABEC25F0880E1D
:104638000001786F000E796F010E7A6F010E7B6FA3
:104648004DEC26F0020E00016F6F4E0EABEC25F01C
:104658008F0E0001786F000E796F010E7A6F010ED0
:104668007B6F4DEC26F0050E00016F6F1A0EABEC58
:1046780025F07E0E0001786F000E796F010E7A6FBB
:10468800010E7B6F4DEC26F0150E00017D6F4B0E71
:104698007C6FBE0EE82EFED77C2FFCD77D2FFAD775
:1046A80000F0000E5EEC24F000D01200000E0001B5
:1046B8006A6F68BF64EF23F062EF23F06AEF23F0BC
:1046C800676D681FD8B0682B010E6A6F66BF71EFFF
:1046D80023F06FEF23F077EF23F0656D661FD8B0F6
:1046E800662B010E6A1B000E6C6F000E6B6F675114
:1046F8006811D8B482EF23F084EF23F0ACEF23F0F5
:10470800010E696F8CEF23F0D89067376837692BF3
:1047180068AF91EF23F093EF23F088EF23F0D89060
:104728006B376C376751655D68516659D8A09FEF44
:1047380023F0A1EF23F0A6EF23F06751655F6851DE
:10474800665B6B81D89068336733692F93EF23F0EA
:104758006A51D8B4B2EF23F0B4EF23F0B8EF23F0E6
:104768006B6D6C1FD8B06C2B6BC065F06CC066F0BD
:10477800120000017A51761907E17B517719D8A404
:10478800C8EF23F0CAEF23F0E9EF23F078C081F0F7
:1047980079C082F0DAEF23F081C06FF07EC070F04C
:1047A8007651B7EC21F00001814B822B7C51815D61
:1047B8008251800A806F7D51800A8059D8A0E7EF26
:1047C80023F0E9EF23F0D0EF23F07C51781907E1CB
:1047D8007D517919D8A4F3EF23F0F5EF23F014EF06
:1047E80024F076C083F077C084F005EF24F078C019
:1047F8006FF07EC070F08351B7EC21F00001834B5D
:10480800842B7A51835D8451800A806F7B51800AA2
:104818008059D8A012EF24F014EF24F0FBEF23F016
:104828001200DE0EF66E4A0EF76E000EF86E01EEFE
:1048380000F010EE78F00900F5CFEEFFE550E150FA
:10484800FAE1800EF66E4E0EF76E000EF86E00EE70
:10485800E4F010EE0EF00900F5CFEEFFE550E15060
:10486800FAE18E0EF66E4E0EF76E000EF86E00EE42
:104878004EF010EE08F00900F5CFEEFFE550E150DC
:10488800FAE101EECFF0140EEE6AE806FDE100EE63
:10489800C4F0200EEE6AE806FDE100EE2FF01F0ED0
:1048A800EE6AE806FDE15A905A92000EF86E000191
:1048B80018EF1DF000016F6F000E0001716F8A94F0
:1048C800400E6D6F000EE1EC26F0400E00016D6F9A
:1048D800010EE1EC26F000017151B8096D6F000E70
:1048E800E1EC26F000017151B8096D6F010EE1ECA1
:1048F80026F08A84000E0001706F6F51010DF3508D
:1049080000086D6F000EE1EC26F000016F51010DFB
:10491800F35000086D6F010EE1EC26F00001702BDA
:104928003F0E70659AEF24F09CEF24F081EF24F09D
:10493800712B070E7165A3EF24F0A5EF24F063EF48
:1049480024F01200000E0001706F000E6F6F000E51
:10495800726F000E736F8A94400E6D6F7351E1ECA5
:1049680026F000017251B8096D6F7351E1EC26F021
:104978008A84000E0001716F3B0E6F25F66E7B0E68
:104988007021F76E0800F5CF6DF07351E1EC26F059
:1049980000016F4B702B712B3F0E7165D6EF24F021
:1049A800D8EF24F0C0EF24F0732B010E7365DFEF0E
:1049B80024F0E1EF24F0AFEF24F0722B070E7265BC
:1049C800E8EF24F0EAEF24F0ADEF24F08A908A9221
:1049D8001200EA0E0001F26F010EF36F000EF46F81
:1049E800000EF56F000EF76F320EF66F000E576E61
:1049F800010E566E000EDD6F000EDC6F000E596E54
:104A0800010E586E808A000EDB6F000EDA6F000E02
:104A1800D96F000ED86F000EF96F010EF86F000EF7
:104A28000101E06F000EDF6F000E0001DF6F000E66
:104A3800DE6F000ED56F000ED46F000E0101E86F17
:104A4800030EE76F000EE66F020EE56F000EE46FCF
:104A58000A0EE36F1200000183517F5D656F845178
:104A68008059666F85518159676F86518259686F81
:104A78008B518F5D696F8C5190596A6F8D51915927
:104A88006B6F8E5192596C6FE2EC25F065C071F036
:104A980066C072F067C073F068C074F0000183519B
:104AA800875D756F84518859766F85518959776FFD
:104AB80086518A59786F29EC20F000018B517125B5
:104AC8007F6F8C517221806F8D517321816F8E5150
:104AD8007421826F1200322E52656374616E67759D
:104AE8006C616972650043686F6973697220756EDD
:104AF800206D6F646500312E4F7363696C6C6F7342
:104B0800636F7065004561737953434F5045005199
:104B180075656E74696E004D6F64653A32004D6F4D
:104B280064653A31005242363D4F4B0050726F6A0D
:104B3800657400467265713A004A756C6573004D7C
:104B48004355203A0044433A00487A0025000001C2
:104B5800716F000E0001706F800E7161B6EF25F065
:104B6800B8EF25F0E1EF25F0070E6F65BEEF25F0F1
:104B7800C0EF25F0C2EF25F0E1EF25F071C0E3F0BA
:104B88006FC0E2F03F0E7165CCEF25F0CEEF25F057
:104B9800D2EF25F0400E715F010E706F8A9471514B
:104BA80040096D6F7051E1EC26F000016F51B809B2
:104BB8006D6F7051E1EC26F08A841200000E00013E
:104BC8006D6F000E6E6F000E6F6F000E706F65A137
:104BD800F0EF25F0F2EF25F0FAEF25F069516D2797
:104BE8006A516E236B516F236C517023D8906937CB
:104BF8006A376B376C37D8906833673366336533F9
:104C08006551661167116811D8A40DEF26F00FEFF2
:104C180026F0EBEF25F06DC065F06EC066F06FC052
:104C280067F070C068F012003CC083FF8086080EF1
:104C38000001656FC90EE82EFED7652FFCD700D09E
:104C4800809642C083FF8080080E0001656FC90E00
:104C5800E82EFED7652FFCD700D0809040C083FF98
:104C68008082080E0001656FC90EE82EFED7652FF9
:104C7800FCD700D080923EC083FF8084080E0001DC
:104C8800656FC90EE82EFED7652FFCD700D080943B
:104C980012006FEF26F000017A51D8B456EF26F0D3
:104CA80058EF26F063EF26F07BC06FF078C0D9FF8D
:104CB80079C0DAFFDF500FEC1FF06CEF26F07BC0F5
:104CC8006FF078C0D9FF79C0DAFFDF509CEC1FF095
:104CD8000001784B792B78C0D9FF79C0DAFFDF5013
:104CE800D8A479EF26F07BEF26F04FEF26F01200DC
:104CF800000E0001811B000E821B000E831B800E1C
:104D0800841B7DC065F07EC066F07FC067F080C000
:104D180068F081C069F082C06AF083C06BF084C01B
:104D28006CF092EC0CF065C07DF066C07EF067C058
:104D38007FF068C080F01200000E161A000E171AD5
:104D4800000E181A800E191A12C002F013C003F0D0
:104D580014C004F015C005F016C006F017C007F01F
:104D680018C008F019C009F0F3EC0EF002C012F0F8
:104D780003C013F004C014F005C015F012000001C0
:104D8800656F00016551D8B4CCEF26F0CEEF26F060
:104D9800D2EF26F08A808A92D4EF26F08A928A820D
:104DA80095688A868A8800D083CF66F08A9800D072
:104DB8008A908A9200016651120000016E6F00010C
:104DC8006E51D8B4EAEF26F0ECEF26F0F0EF26F0BB
:104DD8008A808A92F2EF26F08A928A82000E956E75
:104DE8008A966DC08CFF8A8800D08A9800D08A90F5
:104DF8008A921200000E956E000E836E0A0EC16E26
:104E0800110EC26EF00E926E000E806EC00E936E82
:104E1800000E816E040E966E000E846EF28ED08E99
:104E28009D8C9F9CF28CF286F18012002FC081F03D
:104E380030C082F031C083F032C084F07DC081F090
:104E48007EC082F07FC083F080C084F00001849F20
:104E580081C07DF082C07EF083C07FF084C080F086
:104E68001200720ED36EFD0E946E0C0EBA6E000E0A
:104E7800CC6E070ECA6E12007C004500320031006D
:0E4E8800320031002600457269630062790035
:10733A000000000000000000000000000000000043
:10734A000000000000000000000000000000000033
:10735A000000000000000000000000000000000023
:10736A000000000000000000000000000000000013
:10737A000000000000000000000000000000000003
:10738A0000000000000000000000000000000000F3
:10739A0000000000000000000000000000000000E3
:1073AA0000000000000000000000000000000000D3
:1073BA0000000000000000000000000000000000C3
:1073CA0000000000000000000000000000000000B3
:1073DA0000000000000000000000000000000000A3
:1073EA000000000000000000000000000000000093
:1073FA000000000000000000000000000000000083
:10740A000000000000000000000000000000000072
:10741A000000000000000000000000000000000062
:10742A000000000000000000000000000000000052
:10743A0000000000000000000000065F5F06000078
:10744A00000007070007070000147F7F147F7F14DE
:10745A0000242E6B6B3A120000466630180C6662E6
:10746A0000307A4F5D377A480004070300000000B5
:10747A0000001C3E63410000000041633E1C000006
:10748A0000082A3E1C1C3E2A0808083E3E0808003E
:10749A00000080E0600000000008080808080800F2
:1074AA000000006060000000006030180C06030154
:1074BA00003E7F71594D7F3E0040427F7F40400031
:1074CA0000627359496F660000226349497F36009A
:1074DA0000181C16537F7F5000276745457D3900E9
:1074EA00003C7E4B4979300000030371790F070095
:1074FA0000367F49497F360000064F49693F1E0022
:10750A000000006666000000000080E666000000D9
:10751A0000081C366341000000242424242424008B
:10752A0000004163361C080000020351590F06008F
:10753A00003E7F415D5D1F1E007C7E13137E7C0032
:10754A0000417F7F49497F36001C3E6341416322E7
:10755A0000417F7F41633E1C00417F7F495D41635B
:10756A0000417F7F491D0103001C3E634151737234
:10757A00007F7F08087F7F000000417F7F41000075
:10758A0000307040417F3F0100417F7F081C7763D4
:10759A0000417F7F41406070007F7F0E1C0E7F7F1D
:1075AA00007F7F060C187F7F001C3E6341633E1CF0
:1075BA0000417F7F49090F06001E3F21717F5E004F
:1075CA0000417F7F09197F6600266F4D597332008B
:1075DA000003417F7F410300007F7F40407F7F009F
:1075EA00001F3F60603F1F00007F7F3018307F7FA1
:1075FA000043673C183C674300074F78784F070001
:10760A0000476371594D677300007F7F4141000055
:10761A00000103060C183060000041417F7F000022
:10762A0000080C0603060C08008080808080808099
:10763A00800000030704000000207454543C784082
:10764A0000417F3F4848783000387C44446C280029
:10765A0000307848493F7F4000387C54545C180019
:10766A0000487E7F490302000098BCA4A4F87C0469
:10767A0000417F7F08047C780000447D7D40000043
:10768A000060E08080FD7D0000417F7F10386C44FF
:10769A000000417F7F400000007C7C18381C7C7809
:1076AA00007C7C04047C780000387C44447C3800EC
:1076BA000084FCF8A4243C1800183C24A4F8FC8498
:1076CA0000447C784C041C1800485C545474240010
:1076DA000000043E7F442400003C7C40403C7C4047
:1076EA00001C3C60603C1C00003C7C7038707C3C98
:1076FA0000446C3810386C44009CBCA0A0FC7C0090
:10770A00004C64745C4C64000008083E77414100F8
:10771A000000000077770000004141773E0808002A
:10772A0000020301030203010070784C464C787092
:10773A00000E9F91B1FB4A00003A7A40407A7A40A3
:10774A0000387C54555D19000002237555557D7B20
:10775A0042217554547D794000217555547C7840F6
:10776A0000207457577C784000183CA4A4E44000D9
:10777A0000023B7D55555D1B02397D54545D19004D
:10778A0000397D55545C18000001457C7C4101009C
:10779A00000203457D7D43020001457D7C400000D7
:1077AA0000797D1612167D790070782B2B7870007F
:1077BA0000447C7C5555450000207454547C7C540C
:1077CA00547C7E0B097F7F4900327B49497B32001A
:1077DA0000327A48487A320000327A4A48783000D1
:1077EA00003A7B41417B7A40003A7A4240787840BD
:1077FA00009ABAA0A0FA7A000001193C66663C1900
:10780A00013D7D40407D3D0000183C24E7E72424EB
:10781A0000687E7F49436620002B2FFCFC2F2B003B
:10782A0000FFFF09092FF6F8A040C088FE7F090370
:10783A0002207454557D79400000447D7D4100004A
:10784A00003078484A7A320000387840427A7A40E2
:10785A00007A7A0A0A7A7000007D7D19317D7D00EE
:10786A000000262F292F2F280000262F292F260037
:10787A000030784D456020000038380808080800B4
:10788A000008080808383800004F6F3018CCEEBBE3
:10789A00914F6F30186C76FBF90000007B7B00007B
:1078AA0000081C3622081C362222361C0822361CE6
:1078BA0008AA005500AA005500AA55AA55AA55AA11
:1078CA0055DDFFAA77DDAAFF77000000FFFF000061
:1078DA0000101010FFFF000000141414FFFF000036
:1078EA00001010FFFF00FFFF001010F0F010F0F082
:1078FA0000141414FCFC0000001414F7F700FFFF36
:10790A00000000FFFF00FFFF001414F4F404FCFC65
:10791A000014141717101F1F0010101F1F101F1F0D
:10792A00001414141F1F000000101010F0F00000C3
:10793A00000000001F1F1010101010101F1F101041
:10794A0010101010F0F0101010000000FFFF1010BF
:10795A00101010101010101010101010FFFF10103F
:10796A0010000000FFFF1414140000FFFF00FFFFC7
:10797A001000001F1F101717140000FCFC04F4F479
:10798A001414141717101717141414F4F404F4F435
:10799A00140000FFFF00F7F714141414141414143D
:1079AA00141414F7F700F7F714141414171714140F
:1079BA001410101F1F101F1F10141414F4F41414A1
:1079CA00141010F0F010F0F01000001F1F101F1F0D
:1079DA00100000001F1F141414000000FCFC1414F3
:1079EA00140000F0F010F0F0101010FFFF10FFFF6D
:1079FA0010141414FFFF1414141010101F1F000089
:107A0A0000000000F0F0101010FFFFFFFFFFFFFF63
:107A1A00FFF0F0F0F0F0F0F0F0FFFFFFFF000000E1
:107A2A000000000000FFFFFFFF0F0F0F0F0F0F0FE7
:107A3A000F387C446C386C4400FCFE2A2A3E140041
:107A4A00007E7E020206060000027E7E027E7E0222
:107A5A000063775D4963630000387C447C3C04041E
:107A6A000080FE7E20203E1E000406027E7C060266
:107A7A000099BDE7E7BD9900001C3E6B496B3E1CAF
:107A8A00004C7E7301737E4C0030784A4F7D39007A
:107A9A0000183C243C3C243C1898FC643C3E273D9E
:107AAA0018000000000000000000000000000000B4
:107ABA0000000000000000000000000000000000BC
:107ACA0000000000000000000000000000000000AC
:107ADA00000000000000000000000000000000009C
:107AEA00000000000000000000000000000000008C
:107AFA00000000000000000000000000000000007C
:107B0A00000000000000000000000000000000006B
:107B1A00000000000000000000000000000000005B
:107B2A00000000000000000000000000000000004B
:107B3A00000000000000000000808080800000003B
:107B4A0000000000000000000000000000800000AB
:107B5A00800000800000000000000000000000001B
:107B6A00000000000000000000000000000000000B
:107B7A0000000000000000000000000000000000FB
:107B8A0000000000000000000000000000000000EB
:107B9A0000000000000000000000000000000000DB
:107BAA0000000000000000000000000000000000CB
:107BBA00000000000000003E4180808080413E00BD
:107BCA0000D894A46C00007884844C0088FC8081DE
:107BDA00FF8081FF800078848484780000D894A490
:107BEA006C00007884844C000078848484780008CF
:107BFA00FC488484780000789494580000000000BF
:107C0A00D894A46C00041C6480740C0400D894A456
:107C1A006C0004FF844000789494580088FC88041F
:107C2A00FC8804F88000000000000000000000004A
:107C3A00000000000000000000000000000000003A
:107C4A00000000000000000000000000000000002A
:107C5A00000000000000000000000000000000001A
:107C6A000000000000000000000000000000000406
:107C7A0007040000000000000000000000000000EF
:107C8A0000000000000404060100000000000000DB
:107C9A0000000000000000000000000000000000DA
:107CAA0000000000000000000000000000000000CA
:107CBA0000000000000000000000000000000000BA
:107CCA0000000000000000000000000000000000AA
:107CDA00000000000000000000000000000000009A
:107CEA000080F0F8181C0E0E1C1878F0C0800000F6
:107CFA0000000000000000000000000000000080FA
:107D0A00F0F8181C0C0E0E1C18F8F0800000000089
:107D1A000000000000000000000000000000000059
:107D2A000000000000000000000000000000000049
:107D3A000000000000000000000000000000000039
:107D4A000000000000000000000000000000000029
:107D5A000000000000000000000000000000000019
:107D6A00F8FF0F0000000000000000000FFFF800FD
:107D7A000000000000000000000000000000F8FF02
:107D8A000F0000000000000000000FFFF8000000D4
:107D9A0000000000000000000000000000000000D9
:107DAA0000000000000000000000000000000000C9
:107DBA0000000000000000000000000000000000B9
:107DCA000000000000000000000800080008001C75
:107DDA00FCF8800800080008000800080008E0FF16
:107DEA003F090008000800080008000800093FFFD2
:107DFA00E00800080008000800080008E0FF3F0942
:107E0A000008000800080008000800090F0F000811
:107E1A000008000800000000000000000000000048
:107E2A000000000000000000000000000000000048
:107E3A000000000000000000000000000000000038
:107E4A000000000000000000000000000000000028
:107E5A0000073FFCE000000000000080C0FC7F0734
:107E6A000000000000000000000000000000000701
:107E7A003FFCE000000000000000C0FC7F0700009B
:107E8A0000000000000000000000000000000000E8
:107E9A0000000000000000000000000000000000D8
:107EAA0000000000000000000000000000000000C8
:107EBA0000000000000000000000000000000000B8
:107ECA0000000000000000000000000000000000A8
:107EDA0000000001070F1C18181C0F070100000002
:107EEA000000000000000000000000000000000088
:107EFA000001070F1C18181C0C0F070100000000D6
:107F0A000000000000000000000000000000000067
:107F1A000000000000000000000000000000000057
:107F2A000000000000000000000000000000000047
:107F3A0000000000005C000C000C7C287C7C447C67
:107F4A00241048285408000C003844004438002003
:107F5A001008103810804000101010004000201047
:107F6A0008384438007C006454484454281C107C67
:107F7A004C542438542004740C28542808543800CB
