:020000040000FA
:0400000007EF00F016
:100008005E829AED0DF08DEF18F00450800B0D6EA6
:10001800045004240F6E03AE14EF00F016EF00F046
:1000280017EF00F00F800F50D8B41DEF00F01FEF4E
:1000380000F034EF00F00F28D8A425EF00F027EFE8
:1000480000F02FEF00F0000E016E000E026E000EA1
:10005800036E000E046E038E000E046E3CEF00F07B
:10006800000E016E000E026E000E036E000E046E8E
:100078000850800B0E6E0D500E18D8B446EF00F0E5
:1000880048EF00F049EF00F00D8C085008240E6E80
:1000980007AE51EF00F053EF00F054EF00F00E8080
:1000A8000E50D8B45AEF00F05CEF00F071EF00F09A
:1000B8000E28D8A462EF00F064EF00F06CEF00F0B7
:1000C800000E056E000E066E000E076E000E086E1E
:1000D800078E000E086E79EF00F0000E056E000E18
:1000E800066E000E076E000E086E0F500E5CD8B03C
:1000F80080EF00F082EF00F0A9EF00F00DAC87EF81
:1001080000F089EF00F08BEF00F0800E0D1A0FC0A1
:1001180010F00EC00FF010C00EF001C010F005C0B6
:1001280001F010C005F002C010F006C002F010C0C7
:1001380006F003C010F007C003F010C007F004C0B9
:1001480010F008C004F010C008F0000E106E0F5038
:100158000EC009F00A6A095E000E0A5A0ABEBEEF0E
:1001680000F00A5009E11A0E095CD8A0BEEF00F0B1
:10017800C0EF00F0F7EF00F0015002100310041078
:10018800D8A4C9EF00F0CCEF00F0010ECDEF00F0DD
:10019800000E106E000E016E000E026E000E036E51
:1001A800000E046E0EC00FF000EF01F010A0DFEF9C
:1001B80000F0E1EF00F0E7EF00F0D890103001090F
:1001C800106EE9EF00F0D890103201A0EEEF00F0C9
:1001D800F0EF00F0F1EF00F0108E04340432033237
:1001E800023201320F2A0E500F5CD8A0FEEF00F049
:1001F80000EF01F0DAEF00F00DBC05EF01F007EFBA
:1002080001F047EF01F00F50D8A40DEF01F00FEF08
:1002180001F019EF01F0000E016E000E026E000EE3
:10022800036E000E046E68EF02F0055001260650BA
:100238000222075003220850042204A026EF01F0EE
:1002480028EF01F0D4EF01F010A02DEF01F02FEF0F
:1002580001F035EF01F0D89010300109106E37EF3A
:1002680001F0D890103201A03CEF01F03EEF01F010
:100278003FEF01F0108E04340432033202320132AF
:100288000F2AD4EF01F00550015C065002580750C0
:1002980003580450800A096E0850800A0958D8B0DB
:1002A80058EF01F05AEF01F085EF01F00150055CBD
:1002B800096E025006580A6E035007580B6E045018
:1002C80008580C6EFF0E0924016EFF0E0A20026EFC
:1002D800FF0E0B20036EFF0E0C20046E800E0D1A0D
:1002E800106C1050D8A47BEF01F07DEF01F08DEF7A
:1002F80001F0010E0126000E0222032204228DEFD6
:1003080001F00550015E0650025A0750035A085082
:10031800045A0150021003100410D8A496EF01F0FB
:1003280098EF01F0CDEF01F01050D8A49EEF01F046
:10033800A0EF01F0CDEF01F0000E016E000E026E8D
:10034800000E036E000E046E68EF02F0D8900136BE
:1003580002360336043610AEB4EF01F0B6EF01F002
:10036800B7EF01F0018010A0BCEF01F0BEEF01F083
:10037800C2EF01F0D8801036C4EF01F0D8901036E3
:100388000F50D8B4CAEF01F0CCEF01F0CDEF01F077
:100398000F0603AED2EF01F0D4EF01F0AAEF01F09F
:1003A800000E0E6E10AEDBEF01F0DDEF01F0F5EFA1
:1003B80001F010C009F07F0E0916D8B4E6EF01F07D
:1003C800E8EF01F0ECEF01F0010E0E6EF5EF01F031
:1003D80001A0F1EF01F0F3EF01F0F5EF01F0E8EF24
:1003E80001F00E50D8B4FBEF01F0FDEF01F028EF5B
:1003F80002F0010E0126000E02220322042204A0AC
:1004080008EF02F00AEF02F028EF02F001C009F04D
:1004180002C00AF003C00BF004C00CF00C340C321C
:100428000B320A32093209C001F00AC002F00BC0CF
:1004380003F00CC004F00F28D8B425EF02F027EF22
:1004480002F028EF02F00F2A0F28D8B42EEF02F09E
:1004580030EF02F038EF02F00F50D8A436EF02F078
:1004680038EF02F04AEF02F0000E016E000E026E45
:10047800000E036E000E046E0F50D8A446EF02F073
:1004880048EF02F04AEF02F0000E0D6E0FA04FEF9A
:1004980002F051EF02F054EF02F0038E55EF02F034
:1004A800039ED8900F30046E0DAE5DEF02F05FEF43
:1004B80002F060EF02F0048E01C001F002C002F009
:1004C80003C003F004C004F0120000018651800B41
:1004D8008F6F86518625956F85AF75EF02F077EFA0
:1004E80002F078EF02F095819551D8B47EEF02F0D2
:1004F80080EF02F093EF02F09529D8A486EF02F07E
:1005080088EF02F090EF02F0000E836F000E846F08
:10051800000E856F000E866F858F9BEF02F0000E30
:10052800836F000E846F000E856F000E866F8A51F0
:10053800800B8F1B8A518A25906F89AFA6EF02F036
:10054800A8EF02F0A9EF02F090819051D8B4AFEF74
:1005580002F0B1EF02F0C4EF02F09029D8A4B7EF8F
:1005680002F0B9EF02F0C1EF02F0000E876F000E43
:10057800886F000E896F000E8A6F898FCCEF02F0AA
:10058800000E876F000E886F000E896F000E8A6F4D
:100598009051D8B4D2EF02F0D4EF02F0DCEF02F0C1
:1005A8009551D8A4DAEF02F0DCEF02F0E6EF02F0A2
:1005B800000E836F000E846F000E856F000E866F2D
:1005C8007EEF04F089518303F3CF9AF0F4CF9BF0C8
:1005D8009A51916F926B936B946B9B51966F976B3B
:1005E800986B996B88518403F3CF9AF0F4CF9BF002
:1005F8009A519127000E9223932394239B51962777
:10060800000E97239823992387518503F3CF9AF0F7
:10061800F4CF9BF09A519127000E922393239423B1
:100628009B519627000E97239823992393C094F003
:1006380092C093F091C092F0916B87518403F3CFED
:100648009AF0F4CF9BF09A5191279B519223000E78
:100658009323000E942388518303F3CF9AF0F4CFA9
:100668009BF09A5191279B519223000E9323000EE1
:10067800942393C094F092C093F091C092F0916B40
:1006880087518303F3CF9AF0F4CF9BF09A519127C7
:100698009B519223000E9323000E942389518403C7
:1006A800F3CF9AF0F4CF9BF09A5196279B5197235A
:1006B800000E9823000E992388518503F3CF9AF0F2
:1006C800F4CF9BF09A5196279B519723000E9823BD
:1006D800000E992389518503F3CF9AF0F4CF9BF04C
:1006E8009A518B6F9B518C6F8D6B8E6B8DC08EF07A
:1006F8008CC08DF08BC08CF08B6B8B5196278C51F6
:1007080097238D5198238E51992391C08BF092C0D5
:100718008CF093C08DF094C08EF0190E99EF03F011
:10072800D8908E338D338C338B33E82E94EF03F0CF
:100738008B5196278C5197238D5198238E5199234D
:1007480093C094F092C093F091C092F0916B905145
:1007580095C08BF08C6B8B27000E8C23820E8B251B
:100768009A6FFF0E8C219B6FCFEF03F0D8909637CE
:1007780097379837993794AFC4EF03F0C6EF03F073
:10078800C7EF03F09681D890913792379337943713
:100798009A07D8A09B0798AFD4EF03F0D6EF03F0E1
:1007A800BAEF03F0000E906F94AFDDEF03F0DFEFC8
:1007B80003F003EF04F0FF0E91158B6FFF0E9215F7
:1007C8008C6FFF0E93158D6F7F0E94158E6F8B5166
:1007D8008C118D118E11D8B4F4EF03F0F6EF03F0FD
:1007E800FAEF03F0010E906F03EF04F096A1FFEF0C
:1007F80003F001EF04F003EF04F0F6EF03F090517B
:10080800D8B409EF04F00BEF04F02FEF04F0010E59
:100818009627000E97239823992399A116EF04F0A1
:1008280018EF04F02FEF04F096C08BF097C08CF00F
:1008380098C08DF099C08EF08E358E338D338C3301
:100848008B338BC096F08CC097F08DC098F08EC01B
:1008580099F09A4B9B2B9BBF3AEF04F09B5108E110
:100868009A29D8A03AEF04F03CEF04F046EF04F0E0
:10087800000E966F000E976F800E986F7F0E996F1F
:1008880074EF04F09BBF53EF04F09B5106E19A0507
:10089800D8B051EF04F053EF04F05FEF04F0000E0E
:1008A800966F000E976F000E986F000E996F000EEE
:1008B8008F6F74EF04F09AC095F0FF0E9617FF0E35
:1008C80097177F0E9817000E991795A16EEF04F0F1
:1008D80070EF04F071EF04F0988FD8909531996F0C
:1008E8008F51991396C083F097C084F098C085F013
:1008F80099C086F012001250800B1B6E1250122401
:10090800216E11AE8AEF04F08CEF04F08DEF04F045
:1009180021802150D8B493EF04F095EF04F0A8EFAC
:1009280004F02128D8A49BEF04F09DEF04F0A5EF74
:1009380004F0000E0F6E000E106E000E116E000E09
:10094800126E118EB0EF04F0000E0F6E000E106ED6
:10095800000E116E000E126E1650800B1B1A1650E8
:100968001624206E15AEBBEF04F0BDEF04F0BEEF09
:1009780004F020802050D8B4C4EF04F0C6EF04F08F
:10098800D9EF04F02028D8A4CCEF04F0CEEF04F07F
:10099800D6EF04F0000E136E000E146E000E156EE6
:1009A800000E166E158EE1EF04F0000E136E000EA9
:1009B800146E000E156E000E166E2050D8B4E7EFB8
:1009C80004F0E9EF04F0F1EF04F02150D8A4EFEFC0
:1009D80004F0F1EF04F0FBEF04F0000E0F6E000ED0
:1009E800106E000E116E000E126E93EF06F0155089
:1009F8000F02F3CF26F0F4CF27F026501C6E1D6AA5
:100A08001E6A1F6A2750226E236A246A256A1450B8
:100A18001002F3CF26F0F4CF27F026501C26000E44
:100A28001D221E221F2227502226000E23222422A6
:100A3800252213501102F3CF26F0F4CF27F02650C9
:100A48001C26000E1D221E221F2227502226000EC1
:100A58002322242225221EC01FF01DC01EF01CC008
:100A68001DF01C6A13501002F3CF26F0F4CF27F0C4
:100A780026501C2627501D22000E1E22000E1F2263
:100A880014500F02F3CF26F0F4CF27F026501C267F
:100A980027501D22000E1E22000E1F221EC01FF00E
:100AA8001DC01EF01CC01DF01C6A13500F02F3CFAE
:100AB80026F0F4CF27F026501C2627501D22000EC2
:100AC8001E22000E1F2215501002F3CF26F0F4CF7D
:100AD80027F02650222627502322000E2422000E1B
:100AE800252214501102F3CF26F0F4CF27F0265018
:100AF800222627502322000E2422000E25221550DC
:100B08001102F3CF26F0F4CF27F02650176E2750A6
:100B1800186E196A1A6A19C01AF018C019F017C0A5
:100B280018F0176A17502226185023221950242229
:100B38001A5025221CC017F01DC018F01EC019F04D
:100B48001FC01AF0190EAEEF05F0D8901A321932FC
:100B580018321732E82EA9EF05F017502226185040
:100B68002322195024221A5025221EC01FF01DC00E
:100B78001EF01CC01DF01C6A205021C017F0186A16
:100B88001726000E1822820E1724266EFF0E182034
:100B9800276EE4EF05F0D890223623362436253622
:100BA8001FAED9EF05F0DBEF05F0DCEF05F0228092
:100BB800D8901C361D361E361F362606D8A02706A6
:100BC80024AEE9EF05F0EBEF05F0CFEF05F0000EEE
:100BD800206E1FAEF2EF05F0F4EF05F018EF06F007
:100BE800FF0E1C14176EFF0E1D14186EFF0E1E1438
:100BF800196E7F0E1F141A6E1750181019101A103C
:100C0800D8B409EF06F00BEF06F00FEF06F0010E6F
:100C1800206E18EF06F022A014EF06F016EF06F08B
:100C280018EF06F00BEF06F02050D8B41EEF06F0D0
:100C380020EF06F044EF06F0010E2226000E2322D4
:100C48002422252225A02BEF06F02DEF06F044EFF5
:100C580006F022C017F023C018F024C019F025C0F0
:100C68001AF01A341A3219321832173217C022F011
:100C780018C023F019C024F01AC025F0264A272AE4
:100C880027BE4FEF06F0275008E12628D8A04FEFDF
:100C980006F051EF06F05BEF06F0000E226E000E34
:100CA800236E800E246E7F0E256E89EF06F027BE18
:100CB80068EF06F0275006E12604D8B066EF06F084
:100CC80068EF06F074EF06F0000E226E000E236E39
:100CD800000E246E000E256E000E1B6E89EF06F0C6
:100CE80026C021F0FF0E2216FF0E23167F0E2416B3
:100CF800000E251621A083EF06F085EF06F086EF9B
:100D080006F0248ED8902130256E1B50251222C063
:100D18000FF023C010F024C011F025C012F012000B
:100D280000016D51800B7A6F6D516D25816F6CAF2D
:100D3800A0EF06F0A2EF06F0A3EF06F08181815143
:100D4800D8B4A9EF06F0ABEF06F0C0EF06F08129A2
:100D5800D8A4B1EF06F0B3EF06F0BBEF06F0000E33
:100D68006A6F000E6B6F000E6C6F000E6D6F6C8FEC
:100D7800000E6D6FC8EF06F0000E6A6F000E6B6F05
:100D8800000E6C6F000E6D6F7151800B7A1B7151E4
:100D98007125826F70AFD3EF06F0D5EF06F0D6EF6E
:100DA80006F082818251D8B4DCEF06F0DEEF06F05F
:100DB800F3EF06F08229D8A4E4EF06F0E6EF06F098
:100DC800EEEF06F0000E6E6F000E6F6F000E706F84
:100DD800000E716F708F000E716FFBEF06F0000E42
:100DE8006E6F000E6F6F000E706F000E716F6E5198
:100DF8006F1170117111D8A404EF07F006EF07F016
:100E08001EEF07F0000E6A6F000E6B6F000E6C6F1E
:100E1800000E6D6F800E6C137F0E6D137A516D137B
:100E28006AC06AF06BC06BF06CC06CF06DC06DF09E
:100E380061EF08F08151D8A424EF07F026EF07F0FE
:100E480030EF07F0000E6A6F000E6B6F000E6C6FCC
:100E5800000E6D6F61EF08F0825181C072F0736B04
:100E6800725F000E735B7F0E72257B6F000E73211D
:100E78007C6F6AC076F06BC077F06CC078F06DC09C
:100E880079F0000E6A6F000E6B6F000E6C6F000E2B
:100E98006D6F000E7D6F000E7E6F000E7F6F000E6F
:100EA800806F000E826F91EF07F08251D8B45FEF28
:100EB80007F061EF07F078EF07F0D89076377737CB
:100EC80078377937D8906A376B376C376D3780AF9A
:100ED80070EF07F072EF07F073EF07F06A81D890B0
:100EE8007D377E377F3780376E51765D6F51775902
:100EF8007051785971517959D8A085EF07F087EF6B
:100F080007F090EF07F0808D6E51765F6F51775B39
:100F18007051785B7151795B822B190E826597EF5E
:100F280007F099EF07F059EF07F07651771178112C
:100F38007911D8B4A2EF07F0A4EF07F0BCEF07F0DF
:100F48007D81BCEF07F0D8906A376B376C376D3707
:100F580080AFB1EF07F0B3EF07F0B4EF07F06A81A5
:100F6800D8907D377E377F3780377B07D8A07C07BE
:100F78006CAFC1EF07F0C3EF07F0A7EF07F0000E63
:100F8800826F80AFCAEF07F0CCEF07F0F0EF07F001
:100F9800FF0E7D15726FFF0E7E15736FFF0E7F15A6
:100FA800746F7F0E8015756F7251731174117511FE
:100FB800D8B4E1EF07F0E3EF07F0E7EF07F0010E31
:100FC800826FF0EF07F06AA1ECEF07F0EEEF07F0A1
:100FD800F0EF07F0E3EF07F08251D8B4F6EF07F02F
:100FE800F8EF07F01CEF08F0010E6A27000E6B23DC
:100FF8006C236D236DA103EF08F005EF08F01CEFDB
:1010080008F06AC072F06BC073F06CC074F06DC009
:1010180075F07535753374337333723372C06AF093
:1010280073C06BF074C06CF075C06DF07B4B7C2B9B
:101038007CBF27EF08F07C5108E17B29D8A027EF77
:1010480008F029EF08F034EF08F0000E7C6F7B6998
:10105800000E6A6F000E6B6F000E6C6F000E6D6FE6
:101068007CBF41EF08F07C5106E17B05D8B03FEF2B
:1010780008F041EF08F04FEF08F0000E7C6F000E0B
:101088007B6F000E6A6F000E6B6F000E6C6F000EA8
:101098006D6F000E7A6F7BC081F081A156EF08F06A
:1010A80058EF08F05BEF08F06C8F5CEF08F06C9F6E
:1010B800D89081316D6F12EF07F01200000E5D6E4F
:1010C800000E5C6E000E0001F16F010EF06FEE0570
:1010D800EF11D8A472EF08F074EF08F0FCEF08F0F5
:1010E800000EA26F000EA16F000EEF6F000EEE6FE4
:1010F800D6C095F0D7C096F0D4C097F0D5C098F078
:10110800D2C099F0D3C09AF0000E7C6F1B0E7B6F93
:10111800000E7E6F000E7D6F000E806F1B0E7F6FBE
:10112800000E826F400E816F000E846F010E836F78
:1011380084EC0FF0000E00017C6F000E7B6F000E38
:101148007E6F190E7D6F000E806F1B0E7F6F000E75
:10115800826F190E816F000E846F010E836F84EC0D
:101168000FF00001F251F311D8A4BDEF08F0BFEF62
:1011780008F0D1EF08F0010E746F020EEDEC17F0D5
:10118800950E00017D6F000E7E6F010E7F6F010EC0
:10119800806FBEEC18F0FCEF08F0F205F311D8A44C
:1011A800D8EF08F0DAEF08F0ECEF08F0010E746FF2
:1011B800020EEDEC17F0970E00017D6F000E7E6FAA
:1011C800010E7F6F010E806FBEEC18F0FCEF08F087
:1011D800010E746F020EEDEC17F0990E00017D6F91
:1011E800000E7E6F010E7F6F010E806FBEEC18F04F
:1011F800C6C092F0C7C093F0C8C094F0D0C09BF0AE
:10120800D1C09CF0CEC09DF0CFC09EF0CCC09FF066
:10121800CDC0A0F0030E0001746F020EEDEC17F0C4
:10122800920E00017D6F000E7E6F010E7F6F010E22
:10123800806FBEEC18F0040E0001746F020EEDEC26
:1012480017F09B0E00017D6F000E7E6F010E7F6F01
:10125800010E806FBEEC18F0050E0001746F020ECF
:10126800EDEC17F09D0E00017D6F000E7E6F010EF4
:101278007F6F010E806FBEEC18F0060E0001746FD0
:10128800020EEDEC17F09F0E00017D6F000E7E6FD1
:10129800010E7F6F010E806FBEEC18F00001A2BF37
:1012A80061EF09F0A25107E1630EA15DD8B05FEFCD
:1012B80009F061EF09F089EF09F01C0EA1257B6F99
:1012C800000EA2217C6F000E7E6F000E7D6F1C0E3B
:1012D800A1257F6F000EA221806F000E826F400E45
:1012E800816F000E846F000E836F84EC0FF090C046
:1012F80074F0010E0001756FA1511B0F6DEC14F015
:101308000001A14BA22BBBEF09F0A2BF95EF09F09A
:10131800A25109E1630EA15DD8A095EF09F097EFFE
:1013280009F0BBEF09F0000EA26F000EA16F000ECE
:101338007C6F1C0E7B6F000E7E6F000E7D6F000EA3
:10134800806F1C0E7F6F000E826F400E816F000E43
:10135800846F000E836F84EC0FF090C074F0010E60
:101368000001756F1B0E6DEC14F084EF09F012008C
:1013780028C001F029C002F0000E02BEFF0E036E65
:10138800046E010EC0EC0CF001C00FF002C010F0AA
:1013980003C011F004C012F0A10E136EDE0E146E1D
:1013A800A70E156E3C0E166E7FEC04F00FC032F0DF
:1013B80010C033F011C034F012C035F032C001F063
:1013C80033C002F034C003F035C004F0EAEC13F087
:1013D80001C030F002C031F032C011F033C012F059
:1013E80034C013F035C014F030C001F031C002F041
:1013F800000E02BEFF0E036E046E010EC0EC0CF070
:1014080001C015F002C016F003C017F004C018F0B0
:101418003FEC19F011C032F012C033F013C034F0B1
:1014280014C035F032C00FF033C010F034C011F0E2
:1014380035C012F0000E136E000E146E200E156EDD
:10144800410E166E7FEC04F00FC032F010C033F07E
:1014580011C034F012C035F032C001F033C002F0D0
:1014680034C003F035C004F0EAEC13F001C02EF0EC
:1014780002C02FF032C011F033C012F034C013F0A4
:1014880035C014F02EC001F02FC002F0000E02BECD
:10149800FF0E036E046E010EC0EC0CF001C015F0D7
:1014A80002C016F003C017F004C018F03FEC19F0A2
:1014B80011C032F012C033F013C034F014C035F04C
:1014C80032C00FF033C010F034C011F035C012F044
:1014D800000E136E000E146E200E156E410E166E61
:1014E8007FEC04F00FC032F010C033F011C034F0BC
:1014F80012C035F032C001F033C002F034C003F03E
:1015080035C004F0EAEC13F001C02CF002C02DF055
:1015180032C011F033C012F034C013F035C014F0EB
:101528002CC001F02DC002F0000E02BEFF0E036EAB
:10153800046E010EC0EC0CF001C015F002C016F0EC
:1015480003C017F004C018F03FEC19F011C032F0D6
:1015580012C033F013C034F014C035F032C00FF0AD
:1015680033C010F034C011F035C012F0000E136E05
:10157800000E146E200E156E410E166E7FEC04F0F0
:101588000FC032F010C033F011C034F012C035F083
:1015980032C001F033C002F034C003F035C004F0AB
:1015A800EAEC13F001C02AF002C02BF02AC001F0C7
:1015B8002BC002F045EC0EF001C0E6F002C0E7F0E7
:1015C8002CC001F02DC002F045EC0EF001C0E4F093
:1015D80002C0E5F02EC001F02FC002F045EC0EF07D
:1015E80001C0E2F002C0E3F030C001F031C002F007
:1015F80045EC0EF0800E01240001E06F000E022081
:10160800E16F12000001EA05EB11D8A40EEF0BF010
:1016180010EF0BF017EF0BF0000EEB6F000EEA6FF8
:10162800000EA5EC17F0000E5D6E010E5C6E21EE4B
:1016380010F010EE27F00F0EDBCFE3FFE806FCE218
:1016480021EE20F010EE47F00E0EDBCFE3FFE806A8
:10165800FCE221EE00F010EE37F00F0EDBCFE3FFD7
:10166800E806FCE2DAC056F0DBC057F0D8C058F004
:10167800D9C059F0000E0B6E020E59EC18F0270E67
:10168800146E000E156E010E166E010E176EEDEC3F
:1016980018F0020E0B6E020E59EC18F0470E146E7D
:1016A800000E156E010E166E010E176EEDEC18F099
:1016B800030E0B6E020E59EC18F0370E146E000E66
:1016C800156E010E166E010E176EEDEC18F0030E76
:1016D8000B6E020E59EC18F0050E0B6E2A0E59EC23
:1016E80018F0560E146E000E156E010E166E010ED1
:1016F800176EEDEC18F0050E0B6E520E59EC18F043
:10170800580E146E000E156E010E166E010E176E31
:10171800EDEC18F05C045D10D8A495EF0BF097EF92
:101728000BF0B8EF0BF05A505B10D8A49EEF0BF0FB
:10173800A0EF0BF0B8EF0BF0000E136E2A0E126E2E
:10174800000E156E340E146E000E176E320E166EE5
:10175800000E196E340E186E000E1B6E010E1A6EF6
:101768001AEC10F0E3EF0BF05C045D10D8A4BFEFA7
:101778000BF0C1EF0BF0E2EF0BF05A045B10D8A4AA
:10178800C8EF0BF0CAEF0BF0E2EF0BF0000E136E90
:10179800520E126E000E156E340E146E000E176E79
:1017A8005A0E166E000E196E340E186E000E1B6E51
:1017B800010E1A6E1AEC10F0E3EF0BF000F01200B5
:1017C8000001726F00017251D8B4EDEF0BF0EFEF2A
:1017D8000BF011EF0CF06DBFF6EF0BF0F4EF0BF020
:1017E80011EF0CF06AC06EF06BC06FF06CC070F057
:1017F8006DC071F06E1F6F1F701F711F6E2B000E72
:101808006F23702371236EC074F06FC075F070C0C1
:1018180076F071C077F019EF0CF06AC074F06BC005
:1018280075F06CC076F06DC077F06A516B116C1171
:101838006D11D8A422EF0CF024EF0CF02EEF0CF071
:10184800000E6A6F000E6B6F000E6C6F000E6D6FEE
:10185800BFEF0CF0960E736F38EF0CF0732BD89027
:101868007733763375337433000E74156E6F000E4C
:1018780075156F6F000E7615706FFE0E7715716F08
:101888006E516F1170117111D8A44DEF0CF04FEF1C
:101898000CF032EF0CF05DEF0CF0732B010E742797
:1018A800000E752376237723D890773376337533F4
:1018B8007433000E74156E6F000E75156F6F000E81
:1018C8007615706FFF0E7715716F6E516F1170116D
:1018D8007111D8A472EF0CF074EF0CF051EF0CF00A
:1018E8007CEF0CF07307D8907437753776377737F5
:1018F80076BF81EF0CF083EF0CF08BEF0CF0020E4B
:10190800736189EF0CF08BEF0CF076EF0CF073B18C
:1019180090EF0CF092EF0CF093EF0CF0769FD890CC
:10192800733373C06EF06F6B706B716B6EC071F058
:10193800706B6F6B6E6B6E5174136F5175137051C2
:101948007613715177137251D8B4ADEF0CF0AFEF35
:101958000CF0B7EF0CF06DBFB6EF0CF0B4EF0CF075
:10196800B7EF0CF0778F74C06AF075C06BF076C073
:101978006CF077C06DF01200096E0950D8B4C7EF4B
:101988000CF0C9EF0CF0EBEF0CF004BED0EF0CF04C
:10199800CEEF0CF0EBEF0CF001C005F002C006F042
:1019A80003C007F004C008F0051E061E071E081E27
:1019B800052A000E06220722082205C00BF006C0E1
:1019C8000CF007C00DF008C00EF0F3EF0CF001C0EA
:1019D8000BF002C00CF003C00DF004C00EF0015073
:1019E800021003100410D8A4FCEF0CF0FEEF0CF06A
:1019F80008EF0DF0000E016E000E026E000E036E71
:101A0800000E046E99EF0DF0960E0A6E12EF0DF0AF
:101A18000A2AD8900E320D320C320B32000E0B14FB
:101A2800056E000E0C14066E000E0D14076EFE0EE9
:101A38000E14086E0550061007100810D8A427EFDA
:101A48000DF029EF0DF00CEF0DF037EF0DF00A2A2D
:101A5800010E0B26000E0C220D220E22D8900E32FB
:101A68000D320C320B32000E0B14056E000E0C14E6
:101A7800066E000E0D14076EFF0E0E14086E05504C
:101A8800061007100810D8A44CEF0DF04EEF0DF01B
:101A98002BEF0DF056EF0DF00A06D8900B360C36EA
:101AA8000D360E360DBE5BEF0DF05DEF0DF065EFF8
:101AB8000DF0020E0A6063EF0DF065EF0DF050EFC8
:101AC8000DF00AB06AEF0DF06CEF0DF06DEF0DF050
:101AD8000D9ED8900A320AC005F0066A076A086A9D
:101AE80005C008F0076A066A056A05500B12065019
:101AF8000C1207500D1208500E120950D8B487EF77
:101B08000DF089EF0DF091EF0DF004BE90EF0DF0A0
:101B18008EEF0DF091EF0DF00E8E0BC001F00CC0A2
:101B280002F00DC003F00EC004F012000600E1CF71
:101B380060F0E2CF61F0D9CF62F0DACF63F0F3CF93
:101B480064F0F4CF65F0F6CF66F0F7CF67F0F8CF22
:101B580068F0F5CF69F09EACB4EF0DF0B6EF0DF07C
:101B6800C1EF0DF09E9CC4CFE8F00001E96BE8C01E
:101B780028F0E9C029F0BCEC09F0F2A0C6EF0DF09E
:101B8800C8EF0DF02FEF0EF0F29081ACCEEF0DF014
:101B9800D0EF0DF02EEF0EF00001DE51DF11D8A4CA
:101BA800D8EF0DF0DAEF0DF02AEF0EF05C045D10BF
:101BB800D8A4E1EF0DF0E3EF0DF0FFEF0DF05A5070
:101BC8005B10D8A4EAEF0DF0ECEF0DF0FFEF0DF08D
:101BD800000EEB6F010EEA6F000E5B6E010E5A6E7F
:101BE800000E0B6E000E59EC18F0000EA5EC17F065
:101BF80000D006EC0BF05C045D10D8A406EF0EF0E4
:101C080008EF0EF025EF0EF05A045B10D8A40FEF82
:101C18000EF011EF0EF025EF0EF0000E0001EB6F45
:101C2800010EEA6F000E5B6E000E5A6E000E0B6E10
:101C3800000E59EC18F0000EA5EC17F000D006ECD9
:101C48000BF00001DE4BDF2B2EEF0EF0000EDF6FE6
:101C5800000EDE6F815069C0F5FF68C0F8FF67C0ED
:101C6800F7FF66C0F6FF65C0F4FF64C0F3FF63C00A
:101C7800DAFF62C0D9FF61C0E2FF60C0E1FF5E9297
:101C8800110001500210D8A44CEF0EF04EEF0EF0E8
:101C980054EF0EF0000E026E3F0E016EE6EF0EF0EE
:101CA80001040210D8A45BEF0EF05DEF0EF063EFB5
:101CB8000EF0000E026E060E016EE6EF0EF0020E3A
:101CC80001180210D8A46BEF0EF06DEF0EF073EF51
:101CD8000EF0000E026E5B0E016EE6EF0EF0030EC4
:101CE80001180210D8A47BEF0EF07DEF0EF083EF01
:101CF8000EF0000E026E4F0E016EE6EF0EF0040EAF
:101D080001180210D8A48BEF0EF08DEF0EF093EFB0
:101D18000EF0000E026E660E016EE6EF0EF0050E76
:101D280001180210D8A49BEF0EF09DEF0EF0A3EF60
:101D38000EF0000E026E6D0E016EE6EF0EF0060E4E
:101D480001180210D8A4ABEF0EF0ADEF0EF0B3EF10
:101D58000EF0000E026E7D0E016EE6EF0EF0070E1D
:101D680001180210D8A4BBEF0EF0BDEF0EF0C3EFC0
:101D78000EF0000E026E070E016EE6EF0EF0080E72
:101D880001180210D8A4CBEF0EF0CDEF0EF0D3EF70
:101D98000EF0000E026E7F0E016EE6EF0EF0090ED9
:101DA80001180210D8A4DBEF0EF0DDEF0EF0E3EF20
:101DB8000EF0000E026E6F0E016EE6EF0EF0000ED2
:101DC800026E01681200C9C096F0CAC097F0CBC075
:101DD80098F020EEC1F010EE91F0040EDBCFE3FF97
:101DE800E806FCE2DCC099F0DDC09AF020EEA6F02F
:101DF80010EE83F0070EDBCFE3FFE806FCE220EEEF
:101E0800B5F010EE8BF0050EDBCFE3FFE806FCE241
:101E1800000E0001746F340EEDEC17F0960E000101
:101E28007D6F000E7E6F010E7F6F010E806FBEEC1E
:101E380018F0020E0001746F2D0EEDEC17F0910EE4
:101E480000017D6F000E7E6F010E7F6F010E806FA7
:101E5800BEEC18F0030E0001746F360EEDEC17F0AF
:101E6800990E00017D6F000E7E6F010E7F6F010ECF
:101E7800806FBEEC18F0040E0001746F230EEDECB9
:101E880017F0830E00017D6F000E7E6F010E7F6FCD
:101E9800010E806FBEEC18F0050E0001746F360E4F
:101EA800EDEC17F0990E00017D6F000E7E6F010EAC
:101EB8007F6F010E806FBEEC18F0060E0001746F84
:101EC800290EEDEC17F08B0E00017D6F000E7E6F72
:101ED800010E7F6F010E806FBEEC18F0150E000129
:101EE800826F4B0E816FBE0EE82EFED7812FFCD776
:101EF800822FFAD700F0000E5DEC17F000D0120028
:101F080000017F517B1907E180517C19D8A48FEF1C
:101F18000FF091EF0FF0CFEF0FF0FF0E7B25886FDA
:101F2800FF0E7C21896FBAEF0FF07DC08AF07EC06A
:101F38008BF0A9EF0FF08AC074F083C075F0885158
:101F48006DEC14F000018A4B8B2B81518A5D8B510B
:101F5800800A856F8251800A8559D8A0B6EF0FF0A4
:101F6800B8EF0FF09FEF0FF0884B892B010E7B2500
:101F7800856F000E7C21866F8851855D8651800AA9
:101F8800876F8951800A8759D8B0CDEF0FF0CFEF0E
:101F98000FF099EF0FF081517D1907E182517E19F9
:101FA800D8A4D9EF0FF0DBEF0FF019EF10F0FF0E08
:101FB8007D258C6FFF0E7E218D6F04EF10F07BC0A6
:101FC8008EF07CC08FF0F3EF0FF08CC074F083C0FC
:101FD80075F08E516DEC14F000018E4B8F2B7F51F4
:101FE8008E5D8F51800A856F8051800A8559D8A0EF
:101FF80000EF10F002EF10F0E9EF0FF08C4B8D2B93
:10200800010E7D25856F000E7E21866F8C51855DC2
:102018008651800A876F8D51800A8759D8B017EF8B
:1020280010F019EF10F0E3EF0FF01200165012182D
:1020380007E117501318D8A424EF10F026EF10F07A
:1020480063EF10F0FF0E12241F6EFF0E1320206E98
:102058004EEF10F014C021F015C022F03DEF10F043
:1020680021C00BF01AC00CF01F50E0EC14F0214A0C
:10207800222A1850215C2250800A1C6E1950800AAE
:102088001C58D8A04AEF10F04CEF10F034EF10F0C5
:102098001F4A202A010E12241C6E000E13201D6EEA
:1020A8001F501C5C1D50800A1E6E2050800A1E584E
:1020B800D8B061EF10F063EF10F02EEF10F0185069
:1020C800141807E119501518D8A46DEF10F06FEF28
:1020D80010F0ACEF10F0FF0E1424236EFF0E152045
:1020E800246E97EF10F012C025F013C026F086EF8B
:1020F80010F023C00BF01AC00CF02550E0EC14F0DF
:10210800254A262A1650255C2650800A1C6E175030
:10211800800A1C58D8A093EF10F095EF10F07DEFCF
:1021280010F0234A242A010E14241C6E000E1520D8
:102138001D6E23501C5C1D50800A1E6E2450800AA0
:102148001E58D8B0AAEF10F0ACEF10F077EF10F0EF
:1021580012000001776F000E00017C6F0A0E7719DC
:10216800D8A4B9EF10F0BBEF10F0C0EF10F0000EDC
:10217800F56FF42B39EF11F03F0EF565C6EF10F04F
:10218800C8EF10F0CFEF10F0010E7C6FF551C00FC3
:102198007A6FD1EF10F0F5C07AF07751080DF3CFD0
:1021A80078F0F4CF79F0000E7B6F3F0E7A65DFEFA1
:1021B80010F0E1EF10F0F4EF10F0400E7A5F010E2E
:1021C8007C6F8A947A514009726F010EB6EC19F04F
:1021D8000001F451B809726F010EB6EC19F08A8447
:1021E80000017451D8B4FBEF10F0FDEF10F015EFBB
:1021F80011F03B0E756F730E766F7B517527000ECD
:102208007623785175277951762375C0F6FF76C005
:10221800F7FF0800F5CF72F07C51B6EC19F02CEFFF
:1022280011F03B0E756F730E766F7B517527000E9C
:102238007623785175277951762375C0F6FF76C0D5
:10224800F7FF0800F550FF0A726F7C51B6EC19F0E1
:1022580000017A2B7B2B070E7B6535EF11F037EFEA
:1022680011F0D9EF10F0080EF52712000001786F71
:10227800000E00017A6F0A0E7819D8A446EF11F003
:1022880048EF11F04DEF11F0000EF56FF42BC6EF8B
:1022980011F03F0EF56553EF11F055EF11F05CEFBB
:1022A80011F0010E7A6FF551C00F776F5EEF11F0E4
:1022B800F5C077F0200E785F000E796F3F0E7765D6
:1022C80068EF11F06AEF11F07DEF11F0400E775FC3
:1022D800010E7A6F8A9477514009726F010EB6EC3D
:1022E80019F00001F451B809726F010EB6EC19F03B
:1022F8008A8400017451D8B484EF11F086EF11F08C
:10230800A0EF11F07851030D3B0E756F7F0E766FBD
:10231800F3507527F450762379517527000E7623EC
:1023280075C0F6FF76C0F7FF0800F5CF72F07A5156
:10233800B6EC19F0B9EF11F07851030D3B0E756F3B
:102348007F0E766FF3507527F450762379517527F1
:10235800000E762375C0F6FF76C0F7FF0800F5502B
:10236800FF0A726F7A51B6EC19F00001772B792BBE
:10237800020E7965C2EF11F0C4EF11F062EF11F0AF
:10238800050EF5271200106E000E136E0A0E1018B7
:10239800D8A4D1EF11F0D3EF11F0D9EF11F0000E5E
:1023A8000001F56FF42B52EF12F03F0E0001F565B6
:1023B800E0EF11F0E2EF11F0E9EF11F0010E136E0A
:1023C800F551C00F116EEBEF11F0F5C011F0105080
:1023D800080DF3CF0EF0F4CF0FF0000E126E3F0E83
:1023E8001164F9EF11F0FBEF11F00EEF12F0400E4F
:1023F800115E010E136E8A9411504009096E010E88
:10240800D1EC19F00001F451B809096E010ED1ECB4
:1024180019F08A840B50D8B414EF12F016EF12F0AA
:102428002EEF12F03B0E0C6E730E0D6E12500C2632
:10243800000E0D220E500C260F500D220CC0F6FF78
:102448000DC0F7FF0800F5CF09F01350D1EC19F0D3
:1024580045EF12F03B0E0C6E730E0D6E12500C26EB
:10246800000E0D220E500C260F500D220CC0F6FF48
:102478000DC0F7FF0800F550FF0A096E1350D1ECA4
:1024880019F0112A122A070E12644DEF12F04FEFBD
:1024980012F0F3EF11F0080E0001F52712000F6E8D
:1024A800000E116E0A0E0F18D8A45DEF12F05FEF40
:1024B80012F065EF12F0000E0001F56FF42BDEEF5D
:1024C80012F03F0E0001F5656CEF12F06EEF12F09E
:1024D80075EF12F0010E116EF551C00F0E6E77EF09
:1024E80012F0F5C00EF0200E0F5E000E106E3F0EBB
:1024F8000E6481EF12F083EF12F096EF12F0400EA7
:102508000E5E010E116E8A940E504009096E010E7E
:10251800D1EC19F00001F451B809096E010ED1ECA3
:1025280019F08A840B50D8B49CEF12F09EEF12F089
:10253800B8EF12F00F50030D3B0E0C6E7F0E0D6EB0
:10254800F3500C26F4500D2210500C26000E0D22CC
:102558000CC0F6FF0DC0F7FF0800F5CF09F01150C9
:10256800D1EC19F0D1EF12F00F50030D3B0E0C6EA9
:102578007F0E0D6EF3500C26F4500D2210500C26D1
:10258800000E0D220CC0F6FF0DC0F7FF0800F55035
:10259800FF0A096E1150D1EC19F00E2A102A020E0A
:1025A8001064D9EF12F0DBEF12F07BEF12F0050E9A
:1025B8000001F5271200000E0001736F71BFE9EFEB
:1025C80012F0E7EF12F0F3EF12F0711F701F6F1F98
:1025D8006E6D000E6F2370237123010E736F6DBF34
:1025E800FAEF12F0F8EF12F004EF13F06D1F6C1F02
:1025F8006B1F6A6D000E6B236C236D23010E731B1A
:10260800000E746F000E756F000E766F000E776FF8
:102618006E516F1170117111D8B415EF13F017EFD7
:1026280013F04DEF13F0010E726F21EF13F0D890F5
:102638006E376F3770377137722B71AF26EF13F023
:1026480028EF13F01BEF13F0D890743775377637EF
:1026580077376E516A5D6F516B5970516C59715172
:102668006D59D8A03AEF13F03CEF13F045EF13F093
:102678006E516A5F6F516B5B70516C5B71516D5B32
:102688007481D890713370336F336E33722F28EFA3
:1026980013F07351D8B453EF13F055EF13F05DEF07
:1026A80013F0771F761F751F746D000E7523762340
:1026B800772374C06AF075C06BF076C06CF077C091
:1026C8006DF0120000016C356D35736F7351D8A42D
:1026D80070EF13F072EF13F07CEF13F0000E6A6FD7
:1026E800000E6B6F000E6C6F000E6D6FE9EF13F04C
:1026F8006AC06EF06BC06FF06CC070F06DC071F0A6
:10270800200E8CEF13F0D890713370336F336E3323
:10271800E82E87EF13F06E51726F6C8FFF0E6A17F9
:10272800FF0E6B17FF0E6C17000E6D17960E735F7A
:1027380073BFA3EF13F0A1EF13F0B9EF13F07351C8
:10274800800A970FD8B0ABEF13F0ADEF13F0AFEFEF
:1027580013F072EF13F0D8906D336C336B336A3328
:10276800733FAFEF13F0D1EF13F01F0E7365BFEF98
:1027780013F0C1EF13F0C9EF13F072EF13F0D89014
:102788006A376B376C376D3773077351D8A4CFEF3F
:1027980013F0D1EF13F0C3EF13F07251D8B4D7EFA1
:1027A80013F0D9EF13F0E1EF13F06D1F6C1F6B1FDF
:1027B8006A6D000E6B236C236D236AC06AF06BC0D0
:1027C8006BF06CC06CF06DC06DF012000334043413
:1027D8000A6E0A50D8A4F3EF13F0F5EF13F0FFEFE9
:1027E80013F0000E016E000E026E000E036E000E56
:1027F800046E6CEF14F001C005F002C006F003C0CF
:1028080007F004C008F0200E0FEF14F0D89008323B
:10281800073206320532E82E0AEF14F00550096E29
:10282800038EFF0E0116FF0E0216FF0E0316000E92
:102838000416960E0A5E0ABE26EF14F024EF14F072
:102848003CEF14F00A50800A970FD8B02EEF14F01E
:1028580030EF14F032EF14F0F5EF13F0D8900432A3
:102868000332023201320A3E32EF14F054EF14F010
:102878001F0E0A6442EF14F044EF14F04CEF14F00A
:10288800F5EF13F0D89001360236033604360A06FF
:102898000A50D8A452EF14F054EF14F046EF14F095
:1028A8000950D8B45AEF14F05CEF14F064EF14F048
:1028B800041E031E021E016C000E022203220422C3
:1028C80001C001F002C002F003C003F004C004F02C
:1028D80012000001786F000E00017A6F3F0E7865D4
:1028E80078EF14F07AEF14F07EEF14F0400E785F72
:1028F800010E7A6F8A94789F788D78C072F07A5139
:10290800B6EC19F074C06AF000016B6B000E6D6FC5
:10291800080E6C6F49EC15F000016A51BF0BB8093D
:10292800726F7A51B6EC19F08A8400017A519BECE7
:1029380019F000017A519BEC19F00001796F8A9423
:1029480078C072F07A51B6EC19F000017551D8B41C
:10295800B0EF14F0B2EF14F0C6EF14F074C076F0D4
:10296800070E7617010E776F762BBDEF14F0D8900F
:102978007737762FBBEF14F0000177517911796F13
:10298800D9EF14F074C076F0070E7617010E776F42
:10299800762BD1EF14F0D8907737762FCFEF14F04D
:1029A80000017751FF0A7915796F8A8479C072F02E
:1029B8007A51B6EC19F012000F6E000E116E3F0E30
:1029C8000F64E9EF14F0EBEF14F0EFEF14F0400EA2
:1029D8000F5E010E116E8A940F9E0F8C0FC009F0C6
:1029E8001150D1EC19F00BC001F0026A000E046E10
:1029F800080E036E0EEC16F00150BF0BB809096EF5
:102A08001150D1EC19F08A841150EAEC19F01150E8
:102A1800EAEC19F0106E8A940FC009F01150D1EC4D
:102A280019F00C50D8B41BEF15F01DEF15F030EF6E
:102A380015F00BC00DF0070E0D16010E0E6E0D2AC7
:102A480028EF15F0D8900E360D2E26EF15F00E5003
:102A58001010106E42EF15F00BC00DF0070E0D169A
:102A6800010E0E6E0D2A3BEF15F0D8900E360D2E86
:102A780039EF15F00E50FF0A1014106E8A8410C03A
:102A880009F01150D1EC19F01200000E00016F6F1F
:102A98006DBF53EF15F051EF15F059EF15F06C6D50
:102AA8006D1FD8B06D2B010E6F6F6BBF60EF15F007
:102AB8005EEF15F066EF15F06A6D6B1FD8B06B2BE3
:102AC800010E6F1B000E716F000E706F6C516D114F
:102AD800D8B471EF15F073EF15F09BEF15F0010EF8
:102AE8006E6F7BEF15F0D8906C376D376E2B6DAF2E
:102AF80080EF15F082EF15F077EF15F0D89070376A
:102B080071376C516A5D6D516B59D8A08EEF15F015
:102B180090EF15F095EF15F06C516A5F6D516B5B96
:102B28007081D8906D336C336E2F82EF15F06F5132
:102B3800D8B4A1EF15F0A3EF15F0A7EF15F0706D5D
:102B4800711FD8B0712B70C06AF071C06BF01200A1
:102B580020EEAEF010EE8DF0060EDBCFE3FFE806B8
:102B6800FCE220EEBBF010EE94F0050EDBCFE3FFA5
:102B7800E806FCE221EE2FF010EE83F0090EDBCF21
:102B8800E3FFE806FCE2000E5DEC17F0020E000120
:102B9800746F120EEDEC17F08D0E00017D6F000EB4
:102BA8007E6F010E7F6F010E806FBEEC18F0020E73
:102BB8000001746F4E0EEDEC17F0940E00017D6F5E
:102BC800000E7E6F010E7F6F010E806FBEEC18F055
:102BD800050E0001746F1A0EEDEC17F0830E00015C
:102BE8007D6F000E7E6F010E7F6F010E806FBEEC51
:102BF80018F0290E0001826F960E816F7F0EE82E65
:102C0800FED7812FFCD7822FFAD7000E5DEC17F084
:102C180000D01200000E066E04BE17EF16F015EF76
:102C280016F01DEF16F0036C041ED8B0042A010E2E
:102C3800066E02BE24EF16F022EF16F02AEF16F009
:102C4800016C021ED8B0022A010E061A000E086E88
:102C5800000E076E03500410D8B435EF16F037EFA6
:102C680016F05FEF16F0010E056E3FEF16F0D890E4
:102C780003360436052A04AE44EF16F046EF16F084
:102C88003BEF16F0D890073608360350015C045025
:102C98000258D8A052EF16F054EF16F059EF16F07C
:102CA8000350015E0450025A0780D8900432033260
:102CB800052E46EF16F00650D8B465EF16F067EF0C
:102CC80016F06BEF16F0076C081ED8B0082A07C07C
:102CD80001F008C002F012000001776F000E836E49
:102CE8008A9A8A8A8A988A908A928A94C00E00015F
:102CF800726F000EB6EC19F0C00E0001726F010E73
:102D0800B6EC19F0400E0001726F000EB6EC19F027
:102D1800400E0001726F010EB6EC19F0B80E0001FA
:102D2800726F000EB6EC19F0B80E0001726F010E4A
:102D3800B6EC19F000017705D8A4A5EF16F0A7EFB7
:102D480016F0B4EF16F03F0E726F000EB6EC19F0E5
:102D58003F0E0001726F010EB6EC19F0BFEF16F0CE
:102D68003E0E726F000EB6EC19F03E0E0001726F47
:102D7800010EB6EC19F0000E5DEC17F01200CB5006
:102D88000001A06FA16B010EA027000EA123A0C017
:102D98006AF0A1C06BF0000E6BBFFF0E6C6F6D6F19
:102DA800010EE4EC0BF06AC083F06BC084F06CC0D9
:102DB80085F06DC086F0000E00016E6F000E6F6F1B
:102DC800C80E706F420E716F9CC06AF09DC06BF0A8
:102DD8009EC06CF09FC06DF094EC06F06AC087F05E
:102DE8006BC088F06CC089F06DC08AF069EC02F0A5
:102DF80083C0A2F084C0A3F085C0A4F086C0A5F06B
:102E0800A2C06AF0A3C06BF0A4C06CF0A5C06DF0BE
:102E180066EC13F000016A51BB6EBA9ABA981200B8
:102E280003EC1AF0010E70EC16F0ACEC15F0E7ECC0
:102E38000EF0D00E0001786F070E796F000E7A6FD2
:102E4800000E7B6F1AEC19F0000E00019C6F000E4B
:102E58009D6F480E9E6F420E9F6FC3EC16F0000EDA
:102E68000001EF6F000EEE6F000EF36F000EF26FB1
:102E7800000E5B6E000E5A6E808AC282E8C06AF04D
:102E8800E9C06BF0000E00016D6F040E6C6F49EC29
:102E980015F06AC039F16BC03AF139C190F03AC106
:102EA80091F062EC08F024EC18F041EF17F007EF0E
:102EB80000F00001746F000E0001766F8A94400ED6
:102EC800726F000EB6EC19F0400E0001726F010E21
:102ED800B6EC19F000017651B809726F000EB6EC25
:102EE80019F000017651B809726F010EB6EC19F0AD
:102EF8008A84000E0001756F7451010DF3500008AB
:102F0800726F000EB6EC19F000017451010DF35008
:102F18000008726F010EB6EC19F00001752B3F0E18
:102F2800756599EF17F09BEF17F080EF17F0762B88
:102F3800070E7665A2EF17F0A4EF17F062EF17F00F
:102F480012000B6E000E0D6E070E0D64AEEF17F03B
:102F5800B0EF17F0B2EF17F0ECEF17F08A94400ECD
:102F6800096E000ED1EC19F0400E096E010ED1EC7D
:102F780019F00D50B809096E000ED1EC19F00D507A
:102F8800B809096E010ED1EC19F08A84000E0C6E96
:102F98003F0E0C64D2EF17F0D4EF17F0D6EF17F00E
:102FA800E9EF17F00B50010DF3500008096E000E01
:102FB800D1EC19F00B50010DF3500008096E010E09
:102FC800D1EC19F00C2ACCEF17F00D2AA8EF17F066
:102FD80012000001766F000E0001756F800E766199
:102FE800F8EF17F0FAEF17F023EF18F0070E7465F3
:102FF80000EF18F002EF18F004EF18F023EF18F0C4
:1030080076C0F5F074C0F4F03F0E76650EEF18F058
:1030180010EF18F014EF18F0400E765F010E756F80
:103028008A9476514009726F7551B6EC19F0000117
:103038007451B809726F7551B6EC19F08A84120090
:10304800E0C083FF8086080E00016A6FC90EE82E73
:10305800FED76A2FFCD700D08096E6C083FF808019
:10306800080E00016A6FC90EE82EFED76A2FFCD73A
:1030780000D08090E4C083FF8082080E00016A6F50
:10308800C90EE82EFED76A2FFCD700D08092E2C086
:1030980083FF8084080E00016A6FC90EE82EFED7F0
:1030A8006A2FFCD700D0809412000C6E000E0D6EB3
:1030B800800E0C6062EF18F064EF18F08CEF18F0D7
:1030C800070E0B646AEF18F06CEF18F06EEF18F04B
:1030D8008CEF18F00CC0F5F00BC0F4F03F0E0C6448
:1030E80078EF18F07AEF18F07EEF18F0400E0C5ECB
:1030F800010E0D6E8A940C504009096E0D50D1ECEA
:1031080019F00B50B809096E0D50D1EC19F08A84EA
:103118001200C40EF66E320EF76E000EF86E01EE57
:1031280000F010EE39F00900F5CFEEFFE550E15060
:10313800FAE1FD0EF66E320EF76E000EF86E00EE36
:10314800A6F010EE38F00900F5CFEEFFE550E1509B
:10315800FAE100EEDEF0180EEE6AE806FDE15D6ABF
:103168005C6A5B6A5A6A5E905E92000EF86E0001B5
:1031780014EF17F0E0EF18F000017F51D8B4C7EF53
:1031880018F0C9EF18F0D4EF18F080C074F07DC0C3
:10319800D9FF7EC0DAFFDF50ADEC10F0DDEF18F09C
:1031A80080C074F07DC0D9FF7EC0DAFFDF503AECF2
:1031B80011F000017D4B7E2B7DC0D9FF7EC0DAFF68
:1031C800DF50D8A4EAEF18F0ECEF18F0C0EF18F0D1
:1031D80012000DEF19F01650D8B4F5EF18F0F7EF0C
:1031E80018F002EF19F017C00BF014C0D9FF15C082
:1031F800DAFFDF50C7EC11F00BEF19F017C00BF036
:1032080014C0D9FF15C0DAFFDF5053EC12F0144A8E
:10321800152A14C0D9FF15C0DAFFDF50D8A417EF5C
:1032280019F019EF19F0EFEF18F01200720ED36EC3
:10323800FD0E946E0C0EBA6E000ECC6E070ECA6EA2
:103248000001785148086A6FE80E79556B6F010ED6
:103258007A556C6F000E7B556D6F78C06EF079C033
:103268006FF07AC070F07BC071F0DFEC12F00001F3
:103278006A51CB6E1200000E151A000E161A000EB7
:10328800171A800E181A11C001F012C002F013C0EC
:1032980003F014C004F015C005F016C006F017C0FE
:1032A80007F018C008F009EC00F001C011F002C0E6
:1032B80012F003C013F004C014F01200322E52654D
:1032C8006374616E67756C616972650043686F69E4
:1032D80073697220756E206D6F646500312E4F73AF
:1032E80063696C6C6F73636F7065004561737953C4
:1032F800434F5045005175656E74696E0050726F8A
:103308006A6574004A756C6573004D4355203A0030
:103318004572696300302E00627900300030003059
:0D3328000045003200310032003100260067
:1033360000016A6F00016A51D8B4A4EF19F0A6EF34
:1033460019F0AAEF19F08A808A92ACEF19F08A92E6
:103356008A8295688A868A8883CF6BF08A988A9053
:103366008A926B5112000001736F00017351D8B439
:10337600BFEF19F0C1EF19F0C5EF19F08A808A92F4
:10338600C7EF19F08A928A82000E956E8A9672C0ED
:103396008CFF8A888A988A908A9212000A6E0A504E
:1033A600D8B4D8EF19F0DAEF19F0DEEF19F08A8009
:1033B6008A92E0EF19F08A928A82000E956E8A96BA
:1033C60009C08CFF8A888A988A908A921200016EB8
:1033D6000150D8B4F1EF19F0F3EF19F0F7EF19F047
:1033E6008A808A92F9EF19F08A928A8295688A868B
:1033F6008A8883CF02F08A988A908A9202501200B5
:10340600000E956E000E836E0A0EC16E110EC26E10
:10341600F00E926E000E806EC00E936E000E816EE0
:0A342600F28E9D8CF28CF2861200EB
:10733A000000000000000000000000000000000043
:10734A000000000000000000000000000000000033
:10735A000000000000000000000000000000000023
:10736A000000000000000000000000000000000013
:10737A000000000000000000000000000000000003
:10738A0000000000000000000000000000000000F3
:10739A0000000000000000000000000000000000E3
:1073AA0000000000000000000000000000000000D3
:1073BA0000000000000000000000000000000000C3
:1073CA0000000000000000000000000000000000B3
:1073DA0000000000000000000000000000000000A3
:1073EA000000000000000000000000000000000093
:1073FA000000000000000000000000000000000083
:10740A000000000000000000000000000000000072
:10741A000000000000000000000000000000000062
:10742A000000000000000000000000000000000052
:10743A0000000000000000000000065F5F06000078
:10744A00000007070007070000147F7F147F7F14DE
:10745A0000242E6B6B3A120000466630180C6662E6
:10746A0000307A4F5D377A480004070300000000B5
:10747A0000001C3E63410000000041633E1C000006
:10748A0000082A3E1C1C3E2A0808083E3E0808003E
:10749A00000080E0600000000008080808080800F2
:1074AA000000006060000000006030180C06030154
:1074BA00003E7F71594D7F3E0040427F7F40400031
:1074CA0000627359496F660000226349497F36009A
:1074DA0000181C16537F7F5000276745457D3900E9
:1074EA00003C7E4B4979300000030371790F070095
:1074FA0000367F49497F360000064F49693F1E0022
:10750A000000006666000000000080E666000000D9
:10751A0000081C366341000000242424242424008B
:10752A0000004163361C080000020351590F06008F
:10753A00003E7F415D5D1F1E007C7E13137E7C0032
:10754A0000417F7F49497F36001C3E6341416322E7
:10755A0000417F7F41633E1C00417F7F495D41635B
:10756A0000417F7F491D0103001C3E634151737234
:10757A00007F7F08087F7F000000417F7F41000075
:10758A0000307040417F3F0100417F7F081C7763D4
:10759A0000417F7F41406070007F7F0E1C0E7F7F1D
:1075AA00007F7F060C187F7F001C3E6341633E1CF0
:1075BA0000417F7F49090F06001E3F21717F5E004F
:1075CA0000417F7F09197F6600266F4D597332008B
:1075DA000003417F7F410300007F7F40407F7F009F
:1075EA00001F3F60603F1F00007F7F3018307F7FA1
:1075FA000043673C183C674300074F78784F070001
:10760A0000476371594D677300007F7F4141000055
:10761A00000103060C183060000041417F7F000022
:10762A0000080C0603060C08008080808080808099
:10763A00800000030704000000207454543C784082
:10764A0000417F3F4848783000387C44446C280029
:10765A0000307848493F7F4000387C54545C180019
:10766A0000487E7F490302000098BCA4A4F87C0469
:10767A0000417F7F08047C780000447D7D40000043
:10768A000060E08080FD7D0000417F7F10386C44FF
:10769A000000417F7F400000007C7C18381C7C7809
:1076AA00007C7C04047C780000387C44447C3800EC
:1076BA000084FCF8A4243C1800183C24A4F8FC8498
:1076CA0000447C784C041C1800485C545474240010
:1076DA000000043E7F442400003C7C40403C7C4047
:1076EA00001C3C60603C1C00003C7C7038707C3C98
:1076FA0000446C3810386C44009CBCA0A0FC7C0090
:10770A00004C64745C4C64000008083E77414100F8
:10771A000000000077770000004141773E0808002A
:10772A0000020301030203010070784C464C787092
:10773A00000E9F91B1FB4A00003A7A40407A7A40A3
:10774A0000387C54555D19000002237555557D7B20
:10775A0042217554547D794000217555547C7840F6
:10776A0000207457577C784000183CA4A4E44000D9
:10777A0000023B7D55555D1B02397D54545D19004D
:10778A0000397D55545C18000001457C7C4101009C
:10779A00000203457D7D43020001457D7C400000D7
:1077AA0000797D1612167D790070782B2B7870007F
:1077BA0000447C7C5555450000207454547C7C540C
:1077CA00547C7E0B097F7F4900327B49497B32001A
:1077DA0000327A48487A320000327A4A48783000D1
:1077EA00003A7B41417B7A40003A7A4240787840BD
:1077FA00009ABAA0A0FA7A000001193C66663C1900
:10780A00013D7D40407D3D0000183C24E7E72424EB
:10781A0000687E7F49436620002B2FFCFC2F2B003B
:10782A0000FFFF09092FF6F8A040C088FE7F090370
:10783A0002207454557D79400000447D7D4100004A
:10784A00003078484A7A320000387840427A7A40E2
:10785A00007A7A0A0A7A7000007D7D19317D7D00EE
:10786A000000262F292F2F280000262F292F260037
:10787A000030784D456020000038380808080800B4
:10788A000008080808383800004F6F3018CCEEBBE3
:10789A00914F6F30186C76FBF90000007B7B00007B
:1078AA0000081C3622081C362222361C0822361CE6
:1078BA0008AA005500AA005500AA55AA55AA55AA11
:1078CA0055DDFFAA77DDAAFF77000000FFFF000061
:1078DA0000101010FFFF000000141414FFFF000036
:1078EA00001010FFFF00FFFF001010F0F010F0F082
:1078FA0000141414FCFC0000001414F7F700FFFF36
:10790A00000000FFFF00FFFF001414F4F404FCFC65
:10791A000014141717101F1F0010101F1F101F1F0D
:10792A00001414141F1F000000101010F0F00000C3
:10793A00000000001F1F1010101010101F1F101041
:10794A0010101010F0F0101010000000FFFF1010BF
:10795A00101010101010101010101010FFFF10103F
:10796A0010000000FFFF1414140000FFFF00FFFFC7
:10797A001000001F1F101717140000FCFC04F4F479
:10798A001414141717101717141414F4F404F4F435
:10799A00140000FFFF00F7F714141414141414143D
:1079AA00141414F7F700F7F714141414171714140F
:1079BA001410101F1F101F1F10141414F4F41414A1
:1079CA00141010F0F010F0F01000001F1F101F1F0D
:1079DA00100000001F1F141414000000FCFC1414F3
:1079EA00140000F0F010F0F0101010FFFF10FFFF6D
:1079FA0010141414FFFF1414141010101F1F000089
:107A0A0000000000F0F0101010FFFFFFFFFFFFFF63
:107A1A00FFF0F0F0F0F0F0F0F0FFFFFFFF000000E1
:107A2A000000000000FFFFFFFF0F0F0F0F0F0F0FE7
:107A3A000F387C446C386C4400FCFE2A2A3E140041
:107A4A00007E7E020206060000027E7E027E7E0222
:107A5A000063775D4963630000387C447C3C04041E
:107A6A000080FE7E20203E1E000406027E7C060266
:107A7A000099BDE7E7BD9900001C3E6B496B3E1CAF
:107A8A00004C7E7301737E4C0030784A4F7D39007A
:107A9A0000183C243C3C243C1898FC643C3E273D9E
:107AAA0018000000000000000000000000000000B4
:107ABA0000000000000000000000000000000000BC
:107ACA0000000000000000000000000000000000AC
:107ADA00000000000000000000000000000000009C
:107AEA00000000000000000000000000000000008C
:107AFA00000000000000000000000000000000007C
:107B0A00000000000000000000000000000000006B
:107B1A00000000000000000000000000000000005B
:107B2A00000000000000000000000000000000004B
:107B3A00000000000000000000808080800000003B
:107B4A0000000000000000000000000000800000AB
:107B5A00800000800000000000000000000000001B
:107B6A00000000000000000000000000000000000B
:107B7A0000000000000000000000000000000000FB
:107B8A0000000000000000000000000000000000EB
:107B9A0000000000000000000000000000000000DB
:107BAA0000000000000000000000000000000000CB
:107BBA00000000000000003E4180808080413E00BD
:107BCA0000D894A46C00007884844C0088FC8081DE
:107BDA00FF8081FF800078848484780000D894A490
:107BEA006C00007884844C000078848484780008CF
:107BFA00FC488484780000789494580000000000BF
:107C0A00D894A46C00041C6480740C0400D894A456
:107C1A006C0004FF844000789494580088FC88041F
:107C2A00FC8804F88000000000000000000000004A
:107C3A00000000000000000000000000000000003A
:107C4A00000000000000000000000000000000002A
:107C5A00000000000000000000000000000000001A
:107C6A000000000000000000000000000000000406
:107C7A0007040000000000000000000000000000EF
:107C8A0000000000000404060100000000000000DB
:107C9A0000000000000000000000000000000000DA
:107CAA0000000000000000000000000000000000CA
:107CBA0000000000000000000000000000000000BA
:107CCA0000000000000000000000000000000000AA
:107CDA00000000000000000000000000000000009A
:107CEA000080F0F8181C0E0E1C1878F0C0800000F6
:107CFA0000000000000000000000000000000080FA
:107D0A00F0F8181C0C0E0E1C18F8F0800000000089
:107D1A000000000000000000000000000000000059
:107D2A000000000000000000000000000000000049
:107D3A000000000000000000000000000000000039
:107D4A000000000000000000000000000000000029
:107D5A000000000000000000000000000000000019
:107D6A00F8FF0F0000000000000000000FFFF800FD
:107D7A000000000000000000000000000000F8FF02
:107D8A000F0000000000000000000FFFF8000000D4
:107D9A0000000000000000000000000000000000D9
:107DAA0000000000000000000000000000000000C9
:107DBA0000000000000000000000000000000000B9
:107DCA000000000000000000000800080008001C75
:107DDA00FCF8800800080008000800080008E0FF16
:107DEA003F090008000800080008000800093FFFD2
:107DFA00E00800080008000800080008E0FF3F0942
:107E0A000008000800080008000800090F0F000811
:107E1A000008000800000000000000000000000048
:107E2A000000000000000000000000000000000048
:107E3A000000000000000000000000000000000038
:107E4A000000000000000000000000000000000028
:107E5A0000073FFCE000000000000080C0FC7F0734
:107E6A000000000000000000000000000000000701
:107E7A003FFCE000000000000000C0FC7F0700009B
:107E8A0000000000000000000000000000000000E8
:107E9A0000000000000000000000000000000000D8
:107EAA0000000000000000000000000000000000C8
:107EBA0000000000000000000000000000000000B8
:107ECA0000000000000000000000000000000000A8
:107EDA0000000001070F1C18181C0F070100000002
:107EEA000000000000000000000000000000000088
:107EFA000001070F1C18181C0C0F070100000000D6
:107F0A000000000000000000000000000000000067
:107F1A000000000000000000000000000000000057
:107F2A000000000000000000000000000000000047
:107F3A0000000000005C000C000C7C287C7C447C67
:107F4A00241048285408000C003844004438002003
:107F5A001008103810804000101010004000201047
:107F6A0008384438007C006454484454281C107C67
:107F7A004C542438542004740C28542808543800CB
:107F8A0050008050001028442828284428100454FF
:107F9A0008384C5C7814787C54283844447C44383B
:107FAA007C54447C14043844347C107C007C0020CB
:107FBA00403C7C106C7C40407C087C7C047C7C448B
:107FCA007C7C14083844787C1468485424047C0463
:107FDA007C407C3C403C7C207C6C106C1C601C64AB
:107FEA00544C7C4400081020447C0008040880801B
:057FFA008004080000F6
:020000040020DA
:08000000FFFFFFFFFFFFFFFF00
:020000040030CA
:0E000000000C191EFF8181FF0FC00FE00F40A2
:00000001FF
