:020000040000FA
:0400000035EF00F0E8
:060008005E8291ED16F08E
:100018005E80D8CF2FF0E8CF30F0E0CF31F0F3CFCB
:1000280032F0F4CF33F09EAC1CEF00F01EEF00F07E
:1000380029EF00F09E9CC4CFADF10101AE6BADC1BC
:1000480029F0AEC12AF026EC18F033C0F4FF32C014
:10005800F3FF31C0E0FF30C0E8FF2FC0D8FF5E904B
:10006800100048EF25F021EE5DF010EEB9F0050E16
:10007800DBCFE3FFE806FCE274C1BFF075C1C0F056
:1000880076C1C1F077C1C2F021EE48F010EEABF0B6
:10009800060EDBCFE3FFE806FCE221EE41F010EEAE
:1000A800B2F0060EDBCFE3FFE806FCE278C1C3F04E
:1000B80079C1C4F07AC1C5F07EC1C6F07FC1C7F06E
:1000C800060E00016A6F070EA6EC24F00101A35189
:1000D800A411D8A472EF00F074EF00F081EF00F0E3
:1000E800AB0E0001736F000E746F010E756F010E79
:1000F800766F7BEC25F08CEF00F0B20E0001736F89
:10010800000E746F010E756F010E766F7BEC25F093
:10011800000E0001726F380E716F000E746F2F0E93
:10012800736F000E766F380E756F000E786F370E8E
:10013800776F000E7A6F010E796FECEC22F0000EEB
:100148000001726F390E716F000E746F2F0E736F8E
:10015800000E766F390E756F000E786F370E776F59
:10016800000E7A6F010E796FECEC22F0060E00019A
:100178006A6F3E0EA6EC24F0BF0E0001736F000EEE
:10018800746F010E756F010E766F7BEC25F0060E0D
:1001980000016A6F720EA6EC24F0C60E0001736FA0
:1001A800000E746F010E756F010E766F7BEC25F0F3
:1001B800070E00016A6F0B0EA6EC24F0B90E0001C1
:1001C800736F000E746F010E756F010E766F7BEC06
:1001D80025F0070E00016A6F660EA6EC24F0C30E28
:1001E8000001736F000E746F010E756F010E766F4C
:1001F8007BEC25F0000E0001726F000E716F000E8F
:10020800746F2E0E736F000E766F800E756F000E72
:10021800786F2E0E776F000E7A6F010E796FECEC07
:1002280022F0C1C16AF0C2C16BF0C3C16CF0C4C195
:100238006DF0010EB3EC1BF06AC091F06BC092F048
:100248006CC093F06DC094F0170E0001956FB70E57
:10025800966FD10E976F380E986F98EC10F091C08A
:10026800FAF092C0FBF093C0FCF094C0FDF0FAC025
:1002780060F0FBC061F0FCC062F0FDC063F049ECC7
:1002880020F060C0C8F061C0C9F0FAC078F0FBC0C7
:1002980079F0FCC07AF0FDC07BF0FAC060F0FBC0DA
:1002A80061F0FCC062F0FDC063F049EC20F0000191
:1002B80060C06AF061C06BF0000E6BBFFF0E6C6F20
:1002C8006D6F010EB3EC1BF06AC07CF06BC07DF063
:1002D8006CC07EF06DC07FF0CFEC25F078C0FAF0EE
:1002E80079C0FBF07AC0FCF07BC0FDF0FAC091F059
:1002F800FBC092F0FCC093F0FDC094F0000E00012A
:10030800956F000E966F200E976F410E986F98ECC0
:1003180010F091C0FAF092C0FBF093C0FCF094C0CA
:10032800FDF0FAC060F0FBC061F0FCC062F0FDC0F7
:1003380063F049EC20F060C0CAF061C0CBF0FAC0AD
:1003480078F0FBC079F0FCC07AF0FDC07BF0FAC011
:1003580060F0FBC061F0FCC062F0FDC063F049ECE6
:1003680020F0000160C06AF061C06BF0000E6BBF46
:10037800FF0E6C6F6D6F010EB3EC1BF06AC07CF062
:100388006BC07DF06CC07EF06DC07FF0CFEC25F0C7
:1003980078C0FAF079C0FBF07AC0FCF07BC0FDF0C1
:1003A800FAC091F0FBC092F0FCC093F0FDC094F04D
:1003B800000E0001956F000E966F200E976F410E8C
:1003C800986F98EC10F091C0FAF092C0FBF093C0CF
:1003D800FCF094C0FDF0FAC060F0FBC061F0FCC016
:1003E80062F0FDC063F049EC20F060C0CCF061C061
:1003F800CDF0FAC078F0FBC079F0FCC07AF0FDC00F
:100408007BF0FAC060F0FBC061F0FCC062F0FDC098
:1004180063F049EC20F0000160C06AF061C06BF045
:10042800000E6BBFFF0E6C6F6D6F010EB3EC1BF00F
:100438006AC07CF06BC07DF06CC07EF06DC07FF050
:10044800CFEC25F078C0FAF079C0FBF07AC0FCF068
:100458007BC0FDF0FAC091F0FBC092F0FCC093F0B5
:10046800FDC094F0000E0001956F000E966F200EEF
:10047800976F410E986F98EC10F091C0FAF092C007
:10048800FBF093C0FCF094C0FDF0FAC060F0FBC034
:1004980061F0FCC062F0FDC063F049EC20F060C080
:1004A800CEF061C0CFF0FAC078F0FBC079F0FCC0A4
:1004B8007AF0FDC07BF0FAC060F0FBC061F0FCC0D0
:1004C80062F0FDC063F049EC20F0000160C06AF002
:1004D80061C06BF0000E6BBFFF0E6C6F6D6F010E8D
:1004E800B3EC1BF06AC07CF06BC07DF06CC07EF092
:1004F8006DC07FF0CFEC25F078C0FAF079C0FBF042
:100508007AC0FCF07BC0FDF0FAC091F0FBC092F01D
:10051800FCC093F0FDC094F0000E0001956F000E32
:10052800966F200E976F410E986F98EC10F091C05F
:10053800FAF092C0FBF093C0FCF094C0FDF0FAC052
:1005480060F0FBC061F0FCC062F0FDC063F049ECF4
:1005580020F060C0D0F061C0D1F0C5C16AF0C6C15A
:100568006BF00001000E6BBFFF0E6C6F6D6F010E1C
:10057800B3EC1BF06AC091F06BC092F06CC093F0C2
:100588006DC094F00A0E0001956FD70E966F230E7A
:10059800976F3C0E986F98EC10F091C0F6F092C0EF
:1005A800F7F093C0F8F094C0F9F0F6C060F0F7C027
:1005B80061F0F8C062F0F9C063F049EC20F060C067
:1005C800D2F061C0D3F0F6C078F0F7C079F0F8C087
:1005D8007AF0F9C07BF0F6C060F0F7C061F0F8C0BF
:1005E80062F0F9C063F049EC20F0000160C06AF0E5
:1005F80061C06BF0000E6BBFFF0E6C6F6D6F010E6C
:10060800B3EC1BF06AC07CF06BC07DF06CC07EF070
:100618006DC07FF0CFEC25F078C0F6F079C0F7F028
:100628007AC0F8F07BC0F9F0F6C091F0F7C092F00C
:10063800F8C093F0F9C094F0000E0001956F000E19
:10064800966F200E976F410E986F98EC10F091C03E
:10065800F6F092C0F7F093C0F8F094C0F9F0F6C045
:1006680060F0F7C061F0F8C062F0F9C063F049ECDF
:1006780020F060C0D4F061C0D5F0F6C078F0F7C0C3
:1006880079F0F8C07AF0F9C07BF0F6C060F0F7C0F6
:1006980061F0F8C062F0F9C063F049EC20F00001A5
:1006A80060C06AF061C06BF0000E6BBFFF0E6C6F2C
:1006B8006D6F010EB3EC1BF06AC07CF06BC07DF06F
:1006C8006CC07EF06DC07FF0CFEC25F078C0F6F0FE
:1006D80079C0F7F07AC0F8F07BC0F9F0F6C091F075
:1006E800F7C092F0F8C093F0F9C094F0000E000142
:1006F800956F000E966F200E976F410E986F98ECCD
:1007080010F091C0F6F092C0F7F093C0F8F094C0E2
:10071800F9F0F6C060F0F7C061F0F8C062F0F9C017
:1007280063F049EC20F060C0D6F061C0D7F000015A
:10073800C851300FDC6FCA51300FDD6FCC51300F0C
:10074800DE6FCE51300FDF6FD051300FE06FD251D6
:10075800300FE16FD451300FE26FD651300FE36F95
:10076800000EE56F000EE46FDCC0E4F0000EE56FEC
:10077800000EE76F000EE66FDDC0E6F0000EE76FD3
:10078800000EE96F000EE86FDEC0E8F0000EE96FBA
:10079800000EEB6F000EEA6FDFC0EAF0000EEB6FA1
:1007A800000EED6F000EEC6FE0C0ECF0000EED6F88
:1007B800000EEF6F000EEE6FE1C0EEF0000EEF6F6F
:1007C800000EF16F000EF06FE2C0F0F0000EF16F56
:1007D800000EF36F000EF26FE3C0F2F0000EF36F3D
:1007E800060E6A6F560EA6EC24F0EE0E0001736F2B
:1007F800000E746F010E756F010E766F7BEC25F09D
:10080800060E00016A6F5F0EA6EC24F0F00E0001E0
:10081800736F000E746F010E756F010E766F7BECAF
:1008280025F0060E00016A6F680EA6EC24F0F20EA1
:100838000001736F000E746F010E756F010E766FF5
:100848007BEC25F0070E00016A6F330EA6EC24F04E
:10085800E40E0001736F000E746F010E756F010EC8
:10086800766F7BEC25F0070E00016A6F3C0EA6EC54
:1008780024F0E60E0001736F000E746F010E756FA1
:10088800010E766F7BEC25F0070E00016A6F4A0EA9
:10089800A6EC24F0E80E0001736F000E746F010ED1
:1008A800756F010E766F7BEC25F0070E00016A6FFD
:1008B800530EA6EC24F0EA0E0001736F000E746F5D
:1008C800010E756F010E766F7BEC25F0070E0001A7
:1008D8006A6F5C0EA6EC24F0EC0E0001736F000E3C
:1008E800746F010E756F010E766F7BEC25F0C1C138
:1008F8007AF0C2C17BF0C3C17CF0C4C17DF0EA0EBE
:1009080000017E6F010E7F6F000E806F000E816FF9
:10091800240E826FF40E836F000E846F000E856FB5
:10092800010E866F000E876F000E886F000E896FAC
:10093800320E8A6F000E8B6F000E8C6F000E8D6F5B
:1009480066EC24F07AC0F4F07BC0F5F0F4C06AF0ED
:10095800F5C06BF00001000E6BBFFF0E6C6F6D6F82
:10096800010EB3EC1BF06AC07CF06BC07DF06CC06C
:100978007EF06DC07FF0000E0001786F000E796F79
:10098800C80E7A6F420E7B6FC3EC14F078C060F02B
:1009980079C061F07AC062F07BC063F049EC20F066
:1009A80060C0D8F061C0D9F0F4C06AF0F5C06BF04F
:1009B8000001000E6BBFFF0E6C6F6D6F010EB3EC84
:1009C8001BF06AC07CF06BC07DF06CC07EF06DC01F
:1009D8007FF0C5C16AF0C6C16BF00001000E6BBFA5
:1009E800FF0E6C6F6D6F010EB3EC1BF06AC078F0F0
:1009F8006BC079F06CC07AF06DC07BF0C3EC14F07A
:100A080078C060F079C061F07AC062F07BC063F0B2
:100A180049EC20F060C0DAF061C0DBF0A9C171F0E8
:100A2800AAC172F0000E0001746F000E736FA9C1A5
:100A380075F0AAC176F0000E786F2D0E776F000E54
:100A48007A6F000E796FECEC22F00001DA51445C09
:100A58004550800AAA6FDB51800AAA59D8B037EFEF
:100A680005F039EF05F06EEF05F00A0E6A6F010E1A
:100A78006B6F0101A95150EC21F07E0E0101A719FD
:100A8800A811D8B44AEF05F04CEF05F063EF05F074
:100A9800A7C180F0A8C181F0A5C182F0A6C183F0EA
:100AA800A9C184F0AAC185F0000E0001876F0A0E63
:100AB800866F000E896F010E886FFCEC08F0A9C1E3
:100AC800A7F1AAC1A8F1000E0101A66F0A0EA56F31
:100AD800A1EF05F0230E6A6F010E6B6F0101A9519A
:100AE80050EC21F07E0E0101A719A811D8B47FEFB0
:100AF80005F081EF05F098EF05F0A7C180F0A8C1D7
:100B080081F0A5C182F0A6C183F0A9C184F0AAC171
:100B180085F0000E0001876F230E866F000E896F27
:100B2800010E886FFCEC08F0A9C1A7F1AAC1A8F1D1
:100B3800000E0101A66F230EA56F0001D851445C79
:100B48004550800AAA6FD951800AAA59D8B0AFEF88
:100B580005F0B1EF05F0B5EF05F0444A452AB9EFC5
:100B680005F0000E456E000E446E0101AABFC6EFE7
:100B780005F0AA5109E17E0EA95DD8A0C6EF05F0DF
:100B8800C8EF05F0CEEF05F0000EAA6F000EA96FB2
:100B9800D0EF05F0A94BAA2B1200000E0101C06F7F
:100BA800000EBF6F000EB86F010EB76F56C0ACF0E5
:100BB80057C0ADF054C0AEF055C0AFF082C1B0F030
:100BC80083C1B1F080C1B2F081C1B3F0000E000161
:100BD800C26F000EC16FC1C06AF00F0EA6EC24F000
:100BE800B20E0001736F000E746F010E756F010E67
:100BF800766F7BEC25F00001C14BC22BC2BF0EEF14
:100C080006F0C25109E1080EC15DD8A00EEF06F04A
:100C180010EF06F0EFEF05F0000E726F000E716F27
:100C2800000E746F110E736F000E766F110E756FD4
:100C3800000E786F110E776F000E7A6F010E796FC4
:100C4800ECEC22F00101B951BA11D8A42EEF06F04C
:100C580030EF06F043EF06F0010E00016A6F020E56
:100C6800A6EC24F0AC0E0001736F000E746F010E39
:100C7800756F010E766F7BEC25F070EF06F0B90505
:100C8800BA11D8A44AEF06F04CEF06F05FEF06F071
:100C9800010E00016A6F020EA6EC24F0AE0E0001F0
:100CA800736F000E746F010E756F010E766F7BEC1B
:100CB80025F070EF06F0010E00016A6F020EA6EC37
:100CC80024F0B00E0001736F000E746F010E756F83
:100CD800010E766F7BEC25F04650300F0001B46FA3
:100CE8004850300FB56F4A50300FB66F4C50300F28
:100CF800B76F000EB86F000EB96F000EBA6FB4C0B0
:100D0800B8F02E0EB96F000EBA6F000EBC6F000E51
:100D1800BB6FB5C0BBF0000EBC6F000EBE6F000EFF
:100D2800BD6FB6C0BDF0000EBE6F000EC06F000EE6
:100D3800BF6FB7C0BFF0000EC06F030E6A6F020E20
:100D4800A6EC24F0B80E0001736F000E746F010E4C
:100D5800756F010E766F7BEC25F0040E00016A6F4B
:100D6800020EA6EC24F0BB0E0001736F000E746F28
:100D7800010E756F010E766F7BEC25F0050E0001F4
:100D88006A6F020EA6EC24F0BD0E0001736F000E10
:100D9800746F010E756F010E766F7BEC25F0060EF1
:100DA80000016A6F020EA6EC24F0BF0E0001736FFB
:100DB800000E746F010E756F010E766F7BEC25F0D7
:100DC8000101B951BA11D8A4ECEF06F0EEEF06F024
:100DD800AEEF07F04FBEFCEF06F04F5007E1630E91
:100DE8004E5CD8B0FAEF06F0FCEF06F047EF07F0DC
:100DF8001D0E4E240001716F000E4F20726F000E01
:100E0800746F000E736F1D0E4E24756F000E4F2009
:100E1800766F000E786F400E776F000E7A6F000EB7
:100E2800796FECEC22F0A2C06AF0010E00016B6F42
:100E38004E501C0F50EC21F01C0E42240001806F14
:100E4800000E4320816F40C082F041C083F01C0E29
:100E58004E24846F000E4F20856FA2C086F0A3C079
:100E680087F0000E896F010E886FFCEC08F04EC009
:100E780042F04FC043F0A2C040F0A3C041F04E4A38
:100E88004F2AFBEF08F04FBE53EF07F04F5009E130
:100E9800630E4E5CD8A053EF07F055EF07F0FBEF59
:100EA80008F0000E4F6E000E4E6E000E0001726FBD
:100EB8001B0E716F000E746F000E736F000E766F4D
:100EC8001B0E756F000E786F400E776F000E7A6FED
:100ED800000E796FECEC22F0000E0001726F1C0E10
:100EE800716F000E746F000E736F000E766F1C0E1C
:100EF800756F000E786F400E776F000E7A6F000ED8
:100F0800796FECEC22F0000E0001726F1D0E716F0C
:100F1800000E746F000E736F000E766F1D0E756FE6
:100F2800000E786F400E776F000E7A6F000E796FA3
:100F3800ECEC22F0A2C06AF0010E00016B6F1C0EEF
:100F480050EC21F0000E436E000E426E3FEF07F0AA
:100F5800FBEF08F0B905BA11D8A4B5EF07F0B7EF61
:100F680007F0FBEF08F0B151B211D8A4BEEF07F0BB
:100F7800C0EF07F01DEF08F021EE4FF010EEA5F0DE
:100F8800060EDBCFE3FFE806FCE20001A3BFD6EFC5
:100F980007F0A35109E11F0EA25DD8A0D6EF07F014
:100FA800D8EF07F0EAEF07F0010E6A6F320EA6ECF1
:100FB80024F0A50E0001736F000E746F010E756F9B
:100FC800010E766F7BEC25F0FFEF07F0A3BFF8EF7B
:100FD80007F0A35107E11F0EA25DD8B0F6EF07F0A6
:100FE800F8EF07F0FFEF07F0070E6A6F320EA6EC76
:100FF80024F0DDEF07F0000E0001726F1C0E716F18
:10100800A2C073F0A3C074F0000E766F7F0E756FE8
:10101800A2C077F0A3C078F0000E7A6F010E796F46
:10102800ECEC22F0000E0101B06F010EAF6FFBEF88
:1010380008F0B105B211D8A424EF08F026EF08F0A3
:10104800FBEF08F0000E0001726F1C0E716F50C0AC
:1010580073F051C074F0000E766F7F0E756F50C03C
:1010680077F051C078F0000E7A6F010E796FECECD2
:1010780022F00001A251505C5150800AA46FA35184
:10108800800AA459D8A04BEF08F04DEF08F0FBEF09
:1010980008F04FBE5BEF08F04F5007E1630E4E5C5F
:1010A800D8B059EF08F05BEF08F09BEF08F01D0E81
:1010B8004E24716F000E4F20726F000E746F000E79
:1010C800736F1D0E4E24756F000E4F20766F000E45
:1010D800786F400E776F000E7A6F000E796FECEC28
:1010E80022F0A2C06AF0010E00016B6F4E501C0F77
:1010F80050EC21F01C0E42240001806F000E4320AA
:10110800816F40C082F041C083F01C0E4E24846F72
:10111800000E4F20856FA2C086F0A3C087F0000E96
:10112800896F010E886FFCEC08F03BEF07F04FBEAB
:10113800A7EF08F04F5009E1630E4E5CD8A0A7EF67
:1011480008F0A9EF08F0ACEF07F0000E4F6E000EA4
:101158004E6E000E726F1B0E716F000E746F000ED4
:10116800736F000E766F1B0E756F000E786F400E52
:10117800776F000E7A6F000E796FECEC22F0000E9C
:101188000001726F1C0E716F000E746F000E736F8A
:10119800000E766F1C0E756F000E786F400E776F1D
:1011A800000E7A6F000E796FECEC22F0000E000151
:1011B800726F1D0E716F000E746F000E736F000E4C
:1011C800766F1D0E756F000E786F400E776F000EEC
:1011D8007A6F000E796FECEC22F0A2C06AF0010E73
:1011E80000016B6F1C0E50EC21F0A6EF07F0120007
:1011F80000018051845D966F81518559976F8251A6
:10120800865D986F83518759996F96C06AF097C029
:101218006BF0000E6BBFFF0E6C6F6D6F010EB3ECC1
:101228001BF06AC078F06BC079F06CC07AF06DC0C2
:101238007BF06DEC26F078C060F079C061F07AC080
:1012480062F07BC063F049EC20F060C09AF061C0A6
:101258009BF098C06AF099C06BF00001000E6BBF5C
:10126800FF0E6C6F6D6F010EB3EC1BF06AC078F067
:101278006BC079F06CC07AF06DC07BF06DEC26F035
:1012880078C060F079C061F07AC062F07BC063F02A
:1012980049EC20F060C09CF061C09DF09CC08AF0D1
:1012A8009DC08BF0D89000018A378B379A518A5DA0
:1012B800926F9B518B59936F9AC08AF09BC08BF0A9
:1012C800D8908A378B379C518A5D946F9D518B5982
:1012D800956F9C519A5D9B51800A8A6F9D51800A37
:1012E8008A59D8A07AEF09F07CEF09F0A7EF0AF045
:1012F80097BF81EF09F083EF09F091EF09F080C003
:101308009EF081C09FF082C0A0F083C0A1F084C08D
:101318008EF085C08FF09DEF09F084C09EF085C0E7
:101328009FF086C0A0F087C0A1F080C08EF081C079
:101338008FF0A0C06AF088C06BF09E5150EC21F08D
:10134800A0C06AF088C06BF000019E0550EC21F047
:10135800A0C06AF088C06BF000019E2950EC21F013
:101368000001A0056A6F88C06BF09E5150EC21F017
:101378000001A0296A6F88C06BF09E5150EC21F0E3
:101388000001A0056A6F88C06BF09E0550EC21F043
:101398000001A0296A6F88C06BF09E0550EC21F00F
:1013A8000001A0056A6F88C06BF09E2950EC21F0FF
:1013B8000001A0296A6F88C06BF09E2950EC21F0CB
:1013C800000E00018D6F000E8C6F96EF0AF0010E73
:1013D8009E259E6F000E9F219F6F93BFF8EF09F027
:1013E800F6EF09F007EF0AF09CC08AF09DC08BF079
:1013F800D8908A378B3792518A25926F93518B21D7
:10140800936F4CEF0AF097BF0EEF0AF00CEF0AF05B
:1014180015EF0AF099BF13EF0AF015EF0AF02FEF56
:101428000AF097BF20EF0AF0975108E19605D8A077
:1014380020EF0AF022EF0AF037EF0AF099BF2DEFFC
:101448000AF0995108E19805D8A02DEF0AF02FEF7E
:101458000AF037EF0AF0010EA025A06F000EA121B7
:10146800A16F3DEF0AF0FF0EA025A06FFF0EA1218E
:10147800A16F9A519C5D8A6F9B519D598B6FD89033
:101488008A378B3792518A25926F93518B21936FAC
:10149800A0C06AF088C06BF09E5150EC21F0A0C04B
:1014A8006AF088C06BF000019E0550EC21F0A0C0E6
:1014B8006AF088C06BF000019E2950EC21F0000111
:1014C800A0056A6F88C06BF09E5150EC21F00001B6
:1014D800A0296A6F88C06BF09E5150EC21F0000182
:1014E800A0056A6F88C06BF09E0550EC21F00001E2
:1014F800A0296A6F88C06BF09E0550EC21F00001AE
:10150800A0056A6F88C06BF09E2950EC21F000019D
:10151800A0296A6F88C06BF09E2950EC21F0000169
:101528008C4B8D2B8E519E5D9F51800A8A6F8F51F7
:10153800800A8A59D8A0A3EF0AF0A5EF0AF0EBEFCA
:1015480009F0D6EF0BF099BFACEF0AF0AEEF0AF056
:10155800BCEF0AF080C09EF081C09FF082C0A0F06E
:1015680083C0A1F086C090F087C091F0C8EF0AF060
:1015780084C09EF085C09FF086C0A0F087C0A1F00F
:1015880082C090F083C091F0A0C06AF088C06BF070
:101598009E5150EC21F0A0C06AF088C06BF00001A9
:1015A8009E0550EC21F0A0C06AF088C06BF00001E5
:1015B8009E2950EC21F00001A0056A6F88C06BF0ED
:1015C8009E5150EC21F00001A0296A6F88C06BF091
:1015D8009E5150EC21F00001A0056A6F88C06BF0A5
:1015E8009E0550EC21F00001A0296A6F88C06BF0BD
:1015F8009E0550EC21F00001A0056A6F88C06BF0D1
:101608009E2950EC21F00001A0296A6F88C06BF078
:101618009E2950EC21F0000E00018D6F000E8C6F9A
:10162800C7EF0BF0010EA025A06F000EA121A16F3E
:1016380095BF29EF0BF0955106E19405D8B027EF37
:101648000BF029EF0BF038EF0BF09AC08AF09BC033
:101658008BF0D8908A378B3794518A25946F95519F
:101668008B21956F7DEF0BF097BF3FEF0BF03DEFB0
:101678000BF046EF0BF099BF44EF0BF046EF0BF081
:1016880060EF0BF097BF51EF0BF0975108E196050B
:10169800D8A051EF0BF053EF0BF068EF0BF099BFA8
:1016A8005EEF0BF0995108E19805D8A05EEF0BF0BA
:1016B80060EF0BF068EF0BF0010E9E259E6F000E99
:1016C8009F219F6F6EEF0BF0FF0E9E259E6FFF0E02
:1016D8009F219F6F9C519A5D8A6F9D519B598B6F7B
:1016E800D8908A378B3794518A25946F95518B21DE
:1016F800956FA0C06AF088C06BF09E5150EC21F045
:10170800A0C06AF088C06BF000019E0550EC21F083
:10171800A0C06AF088C06BF000019E2950EC21F04F
:101728000001A0056A6F88C06BF09E5150EC21F053
:101738000001A0296A6F88C06BF09E5150EC21F01F
:101748000001A0056A6F88C06BF09E0550EC21F07F
:101758000001A0296A6F88C06BF09E0550EC21F04B
:101768000001A0056A6F88C06BF09E2950EC21F03B
:101778000001A0296A6F88C06BF09E2950EC21F007
:1017880000018C4B8D2B9051A05DA151800A8A6F6E
:101798009151800A8A59D8A0D4EF0BF0D6EF0BF0FC
:1017A80016EF0BF0120000016351800B6C6F635150
:1017B80063256E6F62AFE3EF0BF0E5EF0BF0E6EF3A
:1017C8000BF06E816E51D8B4ECEF0BF0EEEF0BF02E
:1017D80003EF0CF06E29D8A4F4EF0BF0F6EF0BF042
:1017E800FEEF0BF0000E606F000E616F000E626F6F
:1017F800000E636F628F000E636F0BEF0CF0000E2C
:10180800606F000E616F000E626F000E636F6751AC
:10181800800B6D6F6C516D19D8B415EF0CF017EF84
:101828000CF018EF0CF06C8D675167256D6F66AF83
:1018380020EF0CF022EF0CF023EF0CF06D816D51CE
:10184800D8B429EF0CF02BEF0CF040EF0CF06D2919
:10185800D8A431EF0CF033EF0CF03BEF0CF0000E96
:10186800646F000E656F000E666F000E676F668FFF
:10187800000E676F48EF0CF0000E646F000E656F86
:10188800000E666F000E676F6E516D5DD8B04FEF3A
:101898000CF051EF0CF078EF0CF06CAD56EF0CF04B
:1018A80058EF0CF05AEF0CF0800E6C1B6EC06FF006
:1018B8006DC06EF06FC06DF060C06FF064C060F016
:1018C8006FC064F061C06FF065C061F06FC065F013
:1018D80062C06FF066C062F06FC066F063C06FF000
:1018E80067C063F06FC067F0000E6F6F6E516DC018
:1018F80068F0696B685F000E695B69BF8DEF0CF07B
:10190800695109E11A0E685DD8A08DEF0CF08FEFD0
:101918000CF0C6EF0CF06051611162116311D8A48C
:1019280098EF0CF09BEF0CF0010E9CEF0CF0000E02
:101938006F6F000E606F000E616F000E626F000E19
:10194800636F6DC06EF0CFEF0CF06FA1AEEF0CF0CF
:10195800B0EF0CF0B6EF0CF0D8906F3101096F6F53
:10196800B8EF0CF0D8906F3360A1BDEF0CF0BFEF6B
:101978000CF0C0EF0CF06F8F633563336233613363
:1019880060336E2B6D516E5DD8A0CDEF0CF0CFEFAC
:101998000CF0A9EF0CF06CBDD4EF0CF0D6EF0CF006
:1019A80016EF0DF06E51D8A4DCEF0CF0DEEF0CF062
:1019B800E8EF0CF0000E606F000E616F000E626FB2
:1019C800000E636F37EF0EF0645160276551612395
:1019D800665162236751632363A1F5EF0CF0F7EFBB
:1019E8000CF0A3EF0DF06FA1FCEF0CF0FEEF0CF084
:1019F80004EF0DF0D8906F3101096F6F06EF0DF00D
:101A0800D8906F3360A10BEF0DF00DEF0DF00EEFD6
:101A18000DF06F8F633563336233613360336E2B40
:101A2800A3EF0DF06451605D6551615966516259CB
:101A38006351800A686F6751800A6859D8B027EFE8
:101A48000DF029EF0DF054EF0DF06051645D686FF3
:101A580061516559696F625166596A6F6351675977
:101A68006B6FFF0E6825606FFF0E6921616FFF0EB7
:101A78006A21626FFF0E6B21636F800E6C1B6F6DA6
:101A88006F51D8A44AEF0DF04CEF0DF05CEF0DF05C
:101A9800010E6027000E6123622363235CEF0DF0C3
:101AA8006451605F6551615B6651625B6751635B5E
:101AB8006051611162116311D8A465EF0DF067EFF1
:101AC8000DF09CEF0DF06F51D8A46DEF0DF06FEF96
:101AD8000DF09CEF0DF0000E606F000E616F000EB0
:101AE800626F000E636F37EF0EF0D8906037613782
:101AF800623763376FAF83EF0DF085EF0DF086EF38
:101B08000DF060816FA18BEF0DF08DEF0DF091EF6F
:101B18000DF0D8806F3793EF0DF0D8906F376E5176
:101B2800D8B499EF0DF09BEF0DF09CEF0DF06E0718
:101B380062AFA1EF0DF0A3EF0DF079EF0DF0000EFD
:101B48006D6F6FAFAAEF0DF0ACEF0DF0C4EF0DF0B5
:101B58006FC068F07F0E6817D8B4B5EF0DF0B7EF17
:101B68000DF0BBEF0DF0010E6D6FC4EF0DF060A12D
:101B7800C0EF0DF0C2EF0DF0C4EF0DF0B7EF0DF0B0
:101B88006D51D8B4CAEF0DF0CCEF0DF0F7EF0DF0B2
:101B9800010E6027000E61236223632363A1D7EF40
:101BA8000DF0D9EF0DF0F7EF0DF060C068F061C0EF
:101BB80069F062C06AF063C06BF06B356B336A33EF
:101BC8006933683368C060F069C061F06AC062F068
:101BD8006BC063F06E29D8B4F4EF0DF0F6EF0DF09A
:101BE800F7EF0DF06E2B6E29D8B4FDEF0DF0FFEF77
:101BF8000DF007EF0EF06E51D8A405EF0EF007EFC9
:101C08000EF019EF0EF0000E606F000E616F000EFF
:101C1800626F000E636F6E51D8A415EF0EF017EFC8
:101C28000EF019EF0EF0000E6C6F6EA11EEF0EF0A5
:101C380020EF0EF023EF0EF0628F24EF0EF0629F7C
:101C4800D8906E31636F6CAF2CEF0EF02EEF0EF064
:101C58002FEF0EF0638F60C060F061C061F062C06A
:101C680062F063C063F012000550800B0E6E0550E1
:101C78000524106E04AE43EF0EF045EF0EF046EF6C
:101C88000EF010801050D8B44CEF0EF04EEF0EF05E
:101C980063EF0EF01028D8A454EF0EF056EF0EF0B4
:101CA8005EEF0EF0000E026E000E036E000E046E64
:101CB800000E056E048E000E056E6BEF0EF0000E22
:101CC800026E000E036E000E046E000E056E0950C3
:101CD800800B0F6E0E500F18D8B475EF0EF077EF1B
:101CE8000EF078EF0EF00E8C095009240F6E08AE36
:101CF80080EF0EF082EF0EF083EF0EF00F800F50A2
:101D0800D8B489EF0EF08BEF0EF0A0EF0EF00F288D
:101D1800D8A491EF0EF093EF0EF09BEF0EF0000EAB
:101D2800066E000E076E000E086E000E096E088E15
:101D3800000E096EA8EF0EF0000E066E000E076E7C
:101D4800000E086E000E096E10500F5CD8B0AFEF91
:101D58000EF0B1EF0EF0D8EF0EF00EACB6EF0EF0BD
:101D6800B8EF0EF0BAEF0EF0800E0E1A10C011F098
:101D78000FC010F011C00FF002C011F006C002F041
:101D880011C006F003C011F007C003F011C007F03E
:101D980004C011F008C004F011C008F005C011F02B
:101DA80009C005F011C009F0000E116E10500FC0E7
:101DB8000AF00B6A0A5E000E0B5A0BBEEDEF0EF02E
:101DC8000B5009E11A0E0A5CD8A0EDEF0EF0EFEF08
:101DD8000EF026EF0FF00250031004100510D8A4DF
:101DE800F8EF0EF0FBEF0EF0010EFCEF0EF0000E18
:101DF800116E000E026E000E036E000E046E000ED1
:101E0800056E0FC010F02FEF0FF011A00EEF0FF0BE
:101E180010EF0FF016EF0FF0D89011300109116E86
:101E280018EF0FF0D890113202A01DEF0FF01FEF3E
:101E38000FF020EF0FF0118E053405320432033213
:101E48000232102A0F50105CD8A02DEF0FF02FEFA0
:101E58000FF009EF0FF00EBC34EF0FF036EF0FF074
:101E680076EF0FF01050D8A43CEF0FF03EEF0FF0D4
:101E780048EF0FF0000E026E000E036E000E046EA7
:101E8800000E056E97EF10F0065002260750032249
:101E9800085004220950052205A055EF0FF057EF0E
:101EA8000FF003EF10F011A05CEF0FF05EEF0FF0F2
:101EB80064EF0FF0D89011300109116E66EF0FF042
:101EC800D890113202A06BEF0FF06DEF0FF06EEFAC
:101ED8000FF0118E05340532043203320232102A13
:101EE80003EF10F00650025C0750035808500458DE
:101EF8000550800A0A6E0950800A0A58D8B087EF40
:101F08000FF089EF0FF0B4EF0FF00250065C0A6E85
:101F1800035007580B6E045008580C6E05500958AA
:101F28000D6EFF0E0A24026EFF0E0B20036EFF0ECD
:101F38000C20046EFF0E0D20056E800E0E1A116C1B
:101F48001150D8A4AAEF0FF0ACEF0FF0BCEF0FF0D0
:101F5800010E0226000E032204220522BCEF0FF018
:101F68000650025E0750035A0850045A0950055A91
:101F78000250031004100510D8A4C5EF0FF0C7EFE6
:101F88000FF0FCEF0FF01150D8A4CDEF0FF0CFEF0A
:101F98000FF0FCEF0FF0000E026E000E036E000E45
:101FA800046E000E056E97EF10F0D89002360336D7
:101FB8000436053611AEE3EF0FF0E5EF0FF0E6EF6C
:101FC8000FF0028011A0EBEF0FF0EDEF0FF0F1EF43
:101FD8000FF0D8801136F3EF0FF0D890113610506B
:101FE800D8B4F9EF0FF0FBEF0FF0FCEF0FF010068D
:101FF80004AE01EF10F003EF10F0D9EF0FF0000E70
:102008000F6E11AE0AEF10F00CEF10F024EF10F085
:1020180011C00AF07F0E0A16D8B415EF10F017EFAA
:1020280010F01BEF10F0010E0F6E24EF10F002A05D
:1020380020EF10F022EF10F024EF10F017EF10F05F
:102048000F50D8B42AEF10F02CEF10F057EF10F023
:10205800010E0226000E03220422052205A037EFF6
:1020680010F039EF10F057EF10F002C00AF003C07B
:102078000BF004C00CF005C00DF00D340D320C321D
:102088000B320A320AC002F00BC003F00CC004F095
:102098000DC005F01028D8B454EF10F056EF10F02A
:1020A80057EF10F0102A1028D8B45DEF10F05FEF4A
:1020B80010F067EF10F01050D8A465EF10F067EF3C
:1020C80010F079EF10F0000E026E000E036E000E95
:1020D800046E000E056E1050D8A475EF10F077EF5F
:1020E80010F079EF10F0000E0E6E10A07EEF10F0D9
:1020F80080EF10F083EF10F0048E84EF10F0049E50
:10210800D8901030056E0EAE8CEF10F08EEF10F0F8
:102118008FEF10F0058E02C002F003C003F004C078
:1021280004F005C005F0120000019451800B9D6F6A
:1021380094519425A36F93AFA4EF10F0A6EF10F07D
:10214800A7EF10F0A381A351D8B4ADEF10F0AFEF13
:1021580010F0C2EF10F0A329D8A4B5EF10F0B7EF34
:1021680010F0BFEF10F0000E916F000E926F000E8E
:10217800936F000E946F938FCAEF10F0000E916F5B
:10218800000E926F000E936F000E946F9851800BA3
:102198009D1B98519825A26F97AFD5EF10F0D7EFF8
:1021A80010F0D8EF10F0A281A251D8B4DEEF10F0F1
:1021B800E0EF10F0F3EF10F0A229D8A4E6EF10F04A
:1021C800E8EF10F0F0EF10F0000E956F000E966F2C
:1021D800000E976F000E986F978FFBEF10F0000EB0
:1021E800956F000E966F000E976F000E986FA251B4
:1021F800D8B401EF11F003EF11F00BEF11F0A35178
:10220800D8A409EF11F00BEF11F015EF11F0000E43
:10221800916F000E926F000E936F000E946FADEFEA
:1022280012F097519103F3CFA8F0F4CFA9F0A85179
:102238009E6F9F6BA06BA16BA951A46FA56BA66B3A
:10224800A76B96519203F3CFA8F0F4CFA9F0A85149
:102258009E27000E9F23A023A123A951A427000E87
:10226800A523A623A72395519303F3CFA8F0F4CF72
:10227800A9F0A8519E27000E9F23A023A123A951AE
:10228800A427000EA523A623A723A0C0A1F09FC0C2
:10229800A0F09EC09FF09E6B95519203F3CFA8F0DB
:1022A800F4CFA9F0A8519E27A9519F23000EA0237F
:1022B800000EA12396519103F3CFA8F0F4CFA9F013
:1022C800A8519E27A9519F23000EA023000EA123E9
:1022D800A0C0A1F09FC0A0F09EC09FF09E6B95513A
:1022E8009103F3CFA8F0F4CFA9F0A8519E27A951E4
:1022F8009F23000EA023000EA12397519203F3CF32
:10230800A8F0F4CFA9F0A851A427A951A523000E3D
:10231800A623000EA72396519303F3CFA8F0F4CF7A
:10232800A9F0A851A427A951A523000EA623000EA1
:10233800A72397519303F3CFA8F0F4CFA9F0A8519E
:10234800996FA9519A6F9B6B9C6B9BC09CF09AC02C
:102358009BF099C09AF0996B9951A4279A51A5239B
:102368009B51A6239C51A7239EC099F09FC09AF029
:10237800A0C09BF0A1C09CF0190EC8EF11F0D89036
:102388009C339B339A339933E82EC3EF11F099515C
:10239800A4279A51A5239B51A6239C51A723A0C0EB
:1023A800A1F09FC0A0F09EC09FF09E6BA251A3C059
:1023B80099F09A6B9927000E9A23820E9925A86F97
:1023C800FF0E9A21A96FFEEF11F0D890A437A53718
:1023D800A637A737A1AFF3EF11F0F5EF11F0F6EF3D
:1023E80011F0A481D8909E379F37A037A137A8074E
:1023F800D8A0A907A6AF03EF12F005EF12F0E9EF96
:1024080011F0000EA26FA1AF0CEF12F00EEF12F058
:1024180032EF12F0FF0E9E15996FFF0E9F159A6FFF
:10242800FF0EA0159B6F7F0EA1159C6F99519A11F5
:102438009B119C11D8B423EF12F025EF12F029EF6D
:1024480012F0010EA26F32EF12F0A4A12EEF12F0DB
:1024580030EF12F032EF12F025EF12F0A251D8B49B
:1024680038EF12F03AEF12F05EEF12F0010EA427E7
:10247800000EA523A623A723A7A145EF12F047EF37
:1024880012F05EEF12F0A4C099F0A5C09AF0A6C0B1
:102498009BF0A7C09CF09C359C339B339A339933AF
:1024A80099C0A4F09AC0A5F09BC0A6F09CC0A7F064
:1024B800A84BA92BA9BF69EF12F0A95108E1A829D7
:1024C800D8A069EF12F06BEF12F075EF12F0000E62
:1024D800A46F000EA56F800EA66F7F0EA76FA3EFE7
:1024E80012F0A9BF82EF12F0A95106E1A805D8B0F1
:1024F80080EF12F082EF12F08EEF12F0000EA46F50
:10250800000EA56F000EA66F000EA76F000E9D6F40
:10251800A3EF12F0A8C0A3F0FF0EA417FF0EA51793
:102528007F0EA617000EA717A3A19DEF12F09FEF2D
:1025380012F0A0EF12F0A68FD890A331A76F9D518B
:10254800A713A4C091F0A5C092F0A6C093F0A7C0AD
:1025580094F012001350800B1C6E13501324226E3B
:1025680012AEB9EF12F0BBEF12F0BCEF12F02280FE
:102578002250D8B4C2EF12F0C4EF12F0D7EF12F025
:102588002228D8A4CAEF12F0CCEF12F0D4EF12F040
:10259800000E106E000E116E000E126E000E136EFD
:1025A800128EDFEF12F0000E106E000E116E000E8C
:1025B800126E000E136E1750800B1C1A175017243A
:1025C800216E16AEEAEF12F0ECEF12F0EDEF12F01A
:1025D80021802150D8B4F3EF12F0F5EF12F008EF94
:1025E80013F02128D8A4FBEF12F0FDEF12F005EF4D
:1025F80013F0000E146E000E156E000E166E000E0F
:10260800176E168E10EF13F0000E146E000E156E76
:10261800000E166E000E176E2150D8B416EF13F088
:1026280018EF13F020EF13F02250D8A41EEF13F088
:1026380020EF13F02AEF13F0000E106E000E116E4B
:10264800000E126E000E136EC2EF14F01650100238
:10265800F3CF27F0F4CF28F027501D6E1E6A1F6AAB
:10266800206A2850236E246A256A266A15501102AA
:10267800F3CF27F0F4CF28F027501D26000E1E2296
:102688001F22202228502326000E2422252226221B
:1026980014501202F3CF27F0F4CF28F027501D264C
:1026A800000E1E221F22202228502326000E24223C
:1026B800252226221FC020F01EC01FF01DC01EF0BC
:1026C8001D6A14501102F3CF27F0F4CF28F02750D9
:1026D8001D2628501E22000E1F22000E20221550F3
:1026E8001002F3CF27F0F4CF28F027501D262850EA
:1026F8001E22000E1F22000E20221FC020F01EC026
:102708001FF01DC01EF01D6A14501002F3CF27F0F1
:10271800F4CF28F027501D2628501E22000E1F2215
:10272800000E202216501102F3CF27F0F4CF28F024
:102738002750232628502422000E2522000E262268
:1027480015501202F3CF27F0F4CF28F02750232694
:1027580028502422000E2522000E2622165012028E
:10276800F3CF27F0F4CF28F02750186E2850196EB1
:102778001A6A1B6A1AC01BF019C01AF018C019F09F
:10278800186A18502326195024221A5025221B5043
:1027980026221DC018F01EC019F01FC01AF020C054
:1027A8001BF0190EDDEF13F0D8901B321A321932D4
:1027B8001832E82ED8EF13F0185023261950242287
:1027C8001A5025221B5026221FC020F01EC01FF0C1
:1027D8001DC01EF01D6A215022C018F0196A182663
:1027E800000E1922820E1824276EFF0E1920286E5B
:1027F80013EF14F0D890233624362536263620AE2B
:1028080008EF14F00AEF14F00BEF14F02380D890BF
:102818001D361E361F3620362706D8A0280625AEB8
:1028280018EF14F01AEF14F0FEEF13F0000E216EFB
:1028380020AE21EF14F023EF14F047EF14F0FF0E51
:102848001D14186EFF0E1E14196EFF0E1F141A6E3B
:102858007F0E20141B6E185019101A101B10D8B4B4
:1028680038EF14F03AEF14F03EEF14F0010E216E39
:1028780047EF14F023A043EF14F045EF14F047EFAF
:1028880014F03AEF14F02150D8B44DEF14F04FEF94
:1028980014F073EF14F0010E2326000E24222522D3
:1028A800262226A05AEF14F05CEF14F073EF14F010
:1028B80023C018F024C019F025C01AF026C01BF058
:1028C8001B341B321A321932183218C023F019C0BF
:1028D80024F01AC025F01BC026F0274A282A28BE53
:1028E8007EEF14F0285008E12728D8A07EEF14F0D6
:1028F80080EF14F08AEF14F0000E236E000E246EA1
:10290800800E256E7F0E266EB8EF14F028BE97EF66
:1029180014F0285006E12704D8B095EF14F097EF8B
:1029280014F0A3EF14F0000E236E000E246E000EB8
:10293800256E000E266E000E1C6EB8EF14F027C030
:1029480022F0FF0E2316FF0E24167F0E2516000E0A
:10295800261622A0B2EF14F0B4EF14F0B5EF14F07D
:10296800258ED8902230266E1C50261223C010F0D7
:1029780024C011F025C012F026C013F01200000187
:102988007B51800B886F7B517B258F6F7AAFCFEFA0
:1029980014F0D1EF14F0D2EF14F08F818F51D8B426
:1029A800D8EF14F0DAEF14F0EFEF14F08F29D8A471
:1029B800E0EF14F0E2EF14F0EAEF14F0000E786F95
:1029C800000E796F000E7A6F000E7B6F7A8F000E03
:1029D8007B6FF7EF14F0000E786F000E796F000E22
:1029E8007A6F000E7B6F7F51800B881B7F517F258C
:1029F800906F7EAF02EF15F004EF15F005EF15F0BC
:102A080090819051D8B40BEF15F00DEF15F022EF2F
:102A180015F09029D8A413EF15F015EF15F01DEF58
:102A280015F0000E7C6F000E7D6F000E7E6F000E9D
:102A38007F6F7E8F000E7F6F2AEF15F0000E7C6F80
:102A4800000E7D6F000E7E6F000E7F6F7C517D1132
:102A58007E117F11D8A433EF15F035EF15F04DEF47
:102A680015F0000E786F000E796F000E7A6F000E69
:102A78007B6F800E7A137F0E7B1388517B1378C08F
:102A880078F079C079F07AC07AF07BC07BF090EF6B
:102A980016F08F51D8A453EF15F055EF15F05FEFEE
:102AA80015F0000E786F000E796F000E7A6F000E29
:102AB8007B6F90EF16F090518FC080F0816B805F34
:102AC800000E815B7F0E8025896F000E81218A6F41
:102AD80078C084F079C085F07AC086F07BC087F032
:102AE800000E786F000E796F000E7A6F000E7B6F04
:102AF800000E8B6F000E8C6F000E8D6F000E8E6FA8
:102B0800000E906FC0EF15F09051D8B48EEF15F00D
:102B180090EF15F0A7EF15F0D890843785378637F2
:102B28008737D890783779377A377B378EAF9FEFEA
:102B380015F0A1EF15F0A2EF15F07881D8908B373A
:102B48008C378D378E377C51845D7D5185597E5108
:102B580086597F518759D8A0B4EF15F0B6EF15F014
:102B6800BFEF15F08E8D7C51845F7D51855B7E5162
:102B7800865B7F51875B902B190E9065C6EF15F029
:102B8800C8EF15F088EF15F084518511861187116B
:102B9800D8B4D1EF15F0D3EF15F0EBEF15F08B812A
:102BA800EBEF15F0D890783779377A377B378EAFD7
:102BB800E0EF15F0E2EF15F0E3EF15F07881D8902B
:102BC8008B378C378D378E378907D8A08A077AAF2D
:102BD800F0EF15F0F2EF15F0D6EF15F0000E906F4C
:102BE8008EAFF9EF15F0FBEF15F01FEF16F0FF0EA3
:102BF8008B15806FFF0E8C15816FFF0E8D15826F00
:102C08007F0E8E15836F8051811182118311D8B484
:102C180010EF16F012EF16F016EF16F0010E906F87
:102C28001FEF16F078A11BEF16F01DEF16F01FEF3F
:102C380016F012EF16F09051D8B425EF16F027EFE2
:102C480016F04BEF16F0010E7827000E79237A2341
:102C58007B237BA132EF16F034EF16F04BEF16F022
:102C680078C080F079C081F07AC082F07BC083F0B0
:102C78008335833382338133803380C078F081C0D9
:102C880079F082C07AF083C07BF0894B8A2B8ABFA7
:102C980056EF16F08A5108E18929D8A056EF16F0A8
:102CA80058EF16F063EF16F0000E8A6F8969000E70
:102CB800786F000E796F000E7A6F000E7B6F8ABFF7
:102CC80070EF16F08A5106E18905D8B06EEF16F05C
:102CD80070EF16F07EEF16F0000E8A6F000E896F07
:102CE800000E786F000E796F000E7A6F000E7B6F02
:102CF800000E886F89C08FF08FA185EF16F087EFDF
:102D080016F08AEF16F07A8F8BEF16F07A9FD8902C
:102D18008F317B6F41EF15F012000600F2A097EF9C
:102D280016F099EF16F024EF18F0410E016EEE0E32
:102D3800E82EFED7012EFCD700D0F29081ACA7EF89
:102D480016F0A9EF16F0A0EF17F036503710D8A4F8
:102D5800B0EF16F0B2EF16F09AEF17F00101BF05C9
:102D6800C011D8A4BAEF16F0BCEF16F0CFEF16F0EA
:102D7800BD51BE11D8A4C3EF16F0C5EF16F0CFEFC2
:102D880016F0364A372A000EBE6F010EBD6F24EFCB
:102D980018F024EF18F0BF05C011D8A4D6EF16F02C
:102DA800D8EF16F0E9EF16F0BD05BE11D8A4DFEF95
:102DB80016F0E1EF16F0E9EF16F0364A372A000E62
:102DC800BE6F000EBD6F24EF18F0B705B811D8A478
:102DD800F0EF16F0F2EF16F014EF17F0B951BA1140
:102DE800D8A4F9EF16F0FBEF16F014EF17F0B15175
:102DF800B211D8A402EF17F004EF17F014EF17F090
:102E0800364A372A000EB06F010EAF6F000EBA6F48
:102E1800010EB96F000EB26F000EB16F24EF18F0FB
:102E2800B705B811D8A41BEF17F01DEF17F03BEF4B
:102E380017F0B905BA11D8A424EF17F026EF17F048
:102E48003BEF17F0B105B211D8A42DEF17F02FEF13
:102E580017F03BEF17F0364A372A000EB06F010E15
:102E6800AF6F000EBA6F000EB96F24EF18F0B705F8
:102E7800B811D8A442EF17F044EF17F066EF17F037
:102E8800B905BA11D8A44BEF17F04DEF17F066EF5C
:102E980017F0B151B211D8A454EF17F056EF17F04C
:102EA80066EF17F0364A372AABC150F0ACC151F083
:102EB800000EB06F010EAF6F000EB26F010EB16F52
:102EC80024EF18F0B505B611D8A46DEF17F06FEF21
:102ED80017F080EF17F0A305A411D8A476EF17F028
:102EE80078EF17F080EF17F0364A372A000EA46FF4
:102EF800000EA36F24EF18F0B505B611D8A487EF1C
:102F080017F089EF17F0CDEF16F0A351A411D8A44C
:102F180090EF17F092EF17F0CDEF16F0364A372AF8
:102F2800000EA46F010EA36F24EF18F0000E376E89
:102F3800000E366E24EF18F081AEA5EF17F0A7EF5C
:102F480017F024EF18F034503510D8A4AEEF17F06E
:102F5800B0EF17F020EF18F00101BF05C011D8A499
:102F6800B8EF17F0BAEF17F0F8EF17F0BD51BE1130
:102F7800D8A4C1EF17F0C3EF17F0DFEF17F0344A0A
:102F8800352A000EB66F000EB56F000EC06F000E2A
:102F9800BF6F000EB86F010EB76F000EB46F010E51
:102FA800B36F000EBA6F000EB96F000EB06F010E4E
:102FB800AF6F24EF18F0BD05BE11D8A4E6EF17F0E7
:102FC800E8EF17F0CDEF16F0344A352A000EC06F3F
:102FD800000EBF6F000EB86F000EB76F000EB66F11
:102FE800010EB56FD9EF17F0B705B811D8A4FFEFE8
:102FF80017F001EF18F015EF18F0344A352A000ED3
:10300800C06F010EBF6F000EB86F000EB76F000ED5
:10301800B66F000EB56F000EBC6F010EBB6FD9EF17
:1030280017F0B505B611D8A41CEF18F01EEF18F06C
:10303800CDEF16F001EF18F0000E356E000E346E6D
:103048005E92110029C002F02AC003F0000E03BEF0
:10305800FF0E046E056E010E8FEC1CF002C010F01E
:1030680003C011F004C012F005C013F0A10E146ED5
:10307800DE0E156EA70E166E3C0E176EAEEC12F035
:1030880010C02BF011C02CF012C02DF013C02EF080
:103098002BC002F02CC003F02DC004F02EC005F0A8
:1030A800CDEC20F002C046F003C047F02BC012F070
:1030B8002CC013F02DC014F02EC015F046C002F03D
:1030C80047C003F0000E03BEFF0E046E056E010E2E
:1030D8008FEC1CF002C016F003C017F004C018F003
:1030E80005C019F0F3EC25F012C02BF013C02CF03A
:1030F80014C02DF015C02EF02BC010F02CC011F00C
:103108002DC012F02EC013F0000E146E000E156EB6
:10311800200E166E410E176EAEEC12F010C02BF09A
:1031280011C02CF012C02DF013C02EF02BC002F0ED
:103138002CC003F02DC004F02EC005F0CDEC20F01B
:1031480002C048F003C049F02BC012F02CC013F0A5
:103158002DC014F02EC015F048C002F049C003F08D
:10316800000E03BEFF0E046E056E010E8FEC1CF000
:1031780002C016F003C017F004C018F005C019F01B
:10318800F3EC25F012C02BF013C02CF014C02DF076
:1031980015C02EF02BC010F02CC011F02DC012F06D
:1031A8002EC013F0000E146E000E156E200E166E53
:1031B800410E176EAEEC12F010C02BF011C02CF0BF
:1031C80012C02DF013C02EF02BC002F02CC003F05B
:1031D8002DC004F02EC005F0CDEC20F002C04AF05E
:1031E80003C04BF02BC012F02CC013F02DC014F00C
:1031F8002EC015F04AC002F04BC003F0000E03BE0B
:10320800FF0E046E056E010E8FEC1CF002C016F066
:1032180003C017F004C018F005C019F0F3EC25F04E
:1032280012C02BF013C02CF014C02DF015C02EF0D6
:103238002BC010F02CC011F02DC012F02EC013F0CE
:10324800000E146E000E156E200E166E410E176ECF
:10325800AEEC12F010C02BF011C02CF012C02DF003
:1032680013C02EF02BC002F02CC003F02DC004F0C8
:103278002EC005F0CDEC20F002C04CF003C04DF09C
:103288004CC002F04DC003F069EC1DF002C03EF0E6
:1032980003C03FF04AC002F04BC003F069EC1DF0D8
:1032A80002C03CF003C03DF048C002F049C003F042
:1032B80069EC1DF002C03AF003C03BF046C002F0D2
:1032C80047C003F069EC1DF0800E0224386E000E32
:1032D8000320396E1200EA0E0101C16F010EC26FA0
:1032E800000EC36F000EC46F000EC66F320EC56F9E
:1032F80051EC26F0010EC3EC21F0DDEC23F0150EA5
:103308000001FF6F4B0EFE6FBE0EE82EFED7FE2F9C
:10331800FCD7FF2FFAD700F026EC22F00BEC1EF0BA
:103328000101C4BFA6EF19F0C451C31109E1EA0EA7
:10333800C15D010EC259D8B0A4EF19F0A6EF19F07B
:10334800AEEF19F0EA0EC16F010EC26F000EC36F27
:10335800000EC46FC4BFBDEF19F0C451C3110BE117
:10336800250EC15DF40EC259D8A0BDEF19F0BFEF0C
:1033780019F0C7EF19F0240EC16FF40EC26F000EDA
:10338800C36F000EC46FC6BFCEEF19F0CCEF19F0B3
:10339800D2EF19F0000EC66F000EC56FC6BFDEEF84
:1033A80019F0C65109E1650EC55DD8A0DEEF19F028
:1033B800E0EF19F0E4EF19F0000EC66F640EC56F68
:1033C800C1C17AF0C2C17BF0C3C17CF0C4C17DF039
:1033D800AAEC25F0C5C16AF0C6C16BF00001000E69
:1033E8006BBFFF0E6C6F6D6F010EB3EC1BF06AC004
:1033F800C7F16BC0C8F16CC0C9F16DC0CAF1C7C1D3
:10340800AAF0C8C1ABF0C9C1ACF0CAC1ADF044EC78
:1034180023F0000E0101B46F010EB36F000EBA6FF6
:10342800000EB96F000EBC6F010EBB6F808A000ED4
:10343800B86F000EB76F000EB66F000EB56F000EB6
:10344800C06F010EBF6F000EA46F000EA36F000EB9
:10345800BE6F000EBD6F000EB26F000EB16F000E92
:10346800AA6F030EA96F000EA86F020EA76F000EB9
:10347800A66F0A0EA56FC2820101AF05B011D8A4CC
:1034880048EF1AF04AEF1AF051EF1AF0000EB06F39
:10349800000EAF6F000E95EC23F00101BF05C011BF
:1034A800D8A459EF1AF05BEF1AF067EF1AF0000E84
:1034B800B86F000EB76F000EB66F000EB56FB5ECA3
:1034C8001AF0AFEF1AF0B705B811D8A46EEF1AF0DA
:1034D80070EF1AF09CEF1AF0000EC06F000EBF6F6D
:1034E800000EB66F000EB56FC20E0001FE6FFF0E24
:1034F800FF6FADC160F0AEC161F0000E636F040EE6
:10350800626F89EC22F00001FE516027FF516123B0
:10351800601F611F604B612B60C0ABF161C0ACF1F3
:10352800ABC1A2F0ACC1A3F0D1EC05F0AFEF1AF03B
:10353800B505B611D8A4A3EF1AF0A5EF1AF0AFEFAE
:103548001AF0000EC06F000EBF6F000EB86F000EAD
:10355800B76F37EC00F013EC25F03FEF1AF035EFBA
:1035680000F00101BB05BC11D8A4BDEF1AF0BFEFF4
:103578001AF042EF1BF021EE10F010EE80F00F0E63
:10358800DBCFE3FFE806FCE221EE20F010EEA0F02E
:103598000E0EDBCFE3FFE806FCE221EE00F010EEB2
:1035A80090F00F0EDBCFE3FFE806FCE25AC0AFF065
:1035B8005BC0B0F058C0B1F059C0B2F0000E0001C5
:1035C8006A6F020EA6EC24F0800E0001736F000EE5
:1035D800746F010E756F010E766F7BEC25F0020E8D
:1035E80000016A6F020EA6EC24F0A00E0001736FB2
:1035F800000E746F010E756F010E766F7BEC25F06F
:10360800030E00016A6F020EA6EC24F0900E000172
:10361800736F000E746F010E756F010E766F7BEC81
:1036280025F0030E00016A6F020EA6EC24F0050EC9
:1036380000016A6F2A0EA6EC24F0AF0E0001736F2A
:10364800000E746F010E756F010E766F7BEC25F01E
:10365800050E00016A6F520EA6EC24F0B10E0001AF
:10366800736F000E746F010E756F010E766F7BEC31
:1036780025F0000E0101BC6F000EBB6FBD51BE11DD
:10368800D8A449EF1BF04BEF1BF07BEF1BF0000EAB
:103698000001726F520E716F000E746F340E736FEB
:1036A800000E766F5A0E756F000E786F340E776FB6
:1036B800000E7A6F000E796FECEC22F0000E00011C
:1036C800726F2A0E716F000E746F340E736F000ED6
:1036D800766F320E756F000E786F340E776F000EAE
:1036E8007A6F010E796FECEC22F0B2EF1BF0BD059A
:1036F800BE11D8A482EF1BF084EF1BF0B2EF1BF0D1
:10370800000E0001726F520E716F000E746F340E4E
:10371800736F000E766F5A0E756F000E786F340E49
:10372800776F000E7A6F010E796FECEC22F0000EC5
:103738000001726F2A0E716F000E746F340E736F72
:10374800000E766F320E756F000E786F340E776F3D
:10375800000E7A6F000E796FECEC22F01200000177
:10376800726F00017251D8B4BCEF1BF0BEEF1BF0B2
:10377800E0EF1BF06DBFC5EF1BF0C3EF1BF0E0EFF0
:103788001BF06AC06EF06BC06FF06CC070F06DC05B
:1037980071F06E1F6F1F701F711F6E2B000E6F234D
:1037A800702371236EC074F06FC075F070C076F02E
:1037B80071C077F0E8EF1BF06AC074F06BC075F069
:1037C8006CC076F06DC077F06A516B116C116D1199
:1037D800D8A4F1EF1BF0F3EF1BF0FDEF1BF0000E88
:1037E8006A6F000E6B6F000E6C6F000E6D6F8EEFC0
:1037F8001CF0960E736F07EF1CF0732BD89077337D
:10380800763375337433000E74156E6F000E7515AC
:103818006F6F000E7615706FFE0E7715716F6E5113
:103828006F1170117111D8A41CEF1CF01EEF1CF061
:1038380001EF1CF02CEF1CF0732B010E7427000E07
:10384800752376237723D89077337633753374339B
:10385800000E74156E6F000E75156F6F000E7615DD
:10386800706FFF0E7715716F6E516F1170117111B6
:10387800D8A441EF1CF043EF1CF020EF1CF04BEFF5
:103888001CF07307D890743775377637773776BF5B
:1038980050EF1CF052EF1CF05AEF1CF0020E73614F
:1038A80058EF1CF05AEF1CF045EF1CF073B15FEFB6
:1038B8001CF061EF1CF062EF1CF0769FD890733318
:1038C80073C06EF06F6B706B716B6EC071F0706B64
:1038D8006F6B6E6B6E5174136F5175137051761355
:1038E800715177137251D8B47CEF1CF07EEF1CF045
:1038F80086EF1CF06DBF85EF1CF083EF1CF086EFA0
:103908001CF0778F74C06AF075C06BF076C06CF0ED
:1039180077C06DF012000A6E0A50D8B496EF1CF00A
:1039280098EF1CF0BAEF1CF005BE9FEF1CF09DEF5E
:103938001CF0BAEF1CF002C006F003C007F004C088
:1039480008F005C009F0061E071E081E091E062AF3
:10395800000E07220822092206C00CF007C00DF04D
:1039680008C00EF009C00FF0C2EF1CF002C00CF046
:1039780003C00DF004C00EF005C00FF00250031094
:1039880004100510D8A4CBEF1CF0CDEF1CF0D7EF36
:103998001CF0000E026E000E036E000E046E000E88
:1039A800056E68EF1DF0960E0B6EE1EF1CF00B2A0A
:1039B800D8900F320E320D320C32000E0C14066EF7
:1039C800000E0D14076E000E0E14086EFE0E0F1476
:1039D800096E0650071008100910D8A4F6EF1CF05D
:1039E800F8EF1CF0DBEF1CF006EF1DF00B2A010EC0
:1039F8000C26000E0D220E220F22D8900F320E3206
:103A08000D320C32000E0C14066E000E0D14076EEB
:103A1800000E0E14086EFF0E0F14096E06500710E4
:103A280008100910D8A41BEF1DF01DEF1DF0FAEFC8
:103A38001CF025EF1DF00B06D8900C360D360E360F
:103A48000F360EBE2AEF1DF02CEF1DF034EF1DF0DF
:103A5800020E0B6032EF1DF034EF1DF01FEF1DF06A
:103A68000BB039EF1DF03BEF1DF03CEF1DF00E9E43
:103A7800D8900B320BC006F0076A086A096A06C0BC
:103A880009F0086A076A066A06500C1207500D12F8
:103A980008500E1209500F120A50D8B456EF1DF0F4
:103AA80058EF1DF060EF1DF005BE5FEF1DF05DEFF4
:103AB8001DF060EF1DF00F8E0CC002F00DC003F07A
:103AC8000EC004F00FC005F0120002500310D8A475
:103AD80070EF1DF072EF1DF078EF1DF0000E036E11
:103AE8003F0E026E0AEF1EF002040310D8A47FEF07
:103AF8001DF081EF1DF087EF1DF0000E036E060E1E
:103B0800026E0AEF1EF0020E02180310D8A48FEFFF
:103B18001DF091EF1DF097EF1DF0000E036E5B0E88
:103B2800026E0AEF1EF0030E02180310D8A49FEFCE
:103B38001DF0A1EF1DF0A7EF1DF0000E036E4F0E54
:103B4800026E0AEF1EF0040E02180310D8A4AFEF9D
:103B58001DF0B1EF1DF0B7EF1DF0000E036E660EFD
:103B6800026E0AEF1EF0050E02180310D8A4BFEF6C
:103B78001DF0C1EF1DF0C7EF1DF0000E036E6D0EB6
:103B8800026E0AEF1EF0060E02180310D8A4CFEF3B
:103B98001DF0D1EF1DF0D7EF1DF0000E036E7D0E66
:103BA800026E0AEF1EF0070E02180310D8A4DFEF0A
:103BB8001DF0E1EF1DF0E7EF1DF0000E036E070E9C
:103BC800026E0AEF1EF0080E02180310D8A4EFEFD9
:103BD8001DF0F1EF1DF0F7EF1DF0000E036E7F0EE4
:103BE800026E0AEF1EF0090E02180310D8A4FFEFA8
:103BF8001DF001EF1EF007EF1EF0000E036E6F0EB2
:103C0800026E0AEF1EF0000E036E026812007BC1FE
:103C18008CF07CC18DF07DC18EF021EE6FF010EE3E
:103C280087F0040EDBCFE3FFE806FCE25CC08FF010
:103C38005DC090F021EE39F010EE79F0070EDBCF81
:103C4800E3FFE806FCE221EE63F010EE81F0050EDA
:103C5800DBCFE3FFE806FCE2000E00016A6F340EDA
:103C6800A6EC24F08C0E0001736F000E746F010E29
:103C7800756F010E766F7BEC25F0020E00016A6FFE
:103C88002D0EA6EC24F0870E0001736F000E746FE2
:103C9800010E756F010E766F7BEC25F0030E0001A7
:103CA8006A6F360EA6EC24F08F0E0001736F000EBB
:103CB800746F010E756F010E766F7BEC25F0040EA4
:103CC80000016A6F230EA6EC24F0790E0001736FD1
:103CD800000E746F010E756F010E766F7BEC25F088
:103CE800050E00016A6F360EA6EC24F08F0E000157
:103CF800736F000E746F010E756F010E766F7BEC9B
:103D080025F0060E00016A6F290EA6EC24F0810E3C
:103D18000001736F000E746F010E756F010E766FE0
:103D28007BEC25F0150E0001786F4B0E776FBE0EF9
:103D3800E82EFED7772FFCD7782FFAD700F0000EA1
:103D480095EC23F000D0120000016F6F000E000107
:103D5800726F0A0E6F19D8A4B4EF1EF0B6EF1EF0FA
:103D6800BBEF1EF0000E536E522A34EF1FF03F0EC9
:103D78005364C1EF1EF0C3EF1EF0CAEF1EF0010E30
:103D8800726F5350C00F706FCCEF1EF053C070F0BD
:103D98006F51080DF3CF6DF0F4CF6EF0000E716F18
:103DA8003F0E7065DAEF1EF0DCEF1EF0EFEF1EF04D
:103DB800400E705F010E726F8A9470514009686FEF
:103DC800010E34EC26F05250B8090001686F010E5C
:103DD80034EC26F08A8400016A51D8B4F6EF1EF05C
:103DE800F8EF1EF010EF1FF03B0E6B6F730E6C6F49
:103DF80071516B27000E6C236D516B276E516C232C
:103E08006BC0F6FF6CC0F7FF0800F5CF68F0725181
:103E180034EC26F027EF1FF03B0E6B6F730E6C6FC0
:103E280071516B27000E6C236D516B276E516C23FB
:103E38006BC0F6FF6CC0F7FF0800F550FF0A686F0B
:103E4800725134EC26F00001702B712B070E71654E
:103E580030EF1FF032EF1FF0D4EF1EF0080E53269C
:103E6800120000016E6F000E0001706F0A0E6E19CD
:103E7800D8A441EF1FF043EF1FF048EF1FF0000EEA
:103E8800536E522AC1EF1FF03F0E53644EEF1FF0DE
:103E980050EF1FF057EF1FF0010E706F5350C00F17
:103EA8006D6F59EF1FF053C06DF0200E6E5F000E5E
:103EB8006F6F3F0E6D6563EF1FF065EF1FF078EFD2
:103EC8001FF0400E6D5F010E706F8A946D514009AE
:103ED800686F010E34EC26F05250B8090001686F83
:103EE800010E34EC26F08A8400016A51D8B47FEFC1
:103EF8001FF081EF1FF09BEF1FF06E51030D3B0E7B
:103F08006B6F7F0E6C6FF3506B27F4506C236F51FF
:103F18006B27000E6C236BC0F6FF6CC0F7FF080020
:103F2800F5CF68F0705134EC26F0B4EF1FF06E5105
:103F3800030D3B0E6B6F7F0E6C6FF3506B27F450C5
:103F48006C236F516B27000E6C236BC0F6FF6CC09F
:103F5800F7FF0800F550FF0A686F705134EC26F03F
:103F680000016D2B6F2B020E6F65BDEF1FF0BFEFC9
:103F78001FF05DEF1FF0050E53261200000E000122
:103F8800756F73BFCCEF1FF0CAEF1FF0D6EF1FF0AD
:103F9800731F721F711F706D000E712372237323BC
:103FA800010E756F6FBFDDEF1FF0DBEF1FF0E7EF5E
:103FB8001FF06F1F6E1F6D1F6C6D000E6D236E233B
:103FC8006F23010E751B000E766F000E776F000EC3
:103FD800786F000E796F7051711172117311D8B426
:103FE800F8EF1FF0FAEF1FF030EF20F0010E746FBA
:103FF80004EF20F0D8907037713772377337742B0D
:1040080073AF09EF20F00BEF20F0FEEF1FF0D89010
:10401800763777377837793770516C5D71516D59CC
:1040280072516E5973516F59D8A01DEF20F01FEFD0
:1040380020F028EF20F070516C5F71516D5B725168
:104048006E5B73516F5B7681D890733372337133C3
:104058007033742F0BEF20F07551D8B436EF20F081
:1040680038EF20F040EF20F0791F781F771F766D2A
:10407800000E77237823792376C06CF077C06DF033
:1040880078C06EF079C06FF01200000162356335B8
:10409800696F6951D8A453EF20F055EF20F05FEF16
:1040A80020F0000E606F000E616F000E626F000E50
:1040B800636FCCEF20F060C064F061C065F062C04F
:1040C80066F063C067F0200E6FEF20F0D89067337A
:1040D800663365336433E82E6AEF20F06451686F05
:1040E800628FFF0E6017FF0E6117FF0E6217000E3A
:1040F8006317960E695F69BF86EF20F084EF20F0A2
:104108009CEF20F06951800A970FD8B08EEF20F00D
:1041180090EF20F092EF20F055EF20F0D890633325
:10412800623361336033693F92EF20F0B4EF20F0DF
:104138001F0E6965A2EF20F0A4EF20F0ACEF20F08D
:1041480055EF20F0D89060376137623763376907D9
:104158006951D8A4B2EF20F0B4EF20F0A6EF20F018
:104168006851D8B4BAEF20F0BCEF20F0C4EF20F0CB
:10417800631F621F611F606D000E6123622363234A
:1041880060C060F061C061F062C062F063C063F05B
:104198001200043405340B6E0B50D8A4D6EF20F06F
:1041A800D8EF20F0E2EF20F0000E026E000E036E52
:1041B800000E046E000E056E4FEF21F002C006F0EF
:1041C80003C007F004C008F005C009F0200EF2EFA4
:1041D80020F0D8900932083207320632E82EEDEF87
:1041E80020F006500A6E048EFF0E0216FF0E03160C
:1041F800FF0E0416000E0516960E0B5E0BBE09EF99
:1042080021F007EF21F01FEF21F00B50800A970FE4
:10421800D8B011EF21F013EF21F015EF21F0D8EF0E
:1042280020F0D89005320432033202320B3E15EFEB
:1042380021F037EF21F01F0E0B6425EF21F027EF57
:1042480021F02FEF21F0D8EF20F0D8900236033676
:10425800043605360B060B50D8A435EF21F037EF9E
:1042680021F029EF21F00A50D8B43DEF21F03FEFBB
:1042780021F047EF21F0051E041E031E026C000EFC
:1042880003220422052202C002F003C003F004C086
:1042980004F005C005F0120000016E6F000E000169
:1042A800706F3F0E6E655BEF21F05DEF21F061EFFF
:1042B80021F0400E6E5F010E706F8A946E9F6E8DB6
:1042C8006EC068F0705134EC26F06AC060F00001EE
:1042D800616B000E636F080E626F89EC22F00001BB
:1042E8006051BF0BB809686F705134EC26F08A84AE
:1042F8000001705116EC26F00001705116EC26F002
:1043080000016F6F8A946EC068F0705134EC26F02B
:1043180000016B51D8B493EF21F095EF21F0A9EF8C
:1043280021F06AC06CF0070E6C17010E6D6F6C2BD4
:10433800A0EF21F0D8906D376C2F9EEF21F000018F
:104348006D516F116F6FBCEF21F06AC06CF0070EF2
:104358006C17010E6D6F6C2BB4EF21F0D8906D3790
:104368006C2FB2EF21F000016D51FF0A6F156F6FCE
:104378008A846FC068F0705134EC26F01200000196
:104388006E6F000E836E8A9A270E00016D6FF50E10
:10439800E82EFED76D2FFCD78A8A8A988A908A924F
:1043A8008A94270E00016D6FF50EE82EFED76D2F4B
:1043B800FCD7C00E0001686F000E34EC26F0C00E6A
:1043C8000001686F010E34EC26F0400E0001686FA2
:1043D800000E34EC26F0400E0001686F010E34EC3C
:1043E80026F0B80E0001686F000E34EC26F0B80E07
:1043F8000001686F010E34EC26F000016E05D8A4A8
:1044080008EF22F00AEF22F017EF22F03F0E686F54
:10441800000E34EC26F03F0E0001686F010E34ECFC
:1044280026F022EF22F03E0E686F000E34EC26F0E4
:104438003E0E0001686F010E34EC26F0000E95EC7C
:1044480023F0120021EE56F010EE83F0060EDBCFBB
:10445800E3FFE806FCE221EE69F010EE8AF0050EB3
:10446800DBCFE3FFE806FCE221EE2FF010EE79F057
:10447800090EDBCFE3FFE806FCE2000E95EC23F023
:10448800020E00016A6F120EA6EC24F0830E0001E2
:10449800736F000E746F010E756F010E766F7BECF3
:1044A80025F0020E00016A6F4E0EA6EC24F08A0E6B
:1044B8000001736F000E746F010E756F010E766F39
:1044C8007BEC25F0050E00016A6F1A0EA6EC24F0AD
:1044D800790E0001736F000E746F010E756F010E77
:1044E800766F7BEC25F0150E0001786F4B0E776F19
:1044F800BE0EE82EFED7772FFCD7782FFAD700F01C
:10450800000E95EC23F000D01200000E0001656F3C
:1045180063BF93EF22F091EF22F099EF22F0626DE2
:10452800631FD8B0632B010E656F61BFA0EF22F047
:104538009EEF22F0A6EF22F0606D611FD8B0612BCC
:10454800010E651B000E676F000E666F62516311E6
:10455800D8B4B1EF22F0B3EF22F0DBEF22F0010E76
:10456800646FBBEF22F0D89062376337642B63AF78
:10457800C0EF22F0C2EF22F0B7EF22F0D8906637F2
:1045880067376251605D63516159D8A0CEEF22F060
:10459800D0EF22F0D5EF22F06251605F6351615B8A
:1045A8006681D89063336233642FC2EF22F065517D
:1045B800D8B4E1EF22F0E3EF22F0E7EF22F0666DE6
:1045C800671FD8B0672B66C060F067C061F0120043
:1045D80000017551711907E176517219D8A4F7EFE6
:1045E80022F0F9EF22F018EF23F073C07CF074C0CA
:1045F8007DF009EF23F07CC06AF079C06BF071514F
:1046080050EC21F000017C4B7D2B77517C5D7D5176
:10461800800A7B6F7851800A7B59D8A016EF23F067
:1046280018EF23F0FFEF22F07751731907E1785163
:104638007419D8A422EF23F024EF23F043EF23F0DA
:1046480071C07EF072C07FF034EF23F073C06AF05F
:1046580079C06BF07E5150EC21F000017E4B7F2B2E
:1046680075517E5D7F51800A7B6F7651800A7B5938
:10467800D8A041EF23F043EF23F02AEF23F01200F4
:10468800CB500001AE6FAF6B010EAE27000EAF230B
:10469800AEC06AF0AFC06BF0000E6BBFFF0E6C6F60
:1046A8006D6F010EB3EC1BF06AC091F06BC092F015
:1046B8006CC093F06DC094F0000E00017C6F000E8A
:1046C8007D6FC80E7E6F420E7F6FAAC078F0ABC0B8
:1046D80079F0ACC07AF0ADC07BF0C3EC14F078C0D0
:1046E80095F079C096F07AC097F07BC098F098EC76
:1046F80010F091C0B0F092C0B1F093C0B2F094C085
:10470800B3F0B0C060F0B1C061F0B2C062F0B3C045
:1047180063F049EC20F000016051BB6EBA9ABA9878
:10472800120000016A6F000E00016C6F8A94400E3F
:10473800686F000E34EC26F0400E0001686F010E21
:1047480034EC26F000016C51B809686F000E34ECA7
:1047580026F000016C51B809686F010E34EC26F0A0
:104768008A84000E00016B6F6A51010DF350000836
:10477800686F000E34EC26F000016A51010DF35009
:104788000008686F010E34EC26F000016B2B3F0E19
:104798006B65D1EF23F0D3EF23F0B8EF23F06C2B48
:1047A800070E6C65DAEF23F0DCEF23F09AEF23F0C5
:1047B8001200000E00016B6F000E6A6F000E6D6F25
:1047C800000E6E6F8A94400E686F6E5134EC26F0BE
:1047D80000016D51B809686F6E5134EC26F08A8477
:1047E800000E00016C6F3B0E6A25F66E7B0E6B2186
:1047F800F76E0800F5CF68F06E5134EC26F0000132
:104808006A4B6B2B6C2B3F0E6C650DEF24F00FEF92
:1048180024F0F7EF23F06E2B010E6E6516EF24F0EF
:1048280018EF24F0E6EF23F06D2B070E6D651FEFF0
:1048380024F021EF24F0E4EF23F08A908A9212000A
:10484800322E52656374616E67756C6169726500BA
:1048580043686F6973697220756E206D6F646500B7
:10486800312E4F7363696C6C6F73636F70650045AD
:1048780061737953434F5045005175656E74696E85
:10488800004D6F64653A32004D6F64653A310052ED
:1048980042363D4F4B0050726F6A65740046726530
:1048A800713A004A756C6573004D4355203A0045CE
:1048B8007269630044433A00487A0062790025002F
:1048C8007C00450000017E517A5D606F7F517B5905
:1048D800616F80517C59626F81517D59636F865138
:1048E8008A5D646F87518B59656F88518C59666FE3
:1048F80089518D59676FDDEC24F060C06CF061C0A0
:104908006DF062C06EF063C06FF000017E51825D91
:10491800706F7F518359716F80518459726F8151C3
:104928008559736FC2EC1FF0000186516C257A6FB0
:1049380087516D217B6F88516E217C6F89516F2162
:104948007D6F120000016C6F000E00016B6F800E0E
:104958006C61B1EF24F0B3EF24F0DCEF24F0070E24
:104968006A65B9EF24F0BBEF24F0BDEF24F0DCEF6B
:1049780024F06CC053F06AC052F03F0E6C65C7EF6C
:1049880024F0C9EF24F0CDEF24F0400E6C5F010E47
:104998006B6F8A946C514009686F6B5134EC26F048
:1049A80000016A51B809686F6B5134EC26F08A84AB
:1049B8001200000E0001686F000E696F000E6A6F2A
:1049C800000E6B6F60A1EBEF24F0EDEF24F0F5EF34
:1049D80024F0645168276551692366516A23675139
:1049E8006B23D8906437653766376737D890633359
:1049F8006233613360336051611162116311D8A46D
:104A080008EF25F00AEF25F0E6EF24F068C060F023
:104A180069C061F06AC062F06BC063F0120038C010
:104A280083FF8086080E0001606FC90EE82EFED74E
:104A3800602FFCD700D080963EC083FF8080080E90
:104A48000001606FC90EE82EFED7602FFCD700D09A
:104A580080903CC083FF8082080E0001606FC90E01
:104A6800E82EFED7602FFCD700D080923AC083FF93
:104A78008084080E0001606FC90EE82EFED7602FF3
:104A8800FCD700D080941200480EF66E480EF76EE0
:104A9800000EF86E01EE00F010EE84F00900F5CF7C
:104AA800EEFFE550E150FAE1100EF66E4D0EF76E8E
:104AB800000EF86E00EE54F010EE0AF00900F5CF83
:104AC800EEFFE550E150FAE101EE84F03D0EEE6AAA
:104AD800E806FDE100EE34F0200EEE6AE806FDE19E
:104AE8005E905E92000EF86E00016FEF19F09DEF78
:104AF80025F000017551D8B484EF25F086EF25F034
:104B080091EF25F076C06AF073C0D9FF74C0DAFF60
:104B1800DF50A8EC1EF09AEF25F076C06AF073C05B
:104B2800D9FF74C0DAFFDF5035EC1FF00001734B7A
:104B3800742B73C0D9FF74C0DAFFDF50D8A4A7EF75
:104B480025F0A9EF25F07DEF25F01200720ED36E47
:104B5800FD0E946E0C0EBA6E000ECC6E070ECA6E69
:104B680000017A5148086C6FE80E7B556D6F010E95
:104B78007C556E6F000E7D556F6F7AC070F07BC0EC
:104B880071F07CC072F07DC073F0C2EC1FF00001C0
:104B98006C51CB6E1200000E00017C1B000E7D1BB9
:104BA800000E7E1B800E7F1B78C060F079C061F01C
:104BB8007AC062F07BC063F07CC064F07DC065F0B1
:104BC8007EC066F07FC067F0D7EC0BF060C078F06D
:104BD80061C079F062C07AF063C07BF01200000E09
:104BE800161A000E171A000E181A800E191A12C07B
:104BF80002F013C003F014C004F015C005F016C08D
:104C080006F017C007F018C008F019C009F038EC12
:104C18000EF002C012F003C013F004C014F005C077
:104C280015F012000001606F00016051D8B41FEF49
:104C380026F021EF26F025EF26F08A808A9227EFCA
:104C480026F08A928A8295688A868A8800D083CFDD
:104C580061F08A9800D08A908A920001615112000E
:104C68000001696F00016951D8B43DEF26F03FEFAC
:104C780026F043EF26F08A808A9245EF26F08A9242
:104C88008A82000E956E8A9668C08CFF8A8800D04A
:104C98008A9800D08A908A921200000E956E000EB3
:104CA800836E0A0EC16E110EC26EF00E926E000E69
:104CB800806EC00E936E000E816E040E966E000E0E
:104CC800846EF28ED08E9D8C9F9CF28CF286F18041
:104CD800120084C17CF085C17DF086C17EF087C159
:104CE8007FF078C07CF079C07DF07AC07EF07BC020
:104CF8007FF000017F9F7CC078F07DC079F07EC096
:104D08007AF07FC07BF012003200310032003100AF
:024D1800260073
:10733A000000000000000000000000000000000043
:10734A000000000000000000000000000000000033
:10735A000000000000000000000000000000000023
:10736A000000000000000000000000000000000013
:10737A000000000000000000000000000000000003
:10738A0000000000000000000000000000000000F3
:10739A0000000000000000000000000000000000E3
:1073AA0000000000000000000000000000000000D3
:1073BA0000000000000000000000000000000000C3
:1073CA0000000000000000000000000000000000B3
:1073DA0000000000000000000000000000000000A3
:1073EA000000000000000000000000000000000093
:1073FA000000000000000000000000000000000083
:10740A000000000000000000000000000000000072
:10741A000000000000000000000000000000000062
:10742A000000000000000000000000000000000052
:10743A0000000000000000000000065F5F06000078
:10744A00000007070007070000147F7F147F7F14DE
:10745A0000242E6B6B3A120000466630180C6662E6
:10746A0000307A4F5D377A480004070300000000B5
:10747A0000001C3E63410000000041633E1C000006
:10748A0000082A3E1C1C3E2A0808083E3E0808003E
:10749A00000080E0600000000008080808080800F2
:1074AA000000006060000000006030180C06030154
:1074BA00003E7F71594D7F3E0040427F7F40400031
:1074CA0000627359496F660000226349497F36009A
:1074DA0000181C16537F7F5000276745457D3900E9
:1074EA00003C7E4B4979300000030371790F070095
:1074FA0000367F49497F360000064F49693F1E0022
:10750A000000006666000000000080E666000000D9
:10751A0000081C366341000000242424242424008B
:10752A0000004163361C080000020351590F06008F
:10753A00003E7F415D5D1F1E007C7E13137E7C0032
:10754A0000417F7F49497F36001C3E6341416322E7
:10755A0000417F7F41633E1C00417F7F495D41635B
:10756A0000417F7F491D0103001C3E634151737234
:10757A00007F7F08087F7F000000417F7F41000075
:10758A0000307040417F3F0100417F7F081C7763D4
:10759A0000417F7F41406070007F7F0E1C0E7F7F1D
:1075AA00007F7F060C187F7F001C3E6341633E1CF0
:1075BA0000417F7F49090F06001E3F21717F5E004F
:1075CA0000417F7F09197F6600266F4D597332008B
:1075DA000003417F7F410300007F7F40407F7F009F
:1075EA00001F3F60603F1F00007F7F3018307F7FA1
:1075FA000043673C183C674300074F78784F070001
:10760A0000476371594D677300007F7F4141000055
:10761A00000103060C183060000041417F7F000022
:10762A0000080C0603060C08008080808080808099
:10763A00800000030704000000207454543C784082
:10764A0000417F3F4848783000387C44446C280029
:10765A0000307848493F7F4000387C54545C180019
:10766A0000487E7F490302000098BCA4A4F87C0469
:10767A0000417F7F08047C780000447D7D40000043
:10768A000060E08080FD7D0000417F7F10386C44FF
:10769A000000417F7F400000007C7C18381C7C7809
:1076AA00007C7C04047C780000387C44447C3800EC
:1076BA000084FCF8A4243C1800183C24A4F8FC8498
:1076CA0000447C784C041C1800485C545474240010
:1076DA000000043E7F442400003C7C40403C7C4047
:1076EA00001C3C60603C1C00003C7C7038707C3C98
:1076FA0000446C3810386C44009CBCA0A0FC7C0090
:10770A00004C64745C4C64000008083E77414100F8
:10771A000000000077770000004141773E0808002A
:10772A0000020301030203010070784C464C787092
:10773A00000E9F91B1FB4A00003A7A40407A7A40A3
:10774A0000387C54555D19000002237555557D7B20
:10775A0042217554547D794000217555547C7840F6
:10776A0000207457577C784000183CA4A4E44000D9
:10777A0000023B7D55555D1B02397D54545D19004D
:10778A0000397D55545C18000001457C7C4101009C
:10779A00000203457D7D43020001457D7C400000D7
:1077AA0000797D1612167D790070782B2B7870007F
:1077BA0000447C7C5555450000207454547C7C540C
:1077CA00547C7E0B097F7F4900327B49497B32001A
:1077DA0000327A48487A320000327A4A48783000D1
:1077EA00003A7B41417B7A40003A7A4240787840BD
:1077FA00009ABAA0A0FA7A000001193C66663C1900
:10780A00013D7D40407D3D0000183C24E7E72424EB
:10781A0000687E7F49436620002B2FFCFC2F2B003B
:10782A0000FFFF09092FF6F8A040C088FE7F090370
:10783A0002207454557D79400000447D7D4100004A
:10784A00003078484A7A320000387840427A7A40E2
:10785A00007A7A0A0A7A7000007D7D19317D7D00EE
:10786A000000262F292F2F280000262F292F260037
:10787A000030784D456020000038380808080800B4
:10788A000008080808383800004F6F3018CCEEBBE3
:10789A00914F6F30186C76FBF90000007B7B00007B
:1078AA0000081C3622081C362222361C0822361CE6
:1078BA0008AA005500AA005500AA55AA55AA55AA11
:1078CA0055DDFFAA77DDAAFF77000000FFFF000061
:1078DA0000101010FFFF000000141414FFFF000036
:1078EA00001010FFFF00FFFF001010F0F010F0F082
:1078FA0000141414FCFC0000001414F7F700FFFF36
:10790A00000000FFFF00FFFF001414F4F404FCFC65
:10791A000014141717101F1F0010101F1F101F1F0D
:10792A00001414141F1F000000101010F0F00000C3
:10793A00000000001F1F1010101010101F1F101041
:10794A0010101010F0F0101010000000FFFF1010BF
:10795A00101010101010101010101010FFFF10103F
:10796A0010000000FFFF1414140000FFFF00FFFFC7
:10797A001000001F1F101717140000FCFC04F4F479
:10798A001414141717101717141414F4F404F4F435
:10799A00140000FFFF00F7F714141414141414143D
:1079AA00141414F7F700F7F714141414171714140F
:1079BA001410101F1F101F1F10141414F4F41414A1
:1079CA00141010F0F010F0F01000001F1F101F1F0D
:1079DA00100000001F1F141414000000FCFC1414F3
:1079EA00140000F0F010F0F0101010FFFF10FFFF6D
:1079FA0010141414FFFF1414141010101F1F000089
:107A0A0000000000F0F0101010FFFFFFFFFFFFFF63
:107A1A00FFF0F0F0F0F0F0F0F0FFFFFFFF000000E1
:107A2A000000000000FFFFFFFF0F0F0F0F0F0F0FE7
:107A3A000F387C446C386C4400FCFE2A2A3E140041
:107A4A00007E7E020206060000027E7E027E7E0222
:107A5A000063775D4963630000387C447C3C04041E
:107A6A000080FE7E20203E1E000406027E7C060266
:107A7A000099BDE7E7BD9900001C3E6B496B3E1CAF
:107A8A00004C7E7301737E4C0030784A4F7D39007A
:107A9A0000183C243C3C243C1898FC643C3E273D9E
:107AAA0018000000000000000000000000000000B4
:107ABA0000000000000000000000000000000000BC
:107ACA0000000000000000000000000000000000AC
:107ADA00000000000000000000000000000000009C
:107AEA00000000000000000000000000000000008C
:107AFA00000000000000000000000000000000007C
:107B0A00000000000000000000000000000000006B
:107B1A00000000000000000000000000000000005B
:107B2A00000000000000000000000000000000004B
:107B3A00000000000000000000808080800000003B
:107B4A0000000000000000000000000000800000AB
:107B5A00800000800000000000000000000000001B
:107B6A00000000000000000000000000000000000B
:107B7A0000000000000000000000000000000000FB
:107B8A0000000000000000000000000000000000EB
:107B9A0000000000000000000000000000000000DB
:107BAA0000000000000000000000000000000000CB
:107BBA00000000000000003E4180808080413E00BD
:107BCA0000D894A46C00007884844C0088FC8081DE
:107BDA00FF8081FF800078848484780000D894A490
:107BEA006C00007884844C000078848484780008CF
:107BFA00FC488484780000789494580000000000BF
:107C0A00D894A46C00041C6480740C0400D894A456
:107C1A006C0004FF844000789494580088FC88041F
:107C2A00FC8804F88000000000000000000000004A
:107C3A00000000000000000000000000000000003A
:107C4A00000000000000000000000000000000002A
:107C5A00000000000000000000000000000000001A
:107C6A000000000000000000000000000000000406
:107C7A0007040000000000000000000000000000EF
:107C8A0000000000000404060100000000000000DB
:107C9A0000000000000000000000000000000000DA
:107CAA0000000000000000000000000000000000CA
:107CBA0000000000000000000000000000000000BA
:107CCA0000000000000000000000000000000000AA
:107CDA00000000000000000000000000000000009A
:107CEA000080F0F8181C0E0E1C1878F0C0800000F6
:107CFA0000000000000000000000000000000080FA
:107D0A00F0F8181C0C0E0E1C18F8F0800000000089
:107D1A000000000000000000000000000000000059
:107D2A000000000000000000000000000000000049
:107D3A000000000000000000000000000000000039
:107D4A000000000000000000000000000000000029
:107D5A000000000000000000000000000000000019
:107D6A00F8FF0F0000000000000000000FFFF800FD
:107D7A000000000000000000000000000000F8FF02
:107D8A000F0000000000000000000FFFF8000000D4
:107D9A0000000000000000000000000000000000D9
:107DAA0000000000000000000000000000000000C9
:107DBA0000000000000000000000000000000000B9
:107DCA000000000000000000000800080008001C75
:107DDA00FCF8800800080008000800080008E0FF16
:107DEA003F090008000800080008000800093FFFD2
:107DFA00E00800080008000800080008E0FF3F0942
:107E0A000008000800080008000800090F0F000811
:107E1A000008000800000000000000000000000048
:107E2A000000000000000000000000000000000048
:107E3A000000000000000000000000000000000038
:107E4A000000000000000000000000000000000028
:107E5A0000073FFCE000000000000080C0FC7F0734
:107E6A000000000000000000000000000000000701
:107E7A003FFCE000000000000000C0FC7F0700009B
:107E8A0000000000000000000000000000000000E8
:107E9A0000000000000000000000000000000000D8
:107EAA0000000000000000000000000000000000C8
:107EBA0000000000000000000000000000000000B8
:107ECA0000000000000000000000000000000000A8
:107EDA0000000001070F1C18181C0F070100000002
:107EEA000000000000000000000000000000000088
:107EFA000001070F1C18181C0C0F070100000000D6
:107F0A000000000000000000000000000000000067
:107F1A000000000000000000000000000000000057
:107F2A000000000000000000000000000000000047
:107F3A0000000000005C000C000C7C287C7C447C67
:107F4A00241048285408000C003844004438002003
:107F5A001008103810804000101010004000201047
:107F6A0008384438007C006454484454281C107C67
:107F7A004C542438542004740C28542808543800CB
:107F8A0050008050001028442828284428100454FF
:107F9A0008384C5C7814787C54283844447C44383B
:107FAA007C54447C14043844347C107C007C0020CB
:107FBA00403C7C106C7C40407C087C7C047C7C448B
:107FCA007C7C14083844787C1468485424047C0463
:107FDA007C407C3C403C7C207C6C106C1C601C64AB
:107FEA00544C7C4400081020447C0008040880801B
:057FFA008004080000F6
:020000040020DA
:08000000FFFFFFFFFFFFFFFF00
:020000040030CA
:0E000000000C191EFF8181FF0FC00FE00F40A2
:00000001FF
