:020000040000FA
:0400000007EF00F016
:100008005E82CEED0DF083EF18F00450800B0D6E7C
:10001800045004240F6E03AE14EF00F016EF00F046
:1000280017EF00F00F800F50D8B41DEF00F01FEF4E
:1000380000F034EF00F00F28D8A425EF00F027EFE8
:1000480000F02FEF00F0000E016E000E026E000EA1
:10005800036E000E046E038E000E046E3CEF00F07B
:10006800000E016E000E026E000E036E000E046E8E
:100078000850800B0E6E0D500E18D8B446EF00F0E5
:1000880048EF00F049EF00F00D8C085008240E6E80
:1000980007AE51EF00F053EF00F054EF00F00E8080
:1000A8000E50D8B45AEF00F05CEF00F071EF00F09A
:1000B8000E28D8A462EF00F064EF00F06CEF00F0B7
:1000C800000E056E000E066E000E076E000E086E1E
:1000D800078E000E086E79EF00F0000E056E000E18
:1000E800066E000E076E000E086E0F500E5CD8B03C
:1000F80080EF00F082EF00F0A9EF00F00DAC87EF81
:1001080000F089EF00F08BEF00F0800E0D1A0FC0A1
:1001180010F00EC00FF010C00EF001C010F005C0B6
:1001280001F010C005F002C010F006C002F010C0C7
:1001380006F003C010F007C003F010C007F004C0B9
:1001480010F008C004F010C008F0000E106E0F5038
:100158000EC009F00A6A095E000E0A5A0ABEBEEF0E
:1001680000F00A5009E11A0E095CD8A0BEEF00F0B1
:10017800C0EF00F0F7EF00F0015002100310041078
:10018800D8A4C9EF00F0CCEF00F0010ECDEF00F0DD
:10019800000E106E000E016E000E026E000E036E51
:1001A800000E046E0EC00FF000EF01F010A0DFEF9C
:1001B80000F0E1EF00F0E7EF00F0D890103001090F
:1001C800106EE9EF00F0D890103201A0EEEF00F0C9
:1001D800F0EF00F0F1EF00F0108E04340432033237
:1001E800023201320F2A0E500F5CD8A0FEEF00F049
:1001F80000EF01F0DAEF00F00DBC05EF01F007EFBA
:1002080001F047EF01F00F50D8A40DEF01F00FEF08
:1002180001F019EF01F0000E016E000E026E000EE3
:10022800036E000E046E68EF02F0055001260650BA
:100238000222075003220850042204A026EF01F0EE
:1002480028EF01F0D4EF01F010A02DEF01F02FEF0F
:1002580001F035EF01F0D89010300109106E37EF3A
:1002680001F0D890103201A03CEF01F03EEF01F010
:100278003FEF01F0108E04340432033202320132AF
:100288000F2AD4EF01F00550015C065002580750C0
:1002980003580450800A096E0850800A0958D8B0DB
:1002A80058EF01F05AEF01F085EF01F00150055CBD
:1002B800096E025006580A6E035007580B6E045018
:1002C80008580C6EFF0E0924016EFF0E0A20026EFC
:1002D800FF0E0B20036EFF0E0C20046E800E0D1A0D
:1002E800106C1050D8A47BEF01F07DEF01F08DEF7A
:1002F80001F0010E0126000E0222032204228DEFD6
:1003080001F00550015E0650025A0750035A085082
:10031800045A0150021003100410D8A496EF01F0FB
:1003280098EF01F0CDEF01F01050D8A49EEF01F046
:10033800A0EF01F0CDEF01F0000E016E000E026E8D
:10034800000E036E000E046E68EF02F0D8900136BE
:1003580002360336043610AEB4EF01F0B6EF01F002
:10036800B7EF01F0018010A0BCEF01F0BEEF01F083
:10037800C2EF01F0D8801036C4EF01F0D8901036E3
:100388000F50D8B4CAEF01F0CCEF01F0CDEF01F077
:100398000F0603AED2EF01F0D4EF01F0AAEF01F09F
:1003A800000E0E6E10AEDBEF01F0DDEF01F0F5EFA1
:1003B80001F010C009F07F0E0916D8B4E6EF01F07D
:1003C800E8EF01F0ECEF01F0010E0E6EF5EF01F031
:1003D80001A0F1EF01F0F3EF01F0F5EF01F0E8EF24
:1003E80001F00E50D8B4FBEF01F0FDEF01F028EF5B
:1003F80002F0010E0126000E02220322042204A0AC
:1004080008EF02F00AEF02F028EF02F001C009F04D
:1004180002C00AF003C00BF004C00CF00C340C321C
:100428000B320A32093209C001F00AC002F00BC0CF
:1004380003F00CC004F00F28D8B425EF02F027EF22
:1004480002F028EF02F00F2A0F28D8B42EEF02F09E
:1004580030EF02F038EF02F00F50D8A436EF02F078
:1004680038EF02F04AEF02F0000E016E000E026E45
:10047800000E036E000E046E0F50D8A446EF02F073
:1004880048EF02F04AEF02F0000E0D6E0FA04FEF9A
:1004980002F051EF02F054EF02F0038E55EF02F034
:1004A800039ED8900F30046E0DAE5DEF02F05FEF43
:1004B80002F060EF02F0048E01C001F002C002F009
:1004C80003C003F004C004F0120000018651800B41
:1004D8008F6F86518625956F85AF75EF02F077EFA0
:1004E80002F078EF02F095819551D8B47EEF02F0D2
:1004F80080EF02F093EF02F09529D8A486EF02F07E
:1005080088EF02F090EF02F0000E836F000E846F08
:10051800000E856F000E866F858F9BEF02F0000E30
:10052800836F000E846F000E856F000E866F8A51F0
:10053800800B8F1B8A518A25906F89AFA6EF02F036
:10054800A8EF02F0A9EF02F090819051D8B4AFEF74
:1005580002F0B1EF02F0C4EF02F09029D8A4B7EF8F
:1005680002F0B9EF02F0C1EF02F0000E876F000E43
:10057800886F000E896F000E8A6F898FCCEF02F0AA
:10058800000E876F000E886F000E896F000E8A6F4D
:100598009051D8B4D2EF02F0D4EF02F0DCEF02F0C1
:1005A8009551D8A4DAEF02F0DCEF02F0E6EF02F0A2
:1005B800000E836F000E846F000E856F000E866F2D
:1005C8007EEF04F089518303F3CF9AF0F4CF9BF0C8
:1005D8009A51916F926B936B946B9B51966F976B3B
:1005E800986B996B88518403F3CF9AF0F4CF9BF002
:1005F8009A519127000E9223932394239B51962777
:10060800000E97239823992387518503F3CF9AF0F7
:10061800F4CF9BF09A519127000E922393239423B1
:100628009B519627000E97239823992393C094F003
:1006380092C093F091C092F0916B87518403F3CFED
:100648009AF0F4CF9BF09A5191279B519223000E78
:100658009323000E942388518303F3CF9AF0F4CFA9
:100668009BF09A5191279B519223000E9323000EE1
:10067800942393C094F092C093F091C092F0916B40
:1006880087518303F3CF9AF0F4CF9BF09A519127C7
:100698009B519223000E9323000E942389518403C7
:1006A800F3CF9AF0F4CF9BF09A5196279B5197235A
:1006B800000E9823000E992388518503F3CF9AF0F2
:1006C800F4CF9BF09A5196279B519723000E9823BD
:1006D800000E992389518503F3CF9AF0F4CF9BF04C
:1006E8009A518B6F9B518C6F8D6B8E6B8DC08EF07A
:1006F8008CC08DF08BC08CF08B6B8B5196278C51F6
:1007080097238D5198238E51992391C08BF092C0D5
:100718008CF093C08DF094C08EF0190E99EF03F011
:10072800D8908E338D338C338B33E82E94EF03F0CF
:100738008B5196278C5197238D5198238E5199234D
:1007480093C094F092C093F091C092F0916B905145
:1007580095C08BF08C6B8B27000E8C23820E8B251B
:100768009A6FFF0E8C219B6FCFEF03F0D8909637CE
:1007780097379837993794AFC4EF03F0C6EF03F073
:10078800C7EF03F09681D890913792379337943713
:100798009A07D8A09B0798AFD4EF03F0D6EF03F0E1
:1007A800BAEF03F0000E906F94AFDDEF03F0DFEFC8
:1007B80003F003EF04F0FF0E91158B6FFF0E9215F7
:1007C8008C6FFF0E93158D6F7F0E94158E6F8B5166
:1007D8008C118D118E11D8B4F4EF03F0F6EF03F0FD
:1007E800FAEF03F0010E906F03EF04F096A1FFEF0C
:1007F80003F001EF04F003EF04F0F6EF03F090517B
:10080800D8B409EF04F00BEF04F02FEF04F0010E59
:100818009627000E97239823992399A116EF04F0A1
:1008280018EF04F02FEF04F096C08BF097C08CF00F
:1008380098C08DF099C08EF08E358E338D338C3301
:100848008B338BC096F08CC097F08DC098F08EC01B
:1008580099F09A4B9B2B9BBF3AEF04F09B5108E110
:100868009A29D8A03AEF04F03CEF04F046EF04F0E0
:10087800000E966F000E976F800E986F7F0E996F1F
:1008880074EF04F09BBF53EF04F09B5106E19A0507
:10089800D8B051EF04F053EF04F05FEF04F0000E0E
:1008A800966F000E976F000E986F000E996F000EEE
:1008B8008F6F74EF04F09AC095F0FF0E9617FF0E35
:1008C80097177F0E9817000E991795A16EEF04F0F1
:1008D80070EF04F071EF04F0988FD8909531996F0C
:1008E8008F51991396C083F097C084F098C085F013
:1008F80099C086F012001250800B1B6E1250122401
:10090800216E11AE8AEF04F08CEF04F08DEF04F045
:1009180021802150D8B493EF04F095EF04F0A8EFAC
:1009280004F02128D8A49BEF04F09DEF04F0A5EF74
:1009380004F0000E0F6E000E106E000E116E000E09
:10094800126E118EB0EF04F0000E0F6E000E106ED6
:10095800000E116E000E126E1650800B1B1A1650E8
:100968001624206E15AEBBEF04F0BDEF04F0BEEF09
:1009780004F020802050D8B4C4EF04F0C6EF04F08F
:10098800D9EF04F02028D8A4CCEF04F0CEEF04F07F
:10099800D6EF04F0000E136E000E146E000E156EE6
:1009A800000E166E158EE1EF04F0000E136E000EA9
:1009B800146E000E156E000E166E2050D8B4E7EFB8
:1009C80004F0E9EF04F0F1EF04F02150D8A4EFEFC0
:1009D80004F0F1EF04F0FBEF04F0000E0F6E000ED0
:1009E800106E000E116E000E126E93EF06F0155089
:1009F8000F02F3CF26F0F4CF27F026501C6E1D6AA5
:100A08001E6A1F6A2750226E236A246A256A1450B8
:100A18001002F3CF26F0F4CF27F026501C26000E44
:100A28001D221E221F2227502226000E23222422A6
:100A3800252213501102F3CF26F0F4CF27F02650C9
:100A48001C26000E1D221E221F2227502226000EC1
:100A58002322242225221EC01FF01DC01EF01CC008
:100A68001DF01C6A13501002F3CF26F0F4CF27F0C4
:100A780026501C2627501D22000E1E22000E1F2263
:100A880014500F02F3CF26F0F4CF27F026501C267F
:100A980027501D22000E1E22000E1F221EC01FF00E
:100AA8001DC01EF01CC01DF01C6A13500F02F3CFAE
:100AB80026F0F4CF27F026501C2627501D22000EC2
:100AC8001E22000E1F2215501002F3CF26F0F4CF7D
:100AD80027F02650222627502322000E2422000E1B
:100AE800252214501102F3CF26F0F4CF27F0265018
:100AF800222627502322000E2422000E25221550DC
:100B08001102F3CF26F0F4CF27F02650176E2750A6
:100B1800186E196A1A6A19C01AF018C019F017C0A5
:100B280018F0176A17502226185023221950242229
:100B38001A5025221CC017F01DC018F01EC019F04D
:100B48001FC01AF0190EAEEF05F0D8901A321932FC
:100B580018321732E82EA9EF05F017502226185040
:100B68002322195024221A5025221EC01FF01DC00E
:100B78001EF01CC01DF01C6A205021C017F0186A16
:100B88001726000E1822820E1724266EFF0E182034
:100B9800276EE4EF05F0D890223623362436253622
:100BA8001FAED9EF05F0DBEF05F0DCEF05F0228092
:100BB800D8901C361D361E361F362606D8A02706A6
:100BC80024AEE9EF05F0EBEF05F0CFEF05F0000EEE
:100BD800206E1FAEF2EF05F0F4EF05F018EF06F007
:100BE800FF0E1C14176EFF0E1D14186EFF0E1E1438
:100BF800196E7F0E1F141A6E1750181019101A103C
:100C0800D8B409EF06F00BEF06F00FEF06F0010E6F
:100C1800206E18EF06F022A014EF06F016EF06F08B
:100C280018EF06F00BEF06F02050D8B41EEF06F0D0
:100C380020EF06F044EF06F0010E2226000E2322D4
:100C48002422252225A02BEF06F02DEF06F044EFF5
:100C580006F022C017F023C018F024C019F025C0F0
:100C68001AF01A341A3219321832173217C022F011
:100C780018C023F019C024F01AC025F0264A272AE4
:100C880027BE4FEF06F0275008E12628D8A04FEFDF
:100C980006F051EF06F05BEF06F0000E226E000E34
:100CA800236E800E246E7F0E256E89EF06F027BE18
:100CB80068EF06F0275006E12604D8B066EF06F084
:100CC80068EF06F074EF06F0000E226E000E236E39
:100CD800000E246E000E256E000E1B6E89EF06F0C6
:100CE80026C021F0FF0E2216FF0E23167F0E2416B3
:100CF800000E251621A083EF06F085EF06F086EF9B
:100D080006F0248ED8902130256E1B50251222C063
:100D18000FF023C010F024C011F025C012F012000B
:100D280000016D51800B7A6F6D516D25816F6CAF2D
:100D3800A0EF06F0A2EF06F0A3EF06F08181815143
:100D4800D8B4A9EF06F0ABEF06F0C0EF06F08129A2
:100D5800D8A4B1EF06F0B3EF06F0BBEF06F0000E33
:100D68006A6F000E6B6F000E6C6F000E6D6F6C8FEC
:100D7800000E6D6FC8EF06F0000E6A6F000E6B6F05
:100D8800000E6C6F000E6D6F7151800B7A1B7151E4
:100D98007125826F70AFD3EF06F0D5EF06F0D6EF6E
:100DA80006F082818251D8B4DCEF06F0DEEF06F05F
:100DB800F3EF06F08229D8A4E4EF06F0E6EF06F098
:100DC800EEEF06F0000E6E6F000E6F6F000E706F84
:100DD800000E716F708F000E716FFBEF06F0000E42
:100DE8006E6F000E6F6F000E706F000E716F6E5198
:100DF8006F1170117111D8A404EF07F006EF07F016
:100E08001EEF07F0000E6A6F000E6B6F000E6C6F1E
:100E1800000E6D6F800E6C137F0E6D137A516D137B
:100E28006AC06AF06BC06BF06CC06CF06DC06DF09E
:100E380061EF08F08151D8A424EF07F026EF07F0FE
:100E480030EF07F0000E6A6F000E6B6F000E6C6FCC
:100E5800000E6D6F61EF08F0825181C072F0736B04
:100E6800725F000E735B7F0E72257B6F000E73211D
:100E78007C6F6AC076F06BC077F06CC078F06DC09C
:100E880079F0000E6A6F000E6B6F000E6C6F000E2B
:100E98006D6F000E7D6F000E7E6F000E7F6F000E6F
:100EA800806F000E826F91EF07F08251D8B45FEF28
:100EB80007F061EF07F078EF07F0D89076377737CB
:100EC80078377937D8906A376B376C376D3780AF9A
:100ED80070EF07F072EF07F073EF07F06A81D890B0
:100EE8007D377E377F3780376E51765D6F51775902
:100EF8007051785971517959D8A085EF07F087EF6B
:100F080007F090EF07F0808D6E51765F6F51775B39
:100F18007051785B7151795B822B190E826597EF5E
:100F280007F099EF07F059EF07F07651771178112C
:100F38007911D8B4A2EF07F0A4EF07F0BCEF07F0DF
:100F48007D81BCEF07F0D8906A376B376C376D3707
:100F580080AFB1EF07F0B3EF07F0B4EF07F06A81A5
:100F6800D8907D377E377F3780377B07D8A07C07BE
:100F78006CAFC1EF07F0C3EF07F0A7EF07F0000E63
:100F8800826F80AFCAEF07F0CCEF07F0F0EF07F001
:100F9800FF0E7D15726FFF0E7E15736FFF0E7F15A6
:100FA800746F7F0E8015756F7251731174117511FE
:100FB800D8B4E1EF07F0E3EF07F0E7EF07F0010E31
:100FC800826FF0EF07F06AA1ECEF07F0EEEF07F0A1
:100FD800F0EF07F0E3EF07F08251D8B4F6EF07F02F
:100FE800F8EF07F01CEF08F0010E6A27000E6B23DC
:100FF8006C236D236DA103EF08F005EF08F01CEFDB
:1010080008F06AC072F06BC073F06CC074F06DC009
:1010180075F07535753374337333723372C06AF093
:1010280073C06BF074C06CF075C06DF07B4B7C2B9B
:101038007CBF27EF08F07C5108E17B29D8A027EF77
:1010480008F029EF08F034EF08F0000E7C6F7B6998
:10105800000E6A6F000E6B6F000E6C6F000E6D6FE6
:101068007CBF41EF08F07C5106E17B05D8B03FEF2B
:1010780008F041EF08F04FEF08F0000E7C6F000E0B
:101088007B6F000E6A6F000E6B6F000E6C6F000EA8
:101098006D6F000E7A6F7BC081F081A156EF08F06A
:1010A80058EF08F05BEF08F06C8F5CEF08F06C9F6E
:1010B800D89081316D6F12EF07F01200000E5D6E4F
:1010C800000E5C6E000E0001F16F010EF06FEE0570
:1010D800EF11D8A472EF08F074EF08F00CEF09F0E4
:1010E800000EEF6F000EEE6FC7C041F1C8C042F1AD
:1010F800C5C043F1C6C044F1C3C045F1C4C046F100
:10110800C1C047F1C2C048F1000E0101576F000E7F
:10111800566F56C174F00F0EE3EC17F0470E00013E
:101128007D6F010E7E6F010E7F6F010E806FB6EC32
:1011380018F00101564B572B57BFACEF08F0575129
:1011480009E1080E565DD8A0ACEF08F0AEEF08F044
:101158008DEF08F0000E00017C6F000E7B6F000E13
:101168007E6F110E7D6F000E806F140E7F6F000E64
:10117800826F110E816F000E846F010E836F78EC01
:1011880013F00001F251F311D8A4CDEF08F0CFEF1E
:1011980008F0E1EF08F0010E746F020EE3EC17F0AF
:1011A800410E00017D6F010E7E6F010E7F6F010EF3
:1011B800806FB6EC18F00CEF09F0F205F311D8A423
:1011C800E8EF08F0EAEF08F0FCEF08F0010E746FA2
:1011D800020EE3EC17F0430E00017D6F010E7E6FE7
:1011E800010E7F6F010E806FB6EC18F00CEF09F05E
:1011F800010E746F020EE3EC17F0450E00017D6FCF
:10120800010E7E6F010E7F6F010E806FB6EC18F035
:101218000001E251300F0101496F0001E451300F24
:1012280001014A6F5850300F4B6F0001E651300FE3
:1012380001014C6F000E4D6F000E4E6F000E4F6F88
:1012480049C14DF12E0E4E6F000E4F6F000E516FBB
:10125800000E506F4AC150F1000E516F000E536FCF
:10126800000E526F4BC152F1000E536F000E556FB6
:10127800000E546F4CC154F1000E556F030E00015F
:10128800746F020EE3EC17F04D0E00017D6F010E36
:101298007E6F010E7F6F010E806FB6EC18F0040EA2
:1012A8000001746F020EE3EC17F0500E00017D6F21
:1012B800010E7E6F010E7F6F010E806FB6EC18F085
:1012C800050E0001746F020EE3EC17F0520E0001D8
:1012D8007D6F010E7E6F010E7F6F010E806FB6EC81
:1012E80018F0060E0001746F020EE3EC17F0540EAE
:1012F80000017D6F010E7E6F010E7F6F010E806F02
:10130800B6EC18F00001EDBF95EF09F0ED5107E1DB
:10131800630EEC5DD8B093EF09F095EF09F0BDEFDF
:1013280009F01C0EEC257B6F000EED217C6F000E82
:101338007E6F000E7D6F1C0EEC257F6F000EED2179
:10134800806F000E826F400E816F000E846F000E5A
:10135800836F78EC13F08EC074F0010E0001756F86
:10136800EC511B0F63EC14F00001EC4BED2BEFEF8D
:1013780009F0EDBFC9EF09F0ED5109E1630EEC5D2D
:10138800D8A0C9EF09F0CBEF09F0EFEF09F0000E94
:10139800ED6F000EEC6F000E7C6F1C0E7B6F000E65
:1013A8007E6F000E7D6F000E806F1C0E7F6F000E2B
:1013B800826F400E816F000E846F000E836F78EC91
:1013C80013F08EC074F0010E0001756F1B0E63ECF4
:1013D80014F0B8EF09F0120028C001F029C002F09B
:1013E800000E02BEFF0E036E046E010EF4EC0CF04C
:1013F80001C00FF002C010F003C011F004C012F0D9
:10140800A10E136EDE0E146EA70E156E3C0E166E30
:101418007FEC04F00FC02AF010C02BF011C02CF0A4
:1014280012C02DF02AC001F02BC002F02CC003F02E
:101438002DC004F0F5EC12F001C0E2F002C0E3F0B8
:101448002AC011F02BC012F02CC013F02DC014F0DC
:10145800E2C001F0E3C002F0000E02BEFF0E036E10
:10146800046E010EF4EC0CF001C015F002C016F089
:1014780003C017F004C018F037EC19F011C02AF0B7
:1014880012C02BF013C02CF014C02DF02AC00FF09E
:101498002BC010F02CC011F02DC012F0000E136EEE
:1014A800000E146E200E156E410E166E7FEC04F0C1
:1014B8000FC02AF010C02BF011C02CF012C02DF074
:1014C8002AC001F02BC002F02CC003F02DC004F09C
:1014D800F5EC12F001C0E4F002C0E5F02AC011F00A
:1014E8002BC012F02CC013F02DC014F0E4C001F092
:1014F800E5C002F0000E02BEFF0E036E046E010E80
:10150800F4EC0CF001C015F002C016F003C017F09F
:1015180004C018F037EC19F011C02AF012C02BF0F3
:1015280013C02CF014C02DF02AC00FF02BC010F0FF
:101538002CC011F02DC012F0000E136E000E146EA8
:10154800200E156E410E166E7FEC04F00FC02AF0C7
:1015580010C02BF011C02CF012C02DF02AC001F0E1
:101568002BC002F02CC003F02DC004F0F5EC12F0F3
:1015780001C058F002C059F02AC011F02BC012F077
:101588002CC013F02DC014F058C001F059C002F05F
:10159800000E02BEFF0E036E046E010EF4EC0CF09A
:1015A80001C015F002C016F003C017F004C018F00F
:1015B80037EC19F011C02AF012C02BF013C02CF030
:1015C80014C02DF02AC00FF02BC010F02CC011F061
:1015D8002DC012F0000E136E000E146E200E156E44
:1015E800410E166E7FEC04F00FC02AF010C02BF0ED
:1015F80011C02CF012C02DF02AC001F02BC002F04F
:101608002CC003F02DC004F0F5EC12F001C0E6F098
:1016180002C0E7F0E6C001F0E7C002F079EC0EF096
:1016280001C0E0F002C0E1F058C001F059C002F07A
:1016380079EC0EF001C0DEF002C0DFF0E4C001F08A
:10164800E5C002F079EC0EF001C0DCF002C0DDF07C
:10165800E2C001F0E3C002F079EC0EF0800E012444
:101668000001DA6F000E0220DB6F12000001EA05AC
:10167800EB11D8A442EF0BF044EF0BF04BEF0BF05B
:10168800000EEB6F000EEA6F000E9BEC17F0000ED9
:101698005D6E010E5C6E21EE10F010EE25F00F0E5F
:1016A800DBCFE3FFE806FCE221EE20F010EE45F088
:1016B8000E0EDBCFE3FFE806FCE221EE00F010EEB1
:1016C80035F00F0EDBCFE3FFE806FCE2CBC054F0A9
:1016D800CCC055F0C9C056F0CAC057F0000E0B6E0A
:1016E800020E4FEC18F0250E146E000E156E010E4A
:1016F800166E010E176EE5EC18F0020E0B6E020E58
:101708004FEC18F0450E146E000E156E010E166E95
:10171800010E176EE5EC18F0030E0B6E020E4FEC7F
:1017280018F0350E146E000E156E010E166E010EB1
:10173800176EE5EC18F0030E0B6E020E4FEC18F066
:10174800050E0B6E2A0E4FEC18F0540E146E000E98
:10175800156E010E166E010E176EE5EC18F0050EEB
:101768000B6E520E4FEC18F0560E146E000E156EDE
:10177800010E166E010E176EE5EC18F05C045D1094
:10178800D8A4C9EF0BF0CBEF0BF0ECEF0BF05A50ED
:101798005B10D8A4D2EF0BF0D4EF0BF0ECEF0BF00A
:1017A800000E136E2A0E126E000E156E340E146E95
:1017B800000E176E320E166E000E196E340E186E6D
:1017C800000E1B6E010E1A6EEFEC13F017EF0CF003
:1017D8005C045D10D8A4F3EF0BF0F5EF0BF016EFF7
:1017E8000CF05A045B10D8A4FCEF0BF0FEEF0BF0E2
:1017F80016EF0CF0000E136E520E126E000E156EE0
:10180800340E146E000E176E5A0E166E000E196EF8
:10181800340E186E000E1B6E010E1A6EEFEC13F0EC
:1018280017EF0CF000F012000001726F0001725106
:10183800D8B421EF0CF023EF0CF045EF0CF06DBF9E
:101848002AEF0CF028EF0CF045EF0CF06AC06EF0B0
:101858006BC06FF06CC070F06DC071F06E1F6F1FC1
:10186800701F711F6E2B000E6F23702371236EC0C3
:1018780074F06FC075F070C076F071C077F04DEFFE
:101888000CF06AC074F06BC075F06CC076F06DC077
:1018980077F06A516B116C116D11D8A456EF0CF0EA
:1018A80058EF0CF062EF0CF0000E6A6F000E6B6FD1
:1018B800000E6C6F000E6D6FF3EF0CF0960E736FE9
:1018C8006CEF0CF0732BD890773376337533743311
:1018D800000E74156E6F000E75156F6F000E76157D
:1018E800706FFE0E7715716F6E516F117011711157
:1018F800D8A481EF0CF083EF0CF066EF0CF091EFB9
:101908000CF0732B010E7427000E752376237723B2
:10191800D8907733763375337433000E74156E6F41
:10192800000E75156F6F000E7615706FFF0E771528
:10193800716F6E516F1170117111D8A4A6EF0CF070
:10194800A8EF0CF085EF0CF0B0EF0CF07307D8900F
:10195800743775377637773776BFB5EF0CF0B7EF52
:101968000CF0BFEF0CF0020E7361BDEF0CF0BFEF8F
:101978000CF0AAEF0CF073B1C4EF0CF0C6EF0CF04A
:10198800C7EF0CF0769FD890733373C06EF06F6B0F
:10199800706B716B6EC071F0706B6F6B6E6B6E51AC
:1019A80074136F5175137051761371517713725107
:1019B800D8B4E1EF0CF0E3EF0CF0EBEF0CF06DBFF7
:1019C800EAEF0CF0E8EF0CF0EBEF0CF0778F74C057
:1019D8006AF075C06BF076C06CF077C06DF01200DD
:1019E800096E0950D8B4FBEF0CF0FDEF0CF01FEFB7
:1019F8000DF004BE04EF0DF002EF0DF01FEF0DF037
:101A080001C005F002C006F003C007F004C008F0EA
:101A1800051E061E071E081E052A000E062207229E
:101A2800082205C00BF006C00CF007C00DF008C076
:101A38000EF027EF0DF001C00BF002C00CF003C050
:101A48000DF004C00EF00150021003100410D8A4C9
:101A580030EF0DF032EF0DF03CEF0DF0000E016E9F
:101A6800000E026E000E036E000E046ECDEF0DF038
:101A7800960E0A6E46EF0DF00A2AD8900E320D32F5
:101A88000C320B32000E0B14056E000E0C14066E91
:101A9800000E0D14076EFE0E0E14086E055006108B
:101AA80007100810D8A45BEF0DF05DEF0DF040EFC4
:101AB8000DF06BEF0DF00A2A010E0B26000E0C221A
:101AC8000D220E22D8900E320D320C320B32000E3F
:101AD8000B14056E000E0C14066E000E0D14076E26
:101AE800FF0E0E14086E0550061007100810D8A433
:101AF80080EF0DF082EF0DF05FEF0DF08AEF0DF043
:101B08000A06D8900B360C360D360E360DBE8FEF02
:101B18000DF091EF0DF099EF0DF0020E0A6097EFBE
:101B28000DF099EF0DF084EF0DF00AB09EEF0DF077
:101B3800A0EF0DF0A1EF0DF00D9ED8900A320AC06B
:101B480005F0066A076A086A05C008F0076A066AA7
:101B5800056A05500B1206500C1207500D1208505A
:101B68000E120950D8B4BBEF0DF0BDEF0DF0C5EF64
:101B78000DF004BEC4EF0DF0C2EF0DF0C5EF0DF08F
:101B88000E8E0BC001F00CC002F00DC003F00EC0A9
:101B980004F012000600E1CF60F0E2CF61F0D9CF87
:101BA80062F0DACF63F0F3CF64F0F4CF65F0F6CFEC
:101BB80066F0F7CF67F0F8CF68F0F5CF69F09EAC24
:101BC800E8EF0DF0EAEF0DF0F5EF0DF09E9CC4CFB5
:101BD800E8F00001E96BE8C028F0E9C029F0F0EC72
:101BE80009F0F2A0FAEF0DF0FCEF0DF063EF0EF044
:101BF800F29081AC02EF0EF004EF0EF062EF0EF0FF
:101C08000001D251D311D8A40CEF0EF00EEF0EF054
:101C18005EEF0EF05C045D10D8A415EF0EF017EF20
:101C28000EF033EF0EF05A505B10D8A41EEF0EF0F2
:101C380020EF0EF033EF0EF0000EEB6F010EEA6F9F
:101C4800000E5B6E010E5A6E000E0B6E000E4FEC0E
:101C580018F0000E9BEC17F000D03AEC0BF05C0487
:101C68005D10D8A43AEF0EF03CEF0EF059EF0EF0ED
:101C78005A045B10D8A443EF0EF045EF0EF059EF6D
:101C88000EF0000E0001EB6F010EEA6F000E5B6EA6
:101C9800000E5A6E000E0B6E000E4FEC18F0000E80
:101CA8009BEC17F000D03AEC0BF00001D24BD32B91
:101CB80062EF0EF0000ED36F000ED26F815069C034
:101CC800F5FF68C0F8FF67C0F7FF66C0F6FF65C09C
:101CD800F4FF64C0F3FF63C0DAFF62C0D9FF61C0DC
:101CE800E2FF60C0E1FF5E92110001500210D8A42B
:101CF80080EF0EF082EF0EF088EF0EF0000E026E0D
:101D08003F0E016E1AEF0FF001040210D8A48FEFF6
:101D18000EF091EF0EF097EF0EF0000E026E060E29
:101D2800016E1AEF0FF0020E01180210D8A49FEFEF
:101D38000EF0A1EF0EF0A7EF0EF0000E026E5B0E94
:101D4800016E1AEF0FF0030E01180210D8A4AFEFBE
:101D58000EF0B1EF0EF0B7EF0EF0000E026E4F0E60
:101D6800016E1AEF0FF0040E01180210D8A4BFEF8D
:101D78000EF0C1EF0EF0C7EF0EF0000E026E660E09
:101D8800016E1AEF0FF0050E01180210D8A4CFEF5C
:101D98000EF0D1EF0EF0D7EF0EF0000E026E6D0EC2
:101DA800016E1AEF0FF0060E01180210D8A4DFEF2B
:101DB8000EF0E1EF0EF0E7EF0EF0000E026E7D0E72
:101DC800016E1AEF0FF0070E01180210D8A4EFEFFA
:101DD8000EF0F1EF0EF0F7EF0EF0000E026E070EA8
:101DE800016E1AEF0FF0080E01180210D8A4FFEFC9
:101DF8000EF001EF0FF007EF0FF0000E026E7F0EEE
:101E0800016E1AEF0FF0090E01180210D8A40FEF97
:101E18000FF011EF0FF017EF0FF0000E026E6F0EBC
:101E2800016E1AEF0FF0000E026E01681200BEC0BC
:101E380096F0BFC097F0C0C098F020EEB9F010EE51
:101E480091F0040EDBCFE3FFE806FCE2CDC099F089
:101E5800CEC09AF021EE39F010EE83F0070EDBCFFA
:101E6800E3FFE806FCE220EEADF010EE8BF0050E85
:101E7800DBCFE3FFE806FCE2000E0001746F340ECE
:101E8800E3EC17F0960E00017D6F000E7E6F010ED9
:101E98007F6F010E806FB6EC18F0020E0001746FB0
:101EA8002D0EE3EC17F0910E00017D6F000E7E6F92
:101EB800010E7F6F010E806FB6EC18F0030E000163
:101EC800746F360EE3EC17F0990E00017D6F000E6B
:101ED8007E6F010E7F6F010E806FB6EC18F0040E56
:101EE8000001746F230EE3EC17F0830E00017D6F81
:101EF800000E7E6F010E7F6F010E806FB6EC18F03A
:101F0800050E0001746F360EE3EC17F0990E000110
:101F18007D6F000E7E6F010E7F6F010E806FB6EC35
:101F280018F0060E0001746F290EE3EC17F08B0E03
:101F380000017D6F000E7E6F010E7F6F010E806FB6
:101F4800B6EC18F0150E0001826F4B0E816FBE0EB5
:101F5800E82EFED7812FFCD7822FFAD700F0000E8B
:101F680053EC17F000D012000001776F000E00014B
:101F78007C6F0A0E7719D8A4C4EF0FF0C6EF0FF0E4
:101F8800CBEF0FF0000EF56FF42B44EF10F03F0E7F
:101F9800F565D1EF0FF0D3EF0FF0DAEF0FF0010E88
:101FA8007C6FF551C00F7A6FDCEF0FF0F5C07AF057
:101FB8007751080DF3CF78F0F4CF79F0000E7B6FEE
:101FC8003F0E7A65EAEF0FF0ECEF0FF0FFEF0FF03E
:101FD800400E7A5F010E7C6F8A947A514009726FC5
:101FE800010E96EC19F00001F451B809726F010E58
:101FF80096EC19F08A8400017451D8B406EF10F0F9
:1020080008EF10F020EF10F03B0E756F730E766F2F
:102018007B517527000E76237851752779517623E1
:1020280075C0F6FF76C0F7FF0800F5CF72F07C5157
:1020380096EC19F037EF10F03B0E756F730E766F54
:102048007B517527000E76237851752779517623B1
:1020580075C0F6FF76C0F7FF0800F550FF0A726FEB
:102068007C5196EC19F000017A2B7B2B070E7B65CF
:1020780040EF10F042EF10F0E4EF0FF0080EF527F4
:1020880012000001786F000E00017A6F0A0E7819AD
:10209800D8A451EF10F053EF10F058EF10F0000EE5
:1020A800F56FF42BD1EF10F03F0EF5655EEF10F0F1
:1020B80060EF10F067EF10F0010E7A6FF551C00F66
:1020C800776F69EF10F0F5C077F0200E785F000E9B
:1020D800796F3F0E776573EF10F075EF10F088EFAA
:1020E80010F0400E775F010E7A6F8A94775140099D
:1020F800726F010E96EC19F00001F451B809726F75
:10210800010E96EC19F08A8400017451D8B48FEF4F
:1021180010F091EF10F0ABEF10F07851030D3B0E7B
:10212800756F7F0E766FF3507527F45076237951CB
:102138007527000E762375C0F6FF76C0F7FF0800F6
:10214800F5CF72F07A5196EC19F0C4EF10F078518F
:10215800030D3B0E756F7F0E766FF3507527F450A5
:10216800762379517527000E762375C0F6FF76C061
:10217800F7FF0800F550FF0A726F7A5196EC19F0D4
:102188000001772B792B020E7965CDEF10F0CFEF98
:1021980010F06DEF10F0050EF52712000E6E000E10
:1021A800136E0A0E0E18D8A4DCEF10F0DEEF10F054
:1021B800E4EF10F0000E0001F56FF42B5DEF11F065
:1021C8003F0E0001F565EBEF10F0EDEF10F0F4EFC6
:1021D80010F0010E136EF551C00F116EF6EF10F0EE
:1021E800F5C011F00E50080DF3CF0FF0F4CF10F03A
:1021F800000E126E3F0E116404EF11F006EF11F09D
:1022080019EF11F0400E115E010E136E8A941150F1
:102218004009096E010EB1EC19F00001F451B8093A
:10222800096E010EB1EC19F08A840B50D8B41FEF77
:1022380011F021EF11F039EF11F03B0E0C6E730E17
:102248000D6E12500C26000E0D220F500C26105049
:102258000D220CC0F6FF0DC0F7FF0800F5CF09F0FE
:102268001350B1EC19F050EF11F03B0E0C6E730ED9
:102278000D6E12500C26000E0D220F500C26105019
:102288000D220CC0F6FF0DC0F7FF0800F550FF0A3D
:10229800096E1350B1EC19F0112A122A070E1264B4
:1022A80058EF11F05AEF11F0FEEF10F0080E000190
:1022B800F52712000F6E000E116E0A0E0F18D8A423
:1022C80068EF11F06AEF11F070EF11F0000E0001E5
:1022D800F56FF42BE9EF11F03F0E0001F56577EF8C
:1022E80011F079EF11F080EF11F0010E116EF55138
:1022F800C00F0E6E82EF11F0F5C00EF0200E0F5ECB
:10230800000E106E3F0E0E648CEF11F08EEF11F080
:10231800A1EF11F0400E0E5E010E116E8A940E5060
:102328004009096E010EB1EC19F00001F451B80929
:10233800096E010EB1EC19F08A840B50D8B4A7EFDE
:1023480011F0A9EF11F0C3EF11F00F50030D3B0E80
:102358000C6E7F0E0D6EF3500C26F4500D221050AB
:102368000C26000E0D220CC0F6FF0DC0F7FF08006A
:10237800F5CF09F01150B1EC19F0DCEF11F00F5066
:10238800030D3B0E0C6E7F0E0D6EF3500C26F450B1
:102398000D2210500C26000E0D220CC0F6FF0DC0A9
:1023A800F7FF0800F550FF0A096E1150B1EC19F05B
:1023B8000E2A102A020E1064E4EF11F0E6EF11F075
:1023C80086EF11F0050E0001F5271200000E00013E
:1023D800736F71BFF4EF11F0F2EF11F0FEEF11F02F
:1023E800711F701F6F1F6E6D000E6F237023712396
:1023F800010E736F6DBF05EF12F003EF12F00FEFD0
:1024080012F06D1F6C1F6B1F6A6D000E6B236C231F
:102418006D23010E731B000E746F000E756F000E96
:10242800766F000E776F6E516F1170117111D8B4FD
:1024380020EF12F022EF12F058EF12F0010E726F37
:102448002CEF12F0D8906E376F3770377137722BC8
:1024580071AF31EF12F033EF12F026EF12F0D8908F
:1024680074377537763777376E516A5D6F516B59A8
:1024780070516C5971516D59D8A045EF12F047EF62
:1024880012F050EF12F06E516A5F6F516B5B705132
:102498006C5B71516D5B7481D890713370336F339D
:1024A8006E33722F33EF12F07351D8B45EEF12F01F
:1024B80060EF12F068EF12F0771F761F751F746DCA
:1024C800000E75237623772374C06AF075C06BF00D
:1024D80076C06CF077C06DF0120000016C356D3578
:1024E800736F7351D8A47BEF12F07DEF12F087EF72
:1024F80012F0000E6A6F000E6B6F000E6C6F000E0C
:102508006D6FF4EF12F06AC06EF06BC06FF06CC0C4
:1025180070F06DC071F0200E97EF12F0D890713303
:1025280070336F336E33E82E92EF12F06E51726F84
:102538006C8FFF0E6A17FF0E6B17FF0E6C17000EDD
:102548006D17960E735F73BFAEEF12F0ACEF12F01B
:10255800C4EF12F07351800A970FD8B0B6EF12F09B
:10256800B8EF12F0BAEF12F07DEF12F0D8906D3399
:102578006C336B336A33733FBAEF12F0DCEF12F04F
:102588001F0E7365CAEF12F0CCEF12F0D4EF12F001
:102598007DEF12F0D8906A376B376C376D37730759
:1025A8007351D8A4DAEF12F0DCEF12F0CEEF12F08C
:1025B8007251D8B4E2EF12F0E4EF12F0ECEF12F03F
:1025C8006D1F6C1F6B1F6A6D000E6B236C236D23D0
:1025D8006AC06AF06BC06BF06CC06CF06DC06DF0D7
:1025E8001200033404340A6E0A50D8A4FEEF12F025
:1025F80000EF13F00AEF13F0000E016E000E026EEA
:10260800000E036E000E046E77EF13F001C005F0A4
:1026180002C006F003C007F004C008F0200E1AEF4D
:1026280013F0D8900832073206320532E82E15EF3B
:1026380013F00550096E038EFF0E0116FF0E0216E9
:10264800FF0E0316000E0416960E0A5E0ABE31EF40
:1026580013F02FEF13F047EF13F00A50800A970F8B
:10266800D8B039EF13F03BEF13F03DEF13F000EF64
:1026780013F0D89004320332023201320A3E3DEFA1
:1026880013F05FEF13F01F0E0A644DEF13F04FEFD6
:1026980013F057EF13F000EF13F0D890013602361D
:1026A800033604360A060A50D8A45DEF13F05FEF2C
:1026B80013F051EF13F00950D8B465EF13F067EF3A
:1026C80013F06FEF13F0041E031E021E016C000EC0
:1026D80002220322042201C001F002C002F003C05A
:1026E80003F004C004F0120000017F517B1907E1D8
:1026F80080517C19D8A483EF13F085EF13F0A4EF71
:1027080013F07DC088F07EC089F095EF13F088C083
:1027180074F083C075F07B5163EC14F00001884BB2
:10272800892B8151885D8951800A856F8251800A81
:102738008559D8A0A2EF13F0A4EF13F08BEF13F094
:1027480081517D1907E182517E19D8A4AEEF13F0AB
:10275800B0EF13F0EEEF13F0FF0E7D258A6FFF0E3A
:102768007E218B6FD9EF13F07BC08CF07CC08DF08D
:10277800C8EF13F08AC074F083C075F08C5163EC15
:1027880014F000018C4B8D2B7F518C5D8D51800A8C
:10279800856F8051800A8559D8A0D5EF13F0D7EFFF
:1027A80013F0BEEF13F08A4B8B2B010E7D25856F3E
:1027B800000E7E21866F8A51855D8651800A876F5B
:1027C8008B51800A8759D8B0ECEF13F0EEEF13F075
:1027D800B8EF13F012001650121807E1175013182B
:1027E800D8A4F9EF13F0FBEF13F019EF14F014C0AD
:1027F8001FF015C020F00AEF14F01FC00BF01AC02C
:102808000CF01250D6EC14F01F4A202A18501F5C06
:102818002050800A1C6E1950800A1C58D8A017EF47
:1028280014F019EF14F001EF14F01850141807E120
:1028380019501518D8A423EF14F025EF14F062EFFF
:1028480014F0FF0E1424216EFF0E1520226E4DEF9A
:1028580014F012C023F013C024F03CEF14F021C090
:102868000BF01AC00CF02350D6EC14F0234A242A9B
:102878001650235C2450800A1C6E1750800A1C587E
:10288800D8A049EF14F04BEF14F033EF14F0214ABD
:10289800222A010E14241C6E000E15201D6E2150D4
:1028A8001C5C1D50800A1E6E2250800A1E58D8B02B
:1028B80060EF14F062EF14F02DEF14F01200000135
:1028C800786F000E00017A6F3F0E78656EEF14F096
:1028D80070EF14F074EF14F0400E785F010E7A6F09
:1028E8008A94789F788D78C072F07A5196EC19F0B6
:1028F80074C06AF000016B6B000E6D6F080E6C6F90
:102908003FEC15F000016A51BF0BB809726F7A519C
:1029180096EC19F08A8400017A517BEC19F00001D9
:102928007A517BEC19F00001796F8A9478C072F0C3
:102938007A5196EC19F000017551D8B4A6EF14F04D
:10294800A8EF14F0BCEF14F074C076F0070E7617F9
:10295800010E776F762BB3EF14F0D8907737762F78
:10296800B1EF14F0000177517911796FCFEF14F0BE
:1029780074C076F0070E7617010E776F762BC7EFC7
:1029880014F0D8907737762FC5EF14F000017751FF
:10299800FF0A7915796F8A8479C072F07A5196ECBA
:1029A80019F012000F6E000E116E3F0E0F64DFEF6C
:1029B80014F0E1EF14F0E5EF14F0400E0F5E010E95
:1029C800116E8A940F9E0F8C0FC009F01150B1EC54
:1029D80019F00BC001F0026A000E046E080E036EB7
:1029E80004EC16F00150BF0BB809096E1150B1EC98
:1029F80019F08A841150CAEC19F01150CAEC19F078
:102A0800106E8A940FC009F01150B1EC19F00C50F7
:102A1800D8B411EF15F013EF15F026EF15F00BC031
:102A28000DF0070E0D16010E0E6E0D2A1EEF15F095
:102A3800D8900E360D2E1CEF15F00E501010106E9B
:102A480038EF15F00BC00DF0070E0D16010E0E6EC7
:102A58000D2A31EF15F0D8900E360D2E2FEF15F008
:102A68000E50FF0A1014106E8A8410C009F011501D
:102A7800B1EC19F01200000E00016F6F6DBF49EF45
:102A880015F047EF15F04FEF15F06C6D6D1FD8B0CE
:102A98006D2B010E6F6F6BBF56EF15F054EF15F0ED
:102AA8005CEF15F06A6D6B1FD8B06B2B010E6F1BB6
:102AB800000E716F000E706F6C516D11D8B467EF16
:102AC80015F069EF15F091EF15F0010E6E6F71EFCB
:102AD80015F0D8906C376D376E2B6DAF76EF15F01B
:102AE80078EF15F06DEF15F0D890703771376C519D
:102AF8006A5D6D516B59D8A084EF15F086EF15F01B
:102B08008BEF15F06C516A5F6D516B5B7081D890DB
:102B18006D336C336E2F78EF15F06F51D8B497EF93
:102B280015F099EF15F09DEF15F0706D711FD8B085
:102B3800712B70C06AF071C06BF0120020EEA6F025
:102B480010EE8DF0060EDBCFE3FFE806FCE220EE88
:102B5800B3F010EE94F0050EDBCFE3FFE806FCE2DD
:102B680021EE2FF010EE83F0090EDBCFE3FFE8062D
:102B7800FCE2000E53EC17F0020E0001746F120E07
:102B8800E3EC17F08D0E00017D6F000E7E6F010ED5
:102B98007F6F010E806FB6EC18F0020E0001746FA3
:102BA8004E0EE3EC17F0940E00017D6F000E7E6F61
:102BB800010E7F6F010E806FB6EC18F0050E000154
:102BC800746F1A0EE3EC17F0830E00017D6F000E90
:102BD8007E6F010E7F6F010E806FB6EC18F0290E24
:102BE8000001826F960E816F7F0EE82EFED7812F2F
:102BF800FCD7822FFAD7000E53EC17F000D0120042
:102C0800000E066E04BE0DEF16F00BEF16F013EF74
:102C180016F0036C041ED8B0042A010E066E02BE1C
:102C28001AEF16F018EF16F020EF16F0016C021EDE
:102C3800D8B0022A010E061A000E086E000E076EA2
:102C480003500410D8B42BEF16F02DEF16F055EF03
:102C580016F0010E056E35EF16F0D89003360436DF
:102C6800052A04AE3AEF16F03CEF16F031EF16F0F5
:102C7800D890073608360350015C04500258D8A093
:102C880048EF16F04AEF16F04FEF16F00350015ECA
:102C98000450025A0780D89004320332052E3CEFC4
:102CA80016F00650D8B45BEF16F05DEF16F061EF42
:102CB80016F0076C081ED8B0082A07C001F008C033
:102CC80002F012000001776F000E836E8A9A8A8ADA
:102CD8008A988A908A928A94C00E0001726F000EB8
:102CE80096EC19F0C00E0001726F010E96EC19F007
:102CF800400E0001726F000E96EC19F0400E0001B4
:102D0800726F010E96EC19F0B80E0001726F000E8A
:102D180096EC19F0B80E0001726F010E96EC19F0DE
:102D280000017705D8A49BEF16F09DEF16F0AAEFE7
:102D380016F03F0E726F000E96EC19F03F0E000170
:102D4800726F010E96EC19F0B5EF16F03E0E726F29
:102D5800000E96EC19F03E0E0001726F010E96EC13
:102D680019F0000E53EC17F01200CB500001A06FC1
:102D7800A16B010EA027000EA123A0C06AF0A1C07C
:102D88006BF0000E6BBFFF0E6C6F6D6F010E18ECD1
:102D98000CF06AC083F06BC084F06CC085F06DC025
:102DA80086F0000E00016E6F000E6F6FC80E706F18
:102DB800420E716F9CC06AF09DC06BF09EC06CF0B3
:102DC8009FC06DF094EC06F06AC087F06BC088F085
:102DD8006CC089F06DC08AF069EC02F083C0A2F083
:102DE80084C0A3F085C0A4F086C0A5F0A2C06AF094
:102DF800A3C06BF0A4C06CF0A5C06DF071EC12F02C
:102E080000016A51BB6EBA9ABA981200E3EC19F045
:102E1800010E66EC16F0A2EC15F01BEC0FF0D00ECC
:102E28000001786F070E796F000E7A6F000E7B6FC6
:102E380012EC19F0000E00019C6F000E9D6F480EF9
:102E48009E6F420E9F6FB9EC16F0000E0001EF6FF7
:102E5800010EEE6F000EF36F000EF26F000E5B6E48
:102E6800000E5A6E808AC282E8C06AF0E9C06BF030
:102E7800000E00016D6F040E6C6F3FEC15F06AC018
:102E880058F16BC059F158C18EF059C18FF062ECFE
:102E980008F01AEC18F037EF17F007EF00F0000110
:102EA800746F000E0001766F8A94400E726F000EE8
:102EB80096EC19F0400E0001726F010E96EC19F0B5
:102EC80000017651B809726F000E96EC19F00001F6
:102ED8007651B809726F010E96EC19F08A84000ECB
:102EE8000001756F7451010DF3500008726F000EE8
:102EF80096EC19F000017451010DF3500008726F3F
:102F0800010E96EC19F00001752B3F0E75658FEFD9
:102F180017F091EF17F076EF17F0762B070E76651E
:102F280098EF17F09AEF17F058EF17F012000B6EA2
:102F3800000E0D6E070E0D64A4EF17F0A6EF17F044
:102F4800A8EF17F0E2EF17F08A94400E096E000E12
:102F5800B1EC19F0400E096E010EB1EC19F00D50EC
:102F6800B809096E000EB1EC19F00D50B809096ED8
:102F7800010EB1EC19F08A84000E0C6E3F0E0C6441
:102F8800C8EF17F0CAEF17F0CCEF17F0DFEF17F024
:102F98000B50010DF3500008096E000EB1EC19F04A
:102FA8000B50010DF3500008096E010EB1EC19F039
:102FB8000C2AC2EF17F00D2A9EEF17F0120000013D
:102FC800766F000E0001756F800E7661EEEF17F0D8
:102FD800F0EF17F019EF18F0070E7465F6EF17F019
:102FE800F8EF17F0FAEF17F019EF18F076C0F5F0D0
:102FF80074C0F4F03F0E766504EF18F006EF18F091
:103008000AEF18F0400E765F010E756F8A947651BC
:103018004009726F755196EC19F000017451B809A6
:10302800726F755196EC19F08A841200DAC083FF2A
:103038008086080E00016A6FC90EE82EFED76A2F37
:10304800FCD700D08096E0C083FF8080080E000186
:103058006A6FC90EE82EFED76A2FFCD700D0809081
:10306800DEC083FF8082080E00016A6FC90EE82E59
:10307800FED76A2FFCD700D08092DCC083FF808403
:10308800080E00016A6FC90EE82EFED76A2FFCD71A
:1030980000D0809412000C6E000E0D6E800E0C6035
:1030A80058EF18F05AEF18F082EF18F0070E0B647B
:1030B80060EF18F062EF18F064EF18F082EF18F084
:1030C8000CC0F5F00BC0F4F03F0E0C646EEF18F076
:1030D80070EF18F074EF18F0400E0C5E010E0D6ED4
:1030E8008A940C504009096E0D50B1EC19F00B5040
:1030F800B809096E0D50B1EC19F08A841200B40EAB
:10310800F66E320EF76E000EF86E01EE00F010EE5D
:1031180041F00900F5CFEEFFE550E150FAE1F00E7D
:10312800F66E330EF76E000EF86E00EEA6F010EE97
:1031380029F00900F5CFEEFFE550E150FAE100EE85
:10314800CFF0270EEE6AE806FDE15D6A5C6A5B6A0D
:103158005A6A596A586A5E905E92000EF86E0001CB
:103168000AEF17F0D8EF18F000017F51D8B4BFEF7D
:1031780018F0C1EF18F0CCEF18F080C074F07DC0E3
:10318800D9FF7EC0DAFFDF50B8EC0FF0D5EF18F0AA
:1031980080C074F07DC0D9FF7EC0DAFFDF5045ECF7
:1031A80010F000017D4B7E2B7DC0D9FF7EC0DAFF79
:1031B800DF50D8A4E2EF18F0E4EF18F0B8EF18F0F9
:1031C800120005EF19F01650D8B4EDEF18F0EFEF34
:1031D80018F0FAEF18F017C00BF014C0D9FF15C09B
:1031E800DAFFDF50D2EC10F003EF19F017C00BF044
:1031F80014C0D9FF15C0DAFFDF505EEC11F0144A95
:10320800152A14C0D9FF15C0DAFFDF50D8A40FEF74
:1032180019F011EF19F0E7EF18F01200720ED36EE3
:10322800FD0E946E0C0EBA6E000ECC6E070ECA6EB2
:103238000001785148086A6FE80E79556B6F010EE6
:103248007A556C6F000E7B556D6F78C06EF079C043
:103258006FF07AC070F07BC071F0EAEC11F00001F9
:103268006A51CB6E1200000E151A000E161A000EC7
:10327800171A800E181A11C001F012C002F013C0FC
:1032880003F014C004F015C005F016C006F017C00E
:1032980007F018C008F009EC00F001C011F002C0F6
:1032A80012F003C013F004C014F01200322E52655D
:1032B8006374616E67756C616972650043686F69F4
:1032C80073697220756E206D6F646500312E4F73BF
:1032D80063696C6C6F73636F7065004561737953D4
:0D32E800434F5045005175656E74696E00CE
:1032F60000016A6F00016A51D8B484EF19F086EFB5
:1033060019F08AEF19F08A808A928CEF19F08A9266
:103316008A8295688A868A8883CF6BF08A988A9093
:103326008A926B5112000001736F00017351D8B479
:103336009FEF19F0A1EF19F0A5EF19F08A808A9294
:10334600A7EF19F08A928A82000E956E8A9672C04D
:103356008CFF8A888A988A908A9212000A6E0A508E
:10336600D8B4B8EF19F0BAEF19F0BEEF19F08A80A9
:103376008A92C0EF19F08A928A82000E956E8A961A
:1033860009C08CFF8A888A988A908A921200016EF8
:103396000150D8B4D1EF19F0D3EF19F0D7EF19F0E7
:1033A6008A808A92D9EF19F08A928A8295688A86EB
:1033B6008A8883CF02F08A988A908A9202501200F5
:1033C600000E956E000E836E0A0EC16E110EC26E51
:1033D600F00E926E000E806EC00E936E000E816E21
:1033E600F28E9D8CF28CF286120050726F6A6574B2
:1033F600004A756C6573004D4355203A0045726965
:1034060063006279007C00450032003100320031F1
:033416000026008D
:10733A000000000000000000000000000000000043
:10734A000000000000000000000000000000000033
:10735A000000000000000000000000000000000023
:10736A000000000000000000000000000000000013
:10737A000000000000000000000000000000000003
:10738A0000000000000000000000000000000000F3
:10739A0000000000000000000000000000000000E3
:1073AA0000000000000000000000000000000000D3
:1073BA0000000000000000000000000000000000C3
:1073CA0000000000000000000000000000000000B3
:1073DA0000000000000000000000000000000000A3
:1073EA000000000000000000000000000000000093
:1073FA000000000000000000000000000000000083
:10740A000000000000000000000000000000000072
:10741A000000000000000000000000000000000062
:10742A000000000000000000000000000000000052
:10743A0000000000000000000000065F5F06000078
:10744A00000007070007070000147F7F147F7F14DE
:10745A0000242E6B6B3A120000466630180C6662E6
:10746A0000307A4F5D377A480004070300000000B5
:10747A0000001C3E63410000000041633E1C000006
:10748A0000082A3E1C1C3E2A0808083E3E0808003E
:10749A00000080E0600000000008080808080800F2
:1074AA000000006060000000006030180C06030154
:1074BA00003E7F71594D7F3E0040427F7F40400031
:1074CA0000627359496F660000226349497F36009A
:1074DA0000181C16537F7F5000276745457D3900E9
:1074EA00003C7E4B4979300000030371790F070095
:1074FA0000367F49497F360000064F49693F1E0022
:10750A000000006666000000000080E666000000D9
:10751A0000081C366341000000242424242424008B
:10752A0000004163361C080000020351590F06008F
:10753A00003E7F415D5D1F1E007C7E13137E7C0032
:10754A0000417F7F49497F36001C3E6341416322E7
:10755A0000417F7F41633E1C00417F7F495D41635B
:10756A0000417F7F491D0103001C3E634151737234
:10757A00007F7F08087F7F000000417F7F41000075
:10758A0000307040417F3F0100417F7F081C7763D4
:10759A0000417F7F41406070007F7F0E1C0E7F7F1D
:1075AA00007F7F060C187F7F001C3E6341633E1CF0
:1075BA0000417F7F49090F06001E3F21717F5E004F
:1075CA0000417F7F09197F6600266F4D597332008B
:1075DA000003417F7F410300007F7F40407F7F009F
:1075EA00001F3F60603F1F00007F7F3018307F7FA1
:1075FA000043673C183C674300074F78784F070001
:10760A0000476371594D677300007F7F4141000055
:10761A00000103060C183060000041417F7F000022
:10762A0000080C0603060C08008080808080808099
:10763A00800000030704000000207454543C784082
:10764A0000417F3F4848783000387C44446C280029
:10765A0000307848493F7F4000387C54545C180019
:10766A0000487E7F490302000098BCA4A4F87C0469
:10767A0000417F7F08047C780000447D7D40000043
:10768A000060E08080FD7D0000417F7F10386C44FF
:10769A000000417F7F400000007C7C18381C7C7809
:1076AA00007C7C04047C780000387C44447C3800EC
:1076BA000084FCF8A4243C1800183C24A4F8FC8498
:1076CA0000447C784C041C1800485C545474240010
:1076DA000000043E7F442400003C7C40403C7C4047
:1076EA00001C3C60603C1C00003C7C7038707C3C98
:1076FA0000446C3810386C44009CBCA0A0FC7C0090
:10770A00004C64745C4C64000008083E77414100F8
:10771A000000000077770000004141773E0808002A
:10772A0000020301030203010070784C464C787092
:10773A00000E9F91B1FB4A00003A7A40407A7A40A3
:10774A0000387C54555D19000002237555557D7B20
:10775A0042217554547D794000217555547C7840F6
:10776A0000207457577C784000183CA4A4E44000D9
:10777A0000023B7D55555D1B02397D54545D19004D
:10778A0000397D55545C18000001457C7C4101009C
:10779A00000203457D7D43020001457D7C400000D7
:1077AA0000797D1612167D790070782B2B7870007F
:1077BA0000447C7C5555450000207454547C7C540C
:1077CA00547C7E0B097F7F4900327B49497B32001A
:1077DA0000327A48487A320000327A4A48783000D1
:1077EA00003A7B41417B7A40003A7A4240787840BD
:1077FA00009ABAA0A0FA7A000001193C66663C1900
:10780A00013D7D40407D3D0000183C24E7E72424EB
:10781A0000687E7F49436620002B2FFCFC2F2B003B
:10782A0000FFFF09092FF6F8A040C088FE7F090370
:10783A0002207454557D79400000447D7D4100004A
:10784A00003078484A7A320000387840427A7A40E2
:10785A00007A7A0A0A7A7000007D7D19317D7D00EE
:10786A000000262F292F2F280000262F292F260037
:10787A000030784D456020000038380808080800B4
:10788A000008080808383800004F6F3018CCEEBBE3
:10789A00914F6F30186C76FBF90000007B7B00007B
:1078AA0000081C3622081C362222361C0822361CE6
:1078BA0008AA005500AA005500AA55AA55AA55AA11
:1078CA0055DDFFAA77DDAAFF77000000FFFF000061
:1078DA0000101010FFFF000000141414FFFF000036
:1078EA00001010FFFF00FFFF001010F0F010F0F082
:1078FA0000141414FCFC0000001414F7F700FFFF36
:10790A00000000FFFF00FFFF001414F4F404FCFC65
:10791A000014141717101F1F0010101F1F101F1F0D
:10792A00001414141F1F000000101010F0F00000C3
:10793A00000000001F1F1010101010101F1F101041
:10794A0010101010F0F0101010000000FFFF1010BF
:10795A00101010101010101010101010FFFF10103F
:10796A0010000000FFFF1414140000FFFF00FFFFC7
:10797A001000001F1F101717140000FCFC04F4F479
:10798A001414141717101717141414F4F404F4F435
:10799A00140000FFFF00F7F714141414141414143D
:1079AA00141414F7F700F7F714141414171714140F
:1079BA001410101F1F101F1F10141414F4F41414A1
:1079CA00141010F0F010F0F01000001F1F101F1F0D
:1079DA00100000001F1F141414000000FCFC1414F3
:1079EA00140000F0F010F0F0101010FFFF10FFFF6D
:1079FA0010141414FFFF1414141010101F1F000089
:107A0A0000000000F0F0101010FFFFFFFFFFFFFF63
:107A1A00FFF0F0F0F0F0F0F0F0FFFFFFFF000000E1
:107A2A000000000000FFFFFFFF0F0F0F0F0F0F0FE7
:107A3A000F387C446C386C4400FCFE2A2A3E140041
:107A4A00007E7E020206060000027E7E027E7E0222
:107A5A000063775D4963630000387C447C3C04041E
:107A6A000080FE7E20203E1E000406027E7C060266
:107A7A000099BDE7E7BD9900001C3E6B496B3E1CAF
:107A8A00004C7E7301737E4C0030784A4F7D39007A
:107A9A0000183C243C3C243C1898FC643C3E273D9E
:107AAA0018000000000000000000000000000000B4
:107ABA0000000000000000000000000000000000BC
:107ACA0000000000000000000000000000000000AC
:107ADA00000000000000000000000000000000009C
:107AEA00000000000000000000000000000000008C
:107AFA00000000000000000000000000000000007C
:107B0A00000000000000000000000000000000006B
:107B1A00000000000000000000000000000000005B
:107B2A00000000000000000000000000000000004B
:107B3A00000000000000000000808080800000003B
:107B4A0000000000000000000000000000800000AB
:107B5A00800000800000000000000000000000001B
:107B6A00000000000000000000000000000000000B
:107B7A0000000000000000000000000000000000FB
:107B8A0000000000000000000000000000000000EB
:107B9A0000000000000000000000000000000000DB
:107BAA0000000000000000000000000000000000CB
:107BBA00000000000000003E4180808080413E00BD
:107BCA0000D894A46C00007884844C0088FC8081DE
:107BDA00FF8081FF800078848484780000D894A490
:107BEA006C00007884844C000078848484780008CF
:107BFA00FC488484780000789494580000000000BF
:107C0A00D894A46C00041C6480740C0400D894A456
:107C1A006C0004FF844000789494580088FC88041F
:107C2A00FC8804F88000000000000000000000004A
:107C3A00000000000000000000000000000000003A
:107C4A00000000000000000000000000000000002A
:107C5A00000000000000000000000000000000001A
:107C6A000000000000000000000000000000000406
:107C7A0007040000000000000000000000000000EF
:107C8A0000000000000404060100000000000000DB
:107C9A0000000000000000000000000000000000DA
:107CAA0000000000000000000000000000000000CA
:107CBA0000000000000000000000000000000000BA
:107CCA0000000000000000000000000000000000AA
:107CDA00000000000000000000000000000000009A
:107CEA000080F0F8181C0E0E1C1878F0C0800000F6
:107CFA0000000000000000000000000000000080FA
:107D0A00F0F8181C0C0E0E1C18F8F0800000000089
:107D1A000000000000000000000000000000000059
:107D2A000000000000000000000000000000000049
:107D3A000000000000000000000000000000000039
:107D4A000000000000000000000000000000000029
:107D5A000000000000000000000000000000000019
:107D6A00F8FF0F0000000000000000000FFFF800FD
:107D7A000000000000000000000000000000F8FF02
:107D8A000F0000000000000000000FFFF8000000D4
:107D9A0000000000000000000000000000000000D9
:107DAA0000000000000000000000000000000000C9
:107DBA0000000000000000000000000000000000B9
:107DCA000000000000000000000800080008001C75
:107DDA00FCF8800800080008000800080008E0FF16
:107DEA003F090008000800080008000800093FFFD2
:107DFA00E00800080008000800080008E0FF3F0942
:107E0A000008000800080008000800090F0F000811
:107E1A000008000800000000000000000000000048
:107E2A000000000000000000000000000000000048
:107E3A000000000000000000000000000000000038
:107E4A000000000000000000000000000000000028
:107E5A0000073FFCE000000000000080C0FC7F0734
:107E6A000000000000000000000000000000000701
:107E7A003FFCE000000000000000C0FC7F0700009B
:107E8A0000000000000000000000000000000000E8
:107E9A0000000000000000000000000000000000D8
:107EAA0000000000000000000000000000000000C8
:107EBA0000000000000000000000000000000000B8
:107ECA0000000000000000000000000000000000A8
:107EDA0000000001070F1C18181C0F070100000002
:107EEA000000000000000000000000000000000088
:107EFA000001070F1C18181C0C0F070100000000D6
:107F0A000000000000000000000000000000000067
:107F1A000000000000000000000000000000000057
:107F2A000000000000000000000000000000000047
:107F3A0000000000005C000C000C7C287C7C447C67
:107F4A00241048285408000C003844004438002003
:107F5A001008103810804000101010004000201047
:107F6A0008384438007C006454484454281C107C67
:107F7A004C542438542004740C28542808543800CB
:107F8A0050008050001028442828284428100454FF
:107F9A0008384C5C7814787C54283844447C44383B
:107FAA007C54447C14043844347C107C007C0020CB
:107FBA00403C7C106C7C40407C087C7C047C7C448B
:107FCA007C7C14083844787C1468485424047C0463
:107FDA007C407C3C403C7C207C6C106C1C601C64AB
:107FEA00544C7C4400081020447C0008040880801B
:057FFA008004080000F6
:020000040020DA
:08000000FFFFFFFFFFFFFFFF00
:020000040030CA
:0E000000000C191EFF8181FF0FC00FE00F40A2
:00000001FF
