:020000040000FA
:0400000035EF00F0E8
:060008005D824AED17F0D5
:100018005D80D8CF2FF0E8CF30F0E0CF31F0F3CFCC
:1000280032F0F4CF33F09EAC1CEF00F01EEF00F07E
:1000380029EF00F09E9CC4CFD5F00001D66BD5C047
:1000480029F0D6C02AF010EC19F033C0F4FF32C002
:10005800F3FF31C0E0FF30C0E8FF2FC0D8FF5D904C
:10006800100057EF24F021EE5DF011EE86F0050E3A
:10007800DBCFE3FFE806FCE26FC18CF170C18DF1C4
:1000880071C18EF172C18FF121EE48F011EE78F056
:10009800060EDBCFE3FFE806FCE221EE41F011EEAD
:1000A8007FF0060EDBCFE3FFE806FCE273C190F1B8
:1000B80074C191F175C192F176C193F177C194F150
:1000C800060E00016A6F070EEDEC25F00101DF5105
:1000D800E011D8A472EF00F074EF00F0B9EF00F06F
:1000E800780E0001736F010E746F010E756F010EAB
:1000F800766F8FEC26F0C4500001F76FF86BF96B40
:10010800FA6BF7C07AF0F8C07BF0F9C07CF0FAC05F
:100118007DF0000E7E6F000E7F6F000E806F000E68
:10012800816FF40E826F000E836F000E846F000ED5
:10013800856FEA0E866F010E876F000E886F000EBE
:10014800896F240E8A6FF40E8B6F000E8C6F000E71
:100158008D6F71EC25F07AC0F7F07BC0F8F07CC0A9
:10016800F9F07DC0FAF0F7EF00F07F0E0001736F31
:10017800010E746F010E756F010E766F8FEC26F00D
:10018800C4CFFBF00001FC6BFBC07AF0FCC07BF035
:10019800000E7BBFFF0E7C6F7D6F000E7E6F000E22
:1001A8007F6F000E806F000E816FF40E826F000E5D
:1001B800836F000E846F000E856F000E866F000E31
:1001C800876F000E886F000E896F640E8A6F000EAD
:1001D8008B6F000E8C6F000E8D6F71EC25F07AC05E
:1001E800FBF07BC0FCF0000E0001726F380E716FDF
:1001F800000E746F2F0E736F000E766F380E756FCA
:10020800000E786F370E776F000E7A6F010E796FD8
:10021800FFEC23F0000E0001726F390E716F000EB3
:10022800746F2F0E736F000E766F390E756F000E98
:10023800786F370E776F000E7A6F010E796FFFECCB
:1002480023F0060E00016A6F3E0EEDEC25F08C0ED1
:100258000001736F010E746F010E756F010E766FDA
:100268008FEC26F0060E00016A6F720EEDEC25F099
:10027800930E0001736F010E746F010E756F010EFE
:10028800766F8FEC26F0070E00016A6F0B0EEDEC0F
:1002980025F0860E0001736F010E746F010E756FE5
:1002A800010E766F8FEC26F0070E00016A6F660E5E
:1002B800EDEC25F0900E0001736F010E746F010EC6
:1002C800756F010E766F8FEC26F0000E0001726FCD
:1002D800000E716F000E746F2E0E736F000E766F26
:1002E800800E756F000E786F2E0E776F000E7A6F86
:1002F800010E796FFFEC23F0F7C06AF0F8C06BF0DD
:10030800F9C06CF0FAC06DF0010E5CEC1CF06AC02C
:1003180091F06BC092F06CC093F06DC094F0170E22
:100328000001956FB70E966FD10E976F380E986FC4
:1003380051EC11F091C0CBF192C0CCF193C0CDF14A
:1003480094C0CEF1CBC160F0CCC161F0CDC162F0F8
:10035800CEC163F0F2EC20F060C099F161C09AF16F
:10036800CBC178F0CCC179F0CDC17AF0CEC17BF0A9
:10037800CBC160F0CCC161F0CDC162F0CEC163F0F9
:10038800F2EC20F0000160C06AF061C06BF0000E72
:100398006BBFFF0E6C6F6D6F010E5CEC1CF06AC0DA
:1003A8007CF06BC07DF06CC07EF06DC07FF0BEEC61
:1003B80026F078C0CBF179C0CCF17AC0CDF17BC002
:1003C800CEF1CBC191F0CCC192F0CDC193F0CEC1AA
:1003D80094F0000E0001956F000E966F200E976F37
:1003E800410E986F51EC11F091C0CBF192C0CCF155
:1003F80093C0CDF194C0CEF1CBC160F0CCC161F017
:10040800CDC162F0CEC163F0F2EC20F060C09BF188
:1004180061C09CF1CBC178F0CCC179F0CDC17AF044
:10042800CEC17BF0CBC160F0CCC161F0CDC162F030
:10043800CEC163F0F2EC20F0000160C06AF061C048
:100448006BF0000E6BBFFF0E6C6F6D6F010E5CECF6
:100458001CF06AC07CF06BC07DF06CC07EF06DC093
:100468007FF0BEEC26F078C0CBF179C0CCF17AC031
:10047800CDF17BC0CEF1CBC191F0CCC192F0CDC112
:1004880093F0CEC194F0000E0001956F000E966FA8
:10049800200E976F410E986F51EC11F091C0CBF17F
:1004A80092C0CCF193C0CDF194C0CEF1CBC160F035
:1004B800CCC161F0CDC162F0CEC163F0F2EC20F0A6
:1004C80060C09DF161C09EF1CBC178F0CCC179F0DC
:1004D800CDC17AF0CEC17BF0CBC160F0CCC161F068
:1004E800CDC162F0CEC163F0F2EC20F0000160C033
:1004F8006AF061C06BF0000E6BBFFF0E6C6F6D6F22
:10050800010E5CEC1CF06AC07CF06BC07DF06CC026
:100518007EF06DC07FF0BEEC26F078C0CBF179C0DC
:10052800CCF17AC0CDF17BC0CEF1CBC191F0CCC17A
:1005380092F0CDC193F0CEC194F0000E0001956FFA
:10054800000E966F200E976F410E986F51EC11F0C8
:1005580091C0CBF192C0CCF193C0CDF194C0CEF153
:10056800CBC160F0CCC161F0CDC162F0CEC163F007
:10057800F2EC20F060C09FF161C0A0F1CBC178F02F
:10058800CCC179F0CDC17AF0CEC17BF0CBC160F09F
:10059800CCC161F0CDC162F0CEC163F0F2EC20F0C5
:1005A800000160C06AF061C06BF0000E6BBFFF0E07
:1005B8006C6F6D6F010E5CEC1CF06AC07CF06BC058
:1005C8007DF06CC07EF06DC07FF0BEEC26F078C088
:1005D800CBF179C0CCF17AC0CDF17BC0CEF1CBC1E3
:1005E80091F0CCC192F0CDC193F0CEC194F0000E41
:1005F8000001956F000E966F200E976F410E986F51
:1006080051EC11F091C0CBF192C0CCF193C0CDF177
:1006180094C0CEF1CBC160F0CCC161F0CDC162F025
:10062800CEC163F0F2EC20F060C0A1F161C0A2F18C
:10063800FBC06AF0FCC06BF00001000E6BBFFF0E40
:100648006C6F6D6F010E5CEC1CF06AC091F06BC0B2
:1006580092F06CC093F06DC094F00A0E0001956F93
:10066800D70E966F230E976F3C0E986F51EC11F0D2
:1006780091C0C7F192C0C8F193C0C9F194C0CAF142
:10068800C7C160F0C8C161F0C9C162F0CAC163F0F6
:10069800F2EC20F060C0A3F161C0A4F1C7C178F00A
:1006A800C8C179F0C9C17AF0CAC17BF0C7C160F08E
:1006B800C8C161F0C9C162F0CAC163F0F2EC20F0B0
:1006C800000160C06AF061C06BF0000E6BBFFF0EE6
:1006D8006C6F6D6F010E5CEC1CF06AC07CF06BC037
:1006E8007DF06CC07EF06DC07FF0BEEC26F078C067
:1006F800C7F179C0C8F17AC0C9F17BC0CAF1C7C1D6
:1007080091F0C8C192F0C9C193F0CAC194F0000E2B
:100718000001956F000E966F200E976F410E986F2F
:1007280051EC11F091C0C7F192C0C8F193C0C9F162
:1007380094C0CAF1C7C160F0C8C161F0C9C162F014
:10074800CAC163F0F2EC20F060C0A5F161C0A6F167
:10075800C7C178F0C8C179F0C9C17AF0CAC17BF0C5
:10076800C7C160F0C8C161F0C9C162F0CAC163F015
:10077800F2EC20F0000160C06AF061C06BF0000E7E
:100788006BBFFF0E6C6F6D6F010E5CEC1CF06AC0E6
:100798007CF06BC07DF06CC07EF06DC07FF0BEEC6D
:1007A80026F078C0C7F179C0C8F17AC0C9F17BC01A
:1007B800CAF1C7C191F0C8C192F0C9C193F0CAC1CA
:1007C80094F0000E0001956F000E966F200E976F43
:1007D800410E986F51EC11F091C0C7F192C0C8F169
:1007E80093C0C9F194C0CAF1C7C160F0C8C161F033
:1007F800C9C162F0CAC163F0F2EC20F060C0A7F191
:1008080061C0A8F101019951300FAB6F9B51300FB6
:10081800AC6F9D51300FAD6F9F51300FAE6FA1512E
:10082800300FAF6FA351300FB06FA551300FB16FBC
:10083800A751300FB26F000EB46F000EB36FABC18B
:10084800B3F1000EB46F000EB66F000EB56FACC1F9
:10085800B5F1000EB66F000EB86F000EB76FADC1E0
:10086800B7F1000EB86F000EBA6F000EB96FAEC1C7
:10087800B9F1000EBA6F000EBC6F000EBB6FAFC1AE
:10088800BBF1000EBC6F000EBE6F000EBD6FB0C195
:10089800BDF1000EBE6F000EC06F000EBF6FB1C17C
:1008A800BFF1000EC06F000EC26F000EC16FB2C163
:1008B800C1F1000EC26F060E00016A6F560EEDEC14
:1008C80025F0BD0E0001736F010E746F010E756F78
:1008D800010E766F8FEC26F0060E00016A6F5F0E30
:1008E800EDEC25F0BF0E0001736F010E746F010E61
:1008F800756F010E766F8FEC26F0060E00016A6F99
:10090800680EEDEC25F0C10E0001736F010E746FD7
:10091800010E756F010E766F8FEC26F0070E000141
:100928006A6F330EEDEC25F0B30E0001736F010E04
:10093800746F010E756F010E766F8FEC26F0070E3F
:1009480000016A6F3C0EEDEC25F0B50E0001736FE7
:10095800010E746F010E756F010E766F8FEC26F025
:10096800070E00016A6F4A0EEDEC25F0B70E000184
:10097800736F010E746F010E756F010E766F8FEC39
:1009880026F0070E00016A6F530EEDEC25F0B90E44
:100998000001736F010E746F010E756F010E766F93
:1009A8008FEC26F0070E00016A6F5C0EEDEC25F067
:1009B800BB0E0001736F010E746F010E756F010E8F
:1009C800766F8FEC26F0F7C07AF0F8C07BF0F9C0AC
:1009D8007CF0FAC07DF0EA0E00017E6F010E7F6F99
:1009E800000E806F000E816F240E826FF40E836FED
:1009F800000E846F000E856F010E866F000E876FE4
:100A0800000E886F000E896F320E8A6F000E8B6F92
:100A1800000E8C6F000E8D6F71EC25F07AC0C3F15B
:100A28007BC0C4F1C3C16AF0C4C16BF00001000E01
:100A38006BBFFF0E6C6F6D6F010E5CEC1CF06AC033
:100A48007CF06BC07DF06CC07EF06DC07FF0000E56
:100A58000001786F000E796FC80E7A6F420E7B6FB7
:100A68007CEC15F078C060F079C061F07AC062F073
:100A78007BC063F0F2EC20F060C0A9F161C0AAF17C
:100A8800C3C16AF0C4C16BF00001000E6BBFFF0E5A
:100A98006C6F6D6F010E5CEC1CF06AC07CF06BC073
:100AA8007DF06CC07EF06DC07FF0FBC06AF0FCC0CA
:100AB8006BF00001000E6BBFFF0E6C6F6D6F010EC7
:100AC8005CEC1CF06AC078F06BC079F06CC07AF00E
:100AD8006DC07BF07CEC15F078C060F079C061F0F7
:100AE8007AC062F07BC063F0F2EC20F060C0C5F120
:100AF80061C0C6F1E7C171F0E8C172F0000E0001F3
:100B0800746F000E736FE7C175F0E8C176F0000EE0
:100B1800786F2D0E776F000E7A6F000E796FFFECED
:100B280023F0FBC06AF0FCC06BF00001000E6BBF45
:100B3800FF0E6C6F6D6F010E5CEC1CF06AC095F1D6
:100B48006BC096F16CC097F16DC098F195C1AAF091
:100B580096C1ABF097C1ACF098C1ADF0F7C0AEF05C
:100B6800F8C0AFF0F9C0B0F0FAC0B1F06CEC22F008
:100B78000101E151C55DC651800A0001B86F01014C
:100B8800E251800A0001B859D8A0CDEF05F0CFEFA7
:100B980005F00FEF06F00101C551C611D8B4D7EF23
:100BA80005F0D9EF05F00FEF06F00A0E00016A6FA5
:100BB800010E6B6F0101E751F9EC21F07E0E010186
:100BC800E519E611D8B4EBEF05F0EDEF05F004EF09
:100BD80006F0E5C180F0E6C181F0E3C182F0E4C12E
:100BE80083F0E7C184F0E8C185F0000E0001876F4B
:100BF8000A0E866F000E896F010E886FB5EC09F03A
:100C0800E7C1E5F1E8C1E6F1000E0101E46F0A0E63
:100C1800E36F43EF06F0230E00016A6F010E6B6F5E
:100C28000101E751F9EC21F07E0E0101E519E61109
:100C3800D8B421EF06F023EF06F03AEF06F0E5C14D
:100C480080F0E6C181F0E3C182F0E4C183F0E7C13E
:100C580084F0E8C185F0000E0001876F230E866FCF
:100C6800000E896F010E886FB5EC09F0E7C1E5F158
:100C7800E8C1E6F1000E0101E46F230EE36FA9510C
:100C8800E15DE251800A0001B86F0101AA51800AB2
:100C98000001B859D8B053EF06F055EF06F05AEFF7
:100CA80006F00101E14BE22B5FEF06F0000E0101B7
:100CB800E26F000EE16FE8BF6BEF06F0E85109E163
:100CC8007E0EE75DD8A06BEF06F06DEF06F073EFD0
:100CD80006F0000EE86F000EE76F75EF06F0E74BC1
:100CE800E82B1200000E0001FE6F000EFD6F000ED3
:100CF800E06F010EDF6F000E5A6E010E596E590437
:100D08005A10D8B48AEF06F08CEF06F095EF06F08B
:100D1800E105E211D8A493EF06F095EF06F02BEF6A
:100D280007F0000E5A6E000E596EEFC0ACF0F0C01E
:100D3800ADF0EDC0AEF0EEC0AFF0EBC0B0F0ECC07F
:100D4800B1F0E9C0B2F0EAC0B3F0000EC26F000E15
:100D5800C16FC1C06AF00F0EEDEC25F0B20E0001B4
:100D6800736F000E746F010E756F010E766F8FEC46
:100D780026F00001C14BC22BC2BFCCEF06F0C25116
:100D880009E1080EC15DD8A0CCEF06F0CEEF06F061
:100D9800ADEF06F0000E726F000E716F000E746FEB
:100DA800110E736F000E766F110E756F000E786F4F
:100DB800110E776F000E7A6F010E796FFFEC23F03A
:100DC8000001E151E211D8A4ECEF06F0EEEF06F0D5
:100DD80000EF07F0010E6A6F020EEDEC25F0AC0E85
:100DE8000001736F000E746F010E756F010E766F40
:100DF8008FEC26F02BEF07F0E105E211D8A407EFFE
:100E080007F009EF07F01BEF07F0010E6A6F020EFB
:100E1800EDEC25F0AE0E0001736F000E746F010E3D
:100E2800756F010E766F8FEC26F02BEF07F0010E31
:100E38006A6F020EEDEC25F0B00E0001736F000E24
:100E4800746F010E756F010E766F8FEC26F04950A6
:100E5800300F0001B46F4B50300FB56F4D50300F4D
:100E6800B66F4F50300FB76F000EB86F000EB96FE6
:100E7800000EBA6FB4C0B8F02E0EB96F000EBA6F7C
:100E8800000EBC6F000EBB6FB5C0BBF0000EBC6F90
:100E9800000EBE6F000EBD6FB6C0BDF0000EBE6F77
:100EA800000EC06F000EBF6FB7C0BFF0000EC06F5E
:100EB800030E6A6F020EEDEC25F0B80E0001736F99
:100EC800000E746F010E756F010E766F8FEC26F0B1
:100ED800040E00016A6F020EEDEC25F0BB0E000156
:100EE800736F000E746F010E756F010E766F8FECC5
:100EF80026F0050E00016A6F020EEDEC25F0BD0E1E
:100F08000001736F000E746F010E756F010E766F1E
:100F18008FEC26F0060E00016A6F020EEDEC25F04C
:100F2800BF0E0001736F000E746F010E756F010E16
:100F3800766F8FEC26F00001E151E211D8A4A7EFFB
:100F480007F0A9EF07F069EF08F0DCBFB7EF07F08B
:100F5800DC5107E1630EDB5DD8B0B5EF07F0B7EF02
:100F680007F002EF08F01D0EDB25716F000EDC2183
:100F7800726F000E746F000E736F1D0EDB25756F98
:100F8800000EDC21766F000E786F400E776F000E32
:100F98007A6F000E796FFFEC23F0A2C06AF0010EA1
:100FA80000016B6FDB511C0FF9EC21F01C0E0001E6
:100FB800D125806F000ED221816FCFC082F0D0C0C2
:100FC80083F01C0EDB25846F000EDC21856FA2C028
:100FD80086F0A3C087F0000E896F010E886FB5EC0C
:100FE80009F0DBC0D1F0DCC0D2F0A2C0CFF0A3C0C2
:100FF800D0F00001DB4BDC2BB4EF09F0DCBF0EEFC7
:1010080008F0DC5109E1630EDB5DD8A00EEF08F0B3
:1010180010EF08F0B4EF09F0000EDC6F000EDB6F84
:10102800000E726F1B0E716F000E746F000E736FDF
:10103800000E766F1B0E756F000E786F400E776F7F
:10104800000E7A6F000E796FFFEC23F0000E00019E
:10105800726F1C0E716F000E746F000E736F000EAE
:10106800766F1C0E756F000E786F400E776F000E4E
:101078007A6F000E796FFFEC23F0000E0001726F9B
:101088001D0E716F000E746F000E736F000E766F79
:101098001D0E756F000E786F400E776F000E7A6F19
:1010A800000E796FFFEC23F0A2C06AF0010E000178
:1010B8006B6F1C0EF9EC21F0000E0001D26F000ED0
:1010C800D16FF9EF07F0B4EF09F0E105E211D8A408
:1010D80070EF08F072EF08F0B4EF09F0D951DA11A7
:1010E800D8A479EF08F07BEF08F0D7EF08F021EEED
:1010F8004FF010EEA5F0060EDBCFE3FFE806FCE2AA
:10110800A3BF90EF08F0A35109E11F0EA25DD8A07C
:1011180090EF08F092EF08F0A4EF08F0010E6A6F64
:10112800320EEDEC25F0A50E0001736F000E746F02
:10113800010E756F010E766F8FEC26F0B9EF08F08F
:10114800A3BFB2EF08F0A35107E11F0EA25DD8B00C
:10115800B0EF08F0B2EF08F0B9EF08F0070E6A6FC9
:10116800320EEDEC25F097EF08F0000E0001726FDB
:101178001C0E716FA2C073F0A3C074F0000E766FDE
:101188007F0E756FA2C077F0A3C078F0000E7A6F5B
:10119800010E796FFFEC23F0000E0001D86F010EED
:1011A800D76FB4EF09F0D905DA11D8A4DEEF08F04B
:1011B800E0EF08F0B4EF09F0000E726F1C0E716FCB
:1011C800E5C073F0E6C074F0000E766F7F0E756FA1
:1011D800E5C077F0E6C078F0000E7A6F010E796FFF
:1011E800FFEC23F00001A251E55DE651800AA46FEF
:1011F800A351800AA459D8A004EF09F006EF09F01A
:10120800B4EF09F0DCBF14EF09F0DC5107E1630E1D
:10121800DB5DD8B012EF09F014EF09F054EF09F0D4
:101228001D0EDB25716F000EDC21726F000E746FCE
:10123800000E736F1D0EDB25756F000EDC21766FB7
:10124800000E786F400E776F000E7A6F000E796F80
:10125800FFEC23F0A2C06AF0010E00016B6FDB51B6
:101268001C0FF9EC21F01C0E0001D125806F000E37
:10127800D221816FCFC082F0D0C083F01C0EDB2555
:10128800846F000EDC21856FA2C086F0A3C087F0B2
:10129800000E896F010E886FB5EC09F0F5EF07F0C5
:1012A800DCBF60EF09F0DC5109E1630EDB5DD8A01B
:1012B80060EF09F062EF09F067EF08F0000EDC6FED
:1012C800000EDB6F000E726F1B0E716F000E746FD5
:1012D800000E736F000E766F1B0E756F000E786F21
:1012E800400E776F000E7A6F000E796FFFEC23F0D7
:1012F800000E0001726F1C0E716F000E746F000EED
:10130800736F000E766F1C0E756F000E786F400EAF
:10131800776F000E7A6F000E796FFFEC23F0000EE6
:101328000001726F1D0E716F000E746F000E736FE7
:10133800000E766F1D0E756F000E786F400E776F7A
:10134800000E7A6F000E796FFFEC23F0A2C06AF0EE
:10135800010E00016B6F1C0EF9EC21F060EF08F034
:10136800120000018051845D966F81518559976FF5
:101378008251865D986F83518759996F96C06AF03C
:1013880097C06BF0000E6BBFFF0E6C6F6D6F010E98
:101398005CEC1CF06AC078F06BC079F06CC07AF035
:1013A8006DC07BF05CEC27F078C060F079C061F02C
:1013B8007AC062F07BC063F0F2EC20F060C09AF073
:1013C80061C09BF098C06AF099C06BF00001000EF4
:1013D8006BBFFF0E6C6F6D6F010E5CEC1CF06AC08A
:1013E80078F06BC079F06CC07AF06DC07BF05CEC83
:1013F80027F078C060F079C061F07AC062F07BC0F5
:1014080063F0F2EC20F060C09CF061C09DF09CC0DD
:101418008AF09DC08BF0D89000018A378B379A519B
:101428008A5D926F9B518B59936F9AC08AF09BC0CB
:101438008BF0D8908A378B379C518A5D946F9D5179
:101448008B59956F9C519A5D9B51800A8A6F9D516B
:10145800800A8A59D8A033EF0AF035EF0AF060EF16
:101468000BF097BF3AEF0AF03CEF0AF04AEF0AF0A8
:1014780080C09EF081C09FF082C0A0F083C0A1F020
:1014880084C08EF085C08FF056EF0AF084C09EF0BD
:1014980085C09FF086C0A0F087C0A1F080C08EF004
:1014A80081C08FF0A0C06AF088C06BF09E51F9EC43
:1014B80021F0A0C06AF088C06BF000019E05F9EC2D
:1014C80021F0A0C06AF088C06BF000019E29F9ECF9
:1014D80021F00001A0056A6F88C06BF09E51F9ECFD
:1014E80021F00001A0296A6F88C06BF09E51F9ECC9
:1014F80021F00001A0056A6F88C06BF09E05F9EC29
:1015080021F00001A0296A6F88C06BF09E05F9ECF4
:1015180021F00001A0056A6F88C06BF09E29F9ECE4
:1015280021F00001A0296A6F88C06BF09E29F9ECB0
:1015380021F0000E00018D6F000E8C6F4FEF0BF045
:10154800010E9E259E6F000E9F219F6F93BFB1EFE6
:101558000AF0AFEF0AF0C0EF0AF09CC08AF09DC015
:101568008BF0D8908A378B3792518A25926F935196
:101578008B21936F05EF0BF097BFC7EF0AF0C5EF0C
:101588000AF0CEEF0AF099BFCCEF0AF0CEEF0AF0DE
:10159800E8EF0AF097BFD9EF0AF0975108E19605EE
:1015A800D8A0D9EF0AF0DBEF0AF0F0EF0AF099BF04
:1015B800E6EF0AF0995108E19805D8A0E6EF0AF09D
:1015C800E8EF0AF0F0EF0AF0010EA025A06F000E78
:1015D800A121A16FF6EF0AF0FF0EA025A06FFF0E64
:1015E800A121A16F9A519C5D8A6F9B519D598B6F68
:1015F800D8908A378B3792518A25926F93518B21D5
:10160800936FA0C06AF088C06BF09E51F9EC21F08E
:10161800A0C06AF088C06BF000019E05F9EC21F0CB
:10162800A0C06AF088C06BF000019E29F9EC21F097
:101638000001A0056A6F88C06BF09E51F9EC21F09B
:101648000001A0296A6F88C06BF09E51F9EC21F067
:101658000001A0056A6F88C06BF09E05F9EC21F0C7
:101668000001A0296A6F88C06BF09E05F9EC21F093
:101678000001A0056A6F88C06BF09E29F9EC21F083
:101688000001A0296A6F88C06BF09E29F9EC21F04F
:1016980000018C4B8D2B8E519E5D9F51800A8A6F65
:1016A8008F51800A8A59D8A05CEF0BF05EEF0BF0DF
:1016B800A4EF0AF08FEF0CF099BF65EF0BF067EF1E
:1016C8000BF075EF0BF080C09EF081C09FF082C0D8
:1016D800A0F083C0A1F086C090F087C091F081EFA0
:1016E8000BF084C09EF085C09FF086C0A0F087C034
:1016F800A1F082C090F083C091F0A0C06AF088C0C9
:101708006BF09E51F9EC21F0A0C06AF088C06BF034
:1017180000019E05F9EC21F0A0C06AF088C06BF0CA
:1017280000019E29F9EC21F00001A0056A6F88C02C
:101738006BF09E51F9EC21F00001A0296A6F88C076
:101748006BF09E51F9EC21F00001A0056A6F88C08A
:101758006BF09E05F9EC21F00001A0296A6F88C0A2
:101768006BF09E05F9EC21F00001A0056A6F88C0B6
:101778006BF09E29F9EC21F00001A0296A6F88C05E
:101788006BF09E29F9EC21F0000E00018D6F000E20
:101798008C6F80EF0CF0010EA025A06F000EA12128
:1017A800A16F95BFE2EF0BF0955106E19405D8B013
:1017B800E0EF0BF0E2EF0BF0F1EF0BF09AC08AF0DC
:1017C8009BC08BF0D8908A378B3794518A25946FB9
:1017D80095518B21956F36EF0CF097BFF8EF0BF012
:1017E800F6EF0BF0FFEF0BF099BFFDEF0BF0FFEFFB
:1017F8000BF019EF0CF097BF0AEF0CF0975108E1C6
:101808009605D8A00AEF0CF00CEF0CF021EF0CF0C5
:1018180099BF17EF0CF0995108E19805D8A017EF78
:101828000CF019EF0CF021EF0CF0010E9E259E6FC5
:10183800000E9F219F6F27EF0CF0FF0E9E259E6FD5
:10184800FF0E9F219F6F9C519A5D8A6F9D519B59F6
:101858008B6FD8908A378B3794518A25946F95511E
:101868008B21956FA0C06AF088C06BF09E51F9EC8F
:1018780021F0A0C06AF088C06BF000019E05F9EC69
:1018880021F0A0C06AF088C06BF000019E29F9EC35
:1018980021F00001A0056A6F88C06BF09E51F9EC39
:1018A80021F00001A0296A6F88C06BF09E51F9EC05
:1018B80021F00001A0056A6F88C06BF09E05F9EC65
:1018C80021F00001A0296A6F88C06BF09E05F9EC31
:1018D80021F00001A0056A6F88C06BF09E29F9EC21
:1018E80021F00001A0296A6F88C06BF09E29F9ECED
:1018F80021F000018C4B8D2B9051A05DA151800AE5
:101908008A6F9151800A8A59D8A08DEF0CF08FEF19
:101918000CF0CFEF0BF0120000016351800B6C6FDD
:10192800635163256E6F62AF9CEF0CF09EEF0CF075
:101938009FEF0CF06E816E51D8B4A5EF0CF0A7EFB5
:101948000CF0BCEF0CF06E29D8A4ADEF0CF0AFEFA3
:101958000CF0B7EF0CF0000E606F000E616F000E18
:10196800626F000E636F628F000E636FC4EF0CF03E
:10197800000E606F000E616F000E626F000E636FE5
:101988006751800B6D6F6C516D19D8B4CEEF0CF0A8
:10199800D0EF0CF0D1EF0CF06C8D675167256D6FAF
:1019A80066AFD9EF0CF0DBEF0CF0DCEF0CF06D81DB
:1019B8006D51D8B4E2EF0CF0E4EF0CF0F9EF0CF055
:1019C8006D29D8A4EAEF0CF0ECEF0CF0F4EF0CF072
:1019D800000E646F000E656F000E666F000E676F75
:1019E800668F000E676F01EF0DF0000E646F000E3A
:1019F800656F000E666F000E676F6E516D5DD8B033
:101A080008EF0DF00AEF0DF031EF0DF06CAD0FEFB0
:101A18000DF011EF0DF013EF0DF0800E6C1B6EC082
:101A28006FF06DC06EF06FC06DF060C06FF064C095
:101A380060F06FC064F061C06FF065C061F06FC0A6
:101A480065F062C06FF066C062F06FC066F063C098
:101A58006FF067C063F06FC067F0000E6F6F6E5174
:101A68006DC068F0696B685F000E695B69BF46EF1F
:101A78000DF0695109E11A0E685DD8A046EF0DF026
:101A880048EF0DF07FEF0DF06051611162116311A5
:101A9800D8A451EF0DF054EF0DF0010E55EF0DF0F5
:101AA800000E6F6F000E606F000E616F000E626FA8
:101AB800000E636F6DC06EF088EF0DF06FA167EFD9
:101AC8000DF069EF0DF06FEF0DF0D8906F3101094F
:101AD8006F6F71EF0DF0D8906F3360A176EF0DF056
:101AE80078EF0DF079EF0DF06F8F63356333623364
:101AF800613360336E2B6D516E5DD8A086EF0DF0AB
:101B080088EF0DF062EF0DF06CBD8DEF0DF08FEFEB
:101B18000DF0CFEF0DF06E51D8A495EF0DF097EFC3
:101B28000DF0A1EF0DF0000E606F000E616F000E5A
:101B3800626F000E636FF0EF0EF06451602765511D
:101B48006123665162236751632363A1AEEF0DF0F1
:101B5800B0EF0DF05CEF0EF06FA1B5EF0DF0B7EF41
:101B68000DF0BDEF0DF0D8906F3101096F6FBFEF29
:101B78000DF0D8906F3360A1C4EF0DF0C6EF0DF0F3
:101B8800C7EF0DF06F8F63356333623361336033B2
:101B98006E2B5CEF0EF06451605D655161596651C2
:101BA80062596351800A686F6751800A6859D8B0D2
:101BB800E0EF0DF0E2EF0DF00DEF0EF06051645D17
:101BC800686F61516559696F625166596A6F6351EF
:101BD80067596B6FFF0E6825606FFF0E6921616F93
:101BE800FF0E6A21626FFF0E6B21636F800E6C1B04
:101BF8006F6D6F51D8A403EF0EF005EF0EF015EFDF
:101C08000EF0010E6027000E61236223632315EF97
:101C18000EF06451605F6551615B6651625B6751AC
:101C2800635B6051611162116311D8A41EEF0EF05D
:101C380020EF0EF055EF0EF06F51D8A426EF0EF0FE
:101C480028EF0EF055EF0EF0000E606F000E616F7A
:101C5800000E626F000E636FF0EF0EF0D8906037E1
:101C68006137623763376FAF3CEF0EF03EEF0EF02F
:101C78003FEF0EF060816FA144EF0EF046EF0EF0DB
:101C88004AEF0EF0D8806F374CEF0EF0D8906F37D0
:101C98006E51D8B452EF0EF054EF0EF055EF0EF02F
:101CA8006E0762AF5AEF0EF05CEF0EF032EF0EF0F7
:101CB800000E6D6F6FAF63EF0EF065EF0EF07DEF06
:101CC8000EF06FC068F07F0E6817D8B46EEF0EF094
:101CD80070EF0EF074EF0EF0010E6D6F7DEF0EF0E9
:101CE80060A179EF0EF07BEF0EF07DEF0EF070EF54
:101CF8000EF06D51D8B483EF0EF085EF0EF0B0EF13
:101D08000EF0010E6027000E61236223632363A196
:101D180090EF0EF092EF0EF0B0EF0EF060C068F0AA
:101D280061C069F062C06AF063C06BF06B356B33F9
:101D38006A336933683368C060F069C061F06AC0AB
:101D480062F06BC063F06E29D8B4ADEF0EF0AFEF60
:101D58000EF0B0EF0EF06E2B6E29D8B4B6EF0EF081
:101D6800B8EF0EF0C0EF0EF06E51D8A4BEEF0EF033
:101D7800C0EF0EF0D2EF0EF0000E606F000E616F34
:101D8800000E626F000E636F6E51D8A4CEEF0EF096
:101D9800D0EF0EF0D2EF0EF0000E6C6F6EA1D7EF01
:101DA8000EF0D9EF0EF0DCEF0EF0628FDDEF0EF0E3
:101DB800629FD8906E31636F6CAFE5EF0EF0E7EF7E
:101DC8000EF0E8EF0EF0638F60C060F061C061F064
:101DD80062C062F063C063F012000550800B0E6EA3
:101DE80005500524106E04AEFCEF0EF0FEEF0EF069
:101DF800FFEF0EF010801050D8B405EF0FF007EF8A
:101E08000FF01CEF0FF01028D8A40DEF0FF00FEF14
:101E18000FF017EF0FF0000E026E000E036E000EAB
:101E2800046E000E056E048E000E056E24EF0FF092
:101E3800000E026E000E036E000E046E000E056E9C
:101E48000950800B0F6E0E500F18D8B42EEF0FF0FC
:101E580030EF0FF031EF0FF00E8C095009240F6EA0
:101E680008AE39EF0FF03BEF0FF03CEF0FF00F80AB
:101E78000F50D8B442EF0FF044EF0FF059EF0FF0C6
:101E88000F28D8A44AEF0FF04CEF0FF054EF0FF0E3
:101E9800000E066E000E076E000E086E000E096E2C
:101EA800088E000E096E61EF0FF0000E066E000E30
:101EB800076E000E086E000E096E10500F5CD8B049
:101EC80068EF0FF06AEF0FF091EF0FF00EAC6FEFC5
:101ED8000FF071EF0FF073EF0FF0800E0E1A10C0B5
:101EE80011F00FC010F011C00FF002C011F006C0C1
:101EF80002F011C006F003C011F007C003F011C0D2
:101F080007F004C011F008C004F011C008F005C0C3
:101F180011F009C005F011C009F0000E116E105043
:101F28000FC00AF00B6A0A5E000E0B5A0BBEA6EF32
:101F38000FF00B5009E11A0E0A5CD8A0A6EF0FF0BB
:101F4800A8EF0FF0DFEF0FF0025003100410051098
:101F5800D8A4B1EF0FF0B4EF0FF0010EB5EF0FF00A
:101F6800000E116E000E026E000E036E000E046E5F
:101F7800000E056E0FC010F0E8EF0FF011A0C7EFCC
:101F88000FF0C9EF0FF0CFEF0FF0D8901130010923
:101F9800116ED1EF0FF0D890113202A0D6EF0FF0EA
:101FA800D8EF0FF0D9EF0FF0118E05340532043257
:101FB80003320232102A0F50105CD8A0E6EF0FF05F
:101FC800E8EF0FF0C2EF0FF00EBCEDEF0FF0EFEF00
:101FD8000FF02FEF10F01050D8A4F5EF0FF0F7EF37
:101FE8000FF001EF10F0000E026E000E036E000EEF
:101FF800046E000E056E50EF11F0065002260750D1
:102008000322085004220950052205A00EEF10F003
:1020180010EF10F0BCEF10F011A015EF10F017EF53
:1020280010F01DEF10F0D89011300109116E1FEF5C
:1020380010F0D890113202A024EF10F026EF10F023
:1020480027EF10F0118E05340532043203320232C4
:10205800102ABCEF10F00650025C075003580850D5
:1020680004580550800A0A6E0950800A0A58D8B0E8
:1020780040EF10F042EF10F06DEF10F00250065CE8
:102088000A6E035007580B6E045008580C6E055022
:1020980009580D6EFF0E0A24026EFF0E0B20036E08
:1020A800FF0E0C20046EFF0E0D20056E800E0E1A1A
:1020B800116C1150D8A463EF10F065EF10F075EFB4
:1020C80010F0010E0226000E03220422052275EFED
:1020D80010F00650025E0750035A0850045A09507F
:1020E800055A0250031004100510D8A47EEF10F012
:1020F80080EF10F0B5EF10F01150D8A486EF10F073
:1021080088EF10F0B5EF10F0000E026E000E036EAF
:10211800000E046E000E056E50EF11F0D8900236D6
:1021280003360436053611AE9CEF10F09EEF10F022
:102138009FEF10F0028011A0A4EF10F0A6EF10F0AE
:10214800AAEF10F0D8801136ACEF10F0D890113605
:102158001050D8B4B2EF10F0B4EF10F0B5EF10F0A3
:10216800100604AEBAEF10F0BCEF10F092EF10F0CA
:10217800000E0F6E11AEC3EF10F0C5EF10F0DDEFDB
:1021880010F011C00AF07F0E0A16D8B4CEEF10F086
:10219800D0EF10F0D4EF10F0010E0F6EDDEF10F05D
:1021A80002A0D9EF10F0DBEF10F0DDEF10F0D0EF68
:1021B80010F00F50D8B4E3EF10F0E5EF10F010EF87
:1021C80011F0010E0226000E03220422052205A0AA
:1021D800F0EF10F0F2EF10F010EF11F002C00AF07B
:1021E80003C00BF004C00CF005C00DF00D340D3227
:1021F8000C320B320A320AC002F00BC003F00CC0DA
:1022080004F00DC005F01028D8B40DEF11F00FEF51
:1022180011F010EF11F0102A1028D8B416EF11F0B1
:1022280018EF11F020EF11F01050D8A41EEF11F0A4
:1022380020EF11F032EF11F0000E026E000E036E67
:10224800000E046E000E056E1050D8A42EEF11F08B
:1022580030EF11F032EF11F0000E0E6E10A037EFD4
:1022680011F039EF11F03CEF11F0048E3DEF11F051
:10227800049ED8901030056E0EAE45EF11F047EF72
:1022880011F048EF11F0058E02C002F003C003F010
:1022980004C004F005C005F0120000019451800B41
:1022A8009D6F94519425A36F93AF5DEF11F05FEF8D
:1022B80011F060EF11F0A381A351D8B466EF11F0CB
:1022C80068EF11F07BEF11F0A329D8A46EEF11F09D
:1022D80070EF11F078EF11F0000E916F000E926F11
:1022E800000E936F000E946F938F83EF11F0000E22
:1022F800916F000E926F000E936F000E946F9851BD
:10230800800B9D1B98519825A26F97AF8EEF11F007
:1023180090EF11F091EF11F0A281A251D8B497EF8C
:1023280011F099EF11F0ACEF11F0A229D8A49FEFAA
:1023380011F0A1EF11F0A9EF11F0000E956F000E4A
:10234800966F000E976F000E986F978FB4EF11F08D
:10235800000E956F000E966F000E976F000E986F27
:10236800A251D8B4BAEF11F0BCEF11F0C4EF11F0DC
:10237800A351D8A4C2EF11F0C4EF11F0CEEF11F0C1
:10238800000E916F000E926F000E936F000E946F07
:1023980066EF13F097519103F3CFA8F0F4CFA9F0AB
:1023A800A8519E6F9F6BA06BA16BA951A46FA56BE1
:1023B800A66BA76B96519203F3CFA8F0F4CFA9F0C0
:1023C800A8519E27000E9F23A023A123A951A4272B
:1023D800000EA523A623A72395519303F3CFA8F0B6
:1023E800F4CFA9F0A8519E27000E9F23A023A12374
:1023F800A951A427000EA523A623A723A0C0A1F0B6
:102408009FC0A0F09EC09FF09E6B95519203F3CFA2
:10241800A8F0F4CFA9F0A8519E27A9519F23000E38
:10242800A023000EA12396519103F3CFA8F0F4CF77
:10243800A9F0A8519E27A9519F23000EA023000EA2
:10244800A123A0C0A1F09FC0A0F09EC09FF09E6BEA
:1024580095519103F3CFA8F0F4CFA9F0A8519E2786
:10246800A9519F23000EA023000EA1239751920388
:10247800F3CFA8F0F4CFA9F0A851A427A951A52318
:10248800000EA623000EA72396519303F3CFA8F0BE
:10249800F4CFA9F0A851A427A951A523000EA6237B
:1024A800000EA72397519303F3CFA8F0F4CFA9F018
:1024B800A851996FA9519A6F9B6B9C6B9BC09CF01C
:1024C8009AC09BF099C09AF0996B9951A4279A5198
:1024D800A5239B51A6239C51A7239EC099F09FC07A
:1024E8009AF0A0C09BF0A1C09CF0190E81EF12F0E9
:1024F800D8909C339B339A339933E82E7CEF12F0B3
:102508009951A4279A51A5239B51A6239C51A723EF
:10251800A0C0A1F09FC0A0F09EC09FF09E6BA251EA
:10252800A3C099F09A6B9927000E9A23820E9925D9
:10253800A86FFF0E9A21A96FB7EF12F0D890A437B1
:10254800A537A637A737A1AFACEF12F0AEEF12F060
:10255800AFEF12F0A481D8909E379F37A037A137EC
:10256800A807D8A0A907A6AFBCEF12F0BEEF12F0DB
:10257800A2EF12F0000EA26FA1AFC5EF12F0C7EFE5
:1025880012F0EBEF12F0FF0E9E15996FFF0E9F15DC
:102598009A6FFF0EA0159B6F7F0EA1159C6F995126
:1025A8009A119B119C11D8B4DCEF12F0DEEF12F0F7
:1025B800E2EF12F0010EA26FEBEF12F0A4A1E7EF29
:1025C80012F0E9EF12F0EBEF12F0DEEF12F0A25189
:1025D800D8B4F1EF12F0F3EF12F017EF13F0010E89
:1025E800A427000EA523A623A723A7A1FEEF12F078
:1025F80000EF13F017EF13F0A4C099F0A5C09AF0FC
:10260800A6C09BF0A7C09CF09C359C339B339A33A3
:10261800993399C0A4F09AC0A5F09BC0A6F09CC0BD
:10262800A7F0A84BA92BA9BF22EF13F0A95108E1E5
:10263800A829D8A022EF13F024EF13F02EEF13F0FF
:10264800000EA46F000EA56F800EA66F7F0EA76FF9
:102658005CEF13F0A9BF3BEF13F0A95106E1A80501
:10266800D8B039EF13F03BEF13F047EF13F0000E3B
:10267800A46F000EA56F000EA66F000EA76F000EC8
:102688009D6F5CEF13F0A8C0A3F0FF0EA417FF0E18
:10269800A5177F0EA617000EA717A3A156EF13F0D4
:1026A80058EF13F059EF13F0A68FD890A331A76F06
:1026B8009D51A713A4C091F0A5C092F0A6C093F0B5
:1026C800A7C094F012001350800B1C6E13501324F3
:1026D800226E12AE72EF13F074EF13F075EF13F071
:1026E80022802250D8B47BEF13F07DEF13F090EFE7
:1026F80013F02228D8A483EF13F085EF13F08DEFA1
:1027080013F0000E106E000E116E000E126E000E09
:10271800136E128E98EF13F0000E106E000E116EED
:10272800000E126E000E136E1750800B1C1A1750F5
:102738001724216E16AEA3EF13F0A5EF13F0A6EF42
:1027480013F021802150D8B4ACEF13F0AEEF13F0A2
:10275800C1EF13F02128D8A4B4EF13F0B6EF13F0AB
:10276800BEEF13F0000E146E000E156E000E166EFE
:10277800000E176E168EC9EF13F0000E146E000EC1
:10278800156E000E166E000E176E2150D8B4CFEFDE
:1027980013F0D1EF13F0D9EF13F02250D8A4D7EFEC
:1027A80013F0D9EF13F0E3EF13F0000E106E000EE4
:1027B800116E000E126E000E136E7BEF15F01650A0
:1027C8001002F3CF27F0F4CF28F027501D6E1E6AB1
:1027D8001F6A206A2850236E246A256A266A1550C3
:1027E8001102F3CF27F0F4CF28F027501D26000E52
:1027F8001E221F22202228502326000E24222522B2
:10280800262214501202F3CF27F0F4CF28F02750D5
:102818001D26000E1E221F22202228502326000ECD
:102828002422252226221FC020F01EC01FF01DC012
:102838001EF01D6A14501102F3CF27F0F4CF28F0D0
:1028480027501D2628501E22000E1F22000E20226F
:1028580015501002F3CF27F0F4CF28F027501D268B
:1028680028501E22000E1F22000E20221FC020F01A
:102878001EC01FF01DC01EF01D6A14501002F3CFB9
:1028880027F0F4CF28F027501D2628501E22000ECE
:102898001F22000E202216501102F3CF27F0F4CF8A
:1028A80028F02750232628502422000E2522000E27
:1028B800262215501202F3CF27F0F4CF28F0275024
:1028C800232628502422000E2522000E26221650E8
:1028D8001202F3CF27F0F4CF28F02750186E2850B3
:1028E800196E1A6A1B6A1AC01BF019C01AF018C0B0
:1028F80019F0186A18502326195024221A50252234
:102908001B5026221DC018F01EC019F01FC01AF057
:1029180020C01BF0190E96EF14F0D8901B321A3213
:1029280019321832E82E91EF14F018502326195056
:1029380024221A5025221B5026221FC020F01EC018
:102948001FF01DC01EF01D6A215022C018F0196A20
:102958001826000E1922820E1824276EFF0E192041
:10296800286ECCEF14F0D890233624362536263638
:1029780020AEC1EF14F0C3EF14F0C4EF14F02380BD
:10298800D8901D361E361F3620362706D8A02806B2
:1029980025AED1EF14F0D3EF14F0B7EF14F0000E1A
:1029A800216E20AEDAEF14F0DCEF14F000EF15F032
:1029B800FF0E1D14186EFF0E1E14196EFF0E1F1445
:1029C8001A6E7F0E20141B6E185019101A101B1047
:1029D800D8B4F1EF14F0F3EF14F0F7EF14F0010EA0
:1029E800216E00EF15F023A0FCEF14F0FEEF14F0B9
:1029F80000EF15F0F3EF14F02150D8B406EF15F0FE
:102A080008EF15F02CEF15F0010E2326000E2422F6
:102A18002522262226A013EF15F015EF15F02CEF2E
:102A280015F023C018F024C019F025C01AF026C0EC
:102A38001BF01B341B321A321932183218C023F01B
:102A480019C024F01AC025F01BC026F0274A282AEE
:102A580028BE37EF15F0285008E12728D8A037EF0F
:102A680015F039EF15F043EF15F0000E236E000E48
:102A7800246E800E256E7F0E266E71EF15F028BE2F
:102A880050EF15F0285006E12704D8B04EEF15F0A6
:102A980050EF15F05CEF15F0000E236E000E246E5B
:102AA800000E256E000E266E000E1C6E71EF15F0DE
:102AB80027C022F0FF0E2316FF0E24167F0E2516C0
:102AC800000E261622A06BEF15F06DEF15F06EEFD5
:102AD80015F0258ED8902230266E1C50261223C061
:102AE80010F024C011F025C012F026C013F0120017
:102AF80000017B51800B886F7B517B258F6F7AAFEC
:102B080088EF15F08AEF15F08BEF15F08F818F5154
:102B1800D8B491EF15F093EF15F0A8EF15F08F29C1
:102B2800D8A499EF15F09BEF15F0A3EF15F0000E60
:102B3800786F000E796F000E7A6F000E7B6F7A8FB8
:102B4800000E7B6FB0EF15F0000E786F000E796FF6
:102B5800000E7A6F000E7B6F7F51800B881B7F51B0
:102B68007F25906F7EAFBBEF15F0BDEF15F0BEEF80
:102B780015F090819051D8B4C4EF15F0C6EF15F058
:102B8800DBEF15F09029D8A4CCEF15F0CEEF15F0B7
:102B9800D6EF15F0000E7C6F000E7D6F000E7E6F75
:102BA800000E7F6F7E8F000E7F6FE3EF15F0000E33
:102BB8007C6F000E7D6F000E7E6F000E7F6F7C5164
:102BC8007D117E117F11D8A4ECEF15F0EEEF15F012
:102BD80006EF16F0000E786F000E796F000E7A6F10
:102BE800000E7B6F800E7A137F0E7B1388517B1348
:102BF80078C078F079C079F07AC07AF07BC07BF041
:102C080049EF17F08F51D8A40CEF16F00EEF16F01D
:102C180018EF16F0000E786F000E796F000E7A6FBD
:102C2800000E7B6F49EF17F090518FC080F0816BD9
:102C3800805F000E815B7F0E8025896F000E8121E9
:102C48008A6F78C084F079C085F07AC086F07BC03E
:102C580087F0000E786F000E796F000E7A6F000E05
:102C68007B6F000E8B6F000E8C6F000E8D6F000E49
:102C78008E6F000E906F79EF16F09051D8B447EF31
:102C880016F049EF16F060EF16F0D89084378537C4
:102C980086378737D890783779377A377B378EAF4A
:102CA80058EF16F05AEF16F05BEF16F07881D890CF
:102CB8008B378C378D378E377C51845D7D518559A4
:102CC8007E5186597F518759D8A06DEF16F06FEF66
:102CD80016F078EF16F08E8D7C51845F7D51855B00
:102CE8007E51865B7F51875B902B190E90657FEF35
:102CF80016F081EF16F041EF16F084518511861118
:102D08008711D8B48AEF16F08CEF16F0A4EF16F0FE
:102D18008B81A4EF16F0D890783779377A377B37DC
:102D28008EAF99EF16F09BEF16F09CEF16F07881B6
:102D3800D8908B378C378D378E378907D8A08A077C
:102D48007AAFA9EF16F0ABEF16F08FEF16F0000E82
:102D5800906F8EAFB2EF16F0B4EF16F0D8EF16F012
:102D6800FF0E8B15806FFF0E8C15816FFF0E8D1572
:102D7800826F7F0E8E15836F8051811182118311AE
:102D8800D8B4C9EF16F0CBEF16F0CFEF16F0010E5E
:102D9800906FD8EF16F078A1D4EF16F0D6EF16F0B2
:102DA800D8EF16F0CBEF16F09051D8B4DEEF16F04E
:102DB800E0EF16F004EF17F0010E7827000E7923E4
:102DC8007A237B237BA1EBEF16F0EDEF16F004EFEF
:102DD80017F078C080F079C081F07AC082F07BC0AB
:102DE80083F08335833382338133803380C078F036
:102DF80081C079F082C07AF083C07BF0894B8A2B3E
:102E08008ABF0FEF17F08A5108E18929D8A00FEF80
:102E180017F011EF17F01CEF17F0000E8A6F896991
:102E2800000E786F000E796F000E7A6F000E7B6FC0
:102E38008ABF29EF17F08A5106E18905D8B027EF34
:102E480017F029EF17F037EF17F0000E8A6F000E12
:102E5800896F000E786F000E796F000E7A6F000E82
:102E68007B6F000E886F89C08FF08FA13EEF17F03F
:102E780040EF17F043EF17F07A8F44EF17F07A9F7F
:102E8800D8908F317B6FFAEF15F012000600F2A090
:102E980050EF17F052EF17F00EEF19F0410E016ED8
:102EA800EE0EE82EFED7012EFCD700D0F29081ACB2
:102EB80060EF17F062EF17F064EF18F03D503E1026
:102EC800D8A469EF17F06BEF17F05EEF18F0000168
:102ED800FD05FE11D8A473EF17F075EF17F088EF12
:102EE80017F0E351E411D8A47CEF17F07EEF17F048
:102EF80088EF17F03D4A3E2A000EE46F010EE36F9B
:102F08000EEF19F00EEF19F0FD05FE11D8A48FEFA2
:102F180017F091EF17F0A2EF17F0E305E411D8A42A
:102F280098EF17F09AEF17F0A2EF17F03D4A3E2AF4
:102F3800000EE46F000EE36F0EEF19F0DF05E011ED
:102F4800D8A4A9EF17F0ABEF17F0CDEF17F0E151C8
:102F5800E211D8A4B2EF17F0B4EF17F0CDEF17F0E5
:102F6800D951DA11D8A4BBEF17F0BDEF17F0CDEFA8
:102F780017F03D4A3E2A000ED86F010ED76F000E9B
:102F8800E26F010EE16F000EDA6F000ED96F0EEFDF
:102F980019F0DF05E011D8A4D4EF17F0D6EF17F039
:102FA800F8EF17F0E105E211D8A4DDEF17F0DFEF35
:102FB80017F0F8EF17F0D905DA11D8A4E6EF17F0F3
:102FC800E8EF17F0F8EF17F03D4A3E2A000ED86FE9
:102FD800010ED76F000EDA6F000ED96F000EE26F88
:102FE800000EE16F0EEF19F0DF05E011D8A4FFEF36
:102FF80017F001EF18F027EF18F0E105E211D8A457
:1030080008EF18F00AEF18F027EF18F0D951DA1185
:10301800D8A411EF18F013EF18F027EF18F03D4A75
:103028003E2AD3C0E5F0D4C0E6F0000ED86F010EFA
:10303800D76F000E5A6E010E596E000EDA6F010E30
:10304800D96F0EEF19F0DD05DE11D8A42EEF18F0B8
:1030580030EF18F042EF18F00101DF05E011D8A4B5
:1030680038EF18F03AEF18F042EF18F03D4A3E2AD0
:10307800000EE06F000EDF6F0EEF19F00001DD05A6
:10308800DE11D8A44AEF18F04CEF18F086EF17F0CD
:103098000101DF51E011D8A454EF18F056EF18F0F1
:1030A80086EF17F03D4A3E2A000EE06F010EDF6FF3
:1030B8000EEF19F0000E3E6E000E3D6E0EEF19F089
:1030C80081AE69EF18F06BEF18F00EEF19F03B5076
:1030D8003C10D8A472EF18F074EF18F00AEF19F04A
:1030E8000001FD05FE11D8A47CEF18F07EEF18F062
:1030F800C0EF18F0E351E411D8A485EF18F087EF7A
:1031080018F0A7EF18F03B4A3C2A000EDE6F000EBD
:10311800DD6F000EFE6F000EFD6F000EE06F010EFA
:10312800DF6F000E5A6E010E596E000EE26F000E30
:10313800E16F000E5A6E010E596E000ED86F010E27
:10314800D76F0EEF19F0E305E411D8A4AEEF18F02D
:10315800B0EF18F086EF17F03B4A3C2A000EFE6FDE
:10316800000EFD6F000EE06F000EDF6F000EDE6FC9
:10317800010EDD6F9DEF18F0DF05E011D8A4C7EF51
:1031880018F0C9EF18F0E9EF18F03B4A3C2A000E96
:10319800FE6F010EFD6F000EE06F000EDF6F000E78
:1031A8005A6E010E596E000EDE6F000EDD6F000EB6
:1031B800DA6F000ED96F000E5C6E010E5B6E000EAA
:1031C800D86F010ED76FF2EF17F0DD05DE11D8A426
:1031D800F0EF18F0F2EF18F086EF17F03B4A3C2AB0
:1031E800000EFE6F010EFD6F000EE06F000EDF6F28
:1031F800000EDE6F000EDD6F000E5A6E010E596E66
:10320800000E5C6E010E5B6EA1EF18F0000E3C6EB6
:10321800000E3B6E5D92110029C002F02AC003F037
:10322800000E03BEFF0E046E056E010E38EC1DF095
:1032380002C010F003C011F004C012F005C013F072
:10324800A10E146EDE0E156EA70E166E3C0E176ECE
:1032580067EC13F010C02BF011C02CF012C02DF049
:1032680013C02EF02BC002F02CC003F02DC004F0C8
:103278002EC005F076EC21F002C049F003C04AF0F8
:103288002BC012F02CC013F02DC014F02EC015F076
:1032980049C002F04AC003F0000E03BEFF0E046EE0
:1032A800056E010E38EC1DF002C016F003C017F0D1
:1032B80004C018F005C019F0E2EC26F012C02BF09B
:1032C80013C02CF014C02DF015C02EF02BC010F038
:1032D8002CC011F02DC012F02EC013F0000E146E89
:1032E800000E156E200E166E410E176E67EC13F069
:1032F80010C02BF011C02CF012C02DF013C02EF00E
:103308002BC002F02CC003F02DC004F02EC005F035
:1033180076EC21F002C04BF003C04CF02BC012F049
:103328002CC013F02DC014F02EC015F04BC002F0C5
:103338004CC003F0000E03BEFF0E046E056E010EB6
:1033480038EC1DF002C016F003C017F004C018F0E6
:1033580005C019F0E2EC26F012C02BF013C02CF0D7
:1033680014C02DF015C02EF02BC010F02CC011F099
:103378002DC012F02EC013F0000E146E000E156E44
:10338800200E166E410E176E67EC13F010C02BF06E
:1033980011C02CF012C02DF013C02EF02BC002F07B
:1033A8002CC003F02DC004F02EC005F076EC21F0FF
:1033B80002C04DF003C04EF02BC012F02CC013F029
:1033C8002DC014F02EC015F04DC002F04EC003F011
:1033D800000E03BEFF0E046E056E010E38EC1DF0E4
:1033E80002C016F003C017F004C018F005C019F0A9
:1033F800E2EC26F012C02BF013C02CF014C02DF014
:1034080015C02EF02BC010F02CC011F02DC012F0FA
:103418002EC013F0000E146E000E156E200E166EE0
:10342800410E176E67EC13F010C02BF011C02CF092
:1034380012C02DF013C02EF02BC002F02CC003F0E8
:103448002DC004F02EC005F076EC21F002C04FF03C
:1034580003C050F04FC002F050C003F012EC1EF051
:1034680002C045F003C046F04DC002F04EC003F064
:1034780012EC1EF002C043F003C044F04BC002F04F
:103488004CC003F012EC1EF002C041F003C042F041
:1034980049C002F04AC003F012EC1EF0800E02246C
:1034A8003F6E000E0320406E120040EC27F02FEC18
:1034B80025F0010ED6EC22F0E8EC24F0150E000100
:1034C800C46F4B0EC36FBE0EE82EFED7C32FFCD7BA
:1034D800C42FFAD700F039EC23F0B4EC1EF0000149
:1034E800FABF85EF1AF0FA51F91109E1EA0EF75D12
:1034F800010EF859D8B083EF1AF085EF1AF08DEF66
:103508001AF0EA0EF76F010EF86F000EF96F000E51
:10351800FA6FFABF9CEF1AF0FA51F9110BE1250E78
:10352800F75DF40EF859D8A09CEF1AF09EEF1AF048
:10353800A6EF1AF0240EF76FF40EF86F000EF96F6D
:10354800000EFA6FFCBFADEF1AF0ABEF1AF0B1EF57
:103558001AF0000EFC6F000EFB6FFCBFBDEF1AF0F7
:10356800FC5109E1650EFB5DD8A0BDEF1AF0BFEF75
:103578001AF0C3EF1AF0000EFC6F640EFB6F77ECC5
:1035880027F0FBC06AF0FCC06BF00001000E6BBFB7
:10359800FF0E6C6F6D6F010E5CEC1CF06AC0C5F01D
:1035A8006BC0C6F06CC0C7F06DC0C8F0C5C0AAF04B
:1035B800C6C0ABF0C7C0ACF0C8C0ADF0F7C0AEF045
:1035C800F8C0AFF0F9C0B0F0FAC0B1F06CEC22F07E
:1035D800C2820001D705D811D8A4F5EF1AF0F7EF89
:1035E8001AF0FEEF1AF0000ED86F000ED76F000E1B
:1035F800A0EC24F00001FD05FE11D8A406EF1BF095
:1036080008EF1BF014EF1BF0000EE06F000EDF6FE9
:10361800000EDE6F000EDD6F61EC1BF05BEF1BF040
:10362800DF05E011D8A41BEF1BF01DEF1BF048EFDE
:103638001BF0000EFE6F000EFD6F000EDE6F000E19
:10364800DD6FC20EC36FFF0EC46FD5C060F0D6C069
:1036580061F0000E636F040E626F9CEC23F00001B2
:10366800C3516027C4516123601F611F604B612BE8
:1036780060C0D3F061C0D4F0D3C0A2F0D4C0A3F02E
:1036880076EC06F05BEF1BF0DD05DE11D8A44FEFFA
:103698001BF051EF1BF05BEF1BF0000EFE6F000EEE
:1036A800FD6F000EE06F000EDF6F37EC00F05AEC94
:1036B80026F0ECEF1AF035EF00F05B045C10D8A4AC
:1036C80068EF1BF06AEF1BF0ECEF1BF021EE10F037
:1036D80010EE80F00F0EDBCFE3FFE806FCE221EEF0
:1036E80020F010EEA0F00E0EDBCFE3FFE806FCE2C0
:1036F80021EE00F010EE90F00F0EDBCFE3FFE806AE
:10370800FCE2F3C0AFF0F4C0B0F0F1C0B1F0F2C029
:10371800B2F0000E00016A6F020EEDEC25F0800E8B
:103728000001736F000E746F010E756F010E766FD6
:103738008FEC26F0020E00016A6F020EEDEC25F008
:10374800A00E0001736F000E746F010E756F010EED
:10375800766F8FEC26F0030E00016A6F020EEDEC17
:1037680025F0900E0001736F000E746F010E756FD7
:10377800010E766F8FEC26F0030E00016A6F020EC1
:10378800EDEC25F0050E00016A6F2A0EEDEC25F030
:10379800AF0E0001736F000E746F010E756F010E8E
:1037A800766F8FEC26F0050E00016A6F520EEDEC75
:1037B80025F0B10E0001736F000E746F010E756F66
:1037C800010E766F8FEC26F0000E5C6E000E5B6EBD
:1037D8000001E351E411D8A4F4EF1BF0F6EF1BF05D
:1037E80025EF1CF0000E726F520E716F000E746F91
:1037F800340E736F000E766F5A0E756F000E786F69
:10380800340E776F000E7A6F000E796FFFEC23F09D
:10381800000E0001726F2A0E716F000E746F340E65
:10382800736F000E766F320E756F000E786F340E60
:10383800776F000E7A6F010E796FFFEC23F05BEF64
:103848001CF0E305E411D8A42CEF1CF02EEF1CF0BB
:103858005BEF1CF0000E726F520E716F000E746FEA
:10386800340E736F000E766F5A0E756F000E786FF8
:10387800340E776F000E7A6F010E796FFFEC23F02C
:10388800000E0001726F2A0E716F000E746F340EF5
:10389800736F000E766F320E756F000E786F340EF0
:1038A800776F000E7A6F000E796FFFEC23F012002D
:1038B8000001726F00017251D8B465EF1CF067EF18
:1038C8001CF089EF1CF06DBF6EEF1CF06CEF1CF064
:1038D80089EF1CF06AC06EF06BC06FF06CC070F0BE
:1038E8006DC071F06E1F6F1F701F711F6E2B000E61
:1038F8006F23702371236EC074F06FC075F070C0B1
:1039080076F071C077F091EF1CF06AC074F06BC06C
:1039180075F06CC076F06DC077F06A516B116C1160
:103928006D11D8A49AEF1CF09CEF1CF0A6EF1CF0C8
:10393800000E6A6F000E6B6F000E6C6F000E6D6FDD
:1039480037EF1DF0960E736FB0EF1CF0732BD89005
:103958007733763375337433000E74156E6F000E3B
:1039680075156F6F000E7615706FFE0E7715716FF7
:103978006E516F1170117111D8A4C5EF1CF0C7EF0B
:103988001CF0AAEF1CF0D5EF1CF0732B010E742766
:10399800000E752376237723D890773376337533E3
:1039A8007433000E74156E6F000E75156F6F000E70
:1039B8007615706FFF0E7715716F6E516F1170115C
:1039C8007111D8A4EAEF1CF0ECEF1CF0C9EF1CF061
:1039D800F4EF1CF07307D89074377537763777375C
:1039E80076BFF9EF1CF0FBEF1CF003EF1DF0020EA1
:1039F800736101EF1DF003EF1DF0EEEF1CF073B1E2
:103A080008EF1DF00AEF1DF00BEF1DF0769FD89020
:103A1800733373C06EF06F6B706B716B6EC071F047
:103A2800706B6F6B6E6B6E5174136F5175137051B1
:103A38007613715177137251D8B425EF1DF027EF23
:103A48001DF02FEF1DF06DBF2EEF1DF02CEF1DF0B8
:103A58002FEF1DF0778F74C06AF075C06BF076C0D9
:103A68006CF077C06DF012000A6E0A50D8B43FEFC0
:103A78001DF041EF1DF063EF1DF005BE48EF1DF08E
:103A880046EF1DF063EF1DF002C006F003C007F01B
:103A980004C008F005C009F0061E071E081E091E0E
:103AA800062A000E07220822092206C00CF007C0C9
:103AB8000DF008C00EF009C00FF06BEF1DF002C04A
:103AC8000CF003C00DF004C00EF005C00FF002505A
:103AD800031004100510D8A474EF1DF076EF1DF044
:103AE80080EF1DF0000E026E000E036E000E046ED5
:103AF800000E056E11EF1EF0960E0B6E8AEF1DF08C
:103B08000B2AD8900F320E320D320C32000E0C14E4
:103B1800066E000E0D14076E000E0E14086EFE0ED3
:103B28000F14096E0650071008100910D8A49FEF4B
:103B38001DF0A1EF1DF084EF1DF0AFEF1DF00B2A73
:103B4800010E0C26000E0D220E220F22D8900F32E5
:103B58000E320D320C32000E0C14066E000E0D14CF
:103B6800076E000E0E14086EFF0E0F14096E065035
:103B7800071008100910D8A4C4EF1DF0C6EF1DF0F7
:103B8800A3EF1DF0CEEF1DF00B06D8900C360D36C6
:103B98000E360F360EBED3EF1DF0D5EF1DF0DDEF5C
:103BA8001DF0020E0B60DBEF1DF0DDEF1DF0C8EF1E
:103BB8001DF00BB0E2EF1DF0E4EF1DF0E5EF1DF096
:103BC8000E9ED8900B320BC006F0076A086A096A85
:103BD80006C009F0086A076A066A06500C12075000
:103BE8000D1208500E1209500F120A50D8B4FFEFE8
:103BF8001DF001EF1EF009EF1EF005BE08EF1EF0E4
:103C080006EF1EF009EF1EF00F8E0CC002F00DC07B
:103C180003F00EC004F00FC005F0120002500310AC
:103C2800D8A419EF1EF01BEF1EF021EF1EF0000EB6
:103C3800036E3F0E026EB3EF1EF002040310D8A409
:103C480028EF1EF02AEF1EF030EF1EF0000E036E74
:103C5800060E026EB3EF1EF0020E02180310D8A46F
:103C680038EF1EF03AEF1EF040EF1EF0000E036E24
:103C78005B0E026EB3EF1EF0030E02180310D8A4F9
:103C880048EF1EF04AEF1EF050EF1EF0000E036ED4
:103C98004F0E026EB3EF1EF0040E02180310D8A4E4
:103CA80058EF1EF05AEF1EF060EF1EF0000E036E84
:103CB800660E026EB3EF1EF0050E02180310D8A4AC
:103CC80068EF1EF06AEF1EF070EF1EF0000E036E34
:103CD8006D0E026EB3EF1EF0060E02180310D8A484
:103CE80078EF1EF07AEF1EF080EF1EF0000E036EE4
:103CF8007D0E026EB3EF1EF0070E02180310D8A453
:103D080088EF1EF08AEF1EF090EF1EF0000E036E93
:103D1800070E026EB3EF1EF0080E02180310D8A4A7
:103D280098EF1EF09AEF1EF0A0EF1EF0000E036E43
:103D38007F0E026EB3EF1EF0090E02180310D8A40E
:103D4800A8EF1EF0AAEF1EF0B0EF1EF0000E036EF3
:103D58006F0E026EB3EF1EF0000E036E02681200C3
:103D680056C08CF057C08DF058C08EF020EE51F040
:103D780010EE87F0040EDBCFE3FFE806FCE2F5C0A7
:103D88008FF0F6C090F021EE39F010EE79F0070EC2
:103D9800DBCFE3FFE806FCE221EE63F010EE81F0F2
:103DA800050EDBCFE3FFE806FCE2000E00016A6FB8
:103DB800340EEDEC25F08C0E0001736F000E746F5D
:103DC800010E756F010E766F8FEC26F0020E000162
:103DD8006A6F2D0EEDEC25F0870E0001736F000E53
:103DE800746F010E756F010E766F8FEC26F0030E5F
:103DF80000016A6F360EEDEC25F08F0E0001736F2F
:103E0800000E746F010E756F010E766F8FEC26F041
:103E1800040E00016A6F230EEDEC25F0790E000107
:103E2800736F000E746F010E756F010E766F8FEC55
:103E380026F0050E00016A6F360EEDEC25F08F0EA8
:103E48000001736F000E746F010E756F010E766FAF
:103E58008FEC26F0060E00016A6F290EEDEC25F0B6
:103E6800810E0001736F000E746F010E756F010EE5
:103E7800766F8FEC26F0150E0001786F4B0E776F7A
:103E8800BE0EE82EFED7772FFCD7782FFAD700F092
:103E9800000EA0EC24F000D0120000016F6F000E9D
:103EA8000001726F0A0E6F19D8A45DEF1FF05FEF63
:103EB8001FF064EF1FF0000EE86FE72BDDEF1FF037
:103EC8003F0EE8656AEF1FF06CEF1FF073EF1FF00D
:103ED800010E726FE851C00F706F75EF1FF0E8C0E8
:103EE80070F06F51080DF3CF6DF0F4CF6EF0000E47
:103EF800716F3F0E706583EF1FF085EF1FF098EF2D
:103F08001FF0400E705F010E726F8A947051400965
:103F1800686F010E23EC27F00001E751B809686FBC
:103F2800010E23EC27F08A8400016A51D8B49FEF70
:103F38001FF0A1EF1FF0B9EF1FF03B0E6B6F730E70
:103F48006C6F71516B27000E6C236D516B276E518E
:103F58006C236BC0F6FF6CC0F7FF0800F5CF68F064
:103F6800725123EC27F0D0EF1FF03B0E6B6F730EEE
:103F78006C6F71516B27000E6C236D516B276E515E
:103F88006C236BC0F6FF6CC0F7FF0800F550FF0A02
:103F9800686F725123EC27F00001702B712B070E0C
:103FA8007165D9EF1FF0DBEF1FF07DEF1FF0080EF2
:103FB800E827120000016E6F000E0001706F0A0EF4
:103FC8006E19D8A4EAEF1FF0ECEF1FF0F1EF1FF025
:103FD800000EE86FE72B6AEF20F03F0EE865F7EF79
:103FE8001FF0F9EF1FF000EF20F0010E706FE8519D
:103FF800C00F6D6F02EF20F0E8C06DF0200E6E5F0D
:10400800000E6F6F3F0E6D650CEF20F00EEF20F085
:1040180021EF20F0400E6D5F010E706F8A946D5194
:104028004009686F010E23EC27F00001E751B80939
:10403800686F010E23EC27F08A8400016A51D8B416
:1040480028EF20F02AEF20F044EF20F06E51030D06
:104058003B0E6B6F7F0E6C6FF3506B27F4506C2325
:104068006F516B27000E6C236BC0F6FF6CC0F7FF17
:104078000800F5CF68F0705123EC27F05DEF20F0D1
:104088006E51030D3B0E6B6F7F0E6C6FF3506B27F9
:10409800F4506C236F516B27000E6C236BC0F6FF36
:1040A8006CC0F7FF0800F550FF0A686F705123ECE9
:1040B80027F000016D2B6F2B020E6F6566EF20F065
:1040C80068EF20F006EF20F0050EE8271200000E3A
:1040D8000001756F73BF75EF20F073EF20F07FEF6D
:1040E80020F0731F721F711F706D000E71237223F1
:1040F8007323010E756F6FBF86EF20F084EF20F0F9
:1041080090EF20F06F1F6E1F6D1F6C6D000E6D23FA
:104118006E236F23010E751B000E766F000E776FEE
:10412800000E786F000E796F705171117211731152
:10413800D8B4A1EF20F0A3EF20F0D9EF20F0010EC2
:10414800746FADEF20F0D8907037713772377337CE
:10415800742B73AFB2EF20F0B4EF20F0A7EF20F08C
:10416800D890763777377837793770516C5D7151D9
:104178006D5972516E5973516F59D8A0C6EF20F01E
:10418800C8EF20F0D1EF20F070516C5F71516D5B7A
:1041980072516E5B73516F5B7681D8907333723353
:1041A80071337033742FB4EF20F07551D8B4DFEF4A
:1041B80020F0E1EF20F0E9EF20F0791F781F771F5A
:1041C800766D000E77237823792376C06CF077C05C
:1041D8006DF078C06EF079C06FF0120000016235A2
:1041E8006335696F6951D8A4FCEF20F0FEEF20F029
:1041F80008EF21F0000E606F000E616F000E626F15
:10420800000E636F75EF21F060C064F061C065F067
:1042180062C066F063C067F0200E18EF21F0D890F6
:104228006733663365336433E82E13EF21F0645146
:10423800686F628FFF0E6017FF0E6117FF0E62171F
:10424800000E6317960E695F69BF2FEF21F02DEFFF
:1042580021F045EF21F06951800A970FD8B037EF68
:1042680021F039EF21F03BEF21F0FEEF20F0D8905C
:104278006333623361336033693F3BEF21F05DEFB5
:1042880021F01F0E69654BEF21F04DEF21F055EF3E
:1042980021F0FEEF20F0D89060376137623763373E
:1042A80069076951D8A45BEF21F05DEF21F04FEF6A
:1042B80021F06851D8B463EF21F065EF21F06DEF7C
:1042C80021F0631F621F611F606D000E612362236E
:1042D800632360C060F061C061F062C062F063C0D7
:1042E80063F01200043405340B6E0B50D8A47FEF32
:1042F80021F081EF21F08BEF21F0000E026E000E0D
:10430800036E000E046E000E056EF8EF21F002C079
:1043180006F003C007F004C008F005C009F0200E3D
:104328009BEF21F0D8900932083207320632E82E86
:1043380096EF21F006500A6E048EFF0E0216FF0E4D
:104348000316FF0E0416000E0516960E0B5E0BBE26
:10435800B2EF21F0B0EF21F0C8EF21F00B50800A46
:10436800970FD8B0BAEF21F0BCEF21F0BEEF21F0E3
:1043780081EF21F0D89005320432033202320B3E2D
:10438800BEEF21F0E0EF21F01F0E0B64CEEF21F01D
:10439800D0EF21F0D8EF21F081EF21F0D89002364C
:1043A8000336043605360B060B50D8A4DEEF21F091
:1043B800E0EF21F0D2EF21F00A50D8B4E6EF21F077
:1043C800E8EF21F0F0EF21F0051E041E031E026C39
:1043D800000E03220422052202C002F003C003F0EB
:1043E80004C004F005C005F0120000016E6F000E55
:1043F8000001706F3F0E6E6504EF22F006EF22F0A9
:104408000AEF22F0400E6E5F010E706F8A946E9F65
:104418006E8D6EC068F0705123EC27F06AC060F0B2
:104428000001616B000E636F080E626F9CEC23F055
:1044380000016051BF0BB809686F705123EC27F079
:104448008A840001705105EC27F00001705105ECD9
:1044580027F000016F6F8A946EC068F0705123ECEA
:1044680027F000016B51D8B43CEF22F03EEF22F068
:1044780052EF22F06AC06CF0070E6C17010E6D6FD8
:104488006C2B49EF22F0D8906D376C2F47EF22F054
:1044980000016D516F116F6F65EF22F06AC06CF00B
:1044A800070E6C17010E6D6F6C2B5DEF22F0D89024
:1044B8006D376C2F5BEF22F000016D51FF0A6F150D
:1044C8006F6F8A846FC068F0705123EC27F0120078
:1044D8000001AE5148086C6FE80EAF556D6F010EC4
:1044E800B0556E6F000EB1556F6FAEC070F0AFC0B3
:1044F80071F0B0C072F0B1C073F06BEC20F0000145
:104508006C51CB6ECB50B26FB36B010EB227000E5D
:10451800B323B2C06AF0B3C06BF0000E6BBFFF0EDE
:104528006C6F6D6F010E5CEC1CF06AC091F06BC093
:1045380092F06CC093F06DC094F0000E00017C6F97
:10454800000E7D6FC80E7E6F420E7F6FAAC078F096
:10455800ABC079F0ACC07AF0ADC07BF07CEC15F064
:1045680078C095F079C096F07AC097F07BC098F043
:1045780051EC11F091C0B4F092C0B5F093C0B6F010
:1045880094C0B7F0B4C060F0B5C061F0B6C062F0D6
:10459800B7C063F0F2EC20F000016051BB6EBA9A2C
:1045A800BA98120000016E6F000E836E8A9A270E69
:1045B80000016D6FF50EE82EFED76D2FFCD78A8AA5
:1045C8008A988A908A928A94270E00016D6FF50E58
:1045D800E82EFED76D2FFCD7C00E0001686F000EC5
:1045E80023EC27F0C00E0001686F010E23EC27F0C2
:1045F800400E0001686F000E23EC27F0400E00010A
:10460800686F010E23EC27F0B80E0001686F000EEA
:1046180023EC27F0B80E0001686F010E23EC27F099
:1046280000016E05D8A41BEF23F01DEF23F02AEF3D
:1046380023F03F0E686F000E23EC27F03F0E0001B9
:10464800686F010E23EC27F035EF23F03E0E686FFC
:10465800000E23EC27F03E0E0001686F010E23ECDC
:1046680027F0000EA0EC24F0120021EE56F010EE18
:1046780083F0060EDBCFE3FFE806FCE221EE69F0EB
:1046880010EE8AF0050EDBCFE3FFE806FCE221EE30
:104698002FF010EE79F0090EDBCFE3FFE806FCE21D
:1046A800000EA0EC24F0020E00016A6F120EEDEC71
:1046B80025F0830E0001736F000E746F010E756F85
:1046C800010E766F8FEC26F0020E00016A6F4E0E17
:1046D800EDEC25F08A0E0001736F000E746F010E69
:1046E800756F010E766F8FEC26F0050E00016A6F6C
:1046F8001A0EEDEC25F0790E0001736F000E746F41
:10470800010E756F010E766F8FEC26F0150E000105
:10471800786F4B0E776FBE0EE82EFED7772FFCD73B
:10472800782FFAD700F0000EA0EC24F000D0120089
:10473800000E0001656F63BFA6EF23F0A4EF23F01E
:10474800ACEF23F0626D631FD8B0632B010E656F69
:1047580061BFB3EF23F0B1EF23F0B9EF23F0606D41
:10476800611FD8B0612B010E651B000E676F000E2C
:10477800666F62516311D8B4C4EF23F0C6EF23F01B
:10478800EEEF23F0010E646FCEEF23F0D89062377E
:104798006337642B63AFD3EF23F0D5EF23F0CAEF71
:1047A80023F0D890663767376251605D635161596D
:1047B800D8A0E1EF23F0E3EF23F0E8EF23F0625114
:1047C800605F6351615B6681D89063336233642FA5
:1047D800D5EF23F06551D8B4F4EF23F0F6EF23F0CA
:1047E800FAEF23F0666D671FD8B0672B66C060F0DC
:1047F80067C061F0120000017551711907E1765127
:104808007219D8A40AEF24F00CEF24F02BEF24F04F
:1048180073C07CF074C07DF01CEF24F07CC06AF09B
:1048280079C06BF07151F9EC21F000017C4B7D2BC4
:1048380077517C5D7D51800A7B6F7851800A7B5966
:10484800D8A029EF24F02BEF24F012EF24F07751B1
:10485800731907E178517419D8A435EF24F037EFAC
:1048680024F056EF24F071C07EF072C07FF047EF5D
:1048780024F073C06AF079C06BF07E51F9EC21F036
:1048880000017E4B7F2B75517E5D7F51800A7B6FC7
:104898007651800A7B59D8A054EF24F056EF24F0C3
:1048A8003DEF24F01200620EF66E4B0EF76E000E0E
:1048B800F86E01EE00F010EE78F00900F5CFEEFF8B
:1048C800E550E150FAE1040EF66E4F0EF76E000E59
:1048D800F86E00EEE9F010EE0EF00900F5CFEEFFED
:1048E800E550E150FAE1120EF66E4F0EF76E000E2B
:1048F800F86E00EE51F010EE08F00900F5CFEEFF6B
:10490800E550E150FAE101EECFF0140EEE6AE80648
:10491800FDE100EEC9F0200EEE6AE806FDE100EECA
:1049280034F01D0EEE6AE806FDE15D905D92000E22
:10493800F86E000159EF1AF000016A6F000E0001CD
:104948006C6F8A94400E686F000E23EC27F0400EBF
:104958000001686F010E23EC27F000016C51B809C3
:10496800686F000E23EC27F000016C51B809686FDE
:10497800010E23EC27F08A84000E00016B6F6A5148
:10498800010DF3500008686F000E23EC27F00001BA
:104998006A51010DF3500008686F010E23EC27F0EF
:1049A80000016B2B3F0E6B65DCEF24F0DEEF24F08B
:1049B800C3EF24F06C2B070E6C65E5EF24F0E7EFEE
:1049C80024F0A5EF24F01200000E00016B6F000E1A
:1049D8006A6F000E6D6F000E6E6F8A94400E686FDE
:1049E8006E5123EC27F000016D51B809686F6E51C4
:1049F80023EC27F08A84000E00016C6F3B0E6A25B9
:104A0800F66E7B0E6B21F76E0800F5CF68F06E51DD
:104A180023EC27F000016A4B6B2B6C2B3F0E6C6567
:104A280018EF25F01AEF25F002EF25F06E2B010E96
:104A38006E6521EF25F023EF25F0F1EF24F06D2BC3
:104A4800070E6D652AEF25F02CEF25F0EFEF24F027
:104A58008A908A921200EA0E0001F76F010EF86F31
:104A6800000EF96F000EFA6F000EFC6F320EFB6F2E
:104A7800000E5A6E010E596E000EE26F000EE16FC5
:104A8800000E5C6E010E5B6E808A000EE06F000EF9
:104A9800DF6F000EDE6F000EDD6F000EFE6F010E81
:104AA800FD6F000E0101E06F000EDF6F000E0001C8
:104AB800E46F000EE36F000EDA6F000ED96F000E80
:104AC8000101E86F030EE76F000EE66F020EE56F57
:104AD800000EE46F0A0EE36F120000017E517A5D4A
:104AE800606F7F517B59616F80517C59626F815132
:104AF8007D59636F86518A5D646F87518B59656FE5
:104B080088518C59666F89518D59676F24EC26F04E
:104B180060C06CF061C06DF062C06EF063C06FF091
:104B280000017E51825D706F7F518359716F805192
:104B38008459726F81518559736F6BEC20F00001B5
:104B480086516C257A6F87516D217B6F88516E2154
:104B58007C6F89516F217D6F1200322E526563740C
:104B6800616E67756C616972650043686F69736926
:104B78007220756E206D6F646500312E4F73636906
:104B88006C6C6F73636F7065004561737953434F45
:104B98005045005175656E74696E004D6F64653AD5
:104BA80032004D6F64653A31005242363D4F4B003A
:104BB80050726F6A657400467265713A004A756C86
:104BC8006573004D4355203A0044433A00487A0043
:104BD800250000016C6F000E00016B6F800E6C6188
:104BE800F8EF25F0FAEF25F023EF26F0070E6A65B7
:104BF80000EF26F002EF26F004EF26F023EF26F070
:104C08006CC0E8F06AC0E7F03F0E6C650EEF26F066
:104C180010EF26F014EF26F0400E6C5F010E6B6F5C
:104C28008A946C514009686F6B5123EC27F000019E
:104C38006A51B809686F6B5123EC27F08A84120017
:104C4800000E0001686F000E696F000E6A6F000E9B
:104C58006B6F60A132EF26F034EF26F03CEF26F0C0
:104C6800645168276551692366516A2367516B232C
:104C7800D8906437653766376737D89063336233BF
:104C8800613360336051611162116311D8A44FEF31
:104C980026F051EF26F02DEF26F068C060F069C0CD
:104CA80061F06AC062F06BC063F012003FC083FF1E
:104CB8008086080E0001606FC90EE82EFED7602FAF
:104CC800FCD700D0809645C083FF8080080E000185
:104CD800606FC90EE82EFED7602FFCD700D08090F9
:104CE80043C083FF8082080E0001606FC90EE82E62
:104CF800FED7602FFCD700D0809241C083FF80840C
:104D0800080E0001606FC90EE82EFED7602FFCD791
:104D180000D080941200B1EF26F000017551D8B48C
:104D280098EF26F09AEF26F0A5EF26F076C06AF005
:104D380073C0D9FF74C0DAFFDF5051EC1FF0AEEF3B
:104D480026F076C06AF073C0D9FF74C0DAFFDF506E
:104D5800DEEC1FF00001734B742B73C0D9FF74C0D5
:104D6800DAFFDF50D8A4BBEF26F0BDEF26F091EFB5
:104D780026F01200000E00017C1B000E7D1B000EA9
:104D88007E1B800E7F1B78C060F079C061F07AC00E
:104D980062F07BC063F07CC064F07DC065F07EC0CB
:104DA80066F07FC067F090EC0CF060C078F061C0EE
:104DB80079F062C07AF063C07BF01200000E161A18
:104DC800000E171A000E181A800E191A12C002F0D7
:104DD80013C003F014C004F015C005F016C006F0A7
:104DE80017C007F018C008F019C009F0F1EC0EF070
:104DF80002C012F003C013F004C014F005C015F08F
:104E080012000001606F00016051D8B40EEF27F066
:104E180010EF27F014EF27F08A808A9216EF27F018
:104E28008A928A8295688A868A8800D083CF61F0C0
:104E38008A9800D08A908A9200016151120000017C
:104E4800696F00016951D8B42CEF27F02EEF27F0D5
:104E580032EF27F08A808A9234EF27F08A928A828A
:104E6800000E956E8A9668C08CFF8A8800D08A9852
:104E780000D08A908A921200000E956E000E836E02
:104E88000A0EC16E110EC26EF00E926E000E806E8A
:104E9800C00E936E000E816E040E966E000E846E28
:104EA800F28ED08E9D8C9F9CF28CF286F18012003F
:104EB80034C07CF035C07DF036C07EF037C07FF05E
:104EC80078C07CF079C07DF07AC07EF07BC07FF03E
:104ED80000017F9F7CC078F07DC079F07EC07AF0B9
:104EE8007FC07BF01200720ED36EFD0E946E0C0E16
:104EF800BA6E000ECC6E070ECA6E12007C0045001A
:104F080032003100320031002600457269630062C8
:024F180079001E
:10733A000000000000000000000000000000000043
:10734A000000000000000000000000000000000033
:10735A000000000000000000000000000000000023
:10736A000000000000000000000000000000000013
:10737A000000000000000000000000000000000003
:10738A0000000000000000000000000000000000F3
:10739A0000000000000000000000000000000000E3
:1073AA0000000000000000000000000000000000D3
:1073BA0000000000000000000000000000000000C3
:1073CA0000000000000000000000000000000000B3
:1073DA0000000000000000000000000000000000A3
:1073EA000000000000000000000000000000000093
:1073FA000000000000000000000000000000000083
:10740A000000000000000000000000000000000072
:10741A000000000000000000000000000000000062
:10742A000000000000000000000000000000000052
:10743A0000000000000000000000065F5F06000078
:10744A00000007070007070000147F7F147F7F14DE
:10745A0000242E6B6B3A120000466630180C6662E6
:10746A0000307A4F5D377A480004070300000000B5
:10747A0000001C3E63410000000041633E1C000006
:10748A0000082A3E1C1C3E2A0808083E3E0808003E
:10749A00000080E0600000000008080808080800F2
:1074AA000000006060000000006030180C06030154
:1074BA00003E7F71594D7F3E0040427F7F40400031
:1074CA0000627359496F660000226349497F36009A
:1074DA0000181C16537F7F5000276745457D3900E9
:1074EA00003C7E4B4979300000030371790F070095
:1074FA0000367F49497F360000064F49693F1E0022
:10750A000000006666000000000080E666000000D9
:10751A0000081C366341000000242424242424008B
:10752A0000004163361C080000020351590F06008F
:10753A00003E7F415D5D1F1E007C7E13137E7C0032
:10754A0000417F7F49497F36001C3E6341416322E7
:10755A0000417F7F41633E1C00417F7F495D41635B
:10756A0000417F7F491D0103001C3E634151737234
:10757A00007F7F08087F7F000000417F7F41000075
:10758A0000307040417F3F0100417F7F081C7763D4
:10759A0000417F7F41406070007F7F0E1C0E7F7F1D
:1075AA00007F7F060C187F7F001C3E6341633E1CF0
:1075BA0000417F7F49090F06001E3F21717F5E004F
:1075CA0000417F7F09197F6600266F4D597332008B
:1075DA000003417F7F410300007F7F40407F7F009F
:1075EA00001F3F60603F1F00007F7F3018307F7FA1
:1075FA000043673C183C674300074F78784F070001
:10760A0000476371594D677300007F7F4141000055
:10761A00000103060C183060000041417F7F000022
:10762A0000080C0603060C08008080808080808099
:10763A00800000030704000000207454543C784082
:10764A0000417F3F4848783000387C44446C280029
:10765A0000307848493F7F4000387C54545C180019
:10766A0000487E7F490302000098BCA4A4F87C0469
:10767A0000417F7F08047C780000447D7D40000043
:10768A000060E08080FD7D0000417F7F10386C44FF
:10769A000000417F7F400000007C7C18381C7C7809
:1076AA00007C7C04047C780000387C44447C3800EC
:1076BA000084FCF8A4243C1800183C24A4F8FC8498
:1076CA0000447C784C041C1800485C545474240010
:1076DA000000043E7F442400003C7C40403C7C4047
:1076EA00001C3C60603C1C00003C7C7038707C3C98
:1076FA0000446C3810386C44009CBCA0A0FC7C0090
:10770A00004C64745C4C64000008083E77414100F8
:10771A000000000077770000004141773E0808002A
:10772A0000020301030203010070784C464C787092
:10773A00000E9F91B1FB4A00003A7A40407A7A40A3
:10774A0000387C54555D19000002237555557D7B20
:10775A0042217554547D794000217555547C7840F6
:10776A0000207457577C784000183CA4A4E44000D9
:10777A0000023B7D55555D1B02397D54545D19004D
:10778A0000397D55545C18000001457C7C4101009C
:10779A00000203457D7D43020001457D7C400000D7
:1077AA0000797D1612167D790070782B2B7870007F
:1077BA0000447C7C5555450000207454547C7C540C
:1077CA00547C7E0B097F7F4900327B49497B32001A
:1077DA0000327A48487A320000327A4A48783000D1
:1077EA00003A7B41417B7A40003A7A4240787840BD
:1077FA00009ABAA0A0FA7A000001193C66663C1900
:10780A00013D7D40407D3D0000183C24E7E72424EB
:10781A0000687E7F49436620002B2FFCFC2F2B003B
:10782A0000FFFF09092FF6F8A040C088FE7F090370
:10783A0002207454557D79400000447D7D4100004A
:10784A00003078484A7A320000387840427A7A40E2
:10785A00007A7A0A0A7A7000007D7D19317D7D00EE
:10786A000000262F292F2F280000262F292F260037
:10787A000030784D456020000038380808080800B4
:10788A000008080808383800004F6F3018CCEEBBE3
:10789A00914F6F30186C76FBF90000007B7B00007B
:1078AA0000081C3622081C362222361C0822361CE6
:1078BA0008AA005500AA005500AA55AA55AA55AA11
:1078CA0055DDFFAA77DDAAFF77000000FFFF000061
:1078DA0000101010FFFF000000141414FFFF000036
:1078EA00001010FFFF00FFFF001010F0F010F0F082
:1078FA0000141414FCFC0000001414F7F700FFFF36
:10790A00000000FFFF00FFFF001414F4F404FCFC65
:10791A000014141717101F1F0010101F1F101F1F0D
:10792A00001414141F1F000000101010F0F00000C3
:10793A00000000001F1F1010101010101F1F101041
:10794A0010101010F0F0101010000000FFFF1010BF
:10795A00101010101010101010101010FFFF10103F
:10796A0010000000FFFF1414140000FFFF00FFFFC7
:10797A001000001F1F101717140000FCFC04F4F479
:10798A001414141717101717141414F4F404F4F435
:10799A00140000FFFF00F7F714141414141414143D
:1079AA00141414F7F700F7F714141414171714140F
:1079BA001410101F1F101F1F10141414F4F41414A1
:1079CA00141010F0F010F0F01000001F1F101F1F0D
:1079DA00100000001F1F141414000000FCFC1414F3
:1079EA00140000F0F010F0F0101010FFFF10FFFF6D
:1079FA0010141414FFFF1414141010101F1F000089
:107A0A0000000000F0F0101010FFFFFFFFFFFFFF63
:107A1A00FFF0F0F0F0F0F0F0F0FFFFFFFF000000E1
:107A2A000000000000FFFFFFFF0F0F0F0F0F0F0FE7
:107A3A000F387C446C386C4400FCFE2A2A3E140041
:107A4A00007E7E020206060000027E7E027E7E0222
:107A5A000063775D4963630000387C447C3C04041E
:107A6A000080FE7E20203E1E000406027E7C060266
:107A7A000099BDE7E7BD9900001C3E6B496B3E1CAF
:107A8A00004C7E7301737E4C0030784A4F7D39007A
:107A9A0000183C243C3C243C1898FC643C3E273D9E
:107AAA0018000000000000000000000000000000B4
:107ABA0000000000000000000000000000000000BC
:107ACA0000000000000000000000000000000000AC
:107ADA00000000000000000000000000000000009C
:107AEA00000000000000000000000000000000008C
:107AFA00000000000000000000000000000000007C
:107B0A00000000000000000000000000000000006B
:107B1A00000000000000000000000000000000005B
:107B2A00000000000000000000000000000000004B
:107B3A00000000000000000000808080800000003B
:107B4A0000000000000000000000000000800000AB
:107B5A00800000800000000000000000000000001B
:107B6A00000000000000000000000000000000000B
:107B7A0000000000000000000000000000000000FB
:107B8A0000000000000000000000000000000000EB
:107B9A0000000000000000000000000000000000DB
:107BAA0000000000000000000000000000000000CB
:107BBA00000000000000003E4180808080413E00BD
:107BCA0000D894A46C00007884844C0088FC8081DE
:107BDA00FF8081FF800078848484780000D894A490
:107BEA006C00007884844C000078848484780008CF
:107BFA00FC488484780000789494580000000000BF
:107C0A00D894A46C00041C6480740C0400D894A456
:107C1A006C0004FF844000789494580088FC88041F
:107C2A00FC8804F88000000000000000000000004A
:107C3A00000000000000000000000000000000003A
:107C4A00000000000000000000000000000000002A
:107C5A00000000000000000000000000000000001A
:107C6A000000000000000000000000000000000406
:107C7A0007040000000000000000000000000000EF
:107C8A0000000000000404060100000000000000DB
:107C9A0000000000000000000000000000000000DA
:107CAA0000000000000000000000000000000000CA
:107CBA0000000000000000000000000000000000BA
:107CCA0000000000000000000000000000000000AA
:107CDA00000000000000000000000000000000009A
:107CEA000080F0F8181C0E0E1C1878F0C0800000F6
:107CFA0000000000000000000000000000000080FA
:107D0A00F0F8181C0C0E0E1C18F8F0800000000089
:107D1A000000000000000000000000000000000059
:107D2A000000000000000000000000000000000049
:107D3A000000000000000000000000000000000039
:107D4A000000000000000000000000000000000029
:107D5A000000000000000000000000000000000019
:107D6A00F8FF0F0000000000000000000FFFF800FD
:107D7A000000000000000000000000000000F8FF02
:107D8A000F0000000000000000000FFFF8000000D4
:107D9A0000000000000000000000000000000000D9
:107DAA0000000000000000000000000000000000C9
:107DBA0000000000000000000000000000000000B9
:107DCA000000000000000000000800080008001C75
:107DDA00FCF8800800080008000800080008E0FF16
:107DEA003F090008000800080008000800093FFFD2
:107DFA00E00800080008000800080008E0FF3F0942
:107E0A000008000800080008000800090F0F000811
:107E1A000008000800000000000000000000000048
:107E2A000000000000000000000000000000000048
:107E3A000000000000000000000000000000000038
:107E4A000000000000000000000000000000000028
:107E5A0000073FFCE000000000000080C0FC7F0734
:107E6A000000000000000000000000000000000701
:107E7A003FFCE000000000000000C0FC7F0700009B
:107E8A0000000000000000000000000000000000E8
:107E9A0000000000000000000000000000000000D8
:107EAA0000000000000000000000000000000000C8
:107EBA0000000000000000000000000000000000B8
:107ECA0000000000000000000000000000000000A8
:107EDA0000000001070F1C18181C0F070100000002
:107EEA000000000000000000000000000000000088
