:020000040000FA
:0400000007EF00F016
:100008005682BCED12F034EF15F00450800B0D6EE3
:10001800045004240F6E03AE14EF00F016EF00F046
:1000280017EF00F00F800F50D8B41DEF00F01FEF4E
:1000380000F034EF00F00F28D8A425EF00F027EFE8
:1000480000F02FEF00F0000E016E000E026E000EA1
:10005800036E000E046E038E000E046E3CEF00F07B
:10006800000E016E000E026E000E036E000E046E8E
:100078000850800B0E6E0D500E18D8B446EF00F0E5
:1000880048EF00F049EF00F00D8C085008240E6E80
:1000980007AE51EF00F053EF00F054EF00F00E8080
:1000A8000E50D8B45AEF00F05CEF00F071EF00F09A
:1000B8000E28D8A462EF00F064EF00F06CEF00F0B7
:1000C800000E056E000E066E000E076E000E086E1E
:1000D800078E000E086E79EF00F0000E056E000E18
:1000E800066E000E076E000E086E0F500E5CD8B03C
:1000F80080EF00F082EF00F0A9EF00F00DAC87EF81
:1001080000F089EF00F08BEF00F0800E0D1A0FC0A1
:1001180010F00EC00FF010C00EF001C010F005C0B6
:1001280001F010C005F002C010F006C002F010C0C7
:1001380006F003C010F007C003F010C007F004C0B9
:1001480010F008C004F010C008F0000E106E0F5038
:100158000EC009F00A6A095E000E0A5A0ABEBEEF0E
:1001680000F00A5009E11A0E095CD8A0BEEF00F0B1
:10017800C0EF00F0F7EF00F0015002100310041078
:10018800D8A4C9EF00F0CCEF00F0010ECDEF00F0DD
:10019800000E106E000E016E000E026E000E036E51
:1001A800000E046E0EC00FF000EF01F010A0DFEF9C
:1001B80000F0E1EF00F0E7EF00F0D890103001090F
:1001C800106EE9EF00F0D890103201A0EEEF00F0C9
:1001D800F0EF00F0F1EF00F0108E04340432033237
:1001E800023201320F2A0E500F5CD8A0FEEF00F049
:1001F80000EF01F0DAEF00F00DBC05EF01F007EFBA
:1002080001F047EF01F00F50D8A40DEF01F00FEF08
:1002180001F019EF01F0000E016E000E026E000EE3
:10022800036E000E046E68EF02F0055001260650BA
:100238000222075003220850042204A026EF01F0EE
:1002480028EF01F0D4EF01F010A02DEF01F02FEF0F
:1002580001F035EF01F0D89010300109106E37EF3A
:1002680001F0D890103201A03CEF01F03EEF01F010
:100278003FEF01F0108E04340432033202320132AF
:100288000F2AD4EF01F00550015C065002580750C0
:1002980003580450800A096E0850800A0958D8B0DB
:1002A80058EF01F05AEF01F085EF01F00150055CBD
:1002B800096E025006580A6E035007580B6E045018
:1002C80008580C6EFF0E0924016EFF0E0A20026EFC
:1002D800FF0E0B20036EFF0E0C20046E800E0D1A0D
:1002E800106C1050D8A47BEF01F07DEF01F08DEF7A
:1002F80001F0010E0126000E0222032204228DEFD6
:1003080001F00550015E0650025A0750035A085082
:10031800045A0150021003100410D8A496EF01F0FB
:1003280098EF01F0CDEF01F01050D8A49EEF01F046
:10033800A0EF01F0CDEF01F0000E016E000E026E8D
:10034800000E036E000E046E68EF02F0D8900136BE
:1003580002360336043610AEB4EF01F0B6EF01F002
:10036800B7EF01F0018010A0BCEF01F0BEEF01F083
:10037800C2EF01F0D8801036C4EF01F0D8901036E3
:100388000F50D8B4CAEF01F0CCEF01F0CDEF01F077
:100398000F0603AED2EF01F0D4EF01F0AAEF01F09F
:1003A800000E0E6E10AEDBEF01F0DDEF01F0F5EFA1
:1003B80001F010C009F07F0E0916D8B4E6EF01F07D
:1003C800E8EF01F0ECEF01F0010E0E6EF5EF01F031
:1003D80001A0F1EF01F0F3EF01F0F5EF01F0E8EF24
:1003E80001F00E50D8B4FBEF01F0FDEF01F028EF5B
:1003F80002F0010E0126000E02220322042204A0AC
:1004080008EF02F00AEF02F028EF02F001C009F04D
:1004180002C00AF003C00BF004C00CF00C340C321C
:100428000B320A32093209C001F00AC002F00BC0CF
:1004380003F00CC004F00F28D8B425EF02F027EF22
:1004480002F028EF02F00F2A0F28D8B42EEF02F09E
:1004580030EF02F038EF02F00F50D8A436EF02F078
:1004680038EF02F04AEF02F0000E016E000E026E45
:10047800000E036E000E046E0F50D8A446EF02F073
:1004880048EF02F04AEF02F0000E0D6E0FA04FEF9A
:1004980002F051EF02F054EF02F0038E55EF02F034
:1004A800039ED8900F30046E0DAE5DEF02F05FEF43
:1004B80002F060EF02F0048E01C001F002C002F009
:1004C80003C003F004C004F0120000017C51800B4B
:1004D800856F7C517C258B6F7BAF75EF02F077EFD2
:1004E80002F078EF02F08B818B51D8B47EEF02F0E6
:1004F80080EF02F093EF02F08B29D8A486EF02F088
:1005080088EF02F090EF02F0000E796F000E7A6F1C
:10051800000E7B6F000E7C6F7B8F9BEF02F0000E4E
:10052800796F000E7A6F000E7B6F000E7C6F805122
:10053800800B851B805180258A6F7FAFA6EF02F064
:10054800A8EF02F0A9EF02F08A818A51D8B4AFEF80
:1005580002F0B1EF02F0C4EF02F08A29D8A4B7EF95
:1005680002F0B9EF02F0C1EF02F0000E7D6F000E4D
:100578007E6F000E7F6F000E806F7F8FCCEF02F0D2
:10058800000E7D6F000E7E6F000E7F6F000E806F75
:100598008A51D8B4D2EF02F0D4EF02F0DCEF02F0C7
:1005A8008B51D8A4DAEF02F0DCEF02F0E6EF02F0AC
:1005B800000E796F000E7A6F000E7B6F000E7C6F55
:1005C8007EEF04F07F517903F3CF90F0F4CF91F0F0
:1005D8009051866F876B886B896B91518C6F8D6B8F
:1005E8008E6B8F6B7E517A03F3CF90F0F4CF91F03E
:1005F80090518627000E87238823892391518C27C1
:10060800000E8D238E238F237D517B03F3CF90F033
:10061800F4CF91F090518627000E872388238923F1
:1006280091518C27000E8D238E238F2388C089F04B
:1006380087C088F086C087F0866B7D517A03F3CF38
:1006480090F0F4CF91F09051862791518723000EB6
:100658008823000E89237E517903F3CF90F0F4CFDD
:1006680091F09051862791518723000E8823000E20
:10067800892388C089F087C088F086C087F0866B98
:100688007D517903F3CF90F0F4CF91F09051862704
:1006980091518723000E8823000E89237F517A0306
:1006A800F3CF90F0F4CF91F090518C2791518D2396
:1006B800000E8E23000E8F237E517B03F3CF90F024
:1006C800F4CF91F090518C2791518D23000E8E23F9
:1006D800000E8F237F517B03F3CF90F0F4CF91F07E
:1006E8009051816F9151826F836B846B83C084F0CA
:1006F80082C083F081C082F0816B81518C27825146
:100708008D2383518E2384518F2386C081F087C027
:1007180082F088C083F089C084F0190E99EF03F045
:10072800D8908433833382338133E82E94EF03F0F7
:1007380081518C2782518D2383518E2384518F239D
:1007480088C089F087C088F086C087F0866B8A5198
:100758008BC081F0826B8127000E8223820E812557
:10076800906FFF0E8221916FCFEF03F0D8908C37F6
:100778008D378E378F3789AFC4EF03F0C6EF03F09C
:10078800C7EF03F08C81D890863787378837893749
:100798009007D8A091078EAFD4EF03F0D6EF03F0FF
:1007A800BAEF03F0000E8A6F89AFDDEF03F0DFEFD9
:1007B80003F003EF04F0FF0E8615816FFF0E871517
:1007C800826FFF0E8815836F7F0E8915846F8151A4
:1007D800821183118411D8B4F4EF03F0F6EF03F01B
:1007E800FAEF03F0010E8A6F03EF04F08CA1FFEF1C
:1007F80003F001EF04F003EF04F0F6EF03F08A5181
:10080800D8B409EF04F00BEF04F02FEF04F0010E59
:100818008C27000E8D238E238F238FA116EF04F0D3
:1008280018EF04F02FEF04F08CC081F08DC082F037
:100838008EC083F08FC084F0843584338333823351
:10084800813381C08CF082C08DF083C08EF084C06B
:100858008FF0904B912B91BF3AEF04F0915108E142
:100868009029D8A03AEF04F03CEF04F046EF04F0EA
:10087800000E8C6F000E8D6F800E8E6F7F0E8F6F47
:1008880074EF04F091BF53EF04F0915106E1900525
:10089800D8B051EF04F053EF04F05FEF04F0000E0E
:1008A8008C6F000E8D6F000E8E6F000E8F6F000E16
:1008B800856F74EF04F090C08BF0FF0E8C17FF0E5D
:1008C8008D177F0E8E17000E8F178BA16EEF04F019
:1008D80070EF04F071EF04F08E8FD8908B318F6F2A
:1008E80085518F138CC079F08DC07AF08EC07BF063
:1008F8008FC07CF012001250800B1B6E1250122415
:10090800216E11AE8AEF04F08CEF04F08DEF04F045
:1009180021802150D8B493EF04F095EF04F0A8EFAC
:1009280004F02128D8A49BEF04F09DEF04F0A5EF74
:1009380004F0000E0F6E000E106E000E116E000E09
:10094800126E118EB0EF04F0000E0F6E000E106ED6
:10095800000E116E000E126E1650800B1B1A1650E8
:100968001624206E15AEBBEF04F0BDEF04F0BEEF09
:1009780004F020802050D8B4C4EF04F0C6EF04F08F
:10098800D9EF04F02028D8A4CCEF04F0CEEF04F07F
:10099800D6EF04F0000E136E000E146E000E156EE6
:1009A800000E166E158EE1EF04F0000E136E000EA9
:1009B800146E000E156E000E166E2050D8B4E7EFB8
:1009C80004F0E9EF04F0F1EF04F02150D8A4EFEFC0
:1009D80004F0F1EF04F0FBEF04F0000E0F6E000ED0
:1009E800106E000E116E000E126E93EF06F0155089
:1009F8000F02F3CF26F0F4CF27F026501C6E1D6AA5
:100A08001E6A1F6A2750226E236A246A256A1450B8
:100A18001002F3CF26F0F4CF27F026501C26000E44
:100A28001D221E221F2227502226000E23222422A6
:100A3800252213501102F3CF26F0F4CF27F02650C9
:100A48001C26000E1D221E221F2227502226000EC1
:100A58002322242225221EC01FF01DC01EF01CC008
:100A68001DF01C6A13501002F3CF26F0F4CF27F0C4
:100A780026501C2627501D22000E1E22000E1F2263
:100A880014500F02F3CF26F0F4CF27F026501C267F
:100A980027501D22000E1E22000E1F221EC01FF00E
:100AA8001DC01EF01CC01DF01C6A13500F02F3CFAE
:100AB80026F0F4CF27F026501C2627501D22000EC2
:100AC8001E22000E1F2215501002F3CF26F0F4CF7D
:100AD80027F02650222627502322000E2422000E1B
:100AE800252214501102F3CF26F0F4CF27F0265018
:100AF800222627502322000E2422000E25221550DC
:100B08001102F3CF26F0F4CF27F02650176E2750A6
:100B1800186E196A1A6A19C01AF018C019F017C0A5
:100B280018F0176A17502226185023221950242229
:100B38001A5025221CC017F01DC018F01EC019F04D
:100B48001FC01AF0190EAEEF05F0D8901A321932FC
:100B580018321732E82EA9EF05F017502226185040
:100B68002322195024221A5025221EC01FF01DC00E
:100B78001EF01CC01DF01C6A205021C017F0186A16
:100B88001726000E1822820E1724266EFF0E182034
:100B9800276EE4EF05F0D890223623362436253622
:100BA8001FAED9EF05F0DBEF05F0DCEF05F0228092
:100BB800D8901C361D361E361F362606D8A02706A6
:100BC80024AEE9EF05F0EBEF05F0CFEF05F0000EEE
:100BD800206E1FAEF2EF05F0F4EF05F018EF06F007
:100BE800FF0E1C14176EFF0E1D14186EFF0E1E1438
:100BF800196E7F0E1F141A6E1750181019101A103C
:100C0800D8B409EF06F00BEF06F00FEF06F0010E6F
:100C1800206E18EF06F022A014EF06F016EF06F08B
:100C280018EF06F00BEF06F02050D8B41EEF06F0D0
:100C380020EF06F044EF06F0010E2226000E2322D4
:100C48002422252225A02BEF06F02DEF06F044EFF5
:100C580006F022C017F023C018F024C019F025C0F0
:100C68001AF01A341A3219321832173217C022F011
:100C780018C023F019C024F01AC025F0264A272AE4
:100C880027BE4FEF06F0275008E12628D8A04FEFDF
:100C980006F051EF06F05BEF06F0000E226E000E34
:100CA800236E800E246E7F0E256E89EF06F027BE18
:100CB80068EF06F0275006E12604D8B066EF06F084
:100CC80068EF06F074EF06F0000E226E000E236E39
:100CD800000E246E000E256E000E1B6E89EF06F0C6
:100CE80026C021F0FF0E2216FF0E23167F0E2416B3
:100CF800000E251621A083EF06F085EF06F086EF9B
:100D080006F0248ED8902130256E1B50251222C063
:100D18000FF023C010F024C011F025C012F012000B
:100D280000016351800B706F63516325776F62AF69
:100D3800A0EF06F0A2EF06F0A3EF06F07781775157
:100D4800D8B4A9EF06F0ABEF06F0C0EF06F07729AC
:100D5800D8A4B1EF06F0B3EF06F0BBEF06F0000E33
:100D6800606F000E616F000E626F000E636F628F1E
:100D7800000E636FC8EF06F0000E606F000E616F23
:100D8800000E626F000E636F6751800B701B675116
:100D98006725786F66AFD3EF06F0D5EF06F0D6EF8C
:100DA80006F078817851D8B4DCEF06F0DEEF06F073
:100DB800F3EF06F07829D8A4E4EF06F0E6EF06F0A2
:100DC800EEEF06F0000E646F000E656F000E666FA2
:100DD800000E676F668F000E676FFBEF06F0000E60
:100DE800646F000E656F000E666F000E676F6451CA
:100DF800651166116711D8A404EF07F006EF07F034
:100E08001EEF07F0000E606F000E616F000E626F3C
:100E1800000E636F800E62137F0E631370516313AD
:100E280060C060F061C061F062C062F063C063F0EE
:100E380061EF08F07751D8A424EF07F026EF07F008
:100E480030EF07F0000E606F000E616F000E626FEA
:100E5800000E636F61EF08F0785177C068F0696B36
:100E6800685F000E695B7F0E6825716F000E69214F
:100E7800726F60C06CF061C06DF062C06EF063C0EC
:100E88006FF0000E606F000E616F000E626F000E53
:100E9800636F000E736F000E746F000E756F000E97
:100EA800766F000E786F91EF07F07851D8B45FEF46
:100EB80007F061EF07F078EF07F0D8906C376D37DF
:100EC8006E376F37D890603761376237633776AFE0
:100ED80070EF07F072EF07F073EF07F06081D890BA
:100EE800733774377537763764516C5D65516D5952
:100EF80066516E5967516F59D8A085EF07F087EF93
:100F080007F090EF07F0768D64516C5F65516D5B6B
:100F180066516E5B67516F5B782B190E786597EF9A
:100F280007F099EF07F059EF07F06C516D116E114A
:100F38006F11D8B4A2EF07F0A4EF07F0BCEF07F0E9
:100F48007381BCEF07F0D890603761376237633739
:100F580076AFB1EF07F0B3EF07F0B4EF07F06081B9
:100F6800D89073377437753776377107D8A07207FA
:100F780062AFC1EF07F0C3EF07F0A7EF07F0000E6D
:100F8800786F76AFCAEF07F0CCEF07F0F0EF07F015
:100F9800FF0E7315686FFF0E7415696FFF0E7515D8
:100FA8006A6F7F0E76156B6F685169116A116B1144
:100FB800D8B4E1EF07F0E3EF07F0E7EF07F0010E31
:100FC800786FF0EF07F060A1ECEF07F0EEEF07F0B5
:100FD800F0EF07F0E3EF07F07851D8B4F6EF07F039
:100FE800F8EF07F01CEF08F0010E6027000E6123F0
:100FF8006223632363A103EF08F005EF08F01CEFF9
:1010080008F060C068F061C069F062C06AF063C04F
:101018006BF06B356B336A336933683368C060F0E3
:1010280069C061F06AC062F06BC063F0714B722BEB
:1010380072BF27EF08F0725108E17129D8A027EF95
:1010480008F029EF08F034EF08F0000E726F7169AC
:10105800000E606F000E616F000E626F000E636F0E
:1010680072BF41EF08F0725106E17105D8B03FEF49
:1010780008F041EF08F04FEF08F0000E726F000E15
:10108800716F000E606F000E616F000E626F000ED0
:10109800636F000E706F71C077F077A156EF08F09C
:1010A80058EF08F05BEF08F0628F5CEF08F0629F82
:1010B800D8907731636F12EF07F01200000E00012D
:1010C800F86F000EF76F000EF06F010EEF6FED0571
:1010D800EE11D8A472EF08F074EF08F00AEF09F0E7
:1010E800000EEE6F000EED6FD8C082F0D9C083F00D
:1010F800D6C084F0D7C085F0D4C086F0D5C087F0BC
:10110800D2C088F0D3C089F0000E986F000E976F98
:1011180097C06AF00F0E77EC15F0880E0001736F18
:10112800000E746F010E756F010E766FE3EC15F00B
:101138000001974B982B98BFABEF08F0985109E145
:10114800080E975DD8A0ABEF08F0ADEF08F08CEF74
:1011580008F0000E726F000E716F000E746F110EA2
:10116800736F000E766F140E756F000E786F110E88
:10117800776F000E7A6F010E796FF0EC13F00001B3
:10118800F151F211D8A4CBEF08F0CDEF08F0DFEF62
:1011980008F0010E6A6F020E77EC15F0820E00015E
:1011A800736F000E746F010E756F010E766FE3ECAE
:1011B80015F00AEF09F0F105F211D8A4E6EF08F0EE
:1011C800E8EF08F0FAEF08F0010E6A6F020E77EC0C
:1011D80015F0840E0001736F000E746F010E756FA9
:1011E800010E766FE3EC15F00AEF09F0010E6A6F55
:1011F800020E77EC15F0860E0001736F000E746F07
:10120800010E756F010E766FE3EC15F03A50300F52
:1012180000018A6F3C50300F8B6F3E50300F8C6F3F
:101228004050300F8D6F000E8E6F000E8F6F000EC6
:10123800906F8AC08EF02E0E8F6F000E906F000E8A
:10124800926F000E916F8BC091F0000E926F000E9E
:10125800946F000E936F8CC093F0000E946F000E85
:10126800966F000E956F8DC095F0000E966F030E69
:101278006A6F020E77EC15F08E0E0001736F000E88
:10128800746F010E756F010E766FE3EC15F0040EA6
:1012980000016A6F020E77EC15F0910E0001736F72
:1012A800000E746F010E756F010E766FE3EC15F08A
:1012B800050E00016A6F020E77EC15F0930E00011F
:1012C800736F000E746F010E756F010E766FE3EC8D
:1012D80015F0060E00016A6F020E77EC15F0950EF8
:1012E8000001736F000E746F010E756F010E766F3B
:1012F800E3EC15F00001ECBF8DEF09F0EC5107E1CC
:10130800630EEB5DD8B08BEF09F08DEF09F0B5EF08
:1013180009F01C0EEB25716F000EEC21726F000EA8
:10132800746F000E736F1C0EEB25756F000EEC21A9
:10133800766F000E786F400E776F000E7A6F000E92
:10134800796FF0EC13F080C06AF0010E00016B6F4A
:10135800EB511B0F49EC12F00001EB4BEC2BE7EFC4
:1013680009F0ECBFC1EF09F0EC5109E1630EEB5D48
:10137800D8A0C1EF09F0C3EF09F0E7EF09F0000EBC
:10138800EC6F000EEB6F000E726F1C0E716F000E8B
:10139800746F000E736F000E766F1C0E756F000E63
:1013A800786F400E776F000E7A6F000E796FF0EC51
:1013B80013F080C06AF0010E00016B6F1B0E49EC40
:1013C80012F0B0EF09F0120028C001F029C002F0B5
:1013D800000E02BEFF0E036E046E010E08EC0DF047
:1013E80001C00FF002C010F003C011F004C012F0E9
:1013F800A10E136EDE0E146EA70E156E3C0E166E41
:101408007FEC04F00FC02AF010C02BF011C02CF0B4
:1014180012C02DF02AC001F02BC002F02CC003F03E
:101428002DC004F046EC11F001C03AF002C03BF0C8
:101438002AC011F02BC012F02CC013F02DC014F0EC
:101448003AC001F03BC002F0000E02BEFF0E036E70
:10145800046E010E08EC0DF001C015F002C016F084
:1014680003C017F004C018F037EC16F011C02AF0CA
:1014780012C02BF013C02CF014C02DF02AC00FF0AE
:101488002BC010F02CC011F02DC012F0000E136EFE
:10149800000E146E200E156E410E166E7FEC04F0D1
:1014A8000FC02AF010C02BF011C02CF012C02DF084
:1014B8002AC001F02BC002F02CC003F02DC004F0AC
:1014C80046EC11F001C03CF002C03DF02AC011F01A
:1014D8002BC012F02CC013F02DC014F03CC001F04A
:1014E8003DC002F0000E02BEFF0E036E046E010E38
:1014F80008EC0DF001C015F002C016F003C017F09B
:1015080004C018F037EC16F011C02AF012C02BF006
:1015180013C02CF014C02DF02AC00FF02BC010F00F
:101528002CC011F02DC012F0000E136E000E146EB8
:10153800200E156E410E166E7FEC04F00FC02AF0D7
:1015480010C02BF011C02CF012C02DF02AC001F0F1
:101558002BC002F02CC003F02DC004F046EC11F0B3
:1015680001C03EF002C03FF02AC011F02BC012F0BB
:101578002CC013F02DC014F03EC001F03FC002F0A3
:10158800000E02BEFF0E036E046E010E08EC0DF095
:1015980001C015F002C016F003C017F004C018F01F
:1015A80037EC16F011C02AF012C02BF013C02CF043
:1015B80014C02DF02AC00FF02BC010F02CC011F071
:1015C8002DC012F0000E136E000E146E200E156E54
:1015D800410E166E7FEC04F00FC02AF010C02BF0FD
:1015E80011C02CF012C02DF02AC001F02BC002F05F
:1015F8002CC003F02DC004F046EC11F001C040F0FF
:1016080002C041F040C001F041C002F0E2EC0DF030
:1016180001C038F002C039F03EC001F03FC002F00E
:10162800E2EC0DF001C036F002C037F03CC001F02A
:101638003DC002F0E2EC0DF001C034F002C035F01C
:101648003AC001F03BC002F0E2EC0DF0800E01243C
:10165800326E000E0220336E12000001F305F41101
:10166800D8A439EF0BF03BEF0BF0BDEF0BF021EEF8
:1016780010F010EE80F00F0EDBCFE3FFE806FCE27F
:1016880021EE20F010EEA0F00E0EDBCFE3FFE8060F
:10169800FCE221EE00F010EE90F00F0EDBCFE3FF3E
:1016A800E806FCE2DCC0AFF0DDC0B0F0DAC0B1F0B3
:1016B800DBC0B2F0000E6A6F020E77EC15F0800EF8
:1016C8000001736F000E746F010E756F010E766F57
:1016D800E3EC15F0020E00016A6F020E77EC15F0CC
:1016E800A00E0001736F000E746F010E756F010E6E
:1016F800766FE3EC15F0030E00016A6F020E77ECCB
:1017080015F0900E0001736F000E746F010E756F67
:10171800010E766FE3EC15F0030E00016A6F020EFE
:1017280077EC15F0050E00016A6F2A0E77EC15F0BC
:10173800AF0E0001736F000E746F010E756F010E0E
:10174800766FE3EC15F0050E00016A6F520E77EC28
:1017580015F0B10E0001736F000E746F010E756FF6
:10176800010E766FE3EC15F0000E0001F46F000E29
:10177800F36FF551F611D8A4C4EF0BF0C6EF0BF0D8
:10178800F5EF0BF0000E726F520E716F000E746F52
:10179800340E736F000E766F5A0E756F000E786FE9
:1017A800340E776F000E7A6F000E796FF0EC13F03D
:1017B800000E0001726F2A0E716F000E746F340EE6
:1017C800736F000E766F320E756F000E786F340EE1
:1017D800776F000E7A6F010E796FF0EC13F02BEF34
:1017E8000CF0F505F611D8A4FCEF0BF0FEEF0BF0AA
:1017F8002BEF0CF0000E726F520E716F000E746FAB
:10180800340E736F000E766F5A0E756F000E786F78
:10181800340E776F000E7A6F010E796FF0EC13F0CB
:10182800000E0001726F2A0E716F000E746F340E75
:10183800736F000E766F320E756F000E786F340E70
:10184800776F000E7A6F000E796FF0EC13F01200CC
:101858000001686F00016851D8B435EF0CF037EF1C
:101868000CF059EF0CF063BF3EEF0CF03CEF0CF0BE
:1018780059EF0CF060C064F061C065F062C066F0BA
:1018880063C067F0641F651F661F671F642B000E27
:1018980065236623672364C06AF065C06BF066C081
:1018A8006CF067C06DF061EF0CF060C06AF061C069
:1018B8006BF062C06CF063C06DF060516111621131
:1018C8006311D8A46AEF0CF06CEF0CF076EF0CF013
:1018D800000E606F000E616F000E626F000E636F86
:1018E80007EF0DF0960E696F80EF0CF0692BD8901A
:1018F8006D336C336B336A33000E6A15646F000EF8
:101908006B15656F000E6C15666FFE0E6D15676FB3
:101918006451651166116711D8A495EF0CF097EF23
:101928000CF07AEF0CF0A5EF0CF0692B010E6A278A
:10193800000E6B236C236D23D8906D336C336B339F
:101948006A33000E6A15646F000E6B15656F000E22
:101958006C15666FFF0E6D15676F64516511661122
:101968006711D8A4BAEF0CF0BCEF0CF099EF0CF0AB
:10197800C4EF0CF06907D8906A376B376C376D374E
:101988006CBFC9EF0CF0CBEF0CF0D3EF0CF0020EEC
:101998006961D1EF0CF0D3EF0CF0BEEF0CF069B138
:1019A800D8EF0CF0DAEF0CF0DBEF0CF06C9FD8906E
:1019B800693369C064F0656B666B676B64C067F018
:1019C800666B656B646B64516A1365516B13665182
:1019D8006C1367516D136851D8B4F5EF0CF0F7EF3D
:1019E8000CF0FFEF0CF063BFFEEF0CF0FCEF0CF017
:1019F800FFEF0CF06D8F6AC060F06BC061F06CC0D7
:101A080062F06DC063F01200096E0950D8B40FEF90
:101A18000DF011EF0DF033EF0DF004BE18EF0DF0DF
:101A280016EF0DF033EF0DF001C005F002C006F01F
:101A380003C007F004C008F0051E061E071E081E96
:101A4800052A000E06220722082205C00BF006C050
:101A58000CF007C00DF008C00EF03BEF0DF001C010
:101A68000BF002C00CF003C00DF004C00EF00150E2
:101A7800021003100410D8A444EF0DF046EF0DF047
:101A880050EF0DF0000E016E000E026E000E036E98
:101A9800000E046EE1EF0DF0960E0A6E5AEF0DF08F
:101AA8000A2AD8900E320D320C320B32000E0B146B
:101AB800056E000E0C14066E000E0D14076EFE0E59
:101AC8000E14086E0550061007100810D8A46FEF02
:101AD8000DF071EF0DF054EF0DF07FEF0DF00A2AC5
:101AE800010E0B26000E0C220D220E22D8900E326B
:101AF8000D320C320B32000E0B14056E000E0C1456
:101B0800066E000E0D14076EFF0E0E14086E0550BB
:101B1800061007100810D8A494EF0DF096EF0DF0FA
:101B280073EF0DF09EEF0DF00A06D8900B360C36C9
:101B38000D360E360DBEA3EF0DF0A5EF0DF0ADEF8F
:101B48000DF0020E0A60ABEF0DF0ADEF0DF098EF5F
:101B58000DF00AB0B2EF0DF0B4EF0DF0B5EF0DF0E7
:101B68000D9ED8900A320AC005F0066A076A086A0C
:101B780005C008F0076A066A056A05500B12065088
:101B88000C1207500D1208500E120950D8B4CFEF9E
:101B98000DF0D1EF0DF0D9EF0DF004BED8EF0DF038
:101BA800D6EF0DF0D9EF0DF00E8E0BC001F00CC082
:101BB80002F00DC003F00EC004F012000150021034
:101BC800D8A4E9EF0DF0EBEF0DF0F1EF0DF0000EFA
:101BD800026E3F0E016E83EF0EF001040210D8A4CE
:101BE800F8EF0DF0FAEF0DF000EF0EF0000E026EB8
:101BF800060E016E83EF0EF0020E01180210D8A433
:101C080008EF0EF00AEF0EF010EF0EF0000E026E65
:101C18005B0E016E83EF0EF0030E01180210D8A4BC
:101C280018EF0EF01AEF0EF020EF0EF0000E026E15
:101C38004F0E016E83EF0EF0040E01180210D8A4A7
:101C480028EF0EF02AEF0EF030EF0EF0000E026EC5
:101C5800660E016E83EF0EF0050E01180210D8A46F
:101C680038EF0EF03AEF0EF040EF0EF0000E026E75
:101C78006D0E016E83EF0EF0060E01180210D8A447
:101C880048EF0EF04AEF0EF050EF0EF0000E026E25
:101C98007D0E016E83EF0EF0070E01180210D8A416
:101CA80058EF0EF05AEF0EF060EF0EF0000E026ED5
:101CB800070E016E83EF0EF0080E01180210D8A46B
:101CC80068EF0EF06AEF0EF070EF0EF0000E026E85
:101CD8007F0E016E83EF0EF0090E01180210D8A4D2
:101CE80078EF0EF07AEF0EF080EF0EF0000E026E35
:101CF8006F0E016E83EF0EF0000E026E0168120087
:101D0800CFC08CF0D0C08DF0D1C08EF020EECAF0DC
:101D180010EE87F0040EDBCFE3FFE806FCE2DEC03E
:101D28008FF0DFC090F020EE4EF010EE79F0070E45
:101D3800DBCFE3FFE806FCE220EEBEF010EE81F018
:101D4800050EDBCFE3FFE806FCE2000E00016A6F38
:101D5800340E77EC15F08C0E0001736F000E746F63
:101D6800010E756F010E766FE3EC15F0020E00019F
:101D78006A6F2D0E77EC15F0870E0001736F000E59
:101D8800746F010E756F010E766FE3EC15F0030E9C
:101D980000016A6F360E77EC15F08F0E0001736F35
:101DA800000E746F010E756F010E766FE3EC15F07F
:101DB800040E00016A6F230E77EC15F0790E00010E
:101DC800736F000E746F010E756F010E766FE3EC82
:101DD80015F0050E00016A6F360E77EC15F08F0EC0
:101DE8000001736F000E746F010E756F010E766F30
:101DF800E3EC15F0060E00016A6F290E77EC15F07A
:101E0800810E0001736F000E746F010E756F010E65
:101E1800766FE3EC15F0150E0001786F4B0E776FB7
:101E2800BE0EE82EFED7772FFCD7782FFAD700F012
:101E3800000EECEC14F000D0120000016D6F000EE3
:101E48000001726F0A0E6D19D8A42DEF0FF02FEF55
:101E58000FF034EF0FF0000EFA6FF92BADEF0FF023
:101E68003F0EFA653AEF0FF03CEF0FF043EF0FF03B
:101E7800010E726FFA51C00F706F45EF0FF0FAC084
:101E880070F06D51080DF3CF6EF0F4CF6FF0000EC7
:101E9800716F3F0E706553EF0FF055EF0FF068EF5D
:101EA8000FF0400E705F010E726F8A9470514009F6
:101EB800686F010E75EC16F00001F951B809686FEA
:101EC800010E75EC16F08A8400016A51D8B46FEFE0
:101ED8000FF071EF0FF089EF0FF03B0E6B6F730E81
:101EE8006C6F71516B27000E6C236E516B276F510D
:101EF8006C236BC0F6FF6CC0F7FF0800F5CF68F0E5
:101F0800725175EC16F0A0EF0FF03B0E6B6F730E6D
:101F18006C6F71516B27000E6C236E516B276F51DC
:101F28006C236BC0F6FF6CC0F7FF0800F550FF0A82
:101F3800686F725175EC16F00001702B712B070E4B
:101F48007165A9EF0FF0ABEF0FF04DEF0FF0080E32
:101F5800FA27120000016E6F000E0001706F0A0E62
:101F68006E19D8A4BAEF0FF0BCEF0FF0C1EF0FF065
:101F7800000EFA6FF92B3AEF10F03F0EFA65C7EF33
:101F88000FF0C9EF0FF0D0EF0FF0010E706FFA519C
:101F9800C00F6D6FD2EF0FF0FAC06DF0200E6E5FBC
:101FA800000E6F6F3F0E6D65DCEF0FF0DEEF0FF088
:101FB800F1EF0FF0400E6D5F010E706F8A946D5156
:101FC8004009686F010E75EC16F00001F951B80967
:101FD800686F010E75EC16F08A8400016A51D8B456
:101FE800F8EF0FF0FAEF0FF014EF10F06E51030D49
:101FF8003B0E6B6F7F0E6C6FF3506B27F4506C23A6
:102008006F516B27000E6C236BC0F6FF6CC0F7FF97
:102018000800F5CF68F0705175EC16F02DEF10F050
:102028006E51030D3B0E6B6F7F0E6C6FF3506B2779
:10203800F4506C236F516B27000E6C236BC0F6FFB6
:102048006CC0F7FF0800F550FF0A686F705175EC17
:1020580016F000016D2B6F2B020E6F6536EF10F036
:1020680038EF10F0D6EF0FF0050EFA271200000E29
:102078000001696F67BF45EF10F043EF10F04FEFB5
:1020880010F0671F661F651F646D000E65236623C9
:102098006723010E696F63BF56EF10F054EF10F01D
:1020A80060EF10F0631F621F611F606D000E6123F7
:1020B80062236323010E691B000E6A6F000E6B6FAB
:1020C800000E6C6F000E6D6F64516511661167111B
:1020D800D8B471EF10F073EF10F0A9EF10F0010E03
:1020E800686F7DEF10F0D8906437653766376737CB
:1020F800682B67AF82EF10F084EF10F077EF10F0E5
:10210800D8906A376B376C376D376451605D6551AD
:1021180061596651625967516359D8A096EF10F01A
:1021280098EF10F0A1EF10F06451605F6551615BAA
:102138006651625B6751635B6A81D8906733663327
:1021480065336433682F84EF10F06951D8B4AFEF6A
:1021580010F0B1EF10F0B9EF10F06D1F6C1F6B1F8E
:102168006A6D000E6B236C236D236AC060F06BC030
:1021780061F06CC062F06DC063F01200000162355E
:102188006335696F6951D8A4CCEF10F0CEEF10F029
:10219800D8EF10F0000E606F000E616F000E626FD6
:1021A800000E636F45EF11F060C064F061C065F028
:1021B80062C066F063C067F0200EE8EF10F0D890B8
:1021C8006733663365336433E82EE3EF10F0645108
:1021D800686F628FFF0E6017FF0E6117FF0E6217A0
:1021E800000E6317960E695F69BFFFEF10F0FDEFF1
:1021F80010F015EF11F06951800A970FD8B007EF6A
:1022080011F009EF11F00BEF11F0CEEF10F0D890AC
:102218006333623361336033693F0BEF11F02DEFA5
:1022280011F01F0E69651BEF11F01DEF11F025EF7E
:1022380011F0CEEF10F0D89060376137623763370E
:1022480069076951D8A42BEF11F02DEF11F01FEF9A
:1022580011F06851D8B433EF11F035EF11F03DEFBC
:1022680011F0631F621F611F606D000E61236223FE
:10227800632360C060F061C061F062C062F063C057
:1022880063F01200033404340A6E0A50D8A44FEFE6
:1022980011F051EF11F05BEF11F0000E016E000E1E
:1022A800026E000E036E000E046EC8EF11F001C03E
:1022B80005F002C006F003C007F004C008F0200EC5
:1022C8006BEF11F0D8900832073206320532E82E4B
:1022D80066EF11F00550096E038EFF0E0116FF0E12
:1022E8000216FF0E0316000E0416960E0A5E0ABEAC
:1022F80082EF11F080EF11F098EF11F00A50800A88
:10230800970FD8B08AEF11F08CEF11F08EEF11F023
:1023180051EF11F0D89004320332023201320A3EF2
:102328008EEF11F0B0EF11F01F0E0A649EEF11F05E
:10233800A0EF11F0A8EF11F051EF11F0D89001368D
:102348000236033604360A060A50D8A4AEEF11F056
:10235800B0EF11F0A2EF11F00950D8B4B6EF11F0B8
:10236800B8EF11F0C0EF11F0041E031E021E016C3D
:10237800000E02220322042201C001F002C002F072
:1023880003C003F004C004F01200A8EC16F0010E1C
:1023980048EC14F08EEC13F084EC0EF0D00E000133
:1023A8006E6F070E6F6F000E706F000E716F12EC7C
:1023B80016F0000E0001926F000E936F480E946F96
:1023C800420E956F9BEC14F0000E0001EE6F010EAB
:1023D800ED6F000EF26F000EF16F000EF46F010E3C
:1023E800F36F808A000EF06F000EEF6F000EF86F2B
:1023F800010EF76F000EF66F010EF56FC282000135
:10240800F705F811D8A40BEF12F00DEF12F015EF45
:1024180012F0000EF06F000EEF6F31EC0BF043EF8F
:1024280012F0EF05F011D8A41CEF12F01EEF12F015
:1024380043EF12F0000EF86F000EF76FC00EB36F87
:10244800FF0EB46FE9C060F0EAC061F0000E636F80
:10245800040E626F2BEC13F00001B3516027B451E6
:102468006123601F611F604B612B60C0B5F061C0C4
:10247800B6F0B5C080F0B6C081F062EC08F0AEEC02
:1024880015F002EF12F007EF00F000016E6F000E7A
:102498000001706F3F0E6E6554EF12F056EF12F0A8
:1024A8005AEF12F0400E6E5F010E706F8A946E9FA5
:1024B8006E8D6EC068F0705175EC16F06AC060F0F1
:1024C8000001616B000E636F080E626F2BEC13F056
:1024D80000016051BF0BB809686F705175EC16F0B8
:1024E8008A84000170515AEC16F0000170515AECC0
:1024F80016F000016F6F8A946EC068F0705175EC29
:1025080016F000016B51D8B48CEF12F08EEF12F078
:10251800A2EF12F06AC06CF0070E6C17010E6D6F17
:102528006C2B99EF12F0D8906D376C2F97EF12F053
:1025380000016D516F116F6FB5EF12F06AC06CF04A
:10254800070E6C17010E6D6F6C2BADEF12F0D89063
:102558006D376C2FABEF12F000016D51FF0A6F154C
:102568006F6F8A846FC068F0705175EC16F01200B6
:102578000600F3CF2EF0F4CF2FF09EACC6EF12F08A
:10258800C8EF12F0D3EF12F09E9CC4CFE9F000011F
:10259800EA6BE9C028F0EAC029F0E8EC09F0F2A0FB
:1025A800D8EF12F0DAEF12F025EF13F0F29081ACC9
:1025B800E0EF12F0E2EF12F024EF13F03050311098
:1025C800D8A4E9EF12F0EBEF12F01EEF13F00001C0
:1025D800F705F811D8A4F3EF12F0F5EF12F006EFB3
:1025E80013F0F551F611D8A4FCEF12F0FEEF12F03B
:1025F80006EF13F0000EF66F010EF56F304A312A20
:1026080025EF13F0F705F811D8A40DEF13F00FEF2D
:1026180013F024EF13F0F505F611D8A416EF13F014
:1026280018EF13F024EF13F0000EF66F000EF56F9D
:1026380002EF13F0000E316E000E306E25EF13F02E
:1026480081502FC0F4FF2EC0F3FF56921100000EE8
:102658000001656F63BF35EF13F033EF13F03BEF05
:1026680013F0626D631FD8B0632B010E656F61BFF5
:1026780042EF13F040EF13F048EF13F0606D611F65
:10268800D8B0612B010E651B000E676F000E666FD8
:1026980062516311D8B453EF13F055EF13F07DEF87
:1026A80013F0010E646F5DEF13F0D8906237633753
:1026B800642B63AF62EF13F064EF13F059EF13F07C
:1026C800D890663767376251605D63516159D8A009
:1026D80070EF13F072EF13F077EF13F06251605F51
:1026E8006351615B6681D89063336233642F64EF12
:1026F80013F06551D8B483EF13F085EF13F089EF29
:1027080013F0666D671FD8B0672B66C060F067C0AE
:1027180061F0120020EEB7F010EE83F0060EDBCF6A
:10272800E3FFE806FCE220EEC4F010EE8AF0050EA6
:10273800DBCFE3FFE806FCE220EE44F010EE79F090
:10274800090EDBCFE3FFE806FCE2000EECEC14F028
:10275800020E00016A6F120E77EC15F0830E00016D
:10276800736F000E746F010E756F010E766FE3ECD8
:1027780015F0020E00016A6F4E0E77EC15F08A0E06
:102788000001736F000E746F010E756F010E766F86
:10279800E3EC15F0050E00016A6F1A0E77EC15F0E0
:1027A800790E0001736F000E746F010E756F010EC4
:1027B800766FE3EC15F0290E0001786F960E776FAF
:1027C8007F0EE82EFED7772FFCD7782FFAD7000E8A
:1027D800ECEC14F000D0120000017551711907E1FA
:1027E80076517219D8A4FBEF13F0FDEF13F01CEF2C
:1027F80014F073C07CF074C07DF00DEF14F07CC051
:102808006AF079C06BF0715149EC12F000017C4B11
:102818007D2B77517C5D7D51800A7B6F7851800AD2
:102828007B59D8A01AEF14F01CEF14F003EF14F042
:102838007751731907E178517419D8A426EF14F069
:1028480028EF14F047EF14F071C07EF072C07FF0EB
:1028580038EF14F073C06AF079C06BF07E5149EC20
:1028680012F000017E4B7F2B75517E5D7F51800AEF
:102878007B6F7651800A7B59D8A045EF14F047EF5B
:1028880014F02EEF14F0120000016D6F000E836E2D
:102898008A9A8A8A8A988A908A928A94C00E0001B3
:1028A800686F000E75EC16F0C00E0001686F010E1F
:1028B80075EC16F0400E0001686F000E75EC16F00E
:1028C800400E0001686F010E75EC16F0B80E00019D
:1028D800686F000E75EC16F0B80E0001686F010EF7
:1028E80075EC16F000016D05D8A47DEF14F07FEFAC
:1028F80014F08CEF14F03F0E686F000E75EC16F0B4
:102908003F0E0001686F010E75EC16F097EF14F09A
:102918003E0E686F000E75EC16F03E0E0001686FF3
:10292800010E75EC16F0000EECEC14F01200CB5012
:102938000001966F976B010E9627000E972396C09D
:1029480060F097C061F0000E61BFFF0E626F636FA9
:10295800010E2CEC0CF060C079F061C07AF062C016
:102968007BF063C07CF0000E0001646F000E656FA1
:10297800C80E666F420E676F92C060F093C061F038
:1029880094C062F095C063F094EC06F060C07DF0EE
:1029980061C07EF062C07FF063C080F069EC02F035
:1029A80079C098F07AC099F07BC09AF07CC09BF00F
:1029B80098C060F099C061F09AC062F09BC063F063
:1029C800C2EC10F000016051BB6EBA9ABA981200BE
:1029D80000016A6F000E00016C6F8A94400E686FE8
:1029E800000E75EC16F0400E0001686F010E75ECD4
:1029F80016F000016C51B809686F000E75EC16F0FE
:102A080000016C51B809686F010E75EC16F08A84E4
:102A1800000E00016B6F6A51010DF3500008686FDA
:102A2800000E75EC16F000016A51010DF350000814
:102A3800686F010E75EC16F000016B2B3F0E6B658D
:102A480028EF15F02AEF15F00FEF15F06C2B070E95
:102A58006C6531EF15F033EF15F0F1EF14F012005B
:102A6800200EF66E2D0EF76E000EF86E01EE00F0D9
:102A780010EE2FF00900F5CFEEFFE550E150FAE136
:102A88007C0EF66E2D0EF76E000EF86E00EEB7F0A7
:102A980010EE29F00900F5CFEEFFE550E150FAE11C
:102AA800A50EF66E2D0EF76E000EF86E00EE44F0D1
:102AB80010EE12F00900F5CFEEFFE550E150FAE113
:102AC80000EEE0F01B0EEE6AE806FDE100EE30F0E5
:102AD800140EEE6AE806FDE156905692000EF86E66
:102AE8000001C9EF11F000016C6F000E00016B6F5F
:102AF800800E6C6182EF15F084EF15F0ADEF15F0E4
:102B0800070E6A658AEF15F08CEF15F08EEF15F059
:102B1800ADEF15F06CC0FAF06AC0F9F03F0E6C65C5
:102B280098EF15F09AEF15F09EEF15F0400E6C5FD8
:102B3800010E6B6F8A946C514009686F6B5175EC8C
:102B480016F000016A51B809686F6B5175EC16F000
:102B58008A84120032C083FF8086080E0001606FED
:102B6800C90EE82EFED7602FFCD700D0809638C05B
:102B780083FF8080080E0001606FC90EE82EFED723
:102B8800602FFCD700D0809036C083FF8082080E6B
:102B98000001606FC90EE82EFED7602FFCD700D069
:102BA800809234C083FF8084080E0001606FC90ED4
:102BB800E82EFED7602FFCD700D08094120005EFD6
:102BC80016F000017551D8B4ECEF15F0EEEF15F0E2
:102BD800F9EF15F076C06AF073C0D9FF74C0DAFF58
:102BE800DF5021EC0FF002EF16F076C06AF073C0E8
:102BF800D9FF74C0DAFFDF50AEEC0FF00001734B61
:102C0800742B73C0D9FF74C0DAFFDF50D8A40FEF5C
:102C180016F011EF16F0E5EF15F01200720ED36EF4
:102C2800FD0E946E0C0EBA6E000ECC6E070ECA6EB8
:102C380000016E514808606FE80E6F55616F010E14
:102C48007055626F000E7155636F6EC064F06FC08F
:102C580065F070C066F071C067F03BEC10F00001E1
:102C68006051CB6E1200000E151A000E161A000ED7
:102C7800171A800E181A11C001F012C002F013C002
:102C880003F014C004F015C005F016C006F017C014
:102C980007F018C008F009EC00F001C011F002C0FC
:102CA80012F003C013F004C014F012000001606FAA
:102CB80000016051D8B463EF16F065EF16F069EFC4
:102CC80016F08A808A926BEF16F08A928A8295684B
:102CD8008A868A8883CF61F08A988A908A9261511D
:102CE80012000001696F00016951D8B47EEF16F037
:102CF80080EF16F084EF16F08A808A9286EF16F03D
:102D08008A928A82000E956E8A9668C08CFF8A889D
:102D18008A988A908A921200322E52656374616E84
:102D280067756C616972650043686F6973697220C1
:102D3800756E206D6F646500312E4F7363696C6C1E
:072D48006F73636F706500FB
:102D5000000E956E000E836E0A0EC16E110EC26ECD
:102D6000F00E926E000E806EC00E936E000E816E9D
:102D7000F28E9D8CF28CF286F180120050726F6A96
:102D80006574004A756C6573004D4355203A0045E3
:102D9000726963006279007C0045003200310032C4
:102DA00000310026004561737953434F504500516F
:072DB00075656E74696E0089
:10733A000000000000000000000000000000000043
:10734A000000000000000000000000000000000033
:10735A000000000000000000000000000000000023
:10736A000000000000000000000000000000000013
:10737A000000000000000000000000000000000003
:10738A0000000000000000000000000000000000F3
:10739A0000000000000000000000000000000000E3
:1073AA0000000000000000000000000000000000D3
:1073BA0000000000000000000000000000000000C3
:1073CA0000000000000000000000000000000000B3
:1073DA0000000000000000000000000000000000A3
:1073EA000000000000000000000000000000000093
:1073FA000000000000000000000000000000000083
:10740A000000000000000000000000000000000072
:10741A000000000000000000000000000000000062
:10742A000000000000000000000000000000000052
:10743A0000000000000000000000065F5F06000078
:10744A00000007070007070000147F7F147F7F14DE
:10745A0000242E6B6B3A120000466630180C6662E6
:10746A0000307A4F5D377A480004070300000000B5
:10747A0000001C3E63410000000041633E1C000006
:10748A0000082A3E1C1C3E2A0808083E3E0808003E
:10749A00000080E0600000000008080808080800F2
:1074AA000000006060000000006030180C06030154
:1074BA00003E7F71594D7F3E0040427F7F40400031
:1074CA0000627359496F660000226349497F36009A
:1074DA0000181C16537F7F5000276745457D3900E9
:1074EA00003C7E4B4979300000030371790F070095
:1074FA0000367F49497F360000064F49693F1E0022
:10750A000000006666000000000080E666000000D9
:10751A0000081C366341000000242424242424008B
:10752A0000004163361C080000020351590F06008F
:10753A00003E7F415D5D1F1E007C7E13137E7C0032
:10754A0000417F7F49497F36001C3E6341416322E7
:10755A0000417F7F41633E1C00417F7F495D41635B
:10756A0000417F7F491D0103001C3E634151737234
:10757A00007F7F08087F7F000000417F7F41000075
:10758A0000307040417F3F0100417F7F081C7763D4
:10759A0000417F7F41406070007F7F0E1C0E7F7F1D
:1075AA00007F7F060C187F7F001C3E6341633E1CF0
:1075BA0000417F7F49090F06001E3F21717F5E004F
:1075CA0000417F7F09197F6600266F4D597332008B
:1075DA000003417F7F410300007F7F40407F7F009F
:1075EA00001F3F60603F1F00007F7F3018307F7FA1
:1075FA000043673C183C674300074F78784F070001
:10760A0000476371594D677300007F7F4141000055
:10761A00000103060C183060000041417F7F000022
:10762A0000080C0603060C08008080808080808099
:10763A00800000030704000000207454543C784082
:10764A0000417F3F4848783000387C44446C280029
:10765A0000307848493F7F4000387C54545C180019
:10766A0000487E7F490302000098BCA4A4F87C0469
:10767A0000417F7F08047C780000447D7D40000043
:10768A000060E08080FD7D0000417F7F10386C44FF
:10769A000000417F7F400000007C7C18381C7C7809
:1076AA00007C7C04047C780000387C44447C3800EC
:1076BA000084FCF8A4243C1800183C24A4F8FC8498
:1076CA0000447C784C041C1800485C545474240010
:1076DA000000043E7F442400003C7C40403C7C4047
:1076EA00001C3C60603C1C00003C7C7038707C3C98
:1076FA0000446C3810386C44009CBCA0A0FC7C0090
:10770A00004C64745C4C64000008083E77414100F8
:10771A000000000077770000004141773E0808002A
:10772A0000020301030203010070784C464C787092
:10773A00000E9F91B1FB4A00003A7A40407A7A40A3
:10774A0000387C54555D19000002237555557D7B20
:10775A0042217554547D794000217555547C7840F6
:10776A0000207457577C784000183CA4A4E44000D9
:10777A0000023B7D55555D1B02397D54545D19004D
:10778A0000397D55545C18000001457C7C4101009C
:10779A00000203457D7D43020001457D7C400000D7
:1077AA0000797D1612167D790070782B2B7870007F
:1077BA0000447C7C5555450000207454547C7C540C
:1077CA00547C7E0B097F7F4900327B49497B32001A
:1077DA0000327A48487A320000327A4A48783000D1
:1077EA00003A7B41417B7A40003A7A4240787840BD
:1077FA00009ABAA0A0FA7A000001193C66663C1900
:10780A00013D7D40407D3D0000183C24E7E72424EB
:10781A0000687E7F49436620002B2FFCFC2F2B003B
:10782A0000FFFF09092FF6F8A040C088FE7F090370
:10783A0002207454557D79400000447D7D4100004A
:10784A00003078484A7A320000387840427A7A40E2
:10785A00007A7A0A0A7A7000007D7D19317D7D00EE
:10786A000000262F292F2F280000262F292F260037
:10787A000030784D456020000038380808080800B4
:10788A000008080808383800004F6F3018CCEEBBE3
:10789A00914F6F30186C76FBF90000007B7B00007B
:1078AA0000081C3622081C362222361C0822361CE6
:1078BA0008AA005500AA005500AA55AA55AA55AA11
:1078CA0055DDFFAA77DDAAFF77000000FFFF000061
:1078DA0000101010FFFF000000141414FFFF000036
:1078EA00001010FFFF00FFFF001010F0F010F0F082
:1078FA0000141414FCFC0000001414F7F700FFFF36
:10790A00000000FFFF00FFFF001414F4F404FCFC65
:10791A000014141717101F1F0010101F1F101F1F0D
:10792A00001414141F1F000000101010F0F00000C3
:10793A00000000001F1F1010101010101F1F101041
:10794A0010101010F0F0101010000000FFFF1010BF
:10795A00101010101010101010101010FFFF10103F
:10796A0010000000FFFF1414140000FFFF00FFFFC7
:10797A001000001F1F101717140000FCFC04F4F479
:10798A001414141717101717141414F4F404F4F435
:10799A00140000FFFF00F7F714141414141414143D
:1079AA00141414F7F700F7F714141414171714140F
:1079BA001410101F1F101F1F10141414F4F41414A1
:1079CA00141010F0F010F0F01000001F1F101F1F0D
:1079DA00100000001F1F141414000000FCFC1414F3
:1079EA00140000F0F010F0F0101010FFFF10FFFF6D
:1079FA0010141414FFFF1414141010101F1F000089
:107A0A0000000000F0F0101010FFFFFFFFFFFFFF63
:107A1A00FFF0F0F0F0F0F0F0F0FFFFFFFF000000E1
:107A2A000000000000FFFFFFFF0F0F0F0F0F0F0FE7
:107A3A000F387C446C386C4400FCFE2A2A3E140041
:107A4A00007E7E020206060000027E7E027E7E0222
:107A5A000063775D4963630000387C447C3C04041E
:107A6A000080FE7E20203E1E000406027E7C060266
:107A7A000099BDE7E7BD9900001C3E6B496B3E1CAF
:107A8A00004C7E7301737E4C0030784A4F7D39007A
:107A9A0000183C243C3C243C1898FC643C3E273D9E
:107AAA0018000000000000000000000000000000B4
:107ABA0000000000000000000000000000000000BC
:107ACA0000000000000000000000000000000000AC
:107ADA00000000000000000000000000000000009C
:107AEA00000000000000000000000000000000008C
:107AFA00000000000000000000000000000000007C
:107B0A00000000000000000000000000000000006B
:107B1A00000000000000000000000000000000005B
:107B2A00000000000000000000000000000000004B
:107B3A00000000000000000000808080800000003B
:107B4A0000000000000000000000000000800000AB
:107B5A00800000800000000000000000000000001B
:107B6A00000000000000000000000000000000000B
:107B7A0000000000000000000000000000000000FB
:107B8A0000000000000000000000000000000000EB
:107B9A0000000000000000000000000000000000DB
:107BAA0000000000000000000000000000000000CB
:107BBA00000000000000003E4180808080413E00BD
:107BCA0000D894A46C00007884844C0088FC8081DE
:107BDA00FF8081FF800078848484780000D894A490
:107BEA006C00007884844C000078848484780008CF
:107BFA00FC488484780000789494580000000000BF
:107C0A00D894A46C00041C6480740C0400D894A456
:107C1A006C0004FF844000789494580088FC88041F
:107C2A00FC8804F88000000000000000000000004A
:107C3A00000000000000000000000000000000003A
:107C4A00000000000000000000000000000000002A
:107C5A00000000000000000000000000000000001A
:107C6A000000000000000000000000000000000406
:107C7A0007040000000000000000000000000000EF
:107C8A0000000000000404060100000000000000DB
:107C9A0000000000000000000000000000000000DA
:107CAA0000000000000000000000000000000000CA
:107CBA0000000000000000000000000000000000BA
:107CCA0000000000000000000000000000000000AA
:107CDA00000000000000000000000000000000009A
:107CEA000080F0F8181C0E0E1C1878F0C0800000F6
:107CFA0000000000000000000000000000000080FA
:107D0A00F0F8181C0C0E0E1C18F8F0800000000089
:107D1A000000000000000000000000000000000059
:107D2A000000000000000000000000000000000049
:107D3A000000000000000000000000000000000039
:107D4A000000000000000000000000000000000029
:107D5A000000000000000000000000000000000019
:107D6A00F8FF0F0000000000000000000FFFF800FD
:107D7A000000000000000000000000000000F8FF02
:107D8A000F0000000000000000000FFFF8000000D4
:107D9A0000000000000000000000000000000000D9
:107DAA0000000000000000000000000000000000C9
:107DBA0000000000000000000000000000000000B9
:107DCA000000000000000000000800080008001C75
:107DDA00FCF8800800080008000800080008E0FF16
:107DEA003F090008000800080008000800093FFFD2
:107DFA00E00800080008000800080008E0FF3F0942
:107E0A000008000800080008000800090F0F000811
:107E1A000008000800000000000000000000000048
:107E2A000000000000000000000000000000000048
:107E3A000000000000000000000000000000000038
:107E4A000000000000000000000000000000000028
:107E5A0000073FFCE000000000000080C0FC7F0734
:107E6A000000000000000000000000000000000701
:107E7A003FFCE000000000000000C0FC7F0700009B
:107E8A0000000000000000000000000000000000E8
:107E9A0000000000000000000000000000000000D8
:107EAA0000000000000000000000000000000000C8
:107EBA0000000000000000000000000000000000B8
:107ECA0000000000000000000000000000000000A8
:107EDA0000000001070F1C18181C0F070100000002
:107EEA000000000000000000000000000000000088
:107EFA000001070F1C18181C0C0F070100000000D6
:107F0A000000000000000000000000000000000067
:107F1A000000000000000000000000000000000057
:107F2A000000000000000000000000000000000047
:107F3A0000000000005C000C000C7C287C7C447C67
:107F4A00241048285408000C003844004438002003
:107F5A001008103810804000101010004000201047
:107F6A0008384438007C006454484454281C107C67
:107F7A004C542438542004740C28542808543800CB
:107F8A0050008050001028442828284428100454FF
:107F9A0008384C5C7814787C54283844447C44383B
:107FAA007C54447C14043844347C107C007C0020CB
:107FBA00403C7C106C7C40407C087C7C047C7C448B
:107FCA007C7C14083844787C1468485424047C0463
:107FDA007C407C3C403C7C207C6C106C1C601C64AB
:107FEA00544C7C4400081020447C0008040880801B
:057FFA008004080000F6
:020000040020DA
:08000000FFFFFFFFFFFFFFFF00
:020000040030CA
:0E000000000C191EFF8181FF0FC00FE00F40A2
:00000001FF
