:020000040000FA
:0400000035EF00F0E8
:060008005A82D7ED15F04D
:100018005A80D8CF60F0E8CF61F0E0CF62F0F3CF3C
:1000280063F0F4CF64F09EAC1CEF00F01EEF00F01C
:1000380029EF00F09E9CC4CFD0F00001D16BD0C056
:1000480029F0D1C02AF080EC19F064C0F4FF63C035
:10005800F3FF62C0E0FF61C0E8FF60C0D8FF5A90BC
:10006800100077EF24F021EE5DF011EE86F0050E1A
:10007800DBCFE3FFE806FCE26FC18CF170C18DF1C4
:1000880071C18EF172C18FF121EE48F011EE78F056
:10009800060EDBCFE3FFE806FCE221EE41F011EEAD
:1000A8007FF0060EDBCFE3FFE806FCE273C190F1B8
:1000B80074C191F175C192F176C193F177C194F150
:1000C800060E00016F6F070E14EC26F00101DF51D8
:1000D800E011D8A472EF00F074EF00F0B9EF00F06F
:1000E800780E0001786F010E796F010E7A6F010E9C
:1000F8007B6FB6EC26F0C4500001F26FF36BF46B23
:10010800F56BF2C07FF0F3C080F0F4C081F0F5C069
:1001180082F0000E836F000E846F000E856F000E54
:10012800866FF40E876F000E886F000E896F000EC1
:100138008A6FEA0E8B6F010E8C6F000E8D6F000EAA
:100148008E6F240E8F6FF40E906F000E916F000E5D
:10015800926F98EC25F07FC0F2F080C0F3F081C078
:10016800F4F082C0F5F0F7EF00F07F0E0001786F31
:10017800010E796F010E7A6F010E7B6FB6EC26F0D7
:10018800C4CFF6F00001F76BF6C07FF0F7C080F03F
:10019800000E80BFFF0E816F826F000E836F000E0E
:1001A800846F000E856F000E866FF40E876F000E49
:1001B800886F000E896F000E8A6F000E8B6F000E1D
:1001C8008C6F000E8D6F000E8E6F640E8F6F000E99
:1001D800906F000E916F000E926F98EC25F07FC023
:1001E800F6F080C0F7F00001F5BF09EF01F0F55116
:1001F800F41109E1EA0EF25D010EF359D8B007EFE8
:1002080001F009EF01F011EF01F0EA0EF26F010EB3
:10021800F36F000EF46F000EF56FF5BF20EF01F0DD
:10022800F551F4110BE1250EF25DF40EF359D8A047
:1002380020EF01F022EF01F02AEF01F0240EF26F17
:10024800F40EF36F000EF46F000EF56FF7BF31EF89
:1002580001F02FEF01F035EF01F0000EF76F000EFF
:10026800F66FF7BF41EF01F0F75109E1650EF65D52
:10027800D8A041EF01F043EF01F047EF01F0000E85
:10028800F76F640EF66F000E776F380E766F000EFC
:10029800796F2F0E786F000E7B6F380E7A6F000E15
:1002A8007D6F370E7C6F000E7F6F010E7E6F1FEC27
:1002B80024F0000E0001776F390E766F000E796F0B
:1002C8002F0E786F000E7B6F390E7A6F000E7D6FE0
:1002D800370E7C6F000E7F6F010E7E6F1FEC24F0CF
:1002E800060E00016F6F3E0E14EC26F08C0E000116
:1002F800786F010E796F010E7A6F010E7B6FB6EC85
:1003080026F0060E00016F6F720E14EC26F0930EA5
:100318000001786F010E796F010E7A6F010E7B6F05
:10032800B6EC26F0070E00016F6F0B0E14EC26F0EA
:10033800860E0001786F010E796F010E7A6F010E3B
:100348007B6FB6EC26F0070E00016F6F660E14EC9B
:1003580026F0900E0001786F010E796F010E7A6F0A
:10036800010E7B6FB6EC26F0000E0001776F000ED1
:10037800766F000E796F2E0E786F000E7B6F800EF1
:100388007A6F000E7D6F2E0E7C6F000E7F6F010E50
:100398007E6F1FEC24F0F2C06FF0F3C070F0F4C071
:1003A80071F0F5C072F0010EC4EC1BF06FC096F04E
:1003B80070C097F071C098F072C099F0170E0001E4
:1003C8009A6FB70E9B6FD10E9C6F380E9D6FACEC79
:1003D80011F096C0CBF197C0CCF198C0CDF199C07F
:1003E800CEF1CBC165F0CCC166F0CDC167F0CEC10E
:1003F80068F012EC21F065C099F166C09AF1CBC1A2
:100408007DF0CCC17EF0CDC17FF0CEC180F0CBC1F4
:1004180065F0CCC166F0CDC167F0CEC168F012ECD2
:1004280021F0000165C06FF066C070F0000E70BF6B
:10043800FF0E716F726F010EC4EC1BF06FC081F07C
:1004480070C082F071C083F072C084F0E5EC26F0D1
:100458007DC0CBF17EC0CCF17FC0CDF180C0CEF1A4
:10046800CBC196F0CCC197F0CDC198F0CEC199F030
:10047800000E00019A6F000E9B6F200E9C6F410EBC
:100488009D6FACEC11F096C0CBF197C0CCF198C041
:10049800CDF199C0CEF1CBC165F0CCC166F0CDC12C
:1004A80067F0CEC168F012EC21F065C09BF166C020
:1004B8009CF1CBC17DF0CCC17EF0CDC17FF0CEC127
:1004C80080F0CBC165F0CCC166F0CDC167F0CEC17C
:1004D80068F012EC21F0000165C06FF066C070F0A2
:1004E800000E70BFFF0E716F726F010EC4EC1BF02F
:1004F8006FC081F070C082F071C083F072C084F068
:10050800E5EC26F07DC0CBF17EC0CCF17FC0CDF10B
:1005180080C0CEF1CBC196F0CCC197F0CDC198F098
:10052800CEC199F0000E00019A6F000E9B6F200E4D
:100538009C6F410E9D6FACEC11F096C0CBF197C04B
:10054800CCF198C0CDF199C0CEF1CBC165F0CCC14A
:1005580066F0CDC167F0CEC168F012EC21F065C03D
:100568009DF166C09EF1CBC17DF0CCC17EF0CDC1BE
:100578007FF0CEC180F0CBC165F0CCC166F0CDC1B3
:1005880067F0CEC168F012EC21F0000165C06FF091
:1005980066C070F0000E70BFFF0E716F726F010EB3
:1005A800C4EC1BF06FC081F070C082F071C083F0A2
:1005B80072C084F0E5EC26F07DC0CBF17EC0CCF1B2
:1005C8007FC0CDF180C0CEF1CBC196F0CCC197F001
:1005D800CDC198F0CEC199F0000E00019A6F000EBF
:1005E8009B6F200E9C6F410E9D6FACEC11F096C076
:1005F800CBF197C0CCF198C0CDF199C0CEF1CBC169
:1006080065F0CCC166F0CDC167F0CEC168F012ECE0
:1006180021F065C09FF166C0A0F1CBC17DF0CCC1CF
:100628007EF0CDC17FF0CEC180F0CBC165F0CCC1EA
:1006380066F0CDC167F0CEC168F012EC21F0000180
:1006480065C06FF066C070F0000E70BFFF0E716F6E
:10065800726F010EC4EC1BF06FC081F070C082F0A5
:1006680071C083F072C084F0E5EC26F07DC0CBF158
:100678007EC0CCF17FC0CDF180C0CEF1CBC196F069
:10068800CCC197F0CDC198F0CEC199F0000E000111
:100698009A6F000E9B6F200E9C6F410E9D6FACEC05
:1006A80011F096C0CBF197C0CCF198C0CDF199C0AC
:1006B800CEF1CBC165F0CCC166F0CDC167F0CEC13B
:1006C80068F012EC21F065C0A1F166C0A2F1F6C095
:1006D8006FF0F7C070F00001000E70BFFF0E716F71
:1006E800726F010EC4EC1BF06FC096F070C097F0EB
:1006F80071C098F072C099F00A0E00019A6FD70E77
:100708009B6F230E9C6F3C0E9D6FACEC11F096C056
:10071800C7F197C0C8F198C0C9F199C0CAF1C7C15B
:1007280065F0C8C166F0C9C167F0CAC168F012ECCB
:1007380021F065C0A3F166C0A4F1C7C17DF0C8C1AE
:100748007EF0C9C17FF0CAC180F0C7C165F0C8C1D9
:1007580066F0C9C167F0CAC168F012EC21F0000167
:1007680065C06FF066C070F0000E70BFFF0E716F4D
:10077800726F010EC4EC1BF06FC081F070C082F084
:1007880071C083F072C084F0E5EC26F07DC0C7F13B
:100798007EC0C8F17FC0C9F180C0CAF1C7C196F058
:1007A800C8C197F0C9C198F0CAC199F0000E0001FC
:1007B8009A6F000E9B6F200E9C6F410E9D6FACECE4
:1007C80011F096C0C7F197C0C8F198C0C9F199C097
:1007D800CAF1C7C165F0C8C166F0C9C167F0CAC12E
:1007E80068F012EC21F065C0A5F166C0A6F1C7C19A
:1007F8007DF0C8C17EF0C9C17FF0CAC180F0C7C111
:1008080065F0C8C166F0C9C167F0CAC168F012ECEA
:1008180021F0000165C06FF066C070F0000E70BF77
:10082800FF0E716F726F010EC4EC1BF06FC081F088
:1008380070C082F071C083F072C084F0E5EC26F0DD
:100848007DC0C7F17EC0C8F17FC0C9F180C0CAF1C0
:10085800C7C196F0C8C197F0C9C198F0CAC199F04C
:10086800000E00019A6F000E9B6F200E9C6F410EC8
:100878009D6FACEC11F096C0C7F197C0C8F198C055
:10088800C9F199C0CAF1C7C165F0C8C166F0C9C14C
:1008980067F0CAC168F012EC21F065C0A7F166C024
:1008A800A8F101019951300FAB6F9B51300FAC6F1C
:1008B8009D51300FAD6F9F51300FAE6FA151300F6A
:1008C800AF6FA351300FB06FA551300FB16FA75163
:1008D800300FB26F000EB46F000EB36FABC1B3F13F
:1008E800000EB46F000EB66F000EB56FACC1B5F157
:1008F800000EB66F000EB86F000EB76FADC1B7F13E
:10090800000EB86F000EBA6F000EB96FAEC1B9F124
:10091800000EBA6F000EBC6F000EBB6FAFC1BBF10B
:10092800000EBC6F000EBE6F000EBD6FB0C1BDF1F2
:10093800000EBE6F000EC06F000EBF6FB1C1BFF1D9
:10094800000EC06F000EC26F000EC16FB2C1C1F1C0
:10095800000EC26F060E00016F6F560E14EC26F0E3
:10096800BD0E0001786F010E796F010E7A6F010ECE
:100978007B6FB6EC26F0060E00016F6F5F0E14EC6D
:1009880026F0BF0E0001786F010E796F010E7A6FA5
:10099800010E7B6FB6EC26F0060E00016F6F680E35
:1009A80014EC26F0C10E0001786F010E796F010E6C
:1009B8007A6F010E7B6FB6EC26F0070E00016F6FA1
:1009C800330E14EC26F0B30E0001786F010E796F28
:1009D800010E7A6F010E7B6FB6EC26F0070E000150
:1009E8006F6F3C0E14EC26F0B50E0001786F010E07
:1009F800796F010E7A6F010E7B6FB6EC26F0070E49
:100A080000016F6F4A0E14EC26F0B70E0001786FE4
:100A1800010E796F010E7A6F010E7B6FB6EC26F02E
:100A2800070E00016F6F530E14EC26F0B90E00018B
:100A3800786F010E796F010E7A6F010E7B6FB6EC3D
:100A480026F0070E00016F6F5C0E14EC26F0BB0E4B
:100A58000001786F010E796F010E7A6F010E7B6FBE
:100A6800B6EC26F0F2C07FF0F3C080F0F4C081F05D
:100A7800F5C082F0EA0E0001836F010E846F000E4C
:100A8800856F000E866F240E876FF40E886F000E38
:100A9800896F000E8A6F010E8B6F000E8C6F000E2F
:100AA8008D6F000E8E6F320E8F6F000E906F000EDE
:100AB800916F000E926F98EC25F07FC0C3F180C053
:100AC800C4F1C3C16FF0C4C170F00001000E70BF63
:100AD800FF0E716F726F010EC4EC1BF06FC081F0D6
:100AE80070C082F071C083F072C084F0000E000103
:100AF8007D6F000E7E6FC80E7F6F420E806FB2EC66
:100B080017F07DC065F07EC066F07FC067F080C0DA
:100B180068F012EC21F065C0A9F166C0AAF1C3C162
:100B28006FF0C4C170F00001000E70BFFF0E716F4E
:100B3800726F010EC4EC1BF06FC081F070C082F0C0
:100B480071C083F072C084F0F6C06FF0F7C070F027
:100B58000001000E70BFFF0E716F726F010EC4ECC2
:100B68001BF06FC07DF070C07EF071C07FF072C066
:100B780080F0B2EC17F07DC065F07EC066F07FC0F3
:100B880067F080C068F012EC21F065C0C5F166C05E
:100B9800C6F1E7C176F0E8C177F0000E0001796F81
:100BA800000E786FE7C17AF0E8C17BF0000E7D6F28
:100BB8002D0E7C6F000E7F6F000E7E6F1FEC24F0F1
:100BC800F6C06FF0F7C070F00001000E70BFFF0EA6
:100BD800716F726F010EC4EC1BF06FC095F170C09D
:100BE80096F171C097F172C098F195C1AFF096C1B6
:100BF800B0F097C1B1F098C1B2F0F2C0B3F0F3C051
:100C0800B4F0F4C0B5F0F5C0B6F08CEC22F00101F8
:100C1800E151C55DC651800A0001BD6F0101E25175
:100C2800800A0001BD59D8A01CEF06F01EEF06F09F
:100C38005EEF06F00101C551C611D8B426EF06F0E3
:100C480028EF06F05EEF06F00A0E00016F6F010E46
:100C5800706F0101E75119EC22F07E0E0101E519D0
:100C6800E611D8B43AEF06F03CEF06F053EF06F081
:100C7800E5C185F0E6C186F0E3C187F0E4C188F0FC
:100C8800E7C189F0E8C18AF0000E00018C6F0A0EF6
:100C98008B6F000E8E6F010E8D6F10EC0AF0E7C19E
:100CA800E5F1E8C1E6F1000E0101E46F0A0EE36F19
:100CB80092EF06F0230E00016F6F010E706F0101B5
:100CC800E75119EC22F07E0E0101E519E611D8B4BE
:100CD80070EF06F072EF06F089EF06F0E5C185F0D7
:100CE800E6C186F0E3C187F0E4C188F0E7C189F086
:100CF800E8C18AF0000E00018C6F230E8B6F000E86
:100D08008E6F010E8D6F10EC0AF0E7C1E5F1E8C1B6
:100D1800E6F1000E0101E46F230EE36FA951E15DD6
:100D2800E251800A0001BD6F0101AA51800A000149
:100D3800BD59D8B0A2EF06F0A4EF06F0A9EF06F06F
:100D48000101E14BE22BAEEF06F0000E0101E26F6C
:100D5800000EE16FE8BFBAEF06F0E85109E17E0E38
:100D6800E75DD8A0BAEF06F0BCEF06F0C2EF06F0D8
:100D7800000EE86F000EE76FC4EF06F0E74BE82BB4
:100D88001200000E0001F96F000EF86F000EDB6F05
:100D9800010EDA6F000E0101EA6F010EE96FE90535
:100DA800EA11D8B4DAEF06F0DCEF06F0E6EF06F069
:100DB8000001DC05DD11D8A4E4EF06F0E6EF06F04B
:100DC8007EEF07F0000E0101EA6F000EE96FEAC03E
:100DD8007FF1EBC080F1E8C081F1E9C082F1E6C0A3
:100DE80083F1E7C084F1E4C085F1E5C086F1000E27
:100DF800956F000E946F94C16FF00F0E14EC26F0EF
:100E0800850E0001786F010E796F010E7A6F010E61
:100E18007B6FB6EC26F00101944B952B95BF1EEF26
:100E280007F0955109E1080E945DD8A01EEF07F070
:100E380020EF07F0FFEF06F0000E0001776F000EBD
:100E4800766F000E796F110E786F000E7B6F110EA2
:100E58007A6F000E7D6F110E7C6F000E7F6F010E92
:100E68007E6F1FEC24F00001DC51DD11D8A43FEFA8
:100E780007F041EF07F053EF07F0010E6F6F020E16
:100E880014EC26F07F0E0001786F010E796F010EC9
:100E98007A6F010E7B6FB6EC26F07EEF07F0DC056B
:100EA800DD11D8A45AEF07F05CEF07F06EEF07F0FA
:100EB800010E6F6F020E14EC26F0810E0001786FA0
:100EC800010E796F010E7A6F010E7B6FB6EC26F07A
:100ED8007EEF07F0010E6F6F020E14EC26F0830E02
:100EE8000001786F010E796F010E7A6F010E7B6F2A
:100EF800B6EC26F04850300F0101876F4A50300F8A
:100F0800886F4C50300F896F4E50300F8A6F000E2B
:100F18008B6F000E8C6F000E8D6F87C18BF12E0EBC
:100F28008C6F000E8D6F000E8F6F000E8E6F88C154
:100F38008EF1000E8F6F000E916F000E906F89C1B9
:100F480090F1000E916F000E936F000E926F8AC1A0
:100F580092F1000E936F030E00016F6F020E14ECF6
:100F680026F08B0E0001786F010E796F010E7A6FF3
:100F7800010E7B6FB6EC26F0040E00016F6F020EB7
:100F880014EC26F08E0E0001786F010E796F010EB9
:100F98007A6F010E7B6FB6EC26F0050E00016F6FBD
:100FA800020E14EC26F0900E0001786F010E796F96
:100FB800010E7A6F010E7B6FB6EC26F0060E00016B
:100FC8006F6F020E14EC26F0920E0001786F010E7E
:100FD800796F010E7A6F010E7B6FB6EC26F0000177
:100FE800DC51DD11D8A4FBEF07F0FDEF07F0BDEFF2
:100FF80008F0D7BF0BEF08F0D75107E1630ED65DB5
:10100800D8B009EF08F00BEF08F056EF08F01D0E06
:10101800D625766F000ED721776F000E796F000EF8
:10102800786F1D0ED6257A6F000ED7217B6F000EC4
:101038007D6F400E7C6F000E7F6F000E7E6F1FEC81
:1010480024F0A7C06FF0010E0001706FD6511C0F7D
:1010580019EC22F01C0E0001CC25856F000ECD2165
:10106800866FCAC087F0CBC088F01C0ED625896F62
:10107800000ED7218A6FA7C08BF0A8C08CF0000E95
:101088008E6F010E8D6F10EC0AF0D6C0CCF0D7C071
:10109800CDF0A7C0CAF0A8C0CBF00001D64BD72B23
:1010A8000FEF0AF0D7BF62EF08F0D75109E1630EDE
:1010B800D65DD8A062EF08F064EF08F00FEF0AF0F1
:1010C800000ED76F000ED66F000E776F1B0E766F6F
:1010D800000E796F000E786F000E7B6F1B0E7A6F13
:1010E800000E7D6F400E7C6F000E7F6F000E7E6FCE
:1010F8001FEC24F0000E0001776F1C0E766F000EB7
:10110800796F000E786F000E7B6F1C0E7A6F000EE1
:101118007D6F400E7C6F000E7F6F000E7E6F1FECA0
:1011280024F01D0E0001D625766F000ED721776FAB
:10113800000E796F000E786F1D0ED6257A6F000E9F
:10114800D7217B6F000E7D6F400E7C6F000E7F6F86
:10115800000E7E6F1FEC24F0A7C06FF0010E000197
:10116800706FD6511C0F19EC22F049EF08F00FEF01
:101178000AF0DC05DD11D8A4C4EF08F0C6EF08F0CA
:101188000FEF0AF0D451D511D8A4CDEF08F0CFEF66
:1011980008F03BEF09F021EE4FF011EE78F0060E63
:1011A800DBCFE3FFE806FCE2A8BFE4EF08F0A851B4
:1011B80009E11F0EA75DD8A0E4EF08F0E6EF08F0FC
:1011C800F8EF08F0010E6F6F320E14EC26F0780E6F
:1011D8000001786F010E796F010E7A6F010E7B6F37
:1011E800B6EC26F00DEF09F0A8BF06EF09F0A851FC
:1011F80007E11F0EA75DD8B004EF09F006EF09F06C
:101208000DEF09F0070E6F6F320E14EC26F0EBEFBE
:1012180008F0000E0001776F1C0E766FA7C078F0FB
:10122800A8C079F0000E7B6F7F0E7A6FA7C07CF0A4
:10123800A8C07DF0000E7F6F010E7E6F1FEC24F0BA
:101248000001A751C61909E1A851C719D8B42FEF51
:1012580009F031EF09F00FEF0AF0A7C0C6F0A8C0F7
:10126800C7F0000ED36F010ED26F0FEF0AF0D4054E
:10127800D511D8A442EF09F044EF09F00FEF0AF0B6
:10128800000E776F1C0E766FE0C078F0E1C079F041
:10129800000E7B6F7F0E7A6FE0C07CF0E1C07DF0BE
:1012A800000E7F6F010E7E6F1FEC24F00001A75126
:1012B800E05DE151800AA96FA851800AA959D8A018
:1012C80068EF09F06AEF09F0CDEF09F0C851C911CC
:1012D800D8A471EF09F073EF09F07BEF09F0D6C0DD
:1012E800CCF0D7C0CDF0A7C0CAF0A8C0CBF0D7BF0C
:1012F80089EF09F0D75107E1630ED65DD8B087EFC3
:1013080009F089EF09F0BBEF08F0000EC96F010E74
:10131800C86F1D0ED625766F000ED721776F000E89
:10132800796F000E786F1D0ED6257A6F000ED721C3
:101338007B6F000E7D6F400E7C6F000E7F6F000E7E
:101348007E6F1FEC24F0A7C06FF0010E0001706FD4
:10135800D6511C0F19EC22F01C0E0001CC25856F0C
:10136800000ECD21866FCAC087F0CBC088F01C0E56
:10137800D625896F000ED7218A6FA7C08BF0A8C029
:101388008CF0000E8E6F010E8D6F10EC0AF049EF95
:1013980008F0D7BFDBEF09F0D75107E1630ED65D40
:1013A800D8B0D9EF09F0DBEF09F00BEF0AF0C80568
:1013B800C911D8A4E2EF09F0E4EF09F0FEEF09F053
:1013C8001C0ECC25856F000ECD21866FCAC087F014
:1013D800CBC088F01C0ED625896F000ED7218A6FE6
:1013E800E0C08BF0E1C08CF0000E8E6F010E8D6FA7
:1013F80010EC0AF0D6C0CCF0D7C0CDF0A7C0CAF028
:10140800A8C0CBF00001D64BD72B0BEF0AF0000E8B
:10141800C96F000EC86F120000018551895D9B6F6E
:1014280086518A599C6F87518B5D9D6F88518C5965
:101438009E6F9BC06FF09CC070F0000E70BFFF0ED7
:10144800716F726F010EC4EC1BF06FC07DF070C03D
:101458007EF071C07FF072C080F083EC27F07DC011
:1014680065F07EC066F07FC067F080C068F012EC5F
:1014780021F065C09FF066C0A0F09DC06FF09EC0CF
:1014880070F00001000E70BFFF0E716F726F010ED9
:10149800C4EC1BF06FC07DF070C07EF071C07FF0AF
:1014A80072C080F083EC27F07DC065F07EC066F0E6
:1014B8007FC067F080C068F012EC21F065C0A1F031
:1014C80066C0A2F0A1C08FF0A2C090F0D890000131
:1014D8008F3790379F518F5D976FA0519059986FB4
:1014E8009FC08FF0A0C090F0D8908F379037A1514F
:1014F8008F5D996FA25190599A6FA1519F5DA0512C
:10150800800A8F6FA251800A8F59D8A08EEF0AF0F7
:1015180090EF0AF0BBEF0BF09CBF95EF0AF097EF46
:101528000AF0A5EF0AF085C0A3F086C0A4F087C032
:10153800A5F088C0A6F089C093F08AC094F0B1EFF6
:101548000AF089C0A3F08AC0A4F08BC0A5F08CC0B3
:10155800A6F085C093F086C094F0A5C06FF08DC04A
:1015680070F0A35119EC22F0A5C06FF08DC070F097
:101578000001A30519EC22F0A5C06FF08DC070F032
:101588000001A32919EC22F00001A5056F6F8DC099
:1015980070F0A35119EC22F00001A5296F6F8DC0DE
:1015A80070F0A35119EC22F00001A5056F6F8DC0F2
:1015B80070F0A30519EC22F00001A5296F6F8DC00A
:1015C80070F0A30519EC22F00001A5056F6F8DC01E
:1015D80070F0A32919EC22F00001A5296F6F8DC0C6
:1015E80070F0A32919EC22F0000E0001926F000E92
:1015F800916FAAEF0BF0010EA325A36F000EA42193
:10160800A46F98BF0CEF0BF00AEF0BF01BEF0BF079
:10161800A1C08FF0A2C090F0D8908F379037975123
:101628008F25976F98519021986F60EF0BF09CBFB2
:1016380022EF0BF020EF0BF029EF0BF09EBF27EF06
:101648000BF029EF0BF043EF0BF09CBF34EF0BF0DE
:101658009C5108E19B05D8A034EF0BF036EF0BF056
:101668004BEF0BF09EBF41EF0BF09E5108E19D053B
:10167800D8A041EF0BF043EF0BF04BEF0BF0010E4E
:10168800A525A56F000EA621A66F51EF0BF0FF0E42
:10169800A525A56FFF0EA621A66F9F51A15D8F6F8F
:1016A800A051A259906FD8908F37903797518F25B6
:1016B800976F98519021986FA5C06FF08DC070F00A
:1016C800A35119EC22F0A5C06FF08DC070F0000195
:1016D800A30519EC22F0A5C06FF08DC070F00001D1
:1016E800A32919EC22F00001A5056F6F8DC070F0D9
:1016F800A35119EC22F00001A5296F6F8DC070F07D
:10170800A35119EC22F00001A5056F6F8DC070F090
:10171800A30519EC22F00001A5296F6F8DC070F0A8
:10172800A30519EC22F00001A5056F6F8DC070F0BC
:10173800A32919EC22F00001A5296F6F8DC070F064
:10174800A32919EC22F00001914B922B9351A35D30
:10175800A451800A8F6F9451800A8F59D8A0B7EF8F
:101768000BF0B9EF0BF0FFEF0AF0EAEF0CF09EBFB9
:10177800C0EF0BF0C2EF0BF0D0EF0BF085C0A3F079
:1017880086C0A4F087C0A5F088C0A6F08BC095F0ED
:101798008CC096F0DCEF0BF089C0A3F08AC0A4F0EF
:1017A8008BC0A5F08CC0A6F087C095F088C096F0D5
:1017B800A5C06FF08DC070F0A35119EC22F0A5C040
:1017C8006FF08DC070F00001A30519EC22F0A5C0E0
:1017D8006FF08DC070F00001A32919EC22F0000110
:1017E800A5056F6F8DC070F0A35119EC22F00001B0
:1017F800A5296F6F8DC070F0A35119EC22F000017C
:10180800A5056F6F8DC070F0A30519EC22F00001DB
:10181800A5296F6F8DC070F0A30519EC22F00001A7
:10182800A5056F6F8DC070F0A32919EC22F0000197
:10183800A5296F6F8DC070F0A32919EC22F0000E56
:101848000001926F000E916FDBEF0CF0010EA525E1
:10185800A56F000EA621A66F9ABF3DEF0CF09A5116
:1018680006E19905D8B03BEF0CF03DEF0CF04CEFDA
:101878000CF09FC08FF0A0C090F0D8908F379037B1
:1018880099518F25996F9A5190219A6F91EF0CF089
:101898009CBF53EF0CF051EF0CF05AEF0CF09EBFC9
:1018A80058EF0CF05AEF0CF074EF0CF09CBF65EF9A
:1018B8000CF09C5108E19B05D8A065EF0CF067EF90
:1018C8000CF07CEF0CF09EBF72EF0CF09E5108E11B
:1018D8009D05D8A072EF0CF074EF0CF07CEF0CF0C3
:1018E800010EA325A36F000EA421A46F82EF0CF0B4
:1018F800FF0EA325A36FFF0EA421A46FA1519F5D26
:101908008F6FA251A059906FD8908F379037995107
:101918008F25996F9A5190219A6FA5C06FF08DC04D
:1019280070F0A35119EC22F0A5C06FF08DC070F0D3
:101938000001A30519EC22F0A5C06FF08DC070F06E
:101948000001A32919EC22F00001A5056F6F8DC0D5
:1019580070F0A35119EC22F00001A5296F6F8DC01A
:1019680070F0A35119EC22F00001A5056F6F8DC02E
:1019780070F0A30519EC22F00001A5296F6F8DC046
:1019880070F0A30519EC22F00001A5056F6F8DC05A
:1019980070F0A32919EC22F00001A5296F6F8DC002
:1019A80070F0A32919EC22F00001914B922B95516C
:1019B800A55DA651800A8F6F9651800A8F59D8A0CD
:1019C800E8EF0CF0EAEF0CF02AEF0CF0120000013F
:1019D8006851800B716F68516825736F67AFF7EFB7
:1019E8000CF0F9EF0CF0FAEF0CF073817351D8B4E6
:1019F80000EF0DF002EF0DF017EF0DF07329D8A4EA
:101A080008EF0DF00AEF0DF012EF0DF0000E656F04
:101A1800000E666F000E676F000E686F678F000E0E
:101A2800686F1FEF0DF0000E656F000E666F000EF9
:101A3800676F000E686F6C51800B726F715172196D
:101A4800D8B429EF0DF02BEF0DF02CEF0DF0718DC0
:101A58006C516C25726F6BAF34EF0DF036EF0DF0F3
:101A680037EF0DF072817251D8B43DEF0DF03FEFB2
:101A78000DF054EF0DF07229D8A445EF0DF047EFA3
:101A88000DF04FEF0DF0000E696F000E6A6F000E3B
:101A98006B6F000E6C6F6B8F000E6C6F5CEF0DF050
:101AA800000E696F000E6A6F000E6B6F000E6C6F90
:101AB8007351725DD8B063EF0DF065EF0DF08CEFE8
:101AC8000DF071AD6AEF0DF06CEF0DF06EEF0DF0EB
:101AD800800E711B73C074F072C073F074C072F022
:101AE80065C074F069C065F074C069F066C074F0D0
:101AF8006AC066F074C06AF067C074F06BC067F0C3
:101B080074C06BF068C074F06CC068F074C06CF09E
:101B1800000E746F735172C06DF06E6B6D5F000EC6
:101B28006E5B6EBFA1EF0DF06E5109E11A0E6D5D8F
:101B3800D8A0A1EF0DF0A3EF0DF0DAEF0DF065518D
:101B4800661167116811D8A4ACEF0DF0AFEF0DF076
:101B5800010EB0EF0DF0000E746F000E656F000EF1
:101B6800666F000E676F000E686F72C073F0E3EF68
:101B78000DF074A1C2EF0DF0C4EF0DF0CAEF0DF037
:101B8800D89074310109746FCCEF0DF0D89074338C
:101B980065A1D1EF0DF0D3EF0DF0D4EF0DF0748FF8
:101BA80068356833673366336533732B7251735DF9
:101BB800D8A0E1EF0DF0E3EF0DF0BDEF0DF071BD32
:101BC800E8EF0DF0EAEF0DF02AEF0EF07351D8A40C
:101BD800F0EF0DF0F2EF0DF0FCEF0DF0000E656F79
:101BE800000E666F000E676F000E686F4BEF0FF008
:101BF800695165276A5166236B5167236C516823C5
:101C080068A109EF0EF00BEF0EF0B7EF0EF074A11C
:101C180010EF0EF012EF0EF018EF0EF0D8907431AE
:101C28000109746F1AEF0EF0D890743365A11FEF95
:101C38000EF021EF0EF022EF0EF0748F6835683346
:101C4800673366336533732BB7EF0EF06951655D03
:101C58006A5166596B5167596851800A6D6F6C51AA
:101C6800800A6D59D8B03BEF0EF03DEF0EF068EFEB
:101C78000EF06551695D6D6F66516A596E6F6751F7
:101C88006B596F6F68516C59706FFF0E6D25656FDA
:101C9800FF0E6E21666FFF0E6F21676FFF0E7021BA
:101CA800686F800E711B746D7451D8A45EEF0EF0CE
:101CB80060EF0EF070EF0EF0010E6527000E662340
:101CC8006723682370EF0EF06951655F6A51665BA0
:101CD8006B51675B6C51685B6551661167116811E0
:101CE800D8A479EF0EF07BEF0EF0B0EF0EF0745140
:101CF800D8A481EF0EF083EF0EF0B0EF0EF0000ED7
:101D0800656F000E666F000E676F000E686F4BEF11
:101D18000FF0D890653766376737683774AF97EF35
:101D28000EF099EF0EF09AEF0EF0658174A19FEF17
:101D38000EF0A1EF0EF0A5EF0EF0D8807437A7EFE4
:101D48000EF0D89074377351D8B4ADEF0EF0AFEFF2
:101D58000EF0B0EF0EF0730767AFB5EF0EF0B7EF08
:101D68000EF08DEF0EF0000E726F74AFBEEF0EF036
:101D7800C0EF0EF0D8EF0EF074C06DF07F0E6D1747
:101D8800D8B4C9EF0EF0CBEF0EF0CFEF0EF0010E86
:101D9800726FD8EF0EF065A1D4EF0EF0D6EF0EF00B
:101DA800D8EF0EF0CBEF0EF07251D8B4DEEF0EF094
:101DB800E0EF0EF00BEF0FF0010E6527000E662323
:101DC8006723682368A1EBEF0EF0EDEF0EF00BEF41
:101DD8000FF065C06DF066C06EF067C06FF068C048
:101DE80070F0703570336F336E336D336DC065F0DE
:101DF8006EC066F06FC067F070C068F07329D8B421
:101E080008EF0FF00AEF0FF00BEF0FF0732B7329A9
:101E1800D8B411EF0FF013EF0FF01BEF0FF0735161
:101E2800D8A419EF0FF01BEF0FF02DEF0FF0000EF5
:101E3800656F000E666F000E676F000E686F735156
:101E4800D8A429EF0FF02BEF0FF02DEF0FF0000EB5
:101E5800716F73A132EF0FF034EF0FF037EF0FF01F
:101E6800678F38EF0FF0679FD8907331686F71AF45
:101E780040EF0FF042EF0FF043EF0FF0688F65C0AF
:101E880065F066C066F067C067F068C068F0120069
:101E98000550800B0E6E05500524106E04AE57EFEA
:101EA8000FF059EF0FF05AEF0FF010801050D8B420
:101EB80060EF0FF062EF0FF077EF0FF01028D8A463
:101EC80068EF0FF06AEF0FF072EF0FF0000E026E7E
:101ED800000E036E000E046E000E056E048E000EDA
:101EE800056E7FEF0FF0000E026E000E036E000EFF
:101EF800046E000E056E0950800B0F6E0E500F1801
:101F0800D8B489EF0FF08BEF0FF08CEF0FF00E8C39
:101F1800095009240F6E08AE94EF0FF096EF0FF0FA
:101F280097EF0FF00F800F50D8B49DEF0FF09FEF91
:101F38000FF0B4EF0FF00F28D8A4A5EF0FF0A7EF1C
:101F48000FF0AFEF0FF0000E066E000E076E000EDA
:101F5800086E000E096E088E000E096EBCEF0FF0B9
:101F6800000E066E000E076E000E086E000E096E5B
:101F780010500F5CD8B0C3EF0FF0C5EF0FF0ECEFC7
:101F88000FF00EACCAEF0FF0CCEF0FF0CEEF0FF062
:101F9800800E0E1A10C011F00FC010F011C00FF013
:101FA80002C011F006C002F011C006F003C011F023
:101FB80007C003F011C007F004C011F008C004F016
:101FC80011C008F005C011F009C005F011C009F0F2
:101FD800000E116E10500FC00AF00B6A0A5E000E58
:101FE8000B5A0BBE01EF10F00B5009E11A0E0A5CF8
:101FF800D8A001EF10F003EF10F03AEF10F0025004
:10200800031004100510D8A40CEF10F00FEF10F017
:10201800010E10EF10F0000E116E000E026E000E91
:10202800036E000E046E000E056E0FC010F043EF35
:1020380010F011A022EF10F024EF10F02AEF10F0AA
:10204800D89011300109116E2CEF10F0D890113290
:1020580002A031EF10F033EF10F034EF10F0118ED2
:1020680005340532043203320232102A0F50105C54
:10207800D8A041EF10F043EF10F01DEF10F00EBCA8
:1020880048EF10F04AEF10F08AEF10F01050D8A483
:1020980050EF10F052EF10F05CEF10F0000E026EEF
:1020A800000E036E000E046E000E056EABEF11F00D
:1020B8000650022607500322085004220950052220
:1020C80005A069EF10F06BEF10F017EF11F011A0F9
:1020D80070EF10F072EF10F078EF10F0D890113028
:1020E8000109116E7AEF10F0D890113202A07FEF3B
:1020F80010F081EF10F082EF10F0118E05340532E8
:10210800043203320232102A17EF11F00650025C33
:1021180007500358085004580550800A0A6E0950A1
:10212800800A0A58D8B09BEF10F09DEF10F0C8EF66
:1021380010F00250065C0A6E035007580B6E0450EC
:1021480008580C6E055009580D6EFF0E0A24026ED1
:10215800FF0E0B20036EFF0E0C20046EFF0E0D20E9
:10216800056E800E0E1A116C1150D8A4BEEF10F037
:10217800C0EF10F0D0EF10F0010E0226000E03227F
:1021880004220522D0EF10F00650025E0750035AD1
:102198000850045A0950055A02500310041005103B
:1021A800D8A4D9EF10F0DBEF10F010EF11F01150B8
:1021B800D8A4E1EF10F0E3EF10F010EF11F0000EEB
:1021C800026E000E036E000E046E000E056EABEF7D
:1021D80011F0D890023603360436053611AEF7EF03
:1021E80010F0F9EF10F0FAEF10F0028011A0FFEFF5
:1021F80010F001EF11F005EF11F0D880113607EF5C
:1022080011F0D89011361050D8B40DEF11F00FEF2F
:1022180011F010EF11F0100604AE15EF11F017EFE2
:1022280011F0EDEF10F0000E0F6E11AE1EEF11F071
:1022380020EF11F038EF11F011C00AF07F0E0A16E6
:10224800D8B429EF11F02BEF11F02FEF11F0010E98
:102258000F6E38EF11F002A034EF11F036EF11F0E5
:1022680038EF11F02BEF11F00F50D8B43EEF11F00A
:1022780040EF11F06BEF11F0010E0226000E032261
:102288000422052205A04BEF11F04DEF11F06BEF82
:1022980011F002C00AF003C00BF004C00CF005C036
:1022A8000DF00D340D320C320B320A320AC002F036
:1022B8000BC003F00CC004F00DC005F01028D8B412
:1022C80068EF11F06AEF11F06BEF11F0102A102887
:1022D800D8B471EF11F073EF11F07BEF11F01050DB
:1022E800D8A479EF11F07BEF11F08DEF11F0000E0B
:1022F800026E000E036E000E046E000E056E105086
:10230800D8A489EF11F08BEF11F08DEF11F0000ECA
:102318000E6E10A092EF11F094EF11F097EF11F0FC
:10232800048E98EF11F0049ED8901030056E0EAE12
:10233800A0EF11F0A2EF11F0A3EF11F0058E02C08B
:1023480002F003C003F004C004F005C005F0120059
:1023580000019951800BA26F99519925A86F98AFE8
:10236800B8EF11F0BAEF11F0BBEF11F0A881A85146
:10237800D8B4C1EF11F0C3EF11F0D6EF11F0A829CE
:10238800D8A4C9EF11F0CBEF11F0D3EF11F0000E84
:10239800966F000E976F000E986F000E996F988FCA
:1023A800DEEF11F0000E966F000E976F000E986F1B
:1023B800000E996F9D51800BA21B9D519D25A76F03
:1023C8009CAFE9EF11F0EBEF11F0ECEF11F0A78102
:1023D800A751D8B4F2EF11F0F4EF11F007EF12F0B3
:1023E800A729D8A4FAEF11F0FCEF11F004EF12F0CE
:1023F800000E9A6F000E9B6F000E9C6F000E9D6F73
:102408009C8F0FEF12F0000E9A6F000E9B6F000E5C
:102418009C6F000E9D6FA751D8B415EF12F017EFFF
:1024280012F01FEF12F0A851D8A41DEF12F01FEF01
:1024380012F029EF12F0000E966F000E976F000E43
:10244800986F000E996FC1EF13F09C519603F3CF6C
:10245800ADF0F4CFAEF0AD51A36FA46BA56BA66B36
:10246800AE51A96FAA6BAB6BAC6B9B519703F3CFC3
:10247800ADF0F4CFAEF0AD51A327000EA423A523F1
:10248800A623AE51A927000EAA23AB23AC239A5149
:102498009803F3CFADF0F4CFAEF0AD51A327000E03
:1024A800A423A523A623AE51A927000EAA23AB2354
:1024B800AC23A5C0A6F0A4C0A5F0A3C0A4F0A36B4C
:1024C8009A519703F3CFADF0F4CFAEF0AD51A327F7
:1024D800AE51A423000EA523000EA6239B519603FC
:1024E800F3CFADF0F4CFAEF0AD51A327AE51A42396
:1024F800000EA523000EA623A5C0A6F0A4C0A5F033
:10250800A3C0A4F0A36B9A519603F3CFADF0F4CF18
:10251800AEF0AD51A327AE51A423000EA523000EA3
:10252800A6239C519703F3CFADF0F4CFAEF0AD5195
:10253800A927AE51AA23000EAB23000EAC239B5152
:102548009803F3CFADF0F4CFAEF0AD51A927AE515B
:10255800AA23000EAB23000EAC239C519803F3CFA3
:10256800ADF0F4CFAEF0AD519E6FAE519F6FA06B42
:10257800A16BA0C0A1F09FC0A0F09EC09FF09E6B71
:102588009E51A9279F51AA23A051AB23A151AC2347
:10259800A3C09EF0A4C09FF0A5C0A0F0A6C0A1F063
:1025A800190EDCEF12F0D890A133A0339F339E337D
:1025B800E82ED7EF12F09E51A9279F51AA23A051C8
:1025C800AB23A151AC23A5C0A6F0A4C0A5F0A3C01D
:1025D800A4F0A36BA751A8C09EF09F6B9E27000E86
:1025E8009F23820E9E25AD6FFF0E9F21AE6F12EFC7
:1025F80013F0D890A937AA37AB37AC37A6AF07EF97
:1026080013F009EF13F00AEF13F0A981D890A3375C
:10261800A437A537A637AD07D8A0AE07ABAF17EFDD
:1026280013F019EF13F0FDEF12F0000EA76FA6AF2D
:1026380020EF13F022EF13F046EF13F0FF0EA3156F
:102648009E6FFF0EA4159F6FFF0EA515A06F7F0E3E
:10265800A615A16F9E519F11A011A111D8B437EFF3
:1026680013F039EF13F03DEF13F0010EA76F46EFAB
:1026780013F0A9A142EF13F044EF13F046EF13F063
:1026880039EF13F0A751D8B44CEF13F04EEF13F015
:1026980072EF13F0010EA927000EAA23AB23AC2377
:1026A800ACA159EF13F05BEF13F072EF13F0A9C070
:1026B8009EF0AAC09FF0ABC0A0F0ACC0A1F0A135BD
:1026C800A133A0339F339E339EC0A9F09FC0AAF0C8
:1026D800A0C0ABF0A1C0ACF0AD4BAE2BAEBF7DEF50
:1026E80013F0AE5108E1AD29D8A07DEF13F07FEFCC
:1026F80013F089EF13F0000EA96F000EAA6F800E79
:10270800AB6F7F0EAC6FB7EF13F0AEBF96EF13F061
:10271800AE5106E1AD05D8B094EF13F096EF13F083
:10272800A2EF13F0000EA96F000EAA6F000EAB6F98
:10273800000EAC6F000EA26FB7EF13F0ADC0A8F09B
:10274800FF0EA917FF0EAA177F0EAB17000EAC17C6
:10275800A8A1B1EF13F0B3EF13F0B4EF13F0AB8F00
:10276800D890A831AC6FA251AC13A9C096F0AAC0FA
:1027780097F0ABC098F0ACC099F012001350800BE2
:102788001C6E13501324226E12AECDEF13F0CFEF50
:1027980013F0D0EF13F022802250D8B4D6EF13F004
:1027A800D8EF13F0EBEF13F02228D8A4DEEF13F0E4
:1027B800E0EF13F0E8EF13F0000E106E000E116E4C
:1027C800000E126E000E136E128EF3EF13F0000E51
:1027D800106E000E116E000E126E000E136E175062
:1027E800800B1C1A17501724216E16AEFEEF13F03B
:1027F80000EF14F001EF14F021802150D8B407EF56
:1028080014F009EF14F01CEF14F02128D8A40FEFEE
:1028180014F011EF14F019EF14F0000E146E000EFE
:10282800156E000E166E000E176E168E24EF14F03D
:10283800000E146E000E156E000E166E000E176E4A
:102848002150D8B42AEF14F02CEF14F034EF14F020
:102858002250D8A432EF14F034EF14F03EEF14F005
:10286800000E106E000E116E000E126E000E136E2A
:10287800D6EF15F016501002F3CF27F0F4CF28F05A
:1028880027501D6E1E6A1F6A206A2850236E246A0C
:10289800256A266A15501102F3CF27F0F4CF28F0E5
:1028A80027501D26000E1E221F22202228502326D4
:1028B800000E24222522262214501202F3CF27F0DC
:1028C800F4CF28F027501D26000E1E221F2220229A
:1028D80028502326000E2422252226221FC020F05D
:1028E8001EC01FF01DC01EF01D6A14501102F3CF48
:1028F80027F0F4CF28F027501D2628501E22000E5E
:102908001F22000E202215501002F3CF27F0F4CF1B
:1029180028F027501D2628501E22000E1F22000EC8
:1029280020221FC020F01EC01FF01DC01EF01D6A0F
:1029380014501002F3CF27F0F4CF28F027501D26AB
:1029480028501E22000E1F22000E202216501102AF
:10295800F3CF27F0F4CF28F027502326285024223D
:10296800000E2522000E262215501202F3CF27F062
:10297800F4CF28F02750232628502422000E2522A1
:10298800000E262216501202F3CF27F0F4CF28F0BB
:102998002750186E2850196E1A6A1B6A1AC01BF045
:1029A80019C01AF018C019F0186A185023261950BF
:1029B80024221A5025221B5026221DC018F01EC0A2
:1029C80019F01FC01AF020C01BF0190EF1EF14F017
:1029D800D8901B321A3219321832E82EECEF14F064
:1029E80018502326195024221A5025221B5026221B
:1029F8001FC020F01EC01FF01DC01EF01D6A215010
:102A080022C018F0196A1826000E1922820E1824FE
:102A1800276EFF0E1920286E27EF15F0D890233661
:102A280024362536263620AE1CEF15F01EEF15F09D
:102A38001FEF15F02380D8901D361E361F3620361E
:102A48002706D8A0280625AE2CEF15F02EEF15F096
:102A580012EF15F0000E216E20AE35EF15F037EFAE
:102A680015F05BEF15F0FF0E1D14186EFF0E1E1407
:102A7800196EFF0E1F141A6E7F0E20141B6E18504D
:102A880019101A101B10D8B44CEF15F04EEF15F0B2
:102A980052EF15F0010E216E5BEF15F023A057EFF2
:102AA80015F059EF15F05BEF15F04EEF15F02150CA
:102AB800D8B461EF15F063EF15F087EF15F0010E4C
:102AC8002326000E24222522262226A06EEF15F0AA
:102AD80070EF15F087EF15F023C018F024C019F037
:102AE80025C01AF026C01BF01B341B321A321932CB
:102AF800183218C023F019C024F01AC025F01BC0E2
:102B080026F0274A282A28BE92EF15F0285008E117
:102B18002728D8A092EF15F094EF15F09EEF15F046
:102B2800000E236E000E246E800E256E7F0E266E1C
:102B3800CCEF15F028BEABEF15F0285006E12704BE
:102B4800D8B0A9EF15F0ABEF15F0B7EF15F0000E00
:102B5800236E000E246E000E256E000E266E000EEB
:102B68001C6ECCEF15F027C022F0FF0E2316FF0EC7
:102B780024167F0E2516000E261622A0C6EF15F085
:102B8800C8EF15F0C9EF15F0258ED8902230266EC3
:102B98001C50261223C010F024C011F025C012F0DA
:102BA80026C013F012000600F2A0DDEF15F0DFEFEB
:102BB80015F0B0EF17F0410E016EEE0EE82EFED7BD
:102BC800012EFCD700D0F29081ACEDEF15F0EFEFBD
:102BD80015F0FBEF16F038503910D8A4F6EF15F0C1
:102BE800F8EF15F0F5EF16F00001F805F911D8A483
:102BF80000EF16F002EF16F015EF16F0DE51DF11B8
:102C0800D8A409EF16F00BEF16F015EF16F0384AB6
:102C1800392A000EDF6F010EDE6FB0EF17F0B0EF4C
:102C280017F0F805F911D8A41CEF16F01EEF16F0EE
:102C38002FEF16F0DE05DF11D8A425EF16F027EFE9
:102C480016F02FEF16F0384A392A000EDF6F000E03
:102C5800DE6FB0EF17F0DA05DB11D8A436EF16F007
:102C680038EF16F062EF16F0DC51DD11D8A43FEF13
:102C780016F041EF16F062EF16F0D451D511D8A432
:102C880048EF16F04AEF16F062EF16F0000ED76F15
:102C9800000ED66FD6C0CCF0D7C0CDF0384A392A4E
:102CA800000ED36F010ED26F000EDD6F010EDC6FC8
:102CB800000ED56F000ED46FB0EF17F0DA05DB11F8
:102CC800D8A469EF16F06BEF16F08DEF16F0DC055F
:102CD800DD11D8A472EF16F074EF16F08DEF16F030
:102CE800D405D511D8A47BEF16F07DEF16F08DEF43
:102CF80016F0384A392A000ED36F010ED26F000E33
:102D0800D56F000ED46F000EDD6F000EDC6FB0EFD4
:102D180017F0DA05DB11D8A494EF16F096EF16F049
:102D2800BEEF16F0DC05DD11D8A49DEF16F09FEF7D
:102D380016F0BEEF16F0D451D511D8A4A6EF16F0B0
:102D4800A8EF16F0BEEF16F0384A392ACEC0E0F0E8
:102D5800CFC0E1F0000ED36F010ED26F000E01015B
:102D6800EA6F010EE96F000E0001D56F010ED46FF6
:102D7800B0EF17F0D805D911D8A4C5EF16F0C7EFF2
:102D880016F0D9EF16F00101DF05E011D8A4CFEF56
:102D980016F0D1EF16F0D9EF16F0384A392A000E9E
:102DA800E06F000EDF6FB0EF17F00001D805D91102
:102DB800D8A4E1EF16F0E3EF16F013EF16F00101D7
:102DC800DF51E011D8A4EBEF16F0EDEF16F013EF9A
:102DD80016F0384A392A000EE06F010EDF6FB0EFA7
:102DE80017F0000E396E000E386EB0EF17F081AE96
:102DF80000EF17F002EF17F0B0EF17F0365037106A
:102E0800D8A409EF17F00BEF17F0ACEF17F000019B
:102E1800F805F911D8A413EF17F015EF17F05FEFC5
:102E280017F0DE51DF11D8A41CEF17F01EEF17F0D2
:102E380046EF17F0364A372A000ED96F000ED86FC2
:102E4800000EF96F000EF86F000EDB6F010EDA6FDF
:102E5800D6C0CCF0D7C0CDF0000E0101EA6F010E4C
:102E6800E96F000E0001DD6F000EDC6F000E01013E
:102E7800EA6F010EE96F000E0001D36F010ED26FE9
:102E8800B0EF17F0DE05DF11D8A44DEF17F04FEFC4
:102E980017F013EF16F0364A372A000EF96F000EB6
:102EA800F86F000EDB6F000EDA6F000ED96F010E9F
:102EB800D86F3AEF17F0DA05DB11D8A466EF17F0F0
:102EC80068EF17F08AEF17F0364A372A000EF96FC5
:102ED800010EF86F000EDB6F000EDA6F000E0101B5
:102EE800EA6F010EE96F000E0001D96F000ED86F6E
:102EF800000ED56F000ED46F000E596E010E586E7D
:102F0800000ED36F010ED26F87EF16F0D805D911D6
:102F1800D8A491EF17F093EF17F013EF16F0364A95
:102F2800372A000EF96F010EF86F000EDB6F000EE6
:102F3800DA6F000ED96F000ED86F000E0101EA6F2C
:102F4800010EE96F000E596E010E586E3FEF17F033
:102F5800000E376E000E366E5A9211000001805135
:102F6800800B8D6F80518025946F7FAFBEEF17F077
:102F7800C0EF17F0C1EF17F094819451D8B4C7EFA0
:102F880017F0C9EF17F0DEEF17F09429D8A4CFEFA8
:102F980017F0D1EF17F0D9EF17F0000E7D6F000E84
:102FA8007E6F000E7F6F000E806F7F8F000E806F28
:102FB800E6EF17F0000E7D6F000E7E6F000E7F6F3C
:102FC800000E806F8451800B8D1B84518425956F72
:102FD80083AFF1EF17F0F3EF17F0F4EF17F09581E7
:102FE8009551D8B4FAEF17F0FCEF17F011EF18F07D
:102FF8009529D8A402EF18F004EF18F00CEF18F098
:10300800000E816F000E826F000E836F000E846FBA
:10301800838F000E846F19EF18F0000E816F000E79
:10302800826F000E836F000E846F815182118311AD
:103038008411D8A422EF18F024EF18F03CEF18F010
:10304800000E7D6F000E7E6F000E7F6F000E806F8A
:10305800800E7F137F0E80138D5180137DC07DF00D
:103068007EC07EF07FC07FF080C080F07FEF19F0D7
:103078009451D8A442EF18F044EF18F04EEF18F02E
:10308800000E7D6F000E7E6F000E7F6F000E806F4A
:103098007FEF19F0955194C085F0866B855F000E1F
:1030A800865B7F0E85258E6F000E86218F6F7DC013
:1030B80089F07EC08AF07FC08BF080C08CF0000E53
:1030C8007D6F000E7E6F000E7F6F000E806F000E0A
:1030D800906F000E916F000E926F000E936F000EAE
:1030E800956FAFEF18F09551D8B47DEF18F07FEFDA
:1030F80018F096EF18F0D89089378A378B378C37C5
:10310800D8907D377E377F37803793AF8EEF18F0B2
:1031180090EF18F091EF18F07D81D89090379137A3
:10312800923793378151895D82518A5983518B59DE
:1031380084518C59D8A0A3EF18F0A5EF18F0AEEF82
:1031480018F0938D8151895F82518A5B83518B5B23
:1031580084518C5B952B190E9565B5EF18F0B7EF78
:1031680018F077EF18F089518A118B118C11D8B4A7
:10317800C0EF18F0C2EF18F0DAEF18F09081DAEF2C
:1031880018F0D8907D377E377F37803793AFCFEFF1
:1031980018F0D1EF18F0D2EF18F07D81D890903761
:1031A8009137923793378E07D8A08F077FAFDFEF1D
:1031B80018F0E1EF18F0C5EF18F0000E956F93AF17
:1031C800E8EF18F0EAEF18F00EEF19F0FF0E90157F
:1031D800856FFF0E9115866FFF0E9215876F7F0E14
:1031E8009315886F8551861187118811D8B4FFEF20
:1031F80018F001EF19F005EF19F0010E956F0EEFB9
:1032080019F07DA10AEF19F00CEF19F00EEF19F083
:1032180001EF19F09551D8B414EF19F016EF19F021
:103228003AEF19F0010E7D27000E7E237F238023BD
:1032380080A121EF19F023EF19F03AEF19F07DC0C2
:1032480085F07EC086F07FC087F080C088F0883522
:10325800883387338633853385C07DF086C07EF01A
:1032680087C07FF088C080F08E4B8F2B8FBF45EFD3
:1032780019F08F5108E18E29D8A045EF19F047EFD2
:1032880019F052EF19F0000E8F6F8E69000E7D6FE6
:10329800000E7E6F000E7F6F000E806F8FBF5FEF96
:1032A80019F08F5106E18E05D8B05DEF19F05FEF88
:1032B80019F06DEF19F0000E8F6F000E8E6F000E73
:1032C8007D6F000E7E6F000E7F6F000E806F000E08
:1032D8008D6F8EC094F094A174EF19F076EF19F009
:1032E80079EF19F07F8F7AEF19F07F9FD89094319A
:1032F800806F30EF18F0120029C002F02AC003F0E6
:10330800000E03BEFF0E046E056E010EA0EC1CF04D
:1033180002C010F003C011F004C012F005C013F091
:10332800A10E146EDE0E156EA70E166E3C0E176EED
:10333800C2EC13F010C02BF011C02CF012C02DF00D
:1033480013C02EF02BC002F02CC003F02DC004F0E7
:103358002EC005F096EC21F002C048F003C049F0F9
:103368002BC012F02CC013F02DC014F02EC015F095
:1033780048C002F049C003F0000E03BEFF0E046E01
:10338800056E010EA0EC1CF002C016F003C017F089
:1033980004C018F005C019F009EC27F012C02BF092
:1033A80013C02CF014C02DF015C02EF02BC010F057
:1033B8002CC011F02DC012F02EC013F0000E146EA8
:1033C800000E156E200E166E410E176EC2EC13F02D
:1033D80010C02BF011C02CF012C02DF013C02EF02D
:1033E8002BC002F02CC003F02DC004F02EC005F055
:1033F80096EC21F002C04AF003C04BF02BC012F04B
:103408002CC013F02DC014F02EC015F04AC002F0E5
:103418004BC003F0000E03BEFF0E046E056E010ED6
:10342800A0EC1CF002C016F003C017F004C018F09E
:1034380005C019F009EC27F012C02BF013C02CF0CE
:1034480014C02DF015C02EF02BC010F02CC011F0B8
:103458002DC012F02EC013F0000E146E000E156E63
:10346800200E166E410E176EC2EC13F010C02BF032
:1034780011C02CF012C02DF013C02EF02BC002F09A
:103488002CC003F02DC004F02EC005F096EC21F0FE
:1034980002C04CF003C04DF02BC012F02CC013F04A
:1034A8002DC014F02EC015F04CC002F04DC003F032
:1034B800000E03BEFF0E046E056E010EA0EC1CF09C
:1034C80002C016F003C017F004C018F005C019F0C8
:1034D80009EC27F012C02BF013C02CF014C02DF00B
:1034E80015C02EF02BC010F02CC011F02DC012F01A
:1034F8002EC013F0000E146E000E156E200E166E00
:10350800410E176EC2EC13F010C02BF011C02CF056
:1035180012C02DF013C02EF02BC002F02CC003F007
:103528002DC004F02EC005F096EC21F002C04EF03C
:1035380003C04FF04EC002F04FC003F032EC1EF053
:1035480002C044F003C045F04CC002F04DC003F087
:1035580032EC1EF002C042F003C043F04AC002F051
:103568004BC003F032EC1EF002C040F003C041F043
:1035780048C002F049C003F032EC1EF0800E02246D
:103588003E6E000E03203F6E120058045910D8A456
:10359800D0EF1AF0D2EF1AF054EF1BF021EE10F032
:1035A80010EE85F00F0EDBCFE3FFE806FCE221EE1C
:1035B80020F010EEA5F00E0EDBCFE3FFE806FCE2EC
:1035C80021EE00F010EE95F00F0EDBCFE3FFE806DA
:1035D800FCE2EEC0B4F0EFC0B5F0ECC0B6F0EDC060
:1035E800B7F0000E00016F6F020E14EC26F0850E86
:1035F8000001786F000E796F010E7A6F010E7B6FF4
:10360800B6EC26F0020E00016F6F020E14EC26F0E5
:10361800A50E0001786F000E796F010E7A6F010E0A
:103628007B6FB6EC26F0030E00016F6F020E14ECF0
:1036380026F0950E0001786F000E796F010E7A6FF3
:10364800010E7B6FB6EC26F0030E00016F6F020EC1
:1036580014EC26F0050E00016F6F2A0E14EC26F00C
:10366800B40E0001786F000E796F010E7A6F010EAB
:103678007B6FB6EC26F0050E00016F6F520E14EC4E
:1036880026F0B60E0001786F000E796F010E7A6F82
:10369800010E7B6FB6EC26F0000E596E000E586EC8
:1036A8000001DE51DF11D8A45CEF1BF05EEF1BF0C8
:1036B8008DEF1BF0000E776F520E766F000E796F4C
:1036C800340E786F000E7B6F5A0E7A6F000E7D6F86
:1036D800340E7C6F000E7F6F000E7E6F1FEC24F09F
:1036E800000E0001776F2A0E766F000E796F340E88
:1036F800786F000E7B6F320E7A6F000E7D6F340E7E
:103708007C6F000E7F6F010E7E6F1FEC24F0C3EFFD
:103718001BF0DE05DF11D8A494EF1BF096EF1BF029
:10372800C3EF1BF0000E776F520E766F000E796FA5
:10373800340E786F000E7B6F5A0E7A6F000E7D6F15
:10374800340E7C6F000E7F6F010E7E6F1FEC24F02D
:10375800000E0001776F2A0E766F000E796F340E17
:10376800786F000E7B6F320E7A6F000E7D6F340E0D
:103778007C6F000E7F6F000E7E6F1FEC24F012002E
:103788000001776F00017751D8B4CDEF1BF0CFEF70
:103798001BF0F1EF1BF072BFD6EF1BF0D4EF1BF05C
:1037A800F1EF1BF06FC073F070C074F071C075F06A
:1037B80072C076F0731F741F751F761F732B000E6F
:1037C80074237523762373C079F074C07AF075C0BA
:1037D8007BF076C07CF0F9EF1BF06FC079F070C019
:1037E8007AF071C07BF072C07CF06F51701171116A
:1037F8007211D8A402EF1CF004EF1CF00EEF1CF0BD
:10380800000E6F6F000E706F000E716F000E726FFA
:103818009FEF1CF0960E786F18EF1CF0782BD8905D
:103828007C337B337A337933000E7915736F000E4E
:103838007A15746F000E7B15756FFE0E7C15766F0A
:103848007351741175117611D8A42DEF1CF02FEF58
:103858001CF012EF1CF03DEF1CF0782B010E7927BD
:10386800000E7A237B237C23D8907C337B337A33F6
:103878007933000E7915736F000E7A15746F000E88
:103888007B15756FFF0E7C15766F7351741175116A
:103898007611D8A452EF1CF054EF1CF031EF1CF055
:1038A8005CEF1CF07807D89079377A377B377C370C
:1038B8007BBF61EF1CF063EF1CF06BEF1CF0020E96
:1038C800786169EF1CF06BEF1CF056EF1CF078B1D3
:1038D80070EF1CF072EF1CF073EF1CF07B9FD89018
:1038E800783378C073F0746B756B766B73C076F051
:1038F800756B746B736B7351791374517A137551BB
:103908007B1376517C137751D8B48DEF1CF08FEF71
:103918001CF097EF1CF072BF96EF1CF094EF1CF0B0
:1039280097EF1CF07C8F79C06FF07AC070F07BC085
:1039380071F07CC072F012000A6E0A50D8B4A7EF7A
:103948001CF0A9EF1CF0CBEF1CF005BEB0EF1CF08B
:10395800AEEF1CF0CBEF1CF002C006F003C007F07E
:1039680004C008F005C009F0061E071E081E091E3F
:10397800062A000E07220822092206C00CF007C0FA
:103988000DF008C00EF009C00FF0D3EF1CF002C014
:103998000CF003C00DF004C00EF005C00FF002508B
:1039A800031004100510D8A4DCEF1CF0DEEF1CF0A7
:1039B800E8EF1CF0000E026E000E036E000E046E9F
:1039C800000E056E79EF1DF0960E0B6EF2EF1CF0EF
:1039D8000B2AD8900F320E320D320C32000E0C1416
:1039E800066E000E0D14076E000E0E14086EFE0E05
:1039F8000F14096E0650071008100910D8A407EF15
:103A08001DF009EF1DF0ECEF1CF017EF1DF00B2A6D
:103A1800010E0C26000E0D220E220F22D8900F3216
:103A28000E320D320C32000E0C14066E000E0D1400
:103A3800076E000E0E14086EFF0E0F14096E065066
:103A4800071008100910D8A42CEF1DF02EEF1DF058
:103A58000BEF1DF036EF1DF00B06D8900C360D3627
:103A68000E360F360EBE3BEF1DF03DEF1DF045EF55
:103A78001DF0020E0B6043EF1DF045EF1DF030EF17
:103A88001DF00BB04AEF1DF04CEF1DF04DEF1DF08F
:103A98000E9ED8900B320BC006F0076A086A096AB6
:103AA80006C009F0086A076A066A06500C12075031
:103AB8000D1208500E1209500F120A50D8B467EFB1
:103AC8001DF069EF1DF071EF1DF005BE70EF1DF0E0
:103AD8006EEF1DF071EF1DF00F8E0CC002F00DC0DF
:103AE80003F00EC004F00FC005F0120067EC27F0D9
:103AF800C0EC24F0010EF6EC22F051EC25F0150E86
:103B08000001BF6F4B0EBE6FBE0EE82EFED7BE2F54
:103B1800FCD7BF2FFAD700F059EC23F0D4EC1EF0F5
:103B28009EEC27F0F6C06FF0F7C070F00001000EB1
:103B380070BFFF0E716F726F010EC4EC1BF06FC087
:103B4800C0F070C0C1F071C0C2F072C0C3F0C0C094
:103B5800AFF0C1C0B0F0C2C0B1F0C3C0B2F0F2C0A3
:103B6800B3F0F3C0B4F0F4C0B5F0F5C0B6F08CEC27
:103B780022F0C2820001D205D311D8A4C6EF1DF0ED
:103B8800C8EF1DF0CFEF1DF0000ED36F000ED26FFF
:103B9800000E09EC25F00001F805F911D8A4D7EFBB
:103BA8001DF0D9EF1DF0E5EF1DF0000EDB6F000EE4
:103BB800DA6F000ED96F000ED86FC9EC1AF02CEF2F
:103BC8001EF0DA05DB11D8A4ECEF1DF0EEEF1DF0C6
:103BD80019EF1EF0000EF96F000EF86F000ED96F86
:103BE800000ED86FC20EBE6FFF0EBF6FD0C065F05B
:103BF800D1C066F0000E686F040E676FBCEC23F04E
:103C08000001BE516527BF516623651F661F654BBE
:103C1800662B65C0CEF066C0CFF0CEC0A7F0CFC08F
:103C2800A8F0C5EC06F02CEF1EF0D805D911D8A4E1
:103C380020EF1EF022EF1EF02CEF1EF0000EF96FA1
:103C4800000EF86F000EDB6F000EDA6F37EC00F035
:103C580081EC26F0BDEF1DF035EF00F002500310A7
:103C6800D8A439EF1EF03BEF1EF041EF1EF0000E16
:103C7800036E3F0E026ED3EF1EF002040310D8A4A9
:103C880048EF1EF04AEF1EF050EF1EF0000E036ED4
:103C9800060E026ED3EF1EF0020E02180310D8A40F
:103CA80058EF1EF05AEF1EF060EF1EF0000E036E84
:103CB8005B0E026ED3EF1EF0030E02180310D8A499
:103CC80068EF1EF06AEF1EF070EF1EF0000E036E34
:103CD8004F0E026ED3EF1EF0040E02180310D8A484
:103CE80078EF1EF07AEF1EF080EF1EF0000E036EE4
:103CF800660E026ED3EF1EF0050E02180310D8A44C
:103D080088EF1EF08AEF1EF090EF1EF0000E036E93
:103D18006D0E026ED3EF1EF0060E02180310D8A423
:103D280098EF1EF09AEF1EF0A0EF1EF0000E036E43
:103D38007D0E026ED3EF1EF0070E02180310D8A4F2
:103D4800A8EF1EF0AAEF1EF0B0EF1EF0000E036EF3
:103D5800070E026ED3EF1EF0080E02180310D8A447
:103D6800B8EF1EF0BAEF1EF0C0EF1EF0000E036EA3
:103D78007F0E026ED3EF1EF0090E02180310D8A4AE
:103D8800C8EF1EF0CAEF1EF0D0EF1EF0000E036E53
:103D98006F0E026ED3EF1EF0000E036E0268120063
:103DA80055C091F056C092F057C093F020EE50F0F5
:103DB80010EE8CF0040EDBCFE3FFE806FCE2F0C067
:103DC80094F0F1C095F021EE39F010EE7EF0070E78
:103DD800DBCFE3FFE806FCE221EE63F010EE86F0AD
:103DE800050EDBCFE3FFE806FCE2000E00016F6F73
:103DF800340E14EC26F0910E0001786F000E796FE6
:103E0800010E7A6F010E7B6FB6EC26F0020E0001F0
:103E18006F6F2D0E14EC26F08C0E0001786F000EDB
:103E2800796F010E7A6F010E7B6FB6EC26F0030EE8
:103E380000016F6F360E14EC26F0940E0001786FB7
:103E4800000E796F010E7A6F010E7B6FB6EC26F0CB
:103E5800040E00016F6F230E14EC26F07E0E000195
:103E6800786F000E796F010E7A6F010E7B6FB6ECDA
:103E780026F0050E00016F6F360E14EC26F0940E36
:103E88000001786F000E796F010E7A6F010E7B6F5B
:103E9800B6EC26F0060E00016F6F290E14EC26F022
:103EA800860E0001786F000E796F010E7A6F010E91
:103EB8007B6FB6EC26F0150E00017D6F4B0E7C6F04
:103EC800BE0EE82EFED77C2FFCD77D2FFAD700F048
:103ED800000E09EC25F000D012000001726F000EF0
:103EE8000001776F0A0E7219D8A47DEF1FF07FEFDB
:103EF8001FF084EF1FF0000EE36FE22BFDEF1FF0C1
:103F08003F0EE3658AEF1FF08CEF1FF093EF1FF071
:103F1800010E776FE351C00F756F95EF1FF0E3C087
:103F280075F07251080DF3CF73F0F4CF74F0000EF2
:103F3800766F3F0E7565A3EF1FF0A5EF1FF0B8EF82
:103F48001FF0400E755F010E776F8A947551400916
:103F58006D6F010E4AEC27F00001E251B8096D6F50
:103F6800010E4AEC27F08A8400016F51D8B4BFEFE4
:103F78001FF0C1EF1FF0D9EF1FF03B0E706F730EEB
:103F8800716F76517027000E712373517027745129
:103F9800712370C0F6FF71C0F7FF0800F5CF6DF010
:103FA80077514AEC27F0F0EF1FF03B0E706F730E5D
:103FB800716F76517027000E7123735170277451F9
:103FC800712370C0F6FF71C0F7FF0800F550FF0AB3
:103FD8006D6F77514AEC27F00001752B762B070E91
:103FE8007665F9EF1FF0FBEF1FF09DEF1FF0080E4D
:103FF800E32712000001736F000E0001756F0A0EAF
:104008007319D8A40AEF20F00CEF20F011EF20F07C
:10401800000EE36FE22B8AEF20F03F0EE36517EF07
:1040280020F019EF20F020EF20F0010E756FE3511A
:10403800C00F726F22EF20F0E3C072F0200E735FA2
:10404800000E746F3F0E72652CEF20F02EEF20F0FB
:1040580041EF20F0400E725F010E756F8A94725125
:1040680040096D6F010E4AEC27F00001E251B809D2
:104078006D6F010E4AEC27F08A8400016F51D8B4A5
:1040880048EF20F04AEF20F064EF20F07351030D61
:104098003B0E706F7F0E716FF3507027F4507123D1
:1040A80074517027000E712370C0F6FF71C0F7FFBE
:1040B8000800F5CF6DF075514AEC27F07DEF20F040
:1040C8007351030D3B0E706F7F0E716FF3507027A5
:1040D800F450712374517027000E712370C0F6FFDD
:1040E80071C0F7FF0800F550FF0A6D6F75514AEC73
:1040F80027F00001722B742B020E746586EF20F0F6
:1041080088EF20F026EF20F0050EE3271200000EBE
:1041180000017A6F78BF95EF20F093EF20F09FEFC2
:1041280020F0781F771F761F756D000E7623772392
:104138007823010E7A6F74BFA6EF20F0A4EF20F069
:10414800B0EF20F0741F731F721F716D000E722381
:1041580073237423010E7A1B000E7B6F000E7C6F95
:10416800000E7D6F000E7E6F7551761177117811F4
:10417800D8B4C1EF20F0C3EF20F0F9EF20F0010E22
:10418800796FCDEF20F0D890753776377737783755
:10419800792B78AFD2EF20F0D4EF20F0C7EF20F0E2
:1041A800D8907B377C377D377E377551715D765176
:1041B80072597751735978517459D8A0E6EF20F0A5
:1041C800E8EF20F0F1EF20F07551715F7651725BE6
:1041D8007751735B7851745B7B81D89078337733F0
:1041E80076337533792FD4EF20F07A51D8B4FFEFB6
:1041F80020F001EF21F009EF21F07E1F7D1F7C1FC9
:104208007B6D000E7C237D237E237BC071F07CC0F8
:1042180072F07DC073F07EC074F012000001673543
:1042280068356E6F6E51D8A41CEF21F01EEF21F097
:1042380028EF21F0000E656F000E666F000E676FA5
:10424800000E686F95EF21F065C069F066C06AF0EE
:1042580067C06BF068C06CF0200E38EF21F0D89082
:104268006C336B336A336933E82E33EF21F06951CD
:104278006D6F678FFF0E6517FF0E6617FF0E6717C6
:10428800000E6817960E6E5F6EBF4FEF21F04DEF70
:1042980021F065EF21F06E51800A970FD8B057EFE3
:1042A80021F059EF21F05BEF21F01EEF21F0D890BB
:1042B80068336733663365336E3F5BEF21F07DEF1C
:1042C80021F01F0E6E656BEF21F06DEF21F075EF99
:1042D80021F01EEF21F0D8906537663767376837C9
:1042E8006E076E51D8A47BEF21F07DEF21F06FEFC0
:1042F80021F06D51D8B483EF21F085EF21F08DEFD7
:1043080021F0681F671F661F656D000E662367230F
:10431800682365C065F066C066F067C067F068C06E
:1043280068F01200043405340B6E0B50D8A49FEFCC
:1043380021F0A1EF21F0ABEF21F0000E026E000E8C
:10434800036E000E046E000E056E18EF22F002C018
:1043580006F003C007F004C008F005C009F0200EFD
:10436800BBEF21F0D8900932083207320632E82E26
:10437800B6EF21F006500A6E048EFF0E0216FF0EED
:104388000316FF0E0416000E0516960E0B5E0BBEE6
:10439800D2EF21F0D0EF21F0E8EF21F00B50800AA6
:1043A800970FD8B0DAEF21F0DCEF21F0DEEF21F043
:1043B800A1EF21F0D89005320432033202320B3ECD
:1043C800DEEF21F000EF22F01F0E0B64EEEF21F07C
:1043D800F0EF21F0F8EF21F0A1EF21F0D8900236AC
:1043E8000336043605360B060B50D8A4FEEF21F031
:1043F80000EF22F0F2EF21F00A50D8B406EF22F0D5
:1044080008EF22F010EF22F0051E041E031E026CB6
:10441800000E03220422052202C002F003C003F0AA
:1044280004C004F005C005F012000001736F000E0F
:104438000001756F3F0E736524EF22F026EF22F01E
:104448002AEF22F0400E735F010E756F8A94739FF6
:10445800738D73C06DF075514AEC27F06FC065F02D
:104468000001666B000E686F080E676FBCEC23F0E6
:1044780000016551BF0BB8096D6F75514AEC27F003
:104488008A84000175512CEC27F0000175512CEC41
:1044980027F00001746F8A9473C06DF075514AEC6F
:1044A80027F000017051D8B45CEF22F05EEF22F0E3
:1044B80072EF22F06FC071F0070E7117010E726F64
:1044C800712B69EF22F0D8907237712F67EF22F0C5
:1044D800000172517411746F85EF22F06FC071F092
:1044E800070E7117010E726F712B7DEF22F0D890B5
:1044F8007237712F7BEF22F000017251FF0A741599
:10450800746F8A8474C06DF075514AEC27F01200FC
:104518000001B3514808716FE80EB455726F010E6F
:10452800B555736F000EB655746FB3C075F0B4C04F
:1045380076F0B5C077F0B6C078F08BEC20F00001CB
:104548007151CB6ECB50B76FB86B010EB727000E09
:10455800B823B7C06FF0B8C070F0000E70BFFF0E80
:10456800716F726F010EC4EC1BF06FC096F070C0D3
:1045780097F071C098F072C099F0000E0001816F39
:10458800000E826FC80E836F420E846FAFC07DF03D
:10459800B0C07EF0B1C07FF0B2C080F0B2EC17F0CE
:1045A8007DC09AF07EC09BF07FC09CF080C09DF0DB
:1045B800ACEC11F096C0B9F097C0BAF098C0BBF057
:1045C80099C0BCF0B9C065F0BAC066F0BBC067F06E
:1045D800BCC068F012EC21F000016551BB6EBA9ABC
:1045E800BA9812000001736F000E836E8A9A270E24
:1045F8000001726FF50EE82EFED7722FFCD78A8A5B
:104608008A988A908A928A94270E0001726FF50E12
:10461800E82EFED7722FFCD7C00E00016D6F000E7A
:104628004AEC27F0C00E00016D6F010E4AEC27F02E
:10463800400E00016D6F000E4AEC27F0400E00019D
:104648006D6F010E4AEC27F0B80E00016D6F000E79
:104658004AEC27F0B80E00016D6F010E4AEC27F006
:1046680000017305D8A43BEF23F03DEF23F04AEF98
:1046780023F03F0E6D6F000E4AEC27F03F0E00014D
:104688006D6F010E4AEC27F055EF23F03E0E6D6F6B
:10469800000E4AEC27F03E0E00016D6F010E4AEC49
:1046A80027F0000E09EC25F0120021EE56F010EE6E
:1046B80088F0060EDBCFE3FFE806FCE221EE69F0A6
:1046C80010EE8FF0050EDBCFE3FFE806FCE221EEEB
:1046D8002FF010EE7EF0090EDBCFE3FFE806FCE2D8
:1046E800000E09EC25F0020E00016F6F120E14EC9B
:1046F80026F0880E0001786F000E796F010E7A6F30
:10470800010E7B6FB6EC26F0020E00016F6F4E0EA5
:1047180014EC26F08F0E0001786F000E796F010EF1
:104728007A6F010E7B6FB6EC26F0050E00016F6FF5
:104738001A0E14EC26F07E0E0001786F000E796FC9
:10474800010E7A6F010E7B6FB6EC26F0150E000194
:104758007D6F4B0E7C6FBE0EE82EFED77C2FFCD7EC
:104768007D2FFAD700F0000E09EC25F000D01200DA
:10477800000E00016A6F68BFC6EF23F0C4EF23F094
:10478800CCEF23F0676D681FD8B0682B010E6A6FF5
:1047980066BFD3EF23F0D1EF23F0D9EF23F0656D97
:1047A800661FD8B0662B010E6A1B000E6C6F000ED8
:1047B8006B6F67516811D8B4E4EF23F0E6EF23F08C
:1047C8000EEF24F0010E696FEEEF23F0D8906737F3
:1047D8006837692B68AFF3EF23F0F5EF23F0EAEFC2
:1047E80023F0D8906B376C376751655D685166590F
:1047F800D8A001EF24F003EF24F008EF24F067516C
:10480800655F6851665B6B81D89068336733692F41
:10481800F5EF23F06A51D8B414EF24F016EF24F022
:104828001AEF24F06B6D6C1FD8B06C2B6BC065F061
:104838006CC066F0120000017A51761907E17B51CD
:104848007719D8A42AEF24F02CEF24F04BEF24F0AA
:1048580078C081F079C082F03CEF24F081C06FF01D
:104868007EC070F0765119EC22F00001814B822B4A
:104878007C51815D8251800A806F7D51800A805908
:10488800D8A049EF24F04BEF24F032EF24F07C510C
:10489800781907E17D517919D8A455EF24F057EF1D
:1048A80024F076EF24F076C083F077C084F067EFC9
:1048B80024F078C06FF07EC070F0835119EC22F0BC
:1048C8000001834B842B7A51835D8451800A806F69
:1048D8007B51800A8059D8A074EF24F076EF24F039
:1048E8005DEF24F01200B00EF66E4B0EF76E000E60
:1048F800F86E01EE00F010EE78F00900F5CFEEFF4B
:10490800E550E150FAE1520EF66E4F0EF76E000ECA
:10491800F86E00EEE4F010EE0EF00900F5CFEEFFB1
:10492800E550E150FAE1600EF66E4F0EF76E000E9C
:10493800F86E00EE50F010EE08F00900F5CFEEFF2B
:10494800E550E150FAE101EECFF0140EEE6AE80608
:10495800FDE100EEC4F0200EEE6AE806FDE100EE8F
:104968002FF0210EEE6AE806FDE15A905A92000EE9
:10497800F86E00017AEF1DF0EA0E0001F26F010EE9
:10498800F36F000EF46F000EF56F000EF76F320E26
:10499800F66F000E0101EA6F010EE96F000E0001CB
:1049A800DD6F000EDC6F000E596E010E586E808AA6
:1049B800000EDB6F000EDA6F000ED96F000ED86F95
:1049C800000EF96F010EF86F000E0101E06F000E86
:1049D800DF6F000E0001DF6F000EDE6F000ED56F77
:1049E800000ED46F000E0101E86F030EE76F000E92
:1049F800E66F020EE56F000EE46F0A0EE36F000E1D
:104A08000001C96F000EC86F120000016F6F000E21
:104A18000001716F8A94400E6D6F000E4AEC27F00A
:104A2800400E00016D6F010E4AEC27F00001715134
:104A3800B8096D6F000E4AEC27F000017151B809F2
:104A48006D6F010E4AEC27F08A84000E0001706F2A
:104A58006F51010DF35000086D6F000E4AEC27F0FE
:104A680000016F51010DF35000086D6F010E4AEC03
:104A780027F00001702B3F0E706545EF25F047EFDA
:104A880025F02CEF25F0712B070E71654EEF25F000
:104A980050EF25F00EEF25F01200000E0001706FA8
:104AA800000E6F6F000E726F000E736F8A94400EC7
:104AB8006D6F73514AEC27F000017251B8096D6FA0
:104AC80073514AEC27F08A84000E0001716F3B0E87
:104AD8006F25F66E7B0E7021F76E0800F5CF6DF02E
:104AE80073514AEC27F000016F4B702B712B3F0E6E
:104AF800716581EF25F083EF25F06BEF25F0732BBF
:104B0800010E73658AEF25F08CEF25F05AEF25F03A
:104B1800722B070E726593EF25F095EF25F058EF8D
:104B280025F08A908A921200000183517F5D656F9B
:104B380084518059666F85518159676F86518259B2
:104B4800686F8B518F5D696F8C5190596A6F8D5169
:104B580091596B6F8E5192596C6F4BEC26F065C072
:104B680071F066C072F067C073F068C074F000013D
:104B78008351875D756F84518859766F855189593E
:104B8800776F86518A59786F8BEC20F000018B5132
:104B980071257F6F8C517221806F8D517321816FC8
:104BA8008E517421826F1200322E52656374616EC9
:104BB80067756C616972650043686F697369722013
:104BC800756E206D6F646500312E4F7363696C6C70
:104BD8006F73636F7065004561737953434F504538
:104BE800005175656E74696E004D6F64653A3200E8
:104BF8004D6F64653A31005242363D4F4B0050725A
:104C08006F6A657400467265713A004A756C65731F
:104C1800004D4355203A0044433A00487A002500A5
:104C28000001716F000E0001706F800E71611FEF3F
:104C380026F021EF26F04AEF26F0070E6F6527EFE2
:104C480026F029EF26F02BEF26F04AEF26F071C068
:104C5800E3F06FC0E2F03F0E716535EF26F037EFF5
:104C680026F03BEF26F0400E715F010E706F8A94BC
:104C7800715140096D6F70514AEC27F000016F5176
:104C8800B8096D6F70514AEC27F08A841200000E43
:104C980000016D6F000E6E6F000E6F6F000E706F6B
:104CA80065A159EF26F05BEF26F063EF26F0695116
:104CB8006D276A516E236B516F236C517023D89006
:104CC80069376A376B376C37D89068336733663320
:104CD80065336551661167116811D8A476EF26F01F
:104CE80078EF26F054EF26F06DC065F06EC066F0E0
:104CF8006FC067F070C068F012003EC083FF808606
:104D0800080E0001656FC90EE82EFED7652FFCD787
:104D180000D0809644C083FF8080080E0001656F34
:104D2800C90EE82EFED7652FFCD700D0809042C070
:104D380083FF8082080E0001656FC90EE82EFED73A
:104D4800652FFCD700D0809240C083FF8084080E76
:104D58000001656FC90EE82EFED7652FFCD700D07D
:104D680080941200D8EF26F000017A51D8B4BFEF32
:104D780026F0C1EF26F0CCEF26F07BC06FF078C0AC
:104D8800D9FF79C0DAFFDF5071EC1FF0D5EF26F0BC
:104D98007BC06FF078C0D9FF79C0DAFFDF50FEEC36
:104DA8001FF00001784B792B78C0D9FF79C0DAFF62
:104DB800DF50D8A4E2EF26F0E4EF26F0B8EF26F0B3
:104DC8001200000E0001811B000E821B000E831BC7
:104DD800800E841B7DC065F07EC066F07FC067F0E2
:104DE80080C068F081C069F082C06AF083C06BF04F
:104DF80084C06CF0EBEC0CF065C07DF066C07EF012
:104E080067C07FF068C080F01200000E161A000E0E
:104E1800171A000E181A800E191A12C002F013C0C1
:104E280003F014C004F015C005F016C006F017C052
:104E380007F018C008F019C009F04CEC0FF002C0D8
:104E480012F003C013F004C014F005C015F01200EE
:104E58000001656F00016551D8B435EF27F037EFD1
:104E680027F03BEF27F08A808A923DEF27F08A925D
:104E78008A8295688A868A8800D083CF66F08A9865
:104E880000D08A908A9200016651120000016E6F6C
:104E980000016E51D8B453EF27F055EF27F059EFC2
:104EA80027F08A808A925BEF27F08A928A82000E26
:104EB800956E8A966DC08CFF8A8800D08A9800D03B
:104EC8008A908A921200000E956E000E836E0A0E6A
:104ED800C16E110EC26EF00E926E000E806EC00E84
:104EE800936E000E816E040E966E000E846EF28E26
:104EF800D08E9D8C9F9CF28CF286F18012002FC080
:104F080081F030C082F031C083F032C084F07DC0BF
:104F180081F07EC082F07FC083F080C084F0000101
:104F2800849F81C07DF082C07EF083C07FF084C002
:104F380080F01200720ED36EFD0E946E0C0EBA6ED7
:104F4800000ECC6E070ECA6E12007C0045003200BF
:104F58003100320031002600457269630062790031
:10733A000000000000000000000000000000000043
:10734A000000000000000000000000000000000033
:10735A000000000000000000000000000000000023
:10736A000000000000000000000000000000000013
:10737A000000000000000000000000000000000003
:10738A0000000000000000000000000000000000F3
:10739A0000000000000000000000000000000000E3
:1073AA0000000000000000000000000000000000D3
:1073BA0000000000000000000000000000000000C3
:1073CA0000000000000000000000000000000000B3
:1073DA0000000000000000000000000000000000A3
:1073EA000000000000000000000000000000000093
:1073FA000000000000000000000000000000000083
:10740A000000000000000000000000000000000072
:10741A000000000000000000000000000000000062
:10742A000000000000000000000000000000000052
:10743A0000000000000000000000065F5F06000078
:10744A00000007070007070000147F7F147F7F14DE
:10745A0000242E6B6B3A120000466630180C6662E6
:10746A0000307A4F5D377A480004070300000000B5
:10747A0000001C3E63410000000041633E1C000006
:10748A0000082A3E1C1C3E2A0808083E3E0808003E
:10749A00000080E0600000000008080808080800F2
:1074AA000000006060000000006030180C06030154
:1074BA00003E7F71594D7F3E0040427F7F40400031
:1074CA0000627359496F660000226349497F36009A
:1074DA0000181C16537F7F5000276745457D3900E9
:1074EA00003C7E4B4979300000030371790F070095
:1074FA0000367F49497F360000064F49693F1E0022
:10750A000000006666000000000080E666000000D9
:10751A0000081C366341000000242424242424008B
:10752A0000004163361C080000020351590F06008F
:10753A00003E7F415D5D1F1E007C7E13137E7C0032
:10754A0000417F7F49497F36001C3E6341416322E7
:10755A0000417F7F41633E1C00417F7F495D41635B
:10756A0000417F7F491D0103001C3E634151737234
:10757A00007F7F08087F7F000000417F7F41000075
:10758A0000307040417F3F0100417F7F081C7763D4
:10759A0000417F7F41406070007F7F0E1C0E7F7F1D
:1075AA00007F7F060C187F7F001C3E6341633E1CF0
:1075BA0000417F7F49090F06001E3F21717F5E004F
:1075CA0000417F7F09197F6600266F4D597332008B
:1075DA000003417F7F410300007F7F40407F7F009F
:1075EA00001F3F60603F1F00007F7F3018307F7FA1
:1075FA000043673C183C674300074F78784F070001
:10760A0000476371594D677300007F7F4141000055
:10761A00000103060C183060000041417F7F000022
:10762A0000080C0603060C08008080808080808099
:10763A00800000030704000000207454543C784082
:10764A0000417F3F4848783000387C44446C280029
:10765A0000307848493F7F4000387C54545C180019
:10766A0000487E7F490302000098BCA4A4F87C0469
:10767A0000417F7F08047C780000447D7D40000043
:10768A000060E08080FD7D0000417F7F10386C44FF
:10769A000000417F7F400000007C7C18381C7C7809
:1076AA00007C7C04047C780000387C44447C3800EC
:1076BA000084FCF8A4243C1800183C24A4F8FC8498
:1076CA0000447C784C041C1800485C545474240010
:1076DA000000043E7F442400003C7C40403C7C4047
:1076EA00001C3C60603C1C00003C7C7038707C3C98
:1076FA0000446C3810386C44009CBCA0A0FC7C0090
:10770A00004C64745C4C64000008083E77414100F8
:10771A000000000077770000004141773E0808002A
:10772A0000020301030203010070784C464C787092
:10773A00000E9F91B1FB4A00003A7A40407A7A40A3
:10774A0000387C54555D19000002237555557D7B20
:10775A0042217554547D794000217555547C7840F6
:10776A0000207457577C784000183CA4A4E44000D9
:10777A0000023B7D55555D1B02397D54545D19004D
:10778A0000397D55545C18000001457C7C4101009C
:10779A00000203457D7D43020001457D7C400000D7
:1077AA0000797D1612167D790070782B2B7870007F
:1077BA0000447C7C5555450000207454547C7C540C
:1077CA00547C7E0B097F7F4900327B49497B32001A
:1077DA0000327A48487A320000327A4A48783000D1
:1077EA00003A7B41417B7A40003A7A4240787840BD
:1077FA00009ABAA0A0FA7A000001193C66663C1900
:10780A00013D7D40407D3D0000183C24E7E72424EB
:10781A0000687E7F49436620002B2FFCFC2F2B003B
:10782A0000FFFF09092FF6F8A040C088FE7F090370
:10783A0002207454557D79400000447D7D4100004A
:10784A00003078484A7A320000387840427A7A40E2
:10785A00007A7A0A0A7A7000007D7D19317D7D00EE
:10786A000000262F292F2F280000262F292F260037
:10787A000030784D456020000038380808080800B4
:10788A000008080808383800004F6F3018CCEEBBE3
:10789A00914F6F30186C76FBF90000007B7B00007B
:1078AA0000081C3622081C362222361C0822361CE6
:1078BA0008AA005500AA005500AA55AA55AA55AA11
:1078CA0055DDFFAA77DDAAFF77000000FFFF000061
:1078DA0000101010FFFF000000141414FFFF000036
:1078EA00001010FFFF00FFFF001010F0F010F0F082
:1078FA0000141414FCFC0000001414F7F700FFFF36
:10790A00000000FFFF00FFFF001414F4F404FCFC65
:10791A000014141717101F1F0010101F1F101F1F0D
:10792A00001414141F1F000000101010F0F00000C3
:10793A00000000001F1F1010101010101F1F101041
:10794A0010101010F0F0101010000000FFFF1010BF
:10795A00101010101010101010101010FFFF10103F
:10796A0010000000FFFF1414140000FFFF00FFFFC7
:10797A001000001F1F101717140000FCFC04F4F479
:10798A001414141717101717141414F4F404F4F435
:10799A00140000FFFF00F7F714141414141414143D
:1079AA00141414F7F700F7F714141414171714140F
:1079BA001410101F1F101F1F10141414F4F41414A1
:1079CA00141010F0F010F0F01000001F1F101F1F0D
:1079DA00100000001F1F141414000000FCFC1414F3
:1079EA00140000F0F010F0F0101010FFFF10FFFF6D
:1079FA0010141414FFFF1414141010101F1F000089
:107A0A0000000000F0F0101010FFFFFFFFFFFFFF63
:107A1A00FFF0F0F0F0F0F0F0F0FFFFFFFF000000E1
:107A2A000000000000FFFFFFFF0F0F0F0F0F0F0FE7
:107A3A000F387C446C386C4400FCFE2A2A3E140041
:107A4A00007E7E020206060000027E7E027E7E0222
:107A5A000063775D4963630000387C447C3C04041E
:107A6A000080FE7E20203E1E000406027E7C060266
:107A7A000099BDE7E7BD9900001C3E6B496B3E1CAF
:107A8A00004C7E7301737E4C0030784A4F7D39007A
:107A9A0000183C243C3C243C1898FC643C3E273D9E
:107AAA0018000000000000000000000000000000B4
:107ABA0000000000000000000000000000000000BC
:107ACA0000000000000000000000000000000000AC
:107ADA00000000000000000000000000000000009C
:107AEA00000000000000000000000000000000008C
:107AFA00000000000000000000000000000000007C
:107B0A00000000000000000000000000000000006B
:107B1A00000000000000000000000000000000005B
:107B2A00000000000000000000000000000000004B
:107B3A00000000000000000000808080800000003B
:107B4A0000000000000000000000000000800000AB
:107B5A00800000800000000000000000000000001B
:107B6A00000000000000000000000000000000000B
:107B7A0000000000000000000000000000000000FB
:107B8A0000000000000000000000000000000000EB
:107B9A0000000000000000000000000000000000DB
:107BAA0000000000000000000000000000000000CB
:107BBA00000000000000003E4180808080413E00BD
:107BCA0000D894A46C00007884844C0088FC8081DE
:107BDA00FF8081FF800078848484780000D894A490
:107BEA006C00007884844C000078848484780008CF
:107BFA00FC488484780000789494580000000000BF
:107C0A00D894A46C00041C6480740C0400D894A456
:107C1A006C0004FF844000789494580088FC88041F
:107C2A00FC8804F88000000000000000000000004A
:107C3A00000000000000000000000000000000003A
:107C4A00000000000000000000000000000000002A
:107C5A00000000000000000000000000000000001A
:107C6A000000000000000000000000000000000406
:107C7A0007040000000000000000000000000000EF
:107C8A0000000000000404060100000000000000DB
:107C9A0000000000000000000000000000000000DA
:107CAA0000000000000000000000000000000000CA
:107CBA0000000000000000000000000000000000BA
:107CCA0000000000000000000000000000000000AA
:107CDA00000000000000000000000000000000009A
:107CEA000080F0F8181C0E0E1C1878F0C0800000F6
:107CFA0000000000000000000000000000000080FA
:107D0A00F0F8181C0C0E0E1C18F8F0800000000089
:107D1A000000000000000000000000000000000059
:107D2A000000000000000000000000000000000049
:107D3A000000000000000000000000000000000039
:107D4A000000000000000000000000000000000029
:107D5A000000000000000000000000000000000019
:107D6A00F8FF0F0000000000000000000FFFF800FD
:107D7A000000000000000000000000000000F8FF02
:107D8A000F0000000000000000000FFFF8000000D4
:107D9A0000000000000000000000000000000000D9
:107DAA0000000000000000000000000000000000C9
:107DBA0000000000000000000000000000000000B9
:107DCA000000000000000000000800080008001C75
:107DDA00FCF8800800080008000800080008E0FF16
:107DEA003F090008000800080008000800093FFFD2
:107DFA00E00800080008000800080008E0FF3F0942
:107E0A000008000800080008000800090F0F000811
:107E1A000008000800000000000000000000000048
:107E2A000000000000000000000000000000000048
:107E3A000000000000000000000000000000000038
:107E4A000000000000000000000000000000000028
:107E5A0000073FFCE000000000000080C0FC7F0734
:107E6A000000000000000000000000000000000701
:107E7A003FFCE000000000000000C0FC7F0700009B
:107E8A0000000000000000000000000000000000E8
:107E9A0000000000000000000000000000000000D8
:107EAA0000000000000000000000000000000000C8
