:020000040000FA
:0400000035EF00F0E8
:060008005A82ACED17F076
:100018005A80D8CF60F0E8CF61F0E0CF62F0F3CF3C
:1000280063F0F4CF64F09EAC1CEF00F01EEF00F01C
:1000380029EF00F09E9CC4CFD0F00001D16BD0C056
:1000480029F0D1C02AF072EC19F064C0F4FF63C043
:10005800F3FF62C0E0FF61C0E8FF60C0D8FF5A90BC
:10006800100069EF24F021EE5DF011EE86F0050E28
:10007800DBCFE3FFE806FCE26FC18CF170C18DF1C4
:1000880071C18EF172C18FF121EE48F011EE78F056
:10009800060EDBCFE3FFE806FCE221EE41F011EEAD
:1000A8007FF0060EDBCFE3FFE806FCE273C190F1B8
:1000B80074C191F175C192F176C193F177C194F150
:1000C800060E00016F6F070EFFEC25F00101DF51EE
:1000D800E011D8A472EF00F074EF00F0B9EF00F06F
:1000E800780E0001786F010E796F010E7A6F010E9C
:1000F8007B6FA1EC26F0C4500001F26FF36BF46B38
:10010800F56BF2C07FF0F3C080F0F4C081F0F5C069
:1001180082F0000E836F000E846F000E856F000E54
:10012800866FF40E876F000E886F000E896F000EC1
:100138008A6FEA0E8B6F010E8C6F000E8D6F000EAA
:100148008E6F240E8F6FF40E906F000E916F000E5D
:10015800926F83EC25F07FC0F2F080C0F3F081C08D
:10016800F4F082C0F5F0F7EF00F07F0E0001786F31
:10017800010E796F010E7A6F010E7B6FA1EC26F0EC
:10018800C4CFF6F00001F76BF6C07FF0F7C080F03F
:10019800000E80BFFF0E816F826F000E836F000E0E
:1001A800846F000E856F000E866FF40E876F000E49
:1001B800886F000E896F000E8A6F000E8B6F000E1D
:1001C8008C6F000E8D6F000E8E6F640E8F6F000E99
:1001D800906F000E916F000E926F83EC25F07FC038
:1001E800F6F080C0F7F00001F5BF09EF01F0F55116
:1001F800F41109E1EA0EF25D010EF359D8B007EFE8
:1002080001F009EF01F011EF01F0EA0EF26F010EB3
:10021800F36F000EF46F000EF56FF5BF20EF01F0DD
:10022800F551F4110BE1250EF25DF40EF359D8A047
:1002380020EF01F022EF01F02AEF01F0240EF26F17
:10024800F40EF36F000EF46F000EF56FF7BF31EF89
:1002580001F02FEF01F035EF01F0000EF76F000EFF
:10026800F66FF7BF41EF01F0F75109E1650EF65D52
:10027800D8A041EF01F043EF01F047EF01F0000E85
:10028800F76F640EF66F000E776F380E766F000EFC
:10029800796F2F0E786F000E7B6F380E7A6F000E15
:1002A8007D6F370E7C6F000E7F6F010E7E6F11EC35
:1002B80024F0000E0001776F390E766F000E796F0B
:1002C8002F0E786F000E7B6F390E7A6F000E7D6FE0
:1002D800370E7C6F000E7F6F010E7E6F11EC24F0DD
:1002E800060E00016F6F3E0EFFEC25F08C0E00012C
:1002F800786F010E796F010E7A6F010E7B6FA1EC9A
:1003080026F0060E00016F6F720EFFEC25F0930EBB
:100318000001786F010E796F010E7A6F010E7B6F05
:10032800A1EC26F0070E00016F6F0B0EFFEC25F015
:10033800860E0001786F010E796F010E7A6F010E3B
:100348007B6FA1EC26F0070E00016F6F660EFFECC5
:1003580025F0900E0001786F010E796F010E7A6F0B
:10036800010E7B6FA1EC26F0000E0001776F000EE6
:10037800766F000E796F2E0E786F000E7B6F800EF1
:100388007A6F000E7D6F2E0E7C6F000E7F6F010E50
:100398007E6F11EC24F0F2C06FF0F3C070F0F4C07F
:1003A80071F0F5C072F0010EB6EC1BF06FC096F05C
:1003B80070C097F071C098F072C099F0170E0001E4
:1003C8009A6FB70E9B6FD10E9C6F380E9D6FB3EC72
:1003D80011F096C0CBF197C0CCF198C0CDF199C07F
:1003E800CEF1CBC165F0CCC166F0CDC167F0CEC10E
:1003F80068F004EC21F065C099F166C09AF1CBC1B0
:100408007DF0CCC17EF0CDC17FF0CEC180F0CBC1F4
:1004180065F0CCC166F0CDC167F0CEC168F004ECE0
:1004280021F0000165C06FF066C070F0000E70BF6B
:10043800FF0E716F726F010EB6EC1BF06FC081F08A
:1004480070C082F071C083F072C084F0D0EC26F0E6
:100458007DC0CBF17EC0CCF17FC0CDF180C0CEF1A4
:10046800CBC196F0CCC197F0CDC198F0CEC199F030
:10047800000E00019A6F000E9B6F200E9C6F410EBC
:100488009D6FB3EC11F096C0CBF197C0CCF198C03A
:10049800CDF199C0CEF1CBC165F0CCC166F0CDC12C
:1004A80067F0CEC168F004EC21F065C09BF166C02E
:1004B8009CF1CBC17DF0CCC17EF0CDC17FF0CEC127
:1004C80080F0CBC165F0CCC166F0CDC167F0CEC17C
:1004D80068F004EC21F0000165C06FF066C070F0B0
:1004E800000E70BFFF0E716F726F010EB6EC1BF03D
:1004F8006FC081F070C082F071C083F072C084F068
:10050800D0EC26F07DC0CBF17EC0CCF17FC0CDF120
:1005180080C0CEF1CBC196F0CCC197F0CDC198F098
:10052800CEC199F0000E00019A6F000E9B6F200E4D
:100538009C6F410E9D6FB3EC11F096C0CBF197C044
:10054800CCF198C0CDF199C0CEF1CBC165F0CCC14A
:1005580066F0CDC167F0CEC168F004EC21F065C04B
:100568009DF166C09EF1CBC17DF0CCC17EF0CDC1BE
:100578007FF0CEC180F0CBC165F0CCC166F0CDC1B3
:1005880067F0CEC168F004EC21F0000165C06FF09F
:1005980066C070F0000E70BFFF0E716F726F010EB3
:1005A800B6EC1BF06FC081F070C082F071C083F0B0
:1005B80072C084F0D0EC26F07DC0CBF17EC0CCF1C7
:1005C8007FC0CDF180C0CEF1CBC196F0CCC197F001
:1005D800CDC198F0CEC199F0000E00019A6F000EBF
:1005E8009B6F200E9C6F410E9D6FB3EC11F096C06F
:1005F800CBF197C0CCF198C0CDF199C0CEF1CBC169
:1006080065F0CCC166F0CDC167F0CEC168F004ECEE
:1006180021F065C09FF166C0A0F1CBC17DF0CCC1CF
:100628007EF0CDC17FF0CEC180F0CBC165F0CCC1EA
:1006380066F0CDC167F0CEC168F004EC21F000018E
:1006480065C06FF066C070F0000E70BFFF0E716F6E
:10065800726F010EB6EC1BF06FC081F070C082F0B3
:1006680071C083F072C084F0D0EC26F07DC0CBF16D
:100678007EC0CCF17FC0CDF180C0CEF1CBC196F069
:10068800CCC197F0CDC198F0CEC199F0000E000111
:100698009A6F000E9B6F200E9C6F410E9D6FB3ECFE
:1006A80011F096C0CBF197C0CCF198C0CDF199C0AC
:1006B800CEF1CBC165F0CCC166F0CDC167F0CEC13B
:1006C80068F004EC21F065C0A1F166C0A2F1F6C0A3
:1006D8006FF0F7C070F00001000E70BFFF0E716F71
:1006E800726F010EB6EC1BF06FC096F070C097F0F9
:1006F80071C098F072C099F00A0E00019A6FD70E77
:100708009B6F230E9C6F3C0E9D6FB3EC11F096C04F
:10071800C7F197C0C8F198C0C9F199C0CAF1C7C15B
:1007280065F0C8C166F0C9C167F0CAC168F004ECD9
:1007380021F065C0A3F166C0A4F1C7C17DF0C8C1AE
:100748007EF0C9C17FF0CAC180F0C7C165F0C8C1D9
:1007580066F0C9C167F0CAC168F004EC21F0000175
:1007680065C06FF066C070F0000E70BFFF0E716F4D
:10077800726F010EB6EC1BF06FC081F070C082F092
:1007880071C083F072C084F0D0EC26F07DC0C7F150
:100798007EC0C8F17FC0C9F180C0CAF1C7C196F058
:1007A800C8C197F0C9C198F0CAC199F0000E0001FC
:1007B8009A6F000E9B6F200E9C6F410E9D6FB3ECDD
:1007C80011F096C0C7F197C0C8F198C0C9F199C097
:1007D800CAF1C7C165F0C8C166F0C9C167F0CAC12E
:1007E80068F004EC21F065C0A5F166C0A6F1C7C1A8
:1007F8007DF0C8C17EF0C9C17FF0CAC180F0C7C111
:1008080065F0C8C166F0C9C167F0CAC168F004ECF8
:1008180021F0000165C06FF066C070F0000E70BF77
:10082800FF0E716F726F010EB6EC1BF06FC081F096
:1008380070C082F071C083F072C084F0D0EC26F0F2
:100848007DC0C7F17EC0C8F17FC0C9F180C0CAF1C0
:10085800C7C196F0C8C197F0C9C198F0CAC199F04C
:10086800000E00019A6F000E9B6F200E9C6F410EC8
:100878009D6FB3EC11F096C0C7F197C0C8F198C04E
:10088800C9F199C0CAF1C7C165F0C8C166F0C9C14C
:1008980067F0CAC168F004EC21F065C0A7F166C032
:1008A800A8F101019951300FAB6F9B51300FAC6F1C
:1008B8009D51300FAD6F9F51300FAE6FA151300F6A
:1008C800AF6FA351300FB06FA551300FB16FA75163
:1008D800300FB26F000EB46F000EB36FABC1B3F13F
:1008E800000EB46F000EB66F000EB56FACC1B5F157
:1008F800000EB66F000EB86F000EB76FADC1B7F13E
:10090800000EB86F000EBA6F000EB96FAEC1B9F124
:10091800000EBA6F000EBC6F000EBB6FAFC1BBF10B
:10092800000EBC6F000EBE6F000EBD6FB0C1BDF1F2
:10093800000EBE6F000EC06F000EBF6FB1C1BFF1D9
:10094800000EC06F000EC26F000EC16FB2C1C1F1C0
:10095800000EC26F060E00016F6F560EFFEC25F0F9
:10096800BD0E0001786F010E796F010E7A6F010ECE
:100978007B6FA1EC26F0060E00016F6F5F0EFFEC97
:1009880025F0BF0E0001786F010E796F010E7A6FA6
:10099800010E7B6FA1EC26F0060E00016F6F680E4A
:1009A800FFEC25F0C10E0001786F010E796F010E82
:1009B8007A6F010E7B6FA1EC26F0070E00016F6FB6
:1009C800330EFFEC25F0B30E0001786F010E796F3E
:1009D800010E7A6F010E7B6FA1EC26F0070E000165
:1009E8006F6F3C0EFFEC25F0B50E0001786F010E1D
:1009F800796F010E7A6F010E7B6FA1EC26F0070E5E
:100A080000016F6F4A0EFFEC25F0B70E0001786FFA
:100A1800010E796F010E7A6F010E7B6FA1EC26F043
:100A2800070E00016F6F530EFFEC25F0B90E0001A1
:100A3800786F010E796F010E7A6F010E7B6FA1EC52
:100A480026F0070E00016F6F5C0EFFEC25F0BB0E61
:100A58000001786F010E796F010E7A6F010E7B6FBE
:100A6800A1EC26F0F2C07FF0F3C080F0F4C081F072
:100A7800F5C082F0EA0E0001836F010E846F000E4C
:100A8800856F000E866F240E876FF40E886F000E38
:100A9800896F000E8A6F010E8B6F000E8C6F000E2F
:100AA8008D6F000E8E6F320E8F6F000E906F000EDE
:100AB800916F000E926F83EC25F07FC0C3F180C068
:100AC800C4F1C3C16FF0C4C170F00001000E70BF63
:100AD800FF0E716F726F010EB6EC1BF06FC081F0E4
:100AE80070C082F071C083F072C084F0000E000103
:100AF8007D6F000E7E6FC80E7F6F420E806FDEEC3A
:100B080015F07DC065F07EC066F07FC067F080C0DC
:100B180068F004EC21F065C0A9F166C0AAF1C3C170
:100B28006FF0C4C170F00001000E70BFFF0E716F4E
:100B3800726F010EB6EC1BF06FC081F070C082F0CE
:100B480071C083F072C084F0F6C06FF0F7C070F027
:100B58000001000E70BFFF0E716F726F010EB6ECD0
:100B68001BF06FC07DF070C07EF071C07FF072C066
:100B780080F0DEEC15F07DC065F07EC066F07FC0C9
:100B880067F080C068F004EC21F065C0C5F166C06C
:100B9800C6F1E7C176F0E8C177F0000E0001796F81
:100BA800000E786FE7C17AF0E8C17BF0000E7D6F28
:100BB8002D0E7C6F000E7F6F000E7E6F11EC24F0FF
:100BC800F6C06FF0F7C070F00001000E70BFFF0EA6
:100BD800716F726F010EB6EC1BF06FC095F170C0AB
:100BE80096F171C097F172C098F195C1AFF096C1B6
:100BF800B0F097C1B1F098C1B2F0F2C0B3F0F3C051
:100C0800B4F0F4C0B5F0F5C0B6F07EEC22F0010106
:100C1800E151C55DC651800A0001BD6F0101E25175
:100C2800800A0001BD59D8A01CEF06F01EEF06F09F
:100C38005EEF06F00101C551C611D8B426EF06F0E3
:100C480028EF06F05EEF06F00A0E00016F6F010E46
:100C5800706F0101E7510BEC22F07E0E0101E519DE
:100C6800E611D8B43AEF06F03CEF06F053EF06F081
:100C7800E5C185F0E6C186F0E3C187F0E4C188F0FC
:100C8800E7C189F0E8C18AF0000E00018C6F0A0EF6
:100C98008B6F000E8E6F010E8D6F17EC0AF0E7C197
:100CA800E5F1E8C1E6F1000E0101E46F0A0EE36F19
:100CB80092EF06F0230E00016F6F010E706F0101B5
:100CC800E7510BEC22F07E0E0101E519E611D8B4CC
:100CD80070EF06F072EF06F089EF06F0E5C185F0D7
:100CE800E6C186F0E3C187F0E4C188F0E7C189F086
:100CF800E8C18AF0000E00018C6F230E8B6F000E86
:100D08008E6F010E8D6F17EC0AF0E7C1E5F1E8C1AF
:100D1800E6F1000E0101E46F230EE36FA951E15DD6
:100D2800E251800A0001BD6F0101AA51800A000149
:100D3800BD59D8B0A2EF06F0A4EF06F0A9EF06F06F
:100D48000101E14BE22BAEEF06F0000E0101E26F6C
:100D5800000EE16FE8BFBAEF06F0E85109E17E0E38
:100D6800E75DD8A0BAEF06F0BCEF06F0C2EF06F0D8
:100D7800000EE86F000EE76FC4EF06F0E74BE82BB4
:100D88001200000E0001F96F000EF86F000EDB6F05
:100D9800010EDA6F000E576E010E566E560457108C
:100DA800D8B4D9EF06F0DBEF06F0E4EF06F0DC0587
:100DB800DD11D8A4E2EF06F0E4EF06F07CEF07F0CF
:100DC800000E576E000E566EEAC07FF1EBC080F140
:100DD800E8C081F1E9C082F1E6C083F1E7C084F19F
:100DE800E4C085F1E5C086F1000E0101956F000EA3
:100DF800946F94C16FF00F0EFFEC25F0850E000183
:100E0800786F010E796F010E7A6F010E7B6FA1EC7E
:100E180026F00101944B952B95BF1CEF07F09551D7
:100E280009E1080E945DD8A01CEF07F01EEF07F04B
:100E3800FDEF06F0000E0001776F000E766F000ED2
:100E4800796F110E786F000E7B6F110E7A6F000E9E
:100E58007D6F110E7C6F000E7F6F010E7E6F11EC9F
:100E680024F00001DC51DD11D8A43DEF07F03FEF7D
:100E780007F051EF07F0010E6F6F020EFFEC25F03F
:100E88007F0E0001786F010E796F010E7A6F010EE7
:100E98007B6FA1EC26F07CEF07F0DC05DD11D8A410
:100EA80058EF07F05AEF07F06CEF07F0010E6F6F7D
:100EB800020EFFEC25F0810E0001786F010E796FAC
:100EC800010E7A6F010E7B6FA1EC26F07CEF07F024
:100ED800010E6F6F020EFFEC25F0830E0001786F94
:100EE800010E796F010E7A6F010E7B6FA1EC26F06F
:100EF8004650300F0101876F4850300F886F4A50B5
:100F0800300F896F4C50300F8A6F000E8B6F000EB8
:100F18008C6F000E8D6F87C18BF12E0E8C6F000EBB
:100F28008D6F000E8F6F000E8E6F88C18EF1000ED0
:100F38008F6F000E916F000E906F89C190F1000EB7
:100F4800916F000E936F000E926F8AC192F1000E9E
:100F5800936F030E00016F6F020EFFEC25F08B0EEE
:100F68000001786F010E796F010E7A6F010E7B6FA9
:100F7800A1EC26F0040E00016F6F020EFFEC25F0C5
:100F88008E0E0001786F010E796F010E7A6F010ED7
:100F98007B6FA1EC26F0050E00016F6F020EFFECCF
:100FA80025F0900E0001786F010E796F010E7A6FAF
:100FB800010E7B6FA1EC26F0060E00016F6F020E8A
:100FC800FFEC25F0920E0001786F010E796F010E8B
:100FD8007A6F010E7B6FA1EC26F00001DC51DD1168
:100FE800D8A4F9EF07F0FBEF07F0BBEF08F0D7BF85
:100FF80009EF08F0D75107E1630ED65DD8B007EFC7
:1010080008F009EF08F054EF08F01D0ED625766FAA
:10101800000ED721776F000E796F000E786F1D0EC6
:10102800D6257A6F000ED7217B6F000E7D6F400E9C
:101038007C6F000E7F6F000E7E6F11EC24F0A7C04E
:101048006FF0010E0001706FD6511C0F0BEC22F0EF
:101058001C0E0001CC25856F000ECD21866FCAC0FD
:1010680087F0CBC088F01C0ED625896F000ED721DB
:101078008A6FA7C08BF0A8C08CF0000E8E6F010E8F
:101088008D6F17EC0AF0D6C0CCF0D7C0CDF0A7C052
:10109800CAF0A8C0CBF00001D64BD72B16EF0AF048
:1010A800D7BF60EF08F0D75109E1630ED65DD8A02D
:1010B80060EF08F062EF08F016EF0AF0000ED76F45
:1010C800000ED66F000E776F1B0E766F000E796FCD
:1010D800000E786F000E7B6F1B0E7A6F000E7D6F0F
:1010E800400E7C6F000E7F6F000E7E6F11EC24F0B7
:1010F800000E0001776F1C0E766F000E796F000EE0
:10110800786F000E7B6F1C0E7A6F000E7D6F400E9D
:101118007C6F000E7F6F000E7E6F11EC24F0000EC6
:101128000001776F1D0E766F000E796F000E786FD5
:10113800000E7B6F1D0E7A6F000E7D6F400E7C6F68
:10114800000E7F6F000E7E6F11EC24F0A7C06FF0C9
:10115800010E0001706F1C0E0BEC22F0000E000156
:10116800CD6F000ECC6F4BEF08F016EF0AF0DC05E0
:10117800DD11D8A4C2EF08F0C4EF08F016EF0AF0AA
:10118800D451D511D8A4CBEF08F0CDEF08F039EF42
:1011980009F021EE4FF011EE78F0060EDBCFE3FFF9
:1011A800E806FCE2A8BFE2EF08F0A85109E11F0E2B
:1011B800A75DD8A0E2EF08F0E4EF08F0F6EF08F03A
:1011C800010E6F6F320EFFEC25F0780E0001786F7C
:1011D800010E796F010E7A6F010E7B6FA1EC26F07C
:1011E8000BEF09F0A8BF04EF09F0A85107E11F0EA3
:1011F800A75DD8B002EF09F004EF09F00BEF09F092
:10120800070E6F6F320EFFEC25F0E9EF08F0000EC5
:101218000001776F1C0E766FA7C078F0A8C079F030
:10122800000E7B6F7F0E7A6FA7C07CF0A8C07DF0A0
:10123800000E7F6F010E7E6F11EC24F00001A751A4
:10124800C81909E1A851C919D8B42DEF09F02FEF31
:1012580009F016EF0AF0A7C0C8F0A8C0C9F0000E40
:10126800D36F010ED26F16EF0AF0D405D511D8A4AA
:1012780040EF09F042EF09F016EF0AF0000E776F21
:101288001C0E766FE0C078F0E1C079F0000E7B6F3D
:101298007F0E7A6FE0C07CF0E1C07DF0000E7F6FBA
:1012A800010E7E6F11EC24F00001A751E05DE151C1
:1012B800800AA96FA851800AA959D8A066EF09F039
:1012C80068EF09F016EF0AF0D7BF76EF09F0D751AB
:1012D80007E1630ED65DD8B074EF09F076EF09F038
:1012E800B6EF09F01D0ED625766F000ED721776F61
:1012F800000E796F000E786F1D0ED6257A6F000EDE
:10130800D7217B6F000E7D6F400E7C6F000E7F6FC4
:10131800000E7E6F11EC24F0A7C06FF0010E0001E3
:10132800706FD6511C0F0BEC22F01C0E0001CC255F
:10133800856F000ECD21866FCAC087F0CBC088F0BC
:101348001C0ED625896F000ED7218A6FA7C08BF097
:10135800A8C08CF0000E8E6F010E8D6F17EC0AF08E
:1013680047EF08F0D7BFC2EF09F0D75109E1630E84
:10137800D65DD8A0C2EF09F0C4EF09F0B9EF08F0C4
:10138800000ED76F000ED66F000E776F1B0E766FAC
:10139800000E796F000E786F000E7B6F1B0E7A6F50
:1013A800000E7D6F400E7C6F000E7F6F000E7E6F0B
:1013B80011EC24F0000E0001776F1C0E766F000E02
:1013C800796F000E786F000E7B6F1C0E7A6F000E1F
:1013D8007D6F400E7C6F000E7F6F000E7E6F11ECEC
:1013E80024F0000E0001776F1D0E766F000E796FE6
:1013F800000E786F000E7B6F1D0E7A6F000E7D6FEA
:10140800400E7C6F000E7F6F000E7E6F11EC24F093
:10141800A7C06FF0010E0001706F1C0E0BEC22F0DC
:10142800B2EF08F0120000018551895D9B6F86516B
:101438008A599C6F87518B5D9D6F88518C599E6F1F
:101448009BC06FF09CC070F0000E70BFFF0E716FF4
:10145800726F010EB6EC1BF06FC07DF070C07EF0AD
:1014680071C07FF072C080F06EEC27F07DC065F02F
:101478007EC066F07FC067F080C068F004EC21F0A1
:1014880065C09FF066C0A0F09DC06FF09EC070F070
:101498000001000E70BFFF0E716F726F010EB6EC87
:1014A8001BF06FC07DF070C07EF071C07FF072C01D
:1014B80080F06EEC27F07DC065F07EC066F07FC0DE
:1014C80067F080C068F004EC21F065C0A1F066C048
:1014D800A2F0A1C08FF0A2C090F0D89000018F3781
:1014E80090379F518F5D976FA0519059986F9FC00B
:1014F8008FF0A0C090F0D8908F379037A1518F5DB2
:10150800996FA25190599A6FA1519F5DA051800A7D
:101518008F6FA251800A8F59D8A095EF0AF097EFE4
:101528000AF0C2EF0BF09CBF9CEF0AF09EEF0AF0A6
:10153800ACEF0AF085C0A3F086C0A4F087C0A5F080
:1015480088C0A6F089C093F08AC094F0B8EF0AF07A
:1015580089C0A3F08AC0A4F08BC0A5F08CC0A6F007
:1015680085C093F086C094F0A5C06FF08DC070F070
:10157800A3510BEC22F0A5C06FF08DC070F00001F4
:10158800A3050BEC22F0A5C06FF08DC070F0000130
:10159800A3290BEC22F00001A5056F6F8DC070F038
:1015A800A3510BEC22F00001A5296F6F8DC070F0DC
:1015B800A3510BEC22F00001A5056F6F8DC070F0F0
:1015C800A3050BEC22F00001A5296F6F8DC070F008
:1015D800A3050BEC22F00001A5056F6F8DC070F01C
:1015E800A3290BEC22F00001A5296F6F8DC070F0C4
:1015F800A3290BEC22F0000E0001926F000E916FF0
:10160800B1EF0BF0010EA325A36F000EA421A46F68
:1016180098BF13EF0BF011EF0BF022EF0BF0A1C006
:101628008FF0A2C090F0D8908F37903797518F25C0
:10163800976F98519021986F67EF0BF09CBF29EF37
:101648000BF027EF0BF030EF0BF09EBF2EEF0BF0F7
:1016580030EF0BF04AEF0BF09CBF3BEF0BF09C51C7
:1016680008E19B05D8A03BEF0BF03DEF0BF052EFE4
:101678000BF09EBF48EF0BF09E5108E19D05D8A0E6
:1016880048EF0BF04AEF0BF052EF0BF0010EA525D7
:10169800A56F000EA621A66F58EF0BF0FF0EA5252B
:1016A800A56FFF0EA621A66F9F51A15D8F6FA05158
:1016B800A259906FD8908F37903797518F25976F91
:1016C80098519021986FA5C06FF08DC070F0A3510C
:1016D8000BEC22F0A5C06FF08DC070F00001A305DF
:1016E8000BEC22F0A5C06FF08DC070F00001A329AB
:1016F8000BEC22F00001A5056F6F8DC070F0A351AF
:101708000BEC22F00001A5296F6F8DC070F0A3517A
:101718000BEC22F00001A5056F6F8DC070F0A305DA
:101728000BEC22F00001A5296F6F8DC070F0A305A6
:101738000BEC22F00001A5056F6F8DC070F0A32996
:101748000BEC22F00001A5296F6F8DC070F0A32962
:101758000BEC22F00001914B922B9351A35DA45105
:10176800800A8F6F9451800A8F59D8A0BEEF0BF072
:10177800C0EF0BF006EF0BF0F1EF0CF09EBFC7EFD8
:101788000BF0C9EF0BF0D7EF0BF085C0A3F086C0C4
:10179800A4F087C0A5F088C0A6F08BC095F08CC0D7
:1017A80096F0E3EF0BF089C0A3F08AC0A4F08BC0D9
:1017B800A5F08CC0A6F087C095F088C096F0A5C0AB
:1017C8006FF08DC070F0A3510BEC22F0A5C06FF044
:1017D8008DC070F00001A3050BEC22F0A5C06FF0DE
:1017E8008DC070F00001A3290BEC22F00001A505C3
:1017F8006F6F8DC070F0A3510BEC22F00001A5298A
:101808006F6F8DC070F0A3510BEC22F00001A5059D
:101818006F6F8DC070F0A3050BEC22F00001A529B5
:101828006F6F8DC070F0A3050BEC22F00001A505C9
:101838006F6F8DC070F0A3290BEC22F00001A52971
:101848006F6F8DC070F0A3290BEC22F0000E000121
:10185800926F000E916FE2EF0CF0010EA525A56FB7
:10186800000EA621A66F9ABF44EF0CF09A5106E12C
:101878009905D8B042EF0CF044EF0CF053EF0CF0A0
:101888009FC08FF0A0C090F0D8908F3790379951B3
:101898008F25996F9A5190219A6F98EF0CF09CBF01
:1018A8005AEF0CF058EF0CF061EF0CF09EBF5FEFB1
:1018B8000CF061EF0CF07BEF0CF09CBF6CEF0CF0C0
:1018C8009C5108E19B05D8A06CEF0CF06EEF0CF072
:1018D80083EF0CF09EBF79EF0CF09E5108E19D0557
:1018E800D8A079EF0CF07BEF0CF083EF0CF0010E31
:1018F800A325A36F000EA421A46F89EF0CF0FF0E9F
:10190800A325A36FFF0EA421A46FA1519F5D8F6F24
:10191800A251A059906FD8908F37903799518F2541
:10192800996F9A5190219A6FA5C06FF08DC070F091
:10193800A3510BEC22F0A5C06FF08DC070F0000130
:10194800A3050BEC22F0A5C06FF08DC070F000016C
:10195800A3290BEC22F00001A5056F6F8DC070F074
:10196800A3510BEC22F00001A5296F6F8DC070F018
:10197800A3510BEC22F00001A5056F6F8DC070F02C
:10198800A3050BEC22F00001A5296F6F8DC070F044
:10199800A3050BEC22F00001A5056F6F8DC070F058
:1019A800A3290BEC22F00001A5296F6F8DC070F000
:1019B800A3290BEC22F00001914B922B9551A55DC8
:1019C800A651800A8F6F9651800A8F59D8A0EFEFE1
:1019D8000CF0F1EF0CF031EF0CF01200000168513F
:1019E800800B716F68516825736F67AFFEEF0CF05D
:1019F80000EF0DF001EF0DF073817351D8B407EFCC
:101A08000DF009EF0DF01EEF0DF07329D8A40FEFBC
:101A18000DF011EF0DF019EF0DF0000E656F000ECF
:101A2800666F000E676F000E686F678F000E686F35
:101A380026EF0DF0000E656F000E666F000E676FE3
:101A4800000E686F6C51800B726F71517219D8B4A7
:101A580030EF0DF032EF0DF033EF0DF0718D6C516A
:101A68006C25726F6BAF3BEF0DF03DEF0DF03EEF65
:101A78000DF072817251D8B444EF0DF046EF0DF0BD
:101A88005BEF0DF07229D8A44CEF0DF04EEF0DF07E
:101A980056EF0DF0000E696F000E6A6F000E6B6F47
:101AA800000E6C6F6B8F000E6C6F63EF0DF0000E05
:101AB800696F000E6A6F000E6B6F000E6C6F7351CA
:101AC800725DD8B06AEF0DF06CEF0DF093EF0DF08A
:101AD80071AD71EF0DF073EF0DF075EF0DF0800E35
:101AE800711B73C074F072C073F074C072F065C07B
:101AF80074F069C065F074C069F066C074F06AC0BB
:101B080066F074C06AF067C074F06BC067F074C0A8
:101B18006BF068C074F06CC068F074C06CF0000EB4
:101B2800746F735172C06DF06E6B6D5F000E6E5BFB
:101B38006EBFA8EF0DF06E5109E11A0E6D5DD8A0C9
:101B4800A8EF0DF0AAEF0DF0E1EF0DF06551661169
:101B580067116811D8A4B3EF0DF0B6EF0DF0010EC0
:101B6800B7EF0DF0000E746F000E656F000E666F14
:101B7800000E676F000E686F72C073F0EAEF0DF029
:101B880074A1C9EF0DF0CBEF0DF0D1EF0DF0D890A7
:101B980074310109746FD3EF0DF0D890743365A1D7
:101BA800D8EF0DF0DAEF0DF0DBEF0DF0748F68353C
:101BB8006833673366336533732B7251735DD8A00E
:101BC800E8EF0DF0EAEF0DF0C4EF0DF071BDEFEFA7
:101BD8000DF0F1EF0DF031EF0EF07351D8A4F7EFDF
:101BE8000DF0F9EF0DF003EF0EF0000E656F000E2B
:101BF800666F000E676F000E686F52EF0FF0695145
:101C080065276A5166236B5167236C51682368A165
:101C180010EF0EF012EF0EF0BEEF0EF074A117EFFA
:101C28000EF019EF0EF01FEF0EF0D8907431010985
:101C3800746F21EF0EF0D890743365A126EF0EF083
:101C480028EF0EF029EF0EF0748F6835683367338C
:101C580066336533732BBEEF0EF06951655D6A51CB
:101C680066596B5167596851800A6D6F6C51800ACB
:101C78006D59D8B042EF0EF044EF0EF06FEF0EF052
:101C88006551695D6D6F66516A596E6F67516B5921
:101C98006F6F68516C59706FFF0E6D25656FFF0E81
:101CA8006E21666FFF0E6F21676FFF0E7021686FE0
:101CB800800E711B746D7451D8A465EF0EF067EF38
:101CC8000EF077EF0EF0010E6527000E66236723EE
:101CD800682377EF0EF06951655F6A51665B6B5157
:101CE800675B6C51685B6551661167116811D8A410
:101CF80080EF0EF082EF0EF0B7EF0EF07451D8A41B
:101D080088EF0EF08AEF0EF0B7EF0EF0000E656F59
:101D1800000E666F000E676F000E686F52EF0FF0CF
:101D2800D890653766376737683774AF9EEF0EF01F
:101D3800A0EF0EF0A1EF0EF0658174A1A6EF0EF0F2
:101D4800A8EF0EF0ACEF0EF0D8807437AEEF0EF0BF
:101D5800D89074377351D8B4B4EF0EF0B6EF0EF0D4
:101D6800B7EF0EF0730767AFBCEF0EF0BEEF0EF0E3
:101D780094EF0EF0000E726F74AFC5EF0EF0C7EF60
:101D88000EF0DFEF0EF074C06DF07F0E6D17D8B453
:101D9800D0EF0EF0D2EF0EF0D6EF0EF0010E726F0C
:101DA800DFEF0EF065A1DBEF0EF0DDEF0EF0DFEFF9
:101DB8000EF0D2EF0EF07251D8B4E5EF0EF0E7EF67
:101DC8000EF012EF0FF0010E6527000E6623672351
:101DD800682368A1F2EF0EF0F4EF0EF012EF0FF0A7
:101DE80065C06DF066C06EF067C06FF068C070F0D7
:101DF800703570336F336E336D336DC065F06EC000
:101E080066F06FC067F070C068F07329D8B40FEF40
:101E18000FF011EF0FF012EF0FF0732B7329D8B4F6
:101E280018EF0FF01AEF0FF022EF0FF07351D8A44C
:101E380020EF0FF022EF0FF034EF0FF0000E656F78
:101E4800000E666F000E676F000E686F7351D8A49E
:101E580030EF0FF032EF0FF034EF0FF0000E716F2C
:101E680073A139EF0FF03BEF0FF03EEF0FF0678FE4
:101E78003FEF0FF0679FD8907331686F71AF47EFEE
:101E88000FF049EF0FF04AEF0FF0688F65C065F06B
:101E980066C066F067C067F068C068F01200055059
:101EA800800B0E6E05500524106E04AE5EEF0FF029
:101EB80060EF0FF061EF0FF010801050D8B467EFAB
:101EC8000FF069EF0FF07EEF0FF01028D8A46FEF36
:101ED8000FF071EF0FF079EF0FF0000E026E000EA9
:101EE800036E000E046E000E056E048E000E056E65
:101EF80086EF0FF0000E026E000E036E000E046EE9
:101F0800000E056E0950800B0F6E0E500F18D8B4D6
:101F180090EF0FF092EF0FF093EF0FF00E8C095047
:101F280009240F6E08AE9BEF0FF09DEF0FF09EEFA8
:101F38000FF00F800F50D8B4A4EF0FF0A6EF0FF0FA
:101F4800BBEF0FF00F28D8A4ACEF0FF0AEEF0FF0F7
:101F5800B6EF0FF0000E066E000E076E000E086E4C
:101F6800000E096E088E000E096EC3EF0FF0000E0A
:101F7800066E000E076E000E086E000E096E1050F9
:101F88000F5CD8B0CAEF0FF0CCEF0FF0F3EF0FF003
:101F98000EACD1EF0FF0D3EF0FF0D5EF0FF0800EAE
:101FA8000E1A10C011F00FC010F011C00FF002C0CF
:101FB80011F006C002F011C006F003C011F007C00E
:101FC80003F011C007F004C011F008C004F011C0FC
:101FD80008F005C011F009C005F011C009F0000EA5
:101FE800116E10500FC00AF00B6A0A5E000E0B5AF1
:101FF8000BBE08EF10F00B5009E11A0E0A5CD8A0CE
:1020080008EF10F00AEF10F041EF10F00250031043
:1020180004100510D8A413EF10F016EF10F0010EFD
:1020280017EF10F0000E116E000E026E000E036E18
:10203800000E046E000E056E0FC010F04AEF10F08F
:1020480011A029EF10F02BEF10F031EF10F0D8901D
:1020580011300109116E33EF10F0D890113202A03F
:1020680038EF10F03AEF10F03BEF10F0118E053416
:102078000532043203320232102A0F50105CD8A005
:1020880048EF10F04AEF10F024EF10F00EBC4FEFBD
:1020980010F051EF10F091EF10F01050D8A457EF56
:1020A80010F059EF10F063EF10F0000E026E000E02
:1020B800036E000E046E000E056EB2EF11F00650AE
:1020C800022607500322085004220950052205A0C1
:1020D80070EF10F072EF10F01EEF11F011A077EF13
:1020E80010F079EF10F07FEF10F0D890113001095F
:1020F800116E81EF10F0D890113202A086EF10F027
:1021080088EF10F089EF10F0118E05340532043293
:1021180003320232102A1EEF11F00650025C0750FB
:102128000358085004580550800A0A6E0950800A5E
:102138000A58D8B0A2EF10F0A4EF10F0CFEF10F0CB
:102148000250065C0A6E035007580B6E045008587C
:102158000C6E055009580D6EFF0E0A24026EFF0E14
:102168000B20036EFF0E0C20046EFF0E0D20056E73
:10217800800E0E1A116C1150D8A4C5EF10F0C7EFDD
:1021880010F0D7EF10F0010E0226000E03220422F1
:102198000522D7EF10F00650025E0750035A085088
:1021A800045A0950055A0250031004100510D8A407
:1021B800E0EF10F0E2EF10F017EF11F01150D8A493
:1021C800E8EF10F0EAEF10F017EF11F0000E026ED2
:1021D800000E036E000E046E000E056EB2EF11F0D5
:1021E800D890023603360436053611AEFEEF10F0ED
:1021F80000EF11F001EF11F0028011A006EF11F0CD
:1022080008EF11F00CEF11F0D88011360EEF11F035
:10221800D89011361050D8B414EF11F016EF11F011
:1022280017EF11F0100604AE1CEF11F01EEF11F0BD
:10223800F4EF10F0000E0F6E11AE25EF11F027EF3E
:1022480011F03FEF11F011C00AF07F0E0A16D8B452
:1022580030EF11F032EF11F036EF11F0010E0F6E82
:102268003FEF11F002A03BEF11F03DEF11F03FEF0F
:1022780011F032EF11F00F50D8B445EF11F047EFDD
:1022880011F072EF11F0010E0226000E0322042253
:10229800052205A052EF11F054EF11F072EF11F082
:1022A80002C00AF003C00BF004C00CF005C00DF02A
:1022B8000D340D320C320B320A320AC002F00BC058
:1022C80003F00CC004F00DC005F01028D8B46FEF6F
:1022D80011F071EF11F072EF11F0102A1028D8B434
:1022E80078EF11F07AEF11F082EF11F01050D8A4C6
:1022F80080EF11F082EF11F094EF11F0000E026EF2
:10230800000E036E000E046E000E056E1050D8A469
:1023180090EF11F092EF11F094EF11F0000E0E6EA5
:1023280010A099EF11F09BEF11F09EEF11F0048EC1
:102338009FEF11F0049ED8901030056E0EAEA7EFF7
:1023480011F0A9EF11F0AAEF11F0058E02C002F00A
:1023580003C003F004C004F005C005F0120000013A
:102368009951800BA26F99519925A86F98AFBFEF2B
:1023780011F0C1EF11F0C2EF11F0A881A851D8B443
:10238800C8EF11F0CAEF11F0DDEF11F0A829D8A4B9
:10239800D0EF11F0D2EF11F0DAEF11F0000E966FD6
:1023A800000E976F000E986F000E996F988FE5EFEB
:1023B80011F0000E966F000E976F000E986F000ECA
:1023C800996F9D51800BA21B9D519D25A76F9CAFB6
:1023D800F0EF11F0F2EF11F0F3EF11F0A781A75130
:1023E800D8B4F9EF11F0FBEF11F00EEF12F0A729B6
:1023F800D8A401EF12F003EF12F00BEF12F0000E69
:102408009A6F000E9B6F000E9C6F000E9D6F9C8F45
:1024180016EF12F0000E9A6F000E9B6F000E9C6F65
:10242800000E9D6FA751D8B41CEF12F01EEF12F0EA
:1024380026EF12F0A851D8A424EF12F026EF12F0DC
:1024480030EF12F0000E966F000E976F000E986F27
:10245800000E996FC8EF13F09C519603F3CFADF0BF
:10246800F4CFAEF0AD51A36FA46BA56BA66BAE51C4
:10247800A96FAA6BAB6BAC6B9B519703F3CFADF015
:10248800F4CFAEF0AD51A327000EA423A523A623B5
:10249800AE51A927000EAA23AB23AC239A51980367
:1024A800F3CFADF0F4CFAEF0AD51A327000EA423C7
:1024B800A523A623AE51A927000EAA23AB23AC233C
:1024C800A5C0A6F0A4C0A5F0A3C0A4F0A36B9A5120
:1024D8009703F3CFADF0F4CFAEF0AD51A327AE51D3
:1024E800A423000EA523000EA6239B519603F3CF29
:1024F800ADF0F4CFAEF0AD51A327AE51A423000E3A
:10250800A523000EA623A5C0A6F0A4C0A5F0A3C0CD
:10251800A4F0A36B9A519603F3CFADF0F4CFAEF0CD
:10252800AD51A327AE51A423000EA523000EA62368
:102538009C519703F3CFADF0F4CFAEF0AD51A9277E
:10254800AE51AA23000EAB23000EAC239B51980377
:10255800F3CFADF0F4CFAEF0AD51A927AE51AA2319
:10256800000EAB23000EAC239C519803F3CFADF0C3
:10257800F4CFAEF0AD519E6FAE519F6FA06BA16BC3
:10258800A0C0A1F09FC0A0F09EC09FF09E6B9E517E
:10259800A9279F51AA23A051AB23A151AC23A3C0C3
:1025A8009EF0A4C09FF0A5C0A0F0A6C0A1F0190E8F
:1025B800E3EF12F0D890A133A0339F339E33E82E77
:1025C800DEEF12F09E51A9279F51AA23A051AB23F9
:1025D800A151AC23A5C0A6F0A4C0A5F0A3C0A4F047
:1025E800A36BA751A8C09EF09F6B9E27000E9F2348
:1025F800820E9E25AD6FFF0E9F21AE6F19EF13F06F
:10260800D890A937AA37AB37AC37A6AF0EEF13F07F
:1026180010EF13F011EF13F0A981D890A337A43766
:10262800A537A637AD07D8A0AE07ABAF1EEF13F09E
:1026380020EF13F004EF13F0000EA76FA6AF27EFFB
:1026480013F029EF13F04DEF13F0FF0EA3159E6F53
:10265800FF0EA4159F6FFF0EA515A06F7F0EA61580
:10266800A16F9E519F11A011A111D8B43EEF13F094
:1026780040EF13F044EF13F0010EA76F4DEF13F086
:10268800A9A149EF13F04BEF13F04DEF13F040EF12
:1026980013F0A751D8B453EF13F055EF13F079EFB7
:1026A80013F0010EA927000EAA23AB23AC23ACA17B
:1026B80060EF13F062EF13F079EF13F0A9C09EF00A
:1026C800AAC09FF0ABC0A0F0ACC0A1F0A135A13367
:1026D800A0339F339E339EC0A9F09FC0AAF0A0C02C
:1026E800ABF0A1C0ACF0AD4BAE2BAEBF84EF13F096
:1026F800AE5108E1AD29D8A084EF13F086EF13F0AE
:1027080090EF13F0000EA96F000EAA6F800EAB6F4A
:102718007F0EAC6FBEEF13F0AEBF9DEF13F0AE515E
:1027280006E1AD05D8B09BEF13F09DEF13F0A9EFCC
:1027380013F0000EA96F000EAA6F000EAB6F000E0B
:10274800AC6F000EA26FBEEF13F0ADC0A8F0FF0E85
:10275800A917FF0EAA177F0EAB17000EAC17A8A17A
:10276800B8EF13F0BAEF13F0BBEF13F0AB8FD890BC
:10277800A831AC6FA251AC13A9C096F0AAC097F0CB
:10278800ABC098F0ACC099F012001350800B1C6ECF
:1027980013501324226E12AED4EF13F0D6EF13F0B9
:1027A800D7EF13F022802250D8B4DDEF13F0DFEF1B
:1027B80013F0F2EF13F02228D8A4E5EF13F0E7EFB7
:1027C80013F0EFEF13F0000E106E000E116E000EF6
:1027D800126E000E136E128EFAEF13F0000E106ECA
:1027E800000E116E000E126E000E136E1750800B45
:1027F8001C1A17501724216E16AE05EF14F007EFB8
:1028080014F008EF14F021802150D8B40EEF14F022
:1028180010EF14F023EF14F02128D8A416EF14F0C9
:1028280018EF14F020EF14F0000E146E000E156E61
:10283800000E166E000E176E168E2BEF14F0000E9B
:10284800146E000E156E000E166E000E176E2150D7
:10285800D8B431EF14F033EF14F03BEF14F02250FA
:10286800D8A439EF14F03BEF14F045EF14F0000E44
:10287800106E000E116E000E126E000E136EDDEF5C
:1028880015F016501002F3CF27F0F4CF28F0275098
:102898001D6E1E6A1F6A206A2850236E246A256AE4
:1028A800266A15501102F3CF27F0F4CF28F02750ED
:1028B8001D26000E1E221F22202228502326000E2D
:1028C80024222522262214501202F3CF27F0F4CF17
:1028D80028F027501D26000E1E221F2220222850D5
:1028E8002326000E2422252226221FC020F01EC0E7
:1028F8001FF01DC01EF01D6A14501102F3CF27F0FF
:10290800F4CF28F027501D2628501E22000E1F2223
:10291800000E202215501002F3CF27F0F4CF28F034
:1029280027501D2628501E22000E1F22000E20228E
:102938001FC020F01EC01FF01DC01EF01D6A1450DD
:102948001002F3CF27F0F4CF28F027501D26285087
:102958001E22000E1F22000E202216501102F3CF55
:1029680027F0F4CF28F02750232628502422000EE1
:102978002522000E262215501202F3CF27F0F4CF9D
:1029880028F02750232628502422000E2522000E46
:10299800262216501202F3CF27F0F4CF28F0275042
:1029A800186E2850196E1A6A1B6A1AC01BF019C0D3
:1029B8001AF018C019F0186A185023261950242242
:1029C8001A5025221B5026221DC018F01EC019F0CF
:1029D8001FC01AF020C01BF0190EF8EF14F0D890A1
:1029E8001B321A3219321832E82EF3EF14F018504D
:1029F8002326195024221A5025221B5026221FC094
:102A080020F01EC01FF01DC01EF01D6A215022C0FC
:102A180018F0196A1826000E1922820E1824276E3B
:102A2800FF0E1920286E2EEF15F0D8902336243685
:102A38002536263620AE23EF15F025EF15F026EFC4
:102A480015F02380D8901D361E361F3620362706EF
:102A5800D8A0280625AE33EF15F035EF15F019EF9D
:102A680015F0000E216E20AE3CEF15F03EEF15F08C
:102A780062EF15F0FF0E1D14186EFF0E1E14196E6E
:102A8800FF0E1F141A6E7F0E20141B6E185019109B
:102A98001A101B10D8B453EF15F055EF15F059EF75
:102AA80015F0010E216E62EF15F023A05EEF15F010
:102AB80060EF15F062EF15F055EF15F02150D8B41E
:102AC80068EF15F06AEF15F08EEF15F0010E23266A
:102AD800000E24222522262226A075EF15F077EF76
:102AE80015F08EEF15F023C018F024C019F025C09A
:102AF8001AF026C01BF01B341B321A321932183256
:102B080018C023F019C024F01AC025F01BC026F005
:102B1800274A282A28BE99EF15F0285008E12728C7
:102B2800D8A099EF15F09BEF15F0A5EF15F0000E62
:102B3800236E000E246E800E256E7F0E266ED3EF58
:102B480015F028BEB2EF15F0285006E12704D8B0DA
:102B5800B0EF15F0B2EF15F0BEEF15F0000E236ED2
:102B6800000E246E000E256E000E266E000E1C6EE2
:102B7800D3EF15F027C022F0FF0E2316FF0E241600
:102B88007F0E2516000E261622A0CDEF15F0CFEFEA
:102B980015F0D0EF15F0258ED8902230266E1C50F7
:102BA800261223C010F024C011F025C012F026C050
:102BB80013F0120000018051800B8D6F8051802529
:102BC800946F7FAFEAEF15F0ECEF15F0EDEF15F02D
:102BD80094819451D8B4F3EF15F0F5EF15F00AEF9E
:102BE80016F09429D8A4FBEF15F0FDEF15F005EFCA
:102BF80016F0000E7D6F000E7E6F000E7F6F000EC8
:102C0800806F7F8F000E806F12EF16F0000E7D6FC1
:102C1800000E7E6F000E7F6F000E806F8451800B58
:102C28008D1B84518425956F83AF1DEF16F01FEF20
:102C380016F020EF16F095819551D8B426EF16F0CE
:102C480028EF16F03DEF16F09529D8A42EEF16F0D0
:102C580030EF16F038EF16F0000E816F000E826F1D
:102C6800000E836F000E846F838F000E846F45EF14
:102C780016F0000E816F000E826F000E836F000E3B
:102C8800846F8151821183118411D8A44EEF16F0FC
:102C980050EF16F068EF16F0000E7D6F000E7E6F95
:102CA800000E7F6F000E806F800E7F137F0E8013E3
:102CB8008D5180137DC07DF07EC07EF07FC07FF097
:102CC80080C080F0ABEF17F09451D8A46EEF16F0E7
:102CD80070EF16F07AEF16F0000E7D6F000E7E6F23
:102CE800000E7F6F000E806FABEF17F0955194C008
:102CF80085F0866B855F000E865B7F0E85258E6F5F
:102D0800000E86218F6F7DC089F07EC08AF07FC05B
:102D18008BF080C08CF0000E7D6F000E7E6F000E71
:102D28007F6F000E806F000E906F000E916F000E87
:102D3800926F000E936F000E956FDBEF16F09551B2
:102D4800D8B4A9EF16F0ABEF16F0C2EF16F0D89092
:102D580089378A378B378C37D8907D377E377F37DE
:102D6800803793AFBAEF16F0BCEF16F0BDEF16F050
:102D78007D81D89090379137923793378151895D0B
:102D880082518A5983518B5984518C59D8A0CFEFDD
:102D980016F0D1EF16F0DAEF16F0938D8151895FB6
:102DA80082518A5B83518B5B84518C5B952B190E06
:102DB8009565E1EF16F0E3EF16F0A3EF16F08951F1
:102DC8008A118B118C11D8B4ECEF16F0EEEF16F0D7
:102DD80006EF17F0908106EF17F0D8907D377E3711
:102DE8007F37803793AFFBEF16F0FDEF16F0FEEF5D
:102DF80016F07D81D89090379137923793378E07A8
:102E0800D8A08F077FAF0BEF17F00DEF17F0F1EF9A
:102E180016F0000E956F93AF14EF17F016EF17F03A
:102E28003AEF17F0FF0E9015856FFF0E9115866F1C
:102E3800FF0E9215876F7F0E9315886F8551861147
:102E480087118811D8B42BEF17F02DEF17F031EF59
:102E580017F0010E956F3AEF17F07DA136EF17F0D6
:102E680038EF17F03AEF17F02DEF17F09551D8B467
:102E780040EF17F042EF17F066EF17F0010E7D27CD
:102E8800000E7E237F23802380A14DEF17F04FEFA4
:102E980017F066EF17F07DC085F07EC086F07FC022
:102EA80087F080C088F08835883387338633853348
:102EB80085C07DF086C07EF087C07FF088C080F036
:102EC8008E4B8F2B8FBF71EF17F08F5108E18E2932
:102ED800D8A071EF17F073EF17F07EEF17F0000E20
:102EE8008F6F8E69000E7D6F000E7E6F000E7F6FF4
:102EF800000E806F8FBF8BEF17F08F5106E18E05A4
:102F0800D8B089EF17F08BEF17F099EF17F0000E94
:102F18008F6F000E8E6F000E7D6F000E7E6F000E9D
:102F28007F6F000E806F000E8D6F8EC094F094A19D
:102F3800A0EF17F0A2EF17F0A5EF17F07F8FA6EF1D
:102F480017F07F9FD8909431806F5CEF16F01200D5
:102F58000600F2A0B2EF17F0B4EF17F070EF19F017
:102F6800410E016EEE0EE82EFED7012EFCD700D0E2
:102F7800F29081ACC2EF17F0C4EF17F0C6EF18F06B
:102F880038503910D8A4CBEF17F0CDEF17F0C0EFB9
:102F980018F00001F805F911D8A4D5EF17F0D7EF0C
:102FA80017F0EAEF17F0DE51DF11D8A4DEEF17F0C3
:102FB800E0EF17F0EAEF17F0384A392A000EDF6F12
:102FC800010EDE6F70EF19F070EF19F0F805F911C6
:102FD800D8A4F1EF17F0F3EF17F004EF18F0DE05BF
:102FE800DF11D8A4FAEF17F0FCEF17F004EF18F090
:102FF800384A392A000EDF6F000EDE6F70EF19F0C5
:10300800DA05DB11D8A40BEF18F00DEF18F02FEF4D
:1030180018F0DC51DD11D8A414EF18F016EF18F0F1
:103028002FEF18F0D451D511D8A41DEF18F01FEFC9
:1030380018F02FEF18F0384A392A000ED36F010E16
:10304800D26F000EDD6F010EDC6F000ED56F000E23
:10305800D46F70EF19F0DA05DB11D8A436EF18F049
:1030680038EF18F05AEF18F0DC05DD11D8A43FEF5F
:1030780018F041EF18F05AEF18F0D405D511D8A47C
:1030880048EF18F04AEF18F05AEF18F0384A392A82
:10309800000ED36F010ED26F000ED56F000ED46FE5
:1030A800000EDD6F000EDC6F70EF19F0DA05DB1132
:1030B800D8A461EF18F063EF18F089EF18F0DC0579
:1030C800DD11D8A46AEF18F06CEF18F089EF18F04A
:1030D800D451D511D8A473EF18F075EF18F089EF13
:1030E80018F0384A392ACEC0E0F0CFC0E1F0000E1F
:1030F800D36F010ED26F000E576E010E566E000E82
:10310800D56F010ED46F70EF19F0D805D911D8A476
:1031180090EF18F092EF18F0A4EF18F00101DF0516
:10312800E011D8A49AEF18F09CEF18F0A4EF18F06B
:10313800384A392A000EE06F000EDF6F70EF19F081
:103148000001D805D911D8A4ACEF18F0AEEF18F0EB
:10315800E8EF17F00101DF51E011D8A4B6EF18F03D
:10316800B8EF18F0E8EF17F0384A392A000EE06F88
:10317800010EDF6F70EF19F0000E396E000E386E19
:1031880070EF19F081AECBEF18F0CDEF18F070EFBB
:1031980019F036503710D8A4D4EF18F0D6EF18F03D
:1031A8006CEF19F00001F805F911D8A4DEEF18F05A
:1031B800E0EF18F022EF19F0DE51DF11D8A4E7EFA5
:1031C80018F0E9EF18F009EF19F0364A372A000E1F
:1031D800D96F000ED86F000EF96F000EF86F000E51
:1031E800DB6F010EDA6F000E576E010E566E000E81
:1031F800DD6F000EDC6F000E576E010E566E000E6E
:10320800D36F010ED26F70EF19F0DE05DF11D8A46D
:1032180010EF19F012EF19F0E8EF17F0364A372AD5
:10322800000EF96F000EF86F000EDB6F000EDA6FFC
:10323800000ED96F010ED86FFFEF18F0DA05DB1119
:10324800D8A429EF19F02BEF19F04BEF19F0364AF3
:10325800372A000EF96F010EF86F000EDB6F000EB3
:10326800DA6F000E576E010E566E000ED96F000E03
:10327800D86F000ED56F000ED46F000E596E010E78
:10328800586E000ED36F010ED26F54EF18F0D805A8
:10329800D911D8A452EF19F054EF19F0E8EF17F04C
:1032A800364A372A000EF96F010EF86F000EDB6FF1
:1032B800000EDA6F000ED96F000ED86F000E576E31
:1032C800010E566E000E596E010E586E03EF19F07E
:1032D800000E376E000E366E5A92110029C002F0A9
:1032E8002AC003F0000E03BEFF0E046E056E010E29
:1032F80092EC1CF002C010F003C011F004C012F0F0
:1033080005C013F0A10E146EDE0E156EA70E166E14
:103318003C0E176EC9EC13F010C02BF011C02CF046
:1033280012C02DF013C02EF02BC002F02CC003F0F9
:103338002DC004F02EC005F088EC21F002C046F044
:1033480003C047F02BC012F02CC013F02DC014F0AE
:103358002EC015F046C002F047C003F0000E03BEB1
:10336800FF0E046E056E010E92EC1CF002C016F002
:1033780003C017F004C018F005C019F0F4EC26F0EB
:1033880012C02BF013C02CF014C02DF015C02EF075
:103398002BC010F02CC011F02DC012F02EC013F06D
:1033A800000E146E000E156E200E166E410E176E6E
:1033B800C9EC13F010C02BF011C02CF012C02DF086
:1033C80013C02EF02BC002F02CC003F02DC004F067
:1033D8002EC005F088EC21F002C048F003C049F087
:1033E8002BC012F02CC013F02DC014F02EC015F015
:1033F80048C002F049C003F0000E03BEFF0E046E81
:10340800056E010E92EC1CF002C016F003C017F016
:1034180004C018F005C019F0F4EC26F012C02BF027
:1034280013C02CF014C02DF015C02EF02BC010F0D6
:103438002CC011F02DC012F02EC013F0000E146E27
:10344800000E156E200E166E410E176EC9EC13F0A5
:1034580010C02BF011C02CF012C02DF013C02EF0AC
:103468002BC002F02CC003F02DC004F02EC005F0D4
:1034780088EC21F002C04AF003C04BF02BC012F0D8
:103488002CC013F02DC014F02EC015F04AC002F065
:103498004BC003F0000E03BEFF0E046E056E010E56
:1034A80092EC1CF002C016F003C017F004C018F02C
:1034B80005C019F0F4EC26F012C02BF013C02CF064
:1034C80014C02DF015C02EF02BC010F02CC011F038
:1034D8002DC012F02EC013F0000E146E000E156EE3
:1034E800200E166E410E176EC9EC13F010C02BF0AB
:1034F80011C02CF012C02DF013C02EF02BC002F01A
:103508002CC003F02DC004F02EC005F088EC21F08B
:1035180002C04CF003C04DF04CC002F04DC003F0A7
:1035280024EC1EF002C042F003C043F04AC002F08F
:103538004BC003F024EC1EF002C040F003C041F081
:1035480048C002F049C003F024EC1EF002C03EF06F
:1035580003C03FF046C002F047C003F024EC1EF061
:10356800800E02243C6E000E03203D6E12005804AB
:103578005910D8A4C2EF1AF0C4EF1AF046EF1BF0A6
:1035880021EE10F010EE85F00F0EDBCFE3FFE8061A
:10359800FCE221EE20F010EEA5F00E0EDBCFE3FFEB
:1035A800E806FCE221EE00F010EE95F00F0EDBCFFE
:1035B800E3FFE806FCE2EEC0B4F0EFC0B5F0ECC003
:1035C800B6F0EDC0B7F0000E00016F6F020EFFEC11
:1035D80025F0850E0001786F000E796F010E7A6F65
:1035E800010E7B6FA1EC26F0020E00016F6F020E38
:1035F800FFEC25F0A50E0001786F000E796F010E23
:103608007A6F010E7B6FA1EC26F0030E00016F6F3D
:10361800020EFFEC25F0950E0001786F000E796F11
:10362800010E7A6F010E7B6FA1EC26F0030E0001EC
:103638006F6F020EFFEC25F0050E00016F6F2A0E6A
:10364800FFEC25F0B40E0001786F000E796F010EC3
:103658007A6F010E7B6FA1EC26F0050E00016F6FEB
:10366800520EFFEC25F0B60E0001786F000E796F50
:10367800010E7A6F010E7B6FA1EC26F0000E596ED9
:10368800000E586E0001DE51DF11D8A44EEF1BF07A
:1036980050EF1BF07FEF1BF0000E776F520E766F26
:1036A800000E796F340E786F000E7B6F5A0E7A6FAA
:1036B800000E7D6F340E7C6F000E7F6F000E7E6FE4
:1036C80011EC24F0000E0001776F2A0E766F000EC1
:1036D800796F340E786F000E7B6F320E7A6F000EA2
:1036E8007D6F340E7C6F000E7F6F010E7E6F11ECC4
:1036F80024F0B5EF1BF0DE05DF11D8A486EF1BF030
:1037080088EF1BF0B5EF1BF0000E776F520E766F47
:10371800000E796F340E786F000E7B6F5A0E7A6F39
:10372800000E7D6F340E7C6F000E7F6F010E7E6F72
:1037380011EC24F0000E0001776F2A0E766F000E50
:10374800796F340E786F000E7B6F320E7A6F000E31
:103758007D6F340E7C6F000E7F6F000E7E6F11EC54
:1037680024F012000001776F00017751D8B4BFEF41
:103778001BF0C1EF1BF0E3EF1BF072BFC8EF1BF0AB
:10378800C6EF1BF0E3EF1BF06FC073F070C074F06E
:1037980071C075F072C076F0731F741F751F761FA5
:1037A800732B000E74237523762373C079F074C0CD
:1037B8007AF075C07BF076C07CF0EBEF1BF06FC041
:1037C80079F070C07AF071C07BF072C07CF06F51F4
:1037D800701171117211D8A4F4EF1BF0F6EF1BF001
:1037E80000EF1CF0000E6F6F000E706F000E716F0F
:1037F800000E726F91EF1CF0960E786F0AEF1CF0B6
:10380800782BD8907C337B337A337933000E791553
:10381800736F000E7A15746F000E7B15756FFE0EB0
:103828007C15766F7351741175117611D8A41FEF3A
:103838001CF021EF1CF004EF1CF02FEF1CF0782B8C
:10384800010E7927000E7A237B237C23D8907C33C2
:103858007B337A337933000E7915736F000E7A153E
:10386800746F000E7B15756FFF0E7C15766F7351A4
:10387800741175117611D8A444EF1CF046EF1CF0B2
:1038880023EF1CF04EEF1CF07807D89079377A3781
:103898007B377C377BBF53EF1CF055EF1CF05DEF97
:1038A8001CF0020E78615BEF1CF05DEF1CF048EF36
:1038B8001CF078B162EF1CF064EF1CF065EF1CF0AF
:1038C8007B9FD890783378C073F0746B756B766B88
:1038D80073C076F0756B746B736B73517913745195
:1038E8007A1375517B1376517C137751D8B47FEFD7
:1038F8001CF081EF1CF089EF1CF072BF88EF1CF000
:1039080086EF1CF089EF1CF07C8F79C06FF07AC0CD
:1039180070F07BC071F07CC072F012000A6E0A5021
:10392800D8B499EF1CF09BEF1CF0BDEF1CF005BE5E
:10393800A2EF1CF0A0EF1CF0BDEF1CF002C006F0D7
:1039480003C007F004C008F005C009F0061E071EF2
:10395800081E091E062A000E07220822092206C090
:103968000CF007C00DF008C00EF009C00FF0C5EF4D
:103978001CF002C00CF003C00DF004C00EF005C02E
:103988000FF00250031004100510D8A4CEEF1CF05D
:10399800D0EF1CF0DAEF1CF0000E026E000E036E82
:1039A800000E046E000E056E6BEF1DF0960E0B6E8A
:1039B800E4EF1CF00B2AD8900F320E320D320C3285
:1039C800000E0C14066E000E0D14076E000E0E1479
:1039D800086EFE0E0F14096E065007100810091025
:1039E800D8A4F9EF1CF0FBEF1CF0DEEF1CF009EF98
:1039F8001DF00B2A010E0C26000E0D220E220F229E
:103A0800D8900F320E320D320C32000E0C14066EA6
:103A1800000E0D14076E000E0E14086EFF0E0F1424
:103A2800096E0650071008100910D8A41EEF1DF0E3
:103A380020EF1DF0FDEF1CF028EF1DF00B06D890CD
:103A48000C360D360E360F360EBE2DEF1DF02FEF4D
:103A58001DF037EF1DF0020E0B6035EF1DF037EF4C
:103A68001DF022EF1DF00BB03CEF1DF03EEF1DF0F6
:103A78003FEF1DF00E9ED8900B320BC006F0076A80
:103A8800086A096A06C009F0086A076A066A0650E1
:103A98000C1207500D1208500E1209500F120A503E
:103AA800D8B459EF1DF05BEF1DF063EF1DF005BEB4
:103AB80062EF1DF060EF1DF063EF1DF00F8E0CC07C
:103AC80002F00DC003F00EC004F00FC005F01200A4
:103AD80052EC27F041EC25F0010EE8EC22F0FAEC6C
:103AE80024F0150E0001BF6F4B0EBE6FBE0EE82E00
:103AF800FED7BE2FFCD7BF2FFAD700F04BEC23F030
:103B0800C6EC1EF089EC27F0F6C06FF0F7C070F035
:103B18000001000E70BFFF0E716F726F010EB6ECE0
:103B28001BF06FC0C0F070C0C1F071C0C2F072C0AD
:103B3800C3F0C0C0AFF0C1C0B0F0C2C0B1F0C3C0E4
:103B4800B2F0F2C0B3F0F3C0B4F0F4C0B5F0F5C011
:103B5800B6F07EEC22F0C2820001D205D311D8A4BF
:103B6800B8EF1DF0BAEF1DF0C1EF1DF0000ED36FD6
:103B7800000ED26F000EB2EC24F00001F805F91126
:103B8800D8A4C9EF1DF0CBEF1DF0D7EF1DF0000E44
:103B9800DB6F000EDA6F000ED96F000ED86FBBEC2A
:103BA8001AF01EEF1EF0DA05DB11D8A4DEEF1DF0C7
:103BB800E0EF1DF00BEF1EF0000EF96F000EF86F2E
:103BC800000ED96F000ED86FC20EBE6FFF0EBF6F0A
:103BD800D0C065F0D1C066F0000E686F040E676F44
:103BE800AEEC23F00001BE516527BF516623651F67
:103BF800661F654B662B65C0CEF066C0CFF0CEC0A1
:103C0800A7F0CFC0A8F0C5EC06F01EEF1EF0D8054F
:103C1800D911D8A412EF1EF014EF1EF01EEF1EF0FB
:103C2800000EF96F000EF86F000EDB6F000EDA6FF2
:103C380037EC00F06CEC26F0AFEF1DF035EF00F03C
:103C480002500310D8A42BEF1EF02DEF1EF033EF17
:103C58001EF0000E036E3F0E026EC5EF1EF002044A
:103C68000310D8A43AEF1EF03CEF1EF042EF1EF00E
:103C7800000E036E060E026EC5EF1EF0020E02184D
:103C88000310D8A44AEF1EF04CEF1EF052EF1EF0BE
:103C9800000E036E5B0E026EC5EF1EF0030E0218D7
:103CA8000310D8A45AEF1EF05CEF1EF062EF1EF06E
:103CB800000E036E4F0E026EC5EF1EF0040E0218C2
:103CC8000310D8A46AEF1EF06CEF1EF072EF1EF01E
:103CD800000E036E660E026EC5EF1EF0050E02188A
:103CE8000310D8A47AEF1EF07CEF1EF082EF1EF0CE
:103CF800000E036E6D0E026EC5EF1EF0060E021862
:103D08000310D8A48AEF1EF08CEF1EF092EF1EF07D
:103D1800000E036E7D0E026EC5EF1EF0070E021830
:103D28000310D8A49AEF1EF09CEF1EF0A2EF1EF02D
:103D3800000E036E070E026EC5EF1EF0080E021885
:103D48000310D8A4AAEF1EF0ACEF1EF0B2EF1EF0DD
:103D5800000E036E7F0E026EC5EF1EF0090E0218EC
:103D68000310D8A4BAEF1EF0BCEF1EF0C2EF1EF08D
:103D7800000E036E6F0E026EC5EF1EF0000E036E8E
:103D88000268120053C091F054C092F055C093F0ED
:103D980020EE4EF010EE8CF0040EDBCFE3FFE806C9
:103DA800FCE2F0C094F0F1C095F021EE39F010EE8D
:103DB8007EF0070EDBCFE3FFE806FCE221EE63F0BE
:103DC80010EE86F0050EDBCFE3FFE806FCE2000EFE
:103DD80000016F6F340EFFEC25F0910E0001786F33
:103DE800000E796F010E7A6F010E7B6FA1EC26F041
:103DF800020E00016F6F2D0EFFEC25F08C0E0001F6
:103E0800786F000E796F010E7A6F010E7B6FA1EC4F
:103E180026F0030E00016F6F360EFFEC25F0940EAE
:103E28000001786F000E796F010E7A6F010E7B6FBB
:103E3800A1EC26F0040E00016F6F230EFFEC25F0B5
:103E48007E0E0001786F000E796F010E7A6F010EF9
:103E58007B6FA1EC26F0050E00016F6F360EFFECAC
:103E680025F0940E0001786F000E796F010E7A6FBD
:103E7800010E7B6FA1EC26F0060E00016F6F290E74
:103E8800FFEC25F0860E0001786F000E796F010EA9
:103E98007A6F010E7B6FA1EC26F0150E00017D6F85
:103EA8004B0E7C6FBE0EE82EFED77C2FFCD77D2FE5
:103EB800FAD700F0000EB2EC24F000D01200000196
:103EC800726F000E0001776F0A0E7219D8A46FEF97
:103ED8001FF071EF1FF076EF1FF0000EE36FE22B7B
:103EE800EFEF1FF03F0EE3657CEF1FF07EEF1FF052
:103EF80085EF1FF0010E776FE351C00F756F87EFE5
:103F08001FF0E3C075F07251080DF3CF73F0F4CFD2
:103F180074F0000E766F3F0E756595EF1FF097EF02
:103F28001FF0AAEF1FF0400E755F010E776F8A949D
:103F3800755140096D6F010E35EC27F00001E25113
:103F4800B8096D6F010E35EC27F08A8400016F51B6
:103F5800D8B4B1EF1FF0B3EF1FF0CBEF1FF03B0E5B
:103F6800706F730E716F76517027000E7123735145
:103F780070277451712370C0F6FF71C0F7FF0800F5
:103F8800F5CF6DF0775135EC27F0E2EF1FF03B0EDF
:103F9800706F730E716F76517027000E7123735115
:103FA80070277451712370C0F6FF71C0F7FF0800C5
:103FB800F550FF0A6D6F775135EC27F00001752B2E
:103FC800762B070E7665EBEF1FF0EDEF1FF08FEF06
:103FD8001FF0080EE32712000001736F000E0001A6
:103FE800756F0A0E7319D8A4FCEF1FF0FEEF1FF0CF
:103FF80003EF20F0000EE36FE22B7CEF20F03F0E82
:10400800E36509EF20F00BEF20F012EF20F0010E2E
:10401800756FE351C00F726F14EF20F0E3C072F0B8
:10402800200E735F000E746F3F0E72651EEF20F056
:1040380020EF20F033EF20F0400E725F010E756F15
:104048008A94725140096D6F010E35EC27F000011A
:10405800E251B8096D6F010E35EC27F08A84000132
:104068006F51D8B43AEF20F03CEF20F056EF20F033
:104078007351030D3B0E706F7F0E716FF3507027F5
:10408800F450712374517027000E712370C0F6FF2D
:1040980071C0F7FF0800F5CF6DF0755135EC27F0CA
:1040A8006FEF20F07351030D3B0E706F7F0E716F31
:1040B800F3507027F450712374517027000E712348
:1040C80070C0F6FF71C0F7FF0800F550FF0A6D6F6A
:1040D800755135EC27F00001722B742B020E7465B4
:1040E80078EF20F07AEF20F018EF20F0050EE327A4
:1040F8001200000E00017A6F78BF87EF20F085EF7D
:1041080020F091EF20F0781F771F761F756D000E55
:10411800762377237823010E7A6F74BF98EF20F007
:1041280096EF20F0A2EF20F0741F731F721F716DBD
:10413800000E722373237423010E7A1B000E7B6F0B
:10414800000E7C6F000E7D6F000E7E6F755176112C
:1041580077117811D8B4B3EF20F0B5EF20F0EBEF7A
:1041680020F0010E796FBFEF20F0D89075377637C1
:1041780077377837792B78AFC4EF20F0C6EF20F087
:10418800B9EF20F0D8907B377C377D377E37755173
:10419800715D765172597751735978517459D8A015
:1041A800D8EF20F0DAEF20F0E3EF20F07551715FDF
:1041B8007651725B7751735B7851745B7B81D890D1
:1041C8007833773376337533792FC6EF20F07A5109
:1041D800D8B4F1EF20F0F3EF20F0FBEF20F07E1FD2
:1041E8007D1F7C1F7B6D000E7C237D237E237BC07F
:1041F80071F07CC072F07DC073F07EC074F0120064
:104208000001673568356E6F6E51D8A40EEF21F046
:1042180010EF21F01AEF21F0000E656F000E666FA7
:10422800000E676F000E686F87EF21F065C069F0B8
:1042380066C06AF067C06BF068C06CF0200E2AEFA9
:1042480021F0D8906C336B336A336933E82E25EF4D
:1042580021F069516D6F678FFF0E6517FF0E6617A6
:10426800FF0E6717000E6817960E6E5F6EBF41EF60
:1042780021F03FEF21F057EF21F06E51800A970FA0
:10428800D8B049EF21F04BEF21F04DEF21F010EFBE
:1042980021F0D89068336733663365336E3F4DEF4E
:1042A80021F06FEF21F01F0E6E655DEF21F05FEFDB
:1042B80021F067EF21F010EF21F0D89065376637CD
:1042C800673768376E076E51D8A46DEF21F06FEF2E
:1042D80021F061EF21F06D51D8B475EF21F077EF3F
:1042E80021F07FEF21F0681F671F661F656D000EC4
:1042F80066236723682365C065F066C066F067C0FB
:1043080067F068C068F01200043405340B6E0B5077
:10431800D8A491EF21F093EF21F09DEF21F0000E4A
:10432800026E000E036E000E046E000E056E0AEF9C
:1043380022F002C006F003C007F004C008F005C070
:1043480009F0200EADEF21F0D8900932083207327B
:104358000632E82EA8EF21F006500A6E048EFF0EF2
:104368000216FF0E0316FF0E0416000E0516960E13
:104378000B5E0BBEC4EF21F0C2EF21F0DAEF21F0A3
:104388000B50800A970FD8B0CCEF21F0CEEF21F078
:10439800D0EF21F093EF21F0D890053204320332A8
:1043A80002320B3ED0EF21F0F2EF21F01F0E0B642A
:1043B800E0EF21F0E2EF21F0EAEF21F093EF21F0B6
:1043C800D89002360336043605360B060B50D8A4AF
:1043D800F0EF21F0F2EF21F0E4EF21F00A50D8B429
:1043E800F8EF21F0FAEF21F002EF22F0051E041E8B
:1043F800031E026C000E03220422052202C002F0F2
:1044080003C003F004C004F005C005F01200000169
:10441800736F000E0001756F3F0E736516EF22F083
:1044280018EF22F01CEF22F0400E735F010E756F3B
:104438008A94739F738D73C06DF0755135EC27F0B6
:104448006FC065F00001666B000E686F080E676F3D
:10445800AEEC23F000016551BF0BB8096D6F7551C3
:1044680035EC27F08A840001755117EC27F000011C
:10447800755117EC27F00001746F8A9473C06DF0C2
:10448800755135EC27F000017051D8B44EEF22F089
:1044980050EF22F064EF22F06FC071F0070E711731
:1044A800010E726F712B5BEF22F0D8907237712F6B
:1044B80059EF22F0000172517411746F77EF22F0F6
:1044C8006FC071F0070E7117010E726F712B6FEFCD
:1044D80022F0D8907237712F6DEF22F000017251DF
:1044E800FF0A7415746F8A8474C06DF0755135ECC9
:1044F80027F012000001B3514808716FE80EB45557
:10450800726F010EB555736F000EB655746FB3C058
:1045180075F0B4C076F0B5C077F0B6C078F07DEC31
:1045280020F000017151CB6ECB50B76FB86B010E04
:10453800B727000EB823B7C06FF0B8C070F0000EF0
:1045480070BFFF0E716F726F010EB6EC1BF06FC07B
:1045580096F070C097F071C098F072C099F0000E94
:104568000001816F000E826FC80E836F420E846F48
:10457800AFC07DF0B0C07EF0B1C07FF0B2C080F0B7
:10458800DEEC15F07DC09AF07EC09BF07FC09CF0F9
:1045980080C09DF0B3EC11F096C0B9F097C0BAF0A6
:1045A80098C0BBF099C0BCF0B9C065F0BAC066F05D
:1045B800BBC067F0BCC068F004EC21F00001655195
:1045C800BB6EBA9ABA9812000001736F000E836E20
:1045D8008A9A270E0001726FF50EE82EFED7722F09
:1045E800FCD78A8A8A988A908A928A94270E000130
:1045F800726FF50EE82EFED7722FFCD7C00E0001A1
:104608006D6F000E35EC27F0C00E00016D6F010EC6
:1046180035EC27F0400E00016D6F000E35EC27F0E9
:10462800400E00016D6F010E35EC27F0B80E000149
:104638006D6F000E35EC27F0B80E00016D6F010E9E
:1046480035EC27F000017305D8A42DEF23F02FEFE8
:1046580023F03CEF23F03F0E6D6F000E35EC27F092
:104668003F0E00016D6F010E35EC27F047EF23F088
:104678003E0E6D6F000E35EC27F03E0E00016D6F9B
:10468800010E35EC27F0000EB2EC24F0120021EEFA
:1046980056F010EE88F0060EDBCFE3FFE806FCE2EA
:1046A80021EE69F010EE8FF0050EDBCFE3FFE80690
:1046B800FCE221EE2FF010EE7EF0090EDBCFE3FFD7
:1046C800E806FCE2000EB2EC24F0020E00016F6F67
:1046D800120EFFEC25F0880E0001786F000E796F3E
:1046E800010E7A6F010E7B6FA1EC26F0020E00011D
:1046F8006F6F4E0EFFEC25F08F0E0001786F000EE5
:10470800796F010E7A6F010E7B6FA1EC26F0050E12
:1047180000016F6F1A0EFFEC25F07E0E0001786F16
:10472800000E796F010E7A6F010E7B6FA1EC26F0F7
:10473800150E00017D6F4B0E7C6FBE0EE82EFED766
:104748007C2FFCD77D2FFAD700F0000EB2EC24F0B6
:1047580000D01200000E00016A6F68BFB8EF23F0A6
:10476800B6EF23F0BEEF23F0676D681FD8B0682B53
:10477800010E6A6F66BFC5EF23F0C3EF23F0CBEFDE
:1047880023F0656D661FD8B0662B010E6A1B000EFC
:104798006C6F000E6B6F67516811D8B4D6EF23F0B9
:1047A800D8EF23F000EF24F0010E696FE0EF23F05B
:1047B800D89067376837692B68AFE5EF23F0E7EFE4
:1047C80023F0DCEF23F0D8906B376C376751655DC9
:1047D80068516659D8A0F3EF23F0F5EF23F0FAEF0C
:1047E80023F06751655F6851665B6B81D8906833C9
:1047F8006733692FE7EF23F06A51D8B406EF24F046
:1048080008EF24F00CEF24F06B6D6C1FD8B06C2B04
:104818006BC065F06CC066F0120000017A51761921
:1048280007E17B517719D8A41CEF24F01EEF24F080
:104838003DEF24F078C081F079C082F02EEF24F0AB
:1048480081C06FF07EC070F076510BEC22F0000151
:10485800814B822B7C51815D8251800A806F7D5112
:10486800800A8059D8A03BEF24F03DEF24F024EFD4
:1048780024F07C51781907E17D517919D8A447EFC4
:1048880024F049EF24F068EF24F076C083F077C075
:1048980084F059EF24F078C06FF07EC070F0835137
:1048A8000BEC22F00001834B842B7A51835D8451F9
:1048B800800A806F7B51800A8059D8A066EF24F067
:1048C80068EF24F04FEF24F01200860EF66E4B0EC0
:1048D800F76E000EF86E01EE00F010EE78F00900A9
:1048E800F5CFEEFFE550E150FAE1280EF66E4F0ED7
:1048F800F76E000EF86E00EEE4F010EE0EF0090010
:10490800F5CFEEFFE550E150FAE1360EF66E4F0EA8
:10491800F76E000EF86E00EE4EF010EE08F009008B
:10492800F5CFEEFFE550E150FAE101EECFF0140EBD
:10493800EE6AE806FDE100EEC4F0200EEE6AE80635
:10494800FDE100EE2FF01F0EEE6AE806FDE15A9039
:104958005A92000EF86E00016CEF1DF000016F6FA7
:10496800000E0001716F8A94400E6D6F000E35ECD9
:1049780027F0400E00016D6F010E35EC27F00001A5
:104988007151B8096D6F000E35EC27F000017151B7
:10499800B8096D6F010E35EC27F08A84000E00010E
:1049A800706F6F51010DF35000086D6F000E35ECFC
:1049B80027F000016F51010DF35000086D6F010ED3
:1049C80035EC27F00001702B3F0E7065EEEF24F0F8
:1049D800F0EF24F0D5EF24F0712B070E7165F7EF97
:1049E80024F0F9EF24F0B7EF24F01200000E0001D4
:1049F800706F000E6F6F000E726F000E736F8A94E7
:104A0800400E6D6F735135EC27F000017251B809F3
:104A18006D6F735135EC27F08A84000E0001716FB9
:104A28003B0E6F25F66E7B0E7021F76E0800F5CFF2
:104A38006DF0735135EC27F000016F4B702B712B23
:104A48003F0E71652AEF25F02CEF25F014EF25F0C5
:104A5800732B010E736533EF25F035EF25F003EF67
:104A680025F0722B070E72653CEF25F03EEF25F01E
:104A780001EF25F08A908A921200EA0E0001F26F87
:104A8800010EF36F000EF46F000EF56F000EF76F56
:104A9800320EF66F000E576E010E566E000EDD6F69
:104AA800000EDC6F000E596E010E586E808A000EE3
:104AB800DB6F000EDA6F000ED96F000ED86F000E94
:104AC800F96F010EF86F000E0101E06F000EDF6F45
:104AD800000E0001DF6F000EDE6F000ED56F000EB6
:104AE800D46F000E0101E86F030EE76F000EE66F4A
:104AF800020EE56F000EE46F0A0EE36F120000016C
:104B080083517F5D656F84518059666F85518159E6
:104B1800676F86518259686F8B518F5D696F8C51B1
:104B280090596A6F8D5191596B6F8E5192596C6F74
:104B380036EC26F065C071F066C072F067C073F09D
:104B480068C074F000018351875D756F845188597E
:104B5800766F85518959776F86518A59786F7DECC0
:104B680020F000018B5171257F6F8C517221806F6D
:104B78008D517321816F8E517421826F1200322EF4
:104B880052656374616E67756C616972650043682C
:104B98006F6973697220756E206D6F646500312EC0
:104BA8004F7363696C6C6F73636F706500456173F5
:104BB8007953434F5045005175656E74696E004DC9
:104BC8006F64653A32004D6F64653A31005242367F
:104BD8003D4F4B0050726F6A657400467265713ABA
:104BE800004A756C6573004D4355203A0044433ABA
:104BF80000487A0025000001716F000E0001706FF7
:104C0800800E71610AEF26F00CEF26F035EF26F0E2
:104C1800070E6F6512EF26F014EF26F016EF26F058
:104C280035EF26F071C0E3F06FC0E2F03F0E71651A
:104C380020EF26F022EF26F026EF26F0400E715FD7
:104C4800010E706F8A94715140096D6F705135EC87
:104C580027F000016F51B8096D6F705135EC27F0DE
:104C68008A841200000E00016D6F000E6E6F000E38
:104C78006F6F000E706F65A144EF26F046EF26F0C7
:104C88004EEF26F069516D276A516E236B516F23E1
:104C98006C517023D89069376A376B376C37D89066
:104CA8006833673366336533655166116711681178
:104CB800D8A461EF26F063EF26F03FEF26F06DC031
:104CC80065F06EC066F06FC067F070C068F01200E3
:104CD8003CC083FF8086080E0001656FC90EE82E70
:104CE800FED7652FFCD700D0809642C083FF808016
:104CF800080E0001656FC90EE82EFED7652FFCD798
:104D080000D0809040C083FF8082080E0001656F4C
:104D1800C90EE82EFED7652FFCD700D080923EC082
:104D280083FF8084080E0001656FC90EE82EFED748
:104D3800652FFCD700D080941200C3EF26F0000145
:104D48007A51D8B4AAEF26F0ACEF26F0B7EF26F0E8
:104D58007BC06FF078C0D9FF79C0DAFFDF5063EC11
:104D68001FF0C0EF26F07BC06FF078C0D9FF79C084
:104D7800DAFFDF50F0EC1FF00001784B792B78C098
:104D8800D9FF79C0DAFFDF50D8A4CDEF26F0CFEFF6
:104D980026F0A3EF26F01200000E0001811B000E82
:104DA800821B000E831B800E841B7DC065F07EC0B5
:104DB80066F07FC067F080C068F081C069F082C08B
:104DC8006AF083C06BF084C06CF0F2EC0CF065C044
:104DD8007DF066C07EF067C07FF068C080F012008A
:104DE800000E161A000E171A000E181A800E191A3D
:104DF80012C002F013C003F014C004F015C005F08F
:104E080016C006F017C007F018C008F019C009F05E
:104E180053EC0FF002C012F003C013F004C014F0FA
:104E280005C015F012000001656F00016551D8B486
:104E380020EF27F022EF27F026EF27F08A808A92CA
:104E480028EF27F08A928A8295688A868A8800D015
:104E580083CF66F08A9800D08A908A9200016651C2
:104E6800120000016E6F00016E51D8B43EEF27F0BA
:104E780040EF27F044EF27F08A808A9246EF27F028
:104E88008A928A82000E956E8A966DC08CFF8A88F7
:104E980000D08A9800D08A908A921200000E956EEF
:104EA800000E836E0A0EC16E110EC26EF00E926E67
:104EB800000E806EC00E936E000E816E040E966E0C
:104EC800000E846EF28ED08E9D8C9F9CF28CF286A2
:104ED800F18012002FC081F030C082F031C083F021
:104EE80032C084F07DC081F07EC082F07FC083F044
:104EF80080C084F00001849F81C07DF082C07EF074
:104F080083C07FF084C080F01200720ED36EFD0E55
:104F1800946E0C0EBA6E000ECC6E070ECA6E12009E
:104F28007C00450032003100320031002600457215
:064F3800696300627900CC
:10733A000000000000000000000000000000000043
:10734A000000000000000000000000000000000033
:10735A000000000000000000000000000000000023
:10736A000000000000000000000000000000000013
:10737A000000000000000000000000000000000003
:10738A0000000000000000000000000000000000F3
:10739A0000000000000000000000000000000000E3
:1073AA0000000000000000000000000000000000D3
:1073BA0000000000000000000000000000000000C3
:1073CA0000000000000000000000000000000000B3
:1073DA0000000000000000000000000000000000A3
:1073EA000000000000000000000000000000000093
:1073FA000000000000000000000000000000000083
:10740A000000000000000000000000000000000072
:10741A000000000000000000000000000000000062
:10742A000000000000000000000000000000000052
:10743A0000000000000000000000065F5F06000078
:10744A00000007070007070000147F7F147F7F14DE
:10745A0000242E6B6B3A120000466630180C6662E6
:10746A0000307A4F5D377A480004070300000000B5
:10747A0000001C3E63410000000041633E1C000006
:10748A0000082A3E1C1C3E2A0808083E3E0808003E
:10749A00000080E0600000000008080808080800F2
:1074AA000000006060000000006030180C06030154
:1074BA00003E7F71594D7F3E0040427F7F40400031
:1074CA0000627359496F660000226349497F36009A
:1074DA0000181C16537F7F5000276745457D3900E9
:1074EA00003C7E4B4979300000030371790F070095
:1074FA0000367F49497F360000064F49693F1E0022
:10750A000000006666000000000080E666000000D9
:10751A0000081C366341000000242424242424008B
:10752A0000004163361C080000020351590F06008F
:10753A00003E7F415D5D1F1E007C7E13137E7C0032
:10754A0000417F7F49497F36001C3E6341416322E7
:10755A0000417F7F41633E1C00417F7F495D41635B
:10756A0000417F7F491D0103001C3E634151737234
:10757A00007F7F08087F7F000000417F7F41000075
:10758A0000307040417F3F0100417F7F081C7763D4
:10759A0000417F7F41406070007F7F0E1C0E7F7F1D
:1075AA00007F7F060C187F7F001C3E6341633E1CF0
:1075BA0000417F7F49090F06001E3F21717F5E004F
:1075CA0000417F7F09197F6600266F4D597332008B
:1075DA000003417F7F410300007F7F40407F7F009F
:1075EA00001F3F60603F1F00007F7F3018307F7FA1
:1075FA000043673C183C674300074F78784F070001
:10760A0000476371594D677300007F7F4141000055
:10761A00000103060C183060000041417F7F000022
:10762A0000080C0603060C08008080808080808099
:10763A00800000030704000000207454543C784082
:10764A0000417F3F4848783000387C44446C280029
:10765A0000307848493F7F4000387C54545C180019
:10766A0000487E7F490302000098BCA4A4F87C0469
:10767A0000417F7F08047C780000447D7D40000043
:10768A000060E08080FD7D0000417F7F10386C44FF
:10769A000000417F7F400000007C7C18381C7C7809
:1076AA00007C7C04047C780000387C44447C3800EC
:1076BA000084FCF8A4243C1800183C24A4F8FC8498
:1076CA0000447C784C041C1800485C545474240010
:1076DA000000043E7F442400003C7C40403C7C4047
:1076EA00001C3C60603C1C00003C7C7038707C3C98
:1076FA0000446C3810386C44009CBCA0A0FC7C0090
:10770A00004C64745C4C64000008083E77414100F8
:10771A000000000077770000004141773E0808002A
:10772A0000020301030203010070784C464C787092
:10773A00000E9F91B1FB4A00003A7A40407A7A40A3
:10774A0000387C54555D19000002237555557D7B20
:10775A0042217554547D794000217555547C7840F6
:10776A0000207457577C784000183CA4A4E44000D9
:10777A0000023B7D55555D1B02397D54545D19004D
:10778A0000397D55545C18000001457C7C4101009C
:10779A00000203457D7D43020001457D7C400000D7
:1077AA0000797D1612167D790070782B2B7870007F
:1077BA0000447C7C5555450000207454547C7C540C
:1077CA00547C7E0B097F7F4900327B49497B32001A
:1077DA0000327A48487A320000327A4A48783000D1
:1077EA00003A7B41417B7A40003A7A4240787840BD
:1077FA00009ABAA0A0FA7A000001193C66663C1900
:10780A00013D7D40407D3D0000183C24E7E72424EB
:10781A0000687E7F49436620002B2FFCFC2F2B003B
:10782A0000FFFF09092FF6F8A040C088FE7F090370
:10783A0002207454557D79400000447D7D4100004A
:10784A00003078484A7A320000387840427A7A40E2
:10785A00007A7A0A0A7A7000007D7D19317D7D00EE
:10786A000000262F292F2F280000262F292F260037
:10787A000030784D456020000038380808080800B4
:10788A000008080808383800004F6F3018CCEEBBE3
:10789A00914F6F30186C76FBF90000007B7B00007B
:1078AA0000081C3622081C362222361C0822361CE6
:1078BA0008AA005500AA005500AA55AA55AA55AA11
:1078CA0055DDFFAA77DDAAFF77000000FFFF000061
:1078DA0000101010FFFF000000141414FFFF000036
:1078EA00001010FFFF00FFFF001010F0F010F0F082
:1078FA0000141414FCFC0000001414F7F700FFFF36
:10790A00000000FFFF00FFFF001414F4F404FCFC65
:10791A000014141717101F1F0010101F1F101F1F0D
:10792A00001414141F1F000000101010F0F00000C3
:10793A00000000001F1F1010101010101F1F101041
:10794A0010101010F0F0101010000000FFFF1010BF
:10795A00101010101010101010101010FFFF10103F
:10796A0010000000FFFF1414140000FFFF00FFFFC7
:10797A001000001F1F101717140000FCFC04F4F479
:10798A001414141717101717141414F4F404F4F435
:10799A00140000FFFF00F7F714141414141414143D
:1079AA00141414F7F700F7F714141414171714140F
:1079BA001410101F1F101F1F10141414F4F41414A1
:1079CA00141010F0F010F0F01000001F1F101F1F0D
:1079DA00100000001F1F141414000000FCFC1414F3
:1079EA00140000F0F010F0F0101010FFFF10FFFF6D
:1079FA0010141414FFFF1414141010101F1F000089
:107A0A0000000000F0F0101010FFFFFFFFFFFFFF63
:107A1A00FFF0F0F0F0F0F0F0F0FFFFFFFF000000E1
:107A2A000000000000FFFFFFFF0F0F0F0F0F0F0FE7
:107A3A000F387C446C386C4400FCFE2A2A3E140041
:107A4A00007E7E020206060000027E7E027E7E0222
:107A5A000063775D4963630000387C447C3C04041E
:107A6A000080FE7E20203E1E000406027E7C060266
:107A7A000099BDE7E7BD9900001C3E6B496B3E1CAF
:107A8A00004C7E7301737E4C0030784A4F7D39007A
:107A9A0000183C243C3C243C1898FC643C3E273D9E
:107AAA0018000000000000000000000000000000B4
:107ABA0000000000000000000000000000000000BC
:107ACA0000000000000000000000000000000000AC
:107ADA00000000000000000000000000000000009C
:107AEA00000000000000000000000000000000008C
:107AFA00000000000000000000000000000000007C
:107B0A00000000000000000000000000000000006B
:107B1A00000000000000000000000000000000005B
:107B2A00000000000000000000000000000000004B
:107B3A00000000000000000000808080800000003B
:107B4A0000000000000000000000000000800000AB
:107B5A00800000800000000000000000000000001B
:107B6A00000000000000000000000000000000000B
:107B7A0000000000000000000000000000000000FB
:107B8A0000000000000000000000000000000000EB
:107B9A0000000000000000000000000000000000DB
:107BAA0000000000000000000000000000000000CB
:107BBA00000000000000003E4180808080413E00BD
:107BCA0000D894A46C00007884844C0088FC8081DE
:107BDA00FF8081FF800078848484780000D894A490
:107BEA006C00007884844C000078848484780008CF
:107BFA00FC488484780000789494580000000000BF
:107C0A00D894A46C00041C6480740C0400D894A456
:107C1A006C0004FF844000789494580088FC88041F
:107C2A00FC8804F88000000000000000000000004A
:107C3A00000000000000000000000000000000003A
:107C4A00000000000000000000000000000000002A
:107C5A00000000000000000000000000000000001A
:107C6A000000000000000000000000000000000406
:107C7A0007040000000000000000000000000000EF
:107C8A0000000000000404060100000000000000DB
:107C9A0000000000000000000000000000000000DA
:107CAA0000000000000000000000000000000000CA
:107CBA0000000000000000000000000000000000BA
:107CCA0000000000000000000000000000000000AA
:107CDA00000000000000000000000000000000009A
:107CEA000080F0F8181C0E0E1C1878F0C0800000F6
:107CFA0000000000000000000000000000000080FA
:107D0A00F0F8181C0C0E0E1C18F8F0800000000089
:107D1A000000000000000000000000000000000059
:107D2A000000000000000000000000000000000049
:107D3A000000000000000000000000000000000039
:107D4A000000000000000000000000000000000029
:107D5A000000000000000000000000000000000019
:107D6A00F8FF0F0000000000000000000FFFF800FD
:107D7A000000000000000000000000000000F8FF02
:107D8A000F0000000000000000000FFFF8000000D4
:107D9A0000000000000000000000000000000000D9
:107DAA0000000000000000000000000000000000C9
:107DBA0000000000000000000000000000000000B9
:107DCA000000000000000000000800080008001C75
:107DDA00FCF8800800080008000800080008E0FF16
:107DEA003F090008000800080008000800093FFFD2
:107DFA00E00800080008000800080008E0FF3F0942
:107E0A000008000800080008000800090F0F000811
:107E1A000008000800000000000000000000000048
:107E2A000000000000000000000000000000000048
:107E3A000000000000000000000000000000000038
:107E4A000000000000000000000000000000000028
:107E5A0000073FFCE000000000000080C0FC7F0734
:107E6A000000000000000000000000000000000701
:107E7A003FFCE000000000000000C0FC7F0700009B
:107E8A0000000000000000000000000000000000E8
:107E9A0000000000000000000000000000000000D8
:107EAA0000000000000000000000000000000000C8
:107EBA0000000000000000000000000000000000B8
:107ECA0000000000000000000000000000000000A8
