:020000040000FA
:0400000035EF00F0E8
:060008005982DDED11F04C
:100018005980D8CF2FF0E8CF30F0E0CF31F0F3CFD0
:1000280032F0F4CF33F09EAC1CEF00F01EEF00F07E
:1000380029EF00F09E9CC4CFD4F00001D56BD4C04A
:1000480029F0D5C02AF023EC0DF033C0F4FF32C0FC
:10005800F3FF31C0E0FF30C0E8FF2FC0D8FF599050
:1000680010004CEF19F000018051845D966F8151AA
:100078008559976F8251865D986F83518759996F1B
:1000880096C060F097C061F0000E61BFFF0E626F0E
:10009800636F010E67EC0FF060C06EF061C06FF027
:1000A80062C070F063C071F0D1EC1AF06EC076F0E7
:1000B8006FC077F070C078F071C079F071EC15F00E
:1000C80076C09AF077C09BF098C060F099C061F054
:1000D8000001000E61BFFF0E626F636F010E67ECD7
:1000E8000FF060C06EF061C06FF062C070F063C066
:1000F80071F0D1EC1AF06EC076F06FC077F070C076
:1001080078F071C079F071EC15F076C09CF077C08A
:100118009DF09CC08AF09DC08BF0D89000018A3772
:100128008B379A518A5D926F9B518B59936F9AC006
:100138008AF09BC08BF0D8908A378B379C518A5DA8
:10014800946F9D518B59956F9C519A5D9B51800A74
:100158008A6F9D51800A8A59D8A0B5EF00F0B7EF91
:1001680000F0E2EF01F097BFBCEF00F0BEEF00F047
:10017800CCEF00F080C09EF081C09FF082C0A0F05C
:1001880083C0A1F084C08EF085C08FF0D8EF00F056
:1001980084C09EF085C09FF086C0A0F087C0A1F003
:1001A80080C08EF081C08FF0A0C06AF088C06BF06C
:1001B8009E5178EC16F0A0C06AF088C06BF0000180
:1001C8009E0578EC16F0A0C06AF088C06BF00001BC
:1001D8009E2978EC16F00001A0056A6F88C06BF0C4
:1001E8009E5178EC16F00001A0296A6F88C06BF068
:1001F8009E5178EC16F00001A0056A6F88C06BF07C
:100208009E0578EC16F00001A0296A6F88C06BF093
:100218009E0578EC16F00001A0056A6F88C06BF0A7
:100228009E2978EC16F00001A0296A6F88C06BF04F
:100238009E2978EC16F0000E00018D6F000E8C6F71
:10024800D1EF01F0010E9E259E6F000E9F219F6F3A
:1002580093BF33EF01F031EF01F042EF01F09CC0A2
:100268008AF09DC08BF0D8908A378B3792518A25B7
:10027800926F93518B21936F87EF01F097BF49EFEE
:1002880001F047EF01F050EF01F099BF4EEF01F098
:1002980050EF01F06AEF01F097BF5BEF01F0975163
:1002A80008E19605D8A05BEF01F05DEF01F072EF71
:1002B80001F099BF68EF01F0995108E19805D8A0BD
:1002C80068EF01F06AEF01F072EF01F0010EA0256E
:1002D800A06F000EA121A16F78EF01F0FF0EA025FD
:1002E800A06FFF0EA121A16F9A519C5D8A6F9B514F
:1002F8009D598B6FD8908A378B3792518A25926F88
:1003080093518B21936FA0C06AF088C06BF09E5107
:1003180078EC16F0A0C06AF088C06BF000019E056A
:1003280078EC16F0A0C06AF088C06BF000019E2936
:1003380078EC16F00001A0056A6F88C06BF09E513A
:1003480078EC16F00001A0296A6F88C06BF09E5106
:1003580078EC16F00001A0056A6F88C06BF09E0566
:1003680078EC16F00001A0296A6F88C06BF09E0532
:1003780078EC16F00001A0056A6F88C06BF09E2922
:1003880078EC16F00001A0296A6F88C06BF09E29EE
:1003980078EC16F000018C4B8D2B8E519E5D9F5191
:1003A800800A8A6F8F51800A8A59D8A0DEEF01F03F
:1003B800E0EF01F026EF01F011EF03F099BFE7EF4E
:1003C80001F0E9EF01F0F7EF01F080C09EF081C085
:1003D8009FF082C0A0F083C0A1F086C090F087C0D3
:1003E80091F003EF02F084C09EF085C09FF086C0B4
:1003F800A0F087C0A1F082C090F083C091F0A0C0A7
:100408006AF088C06BF09E5178EC16F0A0C06AF0D4
:1004180088C06BF000019E0578EC16F0A0C06AF069
:1004280088C06BF000019E2978EC16F00001A00549
:100438006A6F88C06BF09E5178EC16F00001A02915
:100448006A6F88C06BF09E5178EC16F00001A00529
:100458006A6F88C06BF09E0578EC16F00001A02941
:100468006A6F88C06BF09E0578EC16F00001A00555
:100478006A6F88C06BF09E2978EC16F00001A029FD
:100488006A6F88C06BF09E2978EC16F0000E0001A8
:100498008D6F000E8C6F02EF03F0010EA025A06F88
:1004A800000EA121A16F95BF64EF02F0955106E1FE
:1004B8009405D8B062EF02F064EF02F073EF02F037
:1004C8009AC08AF09BC08BF0D8908A378B379451AA
:1004D8008A25946F95518B21956FB8EF02F097BFDD
:1004E8007AEF02F078EF02F081EF02F099BF7FEF28
:1004F80002F081EF02F09BEF02F097BF8CEF02F061
:10050800975108E19605D8A08CEF02F08EEF02F023
:10051800A3EF02F099BF99EF02F0995108E198050D
:10052800D8A099EF02F09BEF02F0A3EF02F0010EC2
:100538009E259E6F000E9F219F6FA9EF02F0FF0E70
:100548009E259E6FFF0E9F219F6F9C519A5D8A6F1B
:100558009D519B598B6FD8908A378B3794518A2538
:10056800946F95518B21956FA0C06AF088C06BF08D
:100578009E5178EC16F0A0C06AF088C06BF00001BC
:100588009E0578EC16F0A0C06AF088C06BF00001F8
:100598009E2978EC16F00001A0056A6F88C06BF000
:1005A8009E5178EC16F00001A0296A6F88C06BF0A4
:1005B8009E5178EC16F00001A0056A6F88C06BF0B8
:1005C8009E0578EC16F00001A0296A6F88C06BF0D0
:1005D8009E0578EC16F00001A0056A6F88C06BF0E4
:1005E8009E2978EC16F00001A0296A6F88C06BF08C
:1005F8009E2978EC16F000018C4B8D2B9051A05D54
:10060800A151800A8A6F9151800A8A59D8A00FEFA8
:1006180003F011EF03F051EF02F012000550800BC8
:100628000E6E05500524106E04AE1DEF03F01FEF8B
:1006380003F020EF03F010801050D8B426EF03F039
:1006480028EF03F03DEF03F01028D8A42EEF03F0B5
:1006580030EF03F038EF03F0000E026E000E036E69
:10066800000E046E000E056E048E000E056E45EF3A
:1006780003F0000E026E000E036E000E046E000EF4
:10068800056E0950800B0F6E0E500F18D8B44FEF3F
:1006980003F051EF03F052EF03F00E8C09500924D8
:1006A8000F6E08AE5AEF03F05CEF03F05DEF03F056
:1006B8000F800F50D8B463EF03F065EF03F07AEFC3
:1006C80003F00F28D8A46BEF03F06DEF03F075EF7C
:1006D80003F0000E066E000E076E000E086E000E88
:1006E800096E088E000E096E82EF03F0000E066E8A
:1006F800000E076E000E086E000E096E10500F5C9B
:10070800D8B089EF03F08BEF03F0B2EF03F00EAC33
:1007180090EF03F092EF03F094EF03F0800E0E1ABF
:1007280010C011F00FC010F011C00FF002C011F08E
:1007380006C002F011C006F003C011F007C003F0B4
:1007480011C007F004C011F008C004F011C008F08F
:1007580005C011F009C005F011C009F0000E116EB6
:1007680010500FC00AF00B6A0A5E000E0B5A0BBE3F
:10077800C7EF03F00B5009E11A0E0A5CD8A0C7EFC7
:1007880003F0C9EF03F000EF04F002500310041067
:100798000510D8A4D2EF03F0D5EF03F0010ED6EF81
:1007A80003F0000E116E000E026E000E036E000EB6
:1007B800046E000E056E0FC010F009EF04F011A0D2
:1007C800E8EF03F0EAEF03F0F0EF03F0D890113010
:1007D8000109116EF2EF03F0D890113202A0F7EF81
:1007E80003F0F9EF03F0FAEF03F0118E0534053248
:1007F800043203320232102A0F50105CD8A007EFDF
:1008080004F009EF04F0E3EF03F00EBC0EEF04F080
:1008180010EF04F050EF04F01050D8A416EF04F0D5
:1008280018EF04F022EF04F0000E026E000E036EC3
:10083800000E046E000E056E71EF05F006500226DC
:1008480007500322085004220950052205A02FEF63
:1008580004F031EF04F0DDEF04F011A036EF04F0FE
:1008680038EF04F03EEF04F0D89011300109116E12
:1008780040EF04F0D890113202A045EF04F047EFA2
:1008880004F048EF04F0118E0534053204320332C7
:100898000232102ADDEF04F00650025C07500358BC
:1008A800085004580550800A0A6E0950800A0A58F0
:1008B800D8B061EF04F063EF04F08EEF04F002505B
:1008C800065C0A6E035007580B6E045008580C6EED
:1008D800055009580D6EFF0E0A24026EFF0E0B20FC
:1008E800036EFF0E0C20046EFF0E0D20056E800EA9
:1008F8000E1A116C1150D8A484EF04F086EF04F09E
:1009080096EF04F0010E0226000E032204220522AF
:1009180096EF04F00650025E0750035A0850045A36
:100928000950055A0250031004100510D8A49FEF6F
:1009380004F0A1EF04F0D6EF04F01150D8A4A7EF0B
:1009480004F0A9EF04F0D6EF04F0000E026E000EDA
:10095800036E000E046E000E056E71EF05F0D89060
:10096800023603360436053611AEBDEF04F0BFEF8C
:1009780004F0C0EF04F0028011A0C5EF04F0C7EF47
:1009880004F0CBEF04F0D8801136CDEF04F0D89006
:1009980011361050D8B4D3EF04F0D5EF04F0D6EFE9
:1009A80004F0100604AEDBEF04F0DDEF04F0B3EF63
:1009B80004F0000E0F6E11AEE4EF04F0E6EF04F061
:1009C800FEEF04F011C00AF07F0E0A16D8B4EFEF5C
:1009D80004F0F1EF04F0F5EF04F0010E0F6EFEEFF6
:1009E80004F002A0FAEF04F0FCEF04F0FEEF04F0CC
:1009F800F1EF04F00F50D8B404EF05F006EF05F05E
:100A080031EF05F0010E0226000E03220422052212
:100A180005A011EF05F013EF05F031EF05F002C066
:100A28000AF003C00BF004C00CF005C00DF00D3443
:100A38000D320C320B320A320AC002F00BC003F03E
:100A48000CC004F00DC005F01028D8B42EEF05F046
:100A580030EF05F031EF05F0102A1028D8B437EF41
:100A680005F039EF05F041EF05F01050D8A43FEF3D
:100A780005F041EF05F053EF05F0000E026E000E91
:100A8800036E000E046E000E056E1050D8A44FEFD2
:100A980005F051EF05F053EF05F0000E0E6E10A0B3
:100AA80058EF05F05AEF05F05DEF05F0048E5EEFA4
:100AB80005F0049ED8901030056E0EAE66EF05F076
:100AC80068EF05F069EF05F0058E02C002F003C07B
:100AD80003F004C004F005C005F0120000017C51C9
:100AE800800B856F7C517C258B6F7BAF7EEF05F08B
:100AF80080EF05F081EF05F08B818B51D8B487EF3B
:100B080005F089EF05F09CEF05F08B29D8A48FEF4D
:100B180005F091EF05F099EF05F0000E796F000EE2
:100B28007A6F000E7B6F000E7C6F7B8FA4EF05F051
:100B3800000E796F000E7A6F000E7B6F000E7C6FCF
:100B48008051800B851B805180258A6F7FAFAFEF66
:100B580005F0B1EF05F0B2EF05F08A818A51D8B4FB
:100B6800B8EF05F0BAEF05F0CDEF05F08A29D8A463
:100B7800C0EF05F0C2EF05F0CAEF05F0000E7D6F7B
:100B8800000E7E6F000E7F6F000E806F7F8FD5EF97
:100B980005F0000E7D6F000E7E6F000E7F6F000E59
:100BA800806F8A51D8B4DBEF05F0DDEF05F0E5EF93
:100BB80005F08B51D8A4E3EF05F0E5EF05F0EFEF72
:100BC80005F0000E796F000E7A6F000E7B6F000E35
:100BD8007C6F87EF07F07F517903F3CF90F0F4CF64
:100BE80091F09051866F876B886B896B91518C6FF0
:100BF8008D6B8E6B8F6B7E517A03F3CF90F0F4CFB1
:100C080091F090518627000E8723882389239151DC
:100C18008C27000E8D238E238F237D517B03F3CFEA
:100C280090F0F4CF91F090518627000E8723882307
:100C3800892391518C27000E8D238E238F2388C002
:100C480089F087C088F086C087F0866B7D517A036B
:100C5800F3CF90F0F4CF91F09051862791518723EC
:100C6800000E8823000E89237E517903F3CF90F07C
:100C7800F4CF91F09051862791518723000E882355
:100C8800000E892388C089F087C088F086C087F065
:100C9800866B7D517903F3CF90F0F4CF91F09051AA
:100CA800862791518723000E8823000E89237F51C0
:100CB8007A03F3CF90F0F4CF91F090518C279151B3
:100CC8008D23000E8E23000E8F237E517B03F3CFDE
:100CD80090F0F4CF91F090518C2791518D23000E14
:100CE8008E23000E8F237F517B03F3CF90F0F4CF38
:100CF80091F09051816F9151826F836B846B83C0A7
:100D080084F082C083F081C082F0816B81518C278E
:100D180082518D2383518E2384518F2386C081F085
:100D280087C082F088C083F089C084F0190EA2EFD2
:100D380006F0D8908433833382338133E82E9DEFD5
:100D480006F081518C2782518D2383518E23845143
:100D58008F2388C089F087C088F086C087F0866BAB
:100D68008A518BC081F0826B8127000E8223820E0C
:100D78008125906FFF0E8221916FD8EF06F0D890F1
:100D88008C378D378E378F3789AFCDEF06F0CFEFA1
:100D980006F0D0EF06F08C81D890863787378837F1
:100DA80089379007D8A091078EAFDDEF06F0DFEF07
:100DB80006F0C3EF06F0000E8A6F89AFE6EF06F083
:100DC800E8EF06F00CEF07F0FF0E8615816FFF0EB7
:100DD8008715826FFF0E8815836F7F0E8915846FC4
:100DE8008151821183118411D8B4FDEF06F0FFEF11
:100DF80006F003EF07F0010E8A6F0CEF07F08CA1E5
:100E080008EF07F00AEF07F00CEF07F0FFEF06F026
:100E18008A51D8B412EF07F014EF07F038EF07F053
:100E2800010E8C27000E8D238E238F238FA11FEF99
:100E380007F021EF07F038EF07F08CC081F08DC084
:100E480082F08EC083F08FC084F08435843383337E
:100E58008233813381C08CF082C08DF083C08EF0E4
:100E680084C08FF0904B912B91BF43EF07F09151C5
:100E780008E19029D8A043EF07F045EF07F04FEFBE
:100E880007F0000E8C6F000E8D6F800E8E6F7F0E38
:100E98008F6F7DEF07F091BF5CEF07F0915106E18E
:100EA8009005D8B05AEF07F05CEF07F068EF07F04D
:100EB800000E8C6F000E8D6F000E8E6F000E8F6F00
:100EC800000E856F7DEF07F090C08BF0FF0E8C173A
:100ED800FF0E8D177F0E8E17000E8F178BA177EFE1
:100EE80007F079EF07F07AEF07F08E8FD8908B3103
:100EF8008F6F85518F138CC079F08DC07AF08EC0BA
:100F08007BF08FC07CF012001350800B1C6E1350C6
:100F18001324226E12AE93EF07F095EF07F096EFC9
:100F280007F022802250D8B49CEF07F09EEF07F01C
:100F3800B1EF07F02228D8A4A4EF07F0A6EF07F036
:100F4800AEEF07F0000E106E000E116E000E126E5E
:100F5800000E136E128EB9EF07F0000E106E000E21
:100F6800116E000E126E000E136E1750800B1C1AB5
:100F780017501724216E16AEC4EF07F0C6EF07F01E
:100F8800C7EF07F021802150D8B4CDEF07F0CFEF9D
:100F980007F0E2EF07F02128D8A4D5EF07F0D7EF44
:100FA80007F0DFEF07F0000E146E000E156E000E4E
:100FB800166E000E176E168EEAEF07F0000E146E0E
:100FC800000E156E000E166E000E176E2150D8B466
:100FD800F0EF07F0F2EF07F0FAEF07F02250D8A48D
:100FE800F8EF07F0FAEF07F004EF08F0000E106EC4
:100FF800000E116E000E126E000E136E9CEF09F0BB
:1010080016501002F3CF27F0F4CF28F027501D6EAA
:101018001E6A1F6A206A2850236E246A256A266A77
:1010280015501102F3CF27F0F4CF28F027501D26D2
:10103800000E1E221F22202228502326000E2422C2
:101048002522262214501202F3CF27F0F4CF28F0DD
:1010580027501D26000E1E221F222022285023263C
:10106800000E2422252226221FC020F01EC01FF0B9
:101078001DC01EF01D6A14501102F3CF27F0F4CFE3
:1010880028F027501D2628501E22000E1F22000E71
:10109800202215501002F3CF27F0F4CF28F0275064
:1010A8001D2628501E22000E1F22000E20221FC0BF
:1010B80020F01EC01FF01DC01EF01D6A1450100243
:1010C800F3CF27F0F4CF28F027501D2628501E22F2
:1010D800000E1F22000E202216501102F3CF27F017
:1010E800F4CF28F02750232628502422000E25224A
:1010F800000E262215501202F3CF27F0F4CF28F065
:101108002750232628502422000E2522000E2622AE
:1011180016501202F3CF27F0F4CF28F02750186E9C
:101128002850196E1A6A1B6A1AC01BF019C01AF0E7
:1011380018C019F0186A18502326195024221A507A
:1011480025221B5026221DC018F01EC019F01FC0F2
:101158001AF020C01BF0190EB7EF08F0D8901B3218
:101168001A3219321832E82EB2EF08F01850232636
:10117800195024221A5025221B5026221FC020F065
:101188001EC01FF01DC01EF01D6A215022C018F09D
:10119800196A1826000E1922820E1824276EFF0ECF
:1011A8001920286EEDEF08F0D8902336243625361E
:1011B800263620AEE2EF08F0E4EF08F0E5EF08F09D
:1011C8002380D8901D361E361F3620362706D8A015
:1011D800280625AEF2EF08F0F4EF08F0D8EF08F093
:1011E800000E216E20AEFBEF08F0FDEF08F021EFB6
:1011F80009F0FF0E1D14186EFF0E1E14196EFF0E57
:101208001F141A6E7F0E20141B6E185019101A1016
:101218001B10D8B412EF09F014EF09F018EF09F019
:10122800010E216E21EF09F023A01DEF09F01FEF39
:1012380009F021EF09F014EF09F02150D8B427EF95
:1012480009F029EF09F04DEF09F0010E2326000EF1
:1012580024222522262226A034EF09F036EF09F0B1
:101268004DEF09F023C018F024C019F025C01AF07A
:1012780026C01BF01B341B321A321932183218C020
:1012880023F019C024F01AC025F01BC026F0274A05
:10129800282A28BE58EF09F0285008E12728D8A0A6
:1012A80058EF09F05AEF09F064EF09F0000E236EC9
:1012B800000E246E800E256E7F0E266E92EF09F0CA
:1012C80028BE71EF09F0285006E12704D8B06FEF67
:1012D80009F071EF09F07DEF09F0000E236E000EA2
:1012E800246E000E256E000E266E000E1C6E92EF08
:1012F80009F027C022F0FF0E2316FF0E24167F0EDA
:101308002516000E261622A08CEF09F08EEF09F0A4
:101318008FEF09F0258ED8902230266E1C502612A9
:1013280023C010F024C011F025C012F026C013F01D
:10133800120000016351800B706F63516325776F52
:1013480062AFA9EF09F0ABEF09F0ACEF09F07781D4
:101358007751D8B4B2EF09F0B4EF09F0C9EF09F04A
:101368007729D8A4BAEF09F0BCEF09F0C4EF09F067
:10137800000E606F000E616F000E626F000E636FEB
:10138800628F000E636FD1EF09F0000E606F000EE0
:10139800616F000E626F000E636F6751800B701BE8
:1013A80067516725786F66AFDCEF09F0DEEF09F06B
:1013B800DFEF09F078817851D8B4E5EF09F0E7EF6D
:1013C80009F0FCEF09F07829D8A4EDEF09F0EFEF68
:1013D80009F0F7EF09F0000E646F000E656F000E5C
:1013E800666F000E676F668F000E676F04EF0AF076
:1013F800000E646F000E656F000E666F000E676F5B
:101408006451651166116711D8A40DEF0AF00FEF4A
:101418000AF027EF0AF0000E606F000E616F000EF1
:10142800626F000E636F800E62137F0E631370513C
:10143800631360C060F061C061F062C062F063C0B5
:1014480063F06AEF0BF07751D8A42DEF0AF02FEF75
:101458000AF039EF0AF0000E606F000E616F000E9F
:10146800626F000E636F6AEF0BF0785177C068F017
:10147800696B685F000E695B7F0E6825716F000EEF
:101488006921726F60C06CF061C06DF062C06EF06F
:1014980063C06FF0000E606F000E616F000E626F28
:1014A800000E636F000E736F000E746F000E756F81
:1014B800000E766F000E786F9AEF0AF07851D8B464
:1014C80068EF0AF06AEF0AF081EF0AF0D8906C37FB
:1014D8006D376E376F37D89060376137623763374B
:1014E80076AF79EF0AF07BEF0AF07CEF0AF06081C3
:1014F800D890733774377537763764516C5D65519A
:101508006D5966516E5967516F59D8A08EEF0AF020
:1015180090EF0AF099EF0AF0768D64516C5F65518F
:101528006D5B66516E5B67516F5B782B190E786542
:10153800A0EF0AF0A2EF0AF062EF0AF06C516D1109
:101548006E116F11D8B4ABEF0AF0ADEF0AF0C5EF2A
:101558000AF07381C5EF0AF0D890603761376237B7
:10156800633776AFBAEF0AF0BCEF0AF0BDEF0AF0C6
:101578006081D89073377437753776377107D8A07C
:10158800720762AFCAEF0AF0CCEF0AF0B0EF0AF0C8
:10159800000E786F76AFD3EF0AF0D5EF0AF0F9EFC7
:1015A8000AF0FF0E7315686FFF0E7415696FFF0E52
:1015B80075156A6F7F0E76156B6F685169116A1120
:1015C8006B11D8B4EAEF0AF0ECEF0AF0F0EF0AF08A
:1015D800010E786FF9EF0AF060A1F5EF0AF0F7EF66
:1015E8000AF0F9EF0AF0ECEF0AF07851D8B4FFEFFF
:1015F8000AF001EF0BF025EF0BF0010E6027000E4B
:1016080061236223632363A10CEF0BF00EEF0BF051
:1016180025EF0BF060C068F061C069F062C06AF045
:1016280063C06BF06B356B336A336933683368C0FA
:1016380060F069C061F06AC062F06BC063F0714B22
:10164800722B72BF30EF0BF0725108E17129D8A0EC
:1016580030EF0BF032EF0BF03DEF0BF0000E726F36
:101668007169000E606F000E616F000E626F000EF0
:10167800636F72BF4AEF0BF0725106E17105D8B083
:1016880048EF0BF04AEF0BF058EF0BF0000E726FBB
:10169800000E716F000E606F000E616F000E626FBA
:1016A800000E636F000E706F71C077F077A15FEF67
:1016B8000BF061EF0BF064EF0BF0628F65EF0BF04E
:1016C800629FD8907731636F1BEF0AF01200000E0B
:1016D8000001E56F000EE46F000EDD6F010EDC6F98
:1016E800F1C0A4F0F2C0A5F0EFC0A6F0F0C0A7F0DA
:1016F800EDC0A8F0EEC0A9F0EBC0AAF0ECC0ABF0CA
:10170800000EBA6F000EB96FB9C06AF00F0E8FECF9
:1017180019F0AA0E0001736F000E746F010E756F39
:10172800010E766FFBEC19F00001B94BBA2BBABF6A
:10173800A7EF0BF0BA5109E1080EB95DD8A0A7EFE1
:101748000BF0A9EF0BF088EF0BF0000E726F000E94
:10175800716F000E746F110E736F000E766F110E9D
:10176800756F000E786F110E776F000E7A6F010E8D
:10177800796F14EC18F00001DE51DF11D8A4C7EF1F
:101788000BF0C9EF0BF0DBEF0BF0010E6A6F020EE6
:101798008FEC19F0A40E0001736F000E746F010E28
:1017A800756F010E766FFBEC19F006EF0CF0DE0595
:1017B800DF11D8A4E2EF0BF0E4EF0BF0F6EF0BF03B
:1017C800010E6A6F020E8FEC19F0A60E0001736FFE
:1017D800000E746F010E756F010E766FFBEC19F039
:1017E80006EF0CF0010E6A6F020E8FEC19F0A80ECE
:1017F8000001736F000E746F010E756F010E766F26
:10180800FBEC19F04050300F0001AC6F4250300F24
:10181800AD6F4450300FAE6F4650300FAF6F000EB3
:10182800B06F000EB16F000EB26FACC0B0F02E0EEC
:10183800B16F000EB26F000EB46F000EB36FADC083
:10184800B3F0000EB46F000EB66F000EB56FAEC0E9
:10185800B5F0000EB66F000EB86F000EB76FAFC0D0
:10186800B7F0000EB86F030E6A6F020E8FEC19F016
:10187800B00E0001736F000E746F010E756F010ECC
:10188800766FFBEC19F0040E00016A6F020E8FEC04
:1018980019F0B30E0001736F000E746F010E756FAF
:1018A800010E766FFBEC19F0050E00016A6F020E4F
:1018B8008FEC19F0B50E0001736F000E746F010EF6
:1018C800756F010E766FFBEC19F0060E00016A6F5A
:1018D800020E8FEC19F0B70E0001736F000E746FD3
:1018E800010E756F010E766FFBEC19F00001D9BF80
:1018F80089EF0CF0D95107E1630ED85DD8B087EFB6
:101908000CF089EF0CF0D4EF0CF01C0ED825716F99
:10191800000ED921726F000E746F000E736F1C0ECB
:10192800D825756F000ED921766F000E786F400E9E
:10193800776F000E7A6F000E796F14EC18F0A2C062
:101948006AF0010E00016B6FD8511C0F78EC16F08D
:101958001C0E0001D225806F000ED321816FD0C0EC
:1019680082F0D1C083F01C0ED825846F000ED921D7
:10197800856FA2C086F0A3C087F0000E896F010EA4
:10198800886F37EC00F0D8C0D2F0D9C0D3F0A2C02D
:10199800D0F0A3C0D1F00001D84BD92B22EF0DF025
:1019A800D9BFE0EF0CF0D95109E1630ED85DD8A09A
:1019B800E0EF0CF0E2EF0CF022EF0DF0000ED96F23
:1019C800000ED86F000E726F1B0E716F000E746FD1
:1019D800000E736F000E766F1B0E756F000E786F1A
:1019E800400E776F000E7A6F000E796F14EC18F0C6
:1019F800000E0001726F1C0E716F000E746F000EE6
:101A0800736F000E766F1C0E756F000E786F400EA8
:101A1800776F000E7A6F000E796F14EC18F0A2C081
:101A28006AF0010E00016B6F1C0E78EC16F0000EC8
:101A38000001D36F000ED26FCBEF0CF0120029C05B
:101A480002F02AC003F0000E03BEFF0E046E056EFE
:101A5800010E43EC10F002C010F003C011F004C0F6
:101A680012F005C013F0A10E146EDE0E156EA70E4F
:101A7800166E3C0E176E88EC07F010C02BF011C0E4
:101A88002CF012C02DF013C02EF02BC002F02CC089
:101A980003F02DC004F02EC005F0F5EC15F002C0DF
:101AA80040F003C041F02BC012F02CC013F02DC041
:101AB80014F02EC015F040C002F041C003F0000E33
:101AC80003BEFF0E046E056E010E43EC10F002C05B
:101AD80016F003C017F004C018F005C019F073EC35
:101AE8001AF012C02BF013C02CF014C02DF015C042
:101AF8002EF02BC010F02CC011F02DC012F02EC00B
:101B080013F0000E146E000E156E200E166E410EA8
:101B1800176E88EC07F010C02BF011C02CF012C023
:101B28002DF013C02EF02BC002F02CC003F02DC0F6
:101B380004F02EC005F0F5EC15F002C042F003C029
:101B480043F02BC012F02CC013F02DC014F02EC09F
:101B580015F042C002F043C003F0000E03BEFF0EB2
:101B6800046E056E010E43EC10F002C016F003C0BF
:101B780017F004C018F005C019F073EC1AF012C081
:101B88002BF013C02CF014C02DF015C02EF02BC074
:101B980010F02CC011F02DC012F02EC013F0000E62
:101BA800146E000E156E200E166E410E176E88EC20
:101BB80007F010C02BF011C02CF012C02DF013C08C
:101BC8002EF02BC002F02CC003F02DC004F02EC064
:101BD80005F0F5EC15F002C044F003C045F02BC049
:101BE80012F02CC013F02DC014F02EC015F044C014
:101BF80002F045C003F0000E03BEFF0E046E056E32
:101C0800010E43EC10F002C016F003C017F004C038
:101C180018F005C019F073EC1AF012C02BF013C0BD
:101C28002CF014C02DF015C02EF02BC010F02CC0D5
:101C380011F02DC012F02EC013F0000E146E000E1D
:101C4800156E200E166E410E176E88EC07F010C048
:101C58002BF011C02CF012C02DF013C02EF02BC0A9
:101C680002F02CC003F02DC004F02EC005F0F5ECF6
:101C780015F002C046F003C047F046C002F047C066
:101C880003F091EC12F002C03EF003C03FF044C0F4
:101C980002F045C003F091EC12F002C03CF003C022
:101CA8003DF042C002F043C003F091EC12F002C0D4
:101CB8003AF003C03BF040C002F041C003F091ECA1
:101CC80012F0800E0224386E000E0320396E1200C6
:101CD8000001E005E111D8A474EF0EF076EF0EF0E4
:101CE800F8EF0EF021EE10F010EE80F00F0EDBCFC3
:101CF800E3FFE806FCE221EE20F010EEA0F00E0E65
:101D0800DBCFE3FFE806FCE221EE00F010EE90F0F6
:101D18000F0EDBCFE3FFE806FCE2F5C0AFF0F6C03C
:101D2800B0F0F3C0B1F0F4C0B2F0000E6A6F020E6A
:101D38008FEC19F0800E0001736F000E746F010EA6
:101D4800756F010E766FFBEC19F0020E00016A6FD9
:101D5800020E8FEC19F0A00E0001736F000E746F65
:101D6800010E756F010E766FFBEC19F0030E000182
:101D78006A6F020E8FEC19F0900E0001736F000E5F
:101D8800746F010E756F010E766FFBEC19F0030E80
:101D980000016A6F020E8FEC19F0050E00016A6FE0
:101DA8002A0E8FEC19F0AF0E0001736F000E746FDE
:101DB800010E756F010E766FFBEC19F0050E000130
:101DC8006A6F520E8FEC19F0B10E0001736F000E9E
:101DD800746F010E756F010E766FFBEC19F0000E33
:101DE8000001E16F000EE06FE251E311D8A4FFEFAC
:101DF8000EF001EF0FF030EF0FF0000E726F520E81
:101E0800716F000E746F340E736F000E766F5A0E7A
:101E1800756F000E786F340E776F000E7A6F000EB4
:101E2800796F14EC18F0000E0001726F2A0E716FB2
:101E3800000E746F340E736F000E766F320E756F6E
:101E4800000E786F340E776F000E7A6F010E796F7F
:101E580014EC18F066EF0FF0E205E311D8A437EFA1
:101E68000FF039EF0FF066EF0FF0000E726F520EA1
:101E7800716F000E746F340E736F000E766F5A0E0A
:101E8800756F000E786F340E776F000E7A6F010E43
:101E9800796F14EC18F0000E0001726F2A0E716F42
:101EA800000E746F340E736F000E766F320E756FFE
:101EB800000E786F340E776F000E7A6F000E796F10
:101EC80014EC18F012000001686F00016851D8B4D2
:101ED80070EF0FF072EF0FF094EF0FF063BF79EF30
:101EE8000FF077EF0FF094EF0FF060C064F061C06F
:101EF80065F062C066F063C067F0641F651F661F07
:101F0800671F642B000E65236623672364C06AF08D
:101F180065C06BF066C06CF067C06DF09CEF0FF0A9
:101F280060C06AF061C06BF062C06CF063C06DF0B5
:101F38006051611162116311D8A4A5EF0FF0A7EFEA
:101F48000FF0B1EF0FF0000E606F000E616F000E22
:101F5800626F000E636F42EF10F0960E696FBBEF71
:101F68000FF0692BD8906D336C336B336A33000EE6
:101F78006A15646F000E6B15656F000E6C15666F41
:101F8800FE0E6D15676F6451651166116711D8A44F
:101F9800D0EF0FF0D2EF0FF0B5EF0FF0E0EF0FF04A
:101FA800692B010E6A27000E6B236C236D23D890D2
:101FB8006D336C336B336A33000E6A15646F000E31
:101FC8006B15656F000E6C15666FFF0E6D15676FEC
:101FD8006451651166116711D8A4F5EF0FF0F7EF9A
:101FE8000FF0D4EF0FF0FFEF0FF06907D8906A37C2
:101FF8006B376C376D376CBF04EF10F006EF10F0DD
:102008000EEF10F0020E69610CEF10F00EEF10F0F9
:10201800F9EF0FF069B113EF10F015EF10F016EFAC
:1020280010F06C9FD890693369C064F0656B666B7B
:10203800676B64C067F0666B656B646B64516A13A9
:1020480065516B1366516C1367516D136851D8B4A1
:1020580030EF10F032EF10F03AEF10F063BF39EFC5
:1020680010F037EF10F03AEF10F06D8F6AC060F0A3
:102078006BC061F06CC062F06DC063F012000A6E54
:102088000A50D8B44AEF10F04CEF10F06EEF10F091
:1020980005BE53EF10F051EF10F06EEF10F002C0D4
:1020A80006F003C007F004C008F005C009F0061EDA
:1020B800071E081E091E062A000E072208220922EA
:1020C80006C00CF007C00DF008C00EF009C00FF0F4
:1020D80076EF10F002C00CF003C00DF004C00EF053
:1020E80005C00FF00250031004100510D8A47FEFAC
:1020F80010F081EF10F08BEF10F0000E026E000E62
:10210800036E000E046E000E056E1CEF11F0960EA5
:102118000B6E95EF10F00B2AD8900F320E320D325D
:102128000C32000E0C14066E000E0D14076E000E15
:102138000E14086EFE0E0F14096E065007100810D4
:102148000910D8A4AAEF10F0ACEF10F08FEF10F040
:10215800BAEF10F00B2A010E0C26000E0D220E22EB
:102168000F22D8900F320E320D320C32000E0C14A2
:10217800066E000E0D14076E000E0E14086EFF0E8C
:102188000F14096E0650071008100910D8A4CFEFD5
:1021980010F0D1EF10F0AEEF10F0D9EF10F00B0601
:1021A800D8900C360D360E360F360EBEDEEF10F018
:1021B800E0EF10F0E8EF10F0020E0B60E6EF10F021
:1021C800E8EF10F0D3EF10F00BB0EDEF10F0EFEFF9
:1021D80010F0F0EF10F00E9ED8900B320BC006F006
:1021E800076A086A096A06C009F0086A076A066A7F
:1021F80006500C1207500D1208500E1209500F12FB
:102208000A50D8B40AEF11F00CEF11F014EF11F0E6
:1022180005BE13EF11F011EF11F014EF11F00F8E4E
:102228000CC002F00DC003F00EC004F00FC005F0A2
:102238001200100E0001F96F270EFA6F000EFB6FE7
:10224800000EFC6F000EFE6F4B0EFD6FECEC1AF0EB
:10225800010EEBEC16F005EC19F0150E0001BC6F41
:102268004B0EBB6FBE0EE82EFED7BB2FFCD7BC2F84
:10227800FAD700F04EEC17F033EC13F0100E000113
:102288006E6F270E6F6F000E706F000E716F2AEC65
:102298001AF04B0E0001606F000E616F000E626F46
:1022A800000E636F010E67EC0FF060C0BDF061C0F7
:1022B800BEF062C0BFF063C0C0F0BDC092F0BEC047
:1022C80093F0BFC094F0C0C095F06CEC18F0000E0D
:1022D8000001DB6F010EDA6F000EDF6F000EDE6F9C
:1022E800000EE16F010EE06F808A000EDD6F000EB8
:1022F800DC6F000EE56F010EE46F000EE36F000E59
:10230800E26FC2820001D605D711D8A48EEF11F072
:1023180090EF11F097EF11F0000ED76F000ED66F07
:10232800000EBDEC18F00001E405E511D8A49FEFFC
:1023380011F0A1EF11F0A9EF11F0000EDD6F000E02
:10234800DC6F6CEC0EF0D7EF11F0DC05DD11D8A4D2
:10235800B0EF11F0B2EF11F0D7EF11F0000EE56F0A
:10236800000EE46FC20EBB6FFF0EBC6FD4C060F0EE
:10237800D5C061F0000E636F040E626FB1EC17F008
:102388000001BB516027BC516123601F611F604B76
:10239800612B60C0C1F061C0C2F0C1C0A2F0C2C070
:1023A800A3F06BEC0BF0C6EC19F085EF11F035EFEC
:1023B80000F00600F2A0E3EF11F0E5EF11F08FEF67
:1023C80012F0410E016EEE0EE82EFED7012EFCD75C
:1023D80000D0F29081ACF3EF11F0F5EF11F03BEF84
:1023E80012F036503710D8A4FCEF11F0FEEF11F0C0
:1023F80035EF12F00001E405E511D8A406EF12F05C
:1024080008EF12F01BEF12F0E251E311D8A40FEF1E
:1024180012F011EF12F01BEF12F0364A372A000EB5
:10242800E36F010EE26F8FEF12F08FEF12F0E40509
:10243800E511D8A422EF12F024EF12F019EF12F0F0
:10244800E205E311D8A42BEF12F02DEF12F019EFEB
:1024580012F0364A372A000EE36F000EE26F8FEF54
:1024680012F0000E376E000E366E8FEF12F081AE4E
:1024780040EF12F042EF12F08FEF12F034503510A7
:10248800D8A449EF12F04BEF12F08BEF12F00001D5
:10249800E405E511D8A453EF12F055EF12F072EFEE
:1024A80012F0E251E311D8A45CEF12F05EEF12F0E3
:1024B80019EF12F0344A352A000EE56F000EE46F6A
:1024C800000EDD6F010EDC6F000EDB6F010EDA6FA0
:1024D800000ED76F010ED66F8FEF12F0DC05DD11FD
:1024E800D8A479EF12F07BEF12F019EF12F0344A0A
:1024F800352A000EE56F010EE46F000EDD6F000E49
:10250800DC6F000EE16F010EE06F6CEF12F0000E51
:10251800356E000E346E5992110002500310D8A483
:1025280098EF12F09AEF12F0A0EF12F0000E036E7F
:102538003F0E026E32EF13F002040310D8A4A7EF87
:1025480012F0A9EF12F0AFEF12F0000E036E060EB4
:10255800026E32EF13F0020E02180310D8A4B7EF80
:1025680012F0B9EF12F0BFEF12F0000E036E5B0E1F
:10257800026E32EF13F0030E02180310D8A4C7EF4F
:1025880012F0C9EF12F0CFEF12F0000E036E4F0EEB
:10259800026E32EF13F0040E02180310D8A4D7EF1E
:1025A80012F0D9EF12F0DFEF12F0000E036E660E94
:1025B800026E32EF13F0050E02180310D8A4E7EFED
:1025C80012F0E9EF12F0EFEF12F0000E036E6D0E4D
:1025D800026E32EF13F0060E02180310D8A4F7EFBC
:1025E80012F0F9EF12F0FFEF12F0000E036E7D0EFD
:1025F800026E32EF13F0070E02180310D8A407EF8B
:1026080013F009EF13F00FEF13F0000E036E070E2F
:10261800026E32EF13F0080E02180310D8A417EF59
:1026280013F019EF13F01FEF13F0000E036E7F0E77
:10263800026E32EF13F0090E02180310D8A427EF28
:1026480013F029EF13F02FEF13F0000E036E6F0E47
:10265800026E32EF13F0000E036E02681200E8C03B
:102668008CF0E9C08DF0EAC08EF020EE54F010EE48
:1026780087F0040EDBCFE3FFE806FCE2F7C08FF03B
:10268800F8C090F021EE39F010EE79F0070EDBCFAC
:10269800E3FFE806FCE220EE48F010EE81F0050EBC
:1026A800DBCFE3FFE806FCE2000E00016A6F340EA0
:1026B8008FEC19F08C0E0001736F000E746F010E11
:1026C800756F010E766FFBEC19F0020E00016A6F50
:1026D8002D0E8FEC19F0870E0001736F000E746FCA
:1026E800010E756F010E766FFBEC19F0030E0001F9
:1026F8006A6F360E8FEC19F08F0E0001736F000EA3
:10270800746F010E756F010E766FFBEC19F0040EF5
:1027180000016A6F230E8FEC19F0790E0001736FB8
:10272800000E746F010E756F010E766FFBEC19F0D9
:10273800050E00016A6F360E8FEC19F08F0E00013E
:10274800736F000E746F010E756F010E766FFBECE0
:1027580019F0060E00016A6F290E8FEC19F0810E30
:102768000001736F000E746F010E756F010E766FA6
:10277800FBEC19F0150E0001786F4B0E776FBE0E4B
:10278800E82EFED7772FFCD7782FFAD700F0000E67
:10279800BDEC18F000D0120000016F6F000E0001B0
:1027A800726F0A0E6F19D8A4DCEF13F0DEEF13F086
:1027B800E3EF13F0000EE76FE62B5CEF14F03F0E2B
:1027C800E765E9EF13F0EBEF13F0F2EF13F0010E0A
:1027D800726FE751C00F706FF4EF13F0E7C070F03D
:1027E8006F51080DF3CF6DF0F4CF6EF0000E716FDE
:1027F8003F0E706502EF14F004EF14F017EF14F0B9
:10280800400E705F010E726F8A9470514009686FB4
:10281800010EB4EC1AF00001E651B809686F010E18
:10282800B4EC1AF08A8400016A51D8B41EEF14F08F
:1028380020EF14F038EF14F03B0E6B6F730E6C6FD3
:1028480071516B27000E6C236D516B276E516C23F1
:102858006BC0F6FF6CC0F7FF0800F5CF68F0725147
:10286800B4EC1AF04FEF14F03B0E6B6F730E6C6FF5
:1028780071516B27000E6C236D516B276E516C23C1
:102888006BC0F6FF6CC0F7FF0800F550FF0A686FD1
:102898007251B4EC1AF00001702B712B070E7165A0
:1028A80058EF14F05AEF14F0FCEF13F0080EE72776
:1028B800120000016E6F000E0001706F0A0E6E1993
:1028C800D8A469EF14F06BEF14F070EF14F0000E59
:1028D800E76FE62BE9EF14F03F0EE76576EF14F0AB
:1028E80078EF14F07FEF14F0010E706FE751C00F0E
:1028F8006D6F81EF14F0E7C06DF0200E6E5F000E73
:102908006F6F3F0E6D658BEF14F08DEF14F0A0EF35
:1029180014F0400E6D5F010E706F8A946D5140097E
:10292800686F010EB4EC1AF00001E651B809686F3F
:10293800010EB4EC1AF08A8400016A51D8B4A7EFEA
:1029480014F0A9EF14F0C3EF14F06E51030D3B0E11
:102958006B6F7F0E6C6FF3506B27F4506C236F51C5
:102968006B27000E6C236BC0F6FF6CC0F7FF0800E6
:10297800F5CF68F07051B4EC1AF0DCEF14F06E513A
:10298800030D3B0E6B6F7F0E6C6FF3506B27F4508B
:102998006C236F516B27000E6C236BC0F6FF6CC065
:1029A800F7FF0800F550FF0A686F7051B4EC1AF091
:1029B80000016D2B6F2B020E6F65E5EF14F0E7EF4A
:1029C80014F085EF14F0050EE7271200000E000141
:1029D800696F67BFF4EF14F0F2EF14F0FEEF14F034
:1029E800671F661F651F646D000E652366236723D6
:1029F800010E696F63BF05EF15F003EF15F00FEFD8
:102A080015F0631F621F611F606D000E6123622352
:102A18006323010E691B000E6A6F000E6B6F000EB8
:102A28006C6F000E6D6F6451651166116711D8B433
:102A380020EF15F022EF15F058EF15F0010E686F32
:102A48002CEF15F0D8906437653766376737682BF1
:102A580067AF31EF15F033EF15F026EF15F0D8908A
:102A68006A376B376C376D376451605D65516159F2
:102A78006651625967516359D8A045EF15F047EF81
:102A880015F050EF15F06451605F6551615B665158
:102A9800625B6751635B6A81D890673366336533DD
:102AA8006433682F33EF15F06951D8B45EEF15F031
:102AB80060EF15F068EF15F06D1F6C1F6B1F6A6DE6
:102AC800000E6B236C236D236AC060F06BC061F04D
:102AD8006CC062F06DC063F0120000017835793582
:102AE8007F6F7F51D8A47BEF15F07DEF15F087EF4E
:102AF80015F0000E766F000E776F000E786F000EDF
:102B0800796FF4EF15F076C07AF077C07BF078C073
:102B18007CF079C07DF0200E97EF15F0D8907D33CA
:102B28007C337B337A33E82E92EF15F07A517E6F3F
:102B3800788FFF0E7617FF0E7717FF0E7817000EA7
:102B48007917960E7F5F7FBFAEEF15F0ACEF15F0EB
:102B5800C4EF15F07F51800A970FD8B0B6EF15F083
:102B6800B8EF15F0BAEF15F07DEF15F0D89079337E
:102B78007833773376337F3FBAEF15F0DCEF15F013
:102B88001F0E7F65CAEF15F0CCEF15F0D4EF15F0E6
:102B98007DEF15F0D89076377737783779377F0714
:102BA8007F51D8A4DAEF15F0DCEF15F0CEEF15F071
:102BB8007E51D8B4E2EF15F0E4EF15F0ECEF15F024
:102BC800791F781F771F766D000E77237823792376
:102BD80076C076F077C077F078C078F079C079F071
:102BE8001200043405340B6E0B50D8A4FEEF15F018
:102BF80000EF16F00AEF16F0000E026E000E036EDC
:102C0800000E046E000E056E77EF16F002C006F097
:102C180003C007F004C008F005C009F0200E1AEF41
:102C280016F0D8900932083207320632E82E15EF2E
:102C380016F006500A6E048EFF0E0216FF0E0316DB
:102C4800FF0E0416000E0516960E0B5E0BBE31EF36
:102C580016F02FEF16F047EF16F00B50800A970F7B
:102C6800D8B039EF16F03BEF16F03DEF16F000EF55
:102C780016F0D89005320432033202320B3E3DEF93
:102C880016F05FEF16F01F0E0B644DEF16F04FEFC6
:102C980016F057EF16F000EF16F0D890023603360C
:102CA800043605360B060B50D8A45DEF16F05FEF1F
:102CB80016F051EF16F00A50D8B465EF16F067EF2A
:102CC80016F06FEF16F0051E041E031E026C000EB0
:102CD80003220422052202C002F003C003F004C04C
:102CE80004F005C005F0120000016E6F000E00012F
:102CF800706F3F0E6E6583EF16F085EF16F089EF63
:102D080016F0400E6E5F010E706F8A946E9F6E8D86
:102D18006EC068F07051B4EC1AF06AC060F000013F
:102D2800616B000E636F080E626FB1EC17F0000163
:102D38006051BF0BB809686F7051B4EC1AF08A84FF
:102D48000001705196EC1AF00001705196EC1AF0DF
:102D580000016F6F8A946EC068F07051B4EC1AF07D
:102D680000016B51D8B4BBEF16F0BDEF16F0D1EFF0
:102D780016F06AC06CF0070E6C17010E6D6F6C2BA5
:102D8800C8EF16F0D8906D376C2FC6EF16F000011B
:102D98006D516F116F6FE4EF16F06AC06CF0070E9B
:102DA8006C17010E6D6F6C2BDCEF16F0D8906D3739
:102DB8006C2FDAEF16F000016D51FF0A6F156F6F77
:102DC8008A846FC068F07051B4EC1AF012000001E8
:102DD8006E6F000E836E8A9A270E00016D6FF50ED6
:102DE800E82EFED76D2FFCD78A8A8A988A908A9215
:102DF8008A94270E00016D6FF50EE82EFED76D2F11
:102E0800FCD7C00E0001686F000EB4EC1AF0C00EBB
:102E18000001686F010EB4EC1AF0400E0001686FF3
:102E2800000EB4EC1AF0400E0001686F010EB4EC0D
:102E38001AF0B80E0001686F000EB4EC1AF0B80E64
:102E48000001686F010EB4EC1AF000016E05D8A4F9
:102E580030EF17F032EF17F03FEF17F03F0E686FC3
:102E6800000EB4EC1AF03F0E0001686F010EB4ECCE
:102E78001AF04AEF17F03E0E686F000EB4EC1AF025
:102E88003E0E0001686F010EB4EC1AF0000EBDECA6
:102E980018F0120021EE41F010EE83F0060EDBCFA1
:102EA800E3FFE806FCE220EE4EF010EE8AF0050E95
:102EB800DBCFE3FFE806FCE221EE2FF010EE79F01D
:102EC800090EDBCFE3FFE806FCE2000EBDEC18F0CC
:102ED800020E00016A6F120E8FEC19F0830E0001CA
:102EE800736F000E746F010E756F010E766FFBEC39
:102EF80019F0020E00016A6F4E0E8FEC19F08A0E5F
:102F08000001736F000E746F010E756F010E766FFE
:102F1800FBEC19F0050E00016A6F1A0E8FEC19F020
:102F2800790E0001736F000E746F010E756F010E3C
:102F3800766FFBEC19F0150E0001786F4B0E776F6A
:102F4800BE0EE82EFED7772FFCD7782FFAD700F0E1
:102F5800000EBDEC18F000D01200000E0001656FE5
:102F680063BFBBEF17F0B9EF17F0C1EF17F0626D51
:102F7800631FD8B0632B010E656F61BFC8EF17F0F0
:102F8800C6EF17F0CEEF17F0606D611FD8B0612B58
:102F9800010E651B000E676F000E666F62516311AC
:102FA800D8B4D9EF17F0DBEF17F003EF18F0010EE4
:102FB800646FE3EF17F0D89062376337642B63AF21
:102FC800E8EF17F0EAEF17F0DFEF17F0D890663761
:102FD80067376251605D63516159D8A0F6EF17F009
:102FE800F8EF17F0FDEF17F06251605F6351615B16
:102FF8006681D89063336233642FEAEF17F0655126
:10300800D8B409EF18F00BEF18F00FEF18F0666D51
:10301800671FD8B0672B66C060F067C061F0120008
:1030280000017551711907E176517219D8A41FEF83
:1030380018F021EF18F040EF18F073C07CF074C05E
:103048007DF031EF18F07CC06AF079C06BF07151F7
:1030580078EC16F000017C4B7D2B77517C5D7D511F
:10306800800A7B6F7851800A7B59D8A03EEF18F010
:1030780040EF18F027EF18F07751731907E17851EE
:103088007419D8A44AEF18F04CEF18F06BEF18F049
:1030980071C07EF072C07FF05CEF18F073C06AF008
:1030A80079C06BF07E5178EC16F000017E4B7F2BD7
:1030B80075517E5D7F51800A7B6F7651800A7B59FE
:1030C800D8A069EF18F06BEF18F052EF18F0120063
:1030D800CB500001966F976B010E9627000E972331
:1030E80096C060F097C061F0000E61BFFF0E626F7E
:1030F800636F010E67EC0FF060C079F061C07AF081
:1031080062C07BF063C07CF0000E0001646F000EAB
:10311800656FC80E666F420E676F92C060F093C00D
:1031280061F094C062F095C063F09DEC09F060C056
:103138007DF061C07EF062C07FF063C080F072EC09
:1031480005F079C098F07AC099F07BC09AF07CC0FD
:103158009BF098C076F099C077F09AC078F09BC041
:1031680079F071EC15F000017651BB6EBA9ABA98F5
:10317800120000016A6F000E00016C6F8A94400E05
:10318800686F000EB4EC1AF0400E0001686F010E73
:10319800B4EC1AF000016C51B809686F000EB4EC79
:1031A8001AF000016C51B809686F010EB4EC1AF0FE
:1031B8008A84000E00016B6F6A51010DF3500008FC
:1031C800686F000EB4EC1AF000016A51010DF3505B
:1031D8000008686F010EB4EC1AF000016B2B3F0E6B
:1031E8006B65F9EF18F0FBEF18F0E0EF18F06C2BB7
:1031F800070E6C6502EF19F004EF19F0C2EF18F032
:103208001200000E00016B6F000E6A6F000E6D6FEA
:10321800000E6E6F8A94400E686F6E51B4EC1AF00F
:1032280000016D51B809686F6E51B4EC1AF08A84C8
:10323800000E00016C6F3B0E6A25F66E7B0E6B214B
:10324800F76E0800F5CF68F06E51B4EC1AF0000183
:103258006A4B6B2B6C2B3F0E6C6535EF19F037EF13
:1032680019F01FEF19F06E2B010E6E653EEF19F085
:1032780040EF19F00EEF19F06D2B070E6D6547EF53
:1032880019F049EF19F00CEF19F08A908A921200A0
:103298009E0EF66E340EF76E000EF86E01EE00F01C
:1032A80010EE48F00900F5CFEEFFE550E150FAE1E5
:1032B800190EF66E360EF76E000EF86E00EEE8F098
:1032C80010EE11F00900F5CFEEFFE550E150FAE1FC
:1032D800080EF66E360EF76E000EF86E00EE48F029
:1032E80010EE11F00900F5CFEEFFE550E150FAE1DC
:1032F80000EEC3F0250EEE6AE806FDE100EE34F0BC
:10330800140EEE6AE806FDE159905992000EF86E27
:1033180000011DEF11F000016C6F000E00016B6FD2
:10332800800E6C619AEF19F09CEF19F0C5EF19F057
:10333800070E6A65A2EF19F0A4EF19F0A6EF19F0CD
:10334800C5EF19F06CC0E7F06AC0E6F03F0E6C6597
:10335800B0EF19F0B2EF19F0B6EF19F0400E6C5F4C
:10336800010E6B6F8A946C514009686F6B51B4EC15
:103378001AF000016A51B809686F6B51B4EC1AF081
:103388008A84120038C083FF8086080E0001606FAF
:10339800C90EE82EFED7602FFCD700D080963EC01D
:1033A80083FF8080080E0001606FC90EE82EFED7EB
:1033B800602FFCD700D080903CC083FF8082080E2D
:1033C8000001606FC90EE82EFED7602FFCD700D031
:1033D80080923AC083FF8084080E0001606FC90E96
:1033E800E82EFED7602FFCD700D0809412001DEF86
:1033F8001AF000017551D8B404EF1AF006EF1AF06C
:1034080011EF1AF076C06AF073C0D9FF74C0DAFF02
:10341800DF50D0EC13F01AEF1AF076C06AF073C0E0
:10342800D9FF74C0DAFFDF505DEC14F00001734B74
:10343800742B73C0D9FF74C0DAFFDF50D8A427EF0C
:103448001AF029EF1AF0FDEF19F01200720ED36E80
:10345800FD0E946E0C0EBA6E000ECC6E070ECA6E80
:1034680000016E514808606FE80E6F55616F010EDC
:103478007055626F000E7155636F6EC064F06FC057
:1034880065F070C066F071C067F0EAEC14F00001F6
:103498006051CB6E1200322E52656374616E67758F
:1034A8006C616972650043686F6973697220756E33
:1034B800206D6F646500312E4F7363696C6C6F7398
:1034C800636F7065004561737953434F50450051F0
:1034D80075656E74696E0050726F6A657400000ECF
:1034E800161A000E171A000E181A800E191A12C092
:1034F80002F013C003F014C004F015C005F016C0A4
:1035080006F017C007F018C008F019C009F012EC4F
:1035180003F002C012F003C013F004C014F005C099
:1035280015F012000001606F00016051D8B49FEFE0
:103538001AF0A1EF1AF0A5EF1AF08A808A92A7EF85
:103548001AF08A928A8295688A868A8800D083CF00
:1035580061F08A9800D08A908A9200016151120025
:103568000001696F00016951D8B4BDEF1AF0BFEFCF
:103578001AF0C3EF1AF08A808A92C5EF1AF08A927D
:103588008A82000E956E8A9668C08CFF8A8800D061
:103598008A9800D08A908A921200C3C072F0C4C080
:1035A80073F0C5C074F0C6C075F06EC072F06FC01D
:1035B80073F070C074F071C075F00001759F72C02F
:1035C8006EF073C06FF074C070F075C071F01200C7
:1035D800000E956E000E836E0A0EC16E110EC26E3D
:1035E800F00E926E000E806EC00E936E000E816E0D
:1035F800F28ED08E9D8C9F9CF28CF286F180120008
:103608004A756C6573004D4355203A0045726963ED
:10361800006279007C004500320031003200310040
:0236280026007A
:10733A000000000000000000000000000000000043
:10734A000000000000000000000000000000000033
:10735A000000000000000000000000000000000023
:10736A000000000000000000000000000000000013
:10737A000000000000000000000000000000000003
:10738A0000000000000000000000000000000000F3
:10739A0000000000000000000000000000000000E3
:1073AA0000000000000000000000000000000000D3
:1073BA0000000000000000000000000000000000C3
:1073CA0000000000000000000000000000000000B3
:1073DA0000000000000000000000000000000000A3
:1073EA000000000000000000000000000000000093
:1073FA000000000000000000000000000000000083
:10740A000000000000000000000000000000000072
:10741A000000000000000000000000000000000062
:10742A000000000000000000000000000000000052
:10743A0000000000000000000000065F5F06000078
:10744A00000007070007070000147F7F147F7F14DE
:10745A0000242E6B6B3A120000466630180C6662E6
:10746A0000307A4F5D377A480004070300000000B5
:10747A0000001C3E63410000000041633E1C000006
:10748A0000082A3E1C1C3E2A0808083E3E0808003E
:10749A00000080E0600000000008080808080800F2
:1074AA000000006060000000006030180C06030154
:1074BA00003E7F71594D7F3E0040427F7F40400031
:1074CA0000627359496F660000226349497F36009A
:1074DA0000181C16537F7F5000276745457D3900E9
:1074EA00003C7E4B4979300000030371790F070095
:1074FA0000367F49497F360000064F49693F1E0022
:10750A000000006666000000000080E666000000D9
:10751A0000081C366341000000242424242424008B
:10752A0000004163361C080000020351590F06008F
:10753A00003E7F415D5D1F1E007C7E13137E7C0032
:10754A0000417F7F49497F36001C3E6341416322E7
:10755A0000417F7F41633E1C00417F7F495D41635B
:10756A0000417F7F491D0103001C3E634151737234
:10757A00007F7F08087F7F000000417F7F41000075
:10758A0000307040417F3F0100417F7F081C7763D4
:10759A0000417F7F41406070007F7F0E1C0E7F7F1D
:1075AA00007F7F060C187F7F001C3E6341633E1CF0
:1075BA0000417F7F49090F06001E3F21717F5E004F
:1075CA0000417F7F09197F6600266F4D597332008B
:1075DA000003417F7F410300007F7F40407F7F009F
:1075EA00001F3F60603F1F00007F7F3018307F7FA1
:1075FA000043673C183C674300074F78784F070001
:10760A0000476371594D677300007F7F4141000055
:10761A00000103060C183060000041417F7F000022
:10762A0000080C0603060C08008080808080808099
:10763A00800000030704000000207454543C784082
:10764A0000417F3F4848783000387C44446C280029
:10765A0000307848493F7F4000387C54545C180019
:10766A0000487E7F490302000098BCA4A4F87C0469
:10767A0000417F7F08047C780000447D7D40000043
:10768A000060E08080FD7D0000417F7F10386C44FF
:10769A000000417F7F400000007C7C18381C7C7809
:1076AA00007C7C04047C780000387C44447C3800EC
:1076BA000084FCF8A4243C1800183C24A4F8FC8498
:1076CA0000447C784C041C1800485C545474240010
:1076DA000000043E7F442400003C7C40403C7C4047
:1076EA00001C3C60603C1C00003C7C7038707C3C98
:1076FA0000446C3810386C44009CBCA0A0FC7C0090
:10770A00004C64745C4C64000008083E77414100F8
:10771A000000000077770000004141773E0808002A
:10772A0000020301030203010070784C464C787092
:10773A00000E9F91B1FB4A00003A7A40407A7A40A3
:10774A0000387C54555D19000002237555557D7B20
:10775A0042217554547D794000217555547C7840F6
:10776A0000207457577C784000183CA4A4E44000D9
:10777A0000023B7D55555D1B02397D54545D19004D
:10778A0000397D55545C18000001457C7C4101009C
:10779A00000203457D7D43020001457D7C400000D7
:1077AA0000797D1612167D790070782B2B7870007F
:1077BA0000447C7C5555450000207454547C7C540C
:1077CA00547C7E0B097F7F4900327B49497B32001A
:1077DA0000327A48487A320000327A4A48783000D1
:1077EA00003A7B41417B7A40003A7A4240787840BD
:1077FA00009ABAA0A0FA7A000001193C66663C1900
:10780A00013D7D40407D3D0000183C24E7E72424EB
:10781A0000687E7F49436620002B2FFCFC2F2B003B
:10782A0000FFFF09092FF6F8A040C088FE7F090370
:10783A0002207454557D79400000447D7D4100004A
:10784A00003078484A7A320000387840427A7A40E2
:10785A00007A7A0A0A7A7000007D7D19317D7D00EE
:10786A000000262F292F2F280000262F292F260037
:10787A000030784D456020000038380808080800B4
:10788A000008080808383800004F6F3018CCEEBBE3
:10789A00914F6F30186C76FBF90000007B7B00007B
:1078AA0000081C3622081C362222361C0822361CE6
:1078BA0008AA005500AA005500AA55AA55AA55AA11
:1078CA0055DDFFAA77DDAAFF77000000FFFF000061
:1078DA0000101010FFFF000000141414FFFF000036
:1078EA00001010FFFF00FFFF001010F0F010F0F082
:1078FA0000141414FCFC0000001414F7F700FFFF36
:10790A00000000FFFF00FFFF001414F4F404FCFC65
:10791A000014141717101F1F0010101F1F101F1F0D
:10792A00001414141F1F000000101010F0F00000C3
:10793A00000000001F1F1010101010101F1F101041
:10794A0010101010F0F0101010000000FFFF1010BF
:10795A00101010101010101010101010FFFF10103F
:10796A0010000000FFFF1414140000FFFF00FFFFC7
:10797A001000001F1F101717140000FCFC04F4F479
:10798A001414141717101717141414F4F404F4F435
:10799A00140000FFFF00F7F714141414141414143D
:1079AA00141414F7F700F7F714141414171714140F
:1079BA001410101F1F101F1F10141414F4F41414A1
:1079CA00141010F0F010F0F01000001F1F101F1F0D
:1079DA00100000001F1F141414000000FCFC1414F3
:1079EA00140000F0F010F0F0101010FFFF10FFFF6D
:1079FA0010141414FFFF1414141010101F1F000089
:107A0A0000000000F0F0101010FFFFFFFFFFFFFF63
:107A1A00FFF0F0F0F0F0F0F0F0FFFFFFFF000000E1
:107A2A000000000000FFFFFFFF0F0F0F0F0F0F0FE7
:107A3A000F387C446C386C4400FCFE2A2A3E140041
:107A4A00007E7E020206060000027E7E027E7E0222
:107A5A000063775D4963630000387C447C3C04041E
:107A6A000080FE7E20203E1E000406027E7C060266
:107A7A000099BDE7E7BD9900001C3E6B496B3E1CAF
:107A8A00004C7E7301737E4C0030784A4F7D39007A
:107A9A0000183C243C3C243C1898FC643C3E273D9E
:107AAA0018000000000000000000000000000000B4
:107ABA0000000000000000000000000000000000BC
:107ACA0000000000000000000000000000000000AC
:107ADA00000000000000000000000000000000009C
:107AEA00000000000000000000000000000000008C
:107AFA00000000000000000000000000000000007C
:107B0A00000000000000000000000000000000006B
:107B1A00000000000000000000000000000000005B
:107B2A00000000000000000000000000000000004B
:107B3A00000000000000000000808080800000003B
:107B4A0000000000000000000000000000800000AB
:107B5A00800000800000000000000000000000001B
:107B6A00000000000000000000000000000000000B
:107B7A0000000000000000000000000000000000FB
:107B8A0000000000000000000000000000000000EB
:107B9A0000000000000000000000000000000000DB
:107BAA0000000000000000000000000000000000CB
:107BBA00000000000000003E4180808080413E00BD
:107BCA0000D894A46C00007884844C0088FC8081DE
:107BDA00FF8081FF800078848484780000D894A490
:107BEA006C00007884844C000078848484780008CF
:107BFA00FC488484780000789494580000000000BF
:107C0A00D894A46C00041C6480740C0400D894A456
:107C1A006C0004FF844000789494580088FC88041F
:107C2A00FC8804F88000000000000000000000004A
:107C3A00000000000000000000000000000000003A
:107C4A00000000000000000000000000000000002A
:107C5A00000000000000000000000000000000001A
:107C6A000000000000000000000000000000000406
:107C7A0007040000000000000000000000000000EF
:107C8A0000000000000404060100000000000000DB
:107C9A0000000000000000000000000000000000DA
:107CAA0000000000000000000000000000000000CA
:107CBA0000000000000000000000000000000000BA
:107CCA0000000000000000000000000000000000AA
:107CDA00000000000000000000000000000000009A
:107CEA000080F0F8181C0E0E1C1878F0C0800000F6
:107CFA0000000000000000000000000000000080FA
:107D0A00F0F8181C0C0E0E1C18F8F0800000000089
:107D1A000000000000000000000000000000000059
:107D2A000000000000000000000000000000000049
:107D3A000000000000000000000000000000000039
:107D4A000000000000000000000000000000000029
:107D5A000000000000000000000000000000000019
:107D6A00F8FF0F0000000000000000000FFFF800FD
:107D7A000000000000000000000000000000F8FF02
:107D8A000F0000000000000000000FFFF8000000D4
:107D9A0000000000000000000000000000000000D9
:107DAA0000000000000000000000000000000000C9
:107DBA0000000000000000000000000000000000B9
:107DCA000000000000000000000800080008001C75
:107DDA00FCF8800800080008000800080008E0FF16
:107DEA003F090008000800080008000800093FFFD2
:107DFA00E00800080008000800080008E0FF3F0942
:107E0A000008000800080008000800090F0F000811
:107E1A000008000800000000000000000000000048
:107E2A000000000000000000000000000000000048
:107E3A000000000000000000000000000000000038
:107E4A000000000000000000000000000000000028
:107E5A0000073FFCE000000000000080C0FC7F0734
:107E6A000000000000000000000000000000000701
:107E7A003FFCE000000000000000C0FC7F0700009B
:107E8A0000000000000000000000000000000000E8
:107E9A0000000000000000000000000000000000D8
:107EAA0000000000000000000000000000000000C8
:107EBA0000000000000000000000000000000000B8
:107ECA0000000000000000000000000000000000A8
:107EDA0000000001070F1C18181C0F070100000002
:107EEA000000000000000000000000000000000088
:107EFA000001070F1C18181C0C0F070100000000D6
:107F0A000000000000000000000000000000000067
:107F1A000000000000000000000000000000000057
:107F2A000000000000000000000000000000000047
:107F3A0000000000005C000C000C7C287C7C447C67
:107F4A00241048285408000C003844004438002003
:107F5A001008103810804000101010004000201047
:107F6A0008384438007C006454484454281C107C67
:107F7A004C542438542004740C28542808543800CB
:107F8A0050008050001028442828284428100454FF
:107F9A0008384C5C7814787C54283844447C44383B
:107FAA007C54447C14043844347C107C007C0020CB
:107FBA00403C7C106C7C40407C087C7C047C7C448B
:107FCA007C7C14083844787C1468485424047C0463
:107FDA007C407C3C403C7C207C6C106C1C601C64AB
:107FEA00544C7C4400081020447C0008040880801B
:057FFA008004080000F6
:020000040020DA
:08000000FFFFFFFFFFFFFFFF00
:020000040030CA
:0E000000000C191EFF8181FF0FC00FE00F40A2
:00000001FF
