:020000040000FA
:0400000007EF00F016
:100008005E82E2ED0DF019EF16F00450800B0D6ED4
:10001800045004240F6E03AE14EF00F016EF00F046
:1000280017EF00F00F800F50D8B41DEF00F01FEF4E
:1000380000F034EF00F00F28D8A425EF00F027EFE8
:1000480000F02FEF00F0000E016E000E026E000EA1
:10005800036E000E046E038E000E046E3CEF00F07B
:10006800000E016E000E026E000E036E000E046E8E
:100078000850800B0E6E0D500E18D8B446EF00F0E5
:1000880048EF00F049EF00F00D8C085008240E6E80
:1000980007AE51EF00F053EF00F054EF00F00E8080
:1000A8000E50D8B45AEF00F05CEF00F071EF00F09A
:1000B8000E28D8A462EF00F064EF00F06CEF00F0B7
:1000C800000E056E000E066E000E076E000E086E1E
:1000D800078E000E086E79EF00F0000E056E000E18
:1000E800066E000E076E000E086E0F500E5CD8B03C
:1000F80080EF00F082EF00F0A9EF00F00DAC87EF81
:1001080000F089EF00F08BEF00F0800E0D1A0FC0A1
:1001180010F00EC00FF010C00EF001C010F005C0B6
:1001280001F010C005F002C010F006C002F010C0C7
:1001380006F003C010F007C003F010C007F004C0B9
:1001480010F008C004F010C008F0000E106E0F5038
:100158000EC009F00A6A095E000E0A5A0ABEBEEF0E
:1001680000F00A5009E11A0E095CD8A0BEEF00F0B1
:10017800C0EF00F0F7EF00F0015002100310041078
:10018800D8A4C9EF00F0CCEF00F0010ECDEF00F0DD
:10019800000E106E000E016E000E026E000E036E51
:1001A800000E046E0EC00FF000EF01F010A0DFEF9C
:1001B80000F0E1EF00F0E7EF00F0D890103001090F
:1001C800106EE9EF00F0D890103201A0EEEF00F0C9
:1001D800F0EF00F0F1EF00F0108E04340432033237
:1001E800023201320F2A0E500F5CD8A0FEEF00F049
:1001F80000EF01F0DAEF00F00DBC05EF01F007EFBA
:1002080001F047EF01F00F50D8A40DEF01F00FEF08
:1002180001F019EF01F0000E016E000E026E000EE3
:10022800036E000E046E68EF02F0055001260650BA
:100238000222075003220850042204A026EF01F0EE
:1002480028EF01F0D4EF01F010A02DEF01F02FEF0F
:1002580001F035EF01F0D89010300109106E37EF3A
:1002680001F0D890103201A03CEF01F03EEF01F010
:100278003FEF01F0108E04340432033202320132AF
:100288000F2AD4EF01F00550015C065002580750C0
:1002980003580450800A096E0850800A0958D8B0DB
:1002A80058EF01F05AEF01F085EF01F00150055CBD
:1002B800096E025006580A6E035007580B6E045018
:1002C80008580C6EFF0E0924016EFF0E0A20026EFC
:1002D800FF0E0B20036EFF0E0C20046E800E0D1A0D
:1002E800106C1050D8A47BEF01F07DEF01F08DEF7A
:1002F80001F0010E0126000E0222032204228DEFD6
:1003080001F00550015E0650025A0750035A085082
:10031800045A0150021003100410D8A496EF01F0FB
:1003280098EF01F0CDEF01F01050D8A49EEF01F046
:10033800A0EF01F0CDEF01F0000E016E000E026E8D
:10034800000E036E000E046E68EF02F0D8900136BE
:1003580002360336043610AEB4EF01F0B6EF01F002
:10036800B7EF01F0018010A0BCEF01F0BEEF01F083
:10037800C2EF01F0D8801036C4EF01F0D8901036E3
:100388000F50D8B4CAEF01F0CCEF01F0CDEF01F077
:100398000F0603AED2EF01F0D4EF01F0AAEF01F09F
:1003A800000E0E6E10AEDBEF01F0DDEF01F0F5EFA1
:1003B80001F010C009F07F0E0916D8B4E6EF01F07D
:1003C800E8EF01F0ECEF01F0010E0E6EF5EF01F031
:1003D80001A0F1EF01F0F3EF01F0F5EF01F0E8EF24
:1003E80001F00E50D8B4FBEF01F0FDEF01F028EF5B
:1003F80002F0010E0126000E02220322042204A0AC
:1004080008EF02F00AEF02F028EF02F001C009F04D
:1004180002C00AF003C00BF004C00CF00C340C321C
:100428000B320A32093209C001F00AC002F00BC0CF
:1004380003F00CC004F00F28D8B425EF02F027EF22
:1004480002F028EF02F00F2A0F28D8B42EEF02F09E
:1004580030EF02F038EF02F00F50D8A436EF02F078
:1004680038EF02F04AEF02F0000E016E000E026E45
:10047800000E036E000E046E0F50D8A446EF02F073
:1004880048EF02F04AEF02F0000E0D6E0FA04FEF9A
:1004980002F051EF02F054EF02F0038E55EF02F034
:1004A800039ED8900F30046E0DAE5DEF02F05FEF43
:1004B80002F060EF02F0048E01C001F002C002F009
:1004C80003C003F004C004F0120000017C51800B4B
:1004D800856F7C517C258B6F7BAF75EF02F077EFD2
:1004E80002F078EF02F08B818B51D8B47EEF02F0E6
:1004F80080EF02F093EF02F08B29D8A486EF02F088
:1005080088EF02F090EF02F0000E796F000E7A6F1C
:10051800000E7B6F000E7C6F7B8F9BEF02F0000E4E
:10052800796F000E7A6F000E7B6F000E7C6F805122
:10053800800B851B805180258A6F7FAFA6EF02F064
:10054800A8EF02F0A9EF02F08A818A51D8B4AFEF80
:1005580002F0B1EF02F0C4EF02F08A29D8A4B7EF95
:1005680002F0B9EF02F0C1EF02F0000E7D6F000E4D
:100578007E6F000E7F6F000E806F7F8FCCEF02F0D2
:10058800000E7D6F000E7E6F000E7F6F000E806F75
:100598008A51D8B4D2EF02F0D4EF02F0DCEF02F0C7
:1005A8008B51D8A4DAEF02F0DCEF02F0E6EF02F0AC
:1005B800000E796F000E7A6F000E7B6F000E7C6F55
:1005C8007EEF04F07F517903F3CF90F0F4CF91F0F0
:1005D8009051866F876B886B896B91518C6F8D6B8F
:1005E8008E6B8F6B7E517A03F3CF90F0F4CF91F03E
:1005F80090518627000E87238823892391518C27C1
:10060800000E8D238E238F237D517B03F3CF90F033
:10061800F4CF91F090518627000E872388238923F1
:1006280091518C27000E8D238E238F2388C089F04B
:1006380087C088F086C087F0866B7D517A03F3CF38
:1006480090F0F4CF91F09051862791518723000EB6
:100658008823000E89237E517903F3CF90F0F4CFDD
:1006680091F09051862791518723000E8823000E20
:10067800892388C089F087C088F086C087F0866B98
:100688007D517903F3CF90F0F4CF91F09051862704
:1006980091518723000E8823000E89237F517A0306
:1006A800F3CF90F0F4CF91F090518C2791518D2396
:1006B800000E8E23000E8F237E517B03F3CF90F024
:1006C800F4CF91F090518C2791518D23000E8E23F9
:1006D800000E8F237F517B03F3CF90F0F4CF91F07E
:1006E8009051816F9151826F836B846B83C084F0CA
:1006F80082C083F081C082F0816B81518C27825146
:100708008D2383518E2384518F2386C081F087C027
:1007180082F088C083F089C084F0190E99EF03F045
:10072800D8908433833382338133E82E94EF03F0F7
:1007380081518C2782518D2383518E2384518F239D
:1007480088C089F087C088F086C087F0866B8A5198
:100758008BC081F0826B8127000E8223820E812557
:10076800906FFF0E8221916FCFEF03F0D8908C37F6
:100778008D378E378F3789AFC4EF03F0C6EF03F09C
:10078800C7EF03F08C81D890863787378837893749
:100798009007D8A091078EAFD4EF03F0D6EF03F0FF
:1007A800BAEF03F0000E8A6F89AFDDEF03F0DFEFD9
:1007B80003F003EF04F0FF0E8615816FFF0E871517
:1007C800826FFF0E8815836F7F0E8915846F8151A4
:1007D800821183118411D8B4F4EF03F0F6EF03F01B
:1007E800FAEF03F0010E8A6F03EF04F08CA1FFEF1C
:1007F80003F001EF04F003EF04F0F6EF03F08A5181
:10080800D8B409EF04F00BEF04F02FEF04F0010E59
:100818008C27000E8D238E238F238FA116EF04F0D3
:1008280018EF04F02FEF04F08CC081F08DC082F037
:100838008EC083F08FC084F0843584338333823351
:10084800813381C08CF082C08DF083C08EF084C06B
:100858008FF0904B912B91BF3AEF04F0915108E142
:100868009029D8A03AEF04F03CEF04F046EF04F0EA
:10087800000E8C6F000E8D6F800E8E6F7F0E8F6F47
:1008880074EF04F091BF53EF04F0915106E1900525
:10089800D8B051EF04F053EF04F05FEF04F0000E0E
:1008A8008C6F000E8D6F000E8E6F000E8F6F000E16
:1008B800856F74EF04F090C08BF0FF0E8C17FF0E5D
:1008C8008D177F0E8E17000E8F178BA16EEF04F019
:1008D80070EF04F071EF04F08E8FD8908B318F6F2A
:1008E80085518F138CC079F08DC07AF08EC07BF063
:1008F8008FC07CF012001250800B1B6E1250122415
:10090800216E11AE8AEF04F08CEF04F08DEF04F045
:1009180021802150D8B493EF04F095EF04F0A8EFAC
:1009280004F02128D8A49BEF04F09DEF04F0A5EF74
:1009380004F0000E0F6E000E106E000E116E000E09
:10094800126E118EB0EF04F0000E0F6E000E106ED6
:10095800000E116E000E126E1650800B1B1A1650E8
:100968001624206E15AEBBEF04F0BDEF04F0BEEF09
:1009780004F020802050D8B4C4EF04F0C6EF04F08F
:10098800D9EF04F02028D8A4CCEF04F0CEEF04F07F
:10099800D6EF04F0000E136E000E146E000E156EE6
:1009A800000E166E158EE1EF04F0000E136E000EA9
:1009B800146E000E156E000E166E2050D8B4E7EFB8
:1009C80004F0E9EF04F0F1EF04F02150D8A4EFEFC0
:1009D80004F0F1EF04F0FBEF04F0000E0F6E000ED0
:1009E800106E000E116E000E126E93EF06F0155089
:1009F8000F02F3CF26F0F4CF27F026501C6E1D6AA5
:100A08001E6A1F6A2750226E236A246A256A1450B8
:100A18001002F3CF26F0F4CF27F026501C26000E44
:100A28001D221E221F2227502226000E23222422A6
:100A3800252213501102F3CF26F0F4CF27F02650C9
:100A48001C26000E1D221E221F2227502226000EC1
:100A58002322242225221EC01FF01DC01EF01CC008
:100A68001DF01C6A13501002F3CF26F0F4CF27F0C4
:100A780026501C2627501D22000E1E22000E1F2263
:100A880014500F02F3CF26F0F4CF27F026501C267F
:100A980027501D22000E1E22000E1F221EC01FF00E
:100AA8001DC01EF01CC01DF01C6A13500F02F3CFAE
:100AB80026F0F4CF27F026501C2627501D22000EC2
:100AC8001E22000E1F2215501002F3CF26F0F4CF7D
:100AD80027F02650222627502322000E2422000E1B
:100AE800252214501102F3CF26F0F4CF27F0265018
:100AF800222627502322000E2422000E25221550DC
:100B08001102F3CF26F0F4CF27F02650176E2750A6
:100B1800186E196A1A6A19C01AF018C019F017C0A5
:100B280018F0176A17502226185023221950242229
:100B38001A5025221CC017F01DC018F01EC019F04D
:100B48001FC01AF0190EAEEF05F0D8901A321932FC
:100B580018321732E82EA9EF05F017502226185040
:100B68002322195024221A5025221EC01FF01DC00E
:100B78001EF01CC01DF01C6A205021C017F0186A16
:100B88001726000E1822820E1724266EFF0E182034
:100B9800276EE4EF05F0D890223623362436253622
:100BA8001FAED9EF05F0DBEF05F0DCEF05F0228092
:100BB800D8901C361D361E361F362606D8A02706A6
:100BC80024AEE9EF05F0EBEF05F0CFEF05F0000EEE
:100BD800206E1FAEF2EF05F0F4EF05F018EF06F007
:100BE800FF0E1C14176EFF0E1D14186EFF0E1E1438
:100BF800196E7F0E1F141A6E1750181019101A103C
:100C0800D8B409EF06F00BEF06F00FEF06F0010E6F
:100C1800206E18EF06F022A014EF06F016EF06F08B
:100C280018EF06F00BEF06F02050D8B41EEF06F0D0
:100C380020EF06F044EF06F0010E2226000E2322D4
:100C48002422252225A02BEF06F02DEF06F044EFF5
:100C580006F022C017F023C018F024C019F025C0F0
:100C68001AF01A341A3219321832173217C022F011
:100C780018C023F019C024F01AC025F0264A272AE4
:100C880027BE4FEF06F0275008E12628D8A04FEFDF
:100C980006F051EF06F05BEF06F0000E226E000E34
:100CA800236E800E246E7F0E256E89EF06F027BE18
:100CB80068EF06F0275006E12604D8B066EF06F084
:100CC80068EF06F074EF06F0000E226E000E236E39
:100CD800000E246E000E256E000E1B6E89EF06F0C6
:100CE80026C021F0FF0E2216FF0E23167F0E2416B3
:100CF800000E251621A083EF06F085EF06F086EF9B
:100D080006F0248ED8902130256E1B50251222C063
:100D18000FF023C010F024C011F025C012F012000B
:100D280000016351800B706F63516325776F62AF69
:100D3800A0EF06F0A2EF06F0A3EF06F07781775157
:100D4800D8B4A9EF06F0ABEF06F0C0EF06F07729AC
:100D5800D8A4B1EF06F0B3EF06F0BBEF06F0000E33
:100D6800606F000E616F000E626F000E636F628F1E
:100D7800000E636FC8EF06F0000E606F000E616F23
:100D8800000E626F000E636F6751800B701B675116
:100D98006725786F66AFD3EF06F0D5EF06F0D6EF8C
:100DA80006F078817851D8B4DCEF06F0DEEF06F073
:100DB800F3EF06F07829D8A4E4EF06F0E6EF06F0A2
:100DC800EEEF06F0000E646F000E656F000E666FA2
:100DD800000E676F668F000E676FFBEF06F0000E60
:100DE800646F000E656F000E666F000E676F6451CA
:100DF800651166116711D8A404EF07F006EF07F034
:100E08001EEF07F0000E606F000E616F000E626F3C
:100E1800000E636F800E62137F0E631370516313AD
:100E280060C060F061C061F062C062F063C063F0EE
:100E380061EF08F07751D8A424EF07F026EF07F008
:100E480030EF07F0000E606F000E616F000E626FEA
:100E5800000E636F61EF08F0785177C068F0696B36
:100E6800685F000E695B7F0E6825716F000E69214F
:100E7800726F60C06CF061C06DF062C06EF063C0EC
:100E88006FF0000E606F000E616F000E626F000E53
:100E9800636F000E736F000E746F000E756F000E97
:100EA800766F000E786F91EF07F07851D8B45FEF46
:100EB80007F061EF07F078EF07F0D8906C376D37DF
:100EC8006E376F37D890603761376237633776AFE0
:100ED80070EF07F072EF07F073EF07F06081D890BA
:100EE800733774377537763764516C5D65516D5952
:100EF80066516E5967516F59D8A085EF07F087EF93
:100F080007F090EF07F0768D64516C5F65516D5B6B
:100F180066516E5B67516F5B782B190E786597EF9A
:100F280007F099EF07F059EF07F06C516D116E114A
:100F38006F11D8B4A2EF07F0A4EF07F0BCEF07F0E9
:100F48007381BCEF07F0D890603761376237633739
:100F580076AFB1EF07F0B3EF07F0B4EF07F06081B9
:100F6800D89073377437753776377107D8A07207FA
:100F780062AFC1EF07F0C3EF07F0A7EF07F0000E6D
:100F8800786F76AFCAEF07F0CCEF07F0F0EF07F015
:100F9800FF0E7315686FFF0E7415696FFF0E7515D8
:100FA8006A6F7F0E76156B6F685169116A116B1144
:100FB800D8B4E1EF07F0E3EF07F0E7EF07F0010E31
:100FC800786FF0EF07F060A1ECEF07F0EEEF07F0B5
:100FD800F0EF07F0E3EF07F07851D8B4F6EF07F039
:100FE800F8EF07F01CEF08F0010E6027000E6123F0
:100FF8006223632363A103EF08F005EF08F01CEFF9
:1010080008F060C068F061C069F062C06AF063C04F
:101018006BF06B356B336A336933683368C060F0E3
:1010280069C061F06AC062F06BC063F0714B722BEB
:1010380072BF27EF08F0725108E17129D8A027EF95
:1010480008F029EF08F034EF08F0000E726F7169AC
:10105800000E606F000E616F000E626F000E636F0E
:1010680072BF41EF08F0725106E17105D8B03FEF49
:1010780008F041EF08F04FEF08F0000E726F000E15
:10108800716F000E606F000E616F000E626F000ED0
:10109800636F000E706F71C077F077A156EF08F09C
:1010A80058EF08F05BEF08F0628F5CEF08F0629F82
:1010B800D8907731636F12EF07F01200000E00012D
:1010C800F76F000EF66F000EEF6F010EEE6FEC0576
:1010D800ED11D8A472EF08F074EF08F00AEF09F0E8
:1010E800000EED6F000EEC6FD5C082F0D6C083F015
:1010F800D3C084F0D4C085F0D1C086F0D2C087F0C8
:10110800CFC088F0D0C089F0000E986F000E976F9E
:1011180097C06AF00F0E5CEC16F0880E0001736F32
:10112800000E746F010E756F010E766FC8EC16F025
:101138000001974B982B98BFABEF08F0985109E145
:10114800080E975DD8A0ABEF08F0ADEF08F08CEF74
:1011580008F0000E726F000E716F000E746F110EA2
:10116800736F000E766F140E756F000E786F110E88
:10117800776F000E7A6F010E796F8EEC14F0000114
:10118800F051F111D8A4CBEF08F0CDEF08F0DFEF64
:1011980008F0010E6A6F020E5CEC16F0820E000178
:1011A800736F000E746F010E756F010E766FC8ECC9
:1011B80016F00AEF09F0F005F111D8A4E6EF08F0EF
:1011C800E8EF08F0FAEF08F0010E6A6F020E5CEC27
:1011D80016F0840E0001736F000E746F010E756FA8
:1011E800010E766FC8EC16F00AEF09F0010E6A6F6F
:1011F800020E5CEC16F0860E0001736F000E746F21
:10120800010E756F010E766FC8EC16F05650300F50
:1012180000018A6F5850300F8B6F5A50300F8C6F07
:101228005C50300F8D6F000E8E6F000E8F6F000EAA
:10123800906F8AC08EF02E0E8F6F000E906F000E8A
:10124800926F000E916F8BC091F0000E926F000E9E
:10125800946F000E936F8CC093F0000E946F000E85
:10126800966F000E956F8DC095F0000E966F030E69
:101278006A6F020E5CEC16F08E0E0001736F000EA2
:10128800746F010E756F010E766FC8EC16F0040EC0
:1012980000016A6F020E5CEC16F0910E0001736F8C
:1012A800000E746F010E756F010E766FC8EC16F0A4
:1012B800050E00016A6F020E5CEC16F0930E000139
:1012C800736F000E746F010E756F010E766FC8ECA8
:1012D80016F0060E00016A6F020E5CEC16F0950E11
:1012E8000001736F000E746F010E756F010E766F3B
:1012F800C8EC16F00001EBBF8DEF09F0EB5107E1E8
:10130800630EEA5DD8B08BEF09F08DEF09F0B5EF09
:1013180009F01C0EEA25716F000EEB21726F000EAA
:10132800746F000E736F1C0EEA25756F000EEB21AB
:10133800766F000E786F400E776F000E7A6F000E92
:10134800796F8EEC14F080C06AF0010E00016B6FAB
:10135800EA511B0F55EC13F00001EA4BEB2BE7EFBA
:1013680009F0EBBFC1EF09F0EB5109E1630EEA5D4B
:10137800D8A0C1EF09F0C3EF09F0E7EF09F0000EBC
:10138800EB6F000EEA6F000E726F1C0E716F000E8D
:10139800746F000E736F000E766F1C0E756F000E63
:1013A800786F400E776F000E7A6F000E796F8EECB3
:1013B80014F080C06AF0010E00016B6F1B0E55EC33
:1013C80013F0B0EF09F0120028C001F029C002F0B4
:1013D800000E02BEFF0E036E046E010E08EC0DF047
:1013E80001C00FF002C010F003C011F004C012F0E9
:1013F800A10E136EDE0E146EA70E156E3C0E166E41
:101408007FEC04F00FC02AF010C02BF011C02CF0B4
:1014180012C02DF02AC001F02BC002F02CC003F03E
:101428002DC004F0D2EC12F001C056F002C057F003
:101438002AC011F02BC012F02CC013F02DC014F0EC
:1014480056C001F057C002F0000E02BEFF0E036E38
:10145800046E010E08EC0DF001C015F002C016F084
:1014680003C017F004C018F01CEC17F011C02AF0E4
:1014780012C02BF013C02CF014C02DF02AC00FF0AE
:101488002BC010F02CC011F02DC012F0000E136EFE
:10149800000E146E200E156E410E166E7FEC04F0D1
:1014A8000FC02AF010C02BF011C02CF012C02DF084
:1014B8002AC001F02BC002F02CC003F02DC004F0AC
:1014C800D2EC12F001C058F002C059F02AC011F055
:1014D8002BC012F02CC013F02DC014F058C001F02E
:1014E80059C002F0000E02BEFF0E036E046E010E1C
:1014F80008EC0DF001C015F002C016F003C017F09B
:1015080004C018F01CEC17F011C02AF012C02BF020
:1015180013C02CF014C02DF02AC00FF02BC010F00F
:101528002CC011F02DC012F0000E136E000E146EB8
:10153800200E156E410E166E7FEC04F00FC02AF0D7
:1015480010C02BF011C02CF012C02DF02AC001F0F1
:101558002BC002F02CC003F02DC004F0D2EC12F026
:1015680001C05AF002C05BF02AC011F02BC012F083
:101578002CC013F02DC014F05AC001F05BC002F06B
:10158800000E02BEFF0E036E046E010E08EC0DF095
:1015980001C015F002C016F003C017F004C018F01F
:1015A8001CEC17F011C02AF012C02BF013C02CF05D
:1015B80014C02DF02AC00FF02BC010F02CC011F071
:1015C8002DC012F0000E136E000E146E200E156E54
:1015D800410E166E7FEC04F00FC02AF010C02BF0FD
:1015E80011C02CF012C02DF02AC001F02BC002F05F
:1015F8002CC003F02DC004F0D2EC12F001C05CF056
:1016080002C05DF05CC001F05DC002F06EEC0FF04E
:1016180001C054F002C055F05AC001F05BC002F09E
:101628006EEC0FF001C052F002C053F058C001F048
:1016380059C002F06EEC0FF001C050F002C051F03A
:1016480056C001F057C002F06EEC0FF0800E012476
:101658004E6E000E02204F6E12000001F205F311CB
:10166800D8A439EF0BF03BEF0BF0BDEF0BF021EEF8
:1016780010F010EE80F00F0EDBCFE3FFE806FCE27F
:1016880021EE20F010EEA0F00E0EDBCFE3FFE8060F
:10169800FCE221EE00F010EE90F00F0EDBCFE3FF3E
:1016A800E806FCE2D9C0AFF0DAC0B0F0D7C0B1F0BC
:1016B800D8C0B2F0000E6A6F020E5CEC16F0800E15
:1016C8000001736F000E746F010E756F010E766F57
:1016D800C8EC16F0020E00016A6F020E5CEC16F000
:1016E800A00E0001736F000E746F010E756F010E6E
:1016F800766FC8EC16F0030E00016A6F020E5CEC00
:1017080016F0900E0001736F000E746F010E756F66
:10171800010E766FC8EC16F0030E00016A6F020E18
:101728005CEC16F0050E00016A6F2A0E5CEC16F0F0
:10173800AF0E0001736F000E746F010E756F010E0E
:10174800766FC8EC16F0050E00016A6F520E5CEC5D
:1017580016F0B10E0001736F000E746F010E756FF5
:10176800010E766FC8EC16F0000E0001F36F000E44
:10177800F26FF451F511D8A4C4EF0BF0C6EF0BF0DB
:10178800F5EF0BF0000E726F520E716F000E746F52
:10179800340E736F000E766F5A0E756F000E786FE9
:1017A800340E776F000E7A6F000E796F8EEC14F09E
:1017B800000E0001726F2A0E716F000E746F340EE6
:1017C800736F000E766F320E756F000E786F340EE1
:1017D800776F000E7A6F010E796F8EEC14F02BEF95
:1017E8000CF0F405F511D8A4FCEF0BF0FEEF0BF0AC
:1017F8002BEF0CF0000E726F520E716F000E746FAB
:10180800340E736F000E766F5A0E756F000E786F78
:10181800340E776F000E7A6F010E796F8EEC14F02C
:10182800000E0001726F2A0E716F000E746F340E75
:10183800736F000E766F320E756F000E786F340E70
:10184800776F000E7A6F000E796F8EEC14F012002D
:101858000001686F00016851D8B435EF0CF037EF1C
:101868000CF059EF0CF063BF3EEF0CF03CEF0CF0BE
:1018780059EF0CF060C064F061C065F062C066F0BA
:1018880063C067F0641F651F661F671F642B000E27
:1018980065236623672364C06AF065C06BF066C081
:1018A8006CF067C06DF061EF0CF060C06AF061C069
:1018B8006BF062C06CF063C06DF060516111621131
:1018C8006311D8A46AEF0CF06CEF0CF076EF0CF013
:1018D800000E606F000E616F000E626F000E636F86
:1018E80007EF0DF0960E696F80EF0CF0692BD8901A
:1018F8006D336C336B336A33000E6A15646F000EF8
:101908006B15656F000E6C15666FFE0E6D15676FB3
:101918006451651166116711D8A495EF0CF097EF23
:101928000CF07AEF0CF0A5EF0CF0692B010E6A278A
:10193800000E6B236C236D23D8906D336C336B339F
:101948006A33000E6A15646F000E6B15656F000E22
:101958006C15666FFF0E6D15676F64516511661122
:101968006711D8A4BAEF0CF0BCEF0CF099EF0CF0AB
:10197800C4EF0CF06907D8906A376B376C376D374E
:101988006CBFC9EF0CF0CBEF0CF0D3EF0CF0020EEC
:101998006961D1EF0CF0D3EF0CF0BEEF0CF069B138
:1019A800D8EF0CF0DAEF0CF0DBEF0CF06C9FD8906E
:1019B800693369C064F0656B666B676B64C067F018
:1019C800666B656B646B64516A1365516B13665182
:1019D8006C1367516D136851D8B4F5EF0CF0F7EF3D
:1019E8000CF0FFEF0CF063BFFEEF0CF0FCEF0CF017
:1019F800FFEF0CF06D8F6AC060F06BC061F06CC0D7
:101A080062F06DC063F01200096E0950D8B40FEF90
:101A18000DF011EF0DF033EF0DF004BE18EF0DF0DF
:101A280016EF0DF033EF0DF001C005F002C006F01F
:101A380003C007F004C008F0051E061E071E081E96
:101A4800052A000E06220722082205C00BF006C050
:101A58000CF007C00DF008C00EF03BEF0DF001C010
:101A68000BF002C00CF003C00DF004C00EF00150E2
:101A7800021003100410D8A444EF0DF046EF0DF047
:101A880050EF0DF0000E016E000E026E000E036E98
:101A9800000E046EE1EF0DF0960E0A6E5AEF0DF08F
:101AA8000A2AD8900E320D320C320B32000E0B146B
:101AB800056E000E0C14066E000E0D14076EFE0E59
:101AC8000E14086E0550061007100810D8A46FEF02
:101AD8000DF071EF0DF054EF0DF07FEF0DF00A2AC5
:101AE800010E0B26000E0C220D220E22D8900E326B
:101AF8000D320C320B32000E0B14056E000E0C1456
:101B0800066E000E0D14076EFF0E0E14086E0550BB
:101B1800061007100810D8A494EF0DF096EF0DF0FA
:101B280073EF0DF09EEF0DF00A06D8900B360C36C9
:101B38000D360E360DBEA3EF0DF0A5EF0DF0ADEF8F
:101B48000DF0020E0A60ABEF0DF0ADEF0DF098EF5F
:101B58000DF00AB0B2EF0DF0B4EF0DF0B5EF0DF0E7
:101B68000D9ED8900A320AC005F0066A076A086A0C
:101B780005C008F0076A066A056A05500B12065088
:101B88000C1207500D1208500E120950D8B4CFEF9E
:101B98000DF0D1EF0DF0D9EF0DF004BED8EF0DF038
:101BA800D6EF0DF0D9EF0DF00E8E0BC001F00CC082
:101BB80002F00DC003F00EC004F012000600F3CFCF
:101BC8002FF0F4CF30F09EACECEF0DF0EEEF0DF00F
:101BD800F9EF0DF09E9CC4CFE6F00001E76BE6C07C
:101BE80028F0E7C029F0E8EC09F0F2A0FEEF0DF0CC
:101BF80000EF0EF0A8EF0EF0F2901A0E2E6EF80E0F
:101C0800E82EFED72E2EFCD700D081AC0EEF0EF0BA
:101C180010EF0EF052EF0EF04C504D10D8A417EF05
:101C28000EF019EF0EF04CEF0EF00001F605F7116B
:101C3800D8A421EF0EF023EF0EF034EF0EF0F4519C
:101C4800F511D8A42AEF0EF02CEF0EF034EF0EF0B9
:101C5800000EF56F010EF46F4C4A4D2AA8EF0EF0F6
:101C6800F605F711D8A43BEF0EF03DEF0EF052EF5A
:101C78000EF0F405F511D8A444EF0EF046EF0EF07F
:101C880052EF0EF0000EF56F000EF46F30EF0EF00D
:101C9800000E4D6E000E4C6EA8EF0EF081AE57EFA1
:101CA8000EF059EF0EF0A8EF0EF04A504B10D8A4E2
:101CB80060EF0EF062EF0EF0A2EF0EF00001F605F5
:101CC800F711D8A46AEF0EF06CEF0EF089EF0EF062
:101CD800F451F511D8A473EF0EF075EF0EF0A8EFDC
:101CE8000EF0000EF76F000EF66F000EEF6F010E8C
:101CF800EE6F4A4A4B2A000EED6F010EEC6F000E94
:101D0800E96F010EE86FA8EF0EF0EE05EF11D8A409
:101D180090EF0EF092EF0EF0A8EF0EF0000EF76FB6
:101D2800010EF66F000EEF6F000EEE6F4A4A4B2A57
:101D3800000EF36F010EF26F83EF0EF0000E4B6E84
:101D4800000E4A6EA8EF0EF030C0F4FF2FC0F3FF6C
:101D58005E921100100E0001FA6F270EFB6F000E45
:101D6800FC6F000EFD6F000EFF6F4B0EFE6F8DECCB
:101D780017F0010EE6EC14F0D2EC15F0150E000188
:101D8800B46F4B0EB36FBE0EE82EFED7B32FFCD741
:101D9800B42FFAD700F0C8EC13F010EC10F0100EC6
:101DA80000016E6F270E6F6F000E706F000E716F5F
:101DB800F7EC16F04B0E0001606F000E616F000E1D
:101DC800626F000E636F010E2CEC0CF060C0B5F072
:101DD80061C0B6F062C0B7F063C0B8F0B5C092F0A9
:101DE800B6C093F0B7C094F0B8C095F039EC15F0D0
:101DF800000E0001ED6F010EEC6F000EF16F000E8A
:101E0800F06F000EF36F010EF26F808A000EEF6F15
:101E1800000EEE6F000EF76F010EF66F000EF56FF5
:101E2800010EF46FC2820001E805E911D8A41FEF82
:101E38000FF021EF0FF028EF0FF0000EE96F000E02
:101E4800E86F000E8AEC15F00001F605F711D8A42A
:101E580030EF0FF032EF0FF03AEF0FF0000EEF6FA8
:101E6800000EEE6F31EC0BF068EF0FF0EE05EF119E
:101E7800D8A441EF0FF043EF0FF068EF0FF0000E1A
:101E8800F76F000EF66FC00EB36FFF0EB46FE6C0AB
:101E980060F0E7C061F0000E636F040E626F2BEC18
:101EA80014F00001B3516027B4516123601F611F12
:101EB800604B612B60C0B9F061C0BAF0B9C080F066
:101EC800BAC081F062EC08F093EC16F016EF0FF050
:101ED80007EF00F001500210D8A475EF0FF077EF6C
:101EE8000FF07DEF0FF0000E026E3F0E016E0FEF48
:101EF80010F001040210D8A484EF0FF086EF0FF061
:101F08008CEF0FF0000E026E060E016E0FEF10F050
:101F1800020E01180210D8A494EF0FF096EF0FF0FC
:101F28009CEF0FF0000E026E5B0E016E0FEF10F0CB
:101F3800030E01180210D8A4A4EF0FF0A6EF0FF0BB
:101F4800ACEF0FF0000E026E4F0E016E0FEF10F0A7
:101F5800040E01180210D8A4B4EF0FF0B6EF0FF07A
:101F6800BCEF0FF0000E026E660E016E0FEF10F060
:101F7800050E01180210D8A4C4EF0FF0C6EF0FF039
:101F8800CCEF0FF0000E026E6D0E016E0FEF10F029
:101F9800060E01180210D8A4D4EF0FF0D6EF0FF0F8
:101FA800DCEF0FF0000E026E7D0E016E0FEF10F0E9
:101FB800070E01180210D8A4E4EF0FF0E6EF0FF0B7
:101FC800ECEF0FF0000E026E070E016E0FEF10F02F
:101FD800080E01180210D8A4F4EF0FF0F6EF0FF076
:101FE800FCEF0FF0000E026E7F0E016E0FEF10F087
:101FF800090E01180210D8A404EF10F006EF10F033
:102008000CEF10F0000E026E6F0E016E0FEF10F065
:10201800000E026E01681200CCC08CF0CDC08DF0AD
:10202800CEC08EF020EEC7F010EE87F0040EDBCFA6
:10203800E3FFE806FCE2DBC08FF0DCC090F020EEA6
:102048003BF010EE79F0070EDBCFE3FFE806FCE289
:1020580020EEBBF010EE81F0050EDBCFE3FFE806C3
:10206800FCE2000E00016A6F340E5CEC16F08C0E78
:102078000001736F000E746F010E756F010E766F9D
:10208800C8EC16F0020E00016A6F2D0E5CEC16F01B
:10209800870E0001736F000E746F010E756F010ECD
:1020A800766FC8EC16F0030E00016A6F360E5CEC12
:1020B80016F08F0E0001736F000E746F010E756FAE
:1020C800010E766FC8EC16F0040E00016A6F230E3D
:1020D8005CEC16F0790E0001736F000E746F010E40
:1020E800756F010E766FC8EC16F0050E00016A6F69
:1020F800360E5CEC16F08F0E0001736F000E746FD5
:10210800010E756F010E766FC8EC16F0060E000111
:102118006A6F290E5CEC16F0810E0001736F000ED9
:10212800746F010E756F010E766FC8EC16F0150E00
:102138000001786F4B0E776FBE0EE82EFED7772F13
:10214800FCD7782FFAD700F0000E8AEC15F000D0F3
:10215800120000016F6F000E0001726F0A0E6F19F6
:10216800D8A4B9EF10F0BBEF10F0C0EF10F0000EDC
:10217800F96FF82B39EF11F03F0EF965C6EF10F043
:10218800C8EF10F0CFEF10F0010E726FF951C00FC9
:10219800706FD1EF10F0F9C070F06F51080DF3CFE8
:1021A8006DF0F4CF6EF0000E716F3F0E7065DFEFCB
:1021B80010F0E1EF10F0F4EF10F0400E705F010E38
:1021C800726F8A9470514009686F010E5AEC17F0CB
:1021D8000001F851B809686F010E5AEC17F08A84AB
:1021E80000016A51D8B4FBEF10F0FDEF10F015EFC5
:1021F80011F03B0E6B6F730E6C6F71516B27000EF5
:102208006C236D516B276E516C236BC0F6FF6CC04D
:10221800F7FF0800F5CF68F072515AEC17F02CEF71
:1022280011F03B0E6B6F730E6C6F71516B27000EC4
:102238006C236D516B276E516C236BC0F6FF6CC01D
:10224800F7FF0800F550FF0A686F72515AEC17F053
:102258000001702B712B070E716535EF11F037EF08
:1022680011F0D9EF10F0080EF927120000016E6F77
:10227800000E0001706F0A0E6E19D8A446EF11F017
:1022880048EF11F04DEF11F0000EF96FF82BC6EF83
:1022980011F03F0EF96553EF11F055EF11F05CEFB7
:1022A80011F0010E706FF951C00F6D6F5EEF11F0F4
:1022B800F9C06DF0200E6E5F000E6F6F3F0E6D65FA
:1022C80068EF11F06AEF11F07DEF11F0400E6D5FCD
:1022D800010E706F8A946D514009686F010E5AECB7
:1022E80017F00001F851B809686F010E5AEC17F0A1
:1022F8008A8400016A51D8B484EF11F086EF11F096
:10230800A0EF11F06E51030D3B0E6B6F7F0E6C6FDB
:10231800F3506B27F4506C236F516B27000E6C231E
:102328006BC0F6FF6CC0F7FF0800F5CF68F070517E
:102338005AEC17F0B9EF11F06E51030D3B0E6B6FAD
:102348007F0E6C6FF3506B27F4506C236F516B2723
:10235800000E6C236BC0F6FF6CC0F7FF0800F55049
:10236800FF0A686F70515AEC17F000016D2B6F2B44
:10237800020E6F65C2EF11F0C4EF11F062EF11F0B9
:10238800050EF9271200000E0001696F67BFD1EF33
:1023980011F0CFEF11F0DBEF11F0671F661F651F1B
:1023A800646D000E652366236723010E696F63BFA2
:1023B800E2EF11F0E0EF11F0ECEF11F0631F621F94
:1023C800611F606D000E612362236323010E691B88
:1023D800000E6A6F000E6B6F000E6C6F000E6D6F53
:1023E8006451651166116711D8B4FDEF11F0FFEF64
:1023F80011F035EF12F0010E686F09EF12F0D89066
:102408006437653766376737682B67AF0EEF12F0AA
:1024180010EF12F003EF12F0D8906A376B376C3771
:102428006D376451605D65516159665162596751F4
:102438006359D8A022EF12F024EF12F02DEF12F01A
:102448006451605F6551615B6651625B6751635BB4
:102458006A81D8906733663365336433682F10EF29
:1024680012F06951D8B43BEF12F03DEF12F045EF8E
:1024780012F06D1F6C1F6B1F6A6D000E6B236C23AF
:102488006D236AC060F06BC061F06CC062F06DC013
:1024980063F01200000162356335696F6951D8A491
:1024A80058EF12F05AEF12F064EF12F0000E606F5E
:1024B800000E616F000E626F000E636FD1EF12F0B5
:1024C80060C064F061C065F062C066F063C067F028
:1024D800200E74EF12F0D890673366336533643397
:1024E800E82E6FEF12F06451686F628FFF0E60176D
:1024F800FF0E6117FF0E6217000E6317960E695FD5
:1025080069BF8BEF12F089EF12F0A1EF12F0695159
:10251800800A970FD8B093EF12F095EF12F097EF6B
:1025280012F05AEF12F0D89063336233613360339C
:10253800693F97EF12F0B9EF12F01F0E6965A7EF28
:1025480012F0A9EF12F0B1EF12F05AEF12F0D89092
:10255800603761376237633769076951D8A4B7EFC5
:1025680012F0B9EF12F0ABEF12F06851D8B4BFEF28
:1025780012F0C1EF12F0C9EF12F0631F621F611F62
:10258800606D000E61236223632360C060F061C048
:1025980061F062C062F063C063F012000334043477
:1025A8000A6E0A50D8A4DBEF12F0DDEF12F0E7EF65
:1025B80012F0000E016E000E026E000E036E000E89
:1025C800046E54EF13F001C005F002C006F003C01A
:1025D80007F004C008F0200EF7EF12F0D890083288
:1025E800073206320532E82EF2EF12F00550096E76
:1025F800038EFF0E0116FF0E0216FF0E0316000EC5
:102608000416960E0A5E0ABE0EEF13F00CEF13F0D6
:1026180024EF13F00A50800A970FD8B016EF13F082
:1026280018EF13F01AEF13F0DDEF12F0D890043220
:102638000332023201320A3E1AEF13F03CEF13F074
:102648001F0E0A642AEF13F02CEF13F034EF13F087
:10265800DDEF12F0D89001360236033604360A064A
:102668000A50D8A43AEF13F03CEF13F02EEF13F012
:102678000950D8B442EF13F044EF13F04CEF13F0C5
:10268800041E031E021E016C000E022203220422F5
:1026980001C001F002C002F003C003F004C004F05E
:1026A800120000016E6F000E0001706F3F0E6E6524
:1026B80060EF13F062EF13F066EF13F0400E6E5FF9
:1026C800010E706F8A946E9F6E8D6EC068F07051A7
:1026D8005AEC17F06AC060F00001616B000E636F7E
:1026E800080E626F2BEC14F000016051BF0BB809A3
:1026F800686F70515AEC17F08A84000170513FECF2
:1027080017F0000170513FEC17F000016F6F8A94C9
:102718006EC068F070515AEC17F000016B51D8B4D4
:1027280098EF13F09AEF13F0AEEF13F06AC06CF065
:10273800070E6C17010E6D6F6C2BA5EF13F0D89078
:102748006D376C2FA3EF13F000016D516F116F6F90
:10275800C1EF13F06AC06CF0070E6C17010E6D6FB5
:102768006C2BB9EF13F0D8906D376C2FB7EF13F0CF
:1027780000016D51FF0A6F156F6F8A846FC068F092
:1027880070515AEC17F0120020EE43F010EE83F06F
:10279800060EDBCFE3FFE806FCE220EEC1F010EE08
:1027A8008AF0050EDBCFE3FFE806FCE220EE31F00D
:1027B80010EE79F0090EDBCFE3FFE806FCE2000E2D
:1027C8008AEC15F0020E00016A6F120E5CEC16F02E
:1027D800830E0001736F000E746F010E756F010E8A
:1027E800766FC8EC16F0020E00016A6F4E0E5CECB4
:1027F80016F08A0E0001736F000E746F010E756F6C
:10280800010E766FC8EC16F0050E00016A6F1A0EFD
:102818005CEC16F0790E0001736F000E746F010EF8
:10282800756F010E766FC8EC16F0150E0001786F03
:102838004B0E776FBE0EE82EFED7772FFCD7782F7A
:10284800FAD700F0000E8AEC15F000D01200000E46
:102858000001656F63BF35EF14F033EF14F03BEF01
:1028680014F0626D631FD8B0632B010E656F61BFF2
:1028780042EF14F040EF14F048EF14F0606D611F60
:10288800D8B0612B010E651B000E676F000E666FD6
:1028980062516311D8B453EF14F055EF14F07DEF83
:1028A80014F0010E646F5DEF14F0D890623763374F
:1028B800642B63AF62EF14F064EF14F059EF14F077
:1028C800D890663767376251605D63516159D8A007
:1028D80070EF14F072EF14F077EF14F06251605F4C
:1028E8006351615B6681D89063336233642F64EF10
:1028F80014F06551D8B483EF14F085EF14F089EF24
:1029080014F0666D671FD8B0672B66C060F067C0AB
:1029180061F0120000017551711907E176517219C1
:10292800D8A499EF14F09BEF14F0BAEF14F073C029
:102938007CF074C07DF0ABEF14F07CC06AF079C015
:102948006BF0715155EC13F000017C4B7D2B7751E6
:102958007C5D7D51800A7B6F7851800A7B59D8A0B5
:10296800B8EF14F0BAEF14F0A1EF14F0775173191F
:1029780007E178517419D8A4C4EF14F0C6EF14F025
:10298800E5EF14F071C07EF072C07FF0D6EF14F05E
:1029980073C06AF079C06BF07E5155EC13F00001FA
:1029A8007E4B7F2B75517E5D7F51800A7B6F765100
:1029B800800A7B59D8A0E3EF14F0E5EF14F0CCEFD0
:1029C80014F0120000016D6F000E836E8A9A8A8AD5
:1029D8008A988A908A928A94C00E0001686F000EC5
:1029E8005AEC17F0C00E0001686F010E5AEC17F090
:1029F800400E0001686F000E5AEC17F0400E0001FF
:102A0800686F010E5AEC17F0B80E0001686F000EDF
:102A18005AEC17F0B80E0001686F010E5AEC17F067
:102A280000016D05D8A41BEF15F01DEF15F02AEF76
:102A380015F03F0E686F000E5AEC17F03F0E0001BC
:102A4800686F010E5AEC17F035EF15F03E0E686FFF
:102A5800000E5AEC17F03E0E0001686F010E5AEC9A
:102A680017F0000E8AEC15F01200CB500001966F9B
:102A7800976B010E9627000E972396C060F097C0BB
:102A880061F0000E61BFFF0E626F636F010E2CECE8
:102A98000CF060C079F061C07AF062C07BF063C06E
:102AA8007CF0000E0001646F000E656FC80E666F43
:102AB800420E676F92C060F093C061F094C062F0FC
:102AC80095C063F094EC06F060C07DF061C07EF0C4
:102AD80062C07FF063C080F069EC02F079C098F0C2
:102AE8007AC099F07BC09AF07CC09BF098C060F0E7
:102AF80099C061F09AC062F09BC063F04EEC12F08E
:102B080000016051BB6EBA9ABA98120000016A6F50
:102B1800000E00016C6F8A94400E686F000E5AEC2C
:102B280017F0400E0001686F010E5AEC17F0000113
:102B38006C51B809686F000E5AEC17F000016C511F
:102B4800B809686F010E5AEC17F08A84000E00016C
:102B58006B6F6A51010DF3500008686F000E5AEC54
:102B680017F000016A51010DF3500008686F010E5B
:102B78005AEC17F000016B2B3F0E6B65C6EF15F092
:102B8800C8EF15F0ADEF15F06C2B070E6C65CFEFA5
:102B980015F0D1EF15F08FEF15F01200000E0001BF
:102BA8006B6F000E6A6F000E6D6F000E6E6F8A9469
:102BB800400E686F6E515AEC17F000016D51B8095C
:102BC800686F6E515AEC17F08A84000E00016C6F22
:102BD8003B0E6A25F66E7B0E6B21F76E0800F5CF6B
:102BE80068F06E515AEC17F000016A4B6B2B6C2B96
:102BF8003F0E6C6502EF16F004EF16F0ECEF15F0DF
:102C08006E2B010E6E650BEF16F00DEF16F0DBEF75
:102C180015F06D2B070E6D6514EF16F016EF16F014
:102C2800D9EF15F08A908A921200EA0EF66E2E0EEF
:102C3800F76E000EF86E01EE00F010EE2FF00900AE
:102C4800F5CFEEFFE550E150FAE1460EF66E2F0E95
:102C5800F76E000EF86E00EEBBF010EE22F00900E1
:102C6800F5CFEEFFE550E150FAE1680EF66E2F0E53
:102C7800F76E000EF86E00EE31F010EE19F0090054
:102C8800F5CFEEFFE550E150FAE100EEDDF01D0E64
:102C9800EE6AE806FDE100EE4AF0140EEE6AE80678
:102CA800FDE15E905E92000EF86E0001AEEF0EF050
:102CB80000016C6F000E00016B6F800E6C6167EF96
:102CC80016F069EF16F092EF16F0070E6A656FEFCF
:102CD80016F071EF16F073EF16F092EF16F06CC065
:102CE800F9F06AC0F8F03F0E6C657DEF16F07FEFE3
:102CF80016F083EF16F0400E6C5F010E6B6F8A942E
:102D08006C514009686F6B515AEC17F000016A5119
:102D1800B809686F6B515AEC17F08A8412004EC0DC
:102D280083FF8086080E0001606FC90EE82EFED76B
:102D3800602FFCD700D0809654C083FF8080080E97
:102D48000001606FC90EE82EFED7602FFCD700D0B7
:102D5800809052C083FF8082080E0001606FC90E08
:102D6800E82EFED7602FFCD700D0809250C083FF9A
:102D78008084080E0001606FC90EE82EFED7602F10
:102D8800FCD700D080941200EAEF16F000017551CC
:102D9800D8B4D1EF16F0D3EF16F0DEEF16F076C008
:102DA8006AF073C0D9FF74C0DAFFDF50ADEC10F0E1
:102DB800E7EF16F076C06AF073C0D9FF74C0DAFF87
:102DC800DF503AEC11F00001734B742B73C0D9FF3C
:102DD80074C0DAFFDF50D8A4F4EF16F0F6EF16F05F
:102DE800CAEF16F01200720ED36EFD0E946E0C0E22
:102DF800BA6E000ECC6E070ECA6E00016E514808FE
:102E0800606FE80E6F55616F010E7055626F000EAE
:102E18007155636F6EC064F06FC065F070C066F086
:102E280071C067F0C7EC11F000016051CB6E120061
:102E3800000E151A000E161A000E171A800E181A10
:102E480011C001F012C002F013C003F014C004F066
:102E580015C005F016C006F017C007F018C008F036
:102E680009EC00F001C011F002C012F003C013F029
:102E780004C014F012000001606F00016051D8B462
:102E880048EF17F04AEF17F04EEF17F08A808A9252
:102E980050EF17F08A928A8295688A868A8883CF4B
:102EA80061F08A988A908A92615112000001696FD4
:102EB80000016951D8B463EF17F065EF17F069EFB7
:102EC80017F08A808A926BEF17F08A928A82000E36
:102ED800956E8A9668C08CFF8A888A988A908A92AA
:102EE8001200322E52656374616E67756C61697287
:102EF800650043686F6973697220756E206D6F6431
:102F08006500312E4F7363696C6C6F73636F706506
:012F180000B8
:102F1A00000E956E000E836E0A0EC16E110EC26E01
:102F2A00F00E926E000E806EC00E936E000E816ED1
:102F3A00F28E9D8CF28CF286F18012004A756C65D5
:102F4A0073004D4355203A00457269630062790067
:102F5A007C00450032003100320031002600456114
:102F6A00737953434F5045005175656E74696E000D
:072F7A0050726F6A657400DC
:10733A000000000000000000000000000000000043
:10734A000000000000000000000000000000000033
:10735A000000000000000000000000000000000023
:10736A000000000000000000000000000000000013
:10737A000000000000000000000000000000000003
:10738A0000000000000000000000000000000000F3
:10739A0000000000000000000000000000000000E3
:1073AA0000000000000000000000000000000000D3
:1073BA0000000000000000000000000000000000C3
:1073CA0000000000000000000000000000000000B3
:1073DA0000000000000000000000000000000000A3
:1073EA000000000000000000000000000000000093
:1073FA000000000000000000000000000000000083
:10740A000000000000000000000000000000000072
:10741A000000000000000000000000000000000062
:10742A000000000000000000000000000000000052
:10743A0000000000000000000000065F5F06000078
:10744A00000007070007070000147F7F147F7F14DE
:10745A0000242E6B6B3A120000466630180C6662E6
:10746A0000307A4F5D377A480004070300000000B5
:10747A0000001C3E63410000000041633E1C000006
:10748A0000082A3E1C1C3E2A0808083E3E0808003E
:10749A00000080E0600000000008080808080800F2
:1074AA000000006060000000006030180C06030154
:1074BA00003E7F71594D7F3E0040427F7F40400031
:1074CA0000627359496F660000226349497F36009A
:1074DA0000181C16537F7F5000276745457D3900E9
:1074EA00003C7E4B4979300000030371790F070095
:1074FA0000367F49497F360000064F49693F1E0022
:10750A000000006666000000000080E666000000D9
:10751A0000081C366341000000242424242424008B
:10752A0000004163361C080000020351590F06008F
:10753A00003E7F415D5D1F1E007C7E13137E7C0032
:10754A0000417F7F49497F36001C3E6341416322E7
:10755A0000417F7F41633E1C00417F7F495D41635B
:10756A0000417F7F491D0103001C3E634151737234
:10757A00007F7F08087F7F000000417F7F41000075
:10758A0000307040417F3F0100417F7F081C7763D4
:10759A0000417F7F41406070007F7F0E1C0E7F7F1D
:1075AA00007F7F060C187F7F001C3E6341633E1CF0
:1075BA0000417F7F49090F06001E3F21717F5E004F
:1075CA0000417F7F09197F6600266F4D597332008B
:1075DA000003417F7F410300007F7F40407F7F009F
:1075EA00001F3F60603F1F00007F7F3018307F7FA1
:1075FA000043673C183C674300074F78784F070001
:10760A0000476371594D677300007F7F4141000055
:10761A00000103060C183060000041417F7F000022
:10762A0000080C0603060C08008080808080808099
:10763A00800000030704000000207454543C784082
:10764A0000417F3F4848783000387C44446C280029
:10765A0000307848493F7F4000387C54545C180019
:10766A0000487E7F490302000098BCA4A4F87C0469
:10767A0000417F7F08047C780000447D7D40000043
:10768A000060E08080FD7D0000417F7F10386C44FF
:10769A000000417F7F400000007C7C18381C7C7809
:1076AA00007C7C04047C780000387C44447C3800EC
:1076BA000084FCF8A4243C1800183C24A4F8FC8498
:1076CA0000447C784C041C1800485C545474240010
:1076DA000000043E7F442400003C7C40403C7C4047
:1076EA00001C3C60603C1C00003C7C7038707C3C98
:1076FA0000446C3810386C44009CBCA0A0FC7C0090
:10770A00004C64745C4C64000008083E77414100F8
:10771A000000000077770000004141773E0808002A
:10772A0000020301030203010070784C464C787092
:10773A00000E9F91B1FB4A00003A7A40407A7A40A3
:10774A0000387C54555D19000002237555557D7B20
:10775A0042217554547D794000217555547C7840F6
:10776A0000207457577C784000183CA4A4E44000D9
:10777A0000023B7D55555D1B02397D54545D19004D
:10778A0000397D55545C18000001457C7C4101009C
:10779A00000203457D7D43020001457D7C400000D7
:1077AA0000797D1612167D790070782B2B7870007F
:1077BA0000447C7C5555450000207454547C7C540C
:1077CA00547C7E0B097F7F4900327B49497B32001A
:1077DA0000327A48487A320000327A4A48783000D1
:1077EA00003A7B41417B7A40003A7A4240787840BD
:1077FA00009ABAA0A0FA7A000001193C66663C1900
:10780A00013D7D40407D3D0000183C24E7E72424EB
:10781A0000687E7F49436620002B2FFCFC2F2B003B
:10782A0000FFFF09092FF6F8A040C088FE7F090370
:10783A0002207454557D79400000447D7D4100004A
:10784A00003078484A7A320000387840427A7A40E2
:10785A00007A7A0A0A7A7000007D7D19317D7D00EE
:10786A000000262F292F2F280000262F292F260037
:10787A000030784D456020000038380808080800B4
:10788A000008080808383800004F6F3018CCEEBBE3
:10789A00914F6F30186C76FBF90000007B7B00007B
:1078AA0000081C3622081C362222361C0822361CE6
:1078BA0008AA005500AA005500AA55AA55AA55AA11
:1078CA0055DDFFAA77DDAAFF77000000FFFF000061
:1078DA0000101010FFFF000000141414FFFF000036
:1078EA00001010FFFF00FFFF001010F0F010F0F082
:1078FA0000141414FCFC0000001414F7F700FFFF36
:10790A00000000FFFF00FFFF001414F4F404FCFC65
:10791A000014141717101F1F0010101F1F101F1F0D
:10792A00001414141F1F000000101010F0F00000C3
:10793A00000000001F1F1010101010101F1F101041
:10794A0010101010F0F0101010000000FFFF1010BF
:10795A00101010101010101010101010FFFF10103F
:10796A0010000000FFFF1414140000FFFF00FFFFC7
:10797A001000001F1F101717140000FCFC04F4F479
:10798A001414141717101717141414F4F404F4F435
:10799A00140000FFFF00F7F714141414141414143D
:1079AA00141414F7F700F7F714141414171714140F
:1079BA001410101F1F101F1F10141414F4F41414A1
:1079CA00141010F0F010F0F01000001F1F101F1F0D
:1079DA00100000001F1F141414000000FCFC1414F3
:1079EA00140000F0F010F0F0101010FFFF10FFFF6D
:1079FA0010141414FFFF1414141010101F1F000089
:107A0A0000000000F0F0101010FFFFFFFFFFFFFF63
:107A1A00FFF0F0F0F0F0F0F0F0FFFFFFFF000000E1
:107A2A000000000000FFFFFFFF0F0F0F0F0F0F0FE7
:107A3A000F387C446C386C4400FCFE2A2A3E140041
:107A4A00007E7E020206060000027E7E027E7E0222
:107A5A000063775D4963630000387C447C3C04041E
:107A6A000080FE7E20203E1E000406027E7C060266
:107A7A000099BDE7E7BD9900001C3E6B496B3E1CAF
:107A8A00004C7E7301737E4C0030784A4F7D39007A
:107A9A0000183C243C3C243C1898FC643C3E273D9E
:107AAA0018000000000000000000000000000000B4
:107ABA0000000000000000000000000000000000BC
:107ACA0000000000000000000000000000000000AC
:107ADA00000000000000000000000000000000009C
:107AEA00000000000000000000000000000000008C
:107AFA00000000000000000000000000000000007C
:107B0A00000000000000000000000000000000006B
:107B1A00000000000000000000000000000000005B
:107B2A00000000000000000000000000000000004B
:107B3A00000000000000000000808080800000003B
:107B4A0000000000000000000000000000800000AB
:107B5A00800000800000000000000000000000001B
:107B6A00000000000000000000000000000000000B
:107B7A0000000000000000000000000000000000FB
:107B8A0000000000000000000000000000000000EB
:107B9A0000000000000000000000000000000000DB
:107BAA0000000000000000000000000000000000CB
:107BBA00000000000000003E4180808080413E00BD
:107BCA0000D894A46C00007884844C0088FC8081DE
:107BDA00FF8081FF800078848484780000D894A490
:107BEA006C00007884844C000078848484780008CF
:107BFA00FC488484780000789494580000000000BF
:107C0A00D894A46C00041C6480740C0400D894A456
:107C1A006C0004FF844000789494580088FC88041F
:107C2A00FC8804F88000000000000000000000004A
:107C3A00000000000000000000000000000000003A
:107C4A00000000000000000000000000000000002A
:107C5A00000000000000000000000000000000001A
:107C6A000000000000000000000000000000000406
:107C7A0007040000000000000000000000000000EF
:107C8A0000000000000404060100000000000000DB
:107C9A0000000000000000000000000000000000DA
:107CAA0000000000000000000000000000000000CA
:107CBA0000000000000000000000000000000000BA
:107CCA0000000000000000000000000000000000AA
:107CDA00000000000000000000000000000000009A
:107CEA000080F0F8181C0E0E1C1878F0C0800000F6
:107CFA0000000000000000000000000000000080FA
:107D0A00F0F8181C0C0E0E1C18F8F0800000000089
:107D1A000000000000000000000000000000000059
:107D2A000000000000000000000000000000000049
:107D3A000000000000000000000000000000000039
:107D4A000000000000000000000000000000000029
:107D5A000000000000000000000000000000000019
:107D6A00F8FF0F0000000000000000000FFFF800FD
:107D7A000000000000000000000000000000F8FF02
:107D8A000F0000000000000000000FFFF8000000D4
:107D9A0000000000000000000000000000000000D9
:107DAA0000000000000000000000000000000000C9
:107DBA0000000000000000000000000000000000B9
:107DCA000000000000000000000800080008001C75
:107DDA00FCF8800800080008000800080008E0FF16
:107DEA003F090008000800080008000800093FFFD2
:107DFA00E00800080008000800080008E0FF3F0942
:107E0A000008000800080008000800090F0F000811
:107E1A000008000800000000000000000000000048
:107E2A000000000000000000000000000000000048
:107E3A000000000000000000000000000000000038
:107E4A000000000000000000000000000000000028
:107E5A0000073FFCE000000000000080C0FC7F0734
:107E6A000000000000000000000000000000000701
:107E7A003FFCE000000000000000C0FC7F0700009B
:107E8A0000000000000000000000000000000000E8
:107E9A0000000000000000000000000000000000D8
:107EAA0000000000000000000000000000000000C8
:107EBA0000000000000000000000000000000000B8
:107ECA0000000000000000000000000000000000A8
:107EDA0000000001070F1C18181C0F070100000002
:107EEA000000000000000000000000000000000088
:107EFA000001070F1C18181C0C0F070100000000D6
:107F0A000000000000000000000000000000000067
:107F1A000000000000000000000000000000000057
:107F2A000000000000000000000000000000000047
:107F3A0000000000005C000C000C7C287C7C447C67
:107F4A00241048285408000C003844004438002003
:107F5A001008103810804000101010004000201047
:107F6A0008384438007C006454484454281C107C67
:107F7A004C542438542004740C28542808543800CB
:107F8A0050008050001028442828284428100454FF
:107F9A0008384C5C7814787C54283844447C44383B
:107FAA007C54447C14043844347C107C007C0020CB
:107FBA00403C7C106C7C40407C087C7C047C7C448B
:107FCA007C7C14083844787C1468485424047C0463
:107FDA007C407C3C403C7C207C6C106C1C601C64AB
:107FEA00544C7C4400081020447C0008040880801B
:057FFA008004080000F6
:020000040020DA
:08000000FFFFFFFFFFFFFFFF00
:020000040030CA
:0E000000000C191EFF8181FF0FC00FE00F40A2
:00000001FF
