:020000040000FA
:0400000007EF00F016
:100008005E82C6ED0DF0F2EF18F00450800B0D6E15
:10001800045004240F6E03AE14EF00F016EF00F046
:1000280017EF00F00F800F50D8B41DEF00F01FEF4E
:1000380000F034EF00F00F28D8A425EF00F027EFE8
:1000480000F02FEF00F0000E016E000E026E000EA1
:10005800036E000E046E038E000E046E3CEF00F07B
:10006800000E016E000E026E000E036E000E046E8E
:100078000850800B0E6E0D500E18D8B446EF00F0E5
:1000880048EF00F049EF00F00D8C085008240E6E80
:1000980007AE51EF00F053EF00F054EF00F00E8080
:1000A8000E50D8B45AEF00F05CEF00F071EF00F09A
:1000B8000E28D8A462EF00F064EF00F06CEF00F0B7
:1000C800000E056E000E066E000E076E000E086E1E
:1000D800078E000E086E79EF00F0000E056E000E18
:1000E800066E000E076E000E086E0F500E5CD8B03C
:1000F80080EF00F082EF00F0A9EF00F00DAC87EF81
:1001080000F089EF00F08BEF00F0800E0D1A0FC0A1
:1001180010F00EC00FF010C00EF001C010F005C0B6
:1001280001F010C005F002C010F006C002F010C0C7
:1001380006F003C010F007C003F010C007F004C0B9
:1001480010F008C004F010C008F0000E106E0F5038
:100158000EC009F00A6A095E000E0A5A0ABEBEEF0E
:1001680000F00A5009E11A0E095CD8A0BEEF00F0B1
:10017800C0EF00F0F7EF00F0015002100310041078
:10018800D8A4C9EF00F0CCEF00F0010ECDEF00F0DD
:10019800000E106E000E016E000E026E000E036E51
:1001A800000E046E0EC00FF000EF01F010A0DFEF9C
:1001B80000F0E1EF00F0E7EF00F0D890103001090F
:1001C800106EE9EF00F0D890103201A0EEEF00F0C9
:1001D800F0EF00F0F1EF00F0108E04340432033237
:1001E800023201320F2A0E500F5CD8A0FEEF00F049
:1001F80000EF01F0DAEF00F00DBC05EF01F007EFBA
:1002080001F047EF01F00F50D8A40DEF01F00FEF08
:1002180001F019EF01F0000E016E000E026E000EE3
:10022800036E000E046E68EF02F0055001260650BA
:100238000222075003220850042204A026EF01F0EE
:1002480028EF01F0D4EF01F010A02DEF01F02FEF0F
:1002580001F035EF01F0D89010300109106E37EF3A
:1002680001F0D890103201A03CEF01F03EEF01F010
:100278003FEF01F0108E04340432033202320132AF
:100288000F2AD4EF01F00550015C065002580750C0
:1002980003580450800A096E0850800A0958D8B0DB
:1002A80058EF01F05AEF01F085EF01F00150055CBD
:1002B800096E025006580A6E035007580B6E045018
:1002C80008580C6EFF0E0924016EFF0E0A20026EFC
:1002D800FF0E0B20036EFF0E0C20046E800E0D1A0D
:1002E800106C1050D8A47BEF01F07DEF01F08DEF7A
:1002F80001F0010E0126000E0222032204228DEFD6
:1003080001F00550015E0650025A0750035A085082
:10031800045A0150021003100410D8A496EF01F0FB
:1003280098EF01F0CDEF01F01050D8A49EEF01F046
:10033800A0EF01F0CDEF01F0000E016E000E026E8D
:10034800000E036E000E046E68EF02F0D8900136BE
:1003580002360336043610AEB4EF01F0B6EF01F002
:10036800B7EF01F0018010A0BCEF01F0BEEF01F083
:10037800C2EF01F0D8801036C4EF01F0D8901036E3
:100388000F50D8B4CAEF01F0CCEF01F0CDEF01F077
:100398000F0603AED2EF01F0D4EF01F0AAEF01F09F
:1003A800000E0E6E10AEDBEF01F0DDEF01F0F5EFA1
:1003B80001F010C009F07F0E0916D8B4E6EF01F07D
:1003C800E8EF01F0ECEF01F0010E0E6EF5EF01F031
:1003D80001A0F1EF01F0F3EF01F0F5EF01F0E8EF24
:1003E80001F00E50D8B4FBEF01F0FDEF01F028EF5B
:1003F80002F0010E0126000E02220322042204A0AC
:1004080008EF02F00AEF02F028EF02F001C009F04D
:1004180002C00AF003C00BF004C00CF00C340C321C
:100428000B320A32093209C001F00AC002F00BC0CF
:1004380003F00CC004F00F28D8B425EF02F027EF22
:1004480002F028EF02F00F2A0F28D8B42EEF02F09E
:1004580030EF02F038EF02F00F50D8A436EF02F078
:1004680038EF02F04AEF02F0000E016E000E026E45
:10047800000E036E000E046E0F50D8A446EF02F073
:1004880048EF02F04AEF02F0000E0D6E0FA04FEF9A
:1004980002F051EF02F054EF02F0038E55EF02F034
:1004A800039ED8900F30046E0DAE5DEF02F05FEF43
:1004B80002F060EF02F0048E01C001F002C002F009
:1004C80003C003F004C004F0120000018651800B41
:1004D8008F6F86518625956F85AF75EF02F077EFA0
:1004E80002F078EF02F095819551D8B47EEF02F0D2
:1004F80080EF02F093EF02F09529D8A486EF02F07E
:1005080088EF02F090EF02F0000E836F000E846F08
:10051800000E856F000E866F858F9BEF02F0000E30
:10052800836F000E846F000E856F000E866F8A51F0
:10053800800B8F1B8A518A25906F89AFA6EF02F036
:10054800A8EF02F0A9EF02F090819051D8B4AFEF74
:1005580002F0B1EF02F0C4EF02F09029D8A4B7EF8F
:1005680002F0B9EF02F0C1EF02F0000E876F000E43
:10057800886F000E896F000E8A6F898FCCEF02F0AA
:10058800000E876F000E886F000E896F000E8A6F4D
:100598009051D8B4D2EF02F0D4EF02F0DCEF02F0C1
:1005A8009551D8A4DAEF02F0DCEF02F0E6EF02F0A2
:1005B800000E836F000E846F000E856F000E866F2D
:1005C8007EEF04F089518303F3CF9AF0F4CF9BF0C8
:1005D8009A51916F926B936B946B9B51966F976B3B
:1005E800986B996B88518403F3CF9AF0F4CF9BF002
:1005F8009A519127000E9223932394239B51962777
:10060800000E97239823992387518503F3CF9AF0F7
:10061800F4CF9BF09A519127000E922393239423B1
:100628009B519627000E97239823992393C094F003
:1006380092C093F091C092F0916B87518403F3CFED
:100648009AF0F4CF9BF09A5191279B519223000E78
:100658009323000E942388518303F3CF9AF0F4CFA9
:100668009BF09A5191279B519223000E9323000EE1
:10067800942393C094F092C093F091C092F0916B40
:1006880087518303F3CF9AF0F4CF9BF09A519127C7
:100698009B519223000E9323000E942389518403C7
:1006A800F3CF9AF0F4CF9BF09A5196279B5197235A
:1006B800000E9823000E992388518503F3CF9AF0F2
:1006C800F4CF9BF09A5196279B519723000E9823BD
:1006D800000E992389518503F3CF9AF0F4CF9BF04C
:1006E8009A518B6F9B518C6F8D6B8E6B8DC08EF07A
:1006F8008CC08DF08BC08CF08B6B8B5196278C51F6
:1007080097238D5198238E51992391C08BF092C0D5
:100718008CF093C08DF094C08EF0190E99EF03F011
:10072800D8908E338D338C338B33E82E94EF03F0CF
:100738008B5196278C5197238D5198238E5199234D
:1007480093C094F092C093F091C092F0916B905145
:1007580095C08BF08C6B8B27000E8C23820E8B251B
:100768009A6FFF0E8C219B6FCFEF03F0D8909637CE
:1007780097379837993794AFC4EF03F0C6EF03F073
:10078800C7EF03F09681D890913792379337943713
:100798009A07D8A09B0798AFD4EF03F0D6EF03F0E1
:1007A800BAEF03F0000E906F94AFDDEF03F0DFEFC8
:1007B80003F003EF04F0FF0E91158B6FFF0E9215F7
:1007C8008C6FFF0E93158D6F7F0E94158E6F8B5166
:1007D8008C118D118E11D8B4F4EF03F0F6EF03F0FD
:1007E800FAEF03F0010E906F03EF04F096A1FFEF0C
:1007F80003F001EF04F003EF04F0F6EF03F090517B
:10080800D8B409EF04F00BEF04F02FEF04F0010E59
:100818009627000E97239823992399A116EF04F0A1
:1008280018EF04F02FEF04F096C08BF097C08CF00F
:1008380098C08DF099C08EF08E358E338D338C3301
:100848008B338BC096F08CC097F08DC098F08EC01B
:1008580099F09A4B9B2B9BBF3AEF04F09B5108E110
:100868009A29D8A03AEF04F03CEF04F046EF04F0E0
:10087800000E966F000E976F800E986F7F0E996F1F
:1008880074EF04F09BBF53EF04F09B5106E19A0507
:10089800D8B051EF04F053EF04F05FEF04F0000E0E
:1008A800966F000E976F000E986F000E996F000EEE
:1008B8008F6F74EF04F09AC095F0FF0E9617FF0E35
:1008C80097177F0E9817000E991795A16EEF04F0F1
:1008D80070EF04F071EF04F0988FD8909531996F0C
:1008E8008F51991396C083F097C084F098C085F013
:1008F80099C086F012001250800B1B6E1250122401
:10090800216E11AE8AEF04F08CEF04F08DEF04F045
:1009180021802150D8B493EF04F095EF04F0A8EFAC
:1009280004F02128D8A49BEF04F09DEF04F0A5EF74
:1009380004F0000E0F6E000E106E000E116E000E09
:10094800126E118EB0EF04F0000E0F6E000E106ED6
:10095800000E116E000E126E1650800B1B1A1650E8
:100968001624206E15AEBBEF04F0BDEF04F0BEEF09
:1009780004F020802050D8B4C4EF04F0C6EF04F08F
:10098800D9EF04F02028D8A4CCEF04F0CEEF04F07F
:10099800D6EF04F0000E136E000E146E000E156EE6
:1009A800000E166E158EE1EF04F0000E136E000EA9
:1009B800146E000E156E000E166E2050D8B4E7EFB8
:1009C80004F0E9EF04F0F1EF04F02150D8A4EFEFC0
:1009D80004F0F1EF04F0FBEF04F0000E0F6E000ED0
:1009E800106E000E116E000E126E93EF06F0155089
:1009F8000F02F3CF26F0F4CF27F026501C6E1D6AA5
:100A08001E6A1F6A2750226E236A246A256A1450B8
:100A18001002F3CF26F0F4CF27F026501C26000E44
:100A28001D221E221F2227502226000E23222422A6
:100A3800252213501102F3CF26F0F4CF27F02650C9
:100A48001C26000E1D221E221F2227502226000EC1
:100A58002322242225221EC01FF01DC01EF01CC008
:100A68001DF01C6A13501002F3CF26F0F4CF27F0C4
:100A780026501C2627501D22000E1E22000E1F2263
:100A880014500F02F3CF26F0F4CF27F026501C267F
:100A980027501D22000E1E22000E1F221EC01FF00E
:100AA8001DC01EF01CC01DF01C6A13500F02F3CFAE
:100AB80026F0F4CF27F026501C2627501D22000EC2
:100AC8001E22000E1F2215501002F3CF26F0F4CF7D
:100AD80027F02650222627502322000E2422000E1B
:100AE800252214501102F3CF26F0F4CF27F0265018
:100AF800222627502322000E2422000E25221550DC
:100B08001102F3CF26F0F4CF27F02650176E2750A6
:100B1800186E196A1A6A19C01AF018C019F017C0A5
:100B280018F0176A17502226185023221950242229
:100B38001A5025221CC017F01DC018F01EC019F04D
:100B48001FC01AF0190EAEEF05F0D8901A321932FC
:100B580018321732E82EA9EF05F017502226185040
:100B68002322195024221A5025221EC01FF01DC00E
:100B78001EF01CC01DF01C6A205021C017F0186A16
:100B88001726000E1822820E1724266EFF0E182034
:100B9800276EE4EF05F0D890223623362436253622
:100BA8001FAED9EF05F0DBEF05F0DCEF05F0228092
:100BB800D8901C361D361E361F362606D8A02706A6
:100BC80024AEE9EF05F0EBEF05F0CFEF05F0000EEE
:100BD800206E1FAEF2EF05F0F4EF05F018EF06F007
:100BE800FF0E1C14176EFF0E1D14186EFF0E1E1438
:100BF800196E7F0E1F141A6E1750181019101A103C
:100C0800D8B409EF06F00BEF06F00FEF06F0010E6F
:100C1800206E18EF06F022A014EF06F016EF06F08B
:100C280018EF06F00BEF06F02050D8B41EEF06F0D0
:100C380020EF06F044EF06F0010E2226000E2322D4
:100C48002422252225A02BEF06F02DEF06F044EFF5
:100C580006F022C017F023C018F024C019F025C0F0
:100C68001AF01A341A3219321832173217C022F011
:100C780018C023F019C024F01AC025F0264A272AE4
:100C880027BE4FEF06F0275008E12628D8A04FEFDF
:100C980006F051EF06F05BEF06F0000E226E000E34
:100CA800236E800E246E7F0E256E89EF06F027BE18
:100CB80068EF06F0275006E12604D8B066EF06F084
:100CC80068EF06F074EF06F0000E226E000E236E39
:100CD800000E246E000E256E000E1B6E89EF06F0C6
:100CE80026C021F0FF0E2216FF0E23167F0E2416B3
:100CF800000E251621A083EF06F085EF06F086EF9B
:100D080006F0248ED8902130256E1B50251222C063
:100D18000FF023C010F024C011F025C012F012000B
:100D280000016D51800B7A6F6D516D25816F6CAF2D
:100D3800A0EF06F0A2EF06F0A3EF06F08181815143
:100D4800D8B4A9EF06F0ABEF06F0C0EF06F08129A2
:100D5800D8A4B1EF06F0B3EF06F0BBEF06F0000E33
:100D68006A6F000E6B6F000E6C6F000E6D6F6C8FEC
:100D7800000E6D6FC8EF06F0000E6A6F000E6B6F05
:100D8800000E6C6F000E6D6F7151800B7A1B7151E4
:100D98007125826F70AFD3EF06F0D5EF06F0D6EF6E
:100DA80006F082818251D8B4DCEF06F0DEEF06F05F
:100DB800F3EF06F08229D8A4E4EF06F0E6EF06F098
:100DC800EEEF06F0000E6E6F000E6F6F000E706F84
:100DD800000E716F708F000E716FFBEF06F0000E42
:100DE8006E6F000E6F6F000E706F000E716F6E5198
:100DF8006F1170117111D8A404EF07F006EF07F016
:100E08001EEF07F0000E6A6F000E6B6F000E6C6F1E
:100E1800000E6D6F800E6C137F0E6D137A516D137B
:100E28006AC06AF06BC06BF06CC06CF06DC06DF09E
:100E380061EF08F08151D8A424EF07F026EF07F0FE
:100E480030EF07F0000E6A6F000E6B6F000E6C6FCC
:100E5800000E6D6F61EF08F0825181C072F0736B04
:100E6800725F000E735B7F0E72257B6F000E73211D
:100E78007C6F6AC076F06BC077F06CC078F06DC09C
:100E880079F0000E6A6F000E6B6F000E6C6F000E2B
:100E98006D6F000E7D6F000E7E6F000E7F6F000E6F
:100EA800806F000E826F91EF07F08251D8B45FEF28
:100EB80007F061EF07F078EF07F0D89076377737CB
:100EC80078377937D8906A376B376C376D3780AF9A
:100ED80070EF07F072EF07F073EF07F06A81D890B0
:100EE8007D377E377F3780376E51765D6F51775902
:100EF8007051785971517959D8A085EF07F087EF6B
:100F080007F090EF07F0808D6E51765F6F51775B39
:100F18007051785B7151795B822B190E826597EF5E
:100F280007F099EF07F059EF07F07651771178112C
:100F38007911D8B4A2EF07F0A4EF07F0BCEF07F0DF
:100F48007D81BCEF07F0D8906A376B376C376D3707
:100F580080AFB1EF07F0B3EF07F0B4EF07F06A81A5
:100F6800D8907D377E377F3780377B07D8A07C07BE
:100F78006CAFC1EF07F0C3EF07F0A7EF07F0000E63
:100F8800826F80AFCAEF07F0CCEF07F0F0EF07F001
:100F9800FF0E7D15726FFF0E7E15736FFF0E7F15A6
:100FA800746F7F0E8015756F7251731174117511FE
:100FB800D8B4E1EF07F0E3EF07F0E7EF07F0010E31
:100FC800826FF0EF07F06AA1ECEF07F0EEEF07F0A1
:100FD800F0EF07F0E3EF07F08251D8B4F6EF07F02F
:100FE800F8EF07F01CEF08F0010E6A27000E6B23DC
:100FF8006C236D236DA103EF08F005EF08F01CEFDB
:1010080008F06AC072F06BC073F06CC074F06DC009
:1010180075F07535753374337333723372C06AF093
:1010280073C06BF074C06CF075C06DF07B4B7C2B9B
:101038007CBF27EF08F07C5108E17B29D8A027EF77
:1010480008F029EF08F034EF08F0000E7C6F7B6998
:10105800000E6A6F000E6B6F000E6C6F000E6D6FE6
:101068007CBF41EF08F07C5106E17B05D8B03FEF2B
:1010780008F041EF08F04FEF08F0000E7C6F000E0B
:101088007B6F000E6A6F000E6B6F000E6C6F000EA8
:101098006D6F000E7A6F7BC081F081A156EF08F06A
:1010A80058EF08F05BEF08F06C8F5CEF08F06C9F6E
:1010B800D89081316D6F12EF07F01200000E5D6E4F
:1010C800000E5C6E000E0001C96F010EC86FC605E8
:1010D800C711D8A472EF08F074EF08F00AEF09F00E
:1010E800000EC76F000EC66FE8C090F0E9C091F01F
:1010F800E6C092F0E7C093F0E4C094F0E5C095F044
:10110800E2C096F0E3C097F0000EA66F000EA56F40
:10111800A5C074F00F0E52EC18F0960E00017D6F0A
:10112800000E7E6F010E7F6F010E806F25EC19F0A7
:101138000001A54BA62BA6BFABEF08F0A65109E10D
:10114800080EA55DD8A0ABEF08F0ADEF08F08CEF66
:1011580008F0000E7C6F000E7B6F000E7E6F110E84
:101168007D6F000E806F140E7F6F000E826F110E60
:10117800816F000E846F010E836FE8EC13F000019D
:10118800CA51CB11D8A4CBEF08F0CDEF08F0DFEFB0
:1011980008F0010E746F020E52EC18F0900E000168
:1011A8007D6F000E7E6F010E7F6F010E806F25EC44
:1011B80019F00AEF09F0CA05CB11D8A4E6EF08F038
:1011C800E8EF08F0FAEF08F0010E746F020E52EC27
:1011D80018F0920E00017D6F000E7E6F010E7F6F7A
:1011E800010E806F25EC19F00AEF09F0010E746FFB
:1011F800020E52EC18F0940E00017D6F000E7E6F07
:10120800010E7F6F010E806F25EC19F00001BA51B5
:10121800300F986FBC51300F996F5850300F9A6F3C
:10122800BE51300F9B6F000E9C6F000E9D6F000E1D
:101238009E6F98C09CF02E0E9D6F000E9E6F000E44
:10124800A06F000E9F6F99C09FF0000EA06F000E58
:10125800A26F000EA16F9AC0A1F0000EA26F000E3F
:10126800A46F000EA36F9BC0A3F0000EA46F030E23
:10127800746F020E52EC18F09C0E00017D6F000E88
:101288007E6F010E7F6F010E806F25EC19F0040E42
:101298000001746F020E52EC18F09F0E00017D6F72
:1012A800000E7E6F010E7F6F010E806F25EC19F026
:1012B800050E0001746F020E52EC18F0A10E000129
:1012C8007D6F000E7E6F010E7F6F010E806F25EC23
:1012D80019F0060E0001746F020E52EC18F0A30EFE
:1012E80000017D6F000E7E6F010E7F6F010E806F13
:1012F80025EC19F00001C5BF8DEF09F0C55107E1D4
:10130800630EC45DD8B08BEF09F08DEF09F0B5EF2F
:1013180009F01C0EC4257B6F000EC5217C6F000EE2
:101328007E6F000E7D6F1C0EC4257F6F000EC521D9
:10133800806F000E826F400E816F000E846F000E6A
:10134800836FE8EC13F08EC074F0010E0001756F26
:10135800C4511B0FD3EC14F00001C44BC52BE7EFAD
:1013680009F0C5BFC1EF09F0C55109E1630EC45DBD
:10137800D8A0C1EF09F0C3EF09F0E7EF09F0000EBC
:10138800C56F000EC46F000E7C6F1C0E7B6F000EC5
:101398007E6F000E7D6F000E806F1C0E7F6F000E3B
:1013A800826F400E816F000E846F000E836FE8EC31
:1013B80013F08EC074F0010E0001756F1B0ED3EC94
:1013C80014F0B0EF09F0120028C001F029C002F0B3
:1013D800000E02BEFF0E036E046E010EECEC0CF064
:1013E80001C00FF002C010F003C011F004C012F0E9
:1013F800A10E136EDE0E146EA70E156E3C0E166E41
:101408007FEC04F00FC02AF010C02BF011C02CF0B4
:1014180012C02DF02AC001F02BC002F02CC003F03E
:101428002DC004F0EDEC12F001C0BAF002C0BBF020
:101438002AC011F02BC012F02CC013F02DC014F0EC
:10144800BAC001F0BBC002F0000E02BEFF0E036E70
:10145800046E010EECEC0CF001C015F002C016F0A1
:1014680003C017F004C018F0CAEC19F011C02AF034
:1014780012C02BF013C02CF014C02DF02AC00FF0AE
:101488002BC010F02CC011F02DC012F0000E136EFE
:10149800000E146E200E156E410E166E7FEC04F0D1
:1014A8000FC02AF010C02BF011C02CF012C02DF084
:1014B8002AC001F02BC002F02CC003F02DC004F0AC
:1014C800EDEC12F001C0BCF002C0BDF02AC011F072
:1014D8002BC012F02CC013F02DC014F0BCC001F0CA
:1014E800BDC002F0000E02BEFF0E036E046E010EB8
:1014F800ECEC0CF001C015F002C016F003C017F0B8
:1015080004C018F0CAEC19F011C02AF012C02BF070
:1015180013C02CF014C02DF02AC00FF02BC010F00F
:101528002CC011F02DC012F0000E136E000E146EB8
:10153800200E156E410E166E7FEC04F00FC02AF0D7
:1015480010C02BF011C02CF012C02DF02AC001F0F1
:101558002BC002F02CC003F02DC004F0EDEC12F00B
:1015680001C058F002C059F02AC011F02BC012F087
:101578002CC013F02DC014F058C001F059C002F06F
:10158800000E02BEFF0E036E046E010EECEC0CF0B2
:1015980001C015F002C016F003C017F004C018F01F
:1015A800CAEC19F011C02AF012C02BF013C02CF0AD
:1015B80014C02DF02AC00FF02BC010F02CC011F071
:1015C8002DC012F0000E136E000E146E200E156E54
:1015D800410E166E7FEC04F00FC02AF010C02BF0FD
:1015E80011C02CF012C02DF02AC001F02BC002F05F
:1015F8002CC003F02DC004F0EDEC12F001C0BEF0D9
:1016080002C0BFF0BEC001F0BFC002F071EC0EF026
:1016180001C0B8F002C0B9F058C001F059C002F0DA
:1016280071EC0EF001C0B6F002C0B7F0BCC001F01A
:10163800BDC002F071EC0EF001C0B4F002C0B5F00C
:10164800BAC001F0BBC002F071EC0EF0800E0124AC
:101658000001B26F000E0220B36F12000001C20534
:10166800C311D8A43AEF0BF03CEF0BF043EF0BF0AB
:10167800000EC36F000EC26F000EC3EC17F0000E11
:101688005D6E010E5C6E21EE10F010EE25F00F0E6F
:10169800DBCFE3FFE806FCE221EE20F010EE45F098
:1016A8000E0EDBCFE3FFE806FCE221EE00F010EEC1
:1016B80035F00F0EDBCFE3FFE806FCE2ECC054F098
:1016C800EDC055F0EAC056F0EBC057F0000E0B6EB7
:1016D800020EBEEC18F0250E146E000E156E010EEB
:1016E800166E010E176E54EC19F0020E0B6E020EF8
:1016F800BEEC18F0450E146E000E156E010E166E37
:10170800010E176E54EC19F0030E0B6E020EBEECB0
:1017180018F0350E146E000E156E010E166E010EC1
:10172800176E54EC19F0030E0B6E020EBEEC18F097
:10173800050E0B6E2A0EBEEC18F0540E146E000E39
:10174800156E010E166E010E176E54EC19F0050E8B
:101758000B6E520EBEEC18F0560E146E000E156E7F
:10176800010E166E010E176E54EC19F05C045D1034
:10177800D8A4C1EF0BF0C3EF0BF0E4EF0BF05A5015
:101788005B10D8A4CAEF0BF0CCEF0BF0E4EF0BF032
:10179800000E136E2A0E126E000E156E340E146EA5
:1017A800000E176E320E166E000E196E340E186E7D
:1017B800000E1B6E010E1A6E5FEC14F00FEF0CF0AA
:1017C8005C045D10D8A4EBEF0BF0EDEF0BF00EEF1F
:1017D8000CF05A045B10D8A4F4EF0BF0F6EF0BF002
:1017E8000EEF0CF0000E136E520E126E000E156EF8
:1017F800340E146E000E176E5A0E166E000E196E09
:10180800340E186E000E1B6E010E1A6E5FEC14F08B
:101818000FEF0CF000F012000001726F000172511E
:10182800D8B419EF0CF01BEF0CF03DEF0CF06DBFC6
:1018380022EF0CF020EF0CF03DEF0CF06AC06EF0D8
:101848006BC06FF06CC070F06DC071F06E1F6F1FD1
:10185800701F711F6E2B000E6F23702371236EC0D3
:1018680074F06FC075F070C076F071C077F045EF16
:101878000CF06AC074F06BC075F06CC076F06DC087
:1018880077F06A516B116C116D11D8A44EEF0CF002
:1018980050EF0CF05AEF0CF0000E6A6F000E6B6FF1
:1018A800000E6C6F000E6D6FEBEF0CF0960E736F01
:1018B80064EF0CF0732BD890773376337533743329
:1018C800000E74156E6F000E75156F6F000E76158D
:1018D800706FFE0E7715716F6E516F117011711167
:1018E800D8A479EF0CF07BEF0CF05EEF0CF089EFE9
:1018F8000CF0732B010E7427000E752376237723C3
:10190800D8907733763375337433000E74156E6F51
:10191800000E75156F6F000E7615706FFF0E771538
:10192800716F6E516F1170117111D8A49EEF0CF088
:10193800A0EF0CF07DEF0CF0A8EF0CF07307D89037
:10194800743775377637773776BFADEF0CF0AFEF72
:101958000CF0B7EF0CF0020E7361B5EF0CF0B7EFB7
:101968000CF0A2EF0CF073B1BCEF0CF0BEEF0CF072
:10197800BFEF0CF0769FD890733373C06EF06F6B27
:10198800706B716B6EC071F0706B6F6B6E6B6E51BC
:1019980074136F5175137051761371517713725117
:1019A800D8B4D9EF0CF0DBEF0CF0E3EF0CF06DBF1F
:1019B800E2EF0CF0E0EF0CF0E3EF0CF0778F74C07F
:1019C8006AF075C06BF076C06CF077C06DF01200ED
:1019D800096E0950D8B4F3EF0CF0F5EF0CF017EFDF
:1019E8000DF004BEFCEF0CF0FAEF0CF017EF0DF061
:1019F80001C005F002C006F003C007F004C008F0FB
:101A0800051E061E071E081E052A000E06220722AE
:101A1800082205C00BF006C00CF007C00DF008C086
:101A28000EF01FEF0DF001C00BF002C00CF003C068
:101A38000DF004C00EF00150021003100410D8A4D9
:101A480028EF0DF02AEF0DF034EF0DF0000E016EC7
:101A5800000E026E000E036E000E046EC5EF0DF050
:101A6800960E0A6E3EEF0DF00A2AD8900E320D320D
:101A78000C320B32000E0B14056E000E0C14066EA1
:101A8800000E0D14076EFE0E0E14086E055006109B
:101A980007100810D8A453EF0DF055EF0DF038EFEC
:101AA8000DF063EF0DF00A2A010E0B26000E0C2232
:101AB8000D220E22D8900E320D320C320B32000E4F
:101AC8000B14056E000E0C14066E000E0D14076E36
:101AD800FF0E0E14086E0550061007100810D8A443
:101AE80078EF0DF07AEF0DF057EF0DF082EF0DF073
:101AF8000A06D8900B360C360D360E360DBE87EF1B
:101B08000DF089EF0DF091EF0DF0020E0A608FEFE6
:101B18000DF091EF0DF07CEF0DF00AB096EF0DF09F
:101B280098EF0DF099EF0DF00D9ED8900A320AC08B
:101B380005F0066A076A086A05C008F0076A066AB7
:101B4800056A05500B1206500C1207500D1208506A
:101B58000E120950D8B4B3EF0DF0B5EF0DF0BDEF8C
:101B68000DF004BEBCEF0DF0BAEF0DF0BDEF0DF0B7
:101B78000E8E0BC001F00CC002F00DC003F00EC0B9
:101B880004F012000600E1CF60F0E2CF61F0D9CF97
:101B980062F0DACF63F0F3CF64F0F4CF65F0F6CFFC
:101BA80066F0F7CF67F0F8CF68F0F5CF69F09EAC34
:101BB800E0EF0DF0E2EF0DF0EDEF0DF09E9CC4CFDD
:101BC800C0F00001C16BC0C028F0C1C029F0E8EC2A
:101BD80009F0F2A0F2EF0DF0F4EF0DF05BEF0EF06C
:101BE800F29081ACFAEF0DF0FCEF0DF05AEF0EF029
:101BF8000001AA51AB11D8A404EF0EF006EF0EF0C5
:101C080056EF0EF05C045D10D8A40DEF0EF00FEF48
:101C18000EF02BEF0EF05A505B10D8A416EF0EF012
:101C280018EF0EF02BEF0EF0000EC36F010EC26F0F
:101C3800000E5B6E010E5A6E000E0B6E000EBEECAF
:101C480018F0000EC3EC17F000D032EC0BF05C0477
:101C58005D10D8A432EF0EF034EF0EF051EF0EF015
:101C68005A045B10D8A43BEF0EF03DEF0EF051EF95
:101C78000EF0000E0001C36F010EC26F000E5B6E06
:101C8800000E5A6E000E0B6E000EBEEC18F0000E21
:101C9800C3EC17F000D032EC0BF00001AA4BAB2BD1
:101CA8005AEF0EF0000EAB6F000EAA6F815069C09C
:101CB800F5FF68C0F8FF67C0F7FF66C0F6FF65C0AC
:101CC800F4FF64C0F3FF63C0DAFF62C0D9FF61C0EC
:101CD800E2FF60C0E1FF5E92110001500210D8A43B
:101CE80078EF0EF07AEF0EF080EF0EF0000E026E35
:101CF8003F0E016E12EF0FF001040210D8A487EF17
:101D08000EF089EF0EF08FEF0EF0000E026E060E49
:101D1800016E12EF0FF0020E01180210D8A497EF0F
:101D28000EF099EF0EF09FEF0EF0000E026E5B0EB4
:101D3800016E12EF0FF0030E01180210D8A4A7EFDE
:101D48000EF0A9EF0EF0AFEF0EF0000E026E4F0E80
:101D5800016E12EF0FF0040E01180210D8A4B7EFAD
:101D68000EF0B9EF0EF0BFEF0EF0000E026E660E29
:101D7800016E12EF0FF0050E01180210D8A4C7EF7C
:101D88000EF0C9EF0EF0CFEF0EF0000E026E6D0EE2
:101D9800016E12EF0FF0060E01180210D8A4D7EF4B
:101DA8000EF0D9EF0EF0DFEF0EF0000E026E7D0E92
:101DB800016E12EF0FF0070E01180210D8A4E7EF1A
:101DC8000EF0E9EF0EF0EFEF0EF0000E026E070EC8
:101DD800016E12EF0FF0080E01180210D8A4F7EFE9
:101DE8000EF0F9EF0EF0FFEF0EF0000E026E7F0E10
:101DF800016E12EF0FF0090E01180210D8A407EFB8
:101E08000FF009EF0FF00FEF0FF0000E026E6F0EDC
:101E1800016E12EF0FF0000E026E01681200DFC0B3
:101E280096F0E0C097F0E1C098F020EEDAF010EEFE
:101E380091F0040EDBCFE3FFE806FCE2EEC099F078
:101E4800EFC09AF021EE39F010EE83F0070EDBCFE9
:101E5800E3FFE806FCE220EECEF010EE8BF0050E74
:101E6800DBCFE3FFE806FCE2000E0001746F340EDE
:101E780052EC18F0960E00017D6F000E7E6F010E79
:101E88007F6F010E806F25EC19F0020E0001746F50
:101E98002D0E52EC18F0910E00017D6F000E7E6F32
:101EA800010E7F6F010E806F25EC19F0030E000103
:101EB800746F360E52EC18F0990E00017D6F000E0B
:101EC8007E6F010E7F6F010E806F25EC19F0040EF6
:101ED8000001746F230E52EC18F0830E00017D6F21
:101EE800000E7E6F010E7F6F010E806F25EC19F0DA
:101EF800050E0001746F360E52EC18F0990E0001B1
:101F08007D6F000E7E6F010E7F6F010E806F25ECD6
:101F180019F0060E0001746F290E52EC18F08B0EA2
:101F280000017D6F000E7E6F010E7F6F010E806FC6
:101F380025EC19F0150E0001826F4B0E816FBE0E55
:101F4800E82EFED7812FFCD7822FFAD700F0000E9B
:101F58007BEC17F000D012000001776F000E000133
:101F68007C6F0A0E7719D8A4BCEF0FF0BEEF0FF004
:101F7800C3EF0FF0000ECD6FCC2B3CEF10F03F0EEF
:101F8800CD65C9EF0FF0CBEF0FF0D2EF0FF0010ED8
:101F98007C6FCD51C00F7A6FD4EF0FF0CDC07AF0BF
:101FA8007751080DF3CF78F0F4CF79F0000E7B6FFE
:101FB8003F0E7A65E2EF0FF0E4EF0FF0F7EF0FF066
:101FC800400E7A5F010E7C6F8A947A514009726FD5
:101FD800010E08EC1AF00001CC51B809726F010E1D
:101FE80008EC1AF08A8400017451D8B4FEEF0FF09F
:101FF80000EF10F018EF10F03B0E756F730E766F50
:102008007B517527000E76237851752779517623F1
:1020180075C0F6FF76C0F7FF0800F5CF72F07C5167
:1020280008EC1AF02FEF10F03B0E756F730E766FF9
:102038007B517527000E76237851752779517623C1
:1020480075C0F6FF76C0F7FF0800F550FF0A726FFB
:102058007C5108EC1AF000017A2B7B2B070E7B656C
:1020680038EF10F03AEF10F0DCEF0FF0080ECD2744
:1020780012000001786F000E00017A6F0A0E7819BD
:10208800D8A449EF10F04BEF10F050EF10F0000E0D
:10209800CD6FCC2BC9EF10F03F0ECD6556EF10F089
:1020A80058EF10F05FEF10F0010E7A6FCD51C00FAE
:1020B800776F61EF10F0CDC077F0200E785F000EDB
:1020C800796F3F0E77656BEF10F06DEF10F080EFD2
:1020D80010F0400E775F010E7A6F8A9477514009AD
:1020E800726F010E08EC1AF00001CC51B809726F3A
:1020F800010E08EC1AF08A8400017451D8B487EFF5
:1021080010F089EF10F0A3EF10F07851030D3B0E9B
:10211800756F7F0E766FF3507527F45076237951DB
:102128007527000E762375C0F6FF76C0F7FF080006
:10213800F5CF72F07A5108EC1AF0BCEF10F0785134
:10214800030D3B0E756F7F0E766FF3507527F450B5
:10215800762379517527000E762375C0F6FF76C071
:10216800F7FF0800F550FF0A726F7A5108EC1AF071
:102178000001772B792B020E7965C5EF10F0C7EFB8
:1021880010F065EF10F0050ECD271200106E000E4E
:10219800136E0A0E1018D8A4D4EF10F0D6EF10F072
:1021A800DCEF10F0000E0001CD6FCC2B55EF11F0D5
:1021B8003F0E0001CD65E3EF10F0E5EF10F0ECEF16
:1021C80010F0010E136ECD51C00F116EEEEF10F02E
:1021D800CDC011F01050080DF3CF0EF0F4CF0FF072
:1021E800000E126E3F0E1164FCEF10F0FEEF10F0BF
:1021F80011EF11F0400E115E010E136E8A9411500A
:102208004009096E010E23EC1AF00001CC51B809FF
:10221800096E010E23EC1AF08A840B50D8B417EF1C
:1022280011F019EF11F031EF11F03B0E0C6E730E37
:102238000D6E12500C26000E0D220E500C260F505B
:102248000D220CC0F6FF0DC0F7FF0800F5CF09F00E
:10225800135023EC1AF048EF11F03B0E0C6E730E7E
:102268000D6E12500C26000E0D220E500C260F502B
:102278000D220CC0F6FF0DC0F7FF0800F550FF0A4D
:10228800096E135023EC1AF0112A122A070E126451
:1022980050EF11F052EF11F0F6EF10F0080E0001B8
:1022A800CD2712000F6E000E116E0A0E0F18D8A45B
:1022B80060EF11F062EF11F068EF11F0000E00010D
:1022C800CD6FCC2BE1EF11F03F0E0001CD656FEF24
:1022D80011F071EF11F078EF11F0010E116ECD5180
:1022E800C00F0E6E7AEF11F0CDC00EF0200E0F5E0B
:1022F800000E106E3F0E0E6484EF11F086EF11F0A1
:1023080099EF11F0400E0E5E010E116E8A940E5078
:102318004009096E010E23EC1AF00001CC51B809EE
:10232800096E010E23EC1AF08A840B50D8B49FEF83
:1023380011F0A1EF11F0BBEF11F00F50030D3B0EA0
:102348000C6E7F0E0D6EF3500C26F4500D221050BB
:102358000C26000E0D220CC0F6FF0DC0F7FF08007A
:10236800F5CF09F0115023EC1AF0D4EF11F00F500B
:10237800030D3B0E0C6E7F0E0D6EF3500C26F450C1
:102388000D2210500C26000E0D220CC0F6FF0DC0B9
:10239800F7FF0800F550FF0A096E115023EC1AF0F8
:1023A8000E2A102A020E1064DCEF11F0DEEF11F095
:1023B8007EEF11F0050E0001CD271200000E00017E
:1023C800736F71BFECEF11F0EAEF11F0F6EF11F057
:1023D800711F701F6F1F6E6D000E6F2370237123A6
:1023E800010E736F6DBFFDEF11F0FBEF11F007EFFA
:1023F80012F06D1F6C1F6B1F6A6D000E6B236C2330
:102408006D23010E731B000E746F000E756F000EA6
:10241800766F000E776F6E516F1170117111D8B40D
:1024280018EF12F01AEF12F050EF12F0010E726F5F
:1024380024EF12F0D8906E376F3770377137722BE0
:1024480071AF29EF12F02BEF12F01EEF12F0D890B7
:1024580074377537763777376E516A5D6F516B59B8
:1024680070516C5971516D59D8A03DEF12F03FEF82
:1024780012F048EF12F06E516A5F6F516B5B70514A
:102488006C5B71516D5B7481D890713370336F33AD
:102498006E33722F2BEF12F07351D8B456EF12F03F
:1024A80058EF12F060EF12F0771F761F751F746DEA
:1024B800000E75237623772374C06AF075C06BF01D
:1024C80076C06CF077C06DF0120000016C356D3588
:1024D800736F7351D8A473EF12F075EF12F07FEF9A
:1024E80012F0000E6A6F000E6B6F000E6C6F000E1C
:1024F8006D6FECEF12F06AC06EF06BC06FF06CC0DD
:1025080070F06DC071F0200E8FEF12F0D89071331B
:1025180070336F336E33E82E8AEF12F06E51726F9C
:102528006C8FFF0E6A17FF0E6B17FF0E6C17000EED
:102538006D17960E735F73BFA6EF12F0A4EF12F03B
:10254800BCEF12F07351800A970FD8B0AEEF12F0BB
:10255800B0EF12F0B2EF12F075EF12F0D8906D33C1
:102568006C336B336A33733FB2EF12F0D4EF12F06F
:102578001F0E7365C2EF12F0C4EF12F0CCEF12F029
:1025880075EF12F0D8906A376B376C376D37730771
:102598007351D8A4D2EF12F0D4EF12F0C6EF12F0B4
:1025A8007251D8B4DAEF12F0DCEF12F0E4EF12F067
:1025B8006D1F6C1F6B1F6A6D000E6B236C236D23E0
:1025C8006AC06AF06BC06BF06CC06CF06DC06DF0E7
:1025D8001200033404340A6E0A50D8A4F6EF12F03D
:1025E800F8EF12F002EF13F0000E016E000E026E0B
:1025F800000E036E000E046E6FEF13F001C005F0BD
:1026080002C006F003C007F004C008F0200E12EF65
:1026180013F0D8900832073206320532E82E0DEF53
:1026280013F00550096E038EFF0E0116FF0E0216F9
:10263800FF0E0316000E0416960E0A5E0ABE29EF58
:1026480013F027EF13F03FEF13F00A50800A970FAB
:10265800D8B031EF13F033EF13F035EF13F0F8EF94
:1026680012F0D89004320332023201320A3E35EFBA
:1026780013F057EF13F01F0E0A6445EF13F047EFFE
:1026880013F04FEF13F0F8EF12F0D890013602363E
:10269800033604360A060A50D8A455EF13F057EF4C
:1026A80013F049EF13F00950D8B45DEF13F05FEF62
:1026B80013F067EF13F0041E031E021E016C000ED8
:1026C80002220322042201C001F002C002F003C06A
:1026D80003F004C004F01200100E0001F06F270E82
:1026E800F16F000EF26F000EF36F000EF56F4B0ED8
:1026F800F46F55EC1AF0010ED7EC16F00BEC18F04D
:10270800150E0101496F4B0E486FBE0EE82EFED71D
:10271800482FFCD7492FFAD700F0AFEC15F013EC8F
:102728000FF0100E0001786F270E796F000E7A6F88
:10273800000E7B6F81EC19F04B0E00016A6F000EE2
:102748006B6F000E6C6F000E6D6F010E10EC0CF0CD
:102758006AC04AF16BC04BF16CC04CF16DC04DF1D1
:102768004AC19CF04BC19DF04CC19EF04DC19FF0F9
:102778002AEC17F0000E0001C76F010EC66F000E9D
:10278800CB6F000ECA6F000E5B6E000E5A6E808A09
:10279800C282C0C06AF0C1C06BF0000E00016D6F4C
:1027A800040E6C6F12EC16F06AC04EF16BC04FF15C
:1027B8004EC18EF04FC18FF062EC08F089EC18F032
:1027C800CCEF13F007EF00F000017F517B1907E110
:1027D80080517C19D8A4F3EF13F0F5EF13F014EF40
:1027E80014F07DC088F07EC089F005EF14F088C031
:1027F80074F083C075F07B51D3EC14F00001884B62
:10280800892B8151885D8951800A856F8251800AA0
:102818008559D8A012EF14F014EF14F0FBEF13F061
:1028280081517D1907E182517E19D8A41EEF14F059
:1028380020EF14F05EEF14F0FF0E7D258A6FFF0E77
:102848007E218B6F49EF14F07BC08CF07CC08DF03B
:1028580038EF14F08AC074F083C075F08C51D3EC53
:1028680014F000018C4B8D2B7F518C5D8D51800AAB
:10287800856F8051800A8559D8A045EF14F047EF3D
:1028880014F02EEF14F08A4B8B2B010E7D25856FEB
:10289800000E7E21866F8A51855D8651800A876F7A
:1028A8008B51800A8759D8B05CEF14F05EEF14F0B2
:1028B80028EF14F012001650121807E117501318D9
:1028C800D8A469EF14F06BEF14F089EF14F014C07A
:1028D8001FF015C020F07AEF14F01FC00BF01AC0DB
:1028E8000CF0125046EC15F01F4A202A18501F5CB5
:1028F8002050800A1C6E1950800A1C58D8A087EFF7
:1029080014F089EF14F071EF14F01850141807E15F
:1029180019501518D8A493EF14F095EF14F0D2EFCE
:1029280014F0FF0E1424216EFF0E1520226EBDEF49
:1029380014F012C023F013C024F0ACEF14F021C03F
:102948000BF01AC00CF0235046EC15F0234A242A49
:102958001650235C2450800A1C6E1750800A1C589D
:10296800D8A0B9EF14F0BBEF14F0A3EF14F0214A8C
:10297800222A010E14241C6E000E15201D6E2150F3
:102988001C5C1D50800A1E6E2250800A1E58D8B04A
:10299800D0EF14F0D2EF14F09DEF14F01200000104
:1029A800786F000E00017A6F3F0E7865DEEF14F045
:1029B800E0EF14F0E4EF14F0400E785F010E7A6F48
:1029C8008A94789F788D78C072F07A5108EC1AF062
:1029D80074C06AF000016B6B000E6D6F080E6C6FAF
:1029E80012EC16F000016A51BF0BB809726F7A51E8
:1029F80008EC1AF08A8400017A51EDEC19F0000114
:102A08007A51EDEC19F00001796F8A9478C072F070
:102A18007A5108EC1AF000017551D8B416EF15F088
:102A280018EF15F02CEF15F074C076F0070E761736
:102A3800010E776F762B23EF15F0D8907737762F26
:102A480021EF15F0000177517911796F3FEF15F0FB
:102A580074C076F0070E7617010E776F762B37EF76
:102A680015F0D8907737762F35EF15F000017751AC
:102A7800FF0A7915796F8A8479C072F07A5108EC67
:102A88001AF012000F6E000E116E3F0E0F644FEF1A
:102A980015F051EF15F055EF15F0400E0F5E010ED1
:102AA800116E8A940F9E0F8C0FC009F0115023EC01
:102AB8001AF00BC001F0026A000E046E080E036ED5
:102AC80075EC16F00150BF0BB809096E115023ECD4
:102AD8001AF08A8411503CEC1AF011503CEC1AF0B0
:102AE800106E8A940FC009F0115023EC1AF00C50A4
:102AF800D8B481EF15F083EF15F096EF15F00BC001
:102B08000DF0070E0D16010E0E6E0D2A8EEF15F044
:102B1800D8900E360D2E8CEF15F00E501010106E4A
:102B2800A8EF15F00BC00DF0070E0D16010E0E6E76
:102B38000D2AA1EF15F0D8900E360D2E9FEF15F047
:102B48000E50FF0A1014106E8A8410C009F011503C
:102B580023EC1AF0120021EE41F010EE8DF0060E73
:102B6800DBCFE3FFE806FCE220EED4F010EE94F0B1
:102B7800050EDBCFE3FFE806FCE221EE2FF010EEB6
:102B880083F0090EDBCFE3FFE806FCE2000E7BECE6
:102B980017F0020E0001746F120E52EC18F08D0E31
:102BA80000017D6F000E7E6F010E7F6F010E806F3A
:102BB80025EC19F0020E0001746F4E0E52EC18F05D
:102BC800940E00017D6F000E7E6F010E7F6F010E67
:102BD800806F25EC19F0050E0001746F1A0E52EC87
:102BE80018F0830E00017D6F000E7E6F010E7F6F5F
:102BF800010E806F25EC19F0150E0001826F4B0E47
:102C0800816FBE0EE82EFED7812FFCD7822FFAD710
:102C180000F0000E7BEC17F000D01200000E00014F
:102C28006F6F6DBF1CEF16F01AEF16F022EF16F05B
:102C38006C6D6D1FD8B06D2B010E6F6F6BBF29EFD8
:102C480016F027EF16F02FEF16F06A6D6B1FD8B04D
:102C58006B2B010E6F1B000E716F000E706F6C51A5
:102C68006D11D8B43AEF16F03CEF16F064EF16F099
:102C7800010E6E6F44EF16F0D8906C376D376E2BDF
:102C88006DAF49EF16F04BEF16F040EF16F0D89005
:102C9800703771376C516A5D6D516B59D8A057EF19
:102CA80016F059EF16F05EEF16F06C516A5F6D5131
:102CB8006B5B7081D8906D336C336E2F4BEF16F0D1
:102CC8006F51D8B46AEF16F06CEF16F070EF16F08B
:102CD800706D711FD8B0712B70C06AF071C06BF045
:102CE8001200000E066E04BE7EEF16F07CEF16F0A2
:102CF80084EF16F0036C041ED8B0042A010E066E89
:102D080002BE8BEF16F089EF16F091EF16F0016C0A
:102D1800021ED8B0022A010E061A000E086E000E16
:102D2800076E03500410D8B49CEF16F09EEF16F00F
:102D3800C6EF16F0010E056EA6EF16F0D890033612
:102D48000436052A04AEABEF16F0ADEF16F0A2EF8D
:102D580016F0D890073608360350015C0450025824
:102D6800D8A0B9EF16F0BBEF16F0C0EF16F003507D
:102D7800015E0450025A0780D89004320332052EAF
:102D8800ADEF16F00650D8B4CCEF16F0CEEF16F033
:102D9800D2EF16F0076C081ED8B0082A07C001F059
:102DA80008C002F012000001776F000E836E8A9A45
:102DB8008A8A8A988A908A928A94C00E0001726FD1
:102DC800000E08EC1AF0C00E0001726F010E08EC3C
:102DD8001AF0400E0001726F000E08EC1AF0400E57
:102DE8000001726F010E08EC1AF0B80E0001726F44
:102DF800000E08EC1AF0B80E0001726F010E08EC14
:102E08001AF000017705D8A40CEF17F00EEF17F0B1
:102E18001BEF17F03F0E726F000E08EC1AF03F0E12
:102E28000001726F010E08EC1AF026EF17F03E0E43
:102E3800726F000E08EC1AF03E0E0001726F010E60
:102E480008EC1AF0000E7BEC17F01200CB500001D2
:102E5800A06FA16B010EA027000EA123A0C06AF0ED
:102E6800A1C06BF0000E6BBFFF0E6C6F6D6F010E93
:102E780010EC0CF06AC083F06BC084F06CC085F075
:102E88006DC086F0000E00016E6F000E6F6FC80EE9
:102E9800706F420E716F9CC06AF09DC06BF09EC04F
:102EA8006CF09FC06DF094EC06F06AC087F06BC0C0
:102EB80088F06CC089F06DC08AF069EC02F083C0BC
:102EC800A2F084C0A3F085C0A4F086C0A5F0A2C07B
:102ED8006AF0A3C06BF0A4C06CF0A5C06DF069ECFB
:102EE80012F000016A51BB6EBA9ABA98120000013A
:102EF800746F000E0001766F8A94400E726F000E98
:102F080008EC1AF0400E0001726F010E08EC1AF07E
:102F180000017651B809726F000E08EC1AF0000132
:102F28007651B809726F010E08EC1AF08A84000E07
:102F38000001756F7451010DF3500008726F000E97
:102F480008EC1AF000017451010DF3500008726F7B
:102F5800010E08EC1AF00001752B3F0E7565B7EFEE
:102F680017F0B9EF17F09EEF17F0762B070E76657E
:102F7800C0EF17F0C2EF17F080EF17F012000B6EDA
:102F8800000E0D6E070E0D64CCEF17F0CEEF17F0A4
:102F9800D0EF17F00AEF18F08A94400E096E000E71
:102FA80023EC1AF0400E096E010E23EC1AF00D50B6
:102FB800B809096E000E23EC1AF00D50B809096E15
:102FC800010E23EC1AF08A84000E0C6E3F0E0C647E
:102FD800F0EF17F0F2EF17F0F4EF17F007EF18F033
:102FE8000B50010DF3500008096E000E23EC1AF087
:102FF8000B50010DF3500008096E010E23EC1AF076
:103008000C2AEAEF17F00D2AC6EF17F01200000E8F
:103018000001756F000E746F000E776F000E786FE9
:103028008A94400E726F785108EC1AF000017751BB
:10303800B809726F785108EC1AF08A84000E000102
:10304800766F3B0E7425F66E7B0E7521F76E0800C1
:10305800F5CF72F0785108EC1AF00001744B752B1B
:10306800762B3F0E76653BEF18F03DEF18F025EF15
:1030780018F0782B010E786544EF18F046EF18F039
:1030880014EF18F0772B070E77654DEF18F04FEF18
:1030980018F012EF18F08A908A9212000001766FE9
:1030A800000E0001756F800E76615DEF18F05FEF1E
:1030B80018F088EF18F0070E746565EF18F067EFE1
:1030C80018F069EF18F088EF18F076C0CDF074C0EA
:1030D800CCF03F0E766573EF18F075EF18F079EFC6
:1030E80018F0400E765F010E756F8A94765140098C
:1030F800726F755108EC1AF000017451B809726FBB
:10310800755108EC1AF08A841200B2C083FF8086D9
:10311800080E00016A6FC90EE82EFED76A2FFCD789
:1031280000D08096B8C083FF8080080E00016A6FC7
:10313800C90EE82EFED76A2FFCD700D08090B6C003
:1031480083FF8082080E00016A6FC90EE82EFED741
:103158006A2FFCD700D08092B4C083FF8084080E09
:1031680000016A6FC90EE82EFED76A2FFCD700D07F
:10317800809412000C6E000E0D6E800E0C60C7EF6E
:1031880018F0C9EF18F0F1EF18F0070E0B64CFEF45
:1031980018F0D1EF18F0D3EF18F0F1EF18F00CC0D9
:1031A800CDF00BC0CCF03F0E0C64DDEF18F0DFEF74
:1031B80018F0E3EF18F0400E0C5E010E0D6E8A94C5
:1031C8000C504009096E0D5023EC1AF00B50B80949
:1031D800096E0D5023EC1AF08A8412004C0EF66E1C
:1031E800330EF76E000EF86E01EE00F010EE48F0A8
:1031F8000900F5CFEEFFE550E150FAE1D40EF66E86
:10320800340EF76E000EF86E00EECEF010EE22F0DF
:103218000900F5CFEEFFE550E150FAE100EEA7F026
:10322800270EEE6AE806FDE15D6A5C6A5B6A5A6A27
:10323800596A586A5E905E92000EF86E000170EF4F
:1032480013F047EF19F000017F51D8B42EEF19F0B1
:1032580030EF19F03BEF19F080C074F07DC0D9FF52
:103268007EC0DAFFDF50B0EC0FF044EF19F080C0F9
:1032780074F07DC0D9FF7EC0DAFFDF503DEC10F05E
:1032880000017D4B7E2B7DC0D9FF7EC0DAFFDF5069
:10329800D8A451EF19F053EF19F027EF19F01200E5
:1032A80074EF19F01650D8B45CEF19F05EEF19F00E
:1032B80069EF19F017C00BF014C0D9FF15C0DAFF79
:1032C800DF50CAEC10F072EF19F017C00BF014C001
:1032D800D9FF15C0DAFFDF5056EC11F0144A152A51
:1032E80014C0D9FF15C0DAFFDF50D8A47EEF19F05B
:1032F80080EF19F056EF19F01200720ED36EFD0E22
:10330800946E0C0EBA6E000ECC6E070ECA6E0001DB
:10331800785148086A6FE80E79556B6F010E7A5537
:103328006C6F000E7B556D6F78C06EF079C06FF0D2
:103338007AC070F07BC071F0E2EC11F000016A51C4
:10334800CB6E1200322E52656374616E67756C61C4
:103358006972650043686F6973697220756E206DC4
:103368006F646500312E4F7363696C6C6F73636FA4
:103378007065004561737953434F50450051756539
:103388006E74696E0050726F6A657400000E151ACB
:10339800000E161A000E171A800E181A11C001F026
:1033A80012C002F013C003F014C004F015C005F0F9
:1033B80016C006F017C007F018C008F009EC00F0B6
:1033C80001C011F002C012F003C013F004C014F0E1
:1033D800120000016A6F00016A51D8B4F6EF19F0C3
:1033E800F8EF19F0FCEF19F08A808A92FEEF19F0D5
:1033F8008A928A8295688A868A8883CF6BF08A98AF
:103408008A908A926B5112000001736F0001735108
:10341800D8B411EF1AF013EF1AF017EF1AF08A80E8
:103428008A9219EF1AF08A928A82000E956E8A960D
:1034380072C08CFF8A888A988A908A9212000A6ED3
:103448000A50D8B42AEF1AF02CEF1AF030EF1AF01D
:103458008A808A9232EF1AF08A928A82000E956EDA
:103468008A9609C08CFF8A888A988A908A92120064
:10347800016E0150D8B443EF1AF045EF1AF049EF46
:103488001AF08A808A924BEF1AF08A928A8295689B
:103498008A868A8883CF02F08A988A908A92025014
:1034A8001200000E956E000E836E0A0EC16E110E8C
:1034B800C26EF00E926E000E806EC00E936E000EFD
:1034C800816EF28E9D8CF28CF28612004A756C65C4
:1034D80073004D4355203A004572696300627900D4
:0E34E8007C0045003200310032003100260029
:10733A000000000000000000000000000000000043
:10734A000000000000000000000000000000000033
:10735A000000000000000000000000000000000023
:10736A000000000000000000000000000000000013
:10737A000000000000000000000000000000000003
:10738A0000000000000000000000000000000000F3
:10739A0000000000000000000000000000000000E3
:1073AA0000000000000000000000000000000000D3
:1073BA0000000000000000000000000000000000C3
:1073CA0000000000000000000000000000000000B3
:1073DA0000000000000000000000000000000000A3
:1073EA000000000000000000000000000000000093
:1073FA000000000000000000000000000000000083
:10740A000000000000000000000000000000000072
:10741A000000000000000000000000000000000062
:10742A000000000000000000000000000000000052
:10743A0000000000000000000000065F5F06000078
:10744A00000007070007070000147F7F147F7F14DE
:10745A0000242E6B6B3A120000466630180C6662E6
:10746A0000307A4F5D377A480004070300000000B5
:10747A0000001C3E63410000000041633E1C000006
:10748A0000082A3E1C1C3E2A0808083E3E0808003E
:10749A00000080E0600000000008080808080800F2
:1074AA000000006060000000006030180C06030154
:1074BA00003E7F71594D7F3E0040427F7F40400031
:1074CA0000627359496F660000226349497F36009A
:1074DA0000181C16537F7F5000276745457D3900E9
:1074EA00003C7E4B4979300000030371790F070095
:1074FA0000367F49497F360000064F49693F1E0022
:10750A000000006666000000000080E666000000D9
:10751A0000081C366341000000242424242424008B
:10752A0000004163361C080000020351590F06008F
:10753A00003E7F415D5D1F1E007C7E13137E7C0032
:10754A0000417F7F49497F36001C3E6341416322E7
:10755A0000417F7F41633E1C00417F7F495D41635B
:10756A0000417F7F491D0103001C3E634151737234
:10757A00007F7F08087F7F000000417F7F41000075
:10758A0000307040417F3F0100417F7F081C7763D4
:10759A0000417F7F41406070007F7F0E1C0E7F7F1D
:1075AA00007F7F060C187F7F001C3E6341633E1CF0
:1075BA0000417F7F49090F06001E3F21717F5E004F
:1075CA0000417F7F09197F6600266F4D597332008B
:1075DA000003417F7F410300007F7F40407F7F009F
:1075EA00001F3F60603F1F00007F7F3018307F7FA1
:1075FA000043673C183C674300074F78784F070001
:10760A0000476371594D677300007F7F4141000055
:10761A00000103060C183060000041417F7F000022
:10762A0000080C0603060C08008080808080808099
:10763A00800000030704000000207454543C784082
:10764A0000417F3F4848783000387C44446C280029
:10765A0000307848493F7F4000387C54545C180019
:10766A0000487E7F490302000098BCA4A4F87C0469
:10767A0000417F7F08047C780000447D7D40000043
:10768A000060E08080FD7D0000417F7F10386C44FF
:10769A000000417F7F400000007C7C18381C7C7809
:1076AA00007C7C04047C780000387C44447C3800EC
:1076BA000084FCF8A4243C1800183C24A4F8FC8498
:1076CA0000447C784C041C1800485C545474240010
:1076DA000000043E7F442400003C7C40403C7C4047
:1076EA00001C3C60603C1C00003C7C7038707C3C98
:1076FA0000446C3810386C44009CBCA0A0FC7C0090
:10770A00004C64745C4C64000008083E77414100F8
:10771A000000000077770000004141773E0808002A
:10772A0000020301030203010070784C464C787092
:10773A00000E9F91B1FB4A00003A7A40407A7A40A3
:10774A0000387C54555D19000002237555557D7B20
:10775A0042217554547D794000217555547C7840F6
:10776A0000207457577C784000183CA4A4E44000D9
:10777A0000023B7D55555D1B02397D54545D19004D
:10778A0000397D55545C18000001457C7C4101009C
:10779A00000203457D7D43020001457D7C400000D7
:1077AA0000797D1612167D790070782B2B7870007F
:1077BA0000447C7C5555450000207454547C7C540C
:1077CA00547C7E0B097F7F4900327B49497B32001A
:1077DA0000327A48487A320000327A4A48783000D1
:1077EA00003A7B41417B7A40003A7A4240787840BD
:1077FA00009ABAA0A0FA7A000001193C66663C1900
:10780A00013D7D40407D3D0000183C24E7E72424EB
:10781A0000687E7F49436620002B2FFCFC2F2B003B
:10782A0000FFFF09092FF6F8A040C088FE7F090370
:10783A0002207454557D79400000447D7D4100004A
:10784A00003078484A7A320000387840427A7A40E2
:10785A00007A7A0A0A7A7000007D7D19317D7D00EE
:10786A000000262F292F2F280000262F292F260037
:10787A000030784D456020000038380808080800B4
:10788A000008080808383800004F6F3018CCEEBBE3
:10789A00914F6F30186C76FBF90000007B7B00007B
:1078AA0000081C3622081C362222361C0822361CE6
:1078BA0008AA005500AA005500AA55AA55AA55AA11
:1078CA0055DDFFAA77DDAAFF77000000FFFF000061
:1078DA0000101010FFFF000000141414FFFF000036
:1078EA00001010FFFF00FFFF001010F0F010F0F082
:1078FA0000141414FCFC0000001414F7F700FFFF36
:10790A00000000FFFF00FFFF001414F4F404FCFC65
:10791A000014141717101F1F0010101F1F101F1F0D
:10792A00001414141F1F000000101010F0F00000C3
:10793A00000000001F1F1010101010101F1F101041
:10794A0010101010F0F0101010000000FFFF1010BF
:10795A00101010101010101010101010FFFF10103F
:10796A0010000000FFFF1414140000FFFF00FFFFC7
:10797A001000001F1F101717140000FCFC04F4F479
:10798A001414141717101717141414F4F404F4F435
:10799A00140000FFFF00F7F714141414141414143D
:1079AA00141414F7F700F7F714141414171714140F
:1079BA001410101F1F101F1F10141414F4F41414A1
:1079CA00141010F0F010F0F01000001F1F101F1F0D
:1079DA00100000001F1F141414000000FCFC1414F3
:1079EA00140000F0F010F0F0101010FFFF10FFFF6D
:1079FA0010141414FFFF1414141010101F1F000089
:107A0A0000000000F0F0101010FFFFFFFFFFFFFF63
:107A1A00FFF0F0F0F0F0F0F0F0FFFFFFFF000000E1
:107A2A000000000000FFFFFFFF0F0F0F0F0F0F0FE7
:107A3A000F387C446C386C4400FCFE2A2A3E140041
:107A4A00007E7E020206060000027E7E027E7E0222
:107A5A000063775D4963630000387C447C3C04041E
:107A6A000080FE7E20203E1E000406027E7C060266
:107A7A000099BDE7E7BD9900001C3E6B496B3E1CAF
:107A8A00004C7E7301737E4C0030784A4F7D39007A
:107A9A0000183C243C3C243C1898FC643C3E273D9E
:107AAA0018000000000000000000000000000000B4
:107ABA0000000000000000000000000000000000BC
:107ACA0000000000000000000000000000000000AC
:107ADA00000000000000000000000000000000009C
:107AEA00000000000000000000000000000000008C
:107AFA00000000000000000000000000000000007C
:107B0A00000000000000000000000000000000006B
:107B1A00000000000000000000000000000000005B
:107B2A00000000000000000000000000000000004B
:107B3A00000000000000000000808080800000003B
:107B4A0000000000000000000000000000800000AB
:107B5A00800000800000000000000000000000001B
:107B6A00000000000000000000000000000000000B
:107B7A0000000000000000000000000000000000FB
:107B8A0000000000000000000000000000000000EB
:107B9A0000000000000000000000000000000000DB
:107BAA0000000000000000000000000000000000CB
:107BBA00000000000000003E4180808080413E00BD
:107BCA0000D894A46C00007884844C0088FC8081DE
:107BDA00FF8081FF800078848484780000D894A490
:107BEA006C00007884844C000078848484780008CF
:107BFA00FC488484780000789494580000000000BF
:107C0A00D894A46C00041C6480740C0400D894A456
:107C1A006C0004FF844000789494580088FC88041F
:107C2A00FC8804F88000000000000000000000004A
:107C3A00000000000000000000000000000000003A
:107C4A00000000000000000000000000000000002A
:107C5A00000000000000000000000000000000001A
:107C6A000000000000000000000000000000000406
:107C7A0007040000000000000000000000000000EF
:107C8A0000000000000404060100000000000000DB
:107C9A0000000000000000000000000000000000DA
:107CAA0000000000000000000000000000000000CA
:107CBA0000000000000000000000000000000000BA
:107CCA0000000000000000000000000000000000AA
:107CDA00000000000000000000000000000000009A
:107CEA000080F0F8181C0E0E1C1878F0C0800000F6
:107CFA0000000000000000000000000000000080FA
:107D0A00F0F8181C0C0E0E1C18F8F0800000000089
:107D1A000000000000000000000000000000000059
:107D2A000000000000000000000000000000000049
:107D3A000000000000000000000000000000000039
:107D4A000000000000000000000000000000000029
:107D5A000000000000000000000000000000000019
:107D6A00F8FF0F0000000000000000000FFFF800FD
:107D7A000000000000000000000000000000F8FF02
:107D8A000F0000000000000000000FFFF8000000D4
:107D9A0000000000000000000000000000000000D9
:107DAA0000000000000000000000000000000000C9
:107DBA0000000000000000000000000000000000B9
:107DCA000000000000000000000800080008001C75
:107DDA00FCF8800800080008000800080008E0FF16
:107DEA003F090008000800080008000800093FFFD2
:107DFA00E00800080008000800080008E0FF3F0942
:107E0A000008000800080008000800090F0F000811
:107E1A000008000800000000000000000000000048
:107E2A000000000000000000000000000000000048
:107E3A000000000000000000000000000000000038
:107E4A000000000000000000000000000000000028
:107E5A0000073FFCE000000000000080C0FC7F0734
:107E6A000000000000000000000000000000000701
:107E7A003FFCE000000000000000C0FC7F0700009B
:107E8A0000000000000000000000000000000000E8
:107E9A0000000000000000000000000000000000D8
:107EAA0000000000000000000000000000000000C8
:107EBA0000000000000000000000000000000000B8
:107ECA0000000000000000000000000000000000A8
:107EDA0000000001070F1C18181C0F070100000002
:107EEA000000000000000000000000000000000088
:107EFA000001070F1C18181C0C0F070100000000D6
:107F0A000000000000000000000000000000000067
:107F1A000000000000000000000000000000000057
:107F2A000000000000000000000000000000000047
:107F3A0000000000005C000C000C7C287C7C447C67
:107F4A00241048285408000C003844004438002003
:107F5A001008103810804000101010004000201047
:107F6A0008384438007C006454484454281C107C67
:107F7A004C542438542004740C28542808543800CB
:107F8A0050008050001028442828284428100454FF
:107F9A0008384C5C7814787C54283844447C44383B
:107FAA007C54447C14043844347C107C007C0020CB
:107FBA00403C7C106C7C40407C087C7C047C7C448B
:107FCA007C7C14083844787C1468485424047C0463
:107FDA007C407C3C403C7C207C6C106C1C601C64AB
:107FEA00544C7C4400081020447C0008040880801B
:057FFA008004080000F6
:020000040020DA
:08000000FFFFFFFFFFFFFFFF00
:020000040030CA
:0E000000000C191EFF8181FF0FC00FE00F40A2
:00000001FF
